{
  "address": "0x0165878A594ca255338adfa4d48449f69242Eb8F",
  "abi": [
    {
      "inputs": [
        {
          "internalType": "address",
          "name": "baseTokenAddress",
          "type": "address"
        },
        {
          "internalType": "address",
          "name": "priceFeedAddress",
          "type": "address"
        }
      ],
      "stateMutability": "nonpayable",
      "type": "constructor"
    },
    {
      "inputs": [],
      "name": "TokenFactory__InsufficientFund",
      "type": "error"
    },
    {
      "anonymous": false,
      "inputs": [
        {
          "indexed": true,
          "internalType": "address",
          "name": "recipient",
          "type": "address"
        },
        {
          "indexed": false,
          "internalType": "uint256",
          "name": "amount",
          "type": "uint256"
        }
      ],
      "name": "AssetBought",
      "type": "event"
    },
    {
      "anonymous": false,
      "inputs": [
        {
          "indexed": true,
          "internalType": "address",
          "name": "owner",
          "type": "address"
        },
        {
          "indexed": false,
          "internalType": "uint256",
          "name": "amount",
          "type": "uint256"
        }
      ],
      "name": "AssetWithdrawn",
      "type": "event"
    },
    {
      "inputs": [],
      "name": "applyRebase",
      "outputs": [],
      "stateMutability": "nonpayable",
      "type": "function"
    },
    {
      "inputs": [
        {
          "internalType": "uint256",
          "name": "_devTokenIndex",
          "type": "uint256"
        },
        {
          "internalType": "address",
          "name": "_owner",
          "type": "address"
        }
      ],
      "name": "balanceOf",
      "outputs": [
        {
          "internalType": "uint256",
          "name": "",
          "type": "uint256"
        }
      ],
      "stateMutability": "view",
      "type": "function"
    },
    {
      "inputs": [],
      "name": "buyAsset",
      "outputs": [],
      "stateMutability": "payable",
      "type": "function"
    },
    {
      "inputs": [
        {
          "internalType": "address",
          "name": "_owner",
          "type": "address"
        }
      ],
      "name": "calculateRollOverValue",
      "outputs": [
        {
          "internalType": "uint256",
          "name": "",
          "type": "uint256"
        }
      ],
      "stateMutability": "view",
      "type": "function"
    },
    {
      "inputs": [],
      "name": "getBaseTokenAddress",
      "outputs": [
        {
          "internalType": "address",
          "name": "",
          "type": "address"
        }
      ],
      "stateMutability": "view",
      "type": "function"
    },
    {
      "inputs": [],
      "name": "getPriceFeedAddress",
      "outputs": [
        {
          "internalType": "contract AggregatorV3Interface",
          "name": "",
          "type": "address"
        }
      ],
      "stateMutability": "view",
      "type": "function"
    },
    {
      "inputs": [
        {
          "internalType": "uint256",
          "name": "index",
          "type": "uint256"
        }
      ],
      "name": "getScallingFactor",
      "outputs": [
        {
          "internalType": "uint256",
          "name": "",
          "type": "uint256"
        }
      ],
      "stateMutability": "view",
      "type": "function"
    },
    {
      "inputs": [],
      "name": "getScallingFactorLength",
      "outputs": [
        {
          "internalType": "uint256",
          "name": "",
          "type": "uint256"
        }
      ],
      "stateMutability": "view",
      "type": "function"
    },
    {
      "inputs": [
        {
          "internalType": "address",
          "name": "userAddress",
          "type": "address"
        }
      ],
      "name": "getUserLastRebaseCount",
      "outputs": [
        {
          "internalType": "uint256",
          "name": "",
          "type": "uint256"
        }
      ],
      "stateMutability": "view",
      "type": "function"
    },
    {
      "inputs": [
        {
          "internalType": "string",
          "name": "token1Name",
          "type": "string"
        },
        {
          "internalType": "string",
          "name": "token1Symbol",
          "type": "string"
        },
        {
          "internalType": "string",
          "name": "token2Name",
          "type": "string"
        },
        {
          "internalType": "string",
          "name": "token2Symbol",
          "type": "string"
        },
        {
          "internalType": "address",
          "name": "tokenFactoryAddress",
          "type": "address"
        }
      ],
      "name": "initialize",
      "outputs": [],
      "stateMutability": "nonpayable",
      "type": "function"
    },
    {
      "inputs": [],
      "name": "rebase",
      "outputs": [],
      "stateMutability": "nonpayable",
      "type": "function"
    },
    {
      "inputs": [
        {
          "internalType": "uint256",
          "name": "scallingFactorX",
          "type": "uint256"
        }
      ],
      "name": "subUnchecked",
      "outputs": [
        {
          "internalType": "uint256",
          "name": "",
          "type": "uint256"
        }
      ],
      "stateMutability": "pure",
      "type": "function"
    },
    {
      "inputs": [
        {
          "internalType": "uint256",
          "name": "_devTokenIndex",
          "type": "uint256"
        },
        {
          "internalType": "address",
          "name": "to",
          "type": "address"
        },
        {
          "internalType": "uint256",
          "name": "value",
          "type": "uint256"
        }
      ],
      "name": "transfer",
      "outputs": [
        {
          "internalType": "bool",
          "name": "",
          "type": "bool"
        }
      ],
      "stateMutability": "nonpayable",
      "type": "function"
    },
    {
      "inputs": [
        {
          "internalType": "uint256",
          "name": "_amount",
          "type": "uint256"
        }
      ],
      "name": "withdrawAsset",
      "outputs": [],
      "stateMutability": "nonpayable",
      "type": "function"
    }
  ],
  "transactionHash": "0xf9fb0ccc8036caa9ea1db230292448cba93bf81129f47f15e52683d9754dad9f",
  "args": [
    "0x7ceB23fD6bC0adD59E62ac25578270cFf1b9f619",
    "0x9fE46736679d2D9a65F0992F2272dE9f3c7fa6e0"
  ],
  "numDeployments": 4,
  "solcInputHash": "44a024690b4be7f23ece3457f51714a7",
  "bytecode": "0x60c06040523480156200001157600080fd5b50604051620048ca380380620048ca833981810160405281019062000037919062000119565b60016000819055508173ffffffffffffffffffffffffffffffffffffffff1660808173ffffffffffffffffffffffffffffffffffffffff16815250508073ffffffffffffffffffffffffffffffffffffffff1660a08173ffffffffffffffffffffffffffffffffffffffff1681525050505062000160565b600080fd5b600073ffffffffffffffffffffffffffffffffffffffff82169050919050565b6000620000e182620000b4565b9050919050565b620000f381620000d4565b8114620000ff57600080fd5b50565b6000815190506200011381620000e8565b92915050565b60008060408385031215620001335762000132620000af565b5b6000620001438582860162000102565b9250506020620001568582860162000102565b9150509250929050565b60805160a05161473d6200018d600039600081816103d30152610da901526000610645015261473d6000f3fe608060405260043610620000f25760003560e01c80638d92fdf3116200008b578063a4d96e171162000061578063a4d96e1714620002d5578063af14052c1462000319578063e5fc402a1462000333578063f8548e36146200037757620000f2565b80638d92fdf314620002815780639fbaf13114620002af578063a4b82a3a14620002bb57620000f2565b80633656eec211620000cd5780633656eec214620001995780634df947d014620001dd57806378c1a6c4146200020d5780637b69ce2f146200023d57620000f2565b80630318b3a014620000f75780630f0f30b2146200013b5780632e640024146200016b575b600080fd5b3480156200010457600080fd5b506200012360048036038101906200011d9190620013d1565b620003bb565b60405162000132919062001414565b60405180910390f35b3480156200014857600080fd5b5062000153620003cf565b604051620001629190620014bc565b60405180910390f35b3480156200017857600080fd5b5062000197600480360381019062000191919062001680565b620003f7565b005b348015620001a657600080fd5b50620001c56004803603810190620001bf919062001784565b62000548565b604051620001d4919062001414565b60405180910390f35b348015620001ea57600080fd5b50620001f562000641565b604051620002049190620017dc565b60405180910390f35b3480156200021a57600080fd5b506200022562000669565b60405162000234919062001414565b60405180910390f35b3480156200024a57600080fd5b50620002696004803603810190620002639190620017f9565b62000676565b60405162000278919062001414565b60405180910390f35b3480156200028e57600080fd5b50620002ad6004803603810190620002a79190620013d1565b620006bf565b005b620002b96200082c565b005b348015620002c857600080fd5b50620002d3620008bf565b005b348015620002e257600080fd5b50620003016004803603810190620002fb9190620017f9565b62000b36565b60405162000310919062001414565b60405180910390f35b3480156200032657600080fd5b506200033162000d98565b005b3480156200034057600080fd5b506200035f6004803603810190620003599190620013d1565b62000e84565b6040516200036e919062001414565b60405180910390f35b3480156200038457600080fd5b50620003a360048036038101906200039d91906200182b565b62000eaf565b604051620003b29190620018a4565b60405180910390f35b600081670de0b6b3a7640000039050919050565b60007f0000000000000000000000000000000000000000000000000000000000000000905090565b60008585836040516200040a9062001374565b62000418939291906200194a565b604051809103906000f08015801562000435573d6000803e3d6000fd5b5090506002819080600181540180825580915050600190039060005260206000200160009091909190916101000a81548173ffffffffffffffffffffffffffffffffffffffff021916908373ffffffffffffffffffffffffffffffffffffffff1602179055506000848484604051620004ae9062001374565b620004bc939291906200194a565b604051809103906000f080158015620004d9573d6000803e3d6000fd5b5090506002819080600181540180825580915050600190039060005260206000200160009091909190916101000a81548173ffffffffffffffffffffffffffffffffffffffff021916908373ffffffffffffffffffffffffffffffffffffffff16021790555050505050505050565b60006200056e604051806060016040528060268152602001620046e26026913962000f7e565b62000579826200101b565b6002838154811062000590576200058f62001995565b5b9060005260206000200160009054906101000a900473ffffffffffffffffffffffffffffffffffffffff1673ffffffffffffffffffffffffffffffffffffffff166370a08231836040518263ffffffff1660e01b8152600401620005f59190620017dc565b602060405180830381865afa15801562000613573d6000803e3d6000fd5b505050506040513d601f19601f82011682018060405250810190620006399190620019db565b905092915050565b60007f0000000000000000000000000000000000000000000000000000000000000000905090565b6000600180549050905090565b6000600360008373ffffffffffffffffffffffffffffffffffffffff1673ffffffffffffffffffffffffffffffffffffffff168152602001908152602001600020549050919050565b620006c9620010b8565b620006d362000669565b600360003373ffffffffffffffffffffffffffffffffffffffff1673ffffffffffffffffffffffffffffffffffffffff1681526020019081526020016000205414620007245762000723620008bf565b5b6200073160003362000548565b8111156200076b576040517fd9f6ddd900000000000000000000000000000000000000000000000000000000815260040160405180910390fd5b62000779600033836200110a565b62000787600133836200110a565b3373ffffffffffffffffffffffffffffffffffffffff166108fc829081150290604051600060405180830381858888f19350505050158015620007ce573d6000803e3d6000fd5b503373ffffffffffffffffffffffffffffffffffffffff167f94b055d454fefc95ba06924afbaac83912b1575d621a7d32a4675303246bb7d08260405162000817919062001414565b60405180910390a262000829620011c1565b50565b62000836620010b8565b6200084c600033678ac7230489e80000620011cb565b620008636001336801158e460913d00000620011cb565b3373ffffffffffffffffffffffffffffffffffffffff167f1043b9f778084a8d3cd9af8b3e347f91d1f9f75697034f065aac775937fe79d434604051620008ab919062001414565b60405180910390a2620008bd620011c1565b565b60006002600081548110620008d957620008d862001995565b5b9060005260206000200160009054906101000a900473ffffffffffffffffffffffffffffffffffffffff1673ffffffffffffffffffffffffffffffffffffffff166370a08231336040518263ffffffff1660e01b81526004016200093e9190620017dc565b602060405180830381865afa1580156200095c573d6000803e3d6000fd5b505050506040513d601f19601f82011682018060405250810190620009829190620019db565b9050600060026001815481106200099e576200099d62001995565b5b9060005260206000200160009054906101000a900473ffffffffffffffffffffffffffffffffffffffff1673ffffffffffffffffffffffffffffffffffffffff166370a08231336040518263ffffffff1660e01b815260040162000a039190620017dc565b602060405180830381865afa15801562000a21573d6000803e3d6000fd5b505050506040513d601f19601f8201168201806040525081019062000a479190620019db565b9050600062000a563362000b36565b90508281111562000a825762000a7c600033858462000a76919062001a3c565b620011cb565b62000a9e565b62000a9d600033838662000a97919062001a3c565b6200110a565b5b8181111562000ac85762000ac2600133848462000abc919062001a3c565b620011cb565b62000ae4565b62000ae3600133838562000add919062001a3c565b6200110a565b5b62000aee62000669565b600360003373ffffffffffffffffffffffffffffffffffffffff1673ffffffffffffffffffffffffffffffffffffffff16815260200190815260200160002081905550505050565b6000806001600360008573ffffffffffffffffffffffffffffffffffffffff1673ffffffffffffffffffffffffffffffffffffffff168152602001908152602001600020548154811062000b8f5762000b8e62001995565b5b90600052602060002001549050600062000ba982620003bb565b90506000670de0b6b3a7640000600260008154811062000bce5762000bcd62001995565b5b9060005260206000200160009054906101000a900473ffffffffffffffffffffffffffffffffffffffff1673ffffffffffffffffffffffffffffffffffffffff16638f4cef0c876040518263ffffffff1660e01b815260040162000c339190620017dc565b602060405180830381865afa15801562000c51573d6000803e3d6000fd5b505050506040513d601f19601f8201168201806040525081019062000c779190620019db565b62000c83919062001aa6565b90506000670de0b6b3a7640000600260018154811062000ca85762000ca762001995565b5b9060005260206000200160009054906101000a900473ffffffffffffffffffffffffffffffffffffffff1673ffffffffffffffffffffffffffffffffffffffff16638f4cef0c886040518263ffffffff1660e01b815260040162000d0d9190620017dc565b602060405180830381865afa15801562000d2b573d6000803e3d6000fd5b505050506040513d601f19601f8201168201806040525081019062000d519190620019db565b62000d5d919062001aa6565b90506000838262000d6f919062001ade565b858462000d7d919062001ade565b62000d89919062001b29565b90508095505050505050919050565b6000670de0b6b3a764000062000de47f000000000000000000000000000000000000000000000000000000000000000073ffffffffffffffffffffffffffffffffffffffff1662001282565b62000df0919062001aa6565b9050600062000e0a6003836200130690919063ffffffff16565b9050600062000e246002846200130690919063ffffffff16565b90506001816002670de0b6b3a76400008562000e41919062001ade565b62000e4d919062001aa6565b62000e59919062001aa6565b9080600181540180825580915050600190039060005260206000200160009091909190915055505050565b60006001828154811062000e9d5762000e9c62001995565b5b90600052602060002001549050919050565b60006002848154811062000ec85762000ec762001995565b5b9060005260206000200160009054906101000a900473ffffffffffffffffffffffffffffffffffffffff1673ffffffffffffffffffffffffffffffffffffffff1663a9059cbb84846040518363ffffffff1660e01b815260040162000f2f92919062001b64565b6020604051808303816000875af115801562000f4f573d6000803e3d6000fd5b505050506040513d601f19601f8201168201806040525081019062000f75919062001bc2565b90509392505050565b620010188160405160240162000f95919062001bf4565b6040516020818303038152906040527f41304fac000000000000000000000000000000000000000000000000000000007bffffffffffffffffffffffffffffffffffffffffffffffffffffffff19166020820180517bffffffffffffffffffffffffffffffffffffffffffffffffffffffff83818316178352505050506200134b565b50565b620010b581604051602401620010329190620017dc565b6040516020818303038152906040527f2c2ecbc2000000000000000000000000000000000000000000000000000000007bffffffffffffffffffffffffffffffffffffffffffffffffffffffff19166020820180517bffffffffffffffffffffffffffffffffffffffffffffffffffffffff83818316178352505050506200134b565b50565b60026000540362001100576040517f08c379a0000000000000000000000000000000000000000000000000000000008152600401620010f79062001c68565b60405180910390fd5b6002600081905550565b6002838154811062001121576200112062001995565b5b9060005260206000200160009054906101000a900473ffffffffffffffffffffffffffffffffffffffff1673ffffffffffffffffffffffffffffffffffffffff16639dc29fac83836040518363ffffffff1660e01b81526004016200118892919062001b64565b600060405180830381600087803b158015620011a357600080fd5b505af1158015620011b8573d6000803e3d6000fd5b50505050505050565b6001600081905550565b60028381548110620011e257620011e162001995565b5b9060005260206000200160009054906101000a900473ffffffffffffffffffffffffffffffffffffffff1673ffffffffffffffffffffffffffffffffffffffff166340c10f1983836040518363ffffffff1660e01b81526004016200124992919062001b64565b600060405180830381600087803b1580156200126457600080fd5b505af115801562001279573d6000803e3d6000fd5b50505050505050565b6000808273ffffffffffffffffffffffffffffffffffffffff1663feaf968c6040518163ffffffff1660e01b815260040160a060405180830381865afa158015620012d1573d6000803e3d6000fd5b505050506040513d601f19601f82011682018060405250810190620012f7919062001d0c565b50505091505080915050919050565b6000808314620013405760018260018562001322919062001a3c565b6200132e919062001aa6565b6200133a919062001b29565b62001343565b60005b905092915050565b60008151905060006a636f6e736f6c652e6c6f679050602083016000808483855afa5050505050565b61294d8062001d9583390190565b6000604051905090565b600080fd5b600080fd5b6000819050919050565b620013ab8162001396565b8114620013b757600080fd5b50565b600081359050620013cb81620013a0565b92915050565b600060208284031215620013ea57620013e96200138c565b5b6000620013fa84828501620013ba565b91505092915050565b6200140e8162001396565b82525050565b60006020820190506200142b600083018462001403565b92915050565b600073ffffffffffffffffffffffffffffffffffffffff82169050919050565b6000819050919050565b60006200147c62001476620014708462001431565b62001451565b62001431565b9050919050565b600062001490826200145b565b9050919050565b6000620014a48262001483565b9050919050565b620014b68162001497565b82525050565b6000602082019050620014d36000830184620014ab565b92915050565b600080fd5b600080fd5b6000601f19601f8301169050919050565b7f4e487b7100000000000000000000000000000000000000000000000000000000600052604160045260246000fd5b6200152e82620014e3565b810181811067ffffffffffffffff8211171562001550576200154f620014f4565b5b80604052505050565b60006200156562001382565b905062001573828262001523565b919050565b600067ffffffffffffffff821115620015965762001595620014f4565b5b620015a182620014e3565b9050602081019050919050565b82818337600083830152505050565b6000620015d4620015ce8462001578565b62001559565b905082815260208101848484011115620015f357620015f2620014de565b5b62001600848285620015ae565b509392505050565b600082601f83011262001620576200161f620014d9565b5b813562001632848260208601620015bd565b91505092915050565b6000620016488262001431565b9050919050565b6200165a816200163b565b81146200166657600080fd5b50565b6000813590506200167a816200164f565b92915050565b600080600080600060a086880312156200169f576200169e6200138c565b5b600086013567ffffffffffffffff811115620016c057620016bf62001391565b5b620016ce8882890162001608565b955050602086013567ffffffffffffffff811115620016f257620016f162001391565b5b620017008882890162001608565b945050604086013567ffffffffffffffff81111562001724576200172362001391565b5b620017328882890162001608565b935050606086013567ffffffffffffffff81111562001756576200175562001391565b5b620017648882890162001608565b9250506080620017778882890162001669565b9150509295509295909350565b600080604083850312156200179e576200179d6200138c565b5b6000620017ae85828601620013ba565b9250506020620017c18582860162001669565b9150509250929050565b620017d6816200163b565b82525050565b6000602082019050620017f36000830184620017cb565b92915050565b6000602082840312156200181257620018116200138c565b5b6000620018228482850162001669565b91505092915050565b6000806000606084860312156200184757620018466200138c565b5b60006200185786828701620013ba565b93505060206200186a8682870162001669565b92505060406200187d86828701620013ba565b9150509250925092565b60008115159050919050565b6200189e8162001887565b82525050565b6000602082019050620018bb600083018462001893565b92915050565b600081519050919050565b600082825260208201905092915050565b60005b83811015620018fd578082015181840152602081019050620018e0565b60008484015250505050565b60006200191682620018c1565b620019228185620018cc565b935062001934818560208601620018dd565b6200193f81620014e3565b840191505092915050565b6000606082019050818103600083015262001966818662001909565b905081810360208301526200197c818562001909565b90506200198d6040830184620017cb565b949350505050565b7f4e487b7100000000000000000000000000000000000000000000000000000000600052603260045260246000fd5b600081519050620019d581620013a0565b92915050565b600060208284031215620019f457620019f36200138c565b5b600062001a0484828501620019c4565b91505092915050565b7f4e487b7100000000000000000000000000000000000000000000000000000000600052601160045260246000fd5b600062001a498262001396565b915062001a568362001396565b925082820390508181111562001a715762001a7062001a0d565b5b92915050565b7f4e487b7100000000000000000000000000000000000000000000000000000000600052601260045260246000fd5b600062001ab38262001396565b915062001ac08362001396565b92508262001ad35762001ad262001a77565b5b828204905092915050565b600062001aeb8262001396565b915062001af88362001396565b925082820262001b088162001396565b9150828204841483151762001b225762001b2162001a0d565b5b5092915050565b600062001b368262001396565b915062001b438362001396565b925082820190508082111562001b5e5762001b5d62001a0d565b5b92915050565b600060408201905062001b7b6000830185620017cb565b62001b8a602083018462001403565b9392505050565b62001b9c8162001887565b811462001ba857600080fd5b50565b60008151905062001bbc8162001b91565b92915050565b60006020828403121562001bdb5762001bda6200138c565b5b600062001beb8482850162001bab565b91505092915050565b6000602082019050818103600083015262001c10818462001909565b905092915050565b7f5265656e7472616e637947756172643a207265656e7472616e742063616c6c00600082015250565b600062001c50601f83620018cc565b915062001c5d8262001c18565b602082019050919050565b6000602082019050818103600083015262001c838162001c41565b9050919050565b600069ffffffffffffffffffff82169050919050565b62001cab8162001c8a565b811462001cb757600080fd5b50565b60008151905062001ccb8162001ca0565b92915050565b6000819050919050565b62001ce68162001cd1565b811462001cf257600080fd5b50565b60008151905062001d068162001cdb565b92915050565b600080600080600060a0868803121562001d2b5762001d2a6200138c565b5b600062001d3b8882890162001cba565b955050602062001d4e8882890162001cf5565b945050604062001d6188828901620019c4565b935050606062001d7488828901620019c4565b925050608062001d878882890162001cba565b915050929550929590935056fe60806040523480156200001157600080fd5b506040516200294d3803806200294d83398181016040528101906200003791906200038f565b828281600390816200004a919062000674565b5080600490816200005c919062000674565b5050506200007f62000073620000c960201b60201c565b620000d160201b60201c565b80600660006101000a81548173ffffffffffffffffffffffffffffffffffffffff021916908373ffffffffffffffffffffffffffffffffffffffff1602179055505050506200075b565b600033905090565b6000600560009054906101000a900473ffffffffffffffffffffffffffffffffffffffff16905081600560006101000a81548173ffffffffffffffffffffffffffffffffffffffff021916908373ffffffffffffffffffffffffffffffffffffffff1602179055508173ffffffffffffffffffffffffffffffffffffffff168173ffffffffffffffffffffffffffffffffffffffff167f8be0079c531659141344cd1fd0a4f28419497f9722a3daafe3b4186f6b6457e060405160405180910390a35050565b6000604051905090565b600080fd5b600080fd5b600080fd5b600080fd5b6000601f19601f8301169050919050565b7f4e487b7100000000000000000000000000000000000000000000000000000000600052604160045260246000fd5b6200020082620001b5565b810181811067ffffffffffffffff82111715620002225762000221620001c6565b5b80604052505050565b60006200023762000197565b9050620002458282620001f5565b919050565b600067ffffffffffffffff821115620002685762000267620001c6565b5b6200027382620001b5565b9050602081019050919050565b60005b83811015620002a057808201518184015260208101905062000283565b60008484015250505050565b6000620002c3620002bd846200024a565b6200022b565b905082815260208101848484011115620002e257620002e1620001b0565b5b620002ef84828562000280565b509392505050565b600082601f8301126200030f576200030e620001ab565b5b815162000321848260208601620002ac565b91505092915050565b600073ffffffffffffffffffffffffffffffffffffffff82169050919050565b600062000357826200032a565b9050919050565b62000369816200034a565b81146200037557600080fd5b50565b60008151905062000389816200035e565b92915050565b600080600060608486031215620003ab57620003aa620001a1565b5b600084015167ffffffffffffffff811115620003cc57620003cb620001a6565b5b620003da86828701620002f7565b935050602084015167ffffffffffffffff811115620003fe57620003fd620001a6565b5b6200040c86828701620002f7565b92505060406200041f8682870162000378565b9150509250925092565b600081519050919050565b7f4e487b7100000000000000000000000000000000000000000000000000000000600052602260045260246000fd5b600060028204905060018216806200047c57607f821691505b60208210810362000492576200049162000434565b5b50919050565b60008190508160005260206000209050919050565b60006020601f8301049050919050565b600082821b905092915050565b600060088302620004fc7fffffffffffffffffffffffffffffffffffffffffffffffffffffffffffffffff82620004bd565b620005088683620004bd565b95508019841693508086168417925050509392505050565b6000819050919050565b6000819050919050565b6000620005556200054f620005498462000520565b6200052a565b62000520565b9050919050565b6000819050919050565b620005718362000534565b6200058962000580826200055c565b848454620004ca565b825550505050565b600090565b620005a062000591565b620005ad81848462000566565b505050565b5b81811015620005d557620005c960008262000596565b600181019050620005b3565b5050565b601f8211156200062457620005ee8162000498565b620005f984620004ad565b8101602085101562000609578190505b620006216200061885620004ad565b830182620005b2565b50505b505050565b600082821c905092915050565b6000620006496000198460080262000629565b1980831691505092915050565b600062000664838362000636565b9150826002028217905092915050565b6200067f8262000429565b67ffffffffffffffff8111156200069b576200069a620001c6565b5b620006a7825462000463565b620006b4828285620005d9565b600060209050601f831160018114620006ec5760008415620006d7578287015190505b620006e3858262000656565b86555062000753565b601f198416620006fc8662000498565b60005b828110156200072657848901518255600182019150602085019450602081019050620006ff565b8683101562000746578489015162000742601f89168262000636565b8355505b6001600288020188555050505b505050505050565b6121e2806200076b6000396000f3fe608060405234801561001057600080fd5b50600436106101165760003560e01c80638da5cb5b116100a2578063a457c2d711610071578063a457c2d7146102e3578063a9059cbb14610313578063dd62ed3e14610343578063e77772fe14610373578063f2fde38b1461039157610116565b80638da5cb5b1461025b5780638f4cef0c1461027957806395d89b41146102a95780639dc29fac146102c757610116565b8063313ce567116100e9578063313ce567146101b757806339509351146101d557806340c10f191461020557806370a0823114610221578063715018a61461025157610116565b806306fdde031461011b578063095ea7b31461013957806318160ddd1461016957806323b872dd14610187575b600080fd5b6101236103ad565b6040516101309190611729565b60405180910390f35b610153600480360381019061014e91906117e4565b61043f565b604051610160919061183f565b60405180910390f35b610171610462565b60405161017e9190611869565b60405180910390f35b6101a1600480360381019061019c9190611884565b61046c565b6040516101ae919061183f565b60405180910390f35b6101bf61049b565b6040516101cc91906118f3565b60405180910390f35b6101ef60048036038101906101ea91906117e4565b6104a4565b6040516101fc919061183f565b60405180910390f35b61021f600480360381019061021a91906117e4565b6104db565b005b61023b6004803603810190610236919061190e565b6104f1565b6040516102489190611869565b60405180910390f35b610259610741565b005b610263610755565b604051610270919061194a565b60405180910390f35b610293600480360381019061028e919061190e565b61077f565b6040516102a09190611869565b60405180910390f35b6102b1610791565b6040516102be9190611729565b60405180910390f35b6102e160048036038101906102dc91906117e4565b610823565b005b6102fd60048036038101906102f891906117e4565b610839565b60405161030a919061183f565b60405180910390f35b61032d600480360381019061032891906117e4565b6108b0565b60405161033a919061183f565b60405180910390f35b61035d60048036038101906103589190611965565b610a82565b60405161036a9190611869565b60405180910390f35b61037b610b09565b6040516103889190611a04565b60405180910390f35b6103ab60048036038101906103a6919061190e565b610b2f565b005b6060600380546103bc90611a4e565b80601f01602080910402602001604051908101604052809291908181526020018280546103e890611a4e565b80156104355780601f1061040a57610100808354040283529160200191610435565b820191906000526020600020905b81548152906001019060200180831161041857829003601f168201915b5050505050905090565b60008061044a610bb2565b9050610457818585610bba565b600191505092915050565b6000600254905090565b600080610477610bb2565b9050610484858285610d83565b61048f858585610e0f565b60019150509392505050565b60006012905090565b6000806104af610bb2565b90506104d08185856104c18589610a82565b6104cb9190611aae565b610bba565b600191505092915050565b6104e3611085565b6104ed8282611103565b5050565b600061051460405180606001604052806022815260200161218b60229139611259565b61051d826112f2565b600660009054906101000a900473ffffffffffffffffffffffffffffffffffffffff1673ffffffffffffffffffffffffffffffffffffffff166378c1a6c46040518163ffffffff1660e01b8152600401602060405180830381865afa15801561058a573d6000803e3d6000fd5b505050506040513d601f19601f820116820180604052508101906105ae9190611af7565b600660009054906101000a900473ffffffffffffffffffffffffffffffffffffffff1673ffffffffffffffffffffffffffffffffffffffff16637b69ce2f336040518263ffffffff1660e01b8152600401610609919061194a565b602060405180830381865afa158015610626573d6000803e3d6000fd5b505050506040513d601f19601f8201168201806040525081019061064a9190611af7565b146106f257600660009054906101000a900473ffffffffffffffffffffffffffffffffffffffff1673ffffffffffffffffffffffffffffffffffffffff1663a4d96e17836040518263ffffffff1660e01b81526004016106aa919061194a565b602060405180830381865afa1580156106c7573d6000803e3d6000fd5b505050506040513d601f19601f820116820180604052508101906106eb9190611af7565b905061073c565b6107306040518060400160405280601e81526020017f6920616d20696e736964652074686520656c73652073746174656d656e740000815250611259565b6107398261138b565b90505b919050565b610749611085565b61075360006113d3565b565b6000600560009054906101000a900473ffffffffffffffffffffffffffffffffffffffff16905090565b600061078a8261138b565b9050919050565b6060600480546107a090611a4e565b80601f01602080910402602001604051908101604052809291908181526020018280546107cc90611a4e565b80156108195780601f106107ee57610100808354040283529160200191610819565b820191906000526020600020905b8154815290600101906020018083116107fc57829003601f168201915b5050505050905090565b61082b611085565b6108358282611499565b5050565b600080610844610bb2565b905060006108528286610a82565b905083811015610897576040517f08c379a000000000000000000000000000000000000000000000000000000000815260040161088e90611b96565b60405180910390fd5b6108a48286868403610bba565b60019250505092915050565b6000600660009054906101000a900473ffffffffffffffffffffffffffffffffffffffff1673ffffffffffffffffffffffffffffffffffffffff166378c1a6c46040518163ffffffff1660e01b8152600401602060405180830381865afa15801561091f573d6000803e3d6000fd5b505050506040513d601f19601f820116820180604052508101906109439190611af7565b600660009054906101000a900473ffffffffffffffffffffffffffffffffffffffff1673ffffffffffffffffffffffffffffffffffffffff16637b69ce2f336040518263ffffffff1660e01b815260040161099e919061194a565b602060405180830381865afa1580156109bb573d6000803e3d6000fd5b505050506040513d601f19601f820116820180604052508101906109df9190611af7565b14610a6757600660009054906101000a900473ffffffffffffffffffffffffffffffffffffffff1673ffffffffffffffffffffffffffffffffffffffff1663a4b82a3a6040518163ffffffff1660e01b8152600401600060405180830381600087803b158015610a4e57600080fd5b505af1158015610a62573d6000803e3d6000fd5b505050505b6000329050610a77818585610e0f565b600191505092915050565b6000600160008473ffffffffffffffffffffffffffffffffffffffff1673ffffffffffffffffffffffffffffffffffffffff16815260200190815260200160002060008373ffffffffffffffffffffffffffffffffffffffff1673ffffffffffffffffffffffffffffffffffffffff16815260200190815260200160002054905092915050565b600660009054906101000a900473ffffffffffffffffffffffffffffffffffffffff1681565b610b37611085565b600073ffffffffffffffffffffffffffffffffffffffff168173ffffffffffffffffffffffffffffffffffffffff1603610ba6576040517f08c379a0000000000000000000000000000000000000000000000000000000008152600401610b9d90611c28565b60405180910390fd5b610baf816113d3565b50565b600033905090565b600073ffffffffffffffffffffffffffffffffffffffff168373ffffffffffffffffffffffffffffffffffffffff1603610c29576040517f08c379a0000000000000000000000000000000000000000000000000000000008152600401610c2090611cba565b60405180910390fd5b600073ffffffffffffffffffffffffffffffffffffffff168273ffffffffffffffffffffffffffffffffffffffff1603610c98576040517f08c379a0000000000000000000000000000000000000000000000000000000008152600401610c8f90611d4c565b60405180910390fd5b80600160008573ffffffffffffffffffffffffffffffffffffffff1673ffffffffffffffffffffffffffffffffffffffff16815260200190815260200160002060008473ffffffffffffffffffffffffffffffffffffffff1673ffffffffffffffffffffffffffffffffffffffff168152602001908152602001600020819055508173ffffffffffffffffffffffffffffffffffffffff168373ffffffffffffffffffffffffffffffffffffffff167f8c5be1e5ebec7d5bd14f71427d1e84f3dd0314c0f7b2291e5b200ac8c7c3b92583604051610d769190611869565b60405180910390a3505050565b6000610d8f8484610a82565b90507fffffffffffffffffffffffffffffffffffffffffffffffffffffffffffffffff8114610e095781811015610dfb576040517f08c379a0000000000000000000000000000000000000000000000000000000008152600401610df290611db8565b60405180910390fd5b610e088484848403610bba565b5b50505050565b600073ffffffffffffffffffffffffffffffffffffffff168373ffffffffffffffffffffffffffffffffffffffff1603610e7e576040517f08c379a0000000000000000000000000000000000000000000000000000000008152600401610e7590611e4a565b60405180910390fd5b600073ffffffffffffffffffffffffffffffffffffffff168273ffffffffffffffffffffffffffffffffffffffff1603610eed576040517f08c379a0000000000000000000000000000000000000000000000000000000008152600401610ee490611edc565b60405180910390fd5b610ef8838383611666565b60008060008573ffffffffffffffffffffffffffffffffffffffff1673ffffffffffffffffffffffffffffffffffffffff16815260200190815260200160002054905081811015610f7e576040517f08c379a0000000000000000000000000000000000000000000000000000000008152600401610f7590611f6e565b60405180910390fd5b8181036000808673ffffffffffffffffffffffffffffffffffffffff1673ffffffffffffffffffffffffffffffffffffffff16815260200190815260200160002081905550816000808573ffffffffffffffffffffffffffffffffffffffff1673ffffffffffffffffffffffffffffffffffffffff168152602001908152602001600020600082825401925050819055508273ffffffffffffffffffffffffffffffffffffffff168473ffffffffffffffffffffffffffffffffffffffff167fddf252ad1be2c89b69c2b068fc378daa952ba7f163c4a11628f55a4df523b3ef8460405161106c9190611869565b60405180910390a361107f84848461166b565b50505050565b61108d610bb2565b73ffffffffffffffffffffffffffffffffffffffff166110ab610755565b73ffffffffffffffffffffffffffffffffffffffff1614611101576040517f08c379a00000000000000000000000000000000000000000000000000000000081526004016110f890611fda565b60405180910390fd5b565b600073ffffffffffffffffffffffffffffffffffffffff168273ffffffffffffffffffffffffffffffffffffffff1603611172576040517f08c379a000000000000000000000000000000000000000000000000000000000815260040161116990612046565b60405180910390fd5b61117e60008383611666565b80600260008282546111909190611aae565b92505081905550806000808473ffffffffffffffffffffffffffffffffffffffff1673ffffffffffffffffffffffffffffffffffffffff168152602001908152602001600020600082825401925050819055508173ffffffffffffffffffffffffffffffffffffffff16600073ffffffffffffffffffffffffffffffffffffffff167fddf252ad1be2c89b69c2b068fc378daa952ba7f163c4a11628f55a4df523b3ef836040516112419190611869565b60405180910390a36112556000838361166b565b5050565b6112ef8160405160240161126d9190611729565b6040516020818303038152906040527f41304fac000000000000000000000000000000000000000000000000000000007bffffffffffffffffffffffffffffffffffffffffffffffffffffffff19166020820180517bffffffffffffffffffffffffffffffffffffffffffffffffffffffff8381831617835250505050611670565b50565b61138881604051602401611306919061194a565b6040516020818303038152906040527f2c2ecbc2000000000000000000000000000000000000000000000000000000007bffffffffffffffffffffffffffffffffffffffffffffffffffffffff19166020820180517bffffffffffffffffffffffffffffffffffffffffffffffffffffffff8381831617835250505050611670565b50565b60008060008373ffffffffffffffffffffffffffffffffffffffff1673ffffffffffffffffffffffffffffffffffffffff168152602001908152602001600020549050919050565b6000600560009054906101000a900473ffffffffffffffffffffffffffffffffffffffff16905081600560006101000a81548173ffffffffffffffffffffffffffffffffffffffff021916908373ffffffffffffffffffffffffffffffffffffffff1602179055508173ffffffffffffffffffffffffffffffffffffffff168173ffffffffffffffffffffffffffffffffffffffff167f8be0079c531659141344cd1fd0a4f28419497f9722a3daafe3b4186f6b6457e060405160405180910390a35050565b600073ffffffffffffffffffffffffffffffffffffffff168273ffffffffffffffffffffffffffffffffffffffff1603611508576040517f08c379a00000000000000000000000000000000000000000000000000000000081526004016114ff906120d8565b60405180910390fd5b61151482600083611666565b60008060008473ffffffffffffffffffffffffffffffffffffffff1673ffffffffffffffffffffffffffffffffffffffff1681526020019081526020016000205490508181101561159a576040517f08c379a00000000000000000000000000000000000000000000000000000000081526004016115919061216a565b60405180910390fd5b8181036000808573ffffffffffffffffffffffffffffffffffffffff1673ffffffffffffffffffffffffffffffffffffffff1681526020019081526020016000208190555081600260008282540392505081905550600073ffffffffffffffffffffffffffffffffffffffff168373ffffffffffffffffffffffffffffffffffffffff167fddf252ad1be2c89b69c2b068fc378daa952ba7f163c4a11628f55a4df523b3ef8460405161164d9190611869565b60405180910390a36116618360008461166b565b505050565b505050565b505050565b60008151905060006a636f6e736f6c652e6c6f679050602083016000808483855afa5050505050565b600081519050919050565b600082825260208201905092915050565b60005b838110156116d35780820151818401526020810190506116b8565b60008484015250505050565b6000601f19601f8301169050919050565b60006116fb82611699565b61170581856116a4565b93506117158185602086016116b5565b61171e816116df565b840191505092915050565b6000602082019050818103600083015261174381846116f0565b905092915050565b600080fd5b600073ffffffffffffffffffffffffffffffffffffffff82169050919050565b600061177b82611750565b9050919050565b61178b81611770565b811461179657600080fd5b50565b6000813590506117a881611782565b92915050565b6000819050919050565b6117c1816117ae565b81146117cc57600080fd5b50565b6000813590506117de816117b8565b92915050565b600080604083850312156117fb576117fa61174b565b5b600061180985828601611799565b925050602061181a858286016117cf565b9150509250929050565b60008115159050919050565b61183981611824565b82525050565b60006020820190506118546000830184611830565b92915050565b611863816117ae565b82525050565b600060208201905061187e600083018461185a565b92915050565b60008060006060848603121561189d5761189c61174b565b5b60006118ab86828701611799565b93505060206118bc86828701611799565b92505060406118cd868287016117cf565b9150509250925092565b600060ff82169050919050565b6118ed816118d7565b82525050565b600060208201905061190860008301846118e4565b92915050565b6000602082840312156119245761192361174b565b5b600061193284828501611799565b91505092915050565b61194481611770565b82525050565b600060208201905061195f600083018461193b565b92915050565b6000806040838503121561197c5761197b61174b565b5b600061198a85828601611799565b925050602061199b85828601611799565b9150509250929050565b6000819050919050565b60006119ca6119c56119c084611750565b6119a5565b611750565b9050919050565b60006119dc826119af565b9050919050565b60006119ee826119d1565b9050919050565b6119fe816119e3565b82525050565b6000602082019050611a1960008301846119f5565b92915050565b7f4e487b7100000000000000000000000000000000000000000000000000000000600052602260045260246000fd5b60006002820490506001821680611a6657607f821691505b602082108103611a7957611a78611a1f565b5b50919050565b7f4e487b7100000000000000000000000000000000000000000000000000000000600052601160045260246000fd5b6000611ab9826117ae565b9150611ac4836117ae565b9250828201905080821115611adc57611adb611a7f565b5b92915050565b600081519050611af1816117b8565b92915050565b600060208284031215611b0d57611b0c61174b565b5b6000611b1b84828501611ae2565b91505092915050565b7f45524332303a2064656372656173656420616c6c6f77616e63652062656c6f7760008201527f207a65726f000000000000000000000000000000000000000000000000000000602082015250565b6000611b806025836116a4565b9150611b8b82611b24565b604082019050919050565b60006020820190508181036000830152611baf81611b73565b9050919050565b7f4f776e61626c653a206e6577206f776e657220697320746865207a65726f206160008201527f6464726573730000000000000000000000000000000000000000000000000000602082015250565b6000611c126026836116a4565b9150611c1d82611bb6565b604082019050919050565b60006020820190508181036000830152611c4181611c05565b9050919050565b7f45524332303a20617070726f76652066726f6d20746865207a65726f2061646460008201527f7265737300000000000000000000000000000000000000000000000000000000602082015250565b6000611ca46024836116a4565b9150611caf82611c48565b604082019050919050565b60006020820190508181036000830152611cd381611c97565b9050919050565b7f45524332303a20617070726f766520746f20746865207a65726f20616464726560008201527f7373000000000000000000000000000000000000000000000000000000000000602082015250565b6000611d366022836116a4565b9150611d4182611cda565b604082019050919050565b60006020820190508181036000830152611d6581611d29565b9050919050565b7f45524332303a20696e73756666696369656e7420616c6c6f77616e6365000000600082015250565b6000611da2601d836116a4565b9150611dad82611d6c565b602082019050919050565b60006020820190508181036000830152611dd181611d95565b9050919050565b7f45524332303a207472616e736665722066726f6d20746865207a65726f20616460008201527f6472657373000000000000000000000000000000000000000000000000000000602082015250565b6000611e346025836116a4565b9150611e3f82611dd8565b604082019050919050565b60006020820190508181036000830152611e6381611e27565b9050919050565b7f45524332303a207472616e7366657220746f20746865207a65726f206164647260008201527f6573730000000000000000000000000000000000000000000000000000000000602082015250565b6000611ec66023836116a4565b9150611ed182611e6a565b604082019050919050565b60006020820190508181036000830152611ef581611eb9565b9050919050565b7f45524332303a207472616e7366657220616d6f756e742065786365656473206260008201527f616c616e63650000000000000000000000000000000000000000000000000000602082015250565b6000611f586026836116a4565b9150611f6382611efc565b604082019050919050565b60006020820190508181036000830152611f8781611f4b565b9050919050565b7f4f776e61626c653a2063616c6c6572206973206e6f7420746865206f776e6572600082015250565b6000611fc46020836116a4565b9150611fcf82611f8e565b602082019050919050565b60006020820190508181036000830152611ff381611fb7565b9050919050565b7f45524332303a206d696e7420746f20746865207a65726f206164647265737300600082015250565b6000612030601f836116a4565b915061203b82611ffa565b602082019050919050565b6000602082019050818103600083015261205f81612023565b9050919050565b7f45524332303a206275726e2066726f6d20746865207a65726f2061646472657360008201527f7300000000000000000000000000000000000000000000000000000000000000602082015250565b60006120c26021836116a4565b91506120cd82612066565b604082019050919050565b600060208201905081810360008301526120f1816120b5565b9050919050565b7f45524332303a206275726e20616d6f756e7420657863656564732062616c616e60008201527f6365000000000000000000000000000000000000000000000000000000000000602082015250565b60006121546022836116a4565b915061215f826120f8565b604082019050919050565b6000602082019050818103600083015261218381612147565b905091905056fe6920616d20696e736964652062616c616e63654f46206f742064657620746f6b656ea26469706673582212204dfb0fc8136a2551f0f081c4b039bd2d683e18eed896eabbf9d6f3ca93763fcd64736f6c634300081100336920616d20696e736964652062616c616e63654f46206f7420746f6b656e20666163746f7279a2646970667358221220e53b599bd45ec15ad3ea9482402ed778fa834a28d3b763bba301e0d476aaf2d464736f6c63430008110033",
  "devdoc": {
    "author": "Okwuosa Chijioke",
    "details": "This implements 2 ERC-20 tokens that will be minted in exactly the same proportion as the underlying ERC-20 token transferred into the Factory contract. The asset will be burned in exactly the same proportion when asked to redeem/withdrawal the underlying asset. The contract will implement periodic rebalancing",
    "kind": "dev",
    "methods": {},
    "title": "ERC-20 Rebase Tokens",
    "version": 1
  },
  "userdoc": {
    "kind": "user",
    "methods": {},
    "notice": "Still under development",
    "version": 1
  },
  "storageLayout": {
    "storage": [
      {
        "astId": 169,
        "contract": "contracts/TokenFactory.sol:TokenFactory",
        "label": "_status",
        "offset": 0,
        "slot": "0",
        "type": "t_uint256"
      },
      {
        "astId": 1977,
        "contract": "contracts/TokenFactory.sol:TokenFactory",
        "label": "s_scallingFactorX",
        "offset": 0,
        "slot": "1",
        "type": "t_array(t_uint256)dyn_storage"
      },
      {
        "astId": 1981,
        "contract": "contracts/TokenFactory.sol:TokenFactory",
        "label": "s_devTokenArray",
        "offset": 0,
        "slot": "2",
        "type": "t_array(t_contract(DevToken)1955)dyn_storage"
      },
      {
        "astId": 1990,
        "contract": "contracts/TokenFactory.sol:TokenFactory",
        "label": "s_lastRebaseCount",
        "offset": 0,
        "slot": "3",
        "type": "t_mapping(t_address,t_uint256)"
      }
    ],
    "types": {
      "t_address": {
        "encoding": "inplace",
        "label": "address",
        "numberOfBytes": "20"
      },
      "t_array(t_contract(DevToken)1955)dyn_storage": {
        "base": "t_contract(DevToken)1955",
        "encoding": "dynamic_array",
        "label": "contract DevToken[]",
        "numberOfBytes": "32"
      },
      "t_array(t_uint256)dyn_storage": {
        "base": "t_uint256",
        "encoding": "dynamic_array",
        "label": "uint256[]",
        "numberOfBytes": "32"
      },
      "t_contract(DevToken)1955": {
        "encoding": "inplace",
        "label": "contract DevToken",
        "numberOfBytes": "20"
      },
      "t_mapping(t_address,t_uint256)": {
        "encoding": "mapping",
        "key": "t_address",
        "label": "mapping(address => uint256)",
        "numberOfBytes": "32",
        "value": "t_uint256"
      },
      "t_uint256": {
        "encoding": "inplace",
        "label": "uint256",
        "numberOfBytes": "32"
      }
    }
  }
}