{
  "address": "0xe7f1725E7734CE288F8367e1Bb143E90bb3F0512",
  "abi": [
    {
      "inputs": [
        {
          "internalType": "address",
          "name": "baseTokenAddress",
          "type": "address"
        },
        {
          "internalType": "address",
          "name": "priceFeedAddress",
          "type": "address"
        }
      ],
      "stateMutability": "nonpayable",
      "type": "constructor"
    },
    {
      "inputs": [],
      "name": "TokenFactory__InsufficientFund",
      "type": "error"
    },
    {
      "anonymous": false,
      "inputs": [
        {
          "indexed": true,
          "internalType": "address",
          "name": "recipient",
          "type": "address"
        },
        {
          "indexed": false,
          "internalType": "uint256",
          "name": "amount",
          "type": "uint256"
        }
      ],
      "name": "AssetBought",
      "type": "event"
    },
    {
      "anonymous": false,
      "inputs": [
        {
          "indexed": true,
          "internalType": "address",
          "name": "owner",
          "type": "address"
        },
        {
          "indexed": false,
          "internalType": "uint256",
          "name": "amount",
          "type": "uint256"
        }
      ],
      "name": "AssetWithdrawn",
      "type": "event"
    },
    {
      "inputs": [],
      "name": "applyRebase",
      "outputs": [],
      "stateMutability": "nonpayable",
      "type": "function"
    },
    {
      "inputs": [
        {
          "internalType": "uint256",
          "name": "_devTokenIndex",
          "type": "uint256"
        },
        {
          "internalType": "address",
          "name": "_owner",
          "type": "address"
        }
      ],
      "name": "balanceOf",
      "outputs": [
        {
          "internalType": "uint256",
          "name": "",
          "type": "uint256"
        }
      ],
      "stateMutability": "view",
      "type": "function"
    },
    {
      "inputs": [],
      "name": "buyAsset",
      "outputs": [],
      "stateMutability": "payable",
      "type": "function"
    },
    {
      "inputs": [
        {
          "internalType": "address",
          "name": "_owner",
          "type": "address"
        }
      ],
      "name": "calculateRollOverValue",
      "outputs": [
        {
          "internalType": "uint256",
          "name": "",
          "type": "uint256"
        }
      ],
      "stateMutability": "view",
      "type": "function"
    },
    {
      "inputs": [],
      "name": "getBaseTokenAddress",
      "outputs": [
        {
          "internalType": "address",
          "name": "",
          "type": "address"
        }
      ],
      "stateMutability": "view",
      "type": "function"
    },
    {
      "inputs": [],
      "name": "getPriceFeedAddress",
      "outputs": [
        {
          "internalType": "contract AggregatorV3Interface",
          "name": "",
          "type": "address"
        }
      ],
      "stateMutability": "view",
      "type": "function"
    },
    {
      "inputs": [
        {
          "internalType": "uint256",
          "name": "index",
          "type": "uint256"
        }
      ],
      "name": "getScallingFactor",
      "outputs": [
        {
          "internalType": "uint256",
          "name": "",
          "type": "uint256"
        }
      ],
      "stateMutability": "view",
      "type": "function"
    },
    {
      "inputs": [],
      "name": "getScallingFactorLength",
      "outputs": [
        {
          "internalType": "uint256",
          "name": "",
          "type": "uint256"
        }
      ],
      "stateMutability": "view",
      "type": "function"
    },
    {
      "inputs": [
        {
          "internalType": "address",
          "name": "userAddress",
          "type": "address"
        }
      ],
      "name": "getUserLastRebaseCount",
      "outputs": [
        {
          "internalType": "uint256",
          "name": "",
          "type": "uint256"
        }
      ],
      "stateMutability": "view",
      "type": "function"
    },
    {
      "inputs": [
        {
          "internalType": "string",
          "name": "token1Name",
          "type": "string"
        },
        {
          "internalType": "string",
          "name": "token1Symbol",
          "type": "string"
        },
        {
          "internalType": "string",
          "name": "token2Name",
          "type": "string"
        },
        {
          "internalType": "string",
          "name": "token2Symbol",
          "type": "string"
        },
        {
          "internalType": "address",
          "name": "tokenFactoryAddress",
          "type": "address"
        }
      ],
      "name": "initialize",
      "outputs": [],
      "stateMutability": "nonpayable",
      "type": "function"
    },
    {
      "inputs": [],
      "name": "rebase",
      "outputs": [],
      "stateMutability": "nonpayable",
      "type": "function"
    },
    {
      "inputs": [
        {
          "internalType": "uint256",
          "name": "scallingFactorX",
          "type": "uint256"
        }
      ],
      "name": "subUnchecked",
      "outputs": [
        {
          "internalType": "uint256",
          "name": "",
          "type": "uint256"
        }
      ],
      "stateMutability": "pure",
      "type": "function"
    },
    {
      "inputs": [
        {
          "internalType": "uint256",
          "name": "_devTokenIndex",
          "type": "uint256"
        },
        {
          "internalType": "address",
          "name": "to",
          "type": "address"
        },
        {
          "internalType": "uint256",
          "name": "value",
          "type": "uint256"
        }
      ],
      "name": "transfer",
      "outputs": [
        {
          "internalType": "bool",
          "name": "",
          "type": "bool"
        }
      ],
      "stateMutability": "nonpayable",
      "type": "function"
    },
    {
      "inputs": [
        {
          "internalType": "uint256",
          "name": "_amount",
          "type": "uint256"
        }
      ],
      "name": "withdrawAsset",
      "outputs": [],
      "stateMutability": "nonpayable",
      "type": "function"
    }
  ],
  "transactionHash": "0x12d2d0503453ca962a19ce6bc5b5290f5e0b6429b37a9824864120adf9b6cb54",
  "args": [
    "0x7ceB23fD6bC0adD59E62ac25578270cFf1b9f619",
    "0x5FbDB2315678afecb367f032d93F642f64180aa3"
  ],
  "numDeployments": 1,
  "solcInputHash": "3f3f3bf0f9cb6490aad688dadca01d87",
  "bytecode": "0x60c06040523480156200001157600080fd5b50604051620044f8380380620044f8833981810160405281019062000037919062000119565b60016000819055508173ffffffffffffffffffffffffffffffffffffffff1660808173ffffffffffffffffffffffffffffffffffffffff16815250508073ffffffffffffffffffffffffffffffffffffffff1660a08173ffffffffffffffffffffffffffffffffffffffff1681525050505062000160565b600080fd5b600073ffffffffffffffffffffffffffffffffffffffff82169050919050565b6000620000e182620000b4565b9050919050565b620000f381620000d4565b8114620000ff57600080fd5b50565b6000815190506200011381620000e8565b92915050565b60008060408385031215620001335762000132620000af565b5b6000620001438582860162000102565b9250506020620001568582860162000102565b9150509250929050565b60805160a05161436b6200018d600039600081816103d30152610d6901526000610616015261436b6000f3fe608060405260043610620000f25760003560e01c80638d92fdf3116200008b578063a4d96e171162000061578063a4d96e1714620002d5578063af14052c1462000319578063e5fc402a1462000333578063f8548e36146200037757620000f2565b80638d92fdf314620002815780639fbaf13114620002af578063a4b82a3a14620002bb57620000f2565b80633656eec211620000cd5780633656eec214620001995780634df947d014620001dd57806378c1a6c4146200020d5780637b69ce2f146200023d57620000f2565b80630318b3a014620000f75780630f0f30b2146200013b5780632e640024146200016b575b600080fd5b3480156200010457600080fd5b506200012360048036038101906200011d91906200122e565b620003bb565b60405162000132919062001271565b60405180910390f35b3480156200014857600080fd5b5062000153620003cf565b60405162000162919062001319565b60405180910390f35b3480156200017857600080fd5b50620001976004803603810190620001919190620014dd565b620003f7565b005b348015620001a657600080fd5b50620001c56004803603810190620001bf9190620015e1565b62000548565b604051620001d4919062001271565b60405180910390f35b348015620001ea57600080fd5b50620001f562000612565b60405162000204919062001639565b60405180910390f35b3480156200021a57600080fd5b50620002256200063a565b60405162000234919062001271565b60405180910390f35b3480156200024a57600080fd5b5062000269600480360381019062000263919062001656565b62000647565b60405162000278919062001271565b60405180910390f35b3480156200028e57600080fd5b50620002ad6004803603810190620002a791906200122e565b62000690565b005b620002b9620007fd565b005b348015620002c857600080fd5b50620002d36200087f565b005b348015620002e257600080fd5b50620003016004803603810190620002fb919062001656565b62000af6565b60405162000310919062001271565b60405180910390f35b3480156200032657600080fd5b506200033162000d58565b005b3480156200034057600080fd5b506200035f60048036038101906200035991906200122e565b62000e44565b6040516200036e919062001271565b60405180910390f35b3480156200038457600080fd5b50620003a360048036038101906200039d919062001688565b62000e6f565b604051620003b2919062001701565b60405180910390f35b600081670de0b6b3a7640000039050919050565b60007f0000000000000000000000000000000000000000000000000000000000000000905090565b60008585836040516200040a90620011d1565b6200041893929190620017a7565b604051809103906000f08015801562000435573d6000803e3d6000fd5b5090506002819080600181540180825580915050600190039060005260206000200160009091909190916101000a81548173ffffffffffffffffffffffffffffffffffffffff021916908373ffffffffffffffffffffffffffffffffffffffff1602179055506000848484604051620004ae90620011d1565b620004bc93929190620017a7565b604051809103906000f080158015620004d9573d6000803e3d6000fd5b5090506002819080600181540180825580915050600190039060005260206000200160009091909190916101000a81548173ffffffffffffffffffffffffffffffffffffffff021916908373ffffffffffffffffffffffffffffffffffffffff16021790555050505050505050565b600060028381548110620005615762000560620017f2565b5b9060005260206000200160009054906101000a900473ffffffffffffffffffffffffffffffffffffffff1673ffffffffffffffffffffffffffffffffffffffff166370a08231836040518263ffffffff1660e01b8152600401620005c6919062001639565b602060405180830381865afa158015620005e4573d6000803e3d6000fd5b505050506040513d601f19601f820116820180604052508101906200060a919062001838565b905092915050565b60007f0000000000000000000000000000000000000000000000000000000000000000905090565b6000600180549050905090565b6000600360008373ffffffffffffffffffffffffffffffffffffffff1673ffffffffffffffffffffffffffffffffffffffff168152602001908152602001600020549050919050565b6200069a62000f3e565b620006a46200063a565b600360003373ffffffffffffffffffffffffffffffffffffffff1673ffffffffffffffffffffffffffffffffffffffff1681526020019081526020016000205414620006f557620006f46200087f565b5b6200070260003362000548565b8111156200073c576040517fd9f6ddd900000000000000000000000000000000000000000000000000000000815260040160405180910390fd5b6200074a6000338362000f90565b620007586001338362000f90565b3373ffffffffffffffffffffffffffffffffffffffff166108fc829081150290604051600060405180830381858888f193505050501580156200079f573d6000803e3d6000fd5b503373ffffffffffffffffffffffffffffffffffffffff167f94b055d454fefc95ba06924afbaac83912b1575d621a7d32a4675303246bb7d082604051620007e8919062001271565b60405180910390a2620007fa62001047565b50565b6200080762000f3e565b620008156000333462001051565b620008236001333462001051565b3373ffffffffffffffffffffffffffffffffffffffff167f1043b9f778084a8d3cd9af8b3e347f91d1f9f75697034f065aac775937fe79d4346040516200086b919062001271565b60405180910390a26200087d62001047565b565b60006002600081548110620008995762000898620017f2565b5b9060005260206000200160009054906101000a900473ffffffffffffffffffffffffffffffffffffffff1673ffffffffffffffffffffffffffffffffffffffff166370a08231336040518263ffffffff1660e01b8152600401620008fe919062001639565b602060405180830381865afa1580156200091c573d6000803e3d6000fd5b505050506040513d601f19601f8201168201806040525081019062000942919062001838565b9050600060026001815481106200095e576200095d620017f2565b5b9060005260206000200160009054906101000a900473ffffffffffffffffffffffffffffffffffffffff1673ffffffffffffffffffffffffffffffffffffffff166370a08231336040518263ffffffff1660e01b8152600401620009c3919062001639565b602060405180830381865afa158015620009e1573d6000803e3d6000fd5b505050506040513d601f19601f8201168201806040525081019062000a07919062001838565b9050600062000a163362000af6565b90508281111562000a425762000a3c600033858462000a36919062001899565b62001051565b62000a5e565b62000a5d600033838662000a57919062001899565b62000f90565b5b8181111562000a885762000a82600133848462000a7c919062001899565b62001051565b62000aa4565b62000aa3600133838562000a9d919062001899565b62000f90565b5b62000aae6200063a565b600360003373ffffffffffffffffffffffffffffffffffffffff1673ffffffffffffffffffffffffffffffffffffffff16815260200190815260200160002081905550505050565b6000806001600360008573ffffffffffffffffffffffffffffffffffffffff1673ffffffffffffffffffffffffffffffffffffffff168152602001908152602001600020548154811062000b4f5762000b4e620017f2565b5b90600052602060002001549050600062000b6982620003bb565b90506000670de0b6b3a7640000600260008154811062000b8e5762000b8d620017f2565b5b9060005260206000200160009054906101000a900473ffffffffffffffffffffffffffffffffffffffff1673ffffffffffffffffffffffffffffffffffffffff16638f4cef0c876040518263ffffffff1660e01b815260040162000bf3919062001639565b602060405180830381865afa15801562000c11573d6000803e3d6000fd5b505050506040513d601f19601f8201168201806040525081019062000c37919062001838565b62000c43919062001903565b90506000670de0b6b3a7640000600260018154811062000c685762000c67620017f2565b5b9060005260206000200160009054906101000a900473ffffffffffffffffffffffffffffffffffffffff1673ffffffffffffffffffffffffffffffffffffffff16638f4cef0c886040518263ffffffff1660e01b815260040162000ccd919062001639565b602060405180830381865afa15801562000ceb573d6000803e3d6000fd5b505050506040513d601f19601f8201168201806040525081019062000d11919062001838565b62000d1d919062001903565b90506000838262000d2f91906200193b565b858462000d3d91906200193b565b62000d49919062001986565b90508095505050505050919050565b6000670de0b6b3a764000062000da47f000000000000000000000000000000000000000000000000000000000000000073ffffffffffffffffffffffffffffffffffffffff1662001108565b62000db0919062001903565b9050600062000dca6003836200118c90919063ffffffff16565b9050600062000de46002846200118c90919063ffffffff16565b90506001816002670de0b6b3a76400008562000e0191906200193b565b62000e0d919062001903565b62000e19919062001903565b9080600181540180825580915050600190039060005260206000200160009091909190915055505050565b60006001828154811062000e5d5762000e5c620017f2565b5b90600052602060002001549050919050565b60006002848154811062000e885762000e87620017f2565b5b9060005260206000200160009054906101000a900473ffffffffffffffffffffffffffffffffffffffff1673ffffffffffffffffffffffffffffffffffffffff1663a9059cbb84846040518363ffffffff1660e01b815260040162000eef929190620019c1565b6020604051808303816000875af115801562000f0f573d6000803e3d6000fd5b505050506040513d601f19601f8201168201806040525081019062000f35919062001a1f565b90509392505050565b60026000540362000f86576040517f08c379a000000000000000000000000000000000000000000000000000000000815260040162000f7d9062001aa1565b60405180910390fd5b6002600081905550565b6002838154811062000fa75762000fa6620017f2565b5b9060005260206000200160009054906101000a900473ffffffffffffffffffffffffffffffffffffffff1673ffffffffffffffffffffffffffffffffffffffff16639dc29fac83836040518363ffffffff1660e01b81526004016200100e929190620019c1565b600060405180830381600087803b1580156200102957600080fd5b505af11580156200103e573d6000803e3d6000fd5b50505050505050565b6001600081905550565b60028381548110620010685762001067620017f2565b5b9060005260206000200160009054906101000a900473ffffffffffffffffffffffffffffffffffffffff1673ffffffffffffffffffffffffffffffffffffffff166340c10f1983836040518363ffffffff1660e01b8152600401620010cf929190620019c1565b600060405180830381600087803b158015620010ea57600080fd5b505af1158015620010ff573d6000803e3d6000fd5b50505050505050565b6000808273ffffffffffffffffffffffffffffffffffffffff1663feaf968c6040518163ffffffff1660e01b815260040160a060405180830381865afa15801562001157573d6000803e3d6000fd5b505050506040513d601f19601f820116820180604052508101906200117d919062001b45565b50505091505080915050919050565b6000808314620011c657600182600185620011a8919062001899565b620011b4919062001903565b620011c0919062001986565b620011c9565b60005b905092915050565b6127688062001bce83390190565b6000604051905090565b600080fd5b600080fd5b6000819050919050565b6200120881620011f3565b81146200121457600080fd5b50565b6000813590506200122881620011fd565b92915050565b600060208284031215620012475762001246620011e9565b5b6000620012578482850162001217565b91505092915050565b6200126b81620011f3565b82525050565b600060208201905062001288600083018462001260565b92915050565b600073ffffffffffffffffffffffffffffffffffffffff82169050919050565b6000819050919050565b6000620012d9620012d3620012cd846200128e565b620012ae565b6200128e565b9050919050565b6000620012ed82620012b8565b9050919050565b60006200130182620012e0565b9050919050565b6200131381620012f4565b82525050565b600060208201905062001330600083018462001308565b92915050565b600080fd5b600080fd5b6000601f19601f8301169050919050565b7f4e487b7100000000000000000000000000000000000000000000000000000000600052604160045260246000fd5b6200138b8262001340565b810181811067ffffffffffffffff82111715620013ad57620013ac62001351565b5b80604052505050565b6000620013c2620011df565b9050620013d0828262001380565b919050565b600067ffffffffffffffff821115620013f357620013f262001351565b5b620013fe8262001340565b9050602081019050919050565b82818337600083830152505050565b6000620014316200142b84620013d5565b620013b6565b90508281526020810184848401111562001450576200144f6200133b565b5b6200145d8482856200140b565b509392505050565b600082601f8301126200147d576200147c62001336565b5b81356200148f8482602086016200141a565b91505092915050565b6000620014a5826200128e565b9050919050565b620014b78162001498565b8114620014c357600080fd5b50565b600081359050620014d781620014ac565b92915050565b600080600080600060a08688031215620014fc57620014fb620011e9565b5b600086013567ffffffffffffffff8111156200151d576200151c620011ee565b5b6200152b8882890162001465565b955050602086013567ffffffffffffffff8111156200154f576200154e620011ee565b5b6200155d8882890162001465565b945050604086013567ffffffffffffffff811115620015815762001580620011ee565b5b6200158f8882890162001465565b935050606086013567ffffffffffffffff811115620015b357620015b2620011ee565b5b620015c18882890162001465565b9250506080620015d488828901620014c6565b9150509295509295909350565b60008060408385031215620015fb57620015fa620011e9565b5b60006200160b8582860162001217565b92505060206200161e85828601620014c6565b9150509250929050565b620016338162001498565b82525050565b600060208201905062001650600083018462001628565b92915050565b6000602082840312156200166f576200166e620011e9565b5b60006200167f84828501620014c6565b91505092915050565b600080600060608486031215620016a457620016a3620011e9565b5b6000620016b48682870162001217565b9350506020620016c786828701620014c6565b9250506040620016da8682870162001217565b9150509250925092565b60008115159050919050565b620016fb81620016e4565b82525050565b6000602082019050620017186000830184620016f0565b92915050565b600081519050919050565b600082825260208201905092915050565b60005b838110156200175a5780820151818401526020810190506200173d565b60008484015250505050565b600062001773826200171e565b6200177f818562001729565b9350620017918185602086016200173a565b6200179c8162001340565b840191505092915050565b60006060820190508181036000830152620017c3818662001766565b90508181036020830152620017d9818562001766565b9050620017ea604083018462001628565b949350505050565b7f4e487b7100000000000000000000000000000000000000000000000000000000600052603260045260246000fd5b6000815190506200183281620011fd565b92915050565b600060208284031215620018515762001850620011e9565b5b6000620018618482850162001821565b91505092915050565b7f4e487b7100000000000000000000000000000000000000000000000000000000600052601160045260246000fd5b6000620018a682620011f3565b9150620018b383620011f3565b9250828203905081811115620018ce57620018cd6200186a565b5b92915050565b7f4e487b7100000000000000000000000000000000000000000000000000000000600052601260045260246000fd5b60006200191082620011f3565b91506200191d83620011f3565b92508262001930576200192f620018d4565b5b828204905092915050565b60006200194882620011f3565b91506200195583620011f3565b92508282026200196581620011f3565b915082820484148315176200197f576200197e6200186a565b5b5092915050565b60006200199382620011f3565b9150620019a083620011f3565b9250828201905080821115620019bb57620019ba6200186a565b5b92915050565b6000604082019050620019d8600083018562001628565b620019e7602083018462001260565b9392505050565b620019f981620016e4565b811462001a0557600080fd5b50565b60008151905062001a1981620019ee565b92915050565b60006020828403121562001a385762001a37620011e9565b5b600062001a488482850162001a08565b91505092915050565b7f5265656e7472616e637947756172643a207265656e7472616e742063616c6c00600082015250565b600062001a89601f8362001729565b915062001a968262001a51565b602082019050919050565b6000602082019050818103600083015262001abc8162001a7a565b9050919050565b600069ffffffffffffffffffff82169050919050565b62001ae48162001ac3565b811462001af057600080fd5b50565b60008151905062001b048162001ad9565b92915050565b6000819050919050565b62001b1f8162001b0a565b811462001b2b57600080fd5b50565b60008151905062001b3f8162001b14565b92915050565b600080600080600060a0868803121562001b645762001b63620011e9565b5b600062001b748882890162001af3565b955050602062001b878882890162001b2e565b945050604062001b9a8882890162001821565b935050606062001bad8882890162001821565b925050608062001bc08882890162001af3565b915050929550929590935056fe60806040523480156200001157600080fd5b50604051620027683803806200276883398181016040528101906200003791906200038f565b828281600390816200004a919062000674565b5080600490816200005c919062000674565b5050506200007f62000073620000c960201b60201c565b620000d160201b60201c565b80600660006101000a81548173ffffffffffffffffffffffffffffffffffffffff021916908373ffffffffffffffffffffffffffffffffffffffff1602179055505050506200075b565b600033905090565b6000600560009054906101000a900473ffffffffffffffffffffffffffffffffffffffff16905081600560006101000a81548173ffffffffffffffffffffffffffffffffffffffff021916908373ffffffffffffffffffffffffffffffffffffffff1602179055508173ffffffffffffffffffffffffffffffffffffffff168173ffffffffffffffffffffffffffffffffffffffff167f8be0079c531659141344cd1fd0a4f28419497f9722a3daafe3b4186f6b6457e060405160405180910390a35050565b6000604051905090565b600080fd5b600080fd5b600080fd5b600080fd5b6000601f19601f8301169050919050565b7f4e487b7100000000000000000000000000000000000000000000000000000000600052604160045260246000fd5b6200020082620001b5565b810181811067ffffffffffffffff82111715620002225762000221620001c6565b5b80604052505050565b60006200023762000197565b9050620002458282620001f5565b919050565b600067ffffffffffffffff821115620002685762000267620001c6565b5b6200027382620001b5565b9050602081019050919050565b60005b83811015620002a057808201518184015260208101905062000283565b60008484015250505050565b6000620002c3620002bd846200024a565b6200022b565b905082815260208101848484011115620002e257620002e1620001b0565b5b620002ef84828562000280565b509392505050565b600082601f8301126200030f576200030e620001ab565b5b815162000321848260208601620002ac565b91505092915050565b600073ffffffffffffffffffffffffffffffffffffffff82169050919050565b600062000357826200032a565b9050919050565b62000369816200034a565b81146200037557600080fd5b50565b60008151905062000389816200035e565b92915050565b600080600060608486031215620003ab57620003aa620001a1565b5b600084015167ffffffffffffffff811115620003cc57620003cb620001a6565b5b620003da86828701620002f7565b935050602084015167ffffffffffffffff811115620003fe57620003fd620001a6565b5b6200040c86828701620002f7565b92505060406200041f8682870162000378565b9150509250925092565b600081519050919050565b7f4e487b7100000000000000000000000000000000000000000000000000000000600052602260045260246000fd5b600060028204905060018216806200047c57607f821691505b60208210810362000492576200049162000434565b5b50919050565b60008190508160005260206000209050919050565b60006020601f8301049050919050565b600082821b905092915050565b600060088302620004fc7fffffffffffffffffffffffffffffffffffffffffffffffffffffffffffffffff82620004bd565b620005088683620004bd565b95508019841693508086168417925050509392505050565b6000819050919050565b6000819050919050565b6000620005556200054f620005498462000520565b6200052a565b62000520565b9050919050565b6000819050919050565b620005718362000534565b6200058962000580826200055c565b848454620004ca565b825550505050565b600090565b620005a062000591565b620005ad81848462000566565b505050565b5b81811015620005d557620005c960008262000596565b600181019050620005b3565b5050565b601f8211156200062457620005ee8162000498565b620005f984620004ad565b8101602085101562000609578190505b620006216200061885620004ad565b830182620005b2565b50505b505050565b600082821c905092915050565b6000620006496000198460080262000629565b1980831691505092915050565b600062000664838362000636565b9150826002028217905092915050565b6200067f8262000429565b67ffffffffffffffff8111156200069b576200069a620001c6565b5b620006a7825462000463565b620006b4828285620005d9565b600060209050601f831160018114620006ec5760008415620006d7578287015190505b620006e3858262000656565b86555062000753565b601f198416620006fc8662000498565b60005b828110156200072657848901518255600182019150602085019450602081019050620006ff565b8683101562000746578489015162000742601f89168262000636565b8355505b6001600288020188555050505b505050505050565b611ffd806200076b6000396000f3fe608060405234801561001057600080fd5b50600436106101165760003560e01c80638da5cb5b116100a2578063a457c2d711610071578063a457c2d7146102e3578063a9059cbb14610313578063dd62ed3e14610343578063e77772fe14610373578063f2fde38b1461039157610116565b80638da5cb5b1461025b5780638f4cef0c1461027957806395d89b41146102a95780639dc29fac146102c757610116565b8063313ce567116100e9578063313ce567146101b757806339509351146101d557806340c10f191461020557806370a0823114610221578063715018a61461025157610116565b806306fdde031461011b578063095ea7b31461013957806318160ddd1461016957806323b872dd14610187575b600080fd5b6101236103ad565b6040516101309190611566565b60405180910390f35b610153600480360381019061014e9190611621565b61043f565b604051610160919061167c565b60405180910390f35b610171610462565b60405161017e91906116a6565b60405180910390f35b6101a1600480360381019061019c91906116c1565b61046c565b6040516101ae919061167c565b60405180910390f35b6101bf61049b565b6040516101cc9190611730565b60405180910390f35b6101ef60048036038101906101ea9190611621565b6104a4565b6040516101fc919061167c565b60405180910390f35b61021f600480360381019061021a9190611621565b6104db565b005b61023b6004803603810190610236919061174b565b6104f1565b60405161024891906116a6565b60405180910390f35b6102596106d9565b005b6102636106ed565b6040516102709190611787565b60405180910390f35b610293600480360381019061028e919061174b565b610717565b6040516102a091906116a6565b60405180910390f35b6102b1610729565b6040516102be9190611566565b60405180910390f35b6102e160048036038101906102dc9190611621565b6107bb565b005b6102fd60048036038101906102f89190611621565b6107d1565b60405161030a919061167c565b60405180910390f35b61032d60048036038101906103289190611621565b610848565b60405161033a919061167c565b60405180910390f35b61035d600480360381019061035891906117a2565b610a1a565b60405161036a91906116a6565b60405180910390f35b61037b610aa1565b6040516103889190611841565b60405180910390f35b6103ab60048036038101906103a6919061174b565b610ac7565b005b6060600380546103bc9061188b565b80601f01602080910402602001604051908101604052809291908181526020018280546103e89061188b565b80156104355780601f1061040a57610100808354040283529160200191610435565b820191906000526020600020905b81548152906001019060200180831161041857829003601f168201915b5050505050905090565b60008061044a610b4a565b9050610457818585610b52565b600191505092915050565b6000600254905090565b600080610477610b4a565b9050610484858285610d1b565b61048f858585610da7565b60019150509392505050565b60006012905090565b6000806104af610b4a565b90506104d08185856104c18589610a1a565b6104cb91906118eb565b610b52565b600191505092915050565b6104e361101d565b6104ed828261109b565b5050565b6000600660009054906101000a900473ffffffffffffffffffffffffffffffffffffffff1673ffffffffffffffffffffffffffffffffffffffff166378c1a6c46040518163ffffffff1660e01b8152600401602060405180830381865afa158015610560573d6000803e3d6000fd5b505050506040513d601f19601f820116820180604052508101906105849190611934565b600660009054906101000a900473ffffffffffffffffffffffffffffffffffffffff1673ffffffffffffffffffffffffffffffffffffffff16637b69ce2f336040518263ffffffff1660e01b81526004016105df9190611787565b602060405180830381865afa1580156105fc573d6000803e3d6000fd5b505050506040513d601f19601f820116820180604052508101906106209190611934565b146106c857600660009054906101000a900473ffffffffffffffffffffffffffffffffffffffff1673ffffffffffffffffffffffffffffffffffffffff1663a4d96e17836040518263ffffffff1660e01b81526004016106809190611787565b602060405180830381865afa15801561069d573d6000803e3d6000fd5b505050506040513d601f19601f820116820180604052508101906106c19190611934565b90506106d4565b6106d182610717565b90505b919050565b6106e161101d565b6106eb60006111f1565b565b6000600560009054906101000a900473ffffffffffffffffffffffffffffffffffffffff16905090565b6000610722826112b7565b9050919050565b6060600480546107389061188b565b80601f01602080910402602001604051908101604052809291908181526020018280546107649061188b565b80156107b15780601f10610786576101008083540402835291602001916107b1565b820191906000526020600020905b81548152906001019060200180831161079457829003601f168201915b5050505050905090565b6107c361101d565b6107cd82826112ff565b5050565b6000806107dc610b4a565b905060006107ea8286610a1a565b90508381101561082f576040517f08c379a0000000000000000000000000000000000000000000000000000000008152600401610826906119d3565b60405180910390fd5b61083c8286868403610b52565b60019250505092915050565b6000600660009054906101000a900473ffffffffffffffffffffffffffffffffffffffff1673ffffffffffffffffffffffffffffffffffffffff166378c1a6c46040518163ffffffff1660e01b8152600401602060405180830381865afa1580156108b7573d6000803e3d6000fd5b505050506040513d601f19601f820116820180604052508101906108db9190611934565b600660009054906101000a900473ffffffffffffffffffffffffffffffffffffffff1673ffffffffffffffffffffffffffffffffffffffff16637b69ce2f336040518263ffffffff1660e01b81526004016109369190611787565b602060405180830381865afa158015610953573d6000803e3d6000fd5b505050506040513d601f19601f820116820180604052508101906109779190611934565b146109ff57600660009054906101000a900473ffffffffffffffffffffffffffffffffffffffff1673ffffffffffffffffffffffffffffffffffffffff1663a4b82a3a6040518163ffffffff1660e01b8152600401600060405180830381600087803b1580156109e657600080fd5b505af11580156109fa573d6000803e3d6000fd5b505050505b6000329050610a0f818585610da7565b600191505092915050565b6000600160008473ffffffffffffffffffffffffffffffffffffffff1673ffffffffffffffffffffffffffffffffffffffff16815260200190815260200160002060008373ffffffffffffffffffffffffffffffffffffffff1673ffffffffffffffffffffffffffffffffffffffff16815260200190815260200160002054905092915050565b600660009054906101000a900473ffffffffffffffffffffffffffffffffffffffff1681565b610acf61101d565b600073ffffffffffffffffffffffffffffffffffffffff168173ffffffffffffffffffffffffffffffffffffffff1603610b3e576040517f08c379a0000000000000000000000000000000000000000000000000000000008152600401610b3590611a65565b60405180910390fd5b610b47816111f1565b50565b600033905090565b600073ffffffffffffffffffffffffffffffffffffffff168373ffffffffffffffffffffffffffffffffffffffff1603610bc1576040517f08c379a0000000000000000000000000000000000000000000000000000000008152600401610bb890611af7565b60405180910390fd5b600073ffffffffffffffffffffffffffffffffffffffff168273ffffffffffffffffffffffffffffffffffffffff1603610c30576040517f08c379a0000000000000000000000000000000000000000000000000000000008152600401610c2790611b89565b60405180910390fd5b80600160008573ffffffffffffffffffffffffffffffffffffffff1673ffffffffffffffffffffffffffffffffffffffff16815260200190815260200160002060008473ffffffffffffffffffffffffffffffffffffffff1673ffffffffffffffffffffffffffffffffffffffff168152602001908152602001600020819055508173ffffffffffffffffffffffffffffffffffffffff168373ffffffffffffffffffffffffffffffffffffffff167f8c5be1e5ebec7d5bd14f71427d1e84f3dd0314c0f7b2291e5b200ac8c7c3b92583604051610d0e91906116a6565b60405180910390a3505050565b6000610d278484610a1a565b90507fffffffffffffffffffffffffffffffffffffffffffffffffffffffffffffffff8114610da15781811015610d93576040517f08c379a0000000000000000000000000000000000000000000000000000000008152600401610d8a90611bf5565b60405180910390fd5b610da08484848403610b52565b5b50505050565b600073ffffffffffffffffffffffffffffffffffffffff168373ffffffffffffffffffffffffffffffffffffffff1603610e16576040517f08c379a0000000000000000000000000000000000000000000000000000000008152600401610e0d90611c87565b60405180910390fd5b600073ffffffffffffffffffffffffffffffffffffffff168273ffffffffffffffffffffffffffffffffffffffff1603610e85576040517f08c379a0000000000000000000000000000000000000000000000000000000008152600401610e7c90611d19565b60405180910390fd5b610e908383836114cc565b60008060008573ffffffffffffffffffffffffffffffffffffffff1673ffffffffffffffffffffffffffffffffffffffff16815260200190815260200160002054905081811015610f16576040517f08c379a0000000000000000000000000000000000000000000000000000000008152600401610f0d90611dab565b60405180910390fd5b8181036000808673ffffffffffffffffffffffffffffffffffffffff1673ffffffffffffffffffffffffffffffffffffffff16815260200190815260200160002081905550816000808573ffffffffffffffffffffffffffffffffffffffff1673ffffffffffffffffffffffffffffffffffffffff168152602001908152602001600020600082825401925050819055508273ffffffffffffffffffffffffffffffffffffffff168473ffffffffffffffffffffffffffffffffffffffff167fddf252ad1be2c89b69c2b068fc378daa952ba7f163c4a11628f55a4df523b3ef8460405161100491906116a6565b60405180910390a36110178484846114d1565b50505050565b611025610b4a565b73ffffffffffffffffffffffffffffffffffffffff166110436106ed565b73ffffffffffffffffffffffffffffffffffffffff1614611099576040517f08c379a000000000000000000000000000000000000000000000000000000000815260040161109090611e17565b60405180910390fd5b565b600073ffffffffffffffffffffffffffffffffffffffff168273ffffffffffffffffffffffffffffffffffffffff160361110a576040517f08c379a000000000000000000000000000000000000000000000000000000000815260040161110190611e83565b60405180910390fd5b611116600083836114cc565b806002600082825461112891906118eb565b92505081905550806000808473ffffffffffffffffffffffffffffffffffffffff1673ffffffffffffffffffffffffffffffffffffffff168152602001908152602001600020600082825401925050819055508173ffffffffffffffffffffffffffffffffffffffff16600073ffffffffffffffffffffffffffffffffffffffff167fddf252ad1be2c89b69c2b068fc378daa952ba7f163c4a11628f55a4df523b3ef836040516111d991906116a6565b60405180910390a36111ed600083836114d1565b5050565b6000600560009054906101000a900473ffffffffffffffffffffffffffffffffffffffff16905081600560006101000a81548173ffffffffffffffffffffffffffffffffffffffff021916908373ffffffffffffffffffffffffffffffffffffffff1602179055508173ffffffffffffffffffffffffffffffffffffffff168173ffffffffffffffffffffffffffffffffffffffff167f8be0079c531659141344cd1fd0a4f28419497f9722a3daafe3b4186f6b6457e060405160405180910390a35050565b60008060008373ffffffffffffffffffffffffffffffffffffffff1673ffffffffffffffffffffffffffffffffffffffff168152602001908152602001600020549050919050565b600073ffffffffffffffffffffffffffffffffffffffff168273ffffffffffffffffffffffffffffffffffffffff160361136e576040517f08c379a000000000000000000000000000000000000000000000000000000000815260040161136590611f15565b60405180910390fd5b61137a826000836114cc565b60008060008473ffffffffffffffffffffffffffffffffffffffff1673ffffffffffffffffffffffffffffffffffffffff16815260200190815260200160002054905081811015611400576040517f08c379a00000000000000000000000000000000000000000000000000000000081526004016113f790611fa7565b60405180910390fd5b8181036000808573ffffffffffffffffffffffffffffffffffffffff1673ffffffffffffffffffffffffffffffffffffffff1681526020019081526020016000208190555081600260008282540392505081905550600073ffffffffffffffffffffffffffffffffffffffff168373ffffffffffffffffffffffffffffffffffffffff167fddf252ad1be2c89b69c2b068fc378daa952ba7f163c4a11628f55a4df523b3ef846040516114b391906116a6565b60405180910390a36114c7836000846114d1565b505050565b505050565b505050565b600081519050919050565b600082825260208201905092915050565b60005b838110156115105780820151818401526020810190506114f5565b60008484015250505050565b6000601f19601f8301169050919050565b6000611538826114d6565b61154281856114e1565b93506115528185602086016114f2565b61155b8161151c565b840191505092915050565b60006020820190508181036000830152611580818461152d565b905092915050565b600080fd5b600073ffffffffffffffffffffffffffffffffffffffff82169050919050565b60006115b88261158d565b9050919050565b6115c8816115ad565b81146115d357600080fd5b50565b6000813590506115e5816115bf565b92915050565b6000819050919050565b6115fe816115eb565b811461160957600080fd5b50565b60008135905061161b816115f5565b92915050565b6000806040838503121561163857611637611588565b5b6000611646858286016115d6565b92505060206116578582860161160c565b9150509250929050565b60008115159050919050565b61167681611661565b82525050565b6000602082019050611691600083018461166d565b92915050565b6116a0816115eb565b82525050565b60006020820190506116bb6000830184611697565b92915050565b6000806000606084860312156116da576116d9611588565b5b60006116e8868287016115d6565b93505060206116f9868287016115d6565b925050604061170a8682870161160c565b9150509250925092565b600060ff82169050919050565b61172a81611714565b82525050565b60006020820190506117456000830184611721565b92915050565b60006020828403121561176157611760611588565b5b600061176f848285016115d6565b91505092915050565b611781816115ad565b82525050565b600060208201905061179c6000830184611778565b92915050565b600080604083850312156117b9576117b8611588565b5b60006117c7858286016115d6565b92505060206117d8858286016115d6565b9150509250929050565b6000819050919050565b60006118076118026117fd8461158d565b6117e2565b61158d565b9050919050565b6000611819826117ec565b9050919050565b600061182b8261180e565b9050919050565b61183b81611820565b82525050565b60006020820190506118566000830184611832565b92915050565b7f4e487b7100000000000000000000000000000000000000000000000000000000600052602260045260246000fd5b600060028204905060018216806118a357607f821691505b6020821081036118b6576118b561185c565b5b50919050565b7f4e487b7100000000000000000000000000000000000000000000000000000000600052601160045260246000fd5b60006118f6826115eb565b9150611901836115eb565b9250828201905080821115611919576119186118bc565b5b92915050565b60008151905061192e816115f5565b92915050565b60006020828403121561194a57611949611588565b5b60006119588482850161191f565b91505092915050565b7f45524332303a2064656372656173656420616c6c6f77616e63652062656c6f7760008201527f207a65726f000000000000000000000000000000000000000000000000000000602082015250565b60006119bd6025836114e1565b91506119c882611961565b604082019050919050565b600060208201905081810360008301526119ec816119b0565b9050919050565b7f4f776e61626c653a206e6577206f776e657220697320746865207a65726f206160008201527f6464726573730000000000000000000000000000000000000000000000000000602082015250565b6000611a4f6026836114e1565b9150611a5a826119f3565b604082019050919050565b60006020820190508181036000830152611a7e81611a42565b9050919050565b7f45524332303a20617070726f76652066726f6d20746865207a65726f2061646460008201527f7265737300000000000000000000000000000000000000000000000000000000602082015250565b6000611ae16024836114e1565b9150611aec82611a85565b604082019050919050565b60006020820190508181036000830152611b1081611ad4565b9050919050565b7f45524332303a20617070726f766520746f20746865207a65726f20616464726560008201527f7373000000000000000000000000000000000000000000000000000000000000602082015250565b6000611b736022836114e1565b9150611b7e82611b17565b604082019050919050565b60006020820190508181036000830152611ba281611b66565b9050919050565b7f45524332303a20696e73756666696369656e7420616c6c6f77616e6365000000600082015250565b6000611bdf601d836114e1565b9150611bea82611ba9565b602082019050919050565b60006020820190508181036000830152611c0e81611bd2565b9050919050565b7f45524332303a207472616e736665722066726f6d20746865207a65726f20616460008201527f6472657373000000000000000000000000000000000000000000000000000000602082015250565b6000611c716025836114e1565b9150611c7c82611c15565b604082019050919050565b60006020820190508181036000830152611ca081611c64565b9050919050565b7f45524332303a207472616e7366657220746f20746865207a65726f206164647260008201527f6573730000000000000000000000000000000000000000000000000000000000602082015250565b6000611d036023836114e1565b9150611d0e82611ca7565b604082019050919050565b60006020820190508181036000830152611d3281611cf6565b9050919050565b7f45524332303a207472616e7366657220616d6f756e742065786365656473206260008201527f616c616e63650000000000000000000000000000000000000000000000000000602082015250565b6000611d956026836114e1565b9150611da082611d39565b604082019050919050565b60006020820190508181036000830152611dc481611d88565b9050919050565b7f4f776e61626c653a2063616c6c6572206973206e6f7420746865206f776e6572600082015250565b6000611e016020836114e1565b9150611e0c82611dcb565b602082019050919050565b60006020820190508181036000830152611e3081611df4565b9050919050565b7f45524332303a206d696e7420746f20746865207a65726f206164647265737300600082015250565b6000611e6d601f836114e1565b9150611e7882611e37565b602082019050919050565b60006020820190508181036000830152611e9c81611e60565b9050919050565b7f45524332303a206275726e2066726f6d20746865207a65726f2061646472657360008201527f7300000000000000000000000000000000000000000000000000000000000000602082015250565b6000611eff6021836114e1565b9150611f0a82611ea3565b604082019050919050565b60006020820190508181036000830152611f2e81611ef2565b9050919050565b7f45524332303a206275726e20616d6f756e7420657863656564732062616c616e60008201527f6365000000000000000000000000000000000000000000000000000000000000602082015250565b6000611f916022836114e1565b9150611f9c82611f35565b604082019050919050565b60006020820190508181036000830152611fc081611f84565b905091905056fea2646970667358221220ebc6fe3ffdb812d81ba0241a8ffe58ecdeab6d31cebb22e38cd7e7640e46257864736f6c63430008110033a2646970667358221220a8342bf3856e32f215fdf61ac9f5819ab6d8c7f5f6eaf3a527f6d6fffb9bb03264736f6c63430008110033",
  "devdoc": {
    "author": "Okwuosa Chijioke",
    "details": "This implements 2 ERC-20 tokens that will be minted in exactly the same proportion as the underlying ERC-20 token transferred into the Factory contract. The asset will be burned in exactly the same proportion when asked to redeem/withdrawal the underlying asset. The contract will implement periodic rebalancing",
    "kind": "dev",
    "methods": {},
    "title": "ERC-20 Rebase Tokens",
    "version": 1
  },
  "userdoc": {
    "kind": "user",
    "methods": {},
    "notice": "Still under development",
    "version": 1
  },
  "storageLayout": {
    "storage": [
      {
        "astId": 169,
        "contract": "contracts/TokenFactory.sol:TokenFactory",
        "label": "_status",
        "offset": 0,
        "slot": "0",
        "type": "t_uint256"
      },
      {
        "astId": 1958,
        "contract": "contracts/TokenFactory.sol:TokenFactory",
        "label": "s_scallingFactorX",
        "offset": 0,
        "slot": "1",
        "type": "t_array(t_uint256)dyn_storage"
      },
      {
        "astId": 1962,
        "contract": "contracts/TokenFactory.sol:TokenFactory",
        "label": "s_devTokenArray",
        "offset": 0,
        "slot": "2",
        "type": "t_array(t_contract(DevToken)1936)dyn_storage"
      },
      {
        "astId": 1971,
        "contract": "contracts/TokenFactory.sol:TokenFactory",
        "label": "s_lastRebaseCount",
        "offset": 0,
        "slot": "3",
        "type": "t_mapping(t_address,t_uint256)"
      }
    ],
    "types": {
      "t_address": {
        "encoding": "inplace",
        "label": "address",
        "numberOfBytes": "20"
      },
      "t_array(t_contract(DevToken)1936)dyn_storage": {
        "base": "t_contract(DevToken)1936",
        "encoding": "dynamic_array",
        "label": "contract DevToken[]",
        "numberOfBytes": "32"
      },
      "t_array(t_uint256)dyn_storage": {
        "base": "t_uint256",
        "encoding": "dynamic_array",
        "label": "uint256[]",
        "numberOfBytes": "32"
      },
      "t_contract(DevToken)1936": {
        "encoding": "inplace",
        "label": "contract DevToken",
        "numberOfBytes": "20"
      },
      "t_mapping(t_address,t_uint256)": {
        "encoding": "mapping",
        "key": "t_address",
        "label": "mapping(address => uint256)",
        "numberOfBytes": "32",
        "value": "t_uint256"
      },
      "t_uint256": {
        "encoding": "inplace",
        "label": "uint256",
        "numberOfBytes": "32"
      }
    }
  }
}