{
  "address": "0xe7f1725E7734CE288F8367e1Bb143E90bb3F0512",
  "abi": [
    {
      "inputs": [
        {
          "internalType": "address",
          "name": "baseTokenAddress",
          "type": "address"
        },
        {
          "internalType": "address",
          "name": "priceFeedAddress",
          "type": "address"
        },
        {
          "internalType": "string",
          "name": "token1Name",
          "type": "string"
        },
        {
          "internalType": "string",
          "name": "token1Symbol",
          "type": "string"
        },
        {
          "internalType": "string",
          "name": "token2Name",
          "type": "string"
        },
        {
          "internalType": "string",
          "name": "token2Symbol",
          "type": "string"
        }
      ],
      "stateMutability": "nonpayable",
      "type": "constructor"
    },
    {
      "inputs": [],
      "name": "TokenFactory__InsufficientFund",
      "type": "error"
    },
    {
      "anonymous": false,
      "inputs": [
        {
          "indexed": true,
          "internalType": "address",
          "name": "recipient",
          "type": "address"
        },
        {
          "indexed": false,
          "internalType": "uint256",
          "name": "amount",
          "type": "uint256"
        }
      ],
      "name": "AssetBought",
      "type": "event"
    },
    {
      "anonymous": false,
      "inputs": [
        {
          "indexed": true,
          "internalType": "address",
          "name": "owner",
          "type": "address"
        },
        {
          "indexed": false,
          "internalType": "uint256",
          "name": "amount",
          "type": "uint256"
        }
      ],
      "name": "AssetWithdrawn",
      "type": "event"
    },
    {
      "inputs": [],
      "name": "buyAsset",
      "outputs": [],
      "stateMutability": "payable",
      "type": "function"
    },
    {
      "inputs": [
        {
          "internalType": "uint256",
          "name": "_devTokenIndex",
          "type": "uint256"
        },
        {
          "internalType": "address",
          "name": "_owner",
          "type": "address"
        }
      ],
      "name": "getBalance",
      "outputs": [
        {
          "internalType": "uint256",
          "name": "",
          "type": "uint256"
        }
      ],
      "stateMutability": "view",
      "type": "function"
    },
    {
      "inputs": [],
      "name": "getBaseTokenAddress",
      "outputs": [
        {
          "internalType": "address",
          "name": "",
          "type": "address"
        }
      ],
      "stateMutability": "view",
      "type": "function"
    },
    {
      "inputs": [
        {
          "internalType": "uint256",
          "name": "index",
          "type": "uint256"
        }
      ],
      "name": "getFunderAddressByIndex",
      "outputs": [
        {
          "internalType": "address",
          "name": "",
          "type": "address"
        }
      ],
      "stateMutability": "view",
      "type": "function"
    },
    {
      "inputs": [],
      "name": "getPriceFeedAddress",
      "outputs": [
        {
          "internalType": "contract AggregatorV3Interface",
          "name": "",
          "type": "address"
        }
      ],
      "stateMutability": "view",
      "type": "function"
    },
    {
      "inputs": [],
      "name": "rebase",
      "outputs": [],
      "stateMutability": "nonpayable",
      "type": "function"
    },
    {
      "inputs": [
        {
          "internalType": "uint256",
          "name": "_amount",
          "type": "uint256"
        }
      ],
      "name": "withdrawAsset",
      "outputs": [],
      "stateMutability": "nonpayable",
      "type": "function"
    }
  ],
  "transactionHash": "0x2f93b56ee3fd1ee164a7b2d282d2de52c125755c5f1774d7a8de0d8f62090f36",
  "args": [
    "0x7ceB23fD6bC0adD59E62ac25578270cFf1b9f619",
    "0x5FbDB2315678afecb367f032d93F642f64180aa3",
    "RistP One",
    "R1",
    "RistP Two",
    "R2"
  ],
  "numDeployments": 1,
  "solcInputHash": "3ba84b17a07adf57d53132e34197ca1f",
  "bytecode": "0x60c06040523480156200001157600080fd5b5060405162003835380380620038358339818101604052810190620000379190620003ff565b60016000819055508573ffffffffffffffffffffffffffffffffffffffff1660808173ffffffffffffffffffffffffffffffffffffffff16815250508473ffffffffffffffffffffffffffffffffffffffff1660a08173ffffffffffffffffffffffffffffffffffffffff168152505060008484604051620000b990620001f9565b620000c692919062000574565b604051809103906000f080158015620000e3573d6000803e3d6000fd5b5090506001819080600181540180825580915050600190039060005260206000200160009091909190916101000a81548173ffffffffffffffffffffffffffffffffffffffff021916908373ffffffffffffffffffffffffffffffffffffffff160217905550600083836040516200015b90620001f9565b6200016892919062000574565b604051809103906000f08015801562000185573d6000803e3d6000fd5b5090506001819080600181540180825580915050600190039060005260206000200160009091909190916101000a81548173ffffffffffffffffffffffffffffffffffffffff021916908373ffffffffffffffffffffffffffffffffffffffff1602179055505050505050505050620005af565b61220a806200162b83390190565b6000604051905090565b600080fd5b600080fd5b600073ffffffffffffffffffffffffffffffffffffffff82169050919050565b600062000248826200021b565b9050919050565b6200025a816200023b565b81146200026657600080fd5b50565b6000815190506200027a816200024f565b92915050565b600080fd5b600080fd5b6000601f19601f8301169050919050565b7f4e487b7100000000000000000000000000000000000000000000000000000000600052604160045260246000fd5b620002d5826200028a565b810181811067ffffffffffffffff82111715620002f757620002f66200029b565b5b80604052505050565b60006200030c62000207565b90506200031a8282620002ca565b919050565b600067ffffffffffffffff8211156200033d576200033c6200029b565b5b62000348826200028a565b9050602081019050919050565b60005b838110156200037557808201518184015260208101905062000358565b60008484015250505050565b60006200039862000392846200031f565b62000300565b905082815260208101848484011115620003b757620003b662000285565b5b620003c484828562000355565b509392505050565b600082601f830112620003e457620003e362000280565b5b8151620003f684826020860162000381565b91505092915050565b60008060008060008060c087890312156200041f576200041e62000211565b5b60006200042f89828a0162000269565b96505060206200044289828a0162000269565b955050604087015167ffffffffffffffff81111562000466576200046562000216565b5b6200047489828a01620003cc565b945050606087015167ffffffffffffffff81111562000498576200049762000216565b5b620004a689828a01620003cc565b935050608087015167ffffffffffffffff811115620004ca57620004c962000216565b5b620004d889828a01620003cc565b92505060a087015167ffffffffffffffff811115620004fc57620004fb62000216565b5b6200050a89828a01620003cc565b9150509295509295509295565b600081519050919050565b600082825260208201905092915050565b6000620005408262000517565b6200054c818562000522565b93506200055e81856020860162000355565b62000569816200028a565b840191505092915050565b6000604082019050818103600083015262000590818562000533565b90508181036020830152620005a6818462000533565b90509392505050565b60805160a05161104f620005dc60003960008181610193015261054b015260006101bb015261104f6000f3fe6080604052600436106100705760003560e01c80638d92fdf31161004e5780638d92fdf3146101085780639fbaf13114610131578063af14052c1461013b578063b0a794591461015257610070565b80630f0f30b2146100755780634df947d0146100a05780635dc9c1b2146100cb575b600080fd5b34801561008157600080fd5b5061008a61018f565b6040516100979190610b39565b60405180910390f35b3480156100ac57600080fd5b506100b56101b7565b6040516100c29190610b75565b60405180910390f35b3480156100d757600080fd5b506100f260048036038101906100ed9190610bcb565b6101df565b6040516100ff9190610b75565b60405180910390f35b34801561011457600080fd5b5061012f600480360381019061012a9190610bcb565b610227565b005b61013961032b565b005b34801561014757600080fd5b506101506104b0565b005b34801561015e57600080fd5b5061017960048036038101906101749190610c24565b610781565b6040516101869190610c73565b60405180910390f35b60007f0000000000000000000000000000000000000000000000000000000000000000905090565b60007f0000000000000000000000000000000000000000000000000000000000000000905090565b6000600282815481106101f5576101f4610c8e565b5b9060005260206000200160009054906101000a900473ffffffffffffffffffffffffffffffffffffffff169050919050565b61022f610843565b61023a600033610781565b811115610273576040517fd9f6ddd900000000000000000000000000000000000000000000000000000000815260040160405180910390fd5b61027f60003383610892565b61028b60013383610892565b3373ffffffffffffffffffffffffffffffffffffffff166108fc829081150290604051600060405180830381858888f193505050501580156102d1573d6000803e3d6000fd5b503373ffffffffffffffffffffffffffffffffffffffff167f94b055d454fefc95ba06924afbaac83912b1575d621a7d32a4675303246bb7d0826040516103189190610c73565b60405180910390a2610328610942565b50565b610333610843565b61033f6000333461094c565b61034b6001333461094c565b600360003373ffffffffffffffffffffffffffffffffffffffff1673ffffffffffffffffffffffffffffffffffffffff16815260200190815260200160002060009054906101000a900460ff16610458576001600360003373ffffffffffffffffffffffffffffffffffffffff1673ffffffffffffffffffffffffffffffffffffffff16815260200190815260200160002060006101000a81548160ff0219169083151502179055506002339080600181540180825580915050600190039060005260206000200160009091909190916101000a81548173ffffffffffffffffffffffffffffffffffffffff021916908373ffffffffffffffffffffffffffffffffffffffff1602179055505b3373ffffffffffffffffffffffffffffffffffffffff167f1043b9f778084a8d3cd9af8b3e347f91d1f9f75697034f065aac775937fe79d43460405161049e9190610c73565b60405180910390a26104ae610942565b565b6000600280548060200260200160405190810160405280929190818152602001828054801561053457602002820191906000526020600020905b8160009054906101000a900473ffffffffffffffffffffffffffffffffffffffff1673ffffffffffffffffffffffffffffffffffffffff16815260200190600101908083116104ea575b505050505090506000670de0b6b3a76400006105857f000000000000000000000000000000000000000000000000000000000000000073ffffffffffffffffffffffffffffffffffffffff166109fc565b61058f9190610d1b565b905060006105a7600383610a7d90919063ffffffff16565b9050600081836105b79190610d4c565b905060008060008060008089519050600080600080600090505b848110156107715760008e82815181106105ee576105ed610c8e565b5b60200260200101519050670de0b6b3a764000061060c600083610781565b6106169190610d1b565b9a50670de0b6b3a764000061062c600183610781565b6106369190610d1b565b99508b8a6106449190610d80565b8d8c6106509190610d80565b61065a9190610dc2565b98506002896106699190610d1b565b975060028e6106789190610d1b565b9650670de0b6b3a76400008088670de0b6b3a76400008b6106999190610d80565b6106a39190610d1b565b6106ad9190610d80565b6106b79190610d1b565b9450670de0b6b3a76400008b6106cd9190610d80565b9350670de0b6b3a76400008a6106e39190610d80565b9250838511156107095761070460008286886106ff9190610d4c565b61094c565b610721565b610720600082878761071b9190610d4c565b610892565b5b8285111561074557610740600182858861073b9190610d4c565b61094c565b61075d565b61075c60018287866107579190610d4c565b610892565b5b50808061076990610df6565b9150506105d1565b5050505050505050505050505050565b60006001838154811061079757610796610c8e565b5b9060005260206000200160009054906101000a900473ffffffffffffffffffffffffffffffffffffffff1673ffffffffffffffffffffffffffffffffffffffff1663eedc966a836040518263ffffffff1660e01b81526004016107fa9190610b75565b602060405180830381865afa158015610817573d6000803e3d6000fd5b505050506040513d601f19601f8201168201806040525081019061083b9190610e53565b905092915050565b600260005403610888576040517f08c379a000000000000000000000000000000000000000000000000000000000815260040161087f90610edd565b60405180910390fd5b6002600081905550565b600183815481106108a6576108a5610c8e565b5b9060005260206000200160009054906101000a900473ffffffffffffffffffffffffffffffffffffffff1673ffffffffffffffffffffffffffffffffffffffff1663d1df306c83836040518363ffffffff1660e01b815260040161090b929190610efd565b600060405180830381600087803b15801561092557600080fd5b505af1158015610939573d6000803e3d6000fd5b50505050505050565b6001600081905550565b600183815481106109605761095f610c8e565b5b9060005260206000200160009054906101000a900473ffffffffffffffffffffffffffffffffffffffff1673ffffffffffffffffffffffffffffffffffffffff1663e74a84ea83836040518363ffffffff1660e01b81526004016109c5929190610efd565b600060405180830381600087803b1580156109df57600080fd5b505af11580156109f3573d6000803e3d6000fd5b50505050505050565b6000808273ffffffffffffffffffffffffffffffffffffffff1663feaf968c6040518163ffffffff1660e01b815260040160a060405180830381865afa158015610a4a573d6000803e3d6000fd5b505050506040513d601f19601f82011682018060405250810190610a6e9190610f9e565b50505091505080915050919050565b6000808314610aaf57600182600185610a969190610d4c565b610aa09190610d1b565b610aaa9190610dc2565b610ab2565b60005b905092915050565b600073ffffffffffffffffffffffffffffffffffffffff82169050919050565b6000819050919050565b6000610aff610afa610af584610aba565b610ada565b610aba565b9050919050565b6000610b1182610ae4565b9050919050565b6000610b2382610b06565b9050919050565b610b3381610b18565b82525050565b6000602082019050610b4e6000830184610b2a565b92915050565b6000610b5f82610aba565b9050919050565b610b6f81610b54565b82525050565b6000602082019050610b8a6000830184610b66565b92915050565b600080fd5b6000819050919050565b610ba881610b95565b8114610bb357600080fd5b50565b600081359050610bc581610b9f565b92915050565b600060208284031215610be157610be0610b90565b5b6000610bef84828501610bb6565b91505092915050565b610c0181610b54565b8114610c0c57600080fd5b50565b600081359050610c1e81610bf8565b92915050565b60008060408385031215610c3b57610c3a610b90565b5b6000610c4985828601610bb6565b9250506020610c5a85828601610c0f565b9150509250929050565b610c6d81610b95565b82525050565b6000602082019050610c886000830184610c64565b92915050565b7f4e487b7100000000000000000000000000000000000000000000000000000000600052603260045260246000fd5b7f4e487b7100000000000000000000000000000000000000000000000000000000600052601260045260246000fd5b7f4e487b7100000000000000000000000000000000000000000000000000000000600052601160045260246000fd5b6000610d2682610b95565b9150610d3183610b95565b925082610d4157610d40610cbd565b5b828204905092915050565b6000610d5782610b95565b9150610d6283610b95565b9250828203905081811115610d7a57610d79610cec565b5b92915050565b6000610d8b82610b95565b9150610d9683610b95565b9250828202610da481610b95565b91508282048414831517610dbb57610dba610cec565b5b5092915050565b6000610dcd82610b95565b9150610dd883610b95565b9250828201905080821115610df057610def610cec565b5b92915050565b6000610e0182610b95565b91507fffffffffffffffffffffffffffffffffffffffffffffffffffffffffffffffff8203610e3357610e32610cec565b5b600182019050919050565b600081519050610e4d81610b9f565b92915050565b600060208284031215610e6957610e68610b90565b5b6000610e7784828501610e3e565b91505092915050565b600082825260208201905092915050565b7f5265656e7472616e637947756172643a207265656e7472616e742063616c6c00600082015250565b6000610ec7601f83610e80565b9150610ed282610e91565b602082019050919050565b60006020820190508181036000830152610ef681610eba565b9050919050565b6000604082019050610f126000830185610b66565b610f1f6020830184610c64565b9392505050565b600069ffffffffffffffffffff82169050919050565b610f4581610f26565b8114610f5057600080fd5b50565b600081519050610f6281610f3c565b92915050565b6000819050919050565b610f7b81610f68565b8114610f8657600080fd5b50565b600081519050610f9881610f72565b92915050565b600080600080600060a08688031215610fba57610fb9610b90565b5b6000610fc888828901610f53565b9550506020610fd988828901610f89565b9450506040610fea88828901610e3e565b9350506060610ffb88828901610e3e565b925050608061100c88828901610f53565b915050929550929590935056fea26469706673582212205089ab26b770cb097f186b4f7fa365e2638ea1d92f3861b84e69b842da40c9bd64736f6c6343000811003360806040523480156200001157600080fd5b506040516200220a3803806200220a8339818101604052810190620000379190620002e8565b818181600390816200004a9190620005b8565b5080600490816200005c9190620005b8565b5050506200007f620000736200008760201b60201c565b6200008f60201b60201c565b50506200069f565b600033905090565b6000600560009054906101000a900473ffffffffffffffffffffffffffffffffffffffff16905081600560006101000a81548173ffffffffffffffffffffffffffffffffffffffff021916908373ffffffffffffffffffffffffffffffffffffffff1602179055508173ffffffffffffffffffffffffffffffffffffffff168173ffffffffffffffffffffffffffffffffffffffff167f8be0079c531659141344cd1fd0a4f28419497f9722a3daafe3b4186f6b6457e060405160405180910390a35050565b6000604051905090565b600080fd5b600080fd5b600080fd5b600080fd5b6000601f19601f8301169050919050565b7f4e487b7100000000000000000000000000000000000000000000000000000000600052604160045260246000fd5b620001be8262000173565b810181811067ffffffffffffffff82111715620001e057620001df62000184565b5b80604052505050565b6000620001f562000155565b9050620002038282620001b3565b919050565b600067ffffffffffffffff82111562000226576200022562000184565b5b620002318262000173565b9050602081019050919050565b60005b838110156200025e57808201518184015260208101905062000241565b60008484015250505050565b6000620002816200027b8462000208565b620001e9565b905082815260208101848484011115620002a0576200029f6200016e565b5b620002ad8482856200023e565b509392505050565b600082601f830112620002cd57620002cc62000169565b5b8151620002df8482602086016200026a565b91505092915050565b600080604083850312156200030257620003016200015f565b5b600083015167ffffffffffffffff81111562000323576200032262000164565b5b6200033185828601620002b5565b925050602083015167ffffffffffffffff81111562000355576200035462000164565b5b6200036385828601620002b5565b9150509250929050565b600081519050919050565b7f4e487b7100000000000000000000000000000000000000000000000000000000600052602260045260246000fd5b60006002820490506001821680620003c057607f821691505b602082108103620003d657620003d562000378565b5b50919050565b60008190508160005260206000209050919050565b60006020601f8301049050919050565b600082821b905092915050565b600060088302620004407fffffffffffffffffffffffffffffffffffffffffffffffffffffffffffffffff8262000401565b6200044c868362000401565b95508019841693508086168417925050509392505050565b6000819050919050565b6000819050919050565b600062000499620004936200048d8462000464565b6200046e565b62000464565b9050919050565b6000819050919050565b620004b58362000478565b620004cd620004c482620004a0565b8484546200040e565b825550505050565b600090565b620004e4620004d5565b620004f1818484620004aa565b505050565b5b8181101562000519576200050d600082620004da565b600181019050620004f7565b5050565b601f82111562000568576200053281620003dc565b6200053d84620003f1565b810160208510156200054d578190505b620005656200055c85620003f1565b830182620004f6565b50505b505050565b600082821c905092915050565b60006200058d600019846008026200056d565b1980831691505092915050565b6000620005a883836200057a565b9150826002028217905092915050565b620005c3826200036d565b67ffffffffffffffff811115620005df57620005de62000184565b5b620005eb8254620003a7565b620005f88282856200051d565b600060209050601f8311600181146200063057600084156200061b578287015190505b6200062785826200059a565b86555062000697565b601f1984166200064086620003dc565b60005b828110156200066a5784890151825560018201915060208501945060208101905062000643565b868310156200068a578489015162000686601f8916826200057a565b8355505b6001600288020188555050505b505050505050565b611b5b80620006af6000396000f3fe608060405234801561001057600080fd5b506004361061010b5760003560e01c80638da5cb5b116100a2578063d1df306c11610071578063d1df306c146102d0578063dd62ed3e146102ec578063e74a84ea1461031c578063eedc966a14610338578063f2fde38b146103685761010b565b80638da5cb5b1461023457806395d89b4114610252578063a457c2d714610270578063a9059cbb146102a05761010b565b8063313ce567116100de578063313ce567146101ac57806339509351146101ca57806370a08231146101fa578063715018a61461022a5761010b565b806306fdde0314610110578063095ea7b31461012e57806318160ddd1461015e57806323b872dd1461017c575b600080fd5b610118610384565b6040516101259190611180565b60405180910390f35b6101486004803603810190610143919061123b565b610416565b6040516101559190611296565b60405180910390f35b610166610439565b60405161017391906112c0565b60405180910390f35b610196600480360381019061019191906112db565b610443565b6040516101a39190611296565b60405180910390f35b6101b4610472565b6040516101c1919061134a565b60405180910390f35b6101e460048036038101906101df919061123b565b61047b565b6040516101f19190611296565b60405180910390f35b610214600480360381019061020f9190611365565b6104b2565b60405161022191906112c0565b60405180910390f35b6102326104fa565b005b61023c61050e565b60405161024991906113a1565b60405180910390f35b61025a610538565b6040516102679190611180565b60405180910390f35b61028a6004803603810190610285919061123b565b6105ca565b6040516102979190611296565b60405180910390f35b6102ba60048036038101906102b5919061123b565b610641565b6040516102c79190611296565b60405180910390f35b6102ea60048036038101906102e5919061123b565b610664565b005b610306600480360381019061030191906113bc565b61067a565b60405161031391906112c0565b60405180910390f35b6103366004803603810190610331919061123b565b610701565b005b610352600480360381019061034d9190611365565b610717565b60405161035f91906112c0565b60405180910390f35b610382600480360381019061037d9190611365565b610729565b005b6060600380546103939061142b565b80601f01602080910402602001604051908101604052809291908181526020018280546103bf9061142b565b801561040c5780601f106103e15761010080835404028352916020019161040c565b820191906000526020600020905b8154815290600101906020018083116103ef57829003601f168201915b5050505050905090565b6000806104216107ac565b905061042e8185856107b4565b600191505092915050565b6000600254905090565b60008061044e6107ac565b905061045b85828561097d565b610466858585610a09565b60019150509392505050565b60006012905090565b6000806104866107ac565b90506104a7818585610498858961067a565b6104a2919061148b565b6107b4565b600191505092915050565b60008060008373ffffffffffffffffffffffffffffffffffffffff1673ffffffffffffffffffffffffffffffffffffffff168152602001908152602001600020549050919050565b610502610c7f565b61050c6000610cfd565b565b6000600560009054906101000a900473ffffffffffffffffffffffffffffffffffffffff16905090565b6060600480546105479061142b565b80601f01602080910402602001604051908101604052809291908181526020018280546105739061142b565b80156105c05780601f10610595576101008083540402835291602001916105c0565b820191906000526020600020905b8154815290600101906020018083116105a357829003601f168201915b5050505050905090565b6000806105d56107ac565b905060006105e3828661067a565b905083811015610628576040517f08c379a000000000000000000000000000000000000000000000000000000000815260040161061f90611531565b60405180910390fd5b61063582868684036107b4565b60019250505092915050565b60008061064c6107ac565b9050610659818585610a09565b600191505092915050565b61066c610c7f565b6106768282610dc3565b5050565b6000600160008473ffffffffffffffffffffffffffffffffffffffff1673ffffffffffffffffffffffffffffffffffffffff16815260200190815260200160002060008373ffffffffffffffffffffffffffffffffffffffff1673ffffffffffffffffffffffffffffffffffffffff16815260200190815260200160002054905092915050565b610709610c7f565b6107138282610f90565b5050565b6000610722826104b2565b9050919050565b610731610c7f565b600073ffffffffffffffffffffffffffffffffffffffff168173ffffffffffffffffffffffffffffffffffffffff16036107a0576040517f08c379a0000000000000000000000000000000000000000000000000000000008152600401610797906115c3565b60405180910390fd5b6107a981610cfd565b50565b600033905090565b600073ffffffffffffffffffffffffffffffffffffffff168373ffffffffffffffffffffffffffffffffffffffff1603610823576040517f08c379a000000000000000000000000000000000000000000000000000000000815260040161081a90611655565b60405180910390fd5b600073ffffffffffffffffffffffffffffffffffffffff168273ffffffffffffffffffffffffffffffffffffffff1603610892576040517f08c379a0000000000000000000000000000000000000000000000000000000008152600401610889906116e7565b60405180910390fd5b80600160008573ffffffffffffffffffffffffffffffffffffffff1673ffffffffffffffffffffffffffffffffffffffff16815260200190815260200160002060008473ffffffffffffffffffffffffffffffffffffffff1673ffffffffffffffffffffffffffffffffffffffff168152602001908152602001600020819055508173ffffffffffffffffffffffffffffffffffffffff168373ffffffffffffffffffffffffffffffffffffffff167f8c5be1e5ebec7d5bd14f71427d1e84f3dd0314c0f7b2291e5b200ac8c7c3b9258360405161097091906112c0565b60405180910390a3505050565b6000610989848461067a565b90507fffffffffffffffffffffffffffffffffffffffffffffffffffffffffffffffff8114610a0357818110156109f5576040517f08c379a00000000000000000000000000000000000000000000000000000000081526004016109ec90611753565b60405180910390fd5b610a0284848484036107b4565b5b50505050565b600073ffffffffffffffffffffffffffffffffffffffff168373ffffffffffffffffffffffffffffffffffffffff1603610a78576040517f08c379a0000000000000000000000000000000000000000000000000000000008152600401610a6f906117e5565b60405180910390fd5b600073ffffffffffffffffffffffffffffffffffffffff168273ffffffffffffffffffffffffffffffffffffffff1603610ae7576040517f08c379a0000000000000000000000000000000000000000000000000000000008152600401610ade90611877565b60405180910390fd5b610af28383836110e6565b60008060008573ffffffffffffffffffffffffffffffffffffffff1673ffffffffffffffffffffffffffffffffffffffff16815260200190815260200160002054905081811015610b78576040517f08c379a0000000000000000000000000000000000000000000000000000000008152600401610b6f90611909565b60405180910390fd5b8181036000808673ffffffffffffffffffffffffffffffffffffffff1673ffffffffffffffffffffffffffffffffffffffff16815260200190815260200160002081905550816000808573ffffffffffffffffffffffffffffffffffffffff1673ffffffffffffffffffffffffffffffffffffffff168152602001908152602001600020600082825401925050819055508273ffffffffffffffffffffffffffffffffffffffff168473ffffffffffffffffffffffffffffffffffffffff167fddf252ad1be2c89b69c2b068fc378daa952ba7f163c4a11628f55a4df523b3ef84604051610c6691906112c0565b60405180910390a3610c798484846110eb565b50505050565b610c876107ac565b73ffffffffffffffffffffffffffffffffffffffff16610ca561050e565b73ffffffffffffffffffffffffffffffffffffffff1614610cfb576040517f08c379a0000000000000000000000000000000000000000000000000000000008152600401610cf290611975565b60405180910390fd5b565b6000600560009054906101000a900473ffffffffffffffffffffffffffffffffffffffff16905081600560006101000a81548173ffffffffffffffffffffffffffffffffffffffff021916908373ffffffffffffffffffffffffffffffffffffffff1602179055508173ffffffffffffffffffffffffffffffffffffffff168173ffffffffffffffffffffffffffffffffffffffff167f8be0079c531659141344cd1fd0a4f28419497f9722a3daafe3b4186f6b6457e060405160405180910390a35050565b600073ffffffffffffffffffffffffffffffffffffffff168273ffffffffffffffffffffffffffffffffffffffff1603610e32576040517f08c379a0000000000000000000000000000000000000000000000000000000008152600401610e2990611a07565b60405180910390fd5b610e3e826000836110e6565b60008060008473ffffffffffffffffffffffffffffffffffffffff1673ffffffffffffffffffffffffffffffffffffffff16815260200190815260200160002054905081811015610ec4576040517f08c379a0000000000000000000000000000000000000000000000000000000008152600401610ebb90611a99565b60405180910390fd5b8181036000808573ffffffffffffffffffffffffffffffffffffffff1673ffffffffffffffffffffffffffffffffffffffff1681526020019081526020016000208190555081600260008282540392505081905550600073ffffffffffffffffffffffffffffffffffffffff168373ffffffffffffffffffffffffffffffffffffffff167fddf252ad1be2c89b69c2b068fc378daa952ba7f163c4a11628f55a4df523b3ef84604051610f7791906112c0565b60405180910390a3610f8b836000846110eb565b505050565b600073ffffffffffffffffffffffffffffffffffffffff168273ffffffffffffffffffffffffffffffffffffffff1603610fff576040517f08c379a0000000000000000000000000000000000000000000000000000000008152600401610ff690611b05565b60405180910390fd5b61100b600083836110e6565b806002600082825461101d919061148b565b92505081905550806000808473ffffffffffffffffffffffffffffffffffffffff1673ffffffffffffffffffffffffffffffffffffffff168152602001908152602001600020600082825401925050819055508173ffffffffffffffffffffffffffffffffffffffff16600073ffffffffffffffffffffffffffffffffffffffff167fddf252ad1be2c89b69c2b068fc378daa952ba7f163c4a11628f55a4df523b3ef836040516110ce91906112c0565b60405180910390a36110e2600083836110eb565b5050565b505050565b505050565b600081519050919050565b600082825260208201905092915050565b60005b8381101561112a57808201518184015260208101905061110f565b60008484015250505050565b6000601f19601f8301169050919050565b6000611152826110f0565b61115c81856110fb565b935061116c81856020860161110c565b61117581611136565b840191505092915050565b6000602082019050818103600083015261119a8184611147565b905092915050565b600080fd5b600073ffffffffffffffffffffffffffffffffffffffff82169050919050565b60006111d2826111a7565b9050919050565b6111e2816111c7565b81146111ed57600080fd5b50565b6000813590506111ff816111d9565b92915050565b6000819050919050565b61121881611205565b811461122357600080fd5b50565b6000813590506112358161120f565b92915050565b60008060408385031215611252576112516111a2565b5b6000611260858286016111f0565b925050602061127185828601611226565b9150509250929050565b60008115159050919050565b6112908161127b565b82525050565b60006020820190506112ab6000830184611287565b92915050565b6112ba81611205565b82525050565b60006020820190506112d560008301846112b1565b92915050565b6000806000606084860312156112f4576112f36111a2565b5b6000611302868287016111f0565b9350506020611313868287016111f0565b925050604061132486828701611226565b9150509250925092565b600060ff82169050919050565b6113448161132e565b82525050565b600060208201905061135f600083018461133b565b92915050565b60006020828403121561137b5761137a6111a2565b5b6000611389848285016111f0565b91505092915050565b61139b816111c7565b82525050565b60006020820190506113b66000830184611392565b92915050565b600080604083850312156113d3576113d26111a2565b5b60006113e1858286016111f0565b92505060206113f2858286016111f0565b9150509250929050565b7f4e487b7100000000000000000000000000000000000000000000000000000000600052602260045260246000fd5b6000600282049050600182168061144357607f821691505b602082108103611456576114556113fc565b5b50919050565b7f4e487b7100000000000000000000000000000000000000000000000000000000600052601160045260246000fd5b600061149682611205565b91506114a183611205565b92508282019050808211156114b9576114b861145c565b5b92915050565b7f45524332303a2064656372656173656420616c6c6f77616e63652062656c6f7760008201527f207a65726f000000000000000000000000000000000000000000000000000000602082015250565b600061151b6025836110fb565b9150611526826114bf565b604082019050919050565b6000602082019050818103600083015261154a8161150e565b9050919050565b7f4f776e61626c653a206e6577206f776e657220697320746865207a65726f206160008201527f6464726573730000000000000000000000000000000000000000000000000000602082015250565b60006115ad6026836110fb565b91506115b882611551565b604082019050919050565b600060208201905081810360008301526115dc816115a0565b9050919050565b7f45524332303a20617070726f76652066726f6d20746865207a65726f2061646460008201527f7265737300000000000000000000000000000000000000000000000000000000602082015250565b600061163f6024836110fb565b915061164a826115e3565b604082019050919050565b6000602082019050818103600083015261166e81611632565b9050919050565b7f45524332303a20617070726f766520746f20746865207a65726f20616464726560008201527f7373000000000000000000000000000000000000000000000000000000000000602082015250565b60006116d16022836110fb565b91506116dc82611675565b604082019050919050565b60006020820190508181036000830152611700816116c4565b9050919050565b7f45524332303a20696e73756666696369656e7420616c6c6f77616e6365000000600082015250565b600061173d601d836110fb565b915061174882611707565b602082019050919050565b6000602082019050818103600083015261176c81611730565b9050919050565b7f45524332303a207472616e736665722066726f6d20746865207a65726f20616460008201527f6472657373000000000000000000000000000000000000000000000000000000602082015250565b60006117cf6025836110fb565b91506117da82611773565b604082019050919050565b600060208201905081810360008301526117fe816117c2565b9050919050565b7f45524332303a207472616e7366657220746f20746865207a65726f206164647260008201527f6573730000000000000000000000000000000000000000000000000000000000602082015250565b60006118616023836110fb565b915061186c82611805565b604082019050919050565b6000602082019050818103600083015261189081611854565b9050919050565b7f45524332303a207472616e7366657220616d6f756e742065786365656473206260008201527f616c616e63650000000000000000000000000000000000000000000000000000602082015250565b60006118f36026836110fb565b91506118fe82611897565b604082019050919050565b60006020820190508181036000830152611922816118e6565b9050919050565b7f4f776e61626c653a2063616c6c6572206973206e6f7420746865206f776e6572600082015250565b600061195f6020836110fb565b915061196a82611929565b602082019050919050565b6000602082019050818103600083015261198e81611952565b9050919050565b7f45524332303a206275726e2066726f6d20746865207a65726f2061646472657360008201527f7300000000000000000000000000000000000000000000000000000000000000602082015250565b60006119f16021836110fb565b91506119fc82611995565b604082019050919050565b60006020820190508181036000830152611a20816119e4565b9050919050565b7f45524332303a206275726e20616d6f756e7420657863656564732062616c616e60008201527f6365000000000000000000000000000000000000000000000000000000000000602082015250565b6000611a836022836110fb565b9150611a8e82611a27565b604082019050919050565b60006020820190508181036000830152611ab281611a76565b9050919050565b7f45524332303a206d696e7420746f20746865207a65726f206164647265737300600082015250565b6000611aef601f836110fb565b9150611afa82611ab9565b602082019050919050565b60006020820190508181036000830152611b1e81611ae2565b905091905056fea2646970667358221220c9f34f3cab58a40cead75f018445ad721f669c1b24a7fea6e14a3fbdb8b56e4264736f6c63430008110033",
  "devdoc": {
    "author": "Okwuosa Chijioke",
    "details": "This implements 2 ERC-20 tokens that will be minted in exactly the same proportion as the underlying ERC-20 token transferred into the Factory contract. The asset will be burned in exactly the same proportion when asked to redeem/withdrawal the underlying asset. The contract will implement periodic rebalancing",
    "kind": "dev",
    "methods": {},
    "title": "ERC-20 Rebase Tokens",
    "version": 1
  },
  "userdoc": {
    "kind": "user",
    "methods": {},
    "notice": "Still under development",
    "version": 1
  },
  "storageLayout": {
    "storage": [
      {
        "astId": 169,
        "contract": "contracts/TokenFactory.sol:TokenFactory",
        "label": "_status",
        "offset": 0,
        "slot": "0",
        "type": "t_uint256"
      },
      {
        "astId": 1875,
        "contract": "contracts/TokenFactory.sol:TokenFactory",
        "label": "s_devTokenArray",
        "offset": 0,
        "slot": "1",
        "type": "t_array(t_contract(DevToken)1852)dyn_storage"
      },
      {
        "astId": 1880,
        "contract": "contracts/TokenFactory.sol:TokenFactory",
        "label": "s_funders",
        "offset": 0,
        "slot": "2",
        "type": "t_array(t_address)dyn_storage"
      },
      {
        "astId": 1887,
        "contract": "contracts/TokenFactory.sol:TokenFactory",
        "label": "inserted",
        "offset": 0,
        "slot": "3",
        "type": "t_mapping(t_address,t_bool)"
      }
    ],
    "types": {
      "t_address": {
        "encoding": "inplace",
        "label": "address",
        "numberOfBytes": "20"
      },
      "t_array(t_address)dyn_storage": {
        "base": "t_address",
        "encoding": "dynamic_array",
        "label": "address[]",
        "numberOfBytes": "32"
      },
      "t_array(t_contract(DevToken)1852)dyn_storage": {
        "base": "t_contract(DevToken)1852",
        "encoding": "dynamic_array",
        "label": "contract DevToken[]",
        "numberOfBytes": "32"
      },
      "t_bool": {
        "encoding": "inplace",
        "label": "bool",
        "numberOfBytes": "1"
      },
      "t_contract(DevToken)1852": {
        "encoding": "inplace",
        "label": "contract DevToken",
        "numberOfBytes": "20"
      },
      "t_mapping(t_address,t_bool)": {
        "encoding": "mapping",
        "key": "t_address",
        "label": "mapping(address => bool)",
        "numberOfBytes": "32",
        "value": "t_bool"
      },
      "t_uint256": {
        "encoding": "inplace",
        "label": "uint256",
        "numberOfBytes": "32"
      }
    }
  }
}