{
  "address": "0x9fE46736679d2D9a65F0992F2272dE9f3c7fa6e0",
  "abi": [
    {
      "inputs": [
        {
          "internalType": "address",
          "name": "baseTokenAddress",
          "type": "address"
        },
        {
          "internalType": "address",
          "name": "priceFeedAddress",
          "type": "address"
        }
      ],
      "stateMutability": "nonpayable",
      "type": "constructor"
    },
    {
      "inputs": [],
      "name": "TokenFactory__InsufficientFund",
      "type": "error"
    },
    {
      "anonymous": false,
      "inputs": [
        {
          "indexed": true,
          "internalType": "address",
          "name": "recipient",
          "type": "address"
        },
        {
          "indexed": false,
          "internalType": "uint256",
          "name": "amount",
          "type": "uint256"
        }
      ],
      "name": "AssetBought",
      "type": "event"
    },
    {
      "anonymous": false,
      "inputs": [
        {
          "indexed": true,
          "internalType": "address",
          "name": "owner",
          "type": "address"
        },
        {
          "indexed": false,
          "internalType": "uint256",
          "name": "amount",
          "type": "uint256"
        }
      ],
      "name": "AssetWithdrawn",
      "type": "event"
    },
    {
      "inputs": [],
      "name": "applyRebase",
      "outputs": [],
      "stateMutability": "nonpayable",
      "type": "function"
    },
    {
      "inputs": [
        {
          "internalType": "uint256",
          "name": "_devTokenIndex",
          "type": "uint256"
        },
        {
          "internalType": "address",
          "name": "_owner",
          "type": "address"
        }
      ],
      "name": "balanceOf",
      "outputs": [
        {
          "internalType": "uint256",
          "name": "",
          "type": "uint256"
        }
      ],
      "stateMutability": "view",
      "type": "function"
    },
    {
      "inputs": [],
      "name": "buyAsset",
      "outputs": [],
      "stateMutability": "payable",
      "type": "function"
    },
    {
      "inputs": [
        {
          "internalType": "address",
          "name": "_owner",
          "type": "address"
        }
      ],
      "name": "calculateRollOverValue",
      "outputs": [
        {
          "internalType": "uint256",
          "name": "",
          "type": "uint256"
        }
      ],
      "stateMutability": "view",
      "type": "function"
    },
    {
      "inputs": [],
      "name": "getBaseTokenAddress",
      "outputs": [
        {
          "internalType": "contract ERC20",
          "name": "",
          "type": "address"
        }
      ],
      "stateMutability": "view",
      "type": "function"
    },
    {
      "inputs": [],
      "name": "getPriceFeedAddress",
      "outputs": [
        {
          "internalType": "contract AggregatorV3Interface",
          "name": "",
          "type": "address"
        }
      ],
      "stateMutability": "view",
      "type": "function"
    },
    {
      "inputs": [
        {
          "internalType": "uint256",
          "name": "index",
          "type": "uint256"
        }
      ],
      "name": "getScallingFactor",
      "outputs": [
        {
          "internalType": "uint256",
          "name": "",
          "type": "uint256"
        }
      ],
      "stateMutability": "view",
      "type": "function"
    },
    {
      "inputs": [],
      "name": "getScallingFactorLength",
      "outputs": [
        {
          "internalType": "uint256",
          "name": "",
          "type": "uint256"
        }
      ],
      "stateMutability": "view",
      "type": "function"
    },
    {
      "inputs": [
        {
          "internalType": "address",
          "name": "userAddress",
          "type": "address"
        }
      ],
      "name": "getUserLastRebaseCount",
      "outputs": [
        {
          "internalType": "uint256",
          "name": "",
          "type": "uint256"
        }
      ],
      "stateMutability": "view",
      "type": "function"
    },
    {
      "inputs": [
        {
          "internalType": "string",
          "name": "token1Name",
          "type": "string"
        },
        {
          "internalType": "string",
          "name": "token1Symbol",
          "type": "string"
        },
        {
          "internalType": "string",
          "name": "token2Name",
          "type": "string"
        },
        {
          "internalType": "string",
          "name": "token2Symbol",
          "type": "string"
        },
        {
          "internalType": "address",
          "name": "tokenFactoryAddress",
          "type": "address"
        }
      ],
      "name": "initialize",
      "outputs": [],
      "stateMutability": "nonpayable",
      "type": "function"
    },
    {
      "inputs": [
        {
          "internalType": "uint256",
          "name": "n",
          "type": "uint256"
        },
        {
          "internalType": "uint256",
          "name": "e",
          "type": "uint256"
        }
      ],
      "name": "pow",
      "outputs": [
        {
          "internalType": "uint256",
          "name": "",
          "type": "uint256"
        }
      ],
      "stateMutability": "pure",
      "type": "function"
    },
    {
      "inputs": [],
      "name": "rebase",
      "outputs": [],
      "stateMutability": "nonpayable",
      "type": "function"
    },
    {
      "inputs": [
        {
          "internalType": "uint256",
          "name": "scallingFactorX",
          "type": "uint256"
        }
      ],
      "name": "subUnchecked",
      "outputs": [
        {
          "internalType": "uint256",
          "name": "",
          "type": "uint256"
        }
      ],
      "stateMutability": "view",
      "type": "function"
    },
    {
      "inputs": [
        {
          "internalType": "uint256",
          "name": "_devTokenIndex",
          "type": "uint256"
        },
        {
          "internalType": "address",
          "name": "to",
          "type": "address"
        },
        {
          "internalType": "uint256",
          "name": "value",
          "type": "uint256"
        }
      ],
      "name": "transfer",
      "outputs": [
        {
          "internalType": "bool",
          "name": "",
          "type": "bool"
        }
      ],
      "stateMutability": "nonpayable",
      "type": "function"
    },
    {
      "inputs": [
        {
          "internalType": "uint256",
          "name": "_amount",
          "type": "uint256"
        }
      ],
      "name": "withdrawAsset",
      "outputs": [],
      "stateMutability": "nonpayable",
      "type": "function"
    }
  ],
  "transactionHash": "0x6da54726ababfa2ff02e9064cb40933928f4dd1b95df23d66e766cc48fa4483d",
  "args": [
    "0xe7f1725E7734CE288F8367e1Bb143E90bb3F0512",
    "0x5FbDB2315678afecb367f032d93F642f64180aa3"
  ],
  "numDeployments": 1,
  "solcInputHash": "5ab31094595c570dbb954cd6b7a2ccd9",
  "bytecode": "0x60c06040523480156200001157600080fd5b5060405162004797380380620047978339818101604052810190620000379190620001a7565b60016000819055508173ffffffffffffffffffffffffffffffffffffffff1660a08173ffffffffffffffffffffffffffffffffffffffff16815250508073ffffffffffffffffffffffffffffffffffffffff1660808173ffffffffffffffffffffffffffffffffffffffff168152505060a05173ffffffffffffffffffffffffffffffffffffffff1663313ce5676040518163ffffffff1660e01b8152600401602060405180830381865afa158015620000f5573d6000803e3d6000fd5b505050506040513d601f19601f820116820180604052508101906200011b91906200022c565b600460006101000a81548160ff021916908360ff16021790555050506200025e565b600080fd5b600073ffffffffffffffffffffffffffffffffffffffff82169050919050565b60006200016f8262000142565b9050919050565b620001818162000162565b81146200018d57600080fd5b50565b600081519050620001a18162000176565b92915050565b60008060408385031215620001c157620001c06200013d565b5b6000620001d18582860162000190565b9250506020620001e48582860162000190565b9150509250929050565b600060ff82169050919050565b6200020681620001ee565b81146200021257600080fd5b50565b6000815190506200022681620001fb565b92915050565b6000602082840312156200024557620002446200013d565b5b6000620002558482850162000215565b91505092915050565b60805160a05161450c6200028b600039600061071f0152600081816104390152610eb4015261450c6000f3fe608060405260043610620000fe5760003560e01c80637b69ce2f1162000097578063a4d96e171162000061578063a4d96e171462000325578063af14052c1462000369578063e5fc402a1462000383578063f8548e3614620003c757620000fe565b80637b69ce2f146200028d5780638d92fdf314620002d15780639fbaf13114620002ff578063a4b82a3a146200030b57620000fe565b80632e64002411620000d95780632e64002414620001bb5780633656eec214620001e95780634df947d0146200022d57806378c1a6c4146200025d57620000fe565b80630318b3a014620001035780630f0f30b214620001475780632e4c697f1462000177575b600080fd5b3480156200011057600080fd5b506200012f6004803603810190620001299190620013d7565b6200040b565b6040516200013e91906200141a565b60405180910390f35b3480156200015457600080fd5b506200015f62000435565b6040516200016e9190620014c2565b60405180910390f35b3480156200018457600080fd5b50620001a360048036038101906200019d9190620014df565b6200045d565b604051620001b291906200141a565b60405180910390f35b348015620001c857600080fd5b50620001e76004803603810190620001e19190620016cd565b62000500565b005b348015620001f657600080fd5b506200021560048036038101906200020f9190620017d1565b62000651565b6040516200022491906200141a565b60405180910390f35b3480156200023a57600080fd5b50620002456200071b565b6040516200025491906200183d565b60405180910390f35b3480156200026a57600080fd5b506200027562000743565b6040516200028491906200141a565b60405180910390f35b3480156200029a57600080fd5b50620002b96004803603810190620002b391906200185a565b62000750565b604051620002c891906200141a565b60405180910390f35b348015620002de57600080fd5b50620002fd6004803603810190620002f79190620013d7565b62000799565b005b6200030962000906565b005b3480156200031857600080fd5b506200032362000988565b005b3480156200033257600080fd5b506200035160048036038101906200034b91906200185a565b62000bff565b6040516200036091906200141a565b60405180910390f35b3480156200037657600080fd5b506200038162000e8d565b005b3480156200039057600080fd5b50620003af6004803603810190620003a99190620013d7565b62000fa5565b604051620003be91906200141a565b60405180910390f35b348015620003d457600080fd5b50620003f36004803603810190620003ed91906200188c565b62000fd0565b60405162000402919062001905565b60405180910390f35b6000816200042d600a600460009054906101000a900460ff1660ff166200045d565b039050919050565b60007f0000000000000000000000000000000000000000000000000000000000000000905090565b6000808203620004715760019050620004fa565b600182036200048357829050620004fa565b6000620004a684620004a06002866200109f90919063ffffffff16565b6200045d565b9050620004bd8182620010b790919063ffffffff16565b90506001620004d7600285620010cf90919063ffffffff16565b03620004f557620004f28482620010b790919063ffffffff16565b90505b809150505b92915050565b600085858360405162000513906200137a565b6200052193929190620019bc565b604051809103906000f0801580156200053e573d6000803e3d6000fd5b5090506002819080600181540180825580915050600190039060005260206000200160009091909190916101000a81548173ffffffffffffffffffffffffffffffffffffffff021916908373ffffffffffffffffffffffffffffffffffffffff1602179055506000848484604051620005b7906200137a565b620005c593929190620019bc565b604051809103906000f080158015620005e2573d6000803e3d6000fd5b5090506002819080600181540180825580915050600190039060005260206000200160009091909190916101000a81548173ffffffffffffffffffffffffffffffffffffffff021916908373ffffffffffffffffffffffffffffffffffffffff16021790555050505050505050565b6000600283815481106200066a576200066962001a07565b5b9060005260206000200160009054906101000a900473ffffffffffffffffffffffffffffffffffffffff1673ffffffffffffffffffffffffffffffffffffffff166370a08231836040518263ffffffff1660e01b8152600401620006cf919062001a36565b602060405180830381865afa158015620006ed573d6000803e3d6000fd5b505050506040513d601f19601f8201168201806040525081019062000713919062001a6a565b905092915050565b60007f0000000000000000000000000000000000000000000000000000000000000000905090565b6000600180549050905090565b6000600360008373ffffffffffffffffffffffffffffffffffffffff1673ffffffffffffffffffffffffffffffffffffffff168152602001908152602001600020549050919050565b620007a3620010e7565b620007ad62000743565b600360003373ffffffffffffffffffffffffffffffffffffffff1673ffffffffffffffffffffffffffffffffffffffff1681526020019081526020016000205414620007fe57620007fd62000988565b5b6200080b60003362000651565b81111562000845576040517fd9f6ddd900000000000000000000000000000000000000000000000000000000815260040160405180910390fd5b620008536000338362001139565b620008616001338362001139565b3373ffffffffffffffffffffffffffffffffffffffff166108fc829081150290604051600060405180830381858888f19350505050158015620008a8573d6000803e3d6000fd5b503373ffffffffffffffffffffffffffffffffffffffff167f94b055d454fefc95ba06924afbaac83912b1575d621a7d32a4675303246bb7d082604051620008f191906200141a565b60405180910390a262000903620011f0565b50565b62000910620010e7565b6200091e60003334620011fa565b6200092c60013334620011fa565b3373ffffffffffffffffffffffffffffffffffffffff167f1043b9f778084a8d3cd9af8b3e347f91d1f9f75697034f065aac775937fe79d4346040516200097491906200141a565b60405180910390a262000986620011f0565b565b60006002600081548110620009a257620009a162001a07565b5b9060005260206000200160009054906101000a900473ffffffffffffffffffffffffffffffffffffffff1673ffffffffffffffffffffffffffffffffffffffff16638f4cef0c336040518263ffffffff1660e01b815260040162000a07919062001a36565b602060405180830381865afa15801562000a25573d6000803e3d6000fd5b505050506040513d601f19601f8201168201806040525081019062000a4b919062001a6a565b90506000600260018154811062000a675762000a6662001a07565b5b9060005260206000200160009054906101000a900473ffffffffffffffffffffffffffffffffffffffff1673ffffffffffffffffffffffffffffffffffffffff16638f4cef0c336040518263ffffffff1660e01b815260040162000acc919062001a36565b602060405180830381865afa15801562000aea573d6000803e3d6000fd5b505050506040513d601f19601f8201168201806040525081019062000b10919062001a6a565b9050600062000b1f3362000bff565b90508281111562000b4b5762000b45600033858462000b3f919062001acb565b620011fa565b62000b67565b62000b66600033838662000b60919062001acb565b62001139565b5b8181111562000b915762000b8b600133848462000b85919062001acb565b620011fa565b62000bad565b62000bac600133838562000ba6919062001acb565b62001139565b5b62000bb762000743565b600360003373ffffffffffffffffffffffffffffffffffffffff1673ffffffffffffffffffffffffffffffffffffffff16815260200190815260200160002081905550505050565b6000806001600360008573ffffffffffffffffffffffffffffffffffffffff1673ffffffffffffffffffffffffffffffffffffffff168152602001908152602001600020548154811062000c585762000c5762001a07565b5b90600052602060002001549050600062000c72826200040b565b9050600062000c95600a600460009054906101000a900460ff1660ff166200045d565b600260008154811062000cad5762000cac62001a07565b5b9060005260206000200160009054906101000a900473ffffffffffffffffffffffffffffffffffffffff1673ffffffffffffffffffffffffffffffffffffffff16638f4cef0c876040518263ffffffff1660e01b815260040162000d12919062001a36565b602060405180830381865afa15801562000d30573d6000803e3d6000fd5b505050506040513d601f19601f8201168201806040525081019062000d56919062001a6a565b62000d62919062001b35565b9050600062000d85600a600460009054906101000a900460ff1660ff166200045d565b600260018154811062000d9d5762000d9c62001a07565b5b9060005260206000200160009054906101000a900473ffffffffffffffffffffffffffffffffffffffff1673ffffffffffffffffffffffffffffffffffffffff16638f4cef0c886040518263ffffffff1660e01b815260040162000e02919062001a36565b602060405180830381865afa15801562000e20573d6000803e3d6000fd5b505050506040513d601f19601f8201168201806040525081019062000e46919062001a6a565b62000e52919062001b35565b90506000838262000e64919062001b6d565b858462000e72919062001b6d565b62000e7e919062001bb8565b90508095505050505050919050565b600062000eae600a600460009054906101000a900460ff1660ff166200045d565b62000eef7f000000000000000000000000000000000000000000000000000000000000000073ffffffffffffffffffffffffffffffffffffffff16620012b1565b62000efb919062001b35565b9050600062000f156003836200133590919063ffffffff16565b9050600062000f2f6002846200133590919063ffffffff16565b9050600181600262000f55600a600460009054906101000a900460ff1660ff166200045d565b8562000f62919062001b6d565b62000f6e919062001b35565b62000f7a919062001b35565b9080600181540180825580915050600190039060005260206000200160009091909190915055505050565b60006001828154811062000fbe5762000fbd62001a07565b5b90600052602060002001549050919050565b60006002848154811062000fe95762000fe862001a07565b5b9060005260206000200160009054906101000a900473ffffffffffffffffffffffffffffffffffffffff1673ffffffffffffffffffffffffffffffffffffffff1663a9059cbb84846040518363ffffffff1660e01b81526004016200105092919062001bf3565b6020604051808303816000875af115801562001070573d6000803e3d6000fd5b505050506040513d601f19601f8201168201806040525081019062001096919062001c51565b90509392505050565b60008183620010af919062001b35565b905092915050565b60008183620010c7919062001b6d565b905092915050565b60008183620010df919062001c83565b905092915050565b6002600054036200112f576040517f08c379a0000000000000000000000000000000000000000000000000000000008152600401620011269062001d0b565b60405180910390fd5b6002600081905550565b6002838154811062001150576200114f62001a07565b5b9060005260206000200160009054906101000a900473ffffffffffffffffffffffffffffffffffffffff1673ffffffffffffffffffffffffffffffffffffffff16639dc29fac83836040518363ffffffff1660e01b8152600401620011b792919062001bf3565b600060405180830381600087803b158015620011d257600080fd5b505af1158015620011e7573d6000803e3d6000fd5b50505050505050565b6001600081905550565b6002838154811062001211576200121062001a07565b5b9060005260206000200160009054906101000a900473ffffffffffffffffffffffffffffffffffffffff1673ffffffffffffffffffffffffffffffffffffffff166340c10f1983836040518363ffffffff1660e01b81526004016200127892919062001bf3565b600060405180830381600087803b1580156200129357600080fd5b505af1158015620012a8573d6000803e3d6000fd5b50505050505050565b6000808273ffffffffffffffffffffffffffffffffffffffff1663feaf968c6040518163ffffffff1660e01b815260040160a060405180830381865afa15801562001300573d6000803e3d6000fd5b505050506040513d601f19601f8201168201806040525081019062001326919062001daf565b50505091505080915050919050565b60008083146200136f5760018260018562001351919062001acb565b6200135d919062001b35565b62001369919062001bb8565b62001372565b60005b905092915050565b61269f8062001e3883390190565b6000604051905090565b600080fd5b600080fd5b6000819050919050565b620013b1816200139c565b8114620013bd57600080fd5b50565b600081359050620013d181620013a6565b92915050565b600060208284031215620013f057620013ef62001392565b5b60006200140084828501620013c0565b91505092915050565b62001414816200139c565b82525050565b600060208201905062001431600083018462001409565b92915050565b600073ffffffffffffffffffffffffffffffffffffffff82169050919050565b6000819050919050565b6000620014826200147c620014768462001437565b62001457565b62001437565b9050919050565b6000620014968262001461565b9050919050565b6000620014aa8262001489565b9050919050565b620014bc816200149d565b82525050565b6000602082019050620014d96000830184620014b1565b92915050565b60008060408385031215620014f957620014f862001392565b5b60006200150985828601620013c0565b92505060206200151c85828601620013c0565b9150509250929050565b600080fd5b600080fd5b6000601f19601f8301169050919050565b7f4e487b7100000000000000000000000000000000000000000000000000000000600052604160045260246000fd5b6200157b8262001530565b810181811067ffffffffffffffff821117156200159d576200159c62001541565b5b80604052505050565b6000620015b262001388565b9050620015c0828262001570565b919050565b600067ffffffffffffffff821115620015e357620015e262001541565b5b620015ee8262001530565b9050602081019050919050565b82818337600083830152505050565b6000620016216200161b84620015c5565b620015a6565b90508281526020810184848401111562001640576200163f6200152b565b5b6200164d848285620015fb565b509392505050565b600082601f8301126200166d576200166c62001526565b5b81356200167f8482602086016200160a565b91505092915050565b6000620016958262001437565b9050919050565b620016a78162001688565b8114620016b357600080fd5b50565b600081359050620016c7816200169c565b92915050565b600080600080600060a08688031215620016ec57620016eb62001392565b5b600086013567ffffffffffffffff8111156200170d576200170c62001397565b5b6200171b8882890162001655565b955050602086013567ffffffffffffffff8111156200173f576200173e62001397565b5b6200174d8882890162001655565b945050604086013567ffffffffffffffff81111562001771576200177062001397565b5b6200177f8882890162001655565b935050606086013567ffffffffffffffff811115620017a357620017a262001397565b5b620017b18882890162001655565b9250506080620017c488828901620016b6565b9150509295509295909350565b60008060408385031215620017eb57620017ea62001392565b5b6000620017fb85828601620013c0565b92505060206200180e85828601620016b6565b9150509250929050565b6000620018258262001489565b9050919050565b620018378162001818565b82525050565b60006020820190506200185460008301846200182c565b92915050565b60006020828403121562001873576200187262001392565b5b60006200188384828501620016b6565b91505092915050565b600080600060608486031215620018a857620018a762001392565b5b6000620018b886828701620013c0565b9350506020620018cb86828701620016b6565b9250506040620018de86828701620013c0565b9150509250925092565b60008115159050919050565b620018ff81620018e8565b82525050565b60006020820190506200191c6000830184620018f4565b92915050565b600081519050919050565b600082825260208201905092915050565b60005b838110156200195e57808201518184015260208101905062001941565b60008484015250505050565b6000620019778262001922565b6200198381856200192d565b9350620019958185602086016200193e565b620019a08162001530565b840191505092915050565b620019b68162001688565b82525050565b60006060820190508181036000830152620019d881866200196a565b90508181036020830152620019ee81856200196a565b9050620019ff6040830184620019ab565b949350505050565b7f4e487b7100000000000000000000000000000000000000000000000000000000600052603260045260246000fd5b600060208201905062001a4d6000830184620019ab565b92915050565b60008151905062001a6481620013a6565b92915050565b60006020828403121562001a835762001a8262001392565b5b600062001a938482850162001a53565b91505092915050565b7f4e487b7100000000000000000000000000000000000000000000000000000000600052601160045260246000fd5b600062001ad8826200139c565b915062001ae5836200139c565b925082820390508181111562001b005762001aff62001a9c565b5b92915050565b7f4e487b7100000000000000000000000000000000000000000000000000000000600052601260045260246000fd5b600062001b42826200139c565b915062001b4f836200139c565b92508262001b625762001b6162001b06565b5b828204905092915050565b600062001b7a826200139c565b915062001b87836200139c565b925082820262001b97816200139c565b9150828204841483151762001bb15762001bb062001a9c565b5b5092915050565b600062001bc5826200139c565b915062001bd2836200139c565b925082820190508082111562001bed5762001bec62001a9c565b5b92915050565b600060408201905062001c0a6000830185620019ab565b62001c19602083018462001409565b9392505050565b62001c2b81620018e8565b811462001c3757600080fd5b50565b60008151905062001c4b8162001c20565b92915050565b60006020828403121562001c6a5762001c6962001392565b5b600062001c7a8482850162001c3a565b91505092915050565b600062001c90826200139c565b915062001c9d836200139c565b92508262001cb05762001caf62001b06565b5b828206905092915050565b7f5265656e7472616e637947756172643a207265656e7472616e742063616c6c00600082015250565b600062001cf3601f836200192d565b915062001d008262001cbb565b602082019050919050565b6000602082019050818103600083015262001d268162001ce4565b9050919050565b600069ffffffffffffffffffff82169050919050565b62001d4e8162001d2d565b811462001d5a57600080fd5b50565b60008151905062001d6e8162001d43565b92915050565b6000819050919050565b62001d898162001d74565b811462001d9557600080fd5b50565b60008151905062001da98162001d7e565b92915050565b600080600080600060a0868803121562001dce5762001dcd62001392565b5b600062001dde8882890162001d5d565b955050602062001df18882890162001d98565b945050604062001e048882890162001a53565b935050606062001e178882890162001a53565b925050608062001e2a8882890162001d5d565b915050929550929590935056fe60806040523480156200001157600080fd5b506040516200269f3803806200269f83398181016040528101906200003791906200038f565b828281600390816200004a919062000674565b5080600490816200005c919062000674565b5050506200007f62000073620000c960201b60201c565b620000d160201b60201c565b80600660006101000a81548173ffffffffffffffffffffffffffffffffffffffff021916908373ffffffffffffffffffffffffffffffffffffffff1602179055505050506200075b565b600033905090565b6000600560009054906101000a900473ffffffffffffffffffffffffffffffffffffffff16905081600560006101000a81548173ffffffffffffffffffffffffffffffffffffffff021916908373ffffffffffffffffffffffffffffffffffffffff1602179055508173ffffffffffffffffffffffffffffffffffffffff168173ffffffffffffffffffffffffffffffffffffffff167f8be0079c531659141344cd1fd0a4f28419497f9722a3daafe3b4186f6b6457e060405160405180910390a35050565b6000604051905090565b600080fd5b600080fd5b600080fd5b600080fd5b6000601f19601f8301169050919050565b7f4e487b7100000000000000000000000000000000000000000000000000000000600052604160045260246000fd5b6200020082620001b5565b810181811067ffffffffffffffff82111715620002225762000221620001c6565b5b80604052505050565b60006200023762000197565b9050620002458282620001f5565b919050565b600067ffffffffffffffff821115620002685762000267620001c6565b5b6200027382620001b5565b9050602081019050919050565b60005b83811015620002a057808201518184015260208101905062000283565b60008484015250505050565b6000620002c3620002bd846200024a565b6200022b565b905082815260208101848484011115620002e257620002e1620001b0565b5b620002ef84828562000280565b509392505050565b600082601f8301126200030f576200030e620001ab565b5b815162000321848260208601620002ac565b91505092915050565b600073ffffffffffffffffffffffffffffffffffffffff82169050919050565b600062000357826200032a565b9050919050565b62000369816200034a565b81146200037557600080fd5b50565b60008151905062000389816200035e565b92915050565b600080600060608486031215620003ab57620003aa620001a1565b5b600084015167ffffffffffffffff811115620003cc57620003cb620001a6565b5b620003da86828701620002f7565b935050602084015167ffffffffffffffff811115620003fe57620003fd620001a6565b5b6200040c86828701620002f7565b92505060406200041f8682870162000378565b9150509250925092565b600081519050919050565b7f4e487b7100000000000000000000000000000000000000000000000000000000600052602260045260246000fd5b600060028204905060018216806200047c57607f821691505b60208210810362000492576200049162000434565b5b50919050565b60008190508160005260206000209050919050565b60006020601f8301049050919050565b600082821b905092915050565b600060088302620004fc7fffffffffffffffffffffffffffffffffffffffffffffffffffffffffffffffff82620004bd565b620005088683620004bd565b95508019841693508086168417925050509392505050565b6000819050919050565b6000819050919050565b6000620005556200054f620005498462000520565b6200052a565b62000520565b9050919050565b6000819050919050565b620005718362000534565b6200058962000580826200055c565b848454620004ca565b825550505050565b600090565b620005a062000591565b620005ad81848462000566565b505050565b5b81811015620005d557620005c960008262000596565b600181019050620005b3565b5050565b601f8211156200062457620005ee8162000498565b620005f984620004ad565b8101602085101562000609578190505b620006216200061885620004ad565b830182620005b2565b50505b505050565b600082821c905092915050565b6000620006496000198460080262000629565b1980831691505092915050565b600062000664838362000636565b9150826002028217905092915050565b6200067f8262000429565b67ffffffffffffffff8111156200069b576200069a620001c6565b5b620006a7825462000463565b620006b4828285620005d9565b600060209050601f831160018114620006ec5760008415620006d7578287015190505b620006e3858262000656565b86555062000753565b601f198416620006fc8662000498565b60005b828110156200072657848901518255600182019150602085019450602081019050620006ff565b8683101562000746578489015162000742601f89168262000636565b8355505b6001600288020188555050505b505050505050565b611f34806200076b6000396000f3fe608060405234801561001057600080fd5b506004361061010b5760003560e01c8063715018a6116100a25780639dc29fac116100715780639dc29fac146102bc578063a457c2d7146102d8578063a9059cbb14610308578063dd62ed3e14610338578063f2fde38b146103685761010b565b8063715018a6146102465780638da5cb5b146102505780638f4cef0c1461026e57806395d89b411461029e5761010b565b8063313ce567116100de578063313ce567146101ac57806339509351146101ca57806340c10f19146101fa57806370a08231146102165761010b565b806306fdde0314610110578063095ea7b31461012e57806318160ddd1461015e57806323b872dd1461017c575b600080fd5b610118610384565b6040516101259190611517565b60405180910390f35b610148600480360381019061014391906115d2565b610416565b604051610155919061162d565b60405180910390f35b610166610439565b6040516101739190611657565b60405180910390f35b61019660048036038101906101919190611672565b610443565b6040516101a3919061162d565b60405180910390f35b6101b4610472565b6040516101c191906116e1565b60405180910390f35b6101e460048036038101906101df91906115d2565b61047b565b6040516101f1919061162d565b60405180910390f35b610214600480360381019061020f91906115d2565b6104b2565b005b610230600480360381019061022b91906116fc565b6104c8565b60405161023d9190611657565b60405180910390f35b61024e6106b0565b005b6102586106c4565b6040516102659190611738565b60405180910390f35b610288600480360381019061028391906116fc565b6106ee565b6040516102959190611657565b60405180910390f35b6102a6610700565b6040516102b39190611517565b60405180910390f35b6102d660048036038101906102d191906115d2565b610792565b005b6102f260048036038101906102ed91906115d2565b6107a8565b6040516102ff919061162d565b60405180910390f35b610322600480360381019061031d91906115d2565b61081f565b60405161032f919061162d565b60405180910390f35b610352600480360381019061034d9190611753565b6109f1565b60405161035f9190611657565b60405180910390f35b610382600480360381019061037d91906116fc565b610a78565b005b606060038054610393906117c2565b80601f01602080910402602001604051908101604052809291908181526020018280546103bf906117c2565b801561040c5780601f106103e15761010080835404028352916020019161040c565b820191906000526020600020905b8154815290600101906020018083116103ef57829003601f168201915b5050505050905090565b600080610421610afb565b905061042e818585610b03565b600191505092915050565b6000600254905090565b60008061044e610afb565b905061045b858285610ccc565b610466858585610d58565b60019150509392505050565b60006012905090565b600080610486610afb565b90506104a781858561049885896109f1565b6104a29190611822565b610b03565b600191505092915050565b6104ba610fce565b6104c4828261104c565b5050565b6000600660009054906101000a900473ffffffffffffffffffffffffffffffffffffffff1673ffffffffffffffffffffffffffffffffffffffff166378c1a6c46040518163ffffffff1660e01b8152600401602060405180830381865afa158015610537573d6000803e3d6000fd5b505050506040513d601f19601f8201168201806040525081019061055b919061186b565b600660009054906101000a900473ffffffffffffffffffffffffffffffffffffffff1673ffffffffffffffffffffffffffffffffffffffff16637b69ce2f336040518263ffffffff1660e01b81526004016105b69190611738565b602060405180830381865afa1580156105d3573d6000803e3d6000fd5b505050506040513d601f19601f820116820180604052508101906105f7919061186b565b1461069f57600660009054906101000a900473ffffffffffffffffffffffffffffffffffffffff1673ffffffffffffffffffffffffffffffffffffffff1663a4d96e17836040518263ffffffff1660e01b81526004016106579190611738565b602060405180830381865afa158015610674573d6000803e3d6000fd5b505050506040513d601f19601f82011682018060405250810190610698919061186b565b90506106ab565b6106a8826106ee565b90505b919050565b6106b8610fce565b6106c260006111a2565b565b6000600560009054906101000a900473ffffffffffffffffffffffffffffffffffffffff16905090565b60006106f982611268565b9050919050565b60606004805461070f906117c2565b80601f016020809104026020016040519081016040528092919081815260200182805461073b906117c2565b80156107885780601f1061075d57610100808354040283529160200191610788565b820191906000526020600020905b81548152906001019060200180831161076b57829003601f168201915b5050505050905090565b61079a610fce565b6107a482826112b0565b5050565b6000806107b3610afb565b905060006107c182866109f1565b905083811015610806576040517f08c379a00000000000000000000000000000000000000000000000000000000081526004016107fd9061190a565b60405180910390fd5b6108138286868403610b03565b60019250505092915050565b6000600660009054906101000a900473ffffffffffffffffffffffffffffffffffffffff1673ffffffffffffffffffffffffffffffffffffffff166378c1a6c46040518163ffffffff1660e01b8152600401602060405180830381865afa15801561088e573d6000803e3d6000fd5b505050506040513d601f19601f820116820180604052508101906108b2919061186b565b600660009054906101000a900473ffffffffffffffffffffffffffffffffffffffff1673ffffffffffffffffffffffffffffffffffffffff16637b69ce2f336040518263ffffffff1660e01b815260040161090d9190611738565b602060405180830381865afa15801561092a573d6000803e3d6000fd5b505050506040513d601f19601f8201168201806040525081019061094e919061186b565b146109d657600660009054906101000a900473ffffffffffffffffffffffffffffffffffffffff1673ffffffffffffffffffffffffffffffffffffffff1663a4b82a3a6040518163ffffffff1660e01b8152600401600060405180830381600087803b1580156109bd57600080fd5b505af11580156109d1573d6000803e3d6000fd5b505050505b60003290506109e6818585610d58565b600191505092915050565b6000600160008473ffffffffffffffffffffffffffffffffffffffff1673ffffffffffffffffffffffffffffffffffffffff16815260200190815260200160002060008373ffffffffffffffffffffffffffffffffffffffff1673ffffffffffffffffffffffffffffffffffffffff16815260200190815260200160002054905092915050565b610a80610fce565b600073ffffffffffffffffffffffffffffffffffffffff168173ffffffffffffffffffffffffffffffffffffffff1603610aef576040517f08c379a0000000000000000000000000000000000000000000000000000000008152600401610ae69061199c565b60405180910390fd5b610af8816111a2565b50565b600033905090565b600073ffffffffffffffffffffffffffffffffffffffff168373ffffffffffffffffffffffffffffffffffffffff1603610b72576040517f08c379a0000000000000000000000000000000000000000000000000000000008152600401610b6990611a2e565b60405180910390fd5b600073ffffffffffffffffffffffffffffffffffffffff168273ffffffffffffffffffffffffffffffffffffffff1603610be1576040517f08c379a0000000000000000000000000000000000000000000000000000000008152600401610bd890611ac0565b60405180910390fd5b80600160008573ffffffffffffffffffffffffffffffffffffffff1673ffffffffffffffffffffffffffffffffffffffff16815260200190815260200160002060008473ffffffffffffffffffffffffffffffffffffffff1673ffffffffffffffffffffffffffffffffffffffff168152602001908152602001600020819055508173ffffffffffffffffffffffffffffffffffffffff168373ffffffffffffffffffffffffffffffffffffffff167f8c5be1e5ebec7d5bd14f71427d1e84f3dd0314c0f7b2291e5b200ac8c7c3b92583604051610cbf9190611657565b60405180910390a3505050565b6000610cd884846109f1565b90507fffffffffffffffffffffffffffffffffffffffffffffffffffffffffffffffff8114610d525781811015610d44576040517f08c379a0000000000000000000000000000000000000000000000000000000008152600401610d3b90611b2c565b60405180910390fd5b610d518484848403610b03565b5b50505050565b600073ffffffffffffffffffffffffffffffffffffffff168373ffffffffffffffffffffffffffffffffffffffff1603610dc7576040517f08c379a0000000000000000000000000000000000000000000000000000000008152600401610dbe90611bbe565b60405180910390fd5b600073ffffffffffffffffffffffffffffffffffffffff168273ffffffffffffffffffffffffffffffffffffffff1603610e36576040517f08c379a0000000000000000000000000000000000000000000000000000000008152600401610e2d90611c50565b60405180910390fd5b610e4183838361147d565b60008060008573ffffffffffffffffffffffffffffffffffffffff1673ffffffffffffffffffffffffffffffffffffffff16815260200190815260200160002054905081811015610ec7576040517f08c379a0000000000000000000000000000000000000000000000000000000008152600401610ebe90611ce2565b60405180910390fd5b8181036000808673ffffffffffffffffffffffffffffffffffffffff1673ffffffffffffffffffffffffffffffffffffffff16815260200190815260200160002081905550816000808573ffffffffffffffffffffffffffffffffffffffff1673ffffffffffffffffffffffffffffffffffffffff168152602001908152602001600020600082825401925050819055508273ffffffffffffffffffffffffffffffffffffffff168473ffffffffffffffffffffffffffffffffffffffff167fddf252ad1be2c89b69c2b068fc378daa952ba7f163c4a11628f55a4df523b3ef84604051610fb59190611657565b60405180910390a3610fc8848484611482565b50505050565b610fd6610afb565b73ffffffffffffffffffffffffffffffffffffffff16610ff46106c4565b73ffffffffffffffffffffffffffffffffffffffff161461104a576040517f08c379a000000000000000000000000000000000000000000000000000000000815260040161104190611d4e565b60405180910390fd5b565b600073ffffffffffffffffffffffffffffffffffffffff168273ffffffffffffffffffffffffffffffffffffffff16036110bb576040517f08c379a00000000000000000000000000000000000000000000000000000000081526004016110b290611dba565b60405180910390fd5b6110c76000838361147d565b80600260008282546110d99190611822565b92505081905550806000808473ffffffffffffffffffffffffffffffffffffffff1673ffffffffffffffffffffffffffffffffffffffff168152602001908152602001600020600082825401925050819055508173ffffffffffffffffffffffffffffffffffffffff16600073ffffffffffffffffffffffffffffffffffffffff167fddf252ad1be2c89b69c2b068fc378daa952ba7f163c4a11628f55a4df523b3ef8360405161118a9190611657565b60405180910390a361119e60008383611482565b5050565b6000600560009054906101000a900473ffffffffffffffffffffffffffffffffffffffff16905081600560006101000a81548173ffffffffffffffffffffffffffffffffffffffff021916908373ffffffffffffffffffffffffffffffffffffffff1602179055508173ffffffffffffffffffffffffffffffffffffffff168173ffffffffffffffffffffffffffffffffffffffff167f8be0079c531659141344cd1fd0a4f28419497f9722a3daafe3b4186f6b6457e060405160405180910390a35050565b60008060008373ffffffffffffffffffffffffffffffffffffffff1673ffffffffffffffffffffffffffffffffffffffff168152602001908152602001600020549050919050565b600073ffffffffffffffffffffffffffffffffffffffff168273ffffffffffffffffffffffffffffffffffffffff160361131f576040517f08c379a000000000000000000000000000000000000000000000000000000000815260040161131690611e4c565b60405180910390fd5b61132b8260008361147d565b60008060008473ffffffffffffffffffffffffffffffffffffffff1673ffffffffffffffffffffffffffffffffffffffff168152602001908152602001600020549050818110156113b1576040517f08c379a00000000000000000000000000000000000000000000000000000000081526004016113a890611ede565b60405180910390fd5b8181036000808573ffffffffffffffffffffffffffffffffffffffff1673ffffffffffffffffffffffffffffffffffffffff1681526020019081526020016000208190555081600260008282540392505081905550600073ffffffffffffffffffffffffffffffffffffffff168373ffffffffffffffffffffffffffffffffffffffff167fddf252ad1be2c89b69c2b068fc378daa952ba7f163c4a11628f55a4df523b3ef846040516114649190611657565b60405180910390a361147883600084611482565b505050565b505050565b505050565b600081519050919050565b600082825260208201905092915050565b60005b838110156114c15780820151818401526020810190506114a6565b60008484015250505050565b6000601f19601f8301169050919050565b60006114e982611487565b6114f38185611492565b93506115038185602086016114a3565b61150c816114cd565b840191505092915050565b6000602082019050818103600083015261153181846114de565b905092915050565b600080fd5b600073ffffffffffffffffffffffffffffffffffffffff82169050919050565b60006115698261153e565b9050919050565b6115798161155e565b811461158457600080fd5b50565b60008135905061159681611570565b92915050565b6000819050919050565b6115af8161159c565b81146115ba57600080fd5b50565b6000813590506115cc816115a6565b92915050565b600080604083850312156115e9576115e8611539565b5b60006115f785828601611587565b9250506020611608858286016115bd565b9150509250929050565b60008115159050919050565b61162781611612565b82525050565b6000602082019050611642600083018461161e565b92915050565b6116518161159c565b82525050565b600060208201905061166c6000830184611648565b92915050565b60008060006060848603121561168b5761168a611539565b5b600061169986828701611587565b93505060206116aa86828701611587565b92505060406116bb868287016115bd565b9150509250925092565b600060ff82169050919050565b6116db816116c5565b82525050565b60006020820190506116f660008301846116d2565b92915050565b60006020828403121561171257611711611539565b5b600061172084828501611587565b91505092915050565b6117328161155e565b82525050565b600060208201905061174d6000830184611729565b92915050565b6000806040838503121561176a57611769611539565b5b600061177885828601611587565b925050602061178985828601611587565b9150509250929050565b7f4e487b7100000000000000000000000000000000000000000000000000000000600052602260045260246000fd5b600060028204905060018216806117da57607f821691505b6020821081036117ed576117ec611793565b5b50919050565b7f4e487b7100000000000000000000000000000000000000000000000000000000600052601160045260246000fd5b600061182d8261159c565b91506118388361159c565b92508282019050808211156118505761184f6117f3565b5b92915050565b600081519050611865816115a6565b92915050565b60006020828403121561188157611880611539565b5b600061188f84828501611856565b91505092915050565b7f45524332303a2064656372656173656420616c6c6f77616e63652062656c6f7760008201527f207a65726f000000000000000000000000000000000000000000000000000000602082015250565b60006118f4602583611492565b91506118ff82611898565b604082019050919050565b60006020820190508181036000830152611923816118e7565b9050919050565b7f4f776e61626c653a206e6577206f776e657220697320746865207a65726f206160008201527f6464726573730000000000000000000000000000000000000000000000000000602082015250565b6000611986602683611492565b91506119918261192a565b604082019050919050565b600060208201905081810360008301526119b581611979565b9050919050565b7f45524332303a20617070726f76652066726f6d20746865207a65726f2061646460008201527f7265737300000000000000000000000000000000000000000000000000000000602082015250565b6000611a18602483611492565b9150611a23826119bc565b604082019050919050565b60006020820190508181036000830152611a4781611a0b565b9050919050565b7f45524332303a20617070726f766520746f20746865207a65726f20616464726560008201527f7373000000000000000000000000000000000000000000000000000000000000602082015250565b6000611aaa602283611492565b9150611ab582611a4e565b604082019050919050565b60006020820190508181036000830152611ad981611a9d565b9050919050565b7f45524332303a20696e73756666696369656e7420616c6c6f77616e6365000000600082015250565b6000611b16601d83611492565b9150611b2182611ae0565b602082019050919050565b60006020820190508181036000830152611b4581611b09565b9050919050565b7f45524332303a207472616e736665722066726f6d20746865207a65726f20616460008201527f6472657373000000000000000000000000000000000000000000000000000000602082015250565b6000611ba8602583611492565b9150611bb382611b4c565b604082019050919050565b60006020820190508181036000830152611bd781611b9b565b9050919050565b7f45524332303a207472616e7366657220746f20746865207a65726f206164647260008201527f6573730000000000000000000000000000000000000000000000000000000000602082015250565b6000611c3a602383611492565b9150611c4582611bde565b604082019050919050565b60006020820190508181036000830152611c6981611c2d565b9050919050565b7f45524332303a207472616e7366657220616d6f756e742065786365656473206260008201527f616c616e63650000000000000000000000000000000000000000000000000000602082015250565b6000611ccc602683611492565b9150611cd782611c70565b604082019050919050565b60006020820190508181036000830152611cfb81611cbf565b9050919050565b7f4f776e61626c653a2063616c6c6572206973206e6f7420746865206f776e6572600082015250565b6000611d38602083611492565b9150611d4382611d02565b602082019050919050565b60006020820190508181036000830152611d6781611d2b565b9050919050565b7f45524332303a206d696e7420746f20746865207a65726f206164647265737300600082015250565b6000611da4601f83611492565b9150611daf82611d6e565b602082019050919050565b60006020820190508181036000830152611dd381611d97565b9050919050565b7f45524332303a206275726e2066726f6d20746865207a65726f2061646472657360008201527f7300000000000000000000000000000000000000000000000000000000000000602082015250565b6000611e36602183611492565b9150611e4182611dda565b604082019050919050565b60006020820190508181036000830152611e6581611e29565b9050919050565b7f45524332303a206275726e20616d6f756e7420657863656564732062616c616e60008201527f6365000000000000000000000000000000000000000000000000000000000000602082015250565b6000611ec8602283611492565b9150611ed382611e6c565b604082019050919050565b60006020820190508181036000830152611ef781611ebb565b905091905056fea2646970667358221220586b300b0e403b30e2e40c1e13ddbe9acfd942811080b5cc1db7154e58315cef64736f6c63430008110033a26469706673582212204e598682fd78ca4b3d9c6000eb0d4afee37dbebe9760dfd2b18483f8c6dcbb2b64736f6c63430008110033",
  "devdoc": {
    "author": "Okwuosa Chijioke",
    "details": "This implements 2 ERC-20 tokens that will be minted in exactly the same proportion as the underlying ERC-20 token transferred into the Factory contract. The asset will be burned in exactly the same proportion when asked to redeem/withdrawal the underlying asset. The contract will implement periodic rebalancing",
    "kind": "dev",
    "methods": {},
    "title": "ERC-20 Rebase Tokens",
    "version": 1
  },
  "userdoc": {
    "kind": "user",
    "methods": {},
    "notice": "Still under development",
    "version": 1
  },
  "storageLayout": {
    "storage": [
      {
        "astId": 169,
        "contract": "contracts/TokenFactory.sol:TokenFactory",
        "label": "_status",
        "offset": 0,
        "slot": "0",
        "type": "t_uint256"
      },
      {
        "astId": 2275,
        "contract": "contracts/TokenFactory.sol:TokenFactory",
        "label": "s_scallingFactorX",
        "offset": 0,
        "slot": "1",
        "type": "t_array(t_uint256)dyn_storage"
      },
      {
        "astId": 2279,
        "contract": "contracts/TokenFactory.sol:TokenFactory",
        "label": "s_devTokenArray",
        "offset": 0,
        "slot": "2",
        "type": "t_array(t_contract(DevToken)2248)dyn_storage"
      },
      {
        "astId": 2286,
        "contract": "contracts/TokenFactory.sol:TokenFactory",
        "label": "s_lastRebaseCount",
        "offset": 0,
        "slot": "3",
        "type": "t_mapping(t_address,t_uint256)"
      },
      {
        "astId": 2288,
        "contract": "contracts/TokenFactory.sol:TokenFactory",
        "label": "i_baseTokenDecimals",
        "offset": 0,
        "slot": "4",
        "type": "t_uint8"
      }
    ],
    "types": {
      "t_address": {
        "encoding": "inplace",
        "label": "address",
        "numberOfBytes": "20"
      },
      "t_array(t_contract(DevToken)2248)dyn_storage": {
        "base": "t_contract(DevToken)2248",
        "encoding": "dynamic_array",
        "label": "contract DevToken[]",
        "numberOfBytes": "32"
      },
      "t_array(t_uint256)dyn_storage": {
        "base": "t_uint256",
        "encoding": "dynamic_array",
        "label": "uint256[]",
        "numberOfBytes": "32"
      },
      "t_contract(DevToken)2248": {
        "encoding": "inplace",
        "label": "contract DevToken",
        "numberOfBytes": "20"
      },
      "t_mapping(t_address,t_uint256)": {
        "encoding": "mapping",
        "key": "t_address",
        "label": "mapping(address => uint256)",
        "numberOfBytes": "32",
        "value": "t_uint256"
      },
      "t_uint256": {
        "encoding": "inplace",
        "label": "uint256",
        "numberOfBytes": "32"
      },
      "t_uint8": {
        "encoding": "inplace",
        "label": "uint8",
        "numberOfBytes": "1"
      }
    }
  }
}