{
  "address": "0xDc64a140Aa3E981100a9becA4E685f962f0cF6C9",
  "abi": [
    {
      "inputs": [
        {
          "internalType": "address",
          "name": "baseTokenAddress",
          "type": "address"
        },
        {
          "internalType": "address",
          "name": "priceFeedAddress",
          "type": "address"
        },
        {
          "internalType": "string",
          "name": "token1Name",
          "type": "string"
        },
        {
          "internalType": "string",
          "name": "token1Symbol",
          "type": "string"
        },
        {
          "internalType": "string",
          "name": "token2Name",
          "type": "string"
        },
        {
          "internalType": "string",
          "name": "token2Symbol",
          "type": "string"
        }
      ],
      "stateMutability": "nonpayable",
      "type": "constructor"
    },
    {
      "inputs": [],
      "name": "TokenFactory__InsufficientFund",
      "type": "error"
    },
    {
      "anonymous": false,
      "inputs": [
        {
          "indexed": true,
          "internalType": "address",
          "name": "recipient",
          "type": "address"
        },
        {
          "indexed": false,
          "internalType": "uint256",
          "name": "amount",
          "type": "uint256"
        }
      ],
      "name": "AssetBought",
      "type": "event"
    },
    {
      "anonymous": false,
      "inputs": [
        {
          "indexed": true,
          "internalType": "address",
          "name": "owner",
          "type": "address"
        },
        {
          "indexed": false,
          "internalType": "uint256",
          "name": "amount",
          "type": "uint256"
        }
      ],
      "name": "AssetWithdrawn",
      "type": "event"
    },
    {
      "inputs": [],
      "name": "buyAsset",
      "outputs": [],
      "stateMutability": "payable",
      "type": "function"
    },
    {
      "inputs": [
        {
          "internalType": "uint256",
          "name": "_devTokenIndex",
          "type": "uint256"
        },
        {
          "internalType": "address",
          "name": "_owner",
          "type": "address"
        }
      ],
      "name": "getBalance",
      "outputs": [
        {
          "internalType": "uint256",
          "name": "",
          "type": "uint256"
        }
      ],
      "stateMutability": "view",
      "type": "function"
    },
    {
      "inputs": [],
      "name": "getBaseTokenAddress",
      "outputs": [
        {
          "internalType": "address",
          "name": "",
          "type": "address"
        }
      ],
      "stateMutability": "view",
      "type": "function"
    },
    {
      "inputs": [
        {
          "internalType": "uint256",
          "name": "index",
          "type": "uint256"
        }
      ],
      "name": "getFunderAddressByIndex",
      "outputs": [
        {
          "internalType": "address",
          "name": "",
          "type": "address"
        }
      ],
      "stateMutability": "view",
      "type": "function"
    },
    {
      "inputs": [
        {
          "internalType": "uint256",
          "name": "_devTokenIndex",
          "type": "uint256"
        },
        {
          "internalType": "address",
          "name": "owner",
          "type": "address"
        },
        {
          "internalType": "address",
          "name": "spender",
          "type": "address"
        },
        {
          "internalType": "uint256",
          "name": "value",
          "type": "uint256"
        },
        {
          "internalType": "uint256",
          "name": "deadline",
          "type": "uint256"
        },
        {
          "internalType": "uint8",
          "name": "v",
          "type": "uint8"
        },
        {
          "internalType": "bytes32",
          "name": "r",
          "type": "bytes32"
        },
        {
          "internalType": "bytes32",
          "name": "s",
          "type": "bytes32"
        }
      ],
      "name": "permit",
      "outputs": [],
      "stateMutability": "nonpayable",
      "type": "function"
    },
    {
      "inputs": [],
      "name": "rebase",
      "outputs": [],
      "stateMutability": "nonpayable",
      "type": "function"
    },
    {
      "inputs": [
        {
          "internalType": "uint256",
          "name": "_amount",
          "type": "uint256"
        }
      ],
      "name": "withdrawAsset",
      "outputs": [],
      "stateMutability": "nonpayable",
      "type": "function"
    }
  ],
  "transactionHash": "0xdaf9ec779d5e2300db20b55f3ffb0f3aa098c3bae959ec0c134bb648346cd2c9",
  "args": [
    "0x7ceB23fD6bC0adD59E62ac25578270cFf1b9f619",
    "0x9fE46736679d2D9a65F0992F2272dE9f3c7fa6e0",
    "RistP One",
    "R1",
    "RistP Two",
    "R2"
  ],
  "numDeployments": 2,
  "solcInputHash": "6be03d8c070ed16b3e55719726dd76c8",
  "bytecode": "0x60c06040523480156200001157600080fd5b5060405162004774380380620047748339818101604052810190620000379190620003ff565b60016000819055508573ffffffffffffffffffffffffffffffffffffffff1660808173ffffffffffffffffffffffffffffffffffffffff16815250508473ffffffffffffffffffffffffffffffffffffffff1660a08173ffffffffffffffffffffffffffffffffffffffff168152505060008484604051620000b990620001f9565b620000c692919062000574565b604051809103906000f080158015620000e3573d6000803e3d6000fd5b5090506001819080600181540180825580915050600190039060005260206000200160009091909190916101000a81548173ffffffffffffffffffffffffffffffffffffffff021916908373ffffffffffffffffffffffffffffffffffffffff160217905550600083836040516200015b90620001f9565b6200016892919062000574565b604051809103906000f08015801562000185573d6000803e3d6000fd5b5090506001819080600181540180825580915050600190039060005260206000200160009091909190916101000a81548173ffffffffffffffffffffffffffffffffffffffff021916908373ffffffffffffffffffffffffffffffffffffffff1602179055505050505050505050620005af565b613061806200171383390190565b6000604051905090565b600080fd5b600080fd5b600073ffffffffffffffffffffffffffffffffffffffff82169050919050565b600062000248826200021b565b9050919050565b6200025a816200023b565b81146200026657600080fd5b50565b6000815190506200027a816200024f565b92915050565b600080fd5b600080fd5b6000601f19601f8301169050919050565b7f4e487b7100000000000000000000000000000000000000000000000000000000600052604160045260246000fd5b620002d5826200028a565b810181811067ffffffffffffffff82111715620002f757620002f66200029b565b5b80604052505050565b60006200030c62000207565b90506200031a8282620002ca565b919050565b600067ffffffffffffffff8211156200033d576200033c6200029b565b5b62000348826200028a565b9050602081019050919050565b60005b838110156200037557808201518184015260208101905062000358565b60008484015250505050565b60006200039862000392846200031f565b62000300565b905082815260208101848484011115620003b757620003b662000285565b5b620003c484828562000355565b509392505050565b600082601f830112620003e457620003e362000280565b5b8151620003f684826020860162000381565b91505092915050565b60008060008060008060c087890312156200041f576200041e62000211565b5b60006200042f89828a0162000269565b96505060206200044289828a0162000269565b955050604087015167ffffffffffffffff81111562000466576200046562000216565b5b6200047489828a01620003cc565b945050606087015167ffffffffffffffff81111562000498576200049762000216565b5b620004a689828a01620003cc565b935050608087015167ffffffffffffffff811115620004ca57620004c962000216565b5b620004d889828a01620003cc565b92505060a087015167ffffffffffffffff811115620004fc57620004fb62000216565b5b6200050a89828a01620003cc565b9150509295509295509295565b600081519050919050565b600082825260208201905092915050565b6000620005408262000517565b6200054c818562000522565b93506200055e81856020860162000355565b62000569816200028a565b840191505092915050565b6000604082019050818103600083015262000590818562000533565b90508181036020830152620005a6818462000533565b90509392505050565b60805160a05161113e620005d5600039600061053601526000610191015261113e6000f3fe6080604052600436106100705760003560e01c80638d92fdf31161004e5780638d92fdf3146101065780639fbaf1311461012f578063af14052c14610139578063b0a794591461015057610070565b80634df947d01461007557806359ded0fe146100a05780635dc9c1b2146100c9575b600080fd5b34801561008157600080fd5b5061008a61018d565b6040516100979190610ab2565b60405180910390f35b3480156100ac57600080fd5b506100c760048036038101906100c29190610ba3565b6101b5565b005b3480156100d557600080fd5b506100f060048036038101906100eb9190610c59565b610274565b6040516100fd9190610ab2565b60405180910390f35b34801561011257600080fd5b5061012d60048036038101906101289190610c59565b6102bc565b005b6101376103c0565b005b34801561014557600080fd5b5061014e61049b565b005b34801561015c57600080fd5b5061017760048036038101906101729190610c86565b610738565b6040516101849190610cd5565b60405180910390f35b60007f0000000000000000000000000000000000000000000000000000000000000000905090565b600188815481106101c9576101c8610cf0565b5b9060005260206000200160009054906101000a900473ffffffffffffffffffffffffffffffffffffffff1673ffffffffffffffffffffffffffffffffffffffff1663d505accf888888888888886040518863ffffffff1660e01b81526004016102389796959493929190610d3d565b600060405180830381600087803b15801561025257600080fd5b505af1158015610266573d6000803e3d6000fd5b505050505050505050505050565b60006002828154811061028a57610289610cf0565b5b9060005260206000200160009054906101000a900473ffffffffffffffffffffffffffffffffffffffff169050919050565b6102c46107fa565b6102cf600033610738565b811115610308576040517fd9f6ddd900000000000000000000000000000000000000000000000000000000815260040160405180910390fd5b61031460003383610849565b61032060013383610849565b3373ffffffffffffffffffffffffffffffffffffffff166108fc829081150290604051600060405180830381858888f19350505050158015610366573d6000803e3d6000fd5b503373ffffffffffffffffffffffffffffffffffffffff167f94b055d454fefc95ba06924afbaac83912b1575d621a7d32a4675303246bb7d0826040516103ad9190610cd5565b60405180910390a26103bd6108f9565b50565b6103c86107fa565b6103d460003334610903565b6103e060013334610903565b6002339080600181540180825580915050600190039060005260206000200160009091909190916101000a81548173ffffffffffffffffffffffffffffffffffffffff021916908373ffffffffffffffffffffffffffffffffffffffff1602179055503373ffffffffffffffffffffffffffffffffffffffff167f1043b9f778084a8d3cd9af8b3e347f91d1f9f75697034f065aac775937fe79d4346040516104899190610cd5565b60405180910390a26104996108f9565b565b6000600280548060200260200160405190810160405280929190818152602001828054801561051f57602002820191906000526020600020905b8160009054906101000a900473ffffffffffffffffffffffffffffffffffffffff1673ffffffffffffffffffffffffffffffffffffffff16815260200190600101908083116104d5575b505050505090506000670de0b6b3a76400006105707f000000000000000000000000000000000000000000000000000000000000000073ffffffffffffffffffffffffffffffffffffffff166109b3565b61057a9190610e0a565b90506000610592600383610a3490919063ffffffff16565b9050600081836105a29190610e3b565b9050600080600080600080600090505b895181101561072c5760008a82815181106105d0576105cf610cf0565b5b60200260200101519050670de0b6b3a76400006105ee600083610738565b6105f89190610e0a565b9650670de0b6b3a764000061060e600183610738565b6106189190610e0a565b955087866106269190610e6f565b89886106329190610e6f565b61063c9190610eb1565b945060028561064b9190610e0a565b935060028a61065a9190610e0a565b925061067260008261066d600085610738565b610849565b610688600182610683600185610738565b610849565b6106d0600082670de0b6b3a76400008087670de0b6b3a76400008a6106ad9190610e6f565b6106b79190610e0a565b6106c19190610e6f565b6106cb9190610e0a565b610903565b610718600182670de0b6b3a76400008087670de0b6b3a76400008a6106f59190610e6f565b6106ff9190610e0a565b6107099190610e6f565b6107139190610e0a565b610903565b50808061072490610ee5565b9150506105b2565b50505050505050505050565b60006001838154811061074e5761074d610cf0565b5b9060005260206000200160009054906101000a900473ffffffffffffffffffffffffffffffffffffffff1673ffffffffffffffffffffffffffffffffffffffff1663eedc966a836040518263ffffffff1660e01b81526004016107b19190610ab2565b602060405180830381865afa1580156107ce573d6000803e3d6000fd5b505050506040513d601f19601f820116820180604052508101906107f29190610f42565b905092915050565b60026000540361083f576040517f08c379a000000000000000000000000000000000000000000000000000000000815260040161083690610fcc565b60405180910390fd5b6002600081905550565b6001838154811061085d5761085c610cf0565b5b9060005260206000200160009054906101000a900473ffffffffffffffffffffffffffffffffffffffff1673ffffffffffffffffffffffffffffffffffffffff1663d1df306c83836040518363ffffffff1660e01b81526004016108c2929190610fec565b600060405180830381600087803b1580156108dc57600080fd5b505af11580156108f0573d6000803e3d6000fd5b50505050505050565b6001600081905550565b6001838154811061091757610916610cf0565b5b9060005260206000200160009054906101000a900473ffffffffffffffffffffffffffffffffffffffff1673ffffffffffffffffffffffffffffffffffffffff1663e74a84ea83836040518363ffffffff1660e01b815260040161097c929190610fec565b600060405180830381600087803b15801561099657600080fd5b505af11580156109aa573d6000803e3d6000fd5b50505050505050565b6000808273ffffffffffffffffffffffffffffffffffffffff1663feaf968c6040518163ffffffff1660e01b815260040160a060405180830381865afa158015610a01573d6000803e3d6000fd5b505050506040513d601f19601f82011682018060405250810190610a25919061108d565b50505091505080915050919050565b6000808314610a6657600182600185610a4d9190610e3b565b610a579190610e0a565b610a619190610eb1565b610a69565b60005b905092915050565b600073ffffffffffffffffffffffffffffffffffffffff82169050919050565b6000610a9c82610a71565b9050919050565b610aac81610a91565b82525050565b6000602082019050610ac76000830184610aa3565b92915050565b600080fd5b6000819050919050565b610ae581610ad2565b8114610af057600080fd5b50565b600081359050610b0281610adc565b92915050565b610b1181610a91565b8114610b1c57600080fd5b50565b600081359050610b2e81610b08565b92915050565b600060ff82169050919050565b610b4a81610b34565b8114610b5557600080fd5b50565b600081359050610b6781610b41565b92915050565b6000819050919050565b610b8081610b6d565b8114610b8b57600080fd5b50565b600081359050610b9d81610b77565b92915050565b600080600080600080600080610100898b031215610bc457610bc3610acd565b5b6000610bd28b828c01610af3565b9850506020610be38b828c01610b1f565b9750506040610bf48b828c01610b1f565b9650506060610c058b828c01610af3565b9550506080610c168b828c01610af3565b94505060a0610c278b828c01610b58565b93505060c0610c388b828c01610b8e565b92505060e0610c498b828c01610b8e565b9150509295985092959890939650565b600060208284031215610c6f57610c6e610acd565b5b6000610c7d84828501610af3565b91505092915050565b60008060408385031215610c9d57610c9c610acd565b5b6000610cab85828601610af3565b9250506020610cbc85828601610b1f565b9150509250929050565b610ccf81610ad2565b82525050565b6000602082019050610cea6000830184610cc6565b92915050565b7f4e487b7100000000000000000000000000000000000000000000000000000000600052603260045260246000fd5b610d2881610b34565b82525050565b610d3781610b6d565b82525050565b600060e082019050610d52600083018a610aa3565b610d5f6020830189610aa3565b610d6c6040830188610cc6565b610d796060830187610cc6565b610d866080830186610d1f565b610d9360a0830185610d2e565b610da060c0830184610d2e565b98975050505050505050565b7f4e487b7100000000000000000000000000000000000000000000000000000000600052601260045260246000fd5b7f4e487b7100000000000000000000000000000000000000000000000000000000600052601160045260246000fd5b6000610e1582610ad2565b9150610e2083610ad2565b925082610e3057610e2f610dac565b5b828204905092915050565b6000610e4682610ad2565b9150610e5183610ad2565b9250828203905081811115610e6957610e68610ddb565b5b92915050565b6000610e7a82610ad2565b9150610e8583610ad2565b9250828202610e9381610ad2565b91508282048414831517610eaa57610ea9610ddb565b5b5092915050565b6000610ebc82610ad2565b9150610ec783610ad2565b9250828201905080821115610edf57610ede610ddb565b5b92915050565b6000610ef082610ad2565b91507fffffffffffffffffffffffffffffffffffffffffffffffffffffffffffffffff8203610f2257610f21610ddb565b5b600182019050919050565b600081519050610f3c81610adc565b92915050565b600060208284031215610f5857610f57610acd565b5b6000610f6684828501610f2d565b91505092915050565b600082825260208201905092915050565b7f5265656e7472616e637947756172643a207265656e7472616e742063616c6c00600082015250565b6000610fb6601f83610f6f565b9150610fc182610f80565b602082019050919050565b60006020820190508181036000830152610fe581610fa9565b9050919050565b60006040820190506110016000830185610aa3565b61100e6020830184610cc6565b9392505050565b600069ffffffffffffffffffff82169050919050565b61103481611015565b811461103f57600080fd5b50565b6000815190506110518161102b565b92915050565b6000819050919050565b61106a81611057565b811461107557600080fd5b50565b60008151905061108781611061565b92915050565b600080600080600060a086880312156110a9576110a8610acd565b5b60006110b788828901611042565b95505060206110c888828901611078565b94505060406110d988828901610f2d565b93505060606110ea88828901610f2d565b92505060806110fb88828901611042565b915050929550929590935056fea2646970667358221220d97756db57110ba0518ab55d760896daa15b119c4bd6fb1fa41d4af63fda372b64736f6c634300081100336101406040523480156200001257600080fd5b506040516200306138038062003061833981810160405281019062000038919062000410565b81806040518060400160405280600181526020017f310000000000000000000000000000000000000000000000000000000000000081525084848160039081620000839190620006e0565b508060049081620000959190620006e0565b505050620000b8620000ac6200017360201b60201c565b6200017b60201b60201c565b60008280519060200120905060008280519060200120905060007f8b73c3c69bb8fe3d512ecc4cf759cc79239f7b179b0ffacaa9a75d522b39400f90508260e081815250508161010081815250504660a08181525050620001218184846200024160201b60201c565b608081815250503073ffffffffffffffffffffffffffffffffffffffff1660c08173ffffffffffffffffffffffffffffffffffffffff1681525050806101208181525050505050505050505062000895565b600033905090565b6000600560009054906101000a900473ffffffffffffffffffffffffffffffffffffffff16905081600560006101000a81548173ffffffffffffffffffffffffffffffffffffffff021916908373ffffffffffffffffffffffffffffffffffffffff1602179055508173ffffffffffffffffffffffffffffffffffffffff168173ffffffffffffffffffffffffffffffffffffffff167f8be0079c531659141344cd1fd0a4f28419497f9722a3daafe3b4186f6b6457e060405160405180910390a35050565b600083838346306040516020016200025e95949392919062000838565b6040516020818303038152906040528051906020012090509392505050565b6000604051905090565b600080fd5b600080fd5b600080fd5b600080fd5b6000601f19601f8301169050919050565b7f4e487b7100000000000000000000000000000000000000000000000000000000600052604160045260246000fd5b620002e6826200029b565b810181811067ffffffffffffffff82111715620003085762000307620002ac565b5b80604052505050565b60006200031d6200027d565b90506200032b8282620002db565b919050565b600067ffffffffffffffff8211156200034e576200034d620002ac565b5b62000359826200029b565b9050602081019050919050565b60005b838110156200038657808201518184015260208101905062000369565b60008484015250505050565b6000620003a9620003a38462000330565b62000311565b905082815260208101848484011115620003c857620003c762000296565b5b620003d584828562000366565b509392505050565b600082601f830112620003f557620003f462000291565b5b81516200040784826020860162000392565b91505092915050565b600080604083850312156200042a576200042962000287565b5b600083015167ffffffffffffffff8111156200044b576200044a6200028c565b5b6200045985828601620003dd565b925050602083015167ffffffffffffffff8111156200047d576200047c6200028c565b5b6200048b85828601620003dd565b9150509250929050565b600081519050919050565b7f4e487b7100000000000000000000000000000000000000000000000000000000600052602260045260246000fd5b60006002820490506001821680620004e857607f821691505b602082108103620004fe57620004fd620004a0565b5b50919050565b60008190508160005260206000209050919050565b60006020601f8301049050919050565b600082821b905092915050565b600060088302620005687fffffffffffffffffffffffffffffffffffffffffffffffffffffffffffffffff8262000529565b62000574868362000529565b95508019841693508086168417925050509392505050565b6000819050919050565b6000819050919050565b6000620005c1620005bb620005b5846200058c565b62000596565b6200058c565b9050919050565b6000819050919050565b620005dd83620005a0565b620005f5620005ec82620005c8565b84845462000536565b825550505050565b600090565b6200060c620005fd565b62000619818484620005d2565b505050565b5b8181101562000641576200063560008262000602565b6001810190506200061f565b5050565b601f82111562000690576200065a8162000504565b620006658462000519565b8101602085101562000675578190505b6200068d620006848562000519565b8301826200061e565b50505b505050565b600082821c905092915050565b6000620006b56000198460080262000695565b1980831691505092915050565b6000620006d08383620006a2565b9150826002028217905092915050565b620006eb8262000495565b67ffffffffffffffff811115620007075762000706620002ac565b5b620007138254620004cf565b6200072082828562000645565b600060209050601f83116001811462000758576000841562000743578287015190505b6200074f8582620006c2565b865550620007bf565b601f198416620007688662000504565b60005b8281101562000792578489015182556001820191506020850194506020810190506200076b565b86831015620007b25784890151620007ae601f891682620006a2565b8355505b6001600288020188555050505b505050505050565b6000819050919050565b620007dc81620007c7565b82525050565b620007ed816200058c565b82525050565b600073ffffffffffffffffffffffffffffffffffffffff82169050919050565b60006200082082620007f3565b9050919050565b620008328162000813565b82525050565b600060a0820190506200084f6000830188620007d1565b6200085e6020830187620007d1565b6200086d6040830186620007d1565b6200087c6060830185620007e2565b6200088b608083018462000827565b9695505050505050565b60805160a05160c05160e051610100516101205161277c620008e56000396000610e2f01526000610e7101526000610e5001526000610d8501526000610ddb01526000610e04015261277c6000f3fe608060405234801561001057600080fd5b506004361061012c5760003560e01c80638da5cb5b116100ad578063d505accf11610071578063d505accf1461035b578063dd62ed3e14610377578063e74a84ea146103a7578063eedc966a146103c3578063f2fde38b146103f35761012c565b80638da5cb5b146102a357806395d89b41146102c1578063a457c2d7146102df578063a9059cbb1461030f578063d1df306c1461033f5761012c565b80633644e515116100f45780633644e515146101eb578063395093511461020957806370a0823114610239578063715018a6146102695780637ecebe00146102735761012c565b806306fdde0314610131578063095ea7b31461014f57806318160ddd1461017f57806323b872dd1461019d578063313ce567146101cd575b600080fd5b61013961040f565b604051610146919061185a565b60405180910390f35b61016960048036038101906101649190611915565b6104a1565b6040516101769190611970565b60405180910390f35b6101876104c4565b604051610194919061199a565b60405180910390f35b6101b760048036038101906101b291906119b5565b6104ce565b6040516101c49190611970565b60405180910390f35b6101d56104fd565b6040516101e29190611a24565b60405180910390f35b6101f3610506565b6040516102009190611a58565b60405180910390f35b610223600480360381019061021e9190611915565b610515565b6040516102309190611970565b60405180910390f35b610253600480360381019061024e9190611a73565b61054c565b604051610260919061199a565b60405180910390f35b610271610594565b005b61028d60048036038101906102889190611a73565b6105a8565b60405161029a919061199a565b60405180910390f35b6102ab6105f8565b6040516102b89190611aaf565b60405180910390f35b6102c9610622565b6040516102d6919061185a565b60405180910390f35b6102f960048036038101906102f49190611915565b6106b4565b6040516103069190611970565b60405180910390f35b61032960048036038101906103249190611915565b61072b565b6040516103369190611970565b60405180910390f35b61035960048036038101906103549190611915565b61074e565b005b61037560048036038101906103709190611b22565b610764565b005b610391600480360381019061038c9190611bc4565b61077c565b60405161039e919061199a565b60405180910390f35b6103c160048036038101906103bc9190611915565b610803565b005b6103dd60048036038101906103d89190611a73565b610819565b6040516103ea919061199a565b60405180910390f35b61040d60048036038101906104089190611a73565b61082b565b005b60606003805461041e90611c33565b80601f016020809104026020016040519081016040528092919081815260200182805461044a90611c33565b80156104975780601f1061046c57610100808354040283529160200191610497565b820191906000526020600020905b81548152906001019060200180831161047a57829003601f168201915b5050505050905090565b6000806104ac6108ae565b90506104b98185856108b6565b600191505092915050565b6000600254905090565b6000806104d96108ae565b90506104e6858285610a7f565b6104f1858585610b0b565b60019150509392505050565b60006012905090565b6000610510610d81565b905090565b6000806105206108ae565b9050610541818585610532858961077c565b61053c9190611c93565b6108b6565b600191505092915050565b60008060008373ffffffffffffffffffffffffffffffffffffffff1673ffffffffffffffffffffffffffffffffffffffff168152602001908152602001600020549050919050565b61059c610e9b565b6105a66000610f19565b565b60006105f1600660008473ffffffffffffffffffffffffffffffffffffffff1673ffffffffffffffffffffffffffffffffffffffff168152602001908152602001600020610fdf565b9050919050565b6000600560009054906101000a900473ffffffffffffffffffffffffffffffffffffffff16905090565b60606004805461063190611c33565b80601f016020809104026020016040519081016040528092919081815260200182805461065d90611c33565b80156106aa5780601f1061067f576101008083540402835291602001916106aa565b820191906000526020600020905b81548152906001019060200180831161068d57829003601f168201915b5050505050905090565b6000806106bf6108ae565b905060006106cd828661077c565b905083811015610712576040517f08c379a000000000000000000000000000000000000000000000000000000000815260040161070990611d39565b60405180910390fd5b61071f82868684036108b6565b60019250505092915050565b6000806107366108ae565b9050610743818585610b0b565b600191505092915050565b610756610e9b565b6107608282610fed565b5050565b610773878787878787876111ba565b50505050505050565b6000600160008473ffffffffffffffffffffffffffffffffffffffff1673ffffffffffffffffffffffffffffffffffffffff16815260200190815260200160002060008373ffffffffffffffffffffffffffffffffffffffff1673ffffffffffffffffffffffffffffffffffffffff16815260200190815260200160002054905092915050565b61080b610e9b565b61081582826112fc565b5050565b60006108248261054c565b9050919050565b610833610e9b565b600073ffffffffffffffffffffffffffffffffffffffff168173ffffffffffffffffffffffffffffffffffffffff16036108a2576040517f08c379a000000000000000000000000000000000000000000000000000000000815260040161089990611dcb565b60405180910390fd5b6108ab81610f19565b50565b600033905090565b600073ffffffffffffffffffffffffffffffffffffffff168373ffffffffffffffffffffffffffffffffffffffff1603610925576040517f08c379a000000000000000000000000000000000000000000000000000000000815260040161091c90611e5d565b60405180910390fd5b600073ffffffffffffffffffffffffffffffffffffffff168273ffffffffffffffffffffffffffffffffffffffff1603610994576040517f08c379a000000000000000000000000000000000000000000000000000000000815260040161098b90611eef565b60405180910390fd5b80600160008573ffffffffffffffffffffffffffffffffffffffff1673ffffffffffffffffffffffffffffffffffffffff16815260200190815260200160002060008473ffffffffffffffffffffffffffffffffffffffff1673ffffffffffffffffffffffffffffffffffffffff168152602001908152602001600020819055508173ffffffffffffffffffffffffffffffffffffffff168373ffffffffffffffffffffffffffffffffffffffff167f8c5be1e5ebec7d5bd14f71427d1e84f3dd0314c0f7b2291e5b200ac8c7c3b92583604051610a72919061199a565b60405180910390a3505050565b6000610a8b848461077c565b90507fffffffffffffffffffffffffffffffffffffffffffffffffffffffffffffffff8114610b055781811015610af7576040517f08c379a0000000000000000000000000000000000000000000000000000000008152600401610aee90611f5b565b60405180910390fd5b610b0484848484036108b6565b5b50505050565b600073ffffffffffffffffffffffffffffffffffffffff168373ffffffffffffffffffffffffffffffffffffffff1603610b7a576040517f08c379a0000000000000000000000000000000000000000000000000000000008152600401610b7190611fed565b60405180910390fd5b600073ffffffffffffffffffffffffffffffffffffffff168273ffffffffffffffffffffffffffffffffffffffff1603610be9576040517f08c379a0000000000000000000000000000000000000000000000000000000008152600401610be09061207f565b60405180910390fd5b610bf4838383611452565b60008060008573ffffffffffffffffffffffffffffffffffffffff1673ffffffffffffffffffffffffffffffffffffffff16815260200190815260200160002054905081811015610c7a576040517f08c379a0000000000000000000000000000000000000000000000000000000008152600401610c7190612111565b60405180910390fd5b8181036000808673ffffffffffffffffffffffffffffffffffffffff1673ffffffffffffffffffffffffffffffffffffffff16815260200190815260200160002081905550816000808573ffffffffffffffffffffffffffffffffffffffff1673ffffffffffffffffffffffffffffffffffffffff168152602001908152602001600020600082825401925050819055508273ffffffffffffffffffffffffffffffffffffffff168473ffffffffffffffffffffffffffffffffffffffff167fddf252ad1be2c89b69c2b068fc378daa952ba7f163c4a11628f55a4df523b3ef84604051610d68919061199a565b60405180910390a3610d7b848484611457565b50505050565b60007f000000000000000000000000000000000000000000000000000000000000000073ffffffffffffffffffffffffffffffffffffffff163073ffffffffffffffffffffffffffffffffffffffff16148015610dfd57507f000000000000000000000000000000000000000000000000000000000000000046145b15610e2a577f00000000000000000000000000000000000000000000000000000000000000009050610e98565b610e957f00000000000000000000000000000000000000000000000000000000000000007f00000000000000000000000000000000000000000000000000000000000000007f000000000000000000000000000000000000000000000000000000000000000061145c565b90505b90565b610ea36108ae565b73ffffffffffffffffffffffffffffffffffffffff16610ec16105f8565b73ffffffffffffffffffffffffffffffffffffffff1614610f17576040517f08c379a0000000000000000000000000000000000000000000000000000000008152600401610f0e9061217d565b60405180910390fd5b565b6000600560009054906101000a900473ffffffffffffffffffffffffffffffffffffffff16905081600560006101000a81548173ffffffffffffffffffffffffffffffffffffffff021916908373ffffffffffffffffffffffffffffffffffffffff1602179055508173ffffffffffffffffffffffffffffffffffffffff168173ffffffffffffffffffffffffffffffffffffffff167f8be0079c531659141344cd1fd0a4f28419497f9722a3daafe3b4186f6b6457e060405160405180910390a35050565b600081600001549050919050565b600073ffffffffffffffffffffffffffffffffffffffff168273ffffffffffffffffffffffffffffffffffffffff160361105c576040517f08c379a00000000000000000000000000000000000000000000000000000000081526004016110539061220f565b60405180910390fd5b61106882600083611452565b60008060008473ffffffffffffffffffffffffffffffffffffffff1673ffffffffffffffffffffffffffffffffffffffff168152602001908152602001600020549050818110156110ee576040517f08c379a00000000000000000000000000000000000000000000000000000000081526004016110e5906122a1565b60405180910390fd5b8181036000808573ffffffffffffffffffffffffffffffffffffffff1673ffffffffffffffffffffffffffffffffffffffff1681526020019081526020016000208190555081600260008282540392505081905550600073ffffffffffffffffffffffffffffffffffffffff168373ffffffffffffffffffffffffffffffffffffffff167fddf252ad1be2c89b69c2b068fc378daa952ba7f163c4a11628f55a4df523b3ef846040516111a1919061199a565b60405180910390a36111b583600084611457565b505050565b834211156111fd576040517f08c379a00000000000000000000000000000000000000000000000000000000081526004016111f49061230d565b60405180910390fd5b60007f6e71edae12b1b97f4d1f60370fef10105fa2faae0126114a169c64845d6126c988888861122c8c611496565b896040516020016112429695949392919061232d565b6040516020818303038152906040528051906020012090506000611265826114f4565b905060006112758287878761150e565b90508973ffffffffffffffffffffffffffffffffffffffff168173ffffffffffffffffffffffffffffffffffffffff16146112e5576040517f08c379a00000000000000000000000000000000000000000000000000000000081526004016112dc906123da565b60405180910390fd5b6112f08a8a8a6108b6565b50505050505050505050565b600073ffffffffffffffffffffffffffffffffffffffff168273ffffffffffffffffffffffffffffffffffffffff160361136b576040517f08c379a000000000000000000000000000000000000000000000000000000000815260040161136290612446565b60405180910390fd5b61137760008383611452565b80600260008282546113899190611c93565b92505081905550806000808473ffffffffffffffffffffffffffffffffffffffff1673ffffffffffffffffffffffffffffffffffffffff168152602001908152602001600020600082825401925050819055508173ffffffffffffffffffffffffffffffffffffffff16600073ffffffffffffffffffffffffffffffffffffffff167fddf252ad1be2c89b69c2b068fc378daa952ba7f163c4a11628f55a4df523b3ef8360405161143a919061199a565b60405180910390a361144e60008383611457565b5050565b505050565b505050565b60008383834630604051602001611477959493929190612466565b6040516020818303038152906040528051906020012090509392505050565b600080600660008473ffffffffffffffffffffffffffffffffffffffff1673ffffffffffffffffffffffffffffffffffffffff16815260200190815260200160002090506114e381610fdf565b91506114ee81611539565b50919050565b6000611507611501610d81565b8361154f565b9050919050565b600080600061151f87878787611582565b9150915061152c81611664565b8192505050949350505050565b6001816000016000828254019250508190555050565b60008282604051602001611564929190612531565b60405160208183030381529060405280519060200120905092915050565b6000807f7fffffffffffffffffffffffffffffff5d576e7357a4501ddfe92f46681b20a08360001c11156115bd57600060039150915061165b565b6000600187878787604051600081526020016040526040516115e29493929190612568565b6020604051602081039080840390855afa158015611604573d6000803e3d6000fd5b505050602060405103519050600073ffffffffffffffffffffffffffffffffffffffff168173ffffffffffffffffffffffffffffffffffffffff16036116525760006001925092505061165b565b80600092509250505b94509492505050565b60006004811115611678576116776125ad565b5b81600481111561168b5761168a6125ad565b5b03156117c757600160048111156116a5576116a46125ad565b5b8160048111156116b8576116b76125ad565b5b036116f8576040517f08c379a00000000000000000000000000000000000000000000000000000000081526004016116ef90612628565b60405180910390fd5b6002600481111561170c5761170b6125ad565b5b81600481111561171f5761171e6125ad565b5b0361175f576040517f08c379a000000000000000000000000000000000000000000000000000000000815260040161175690612694565b60405180910390fd5b60036004811115611773576117726125ad565b5b816004811115611786576117856125ad565b5b036117c6576040517f08c379a00000000000000000000000000000000000000000000000000000000081526004016117bd90612726565b60405180910390fd5b5b50565b600081519050919050565b600082825260208201905092915050565b60005b838110156118045780820151818401526020810190506117e9565b60008484015250505050565b6000601f19601f8301169050919050565b600061182c826117ca565b61183681856117d5565b93506118468185602086016117e6565b61184f81611810565b840191505092915050565b600060208201905081810360008301526118748184611821565b905092915050565b600080fd5b600073ffffffffffffffffffffffffffffffffffffffff82169050919050565b60006118ac82611881565b9050919050565b6118bc816118a1565b81146118c757600080fd5b50565b6000813590506118d9816118b3565b92915050565b6000819050919050565b6118f2816118df565b81146118fd57600080fd5b50565b60008135905061190f816118e9565b92915050565b6000806040838503121561192c5761192b61187c565b5b600061193a858286016118ca565b925050602061194b85828601611900565b9150509250929050565b60008115159050919050565b61196a81611955565b82525050565b60006020820190506119856000830184611961565b92915050565b611994816118df565b82525050565b60006020820190506119af600083018461198b565b92915050565b6000806000606084860312156119ce576119cd61187c565b5b60006119dc868287016118ca565b93505060206119ed868287016118ca565b92505060406119fe86828701611900565b9150509250925092565b600060ff82169050919050565b611a1e81611a08565b82525050565b6000602082019050611a396000830184611a15565b92915050565b6000819050919050565b611a5281611a3f565b82525050565b6000602082019050611a6d6000830184611a49565b92915050565b600060208284031215611a8957611a8861187c565b5b6000611a97848285016118ca565b91505092915050565b611aa9816118a1565b82525050565b6000602082019050611ac46000830184611aa0565b92915050565b611ad381611a08565b8114611ade57600080fd5b50565b600081359050611af081611aca565b92915050565b611aff81611a3f565b8114611b0a57600080fd5b50565b600081359050611b1c81611af6565b92915050565b600080600080600080600060e0888a031215611b4157611b4061187c565b5b6000611b4f8a828b016118ca565b9750506020611b608a828b016118ca565b9650506040611b718a828b01611900565b9550506060611b828a828b01611900565b9450506080611b938a828b01611ae1565b93505060a0611ba48a828b01611b0d565b92505060c0611bb58a828b01611b0d565b91505092959891949750929550565b60008060408385031215611bdb57611bda61187c565b5b6000611be9858286016118ca565b9250506020611bfa858286016118ca565b9150509250929050565b7f4e487b7100000000000000000000000000000000000000000000000000000000600052602260045260246000fd5b60006002820490506001821680611c4b57607f821691505b602082108103611c5e57611c5d611c04565b5b50919050565b7f4e487b7100000000000000000000000000000000000000000000000000000000600052601160045260246000fd5b6000611c9e826118df565b9150611ca9836118df565b9250828201905080821115611cc157611cc0611c64565b5b92915050565b7f45524332303a2064656372656173656420616c6c6f77616e63652062656c6f7760008201527f207a65726f000000000000000000000000000000000000000000000000000000602082015250565b6000611d236025836117d5565b9150611d2e82611cc7565b604082019050919050565b60006020820190508181036000830152611d5281611d16565b9050919050565b7f4f776e61626c653a206e6577206f776e657220697320746865207a65726f206160008201527f6464726573730000000000000000000000000000000000000000000000000000602082015250565b6000611db56026836117d5565b9150611dc082611d59565b604082019050919050565b60006020820190508181036000830152611de481611da8565b9050919050565b7f45524332303a20617070726f76652066726f6d20746865207a65726f2061646460008201527f7265737300000000000000000000000000000000000000000000000000000000602082015250565b6000611e476024836117d5565b9150611e5282611deb565b604082019050919050565b60006020820190508181036000830152611e7681611e3a565b9050919050565b7f45524332303a20617070726f766520746f20746865207a65726f20616464726560008201527f7373000000000000000000000000000000000000000000000000000000000000602082015250565b6000611ed96022836117d5565b9150611ee482611e7d565b604082019050919050565b60006020820190508181036000830152611f0881611ecc565b9050919050565b7f45524332303a20696e73756666696369656e7420616c6c6f77616e6365000000600082015250565b6000611f45601d836117d5565b9150611f5082611f0f565b602082019050919050565b60006020820190508181036000830152611f7481611f38565b9050919050565b7f45524332303a207472616e736665722066726f6d20746865207a65726f20616460008201527f6472657373000000000000000000000000000000000000000000000000000000602082015250565b6000611fd76025836117d5565b9150611fe282611f7b565b604082019050919050565b6000602082019050818103600083015261200681611fca565b9050919050565b7f45524332303a207472616e7366657220746f20746865207a65726f206164647260008201527f6573730000000000000000000000000000000000000000000000000000000000602082015250565b60006120696023836117d5565b91506120748261200d565b604082019050919050565b600060208201905081810360008301526120988161205c565b9050919050565b7f45524332303a207472616e7366657220616d6f756e742065786365656473206260008201527f616c616e63650000000000000000000000000000000000000000000000000000602082015250565b60006120fb6026836117d5565b91506121068261209f565b604082019050919050565b6000602082019050818103600083015261212a816120ee565b9050919050565b7f4f776e61626c653a2063616c6c6572206973206e6f7420746865206f776e6572600082015250565b60006121676020836117d5565b915061217282612131565b602082019050919050565b600060208201905081810360008301526121968161215a565b9050919050565b7f45524332303a206275726e2066726f6d20746865207a65726f2061646472657360008201527f7300000000000000000000000000000000000000000000000000000000000000602082015250565b60006121f96021836117d5565b91506122048261219d565b604082019050919050565b60006020820190508181036000830152612228816121ec565b9050919050565b7f45524332303a206275726e20616d6f756e7420657863656564732062616c616e60008201527f6365000000000000000000000000000000000000000000000000000000000000602082015250565b600061228b6022836117d5565b91506122968261222f565b604082019050919050565b600060208201905081810360008301526122ba8161227e565b9050919050565b7f45524332305065726d69743a206578706972656420646561646c696e65000000600082015250565b60006122f7601d836117d5565b9150612302826122c1565b602082019050919050565b60006020820190508181036000830152612326816122ea565b9050919050565b600060c0820190506123426000830189611a49565b61234f6020830188611aa0565b61235c6040830187611aa0565b612369606083018661198b565b612376608083018561198b565b61238360a083018461198b565b979650505050505050565b7f45524332305065726d69743a20696e76616c6964207369676e61747572650000600082015250565b60006123c4601e836117d5565b91506123cf8261238e565b602082019050919050565b600060208201905081810360008301526123f3816123b7565b9050919050565b7f45524332303a206d696e7420746f20746865207a65726f206164647265737300600082015250565b6000612430601f836117d5565b915061243b826123fa565b602082019050919050565b6000602082019050818103600083015261245f81612423565b9050919050565b600060a08201905061247b6000830188611a49565b6124886020830187611a49565b6124956040830186611a49565b6124a2606083018561198b565b6124af6080830184611aa0565b9695505050505050565b600081905092915050565b7f1901000000000000000000000000000000000000000000000000000000000000600082015250565b60006124fa6002836124b9565b9150612505826124c4565b600282019050919050565b6000819050919050565b61252b61252682611a3f565b612510565b82525050565b600061253c826124ed565b9150612548828561251a565b602082019150612558828461251a565b6020820191508190509392505050565b600060808201905061257d6000830187611a49565b61258a6020830186611a15565b6125976040830185611a49565b6125a46060830184611a49565b95945050505050565b7f4e487b7100000000000000000000000000000000000000000000000000000000600052602160045260246000fd5b7f45434453413a20696e76616c6964207369676e61747572650000000000000000600082015250565b60006126126018836117d5565b915061261d826125dc565b602082019050919050565b6000602082019050818103600083015261264181612605565b9050919050565b7f45434453413a20696e76616c6964207369676e6174757265206c656e67746800600082015250565b600061267e601f836117d5565b915061268982612648565b602082019050919050565b600060208201905081810360008301526126ad81612671565b9050919050565b7f45434453413a20696e76616c6964207369676e6174757265202773272076616c60008201527f7565000000000000000000000000000000000000000000000000000000000000602082015250565b60006127106022836117d5565b915061271b826126b4565b604082019050919050565b6000602082019050818103600083015261273f81612703565b905091905056fea264697066735822122085c1ad056a8e9415a2f98c838fd3db76299ea94bcae86e01f1d870badfaed2e464736f6c63430008110033",
  "devdoc": {
    "author": "Okwuosa Chijioke",
    "details": "This implements 2 ERC-20 tokens that will be minted in exactly the same proportion as the underlying ERC-20 token transferred into the Factory contract. The asset will be burned in exactly the same proportion when asked to redeem/withdrawal the underlying asset. The contract will implement periodic rebalancing",
    "kind": "dev",
    "methods": {},
    "title": "ERC-20 Rebase Tokens",
    "version": 1
  },
  "userdoc": {
    "kind": "user",
    "methods": {},
    "notice": "Still under development",
    "version": 1
  },
  "storageLayout": {
    "storage": [
      {
        "astId": 169,
        "contract": "contracts/TokenFactory.sol:TokenFactory",
        "label": "_status",
        "offset": 0,
        "slot": "0",
        "type": "t_uint256"
      },
      {
        "astId": 2883,
        "contract": "contracts/TokenFactory.sol:TokenFactory",
        "label": "s_devTokenArray",
        "offset": 0,
        "slot": "1",
        "type": "t_array(t_contract(DevToken)2860)dyn_storage"
      },
      {
        "astId": 2888,
        "contract": "contracts/TokenFactory.sol:TokenFactory",
        "label": "s_funders",
        "offset": 0,
        "slot": "2",
        "type": "t_array(t_address)dyn_storage"
      }
    ],
    "types": {
      "t_address": {
        "encoding": "inplace",
        "label": "address",
        "numberOfBytes": "20"
      },
      "t_array(t_address)dyn_storage": {
        "base": "t_address",
        "encoding": "dynamic_array",
        "label": "address[]",
        "numberOfBytes": "32"
      },
      "t_array(t_contract(DevToken)2860)dyn_storage": {
        "base": "t_contract(DevToken)2860",
        "encoding": "dynamic_array",
        "label": "contract DevToken[]",
        "numberOfBytes": "32"
      },
      "t_contract(DevToken)2860": {
        "encoding": "inplace",
        "label": "contract DevToken",
        "numberOfBytes": "20"
      },
      "t_uint256": {
        "encoding": "inplace",
        "label": "uint256",
        "numberOfBytes": "32"
      }
    }
  }
}