{
  "address": "0xc6e7DF5E7b4f2A278906862b61205850344D4e7d",
  "abi": [
    {
      "inputs": [
        {
          "internalType": "address",
          "name": "baseTokenAddress",
          "type": "address"
        },
        {
          "internalType": "address",
          "name": "priceFeedAddress",
          "type": "address"
        },
        {
          "internalType": "string",
          "name": "token1Name",
          "type": "string"
        },
        {
          "internalType": "string",
          "name": "token1Symbol",
          "type": "string"
        },
        {
          "internalType": "string",
          "name": "token2Name",
          "type": "string"
        },
        {
          "internalType": "string",
          "name": "token2Symbol",
          "type": "string"
        }
      ],
      "stateMutability": "nonpayable",
      "type": "constructor"
    },
    {
      "inputs": [],
      "name": "TokenFactory__InsufficientFund",
      "type": "error"
    },
    {
      "anonymous": false,
      "inputs": [
        {
          "indexed": true,
          "internalType": "address",
          "name": "recipient",
          "type": "address"
        },
        {
          "indexed": false,
          "internalType": "uint256",
          "name": "amount",
          "type": "uint256"
        }
      ],
      "name": "AssetBought",
      "type": "event"
    },
    {
      "anonymous": false,
      "inputs": [
        {
          "indexed": true,
          "internalType": "address",
          "name": "owner",
          "type": "address"
        },
        {
          "indexed": false,
          "internalType": "uint256",
          "name": "amount",
          "type": "uint256"
        }
      ],
      "name": "AssetWithdrawn",
      "type": "event"
    },
    {
      "inputs": [
        {
          "internalType": "uint256",
          "name": "_devTokenIndex",
          "type": "uint256"
        },
        {
          "internalType": "address",
          "name": "_owner",
          "type": "address"
        }
      ],
      "name": "balanceOf",
      "outputs": [
        {
          "internalType": "uint256",
          "name": "",
          "type": "uint256"
        }
      ],
      "stateMutability": "view",
      "type": "function"
    },
    {
      "inputs": [],
      "name": "buyAsset",
      "outputs": [],
      "stateMutability": "payable",
      "type": "function"
    },
    {
      "inputs": [],
      "name": "getBaseTokenAddress",
      "outputs": [
        {
          "internalType": "address",
          "name": "",
          "type": "address"
        }
      ],
      "stateMutability": "view",
      "type": "function"
    },
    {
      "inputs": [],
      "name": "getPriceFeedAddress",
      "outputs": [
        {
          "internalType": "contract AggregatorV3Interface",
          "name": "",
          "type": "address"
        }
      ],
      "stateMutability": "view",
      "type": "function"
    },
    {
      "inputs": [
        {
          "internalType": "uint256",
          "name": "index",
          "type": "uint256"
        }
      ],
      "name": "getScallingFactor",
      "outputs": [
        {
          "internalType": "uint256",
          "name": "",
          "type": "uint256"
        }
      ],
      "stateMutability": "view",
      "type": "function"
    },
    {
      "inputs": [],
      "name": "getScallingFactorLength",
      "outputs": [
        {
          "internalType": "uint256",
          "name": "",
          "type": "uint256"
        }
      ],
      "stateMutability": "view",
      "type": "function"
    },
    {
      "inputs": [],
      "name": "rebase",
      "outputs": [],
      "stateMutability": "nonpayable",
      "type": "function"
    },
    {
      "inputs": [
        {
          "internalType": "uint256",
          "name": "scallingFactorX",
          "type": "uint256"
        }
      ],
      "name": "subUnchecked",
      "outputs": [
        {
          "internalType": "uint256",
          "name": "",
          "type": "uint256"
        }
      ],
      "stateMutability": "pure",
      "type": "function"
    },
    {
      "inputs": [
        {
          "internalType": "uint256",
          "name": "_devTokenIndex",
          "type": "uint256"
        },
        {
          "internalType": "address",
          "name": "to",
          "type": "address"
        },
        {
          "internalType": "uint256",
          "name": "value",
          "type": "uint256"
        }
      ],
      "name": "transfer",
      "outputs": [
        {
          "internalType": "bool",
          "name": "",
          "type": "bool"
        }
      ],
      "stateMutability": "nonpayable",
      "type": "function"
    },
    {
      "inputs": [
        {
          "internalType": "uint256",
          "name": "_amount",
          "type": "uint256"
        }
      ],
      "name": "withdrawAsset",
      "outputs": [],
      "stateMutability": "nonpayable",
      "type": "function"
    }
  ],
  "transactionHash": "0x9bcf76497afe4d2821136466cae1a7584e633dc62878958629a91920eedd669d",
  "args": [
    "0x7ceB23fD6bC0adD59E62ac25578270cFf1b9f619",
    "0x68B1D87F95878fE05B998F19b66F4baba5De1aed",
    "RistP One",
    "R1",
    "RistP Two",
    "R2"
  ],
  "numDeployments": 2,
  "solcInputHash": "87c10ea2bcfc078248db7066f60712f9",
  "bytecode": "0x60c06040523480156200001157600080fd5b5060405162003c6838038062003c688339818101604052810190620000379190620003ff565b60016000819055508573ffffffffffffffffffffffffffffffffffffffff1660808173ffffffffffffffffffffffffffffffffffffffff16815250508473ffffffffffffffffffffffffffffffffffffffff1660a08173ffffffffffffffffffffffffffffffffffffffff168152505060008484604051620000b990620001f9565b620000c692919062000574565b604051809103906000f080158015620000e3573d6000803e3d6000fd5b5090506002819080600181540180825580915050600190039060005260206000200160009091909190916101000a81548173ffffffffffffffffffffffffffffffffffffffff021916908373ffffffffffffffffffffffffffffffffffffffff160217905550600083836040516200015b90620001f9565b6200016892919062000574565b604051809103906000f08015801562000185573d6000803e3d6000fd5b5090506002819080600181540180825580915050600190039060005260206000200160009091909190916101000a81548173ffffffffffffffffffffffffffffffffffffffff021916908373ffffffffffffffffffffffffffffffffffffffff1602179055505050505050505050620005af565b6121b68062001ab283390190565b6000604051905090565b600080fd5b600080fd5b600073ffffffffffffffffffffffffffffffffffffffff82169050919050565b600062000248826200021b565b9050919050565b6200025a816200023b565b81146200026657600080fd5b50565b6000815190506200027a816200024f565b92915050565b600080fd5b600080fd5b6000601f19601f8301169050919050565b7f4e487b7100000000000000000000000000000000000000000000000000000000600052604160045260246000fd5b620002d5826200028a565b810181811067ffffffffffffffff82111715620002f757620002f66200029b565b5b80604052505050565b60006200030c62000207565b90506200031a8282620002ca565b919050565b600067ffffffffffffffff8211156200033d576200033c6200029b565b5b62000348826200028a565b9050602081019050919050565b60005b838110156200037557808201518184015260208101905062000358565b60008484015250505050565b60006200039862000392846200031f565b62000300565b905082815260208101848484011115620003b757620003b662000285565b5b620003c484828562000355565b509392505050565b600082601f830112620003e457620003e362000280565b5b8151620003f684826020860162000381565b91505092915050565b60008060008060008060c087890312156200041f576200041e62000211565b5b60006200042f89828a0162000269565b96505060206200044289828a0162000269565b955050604087015167ffffffffffffffff81111562000466576200046562000216565b5b6200047489828a01620003cc565b945050606087015167ffffffffffffffff81111562000498576200049762000216565b5b620004a689828a01620003cc565b935050608087015167ffffffffffffffff811115620004ca57620004c962000216565b5b620004d889828a01620003cc565b92505060a087015167ffffffffffffffff811115620004fc57620004fb62000216565b5b6200050a89828a01620003cc565b9150509295509295509295565b600081519050919050565b600082825260208201905092915050565b6000620005408262000517565b6200054c818562000522565b93506200055e81856020860162000355565b62000569816200028a565b840191505092915050565b6000604082019050818103600083015262000590818562000533565b90508181036020830152620005a6818462000533565b90509392505050565b60805160a0516114d6620005dc6000396000818161026d01526107ff015260006105db01526114d66000f3fe6080604052600436106100915760003560e01c80638d92fdf3116100595780638d92fdf3146101915780639fbaf131146101ba578063af14052c146101c4578063e5fc402a146101db578063f8548e361461021857610091565b80630318b3a0146100965780630f0f30b2146100d35780633656eec2146100fe5780634df947d01461013b57806378c1a6c414610166575b600080fd5b3480156100a257600080fd5b506100bd60048036038101906100b89190610f3b565b610255565b6040516100ca9190610f77565b60405180910390f35b3480156100df57600080fd5b506100e8610269565b6040516100f59190611011565b60405180910390f35b34801561010a57600080fd5b506101256004803603810190610120919061106a565b610291565b6040516101329190610f77565b60405180910390f35b34801561014757600080fd5b506101506105d7565b60405161015d91906110b9565b60405180910390f35b34801561017257600080fd5b5061017b6105ff565b6040516101889190610f77565b60405180910390f35b34801561019d57600080fd5b506101b860048036038101906101b39190610f3b565b61060c565b005b6101c2610766565b005b3480156101d057600080fd5b506101d96107ef565b005b3480156101e757600080fd5b5061020260048036038101906101fd9190610f3b565b6108cd565b60405161020f9190610f77565b60405180910390f35b34801561022457600080fd5b5061023f600480360381019061023a91906110d4565b6108f5565b60405161024c9190611142565b60405180910390f35b600081670de0b6b3a7640000039050919050565b60007f0000000000000000000000000000000000000000000000000000000000000000905090565b600061029b6105ff565b600360003373ffffffffffffffffffffffffffffffffffffffff1673ffffffffffffffffffffffffffffffffffffffff16815260200190815260200160002054146105165760006001600360003373ffffffffffffffffffffffffffffffffffffffff1673ffffffffffffffffffffffffffffffffffffffff16815260200190815260200160002054815481106103355761033461115d565b5b90600052602060002001549050600061034d82610255565b9050600081670de0b6b3a764000060026001815481106103705761036f61115d565b5b9060005260206000200160009054906101000a900473ffffffffffffffffffffffffffffffffffffffff1673ffffffffffffffffffffffffffffffffffffffff166370a08231886040518263ffffffff1660e01b81526004016103d391906110b9565b602060405180830381865afa1580156103f0573d6000803e3d6000fd5b505050506040513d601f19601f8201168201806040525081019061041491906111a1565b61041e919061122c565b610428919061125d565b83670de0b6b3a764000060026000815481106104475761044661115d565b5b9060005260206000200160009054906101000a900473ffffffffffffffffffffffffffffffffffffffff1673ffffffffffffffffffffffffffffffffffffffff166370a08231896040518263ffffffff1660e01b81526004016104aa91906110b9565b602060405180830381865afa1580156104c7573d6000803e3d6000fd5b505050506040513d601f19601f820116820180604052508101906104eb91906111a1565b6104f5919061122c565b6104ff919061125d565b610509919061129f565b90508093505050506105d1565b6002838154811061052a5761052961115d565b5b9060005260206000200160009054906101000a900473ffffffffffffffffffffffffffffffffffffffff1673ffffffffffffffffffffffffffffffffffffffff166370a08231836040518263ffffffff1660e01b815260040161058d91906110b9565b602060405180830381865afa1580156105aa573d6000803e3d6000fd5b505050506040513d601f19601f820116820180604052508101906105ce91906111a1565b90505b92915050565b60007f0000000000000000000000000000000000000000000000000000000000000000905090565b6000600180549050905090565b610614610958565b61061c6105ff565b600360003373ffffffffffffffffffffffffffffffffffffffff1673ffffffffffffffffffffffffffffffffffffffff168152602001908152602001600020541461066a576106696109a7565b5b610675600033610291565b8111156106ae576040517fd9f6ddd900000000000000000000000000000000000000000000000000000000815260040160405180910390fd5b6106ba60003383610cd8565b6106c660013383610cd8565b3373ffffffffffffffffffffffffffffffffffffffff166108fc829081150290604051600060405180830381858888f1935050505015801561070c573d6000803e3d6000fd5b503373ffffffffffffffffffffffffffffffffffffffff167f94b055d454fefc95ba06924afbaac83912b1575d621a7d32a4675303246bb7d0826040516107539190610f77565b60405180910390a2610763610d88565b50565b61076e610958565b610782600033678ac7230489e80000610d92565b6107976001336801158e460913d00000610d92565b3373ffffffffffffffffffffffffffffffffffffffff167f1043b9f778084a8d3cd9af8b3e347f91d1f9f75697034f065aac775937fe79d4346040516107dd9190610f77565b60405180910390a26107ed610d88565b565b6000670de0b6b3a76400006108397f000000000000000000000000000000000000000000000000000000000000000073ffffffffffffffffffffffffffffffffffffffff16610e42565b610843919061122c565b9050600061085b600383610ec390919063ffffffff16565b90506000610873600284610ec390919063ffffffff16565b90506001816002670de0b6b3a76400008561088e919061125d565b610898919061122c565b6108a2919061122c565b9080600181540180825580915050600190039060005260206000200160009091909190915055505050565b6000600182815481106108e3576108e261115d565b5b90600052602060002001549050919050565b60006108ff6105ff565b600360003373ffffffffffffffffffffffffffffffffffffffff1673ffffffffffffffffffffffffffffffffffffffff168152602001908152602001600020541461094d5761094c6109a7565b5b600190509392505050565b60026000540361099d576040517f08c379a000000000000000000000000000000000000000000000000000000000815260040161099490611330565b60405180910390fd5b6002600081905550565b60006001600360003373ffffffffffffffffffffffffffffffffffffffff1673ffffffffffffffffffffffffffffffffffffffff16815260200190815260200160002054815481106109fc576109fb61115d565b5b906000526020600020015490506000610a1482610255565b90506000670de0b6b3a76400006002600081548110610a3657610a3561115d565b5b9060005260206000200160009054906101000a900473ffffffffffffffffffffffffffffffffffffffff1673ffffffffffffffffffffffffffffffffffffffff166370a08231336040518263ffffffff1660e01b8152600401610a9991906110b9565b602060405180830381865afa158015610ab6573d6000803e3d6000fd5b505050506040513d601f19601f82011682018060405250810190610ada91906111a1565b610ae4919061122c565b90506000670de0b6b3a76400006002600181548110610b0657610b0561115d565b5b9060005260206000200160009054906101000a900473ffffffffffffffffffffffffffffffffffffffff1673ffffffffffffffffffffffffffffffffffffffff166370a08231336040518263ffffffff1660e01b8152600401610b6991906110b9565b602060405180830381865afa158015610b86573d6000803e3d6000fd5b505050506040513d601f19601f82011682018060405250810190610baa91906111a1565b610bb4919061122c565b90506000670de0b6b3a764000083610bcc919061125d565b90506000670de0b6b3a764000083610be4919061125d565b905060008584610bf4919061125d565b8786610c00919061125d565b610c0a919061129f565b905082811115610c3057610c2b6000338584610c269190611350565b610d92565b610c48565b610c476000338386610c429190611350565b610cd8565b5b81811115610c6c57610c676001338484610c629190611350565b610d92565b610c84565b610c836001338385610c7e9190611350565b610cd8565b5b610c8c6105ff565b600360003373ffffffffffffffffffffffffffffffffffffffff1673ffffffffffffffffffffffffffffffffffffffff1681526020019081526020016000208190555050505050505050565b60028381548110610cec57610ceb61115d565b5b9060005260206000200160009054906101000a900473ffffffffffffffffffffffffffffffffffffffff1673ffffffffffffffffffffffffffffffffffffffff16639dc29fac83836040518363ffffffff1660e01b8152600401610d51929190611384565b600060405180830381600087803b158015610d6b57600080fd5b505af1158015610d7f573d6000803e3d6000fd5b50505050505050565b6001600081905550565b60028381548110610da657610da561115d565b5b9060005260206000200160009054906101000a900473ffffffffffffffffffffffffffffffffffffffff1673ffffffffffffffffffffffffffffffffffffffff166340c10f1983836040518363ffffffff1660e01b8152600401610e0b929190611384565b600060405180830381600087803b158015610e2557600080fd5b505af1158015610e39573d6000803e3d6000fd5b50505050505050565b6000808273ffffffffffffffffffffffffffffffffffffffff1663feaf968c6040518163ffffffff1660e01b815260040160a060405180830381865afa158015610e90573d6000803e3d6000fd5b505050506040513d601f19601f82011682018060405250810190610eb49190611425565b50505091505080915050919050565b6000808314610ef557600182600185610edc9190611350565b610ee6919061122c565b610ef0919061129f565b610ef8565b60005b905092915050565b600080fd5b6000819050919050565b610f1881610f05565b8114610f2357600080fd5b50565b600081359050610f3581610f0f565b92915050565b600060208284031215610f5157610f50610f00565b5b6000610f5f84828501610f26565b91505092915050565b610f7181610f05565b82525050565b6000602082019050610f8c6000830184610f68565b92915050565b600073ffffffffffffffffffffffffffffffffffffffff82169050919050565b6000819050919050565b6000610fd7610fd2610fcd84610f92565b610fb2565b610f92565b9050919050565b6000610fe982610fbc565b9050919050565b6000610ffb82610fde565b9050919050565b61100b81610ff0565b82525050565b60006020820190506110266000830184611002565b92915050565b600061103782610f92565b9050919050565b6110478161102c565b811461105257600080fd5b50565b6000813590506110648161103e565b92915050565b6000806040838503121561108157611080610f00565b5b600061108f85828601610f26565b92505060206110a085828601611055565b9150509250929050565b6110b38161102c565b82525050565b60006020820190506110ce60008301846110aa565b92915050565b6000806000606084860312156110ed576110ec610f00565b5b60006110fb86828701610f26565b935050602061110c86828701611055565b925050604061111d86828701610f26565b9150509250925092565b60008115159050919050565b61113c81611127565b82525050565b60006020820190506111576000830184611133565b92915050565b7f4e487b7100000000000000000000000000000000000000000000000000000000600052603260045260246000fd5b60008151905061119b81610f0f565b92915050565b6000602082840312156111b7576111b6610f00565b5b60006111c58482850161118c565b91505092915050565b7f4e487b7100000000000000000000000000000000000000000000000000000000600052601260045260246000fd5b7f4e487b7100000000000000000000000000000000000000000000000000000000600052601160045260246000fd5b600061123782610f05565b915061124283610f05565b925082611252576112516111ce565b5b828204905092915050565b600061126882610f05565b915061127383610f05565b925082820261128181610f05565b91508282048414831517611298576112976111fd565b5b5092915050565b60006112aa82610f05565b91506112b583610f05565b92508282019050808211156112cd576112cc6111fd565b5b92915050565b600082825260208201905092915050565b7f5265656e7472616e637947756172643a207265656e7472616e742063616c6c00600082015250565b600061131a601f836112d3565b9150611325826112e4565b602082019050919050565b600060208201905081810360008301526113498161130d565b9050919050565b600061135b82610f05565b915061136683610f05565b925082820390508181111561137e5761137d6111fd565b5b92915050565b600060408201905061139960008301856110aa565b6113a66020830184610f68565b9392505050565b600069ffffffffffffffffffff82169050919050565b6113cc816113ad565b81146113d757600080fd5b50565b6000815190506113e9816113c3565b92915050565b6000819050919050565b611402816113ef565b811461140d57600080fd5b50565b60008151905061141f816113f9565b92915050565b600080600080600060a0868803121561144157611440610f00565b5b600061144f888289016113da565b955050602061146088828901611410565b94505060406114718882890161118c565b93505060606114828882890161118c565b9250506080611493888289016113da565b915050929550929590935056fea26469706673582212209b8193ba00abb04f0ce1798277b9e9ed4342467f13bdf7977dbb03c28c7ede8464736f6c6343000811003360806040523480156200001157600080fd5b50604051620021b6380380620021b68339818101604052810190620000379190620002e8565b818181600390816200004a9190620005b8565b5080600490816200005c9190620005b8565b5050506200007f620000736200008760201b60201c565b6200008f60201b60201c565b50506200069f565b600033905090565b6000600560009054906101000a900473ffffffffffffffffffffffffffffffffffffffff16905081600560006101000a81548173ffffffffffffffffffffffffffffffffffffffff021916908373ffffffffffffffffffffffffffffffffffffffff1602179055508173ffffffffffffffffffffffffffffffffffffffff168173ffffffffffffffffffffffffffffffffffffffff167f8be0079c531659141344cd1fd0a4f28419497f9722a3daafe3b4186f6b6457e060405160405180910390a35050565b6000604051905090565b600080fd5b600080fd5b600080fd5b600080fd5b6000601f19601f8301169050919050565b7f4e487b7100000000000000000000000000000000000000000000000000000000600052604160045260246000fd5b620001be8262000173565b810181811067ffffffffffffffff82111715620001e057620001df62000184565b5b80604052505050565b6000620001f562000155565b9050620002038282620001b3565b919050565b600067ffffffffffffffff82111562000226576200022562000184565b5b620002318262000173565b9050602081019050919050565b60005b838110156200025e57808201518184015260208101905062000241565b60008484015250505050565b6000620002816200027b8462000208565b620001e9565b905082815260208101848484011115620002a0576200029f6200016e565b5b620002ad8482856200023e565b509392505050565b600082601f830112620002cd57620002cc62000169565b5b8151620002df8482602086016200026a565b91505092915050565b600080604083850312156200030257620003016200015f565b5b600083015167ffffffffffffffff81111562000323576200032262000164565b5b6200033185828601620002b5565b925050602083015167ffffffffffffffff81111562000355576200035462000164565b5b6200036385828601620002b5565b9150509250929050565b600081519050919050565b7f4e487b7100000000000000000000000000000000000000000000000000000000600052602260045260246000fd5b60006002820490506001821680620003c057607f821691505b602082108103620003d657620003d562000378565b5b50919050565b60008190508160005260206000209050919050565b60006020601f8301049050919050565b600082821b905092915050565b600060088302620004407fffffffffffffffffffffffffffffffffffffffffffffffffffffffffffffffff8262000401565b6200044c868362000401565b95508019841693508086168417925050509392505050565b6000819050919050565b6000819050919050565b600062000499620004936200048d8462000464565b6200046e565b62000464565b9050919050565b6000819050919050565b620004b58362000478565b620004cd620004c482620004a0565b8484546200040e565b825550505050565b600090565b620004e4620004d5565b620004f1818484620004aa565b505050565b5b8181101562000519576200050d600082620004da565b600181019050620004f7565b5050565b601f82111562000568576200053281620003dc565b6200053d84620003f1565b810160208510156200054d578190505b620005656200055c85620003f1565b830182620004f6565b50505b505050565b600082821c905092915050565b60006200058d600019846008026200056d565b1980831691505092915050565b6000620005a883836200057a565b9150826002028217905092915050565b620005c3826200036d565b67ffffffffffffffff811115620005df57620005de62000184565b5b620005eb8254620003a7565b620005f88282856200051d565b600060209050601f8311600181146200063057600084156200061b578287015190505b6200062785826200059a565b86555062000697565b601f1984166200064086620003dc565b60005b828110156200066a5784890151825560018201915060208501945060208101905062000643565b868310156200068a578489015162000686601f8916826200057a565b8355505b6001600288020188555050505b505050505050565b611b0780620006af6000396000f3fe608060405234801561001057600080fd5b50600436106101005760003560e01c8063715018a611610097578063a457c2d711610066578063a457c2d71461029d578063a9059cbb146102cd578063dd62ed3e146102fd578063f2fde38b1461032d57610100565b8063715018a61461023b5780638da5cb5b1461024557806395d89b41146102635780639dc29fac1461028157610100565b8063313ce567116100d3578063313ce567146101a157806339509351146101bf57806340c10f19146101ef57806370a082311461020b57610100565b806306fdde0314610105578063095ea7b31461012357806318160ddd1461015357806323b872dd14610171575b600080fd5b61010d610349565b60405161011a919061112c565b60405180910390f35b61013d600480360381019061013891906111e7565b6103db565b60405161014a9190611242565b60405180910390f35b61015b6103fe565b604051610168919061126c565b60405180910390f35b61018b60048036038101906101869190611287565b610408565b6040516101989190611242565b60405180910390f35b6101a9610437565b6040516101b691906112f6565b60405180910390f35b6101d960048036038101906101d491906111e7565b610440565b6040516101e69190611242565b60405180910390f35b610209600480360381019061020491906111e7565b610477565b005b61022560048036038101906102209190611311565b61048d565b604051610232919061126c565b60405180910390f35b6102436104d5565b005b61024d6104e9565b60405161025a919061134d565b60405180910390f35b61026b610513565b604051610278919061112c565b60405180910390f35b61029b600480360381019061029691906111e7565b6105a5565b005b6102b760048036038101906102b291906111e7565b6105bb565b6040516102c49190611242565b60405180910390f35b6102e760048036038101906102e291906111e7565b610632565b6040516102f49190611242565b60405180910390f35b61031760048036038101906103129190611368565b61064e565b604051610324919061126c565b60405180910390f35b61034760048036038101906103429190611311565b6106d5565b005b606060038054610358906113d7565b80601f0160208091040260200160405190810160405280929190818152602001828054610384906113d7565b80156103d15780601f106103a6576101008083540402835291602001916103d1565b820191906000526020600020905b8154815290600101906020018083116103b457829003601f168201915b5050505050905090565b6000806103e6610758565b90506103f3818585610760565b600191505092915050565b6000600254905090565b600080610413610758565b9050610420858285610929565b61042b8585856109b5565b60019150509392505050565b60006012905090565b60008061044b610758565b905061046c81858561045d858961064e565b6104679190611437565b610760565b600191505092915050565b61047f610c2b565b6104898282610ca9565b5050565b60008060008373ffffffffffffffffffffffffffffffffffffffff1673ffffffffffffffffffffffffffffffffffffffff168152602001908152602001600020549050919050565b6104dd610c2b565b6104e76000610dff565b565b6000600560009054906101000a900473ffffffffffffffffffffffffffffffffffffffff16905090565b606060048054610522906113d7565b80601f016020809104026020016040519081016040528092919081815260200182805461054e906113d7565b801561059b5780601f106105705761010080835404028352916020019161059b565b820191906000526020600020905b81548152906001019060200180831161057e57829003601f168201915b5050505050905090565b6105ad610c2b565b6105b78282610ec5565b5050565b6000806105c6610758565b905060006105d4828661064e565b905083811015610619576040517f08c379a0000000000000000000000000000000000000000000000000000000008152600401610610906114dd565b60405180910390fd5b6106268286868403610760565b60019250505092915050565b6000803290506106438185856109b5565b600191505092915050565b6000600160008473ffffffffffffffffffffffffffffffffffffffff1673ffffffffffffffffffffffffffffffffffffffff16815260200190815260200160002060008373ffffffffffffffffffffffffffffffffffffffff1673ffffffffffffffffffffffffffffffffffffffff16815260200190815260200160002054905092915050565b6106dd610c2b565b600073ffffffffffffffffffffffffffffffffffffffff168173ffffffffffffffffffffffffffffffffffffffff160361074c576040517f08c379a00000000000000000000000000000000000000000000000000000000081526004016107439061156f565b60405180910390fd5b61075581610dff565b50565b600033905090565b600073ffffffffffffffffffffffffffffffffffffffff168373ffffffffffffffffffffffffffffffffffffffff16036107cf576040517f08c379a00000000000000000000000000000000000000000000000000000000081526004016107c690611601565b60405180910390fd5b600073ffffffffffffffffffffffffffffffffffffffff168273ffffffffffffffffffffffffffffffffffffffff160361083e576040517f08c379a000000000000000000000000000000000000000000000000000000000815260040161083590611693565b60405180910390fd5b80600160008573ffffffffffffffffffffffffffffffffffffffff1673ffffffffffffffffffffffffffffffffffffffff16815260200190815260200160002060008473ffffffffffffffffffffffffffffffffffffffff1673ffffffffffffffffffffffffffffffffffffffff168152602001908152602001600020819055508173ffffffffffffffffffffffffffffffffffffffff168373ffffffffffffffffffffffffffffffffffffffff167f8c5be1e5ebec7d5bd14f71427d1e84f3dd0314c0f7b2291e5b200ac8c7c3b9258360405161091c919061126c565b60405180910390a3505050565b6000610935848461064e565b90507fffffffffffffffffffffffffffffffffffffffffffffffffffffffffffffffff81146109af57818110156109a1576040517f08c379a0000000000000000000000000000000000000000000000000000000008152600401610998906116ff565b60405180910390fd5b6109ae8484848403610760565b5b50505050565b600073ffffffffffffffffffffffffffffffffffffffff168373ffffffffffffffffffffffffffffffffffffffff1603610a24576040517f08c379a0000000000000000000000000000000000000000000000000000000008152600401610a1b90611791565b60405180910390fd5b600073ffffffffffffffffffffffffffffffffffffffff168273ffffffffffffffffffffffffffffffffffffffff1603610a93576040517f08c379a0000000000000000000000000000000000000000000000000000000008152600401610a8a90611823565b60405180910390fd5b610a9e838383611092565b60008060008573ffffffffffffffffffffffffffffffffffffffff1673ffffffffffffffffffffffffffffffffffffffff16815260200190815260200160002054905081811015610b24576040517f08c379a0000000000000000000000000000000000000000000000000000000008152600401610b1b906118b5565b60405180910390fd5b8181036000808673ffffffffffffffffffffffffffffffffffffffff1673ffffffffffffffffffffffffffffffffffffffff16815260200190815260200160002081905550816000808573ffffffffffffffffffffffffffffffffffffffff1673ffffffffffffffffffffffffffffffffffffffff168152602001908152602001600020600082825401925050819055508273ffffffffffffffffffffffffffffffffffffffff168473ffffffffffffffffffffffffffffffffffffffff167fddf252ad1be2c89b69c2b068fc378daa952ba7f163c4a11628f55a4df523b3ef84604051610c12919061126c565b60405180910390a3610c25848484611097565b50505050565b610c33610758565b73ffffffffffffffffffffffffffffffffffffffff16610c516104e9565b73ffffffffffffffffffffffffffffffffffffffff1614610ca7576040517f08c379a0000000000000000000000000000000000000000000000000000000008152600401610c9e90611921565b60405180910390fd5b565b600073ffffffffffffffffffffffffffffffffffffffff168273ffffffffffffffffffffffffffffffffffffffff1603610d18576040517f08c379a0000000000000000000000000000000000000000000000000000000008152600401610d0f9061198d565b60405180910390fd5b610d2460008383611092565b8060026000828254610d369190611437565b92505081905550806000808473ffffffffffffffffffffffffffffffffffffffff1673ffffffffffffffffffffffffffffffffffffffff168152602001908152602001600020600082825401925050819055508173ffffffffffffffffffffffffffffffffffffffff16600073ffffffffffffffffffffffffffffffffffffffff167fddf252ad1be2c89b69c2b068fc378daa952ba7f163c4a11628f55a4df523b3ef83604051610de7919061126c565b60405180910390a3610dfb60008383611097565b5050565b6000600560009054906101000a900473ffffffffffffffffffffffffffffffffffffffff16905081600560006101000a81548173ffffffffffffffffffffffffffffffffffffffff021916908373ffffffffffffffffffffffffffffffffffffffff1602179055508173ffffffffffffffffffffffffffffffffffffffff168173ffffffffffffffffffffffffffffffffffffffff167f8be0079c531659141344cd1fd0a4f28419497f9722a3daafe3b4186f6b6457e060405160405180910390a35050565b600073ffffffffffffffffffffffffffffffffffffffff168273ffffffffffffffffffffffffffffffffffffffff1603610f34576040517f08c379a0000000000000000000000000000000000000000000000000000000008152600401610f2b90611a1f565b60405180910390fd5b610f4082600083611092565b60008060008473ffffffffffffffffffffffffffffffffffffffff1673ffffffffffffffffffffffffffffffffffffffff16815260200190815260200160002054905081811015610fc6576040517f08c379a0000000000000000000000000000000000000000000000000000000008152600401610fbd90611ab1565b60405180910390fd5b8181036000808573ffffffffffffffffffffffffffffffffffffffff1673ffffffffffffffffffffffffffffffffffffffff1681526020019081526020016000208190555081600260008282540392505081905550600073ffffffffffffffffffffffffffffffffffffffff168373ffffffffffffffffffffffffffffffffffffffff167fddf252ad1be2c89b69c2b068fc378daa952ba7f163c4a11628f55a4df523b3ef84604051611079919061126c565b60405180910390a361108d83600084611097565b505050565b505050565b505050565b600081519050919050565b600082825260208201905092915050565b60005b838110156110d65780820151818401526020810190506110bb565b60008484015250505050565b6000601f19601f8301169050919050565b60006110fe8261109c565b61110881856110a7565b93506111188185602086016110b8565b611121816110e2565b840191505092915050565b6000602082019050818103600083015261114681846110f3565b905092915050565b600080fd5b600073ffffffffffffffffffffffffffffffffffffffff82169050919050565b600061117e82611153565b9050919050565b61118e81611173565b811461119957600080fd5b50565b6000813590506111ab81611185565b92915050565b6000819050919050565b6111c4816111b1565b81146111cf57600080fd5b50565b6000813590506111e1816111bb565b92915050565b600080604083850312156111fe576111fd61114e565b5b600061120c8582860161119c565b925050602061121d858286016111d2565b9150509250929050565b60008115159050919050565b61123c81611227565b82525050565b60006020820190506112576000830184611233565b92915050565b611266816111b1565b82525050565b6000602082019050611281600083018461125d565b92915050565b6000806000606084860312156112a05761129f61114e565b5b60006112ae8682870161119c565b93505060206112bf8682870161119c565b92505060406112d0868287016111d2565b9150509250925092565b600060ff82169050919050565b6112f0816112da565b82525050565b600060208201905061130b60008301846112e7565b92915050565b6000602082840312156113275761132661114e565b5b60006113358482850161119c565b91505092915050565b61134781611173565b82525050565b6000602082019050611362600083018461133e565b92915050565b6000806040838503121561137f5761137e61114e565b5b600061138d8582860161119c565b925050602061139e8582860161119c565b9150509250929050565b7f4e487b7100000000000000000000000000000000000000000000000000000000600052602260045260246000fd5b600060028204905060018216806113ef57607f821691505b602082108103611402576114016113a8565b5b50919050565b7f4e487b7100000000000000000000000000000000000000000000000000000000600052601160045260246000fd5b6000611442826111b1565b915061144d836111b1565b925082820190508082111561146557611464611408565b5b92915050565b7f45524332303a2064656372656173656420616c6c6f77616e63652062656c6f7760008201527f207a65726f000000000000000000000000000000000000000000000000000000602082015250565b60006114c76025836110a7565b91506114d28261146b565b604082019050919050565b600060208201905081810360008301526114f6816114ba565b9050919050565b7f4f776e61626c653a206e6577206f776e657220697320746865207a65726f206160008201527f6464726573730000000000000000000000000000000000000000000000000000602082015250565b60006115596026836110a7565b9150611564826114fd565b604082019050919050565b600060208201905081810360008301526115888161154c565b9050919050565b7f45524332303a20617070726f76652066726f6d20746865207a65726f2061646460008201527f7265737300000000000000000000000000000000000000000000000000000000602082015250565b60006115eb6024836110a7565b91506115f68261158f565b604082019050919050565b6000602082019050818103600083015261161a816115de565b9050919050565b7f45524332303a20617070726f766520746f20746865207a65726f20616464726560008201527f7373000000000000000000000000000000000000000000000000000000000000602082015250565b600061167d6022836110a7565b915061168882611621565b604082019050919050565b600060208201905081810360008301526116ac81611670565b9050919050565b7f45524332303a20696e73756666696369656e7420616c6c6f77616e6365000000600082015250565b60006116e9601d836110a7565b91506116f4826116b3565b602082019050919050565b60006020820190508181036000830152611718816116dc565b9050919050565b7f45524332303a207472616e736665722066726f6d20746865207a65726f20616460008201527f6472657373000000000000000000000000000000000000000000000000000000602082015250565b600061177b6025836110a7565b91506117868261171f565b604082019050919050565b600060208201905081810360008301526117aa8161176e565b9050919050565b7f45524332303a207472616e7366657220746f20746865207a65726f206164647260008201527f6573730000000000000000000000000000000000000000000000000000000000602082015250565b600061180d6023836110a7565b9150611818826117b1565b604082019050919050565b6000602082019050818103600083015261183c81611800565b9050919050565b7f45524332303a207472616e7366657220616d6f756e742065786365656473206260008201527f616c616e63650000000000000000000000000000000000000000000000000000602082015250565b600061189f6026836110a7565b91506118aa82611843565b604082019050919050565b600060208201905081810360008301526118ce81611892565b9050919050565b7f4f776e61626c653a2063616c6c6572206973206e6f7420746865206f776e6572600082015250565b600061190b6020836110a7565b9150611916826118d5565b602082019050919050565b6000602082019050818103600083015261193a816118fe565b9050919050565b7f45524332303a206d696e7420746f20746865207a65726f206164647265737300600082015250565b6000611977601f836110a7565b915061198282611941565b602082019050919050565b600060208201905081810360008301526119a68161196a565b9050919050565b7f45524332303a206275726e2066726f6d20746865207a65726f2061646472657360008201527f7300000000000000000000000000000000000000000000000000000000000000602082015250565b6000611a096021836110a7565b9150611a14826119ad565b604082019050919050565b60006020820190508181036000830152611a38816119fc565b9050919050565b7f45524332303a206275726e20616d6f756e7420657863656564732062616c616e60008201527f6365000000000000000000000000000000000000000000000000000000000000602082015250565b6000611a9b6022836110a7565b9150611aa682611a3f565b604082019050919050565b60006020820190508181036000830152611aca81611a8e565b905091905056fea2646970667358221220ef7305c47515c0a0f9ed91e712c8ce5aaf6f5068c2ddce243bff9b83c4774a2364736f6c63430008110033",
  "devdoc": {
    "author": "Okwuosa Chijioke",
    "details": "This implements 2 ERC-20 tokens that will be minted in exactly the same proportion as the underlying ERC-20 token transferred into the Factory contract. The asset will be burned in exactly the same proportion when asked to redeem/withdrawal the underlying asset. The contract will implement periodic rebalancing",
    "kind": "dev",
    "methods": {},
    "title": "ERC-20 Rebase Tokens",
    "version": 1
  },
  "userdoc": {
    "kind": "user",
    "methods": {},
    "notice": "Still under development",
    "version": 1
  },
  "storageLayout": {
    "storage": [
      {
        "astId": 169,
        "contract": "contracts/TokenFactory.sol:TokenFactory",
        "label": "_status",
        "offset": 0,
        "slot": "0",
        "type": "t_uint256"
      },
      {
        "astId": 1887,
        "contract": "contracts/TokenFactory.sol:TokenFactory",
        "label": "s_scallingFactorX",
        "offset": 0,
        "slot": "1",
        "type": "t_array(t_uint256)dyn_storage"
      },
      {
        "astId": 1891,
        "contract": "contracts/TokenFactory.sol:TokenFactory",
        "label": "s_devTokenArray",
        "offset": 0,
        "slot": "2",
        "type": "t_array(t_contract(DevToken)1865)dyn_storage"
      },
      {
        "astId": 1900,
        "contract": "contracts/TokenFactory.sol:TokenFactory",
        "label": "s_lastRebaseCount",
        "offset": 0,
        "slot": "3",
        "type": "t_mapping(t_address,t_uint256)"
      }
    ],
    "types": {
      "t_address": {
        "encoding": "inplace",
        "label": "address",
        "numberOfBytes": "20"
      },
      "t_array(t_contract(DevToken)1865)dyn_storage": {
        "base": "t_contract(DevToken)1865",
        "encoding": "dynamic_array",
        "label": "contract DevToken[]",
        "numberOfBytes": "32"
      },
      "t_array(t_uint256)dyn_storage": {
        "base": "t_uint256",
        "encoding": "dynamic_array",
        "label": "uint256[]",
        "numberOfBytes": "32"
      },
      "t_contract(DevToken)1865": {
        "encoding": "inplace",
        "label": "contract DevToken",
        "numberOfBytes": "20"
      },
      "t_mapping(t_address,t_uint256)": {
        "encoding": "mapping",
        "key": "t_address",
        "label": "mapping(address => uint256)",
        "numberOfBytes": "32",
        "value": "t_uint256"
      },
      "t_uint256": {
        "encoding": "inplace",
        "label": "uint256",
        "numberOfBytes": "32"
      }
    }
  }
}