{
  "address": "0xa513E6E4b8f2a923D98304ec87F64353C4D5C853",
  "abi": [
    {
      "inputs": [
        {
          "internalType": "address",
          "name": "baseTokenAddress",
          "type": "address"
        },
        {
          "internalType": "address",
          "name": "priceFeedAddress",
          "type": "address"
        },
        {
          "internalType": "string",
          "name": "token1Name",
          "type": "string"
        },
        {
          "internalType": "string",
          "name": "token1Symbol",
          "type": "string"
        },
        {
          "internalType": "string",
          "name": "token2Name",
          "type": "string"
        },
        {
          "internalType": "string",
          "name": "token2Symbol",
          "type": "string"
        }
      ],
      "stateMutability": "nonpayable",
      "type": "constructor"
    },
    {
      "inputs": [],
      "name": "TokenFactory__InsufficientFund",
      "type": "error"
    },
    {
      "anonymous": false,
      "inputs": [
        {
          "indexed": true,
          "internalType": "address",
          "name": "recipient",
          "type": "address"
        },
        {
          "indexed": false,
          "internalType": "uint256",
          "name": "amount",
          "type": "uint256"
        }
      ],
      "name": "AssetBought",
      "type": "event"
    },
    {
      "anonymous": false,
      "inputs": [
        {
          "indexed": true,
          "internalType": "address",
          "name": "owner",
          "type": "address"
        },
        {
          "indexed": false,
          "internalType": "uint256",
          "name": "amount",
          "type": "uint256"
        }
      ],
      "name": "AssetWithdrawn",
      "type": "event"
    },
    {
      "inputs": [
        {
          "internalType": "uint256",
          "name": "_devTokenIndex",
          "type": "uint256"
        },
        {
          "internalType": "address",
          "name": "_owner",
          "type": "address"
        }
      ],
      "name": "balanceOf",
      "outputs": [
        {
          "internalType": "uint256",
          "name": "",
          "type": "uint256"
        }
      ],
      "stateMutability": "view",
      "type": "function"
    },
    {
      "inputs": [],
      "name": "buyAsset",
      "outputs": [],
      "stateMutability": "payable",
      "type": "function"
    },
    {
      "inputs": [],
      "name": "getBaseTokenAddress",
      "outputs": [
        {
          "internalType": "address",
          "name": "",
          "type": "address"
        }
      ],
      "stateMutability": "view",
      "type": "function"
    },
    {
      "inputs": [],
      "name": "getPriceFeedAddress",
      "outputs": [
        {
          "internalType": "contract AggregatorV3Interface",
          "name": "",
          "type": "address"
        }
      ],
      "stateMutability": "view",
      "type": "function"
    },
    {
      "inputs": [
        {
          "internalType": "uint256",
          "name": "index",
          "type": "uint256"
        }
      ],
      "name": "getScallingFactor",
      "outputs": [
        {
          "components": [
            {
              "internalType": "uint256",
              "name": "scallingFactorX",
              "type": "uint256"
            },
            {
              "internalType": "uint256",
              "name": "scallingFactorY",
              "type": "uint256"
            }
          ],
          "internalType": "struct TokenFactory.scallingFactor",
          "name": "",
          "type": "tuple"
        }
      ],
      "stateMutability": "view",
      "type": "function"
    },
    {
      "inputs": [],
      "name": "getScallingFactorLength",
      "outputs": [
        {
          "internalType": "uint256",
          "name": "",
          "type": "uint256"
        }
      ],
      "stateMutability": "view",
      "type": "function"
    },
    {
      "inputs": [],
      "name": "rebase",
      "outputs": [],
      "stateMutability": "nonpayable",
      "type": "function"
    },
    {
      "inputs": [
        {
          "internalType": "uint256",
          "name": "_devTokenIndex",
          "type": "uint256"
        },
        {
          "internalType": "address",
          "name": "to",
          "type": "address"
        },
        {
          "internalType": "uint256",
          "name": "value",
          "type": "uint256"
        }
      ],
      "name": "transfer",
      "outputs": [
        {
          "internalType": "bool",
          "name": "",
          "type": "bool"
        }
      ],
      "stateMutability": "nonpayable",
      "type": "function"
    },
    {
      "inputs": [
        {
          "internalType": "uint256",
          "name": "_amount",
          "type": "uint256"
        }
      ],
      "name": "withdrawAsset",
      "outputs": [],
      "stateMutability": "nonpayable",
      "type": "function"
    }
  ],
  "transactionHash": "0x516a3a7ea1b8ef2f886549773cad7c8e80653ba9d811cf457421de42fce14257",
  "args": [
    "0x7ceB23fD6bC0adD59E62ac25578270cFf1b9f619",
    "0x0165878A594ca255338adfa4d48449f69242Eb8F",
    "RistP One",
    "R1",
    "RistP Two",
    "R2"
  ],
  "numDeployments": 1,
  "solcInputHash": "ea3aa2c0a449ec0b5eac32f7d8baa28b",
  "bytecode": "0x60c06040523480156200001157600080fd5b5060405162003fb838038062003fb88339818101604052810190620000379190620003ff565b60016000819055508573ffffffffffffffffffffffffffffffffffffffff1660808173ffffffffffffffffffffffffffffffffffffffff16815250508473ffffffffffffffffffffffffffffffffffffffff1660a08173ffffffffffffffffffffffffffffffffffffffff168152505060008484604051620000b990620001f9565b620000c692919062000574565b604051809103906000f080158015620000e3573d6000803e3d6000fd5b5090506002819080600181540180825580915050600190039060005260206000200160009091909190916101000a81548173ffffffffffffffffffffffffffffffffffffffff021916908373ffffffffffffffffffffffffffffffffffffffff160217905550600083836040516200015b90620001f9565b6200016892919062000574565b604051809103906000f08015801562000185573d6000803e3d6000fd5b5090506002819080600181540180825580915050600190039060005260206000200160009091909190916101000a81548173ffffffffffffffffffffffffffffffffffffffff021916908373ffffffffffffffffffffffffffffffffffffffff1602179055505050505050505050620005af565b6121e38062001dd583390190565b6000604051905090565b600080fd5b600080fd5b600073ffffffffffffffffffffffffffffffffffffffff82169050919050565b600062000248826200021b565b9050919050565b6200025a816200023b565b81146200026657600080fd5b50565b6000815190506200027a816200024f565b92915050565b600080fd5b600080fd5b6000601f19601f8301169050919050565b7f4e487b7100000000000000000000000000000000000000000000000000000000600052604160045260246000fd5b620002d5826200028a565b810181811067ffffffffffffffff82111715620002f757620002f66200029b565b5b80604052505050565b60006200030c62000207565b90506200031a8282620002ca565b919050565b600067ffffffffffffffff8211156200033d576200033c6200029b565b5b62000348826200028a565b9050602081019050919050565b60005b838110156200037557808201518184015260208101905062000358565b60008484015250505050565b60006200039862000392846200031f565b62000300565b905082815260208101848484011115620003b757620003b662000285565b5b620003c484828562000355565b509392505050565b600082601f830112620003e457620003e362000280565b5b8151620003f684826020860162000381565b91505092915050565b60008060008060008060c087890312156200041f576200041e62000211565b5b60006200042f89828a0162000269565b96505060206200044289828a0162000269565b955050604087015167ffffffffffffffff81111562000466576200046562000216565b5b6200047489828a01620003cc565b945050606087015167ffffffffffffffff81111562000498576200049762000216565b5b620004a689828a01620003cc565b935050608087015167ffffffffffffffff811115620004ca57620004c962000216565b5b620004d889828a01620003cc565b92505060a087015167ffffffffffffffff811115620004fc57620004fb62000216565b5b6200050a89828a01620003cc565b9150509295509295509295565b600081519050919050565b600082825260208201905092915050565b6000620005408262000517565b6200054c818562000522565b93506200055e81856020860162000355565b62000569816200028a565b840191505092915050565b6000604082019050818103600083015262000590818562000533565b90508181036020830152620005a6818462000533565b90509392505050565b60805160a0516117f9620005dc60003960008181610211015261081b0152600061065e01526117f96000f3fe6080604052600436106100865760003560e01c80638d92fdf3116100595780638d92fdf3146101495780639fbaf13114610172578063af14052c1461017c578063e5fc402a14610193578063f8548e36146101d057610086565b80630f0f30b21461008b5780633656eec2146100b65780634df947d0146100f357806378c1a6c41461011e575b600080fd5b34801561009757600080fd5b506100a061020d565b6040516100ad91906111a8565b60405180910390f35b3480156100c257600080fd5b506100dd60048036038101906100d8919061123c565b610235565b6040516100ea919061128b565b60405180910390f35b3480156100ff57600080fd5b5061010861065a565b60405161011591906112b5565b60405180910390f35b34801561012a57600080fd5b50610133610682565b604051610140919061128b565b60405180910390f35b34801561015557600080fd5b50610170600480360381019061016b91906112d0565b61068f565b005b61017a610793565b005b34801561018857600080fd5b5061019161080b565b005b34801561019f57600080fd5b506101ba60048036038101906101b591906112d0565b610951565b6040516101c7919061133b565b60405180910390f35b3480156101dc57600080fd5b506101f760048036038101906101f29190611356565b6109a1565b60405161020491906113c4565b60405180910390f35b60007f0000000000000000000000000000000000000000000000000000000000000000905090565b600061023f610682565b600360003373ffffffffffffffffffffffffffffffffffffffff1673ffffffffffffffffffffffffffffffffffffffff168152602001908152602001600020541461055b576102c26040518060400160405280600d81526020017f726562617365206e656564656400000000000000000000000000000000000000815250610a04565b60006001600360003373ffffffffffffffffffffffffffffffffffffffff1673ffffffffffffffffffffffffffffffffffffffff1681526020019081526020016000205481548110610317576103166113df565b5b906000526020600020906002020160000154905060006001600360003373ffffffffffffffffffffffffffffffffffffffff1673ffffffffffffffffffffffffffffffffffffffff16815260200190815260200160002054815481106103805761037f6113df565b5b9060005260206000209060020201600101549050600081670de0b6b3a764000060026001815481106103b5576103b46113df565b5b9060005260206000200160009054906101000a900473ffffffffffffffffffffffffffffffffffffffff1673ffffffffffffffffffffffffffffffffffffffff166370a08231886040518263ffffffff1660e01b815260040161041891906112b5565b602060405180830381865afa158015610435573d6000803e3d6000fd5b505050506040513d601f19601f820116820180604052508101906104599190611423565b61046391906114ae565b61046d91906114df565b83670de0b6b3a7640000600260008154811061048c5761048b6113df565b5b9060005260206000200160009054906101000a900473ffffffffffffffffffffffffffffffffffffffff1673ffffffffffffffffffffffffffffffffffffffff166370a08231896040518263ffffffff1660e01b81526004016104ef91906112b5565b602060405180830381865afa15801561050c573d6000803e3d6000fd5b505050506040513d601f19601f820116820180604052508101906105309190611423565b61053a91906114ae565b61054491906114df565b61054e9190611521565b9050809350505050610654565b6105996040518060400160405280601181526020017f726562617365206e6f74206e6565646564000000000000000000000000000000815250610a04565b600283815481106105ad576105ac6113df565b5b9060005260206000200160009054906101000a900473ffffffffffffffffffffffffffffffffffffffff1673ffffffffffffffffffffffffffffffffffffffff166370a08231836040518263ffffffff1660e01b815260040161061091906112b5565b602060405180830381865afa15801561062d573d6000803e3d6000fd5b505050506040513d601f19601f820116820180604052508101906106519190611423565b90505b92915050565b60007f0000000000000000000000000000000000000000000000000000000000000000905090565b6000600180549050905090565b610697610a9d565b6106a2600033610235565b8111156106db576040517fd9f6ddd900000000000000000000000000000000000000000000000000000000815260040160405180910390fd5b6106e760003383610aec565b6106f360013383610aec565b3373ffffffffffffffffffffffffffffffffffffffff166108fc829081150290604051600060405180830381858888f19350505050158015610739573d6000803e3d6000fd5b503373ffffffffffffffffffffffffffffffffffffffff167f94b055d454fefc95ba06924afbaac83912b1575d621a7d32a4675303246bb7d082604051610780919061128b565b60405180910390a2610790610b9c565b50565b61079b610a9d565b6107a760003334610ba6565b6107b360013334610ba6565b3373ffffffffffffffffffffffffffffffffffffffff167f1043b9f778084a8d3cd9af8b3e347f91d1f9f75697034f065aac775937fe79d4346040516107f9919061128b565b60405180910390a2610809610b9c565b565b6000670de0b6b3a76400006108557f000000000000000000000000000000000000000000000000000000000000000073ffffffffffffffffffffffffffffffffffffffff16610c56565b61085f91906114ae565b90506000610877600383610cd790919063ffffffff16565b9050600081836108879190611555565b9050600061089f600285610cd790919063ffffffff16565b905060016040518060400160405280836002670de0b6b3a7640000886108c591906114df565b6108cf91906114ae565b6108d991906114ae565b8152602001836002670de0b6b3a7640000876108f591906114df565b6108ff91906114ae565b61090991906114ae565b81525090806001815401808255809150506001900390600052602060002090600202016000909190919091506000820151816000015560208201518160010155505050505050565b61095961110f565b6001828154811061096d5761096c6113df565b5b9060005260206000209060020201604051806040016040529081600082015481526020016001820154815250509050919050565b60006109ab610682565b600360003373ffffffffffffffffffffffffffffffffffffffff1673ffffffffffffffffffffffffffffffffffffffff16815260200190815260200160002054146109f9576109f8610d14565b5b600190509392505050565b610a9a81604051602401610a189190611619565b6040516020818303038152906040527f41304fac000000000000000000000000000000000000000000000000000000007bffffffffffffffffffffffffffffffffffffffffffffffffffffffff19166020820180517bffffffffffffffffffffffffffffffffffffffffffffffffffffffff83818316178352505050506110e6565b50565b600260005403610ae2576040517f08c379a0000000000000000000000000000000000000000000000000000000008152600401610ad990611687565b60405180910390fd5b6002600081905550565b60028381548110610b0057610aff6113df565b5b9060005260206000200160009054906101000a900473ffffffffffffffffffffffffffffffffffffffff1673ffffffffffffffffffffffffffffffffffffffff16639dc29fac83836040518363ffffffff1660e01b8152600401610b659291906116a7565b600060405180830381600087803b158015610b7f57600080fd5b505af1158015610b93573d6000803e3d6000fd5b50505050505050565b6001600081905550565b60028381548110610bba57610bb96113df565b5b9060005260206000200160009054906101000a900473ffffffffffffffffffffffffffffffffffffffff1673ffffffffffffffffffffffffffffffffffffffff166340c10f1983836040518363ffffffff1660e01b8152600401610c1f9291906116a7565b600060405180830381600087803b158015610c3957600080fd5b505af1158015610c4d573d6000803e3d6000fd5b50505050505050565b6000808273ffffffffffffffffffffffffffffffffffffffff1663feaf968c6040518163ffffffff1660e01b815260040160a060405180830381865afa158015610ca4573d6000803e3d6000fd5b505050506040513d601f19601f82011682018060405250810190610cc89190611748565b50505091505080915050919050565b6000808314610d0957600182600185610cf09190611555565b610cfa91906114ae565b610d049190611521565b610d0c565b60005b905092915050565b610d526040518060400160405280600f81526020017f6170706c79696e67207265626173650000000000000000000000000000000000815250610a04565b60006001600360003373ffffffffffffffffffffffffffffffffffffffff1673ffffffffffffffffffffffffffffffffffffffff1681526020019081526020016000205481548110610da757610da66113df565b5b906000526020600020906002020160000154905060006001600360003373ffffffffffffffffffffffffffffffffffffffff1673ffffffffffffffffffffffffffffffffffffffff1681526020019081526020016000205481548110610e1057610e0f6113df565b5b90600052602060002090600202016001015490506000670de0b6b3a76400006002600081548110610e4457610e436113df565b5b9060005260206000200160009054906101000a900473ffffffffffffffffffffffffffffffffffffffff1673ffffffffffffffffffffffffffffffffffffffff166370a08231336040518263ffffffff1660e01b8152600401610ea791906112b5565b602060405180830381865afa158015610ec4573d6000803e3d6000fd5b505050506040513d601f19601f82011682018060405250810190610ee89190611423565b610ef291906114ae565b90506000670de0b6b3a76400006002600181548110610f1457610f136113df565b5b9060005260206000200160009054906101000a900473ffffffffffffffffffffffffffffffffffffffff1673ffffffffffffffffffffffffffffffffffffffff166370a08231336040518263ffffffff1660e01b8152600401610f7791906112b5565b602060405180830381865afa158015610f94573d6000803e3d6000fd5b505050506040513d601f19601f82011682018060405250810190610fb89190611423565b610fc291906114ae565b90506000670de0b6b3a764000083610fda91906114df565b90506000670de0b6b3a764000083610ff291906114df565b90506000858461100291906114df565b878661100e91906114df565b6110189190611521565b90508281111561103e5761103960003385846110349190611555565b610ba6565b611056565b61105560003383866110509190611555565b610aec565b5b8181111561107a5761107560013384846110709190611555565b610ba6565b611092565b611091600133838561108c9190611555565b610aec565b5b61109a610682565b600360003373ffffffffffffffffffffffffffffffffffffffff1673ffffffffffffffffffffffffffffffffffffffff1681526020019081526020016000208190555050505050505050565b60008151905060006a636f6e736f6c652e6c6f679050602083016000808483855afa5050505050565b604051806040016040528060008152602001600081525090565b600073ffffffffffffffffffffffffffffffffffffffff82169050919050565b6000819050919050565b600061116e61116961116484611129565b611149565b611129565b9050919050565b600061118082611153565b9050919050565b600061119282611175565b9050919050565b6111a281611187565b82525050565b60006020820190506111bd6000830184611199565b92915050565b600080fd5b6000819050919050565b6111db816111c8565b81146111e657600080fd5b50565b6000813590506111f8816111d2565b92915050565b600061120982611129565b9050919050565b611219816111fe565b811461122457600080fd5b50565b60008135905061123681611210565b92915050565b60008060408385031215611253576112526111c3565b5b6000611261858286016111e9565b925050602061127285828601611227565b9150509250929050565b611285816111c8565b82525050565b60006020820190506112a0600083018461127c565b92915050565b6112af816111fe565b82525050565b60006020820190506112ca60008301846112a6565b92915050565b6000602082840312156112e6576112e56111c3565b5b60006112f4848285016111e9565b91505092915050565b611306816111c8565b82525050565b60408201600082015161132260008501826112fd565b50602082015161133560208501826112fd565b50505050565b6000604082019050611350600083018461130c565b92915050565b60008060006060848603121561136f5761136e6111c3565b5b600061137d868287016111e9565b935050602061138e86828701611227565b925050604061139f868287016111e9565b9150509250925092565b60008115159050919050565b6113be816113a9565b82525050565b60006020820190506113d960008301846113b5565b92915050565b7f4e487b7100000000000000000000000000000000000000000000000000000000600052603260045260246000fd5b60008151905061141d816111d2565b92915050565b600060208284031215611439576114386111c3565b5b60006114478482850161140e565b91505092915050565b7f4e487b7100000000000000000000000000000000000000000000000000000000600052601260045260246000fd5b7f4e487b7100000000000000000000000000000000000000000000000000000000600052601160045260246000fd5b60006114b9826111c8565b91506114c4836111c8565b9250826114d4576114d3611450565b5b828204905092915050565b60006114ea826111c8565b91506114f5836111c8565b9250828202611503816111c8565b9150828204841483151761151a5761151961147f565b5b5092915050565b600061152c826111c8565b9150611537836111c8565b925082820190508082111561154f5761154e61147f565b5b92915050565b6000611560826111c8565b915061156b836111c8565b92508282039050818111156115835761158261147f565b5b92915050565b600081519050919050565b600082825260208201905092915050565b60005b838110156115c35780820151818401526020810190506115a8565b60008484015250505050565b6000601f19601f8301169050919050565b60006115eb82611589565b6115f58185611594565b93506116058185602086016115a5565b61160e816115cf565b840191505092915050565b6000602082019050818103600083015261163381846115e0565b905092915050565b7f5265656e7472616e637947756172643a207265656e7472616e742063616c6c00600082015250565b6000611671601f83611594565b915061167c8261163b565b602082019050919050565b600060208201905081810360008301526116a081611664565b9050919050565b60006040820190506116bc60008301856112a6565b6116c9602083018461127c565b9392505050565b600069ffffffffffffffffffff82169050919050565b6116ef816116d0565b81146116fa57600080fd5b50565b60008151905061170c816116e6565b92915050565b6000819050919050565b61172581611712565b811461173057600080fd5b50565b6000815190506117428161171c565b92915050565b600080600080600060a08688031215611764576117636111c3565b5b6000611772888289016116fd565b955050602061178388828901611733565b94505060406117948882890161140e565b93505060606117a58882890161140e565b92505060806117b6888289016116fd565b915050929550929590935056fea2646970667358221220bcad1567b27a825009ce50d5f9b114a566b648fda6e9eb5108f8a28744cab54a64736f6c6343000811003360806040523480156200001157600080fd5b50604051620021e3380380620021e38339818101604052810190620000379190620002e8565b818181600390816200004a9190620005b8565b5080600490816200005c9190620005b8565b5050506200007f620000736200008760201b60201c565b6200008f60201b60201c565b50506200069f565b600033905090565b6000600560009054906101000a900473ffffffffffffffffffffffffffffffffffffffff16905081600560006101000a81548173ffffffffffffffffffffffffffffffffffffffff021916908373ffffffffffffffffffffffffffffffffffffffff1602179055508173ffffffffffffffffffffffffffffffffffffffff168173ffffffffffffffffffffffffffffffffffffffff167f8be0079c531659141344cd1fd0a4f28419497f9722a3daafe3b4186f6b6457e060405160405180910390a35050565b6000604051905090565b600080fd5b600080fd5b600080fd5b600080fd5b6000601f19601f8301169050919050565b7f4e487b7100000000000000000000000000000000000000000000000000000000600052604160045260246000fd5b620001be8262000173565b810181811067ffffffffffffffff82111715620001e057620001df62000184565b5b80604052505050565b6000620001f562000155565b9050620002038282620001b3565b919050565b600067ffffffffffffffff82111562000226576200022562000184565b5b620002318262000173565b9050602081019050919050565b60005b838110156200025e57808201518184015260208101905062000241565b60008484015250505050565b6000620002816200027b8462000208565b620001e9565b905082815260208101848484011115620002a0576200029f6200016e565b5b620002ad8482856200023e565b509392505050565b600082601f830112620002cd57620002cc62000169565b5b8151620002df8482602086016200026a565b91505092915050565b600080604083850312156200030257620003016200015f565b5b600083015167ffffffffffffffff81111562000323576200032262000164565b5b6200033185828601620002b5565b925050602083015167ffffffffffffffff81111562000355576200035462000164565b5b6200036385828601620002b5565b9150509250929050565b600081519050919050565b7f4e487b7100000000000000000000000000000000000000000000000000000000600052602260045260246000fd5b60006002820490506001821680620003c057607f821691505b602082108103620003d657620003d562000378565b5b50919050565b60008190508160005260206000209050919050565b60006020601f8301049050919050565b600082821b905092915050565b600060088302620004407fffffffffffffffffffffffffffffffffffffffffffffffffffffffffffffffff8262000401565b6200044c868362000401565b95508019841693508086168417925050509392505050565b6000819050919050565b6000819050919050565b600062000499620004936200048d8462000464565b6200046e565b62000464565b9050919050565b6000819050919050565b620004b58362000478565b620004cd620004c482620004a0565b8484546200040e565b825550505050565b600090565b620004e4620004d5565b620004f1818484620004aa565b505050565b5b8181101562000519576200050d600082620004da565b600181019050620004f7565b5050565b601f82111562000568576200053281620003dc565b6200053d84620003f1565b810160208510156200054d578190505b620005656200055c85620003f1565b830182620004f6565b50505b505050565b600082821c905092915050565b60006200058d600019846008026200056d565b1980831691505092915050565b6000620005a883836200057a565b9150826002028217905092915050565b620005c3826200036d565b67ffffffffffffffff811115620005df57620005de62000184565b5b620005eb8254620003a7565b620005f88282856200051d565b600060209050601f8311600181146200063057600084156200061b578287015190505b6200062785826200059a565b86555062000697565b601f1984166200064086620003dc565b60005b828110156200066a5784890151825560018201915060208501945060208101905062000643565b868310156200068a578489015162000686601f8916826200057a565b8355505b6001600288020188555050505b505050505050565b611b3480620006af6000396000f3fe608060405234801561001057600080fd5b50600436106101005760003560e01c8063715018a611610097578063a457c2d711610066578063a457c2d71461029d578063a9059cbb146102cd578063dd62ed3e146102fd578063f2fde38b1461032d57610100565b8063715018a61461023b5780638da5cb5b1461024557806395d89b41146102635780639dc29fac1461028157610100565b8063313ce567116100d3578063313ce567146101a157806339509351146101bf57806340c10f19146101ef57806370a082311461020b57610100565b806306fdde0314610105578063095ea7b31461012357806318160ddd1461015357806323b872dd14610171575b600080fd5b61010d610349565b60405161011a9190611159565b60405180910390f35b61013d60048036038101906101389190611214565b6103db565b60405161014a919061126f565b60405180910390f35b61015b6103fe565b6040516101689190611299565b60405180910390f35b61018b600480360381019061018691906112b4565b610408565b604051610198919061126f565b60405180910390f35b6101a9610437565b6040516101b69190611323565b60405180910390f35b6101d960048036038101906101d49190611214565b610440565b6040516101e6919061126f565b60405180910390f35b61020960048036038101906102049190611214565b610477565b005b6102256004803603810190610220919061133e565b61048d565b6040516102329190611299565b60405180910390f35b61024361049f565b005b61024d6104b3565b60405161025a919061137a565b60405180910390f35b61026b6104dd565b6040516102789190611159565b60405180910390f35b61029b60048036038101906102969190611214565b61056f565b005b6102b760048036038101906102b29190611214565b610585565b6040516102c4919061126f565b60405180910390f35b6102e760048036038101906102e29190611214565b6105fc565b6040516102f4919061126f565b60405180910390f35b61031760048036038101906103129190611395565b610610565b6040516103249190611299565b60405180910390f35b6103476004803603810190610342919061133e565b610697565b005b60606003805461035890611404565b80601f016020809104026020016040519081016040528092919081815260200182805461038490611404565b80156103d15780601f106103a6576101008083540402835291602001916103d1565b820191906000526020600020905b8154815290600101906020018083116103b457829003601f168201915b5050505050905090565b6000806103e661071a565b90506103f3818585610722565b600191505092915050565b6000600254905090565b60008061041361071a565b90506104208582856108eb565b61042b858585610977565b60019150509392505050565b60006012905090565b60008061044b61071a565b905061046c81858561045d8589610610565b6104679190611464565b610722565b600191505092915050565b61047f610bed565b6104898282610c6b565b5050565b600061049882610dc1565b9050919050565b6104a7610bed565b6104b16000610e09565b565b6000600560009054906101000a900473ffffffffffffffffffffffffffffffffffffffff16905090565b6060600480546104ec90611404565b80601f016020809104026020016040519081016040528092919081815260200182805461051890611404565b80156105655780601f1061053a57610100808354040283529160200191610565565b820191906000526020600020905b81548152906001019060200180831161054857829003601f168201915b5050505050905090565b610577610bed565b6105818282610ecf565b5050565b60008061059061071a565b9050600061059e8286610610565b9050838110156105e3576040517f08c379a00000000000000000000000000000000000000000000000000000000081526004016105da9061150a565b60405180910390fd5b6105f08286868403610722565b60019250505092915050565b6000610608838361109c565b905092915050565b6000600160008473ffffffffffffffffffffffffffffffffffffffff1673ffffffffffffffffffffffffffffffffffffffff16815260200190815260200160002060008373ffffffffffffffffffffffffffffffffffffffff1673ffffffffffffffffffffffffffffffffffffffff16815260200190815260200160002054905092915050565b61069f610bed565b600073ffffffffffffffffffffffffffffffffffffffff168173ffffffffffffffffffffffffffffffffffffffff160361070e576040517f08c379a00000000000000000000000000000000000000000000000000000000081526004016107059061159c565b60405180910390fd5b61071781610e09565b50565b600033905090565b600073ffffffffffffffffffffffffffffffffffffffff168373ffffffffffffffffffffffffffffffffffffffff1603610791576040517f08c379a00000000000000000000000000000000000000000000000000000000081526004016107889061162e565b60405180910390fd5b600073ffffffffffffffffffffffffffffffffffffffff168273ffffffffffffffffffffffffffffffffffffffff1603610800576040517f08c379a00000000000000000000000000000000000000000000000000000000081526004016107f7906116c0565b60405180910390fd5b80600160008573ffffffffffffffffffffffffffffffffffffffff1673ffffffffffffffffffffffffffffffffffffffff16815260200190815260200160002060008473ffffffffffffffffffffffffffffffffffffffff1673ffffffffffffffffffffffffffffffffffffffff168152602001908152602001600020819055508173ffffffffffffffffffffffffffffffffffffffff168373ffffffffffffffffffffffffffffffffffffffff167f8c5be1e5ebec7d5bd14f71427d1e84f3dd0314c0f7b2291e5b200ac8c7c3b925836040516108de9190611299565b60405180910390a3505050565b60006108f78484610610565b90507fffffffffffffffffffffffffffffffffffffffffffffffffffffffffffffffff81146109715781811015610963576040517f08c379a000000000000000000000000000000000000000000000000000000000815260040161095a9061172c565b60405180910390fd5b6109708484848403610722565b5b50505050565b600073ffffffffffffffffffffffffffffffffffffffff168373ffffffffffffffffffffffffffffffffffffffff16036109e6576040517f08c379a00000000000000000000000000000000000000000000000000000000081526004016109dd906117be565b60405180910390fd5b600073ffffffffffffffffffffffffffffffffffffffff168273ffffffffffffffffffffffffffffffffffffffff1603610a55576040517f08c379a0000000000000000000000000000000000000000000000000000000008152600401610a4c90611850565b60405180910390fd5b610a608383836110bf565b60008060008573ffffffffffffffffffffffffffffffffffffffff1673ffffffffffffffffffffffffffffffffffffffff16815260200190815260200160002054905081811015610ae6576040517f08c379a0000000000000000000000000000000000000000000000000000000008152600401610add906118e2565b60405180910390fd5b8181036000808673ffffffffffffffffffffffffffffffffffffffff1673ffffffffffffffffffffffffffffffffffffffff16815260200190815260200160002081905550816000808573ffffffffffffffffffffffffffffffffffffffff1673ffffffffffffffffffffffffffffffffffffffff168152602001908152602001600020600082825401925050819055508273ffffffffffffffffffffffffffffffffffffffff168473ffffffffffffffffffffffffffffffffffffffff167fddf252ad1be2c89b69c2b068fc378daa952ba7f163c4a11628f55a4df523b3ef84604051610bd49190611299565b60405180910390a3610be78484846110c4565b50505050565b610bf561071a565b73ffffffffffffffffffffffffffffffffffffffff16610c136104b3565b73ffffffffffffffffffffffffffffffffffffffff1614610c69576040517f08c379a0000000000000000000000000000000000000000000000000000000008152600401610c609061194e565b60405180910390fd5b565b600073ffffffffffffffffffffffffffffffffffffffff168273ffffffffffffffffffffffffffffffffffffffff1603610cda576040517f08c379a0000000000000000000000000000000000000000000000000000000008152600401610cd1906119ba565b60405180910390fd5b610ce6600083836110bf565b8060026000828254610cf89190611464565b92505081905550806000808473ffffffffffffffffffffffffffffffffffffffff1673ffffffffffffffffffffffffffffffffffffffff168152602001908152602001600020600082825401925050819055508173ffffffffffffffffffffffffffffffffffffffff16600073ffffffffffffffffffffffffffffffffffffffff167fddf252ad1be2c89b69c2b068fc378daa952ba7f163c4a11628f55a4df523b3ef83604051610da99190611299565b60405180910390a3610dbd600083836110c4565b5050565b60008060008373ffffffffffffffffffffffffffffffffffffffff1673ffffffffffffffffffffffffffffffffffffffff168152602001908152602001600020549050919050565b6000600560009054906101000a900473ffffffffffffffffffffffffffffffffffffffff16905081600560006101000a81548173ffffffffffffffffffffffffffffffffffffffff021916908373ffffffffffffffffffffffffffffffffffffffff1602179055508173ffffffffffffffffffffffffffffffffffffffff168173ffffffffffffffffffffffffffffffffffffffff167f8be0079c531659141344cd1fd0a4f28419497f9722a3daafe3b4186f6b6457e060405160405180910390a35050565b600073ffffffffffffffffffffffffffffffffffffffff168273ffffffffffffffffffffffffffffffffffffffff1603610f3e576040517f08c379a0000000000000000000000000000000000000000000000000000000008152600401610f3590611a4c565b60405180910390fd5b610f4a826000836110bf565b60008060008473ffffffffffffffffffffffffffffffffffffffff1673ffffffffffffffffffffffffffffffffffffffff16815260200190815260200160002054905081811015610fd0576040517f08c379a0000000000000000000000000000000000000000000000000000000008152600401610fc790611ade565b60405180910390fd5b8181036000808573ffffffffffffffffffffffffffffffffffffffff1673ffffffffffffffffffffffffffffffffffffffff1681526020019081526020016000208190555081600260008282540392505081905550600073ffffffffffffffffffffffffffffffffffffffff168373ffffffffffffffffffffffffffffffffffffffff167fddf252ad1be2c89b69c2b068fc378daa952ba7f163c4a11628f55a4df523b3ef846040516110839190611299565b60405180910390a3611097836000846110c4565b505050565b6000806110a761071a565b90506110b4818585610977565b600191505092915050565b505050565b505050565b600081519050919050565b600082825260208201905092915050565b60005b838110156111035780820151818401526020810190506110e8565b60008484015250505050565b6000601f19601f8301169050919050565b600061112b826110c9565b61113581856110d4565b93506111458185602086016110e5565b61114e8161110f565b840191505092915050565b600060208201905081810360008301526111738184611120565b905092915050565b600080fd5b600073ffffffffffffffffffffffffffffffffffffffff82169050919050565b60006111ab82611180565b9050919050565b6111bb816111a0565b81146111c657600080fd5b50565b6000813590506111d8816111b2565b92915050565b6000819050919050565b6111f1816111de565b81146111fc57600080fd5b50565b60008135905061120e816111e8565b92915050565b6000806040838503121561122b5761122a61117b565b5b6000611239858286016111c9565b925050602061124a858286016111ff565b9150509250929050565b60008115159050919050565b61126981611254565b82525050565b60006020820190506112846000830184611260565b92915050565b611293816111de565b82525050565b60006020820190506112ae600083018461128a565b92915050565b6000806000606084860312156112cd576112cc61117b565b5b60006112db868287016111c9565b93505060206112ec868287016111c9565b92505060406112fd868287016111ff565b9150509250925092565b600060ff82169050919050565b61131d81611307565b82525050565b60006020820190506113386000830184611314565b92915050565b6000602082840312156113545761135361117b565b5b6000611362848285016111c9565b91505092915050565b611374816111a0565b82525050565b600060208201905061138f600083018461136b565b92915050565b600080604083850312156113ac576113ab61117b565b5b60006113ba858286016111c9565b92505060206113cb858286016111c9565b9150509250929050565b7f4e487b7100000000000000000000000000000000000000000000000000000000600052602260045260246000fd5b6000600282049050600182168061141c57607f821691505b60208210810361142f5761142e6113d5565b5b50919050565b7f4e487b7100000000000000000000000000000000000000000000000000000000600052601160045260246000fd5b600061146f826111de565b915061147a836111de565b925082820190508082111561149257611491611435565b5b92915050565b7f45524332303a2064656372656173656420616c6c6f77616e63652062656c6f7760008201527f207a65726f000000000000000000000000000000000000000000000000000000602082015250565b60006114f46025836110d4565b91506114ff82611498565b604082019050919050565b60006020820190508181036000830152611523816114e7565b9050919050565b7f4f776e61626c653a206e6577206f776e657220697320746865207a65726f206160008201527f6464726573730000000000000000000000000000000000000000000000000000602082015250565b60006115866026836110d4565b91506115918261152a565b604082019050919050565b600060208201905081810360008301526115b581611579565b9050919050565b7f45524332303a20617070726f76652066726f6d20746865207a65726f2061646460008201527f7265737300000000000000000000000000000000000000000000000000000000602082015250565b60006116186024836110d4565b9150611623826115bc565b604082019050919050565b600060208201905081810360008301526116478161160b565b9050919050565b7f45524332303a20617070726f766520746f20746865207a65726f20616464726560008201527f7373000000000000000000000000000000000000000000000000000000000000602082015250565b60006116aa6022836110d4565b91506116b58261164e565b604082019050919050565b600060208201905081810360008301526116d98161169d565b9050919050565b7f45524332303a20696e73756666696369656e7420616c6c6f77616e6365000000600082015250565b6000611716601d836110d4565b9150611721826116e0565b602082019050919050565b6000602082019050818103600083015261174581611709565b9050919050565b7f45524332303a207472616e736665722066726f6d20746865207a65726f20616460008201527f6472657373000000000000000000000000000000000000000000000000000000602082015250565b60006117a86025836110d4565b91506117b38261174c565b604082019050919050565b600060208201905081810360008301526117d78161179b565b9050919050565b7f45524332303a207472616e7366657220746f20746865207a65726f206164647260008201527f6573730000000000000000000000000000000000000000000000000000000000602082015250565b600061183a6023836110d4565b9150611845826117de565b604082019050919050565b600060208201905081810360008301526118698161182d565b9050919050565b7f45524332303a207472616e7366657220616d6f756e742065786365656473206260008201527f616c616e63650000000000000000000000000000000000000000000000000000602082015250565b60006118cc6026836110d4565b91506118d782611870565b604082019050919050565b600060208201905081810360008301526118fb816118bf565b9050919050565b7f4f776e61626c653a2063616c6c6572206973206e6f7420746865206f776e6572600082015250565b60006119386020836110d4565b915061194382611902565b602082019050919050565b600060208201905081810360008301526119678161192b565b9050919050565b7f45524332303a206d696e7420746f20746865207a65726f206164647265737300600082015250565b60006119a4601f836110d4565b91506119af8261196e565b602082019050919050565b600060208201905081810360008301526119d381611997565b9050919050565b7f45524332303a206275726e2066726f6d20746865207a65726f2061646472657360008201527f7300000000000000000000000000000000000000000000000000000000000000602082015250565b6000611a366021836110d4565b9150611a41826119da565b604082019050919050565b60006020820190508181036000830152611a6581611a29565b9050919050565b7f45524332303a206275726e20616d6f756e7420657863656564732062616c616e60008201527f6365000000000000000000000000000000000000000000000000000000000000602082015250565b6000611ac86022836110d4565b9150611ad382611a6c565b604082019050919050565b60006020820190508181036000830152611af781611abb565b905091905056fea264697066735822122013ca85e54013d9fa3dfd953228290c61452e93baf093728d6a696e1736b49dc764736f6c63430008110033",
  "devdoc": {
    "author": "Okwuosa Chijioke",
    "details": "This implements 2 ERC-20 tokens that will be minted in exactly the same proportion as the underlying ERC-20 token transferred into the Factory contract. The asset will be burned in exactly the same proportion when asked to redeem/withdrawal the underlying asset. The contract will implement periodic rebalancing",
    "kind": "dev",
    "methods": {},
    "title": "ERC-20 Rebase Tokens",
    "version": 1
  },
  "userdoc": {
    "kind": "user",
    "methods": {},
    "notice": "Still under development",
    "version": 1
  },
  "storageLayout": {
    "storage": [
      {
        "astId": 169,
        "contract": "contracts/TokenFactory.sol:TokenFactory",
        "label": "_status",
        "offset": 0,
        "slot": "0",
        "type": "t_uint256"
      },
      {
        "astId": 1899,
        "contract": "contracts/TokenFactory.sol:TokenFactory",
        "label": "s_scallingFactor",
        "offset": 0,
        "slot": "1",
        "type": "t_array(t_struct(scallingFactor)1895_storage)dyn_storage"
      },
      {
        "astId": 1903,
        "contract": "contracts/TokenFactory.sol:TokenFactory",
        "label": "s_devTokenArray",
        "offset": 0,
        "slot": "2",
        "type": "t_array(t_contract(DevToken)1871)dyn_storage"
      },
      {
        "astId": 1912,
        "contract": "contracts/TokenFactory.sol:TokenFactory",
        "label": "s_lastRebaseCount",
        "offset": 0,
        "slot": "3",
        "type": "t_mapping(t_address,t_uint256)"
      }
    ],
    "types": {
      "t_address": {
        "encoding": "inplace",
        "label": "address",
        "numberOfBytes": "20"
      },
      "t_array(t_contract(DevToken)1871)dyn_storage": {
        "base": "t_contract(DevToken)1871",
        "encoding": "dynamic_array",
        "label": "contract DevToken[]",
        "numberOfBytes": "32"
      },
      "t_array(t_struct(scallingFactor)1895_storage)dyn_storage": {
        "base": "t_struct(scallingFactor)1895_storage",
        "encoding": "dynamic_array",
        "label": "struct TokenFactory.scallingFactor[]",
        "numberOfBytes": "32"
      },
      "t_contract(DevToken)1871": {
        "encoding": "inplace",
        "label": "contract DevToken",
        "numberOfBytes": "20"
      },
      "t_mapping(t_address,t_uint256)": {
        "encoding": "mapping",
        "key": "t_address",
        "label": "mapping(address => uint256)",
        "numberOfBytes": "32",
        "value": "t_uint256"
      },
      "t_struct(scallingFactor)1895_storage": {
        "encoding": "inplace",
        "label": "struct TokenFactory.scallingFactor",
        "members": [
          {
            "astId": 1892,
            "contract": "contracts/TokenFactory.sol:TokenFactory",
            "label": "scallingFactorX",
            "offset": 0,
            "slot": "0",
            "type": "t_uint256"
          },
          {
            "astId": 1894,
            "contract": "contracts/TokenFactory.sol:TokenFactory",
            "label": "scallingFactorY",
            "offset": 0,
            "slot": "1",
            "type": "t_uint256"
          }
        ],
        "numberOfBytes": "64"
      },
      "t_uint256": {
        "encoding": "inplace",
        "label": "uint256",
        "numberOfBytes": "32"
      }
    }
  }
}