{
  "address": "0x7a2088a1bFc9d81c55368AE168C2C02570cB814F",
  "abi": [
    {
      "inputs": [
        {
          "internalType": "address",
          "name": "baseTokenAddress",
          "type": "address"
        },
        {
          "internalType": "address",
          "name": "priceFeedAddress",
          "type": "address"
        },
        {
          "internalType": "string",
          "name": "token1Name",
          "type": "string"
        },
        {
          "internalType": "string",
          "name": "token1Symbol",
          "type": "string"
        },
        {
          "internalType": "string",
          "name": "token2Name",
          "type": "string"
        },
        {
          "internalType": "string",
          "name": "token2Symbol",
          "type": "string"
        }
      ],
      "stateMutability": "nonpayable",
      "type": "constructor"
    },
    {
      "inputs": [],
      "name": "TokenFactory__InsufficientFund",
      "type": "error"
    },
    {
      "anonymous": false,
      "inputs": [
        {
          "indexed": true,
          "internalType": "address",
          "name": "recipient",
          "type": "address"
        },
        {
          "indexed": false,
          "internalType": "uint256",
          "name": "amount",
          "type": "uint256"
        }
      ],
      "name": "AssetBought",
      "type": "event"
    },
    {
      "anonymous": false,
      "inputs": [
        {
          "indexed": true,
          "internalType": "address",
          "name": "owner",
          "type": "address"
        },
        {
          "indexed": false,
          "internalType": "uint256",
          "name": "amount",
          "type": "uint256"
        }
      ],
      "name": "AssetWithdrawn",
      "type": "event"
    },
    {
      "inputs": [
        {
          "internalType": "uint256",
          "name": "_devTokenIndex",
          "type": "uint256"
        },
        {
          "internalType": "address",
          "name": "_owner",
          "type": "address"
        }
      ],
      "name": "balanceOf",
      "outputs": [
        {
          "internalType": "uint256",
          "name": "",
          "type": "uint256"
        }
      ],
      "stateMutability": "view",
      "type": "function"
    },
    {
      "inputs": [],
      "name": "buyAsset",
      "outputs": [],
      "stateMutability": "payable",
      "type": "function"
    },
    {
      "inputs": [],
      "name": "getBaseTokenAddress",
      "outputs": [
        {
          "internalType": "address",
          "name": "",
          "type": "address"
        }
      ],
      "stateMutability": "view",
      "type": "function"
    },
    {
      "inputs": [],
      "name": "getPriceFeedAddress",
      "outputs": [
        {
          "internalType": "contract AggregatorV3Interface",
          "name": "",
          "type": "address"
        }
      ],
      "stateMutability": "view",
      "type": "function"
    },
    {
      "inputs": [
        {
          "internalType": "uint256",
          "name": "index",
          "type": "uint256"
        }
      ],
      "name": "getScallingFactor",
      "outputs": [
        {
          "components": [
            {
              "internalType": "uint256",
              "name": "scallingFactorX",
              "type": "uint256"
            },
            {
              "internalType": "uint256",
              "name": "scallingFactorY",
              "type": "uint256"
            }
          ],
          "internalType": "struct TokenFactory.scallingFactor",
          "name": "",
          "type": "tuple"
        }
      ],
      "stateMutability": "view",
      "type": "function"
    },
    {
      "inputs": [],
      "name": "getScallingFactorLength",
      "outputs": [
        {
          "internalType": "uint256",
          "name": "",
          "type": "uint256"
        }
      ],
      "stateMutability": "view",
      "type": "function"
    },
    {
      "inputs": [],
      "name": "rebase",
      "outputs": [],
      "stateMutability": "nonpayable",
      "type": "function"
    },
    {
      "inputs": [
        {
          "internalType": "uint256",
          "name": "_devTokenIndex",
          "type": "uint256"
        },
        {
          "internalType": "address",
          "name": "to",
          "type": "address"
        },
        {
          "internalType": "uint256",
          "name": "value",
          "type": "uint256"
        }
      ],
      "name": "transfer",
      "outputs": [
        {
          "internalType": "bool",
          "name": "",
          "type": "bool"
        }
      ],
      "stateMutability": "nonpayable",
      "type": "function"
    },
    {
      "inputs": [
        {
          "internalType": "uint256",
          "name": "_amount",
          "type": "uint256"
        }
      ],
      "name": "withdrawAsset",
      "outputs": [],
      "stateMutability": "nonpayable",
      "type": "function"
    }
  ],
  "transactionHash": "0xdd7bc23a03f861c3fbdaa9164177274c00eedc5b6524b97689e52de4925c9c83",
  "args": [
    "0x7ceB23fD6bC0adD59E62ac25578270cFf1b9f619",
    "0x5FbDB2315678afecb367f032d93F642f64180aa3",
    "RistP One",
    "R1",
    "RistP Two",
    "R2"
  ],
  "numDeployments": 11,
  "solcInputHash": "f08b1348629d6a3335743e3c75f83ab2",
  "bytecode": "0x60c06040523480156200001157600080fd5b5060405162003f4038038062003f408339818101604052810190620000379190620003ff565b60016000819055508573ffffffffffffffffffffffffffffffffffffffff1660808173ffffffffffffffffffffffffffffffffffffffff16815250508473ffffffffffffffffffffffffffffffffffffffff1660a08173ffffffffffffffffffffffffffffffffffffffff168152505060008484604051620000b990620001f9565b620000c692919062000574565b604051809103906000f080158015620000e3573d6000803e3d6000fd5b5090506002819080600181540180825580915050600190039060005260206000200160009091909190916101000a81548173ffffffffffffffffffffffffffffffffffffffff021916908373ffffffffffffffffffffffffffffffffffffffff160217905550600083836040516200015b90620001f9565b6200016892919062000574565b604051809103906000f08015801562000185573d6000803e3d6000fd5b5090506002819080600181540180825580915050600190039060005260206000200160009091909190916101000a81548173ffffffffffffffffffffffffffffffffffffffff021916908373ffffffffffffffffffffffffffffffffffffffff1602179055505050505050505050620005af565b6123598062001be783390190565b6000604051905090565b600080fd5b600080fd5b600073ffffffffffffffffffffffffffffffffffffffff82169050919050565b600062000248826200021b565b9050919050565b6200025a816200023b565b81146200026657600080fd5b50565b6000815190506200027a816200024f565b92915050565b600080fd5b600080fd5b6000601f19601f8301169050919050565b7f4e487b7100000000000000000000000000000000000000000000000000000000600052604160045260246000fd5b620002d5826200028a565b810181811067ffffffffffffffff82111715620002f757620002f66200029b565b5b80604052505050565b60006200030c62000207565b90506200031a8282620002ca565b919050565b600067ffffffffffffffff8211156200033d576200033c6200029b565b5b62000348826200028a565b9050602081019050919050565b60005b838110156200037557808201518184015260208101905062000358565b60008484015250505050565b60006200039862000392846200031f565b62000300565b905082815260208101848484011115620003b757620003b662000285565b5b620003c484828562000355565b509392505050565b600082601f830112620003e457620003e362000280565b5b8151620003f684826020860162000381565b91505092915050565b60008060008060008060c087890312156200041f576200041e62000211565b5b60006200042f89828a0162000269565b96505060206200044289828a0162000269565b955050604087015167ffffffffffffffff81111562000466576200046562000216565b5b6200047489828a01620003cc565b945050606087015167ffffffffffffffff81111562000498576200049762000216565b5b620004a689828a01620003cc565b935050608087015167ffffffffffffffff811115620004ca57620004c962000216565b5b620004d889828a01620003cc565b92505060a087015167ffffffffffffffff811115620004fc57620004fb62000216565b5b6200050a89828a01620003cc565b9150509295509295509295565b600081519050919050565b600082825260208201905092915050565b6000620005408262000517565b6200054c818562000522565b93506200055e81856020860162000355565b62000569816200028a565b840191505092915050565b6000604082019050818103600083015262000590818562000533565b90508181036020830152620005a6818462000533565b90509392505050565b60805160a05161160b620005dc60003960008181610211015261081b0152600061065e015261160b6000f3fe6080604052600436106100865760003560e01c80638d92fdf3116100595780638d92fdf3146101495780639fbaf13114610172578063af14052c1461017c578063e5fc402a14610193578063f8548e36146101d057610086565b80630f0f30b21461008b5780633656eec2146100b65780634df947d0146100f357806378c1a6c41461011e575b600080fd5b34801561009757600080fd5b506100a061020d565b6040516100ad9190610f61565b60405180910390f35b3480156100c257600080fd5b506100dd60048036038101906100d89190610ff5565b610235565b6040516100ea9190611044565b60405180910390f35b3480156100ff57600080fd5b5061010861065a565b604051610115919061106e565b60405180910390f35b34801561012a57600080fd5b50610133610682565b6040516101409190611044565b60405180910390f35b34801561015557600080fd5b50610170600480360381019061016b9190611089565b61068f565b005b61017a610793565b005b34801561018857600080fd5b5061019161080b565b005b34801561019f57600080fd5b506101ba60048036038101906101b59190611089565b610951565b6040516101c791906110f4565b60405180910390f35b3480156101dc57600080fd5b506101f760048036038101906101f2919061110f565b6109a1565b604051610204919061117d565b60405180910390f35b60007f0000000000000000000000000000000000000000000000000000000000000000905090565b600061023f610682565b600360003373ffffffffffffffffffffffffffffffffffffffff1673ffffffffffffffffffffffffffffffffffffffff168152602001908152602001600020541461055b576102c26040518060400160405280600d81526020017f726562617365206e656564656400000000000000000000000000000000000000815250610af6565b60006001600360003373ffffffffffffffffffffffffffffffffffffffff1673ffffffffffffffffffffffffffffffffffffffff168152602001908152602001600020548154811061031757610316611198565b5b906000526020600020906002020160000154905060006001600360003373ffffffffffffffffffffffffffffffffffffffff1673ffffffffffffffffffffffffffffffffffffffff16815260200190815260200160002054815481106103805761037f611198565b5b9060005260206000209060020201600101549050600081670de0b6b3a764000060026001815481106103b5576103b4611198565b5b9060005260206000200160009054906101000a900473ffffffffffffffffffffffffffffffffffffffff1673ffffffffffffffffffffffffffffffffffffffff166370a08231886040518263ffffffff1660e01b8152600401610418919061106e565b602060405180830381865afa158015610435573d6000803e3d6000fd5b505050506040513d601f19601f8201168201806040525081019061045991906111dc565b6104639190611267565b61046d9190611298565b83670de0b6b3a7640000600260008154811061048c5761048b611198565b5b9060005260206000200160009054906101000a900473ffffffffffffffffffffffffffffffffffffffff1673ffffffffffffffffffffffffffffffffffffffff166370a08231896040518263ffffffff1660e01b81526004016104ef919061106e565b602060405180830381865afa15801561050c573d6000803e3d6000fd5b505050506040513d601f19601f8201168201806040525081019061053091906111dc565b61053a9190611267565b6105449190611298565b61054e91906112da565b9050809350505050610654565b6105996040518060400160405280601181526020017f726562617365206e6f74206e6565646564000000000000000000000000000000815250610af6565b600283815481106105ad576105ac611198565b5b9060005260206000200160009054906101000a900473ffffffffffffffffffffffffffffffffffffffff1673ffffffffffffffffffffffffffffffffffffffff166370a08231836040518263ffffffff1660e01b8152600401610610919061106e565b602060405180830381865afa15801561062d573d6000803e3d6000fd5b505050506040513d601f19601f8201168201806040525081019061065191906111dc565b90505b92915050565b60007f0000000000000000000000000000000000000000000000000000000000000000905090565b6000600180549050905090565b610697610b8f565b6106a2600033610235565b8111156106db576040517fd9f6ddd900000000000000000000000000000000000000000000000000000000815260040160405180910390fd5b6106e760003383610bde565b6106f360013383610bde565b3373ffffffffffffffffffffffffffffffffffffffff166108fc829081150290604051600060405180830381858888f19350505050158015610739573d6000803e3d6000fd5b503373ffffffffffffffffffffffffffffffffffffffff167f94b055d454fefc95ba06924afbaac83912b1575d621a7d32a4675303246bb7d0826040516107809190611044565b60405180910390a2610790610c8e565b50565b61079b610b8f565b6107a760003334610c98565b6107b360013334610c98565b3373ffffffffffffffffffffffffffffffffffffffff167f1043b9f778084a8d3cd9af8b3e347f91d1f9f75697034f065aac775937fe79d4346040516107f99190611044565b60405180910390a2610809610c8e565b565b6000670de0b6b3a76400006108557f000000000000000000000000000000000000000000000000000000000000000073ffffffffffffffffffffffffffffffffffffffff16610d48565b61085f9190611267565b90506000610877600383610dc990919063ffffffff16565b905060008183610887919061130e565b9050600061089f600285610dc990919063ffffffff16565b905060016040518060400160405280836002670de0b6b3a7640000886108c59190611298565b6108cf9190611267565b6108d99190611267565b8152602001836002670de0b6b3a7640000876108f59190611298565b6108ff9190611267565b6109099190611267565b81525090806001815401808255809150506001900390600052602060002090600202016000909190919091506000820151816000015560208201518160010155505050505050565b610959610ec8565b6001828154811061096d5761096c611198565b5b9060005260206000209060020201604051806040016040529081600082015481526020016001820154815250509050919050565b60006109e16040518060400160405280600981526020017f73656e6465722069640000000000000000000000000000000000000000000000815250610af6565b6109ea33610e06565b610a286040518060400160405280600b81526020017f7265636569766572206964000000000000000000000000000000000000000000815250610af6565b610a3183610e06565b60028481548110610a4557610a44611198565b5b9060005260206000200160009054906101000a900473ffffffffffffffffffffffffffffffffffffffff1673ffffffffffffffffffffffffffffffffffffffff1663a9059cbb84846040518363ffffffff1660e01b8152600401610aaa929190611342565b6020604051808303816000875af1158015610ac9573d6000803e3d6000fd5b505050506040513d601f19601f82011682018060405250810190610aed9190611397565b90509392505050565b610b8c81604051602401610b0a9190611454565b6040516020818303038152906040527f41304fac000000000000000000000000000000000000000000000000000000007bffffffffffffffffffffffffffffffffffffffffffffffffffffffff19166020820180517bffffffffffffffffffffffffffffffffffffffffffffffffffffffff8381831617835250505050610e9f565b50565b600260005403610bd4576040517f08c379a0000000000000000000000000000000000000000000000000000000008152600401610bcb906114c2565b60405180910390fd5b6002600081905550565b60028381548110610bf257610bf1611198565b5b9060005260206000200160009054906101000a900473ffffffffffffffffffffffffffffffffffffffff1673ffffffffffffffffffffffffffffffffffffffff16639dc29fac83836040518363ffffffff1660e01b8152600401610c57929190611342565b600060405180830381600087803b158015610c7157600080fd5b505af1158015610c85573d6000803e3d6000fd5b50505050505050565b6001600081905550565b60028381548110610cac57610cab611198565b5b9060005260206000200160009054906101000a900473ffffffffffffffffffffffffffffffffffffffff1673ffffffffffffffffffffffffffffffffffffffff166340c10f1983836040518363ffffffff1660e01b8152600401610d11929190611342565b600060405180830381600087803b158015610d2b57600080fd5b505af1158015610d3f573d6000803e3d6000fd5b50505050505050565b6000808273ffffffffffffffffffffffffffffffffffffffff1663feaf968c6040518163ffffffff1660e01b815260040160a060405180830381865afa158015610d96573d6000803e3d6000fd5b505050506040513d601f19601f82011682018060405250810190610dba919061155a565b50505091505080915050919050565b6000808314610dfb57600182600185610de2919061130e565b610dec9190611267565b610df691906112da565b610dfe565b60005b905092915050565b610e9c81604051602401610e1a919061106e565b6040516020818303038152906040527f2c2ecbc2000000000000000000000000000000000000000000000000000000007bffffffffffffffffffffffffffffffffffffffffffffffffffffffff19166020820180517bffffffffffffffffffffffffffffffffffffffffffffffffffffffff8381831617835250505050610e9f565b50565b60008151905060006a636f6e736f6c652e6c6f679050602083016000808483855afa5050505050565b604051806040016040528060008152602001600081525090565b600073ffffffffffffffffffffffffffffffffffffffff82169050919050565b6000819050919050565b6000610f27610f22610f1d84610ee2565b610f02565b610ee2565b9050919050565b6000610f3982610f0c565b9050919050565b6000610f4b82610f2e565b9050919050565b610f5b81610f40565b82525050565b6000602082019050610f766000830184610f52565b92915050565b600080fd5b6000819050919050565b610f9481610f81565b8114610f9f57600080fd5b50565b600081359050610fb181610f8b565b92915050565b6000610fc282610ee2565b9050919050565b610fd281610fb7565b8114610fdd57600080fd5b50565b600081359050610fef81610fc9565b92915050565b6000806040838503121561100c5761100b610f7c565b5b600061101a85828601610fa2565b925050602061102b85828601610fe0565b9150509250929050565b61103e81610f81565b82525050565b60006020820190506110596000830184611035565b92915050565b61106881610fb7565b82525050565b6000602082019050611083600083018461105f565b92915050565b60006020828403121561109f5761109e610f7c565b5b60006110ad84828501610fa2565b91505092915050565b6110bf81610f81565b82525050565b6040820160008201516110db60008501826110b6565b5060208201516110ee60208501826110b6565b50505050565b600060408201905061110960008301846110c5565b92915050565b60008060006060848603121561112857611127610f7c565b5b600061113686828701610fa2565b935050602061114786828701610fe0565b925050604061115886828701610fa2565b9150509250925092565b60008115159050919050565b61117781611162565b82525050565b6000602082019050611192600083018461116e565b92915050565b7f4e487b7100000000000000000000000000000000000000000000000000000000600052603260045260246000fd5b6000815190506111d681610f8b565b92915050565b6000602082840312156111f2576111f1610f7c565b5b6000611200848285016111c7565b91505092915050565b7f4e487b7100000000000000000000000000000000000000000000000000000000600052601260045260246000fd5b7f4e487b7100000000000000000000000000000000000000000000000000000000600052601160045260246000fd5b600061127282610f81565b915061127d83610f81565b92508261128d5761128c611209565b5b828204905092915050565b60006112a382610f81565b91506112ae83610f81565b92508282026112bc81610f81565b915082820484148315176112d3576112d2611238565b5b5092915050565b60006112e582610f81565b91506112f083610f81565b925082820190508082111561130857611307611238565b5b92915050565b600061131982610f81565b915061132483610f81565b925082820390508181111561133c5761133b611238565b5b92915050565b6000604082019050611357600083018561105f565b6113646020830184611035565b9392505050565b61137481611162565b811461137f57600080fd5b50565b6000815190506113918161136b565b92915050565b6000602082840312156113ad576113ac610f7c565b5b60006113bb84828501611382565b91505092915050565b600081519050919050565b600082825260208201905092915050565b60005b838110156113fe5780820151818401526020810190506113e3565b60008484015250505050565b6000601f19601f8301169050919050565b6000611426826113c4565b61143081856113cf565b93506114408185602086016113e0565b6114498161140a565b840191505092915050565b6000602082019050818103600083015261146e818461141b565b905092915050565b7f5265656e7472616e637947756172643a207265656e7472616e742063616c6c00600082015250565b60006114ac601f836113cf565b91506114b782611476565b602082019050919050565b600060208201905081810360008301526114db8161149f565b9050919050565b600069ffffffffffffffffffff82169050919050565b611501816114e2565b811461150c57600080fd5b50565b60008151905061151e816114f8565b92915050565b6000819050919050565b61153781611524565b811461154257600080fd5b50565b6000815190506115548161152e565b92915050565b600080600080600060a0868803121561157657611575610f7c565b5b60006115848882890161150f565b955050602061159588828901611545565b94505060406115a6888289016111c7565b93505060606115b7888289016111c7565b92505060806115c88882890161150f565b915050929550929590935056fea26469706673582212209bbb1c3b4f2a850687712367b64d494fb586029b1352c422c2ef76ea881dd24064736f6c6343000811003360806040523480156200001157600080fd5b5060405162002359380380620023598339818101604052810190620000379190620002e8565b818181600390816200004a9190620005b8565b5080600490816200005c9190620005b8565b5050506200007f620000736200008760201b60201c565b6200008f60201b60201c565b50506200069f565b600033905090565b6000600560009054906101000a900473ffffffffffffffffffffffffffffffffffffffff16905081600560006101000a81548173ffffffffffffffffffffffffffffffffffffffff021916908373ffffffffffffffffffffffffffffffffffffffff1602179055508173ffffffffffffffffffffffffffffffffffffffff168173ffffffffffffffffffffffffffffffffffffffff167f8be0079c531659141344cd1fd0a4f28419497f9722a3daafe3b4186f6b6457e060405160405180910390a35050565b6000604051905090565b600080fd5b600080fd5b600080fd5b600080fd5b6000601f19601f8301169050919050565b7f4e487b7100000000000000000000000000000000000000000000000000000000600052604160045260246000fd5b620001be8262000173565b810181811067ffffffffffffffff82111715620001e057620001df62000184565b5b80604052505050565b6000620001f562000155565b9050620002038282620001b3565b919050565b600067ffffffffffffffff82111562000226576200022562000184565b5b620002318262000173565b9050602081019050919050565b60005b838110156200025e57808201518184015260208101905062000241565b60008484015250505050565b6000620002816200027b8462000208565b620001e9565b905082815260208101848484011115620002a0576200029f6200016e565b5b620002ad8482856200023e565b509392505050565b600082601f830112620002cd57620002cc62000169565b5b8151620002df8482602086016200026a565b91505092915050565b600080604083850312156200030257620003016200015f565b5b600083015167ffffffffffffffff81111562000323576200032262000164565b5b6200033185828601620002b5565b925050602083015167ffffffffffffffff81111562000355576200035462000164565b5b6200036385828601620002b5565b9150509250929050565b600081519050919050565b7f4e487b7100000000000000000000000000000000000000000000000000000000600052602260045260246000fd5b60006002820490506001821680620003c057607f821691505b602082108103620003d657620003d562000378565b5b50919050565b60008190508160005260206000209050919050565b60006020601f8301049050919050565b600082821b905092915050565b600060088302620004407fffffffffffffffffffffffffffffffffffffffffffffffffffffffffffffffff8262000401565b6200044c868362000401565b95508019841693508086168417925050509392505050565b6000819050919050565b6000819050919050565b600062000499620004936200048d8462000464565b6200046e565b62000464565b9050919050565b6000819050919050565b620004b58362000478565b620004cd620004c482620004a0565b8484546200040e565b825550505050565b600090565b620004e4620004d5565b620004f1818484620004aa565b505050565b5b8181101562000519576200050d600082620004da565b600181019050620004f7565b5050565b601f82111562000568576200053281620003dc565b6200053d84620003f1565b810160208510156200054d578190505b620005656200055c85620003f1565b830182620004f6565b50505b505050565b600082821c905092915050565b60006200058d600019846008026200056d565b1980831691505092915050565b6000620005a883836200057a565b9150826002028217905092915050565b620005c3826200036d565b67ffffffffffffffff811115620005df57620005de62000184565b5b620005eb8254620003a7565b620005f88282856200051d565b600060209050601f8311600181146200063057600084156200061b578287015190505b6200062785826200059a565b86555062000697565b601f1984166200064086620003dc565b60005b828110156200066a5784890151825560018201915060208501945060208101905062000643565b868310156200068a578489015162000686601f8916826200057a565b8355505b6001600288020188555050505b505050505050565b611caa80620006af6000396000f3fe608060405234801561001057600080fd5b50600436106101005760003560e01c8063715018a611610097578063a457c2d711610066578063a457c2d71461029d578063a9059cbb146102cd578063dd62ed3e146102fd578063f2fde38b1461032d57610100565b8063715018a61461023b5780638da5cb5b1461024557806395d89b41146102635780639dc29fac1461028157610100565b8063313ce567116100d3578063313ce567146101a157806339509351146101bf57806340c10f19146101ef57806370a082311461020b57610100565b806306fdde0314610105578063095ea7b31461012357806318160ddd1461015357806323b872dd14610171575b600080fd5b61010d610349565b60405161011a91906112cf565b60405180910390f35b61013d6004803603810190610138919061138a565b6103db565b60405161014a91906113e5565b60405180910390f35b61015b6103fe565b604051610168919061140f565b60405180910390f35b61018b6004803603810190610186919061142a565b610408565b60405161019891906113e5565b60405180910390f35b6101a9610437565b6040516101b69190611499565b60405180910390f35b6101d960048036038101906101d4919061138a565b610440565b6040516101e691906113e5565b60405180910390f35b6102096004803603810190610204919061138a565b610477565b005b610225600480360381019061022091906114b4565b61048d565b604051610232919061140f565b60405180910390f35b6102436104d5565b005b61024d6104e9565b60405161025a91906114f0565b60405180910390f35b61026b610513565b60405161027891906112cf565b60405180910390f35b61029b6004803603810190610296919061138a565b6105a5565b005b6102b760048036038101906102b2919061138a565b6105bb565b6040516102c491906113e5565b60405180910390f35b6102e760048036038101906102e2919061138a565b610632565b6040516102f491906113e5565b60405180910390f35b6103176004803603810190610312919061150b565b610696565b604051610324919061140f565b60405180910390f35b610347600480360381019061034291906114b4565b61071d565b005b6060600380546103589061157a565b80601f01602080910402602001604051908101604052809291908181526020018280546103849061157a565b80156103d15780601f106103a6576101008083540402835291602001916103d1565b820191906000526020600020905b8154815290600101906020018083116103b457829003601f168201915b5050505050905090565b6000806103e66107a0565b90506103f38185856107a8565b600191505092915050565b6000600254905090565b6000806104136107a0565b9050610420858285610971565b61042b8585856109fd565b60019150509392505050565b60006012905090565b60008061044b6107a0565b905061046c81858561045d8589610696565b61046791906115da565b6107a8565b600191505092915050565b61047f610c73565b6104898282610cf1565b5050565b60008060008373ffffffffffffffffffffffffffffffffffffffff1673ffffffffffffffffffffffffffffffffffffffff168152602001908152602001600020549050919050565b6104dd610c73565b6104e76000610e47565b565b6000600560009054906101000a900473ffffffffffffffffffffffffffffffffffffffff16905090565b6060600480546105229061157a565b80601f016020809104026020016040519081016040528092919081815260200182805461054e9061157a565b801561059b5780601f106105705761010080835404028352916020019161059b565b820191906000526020600020905b81548152906001019060200180831161057e57829003601f168201915b5050505050905090565b6105ad610c73565b6105b78282610f0d565b5050565b6000806105c66107a0565b905060006105d48286610696565b905083811015610619576040517f08c379a000000000000000000000000000000000000000000000000000000000815260040161061090611680565b60405180910390fd5b61062682868684036107a8565b60019250505092915050565b60006106726040518060400160405280600e81526020017f6d6573736167652073656e6465720000000000000000000000000000000000008152506110da565b61067b32611173565b600032905061068b8185856109fd565b600191505092915050565b6000600160008473ffffffffffffffffffffffffffffffffffffffff1673ffffffffffffffffffffffffffffffffffffffff16815260200190815260200160002060008373ffffffffffffffffffffffffffffffffffffffff1673ffffffffffffffffffffffffffffffffffffffff16815260200190815260200160002054905092915050565b610725610c73565b600073ffffffffffffffffffffffffffffffffffffffff168173ffffffffffffffffffffffffffffffffffffffff1603610794576040517f08c379a000000000000000000000000000000000000000000000000000000000815260040161078b90611712565b60405180910390fd5b61079d81610e47565b50565b600033905090565b600073ffffffffffffffffffffffffffffffffffffffff168373ffffffffffffffffffffffffffffffffffffffff1603610817576040517f08c379a000000000000000000000000000000000000000000000000000000000815260040161080e906117a4565b60405180910390fd5b600073ffffffffffffffffffffffffffffffffffffffff168273ffffffffffffffffffffffffffffffffffffffff1603610886576040517f08c379a000000000000000000000000000000000000000000000000000000000815260040161087d90611836565b60405180910390fd5b80600160008573ffffffffffffffffffffffffffffffffffffffff1673ffffffffffffffffffffffffffffffffffffffff16815260200190815260200160002060008473ffffffffffffffffffffffffffffffffffffffff1673ffffffffffffffffffffffffffffffffffffffff168152602001908152602001600020819055508173ffffffffffffffffffffffffffffffffffffffff168373ffffffffffffffffffffffffffffffffffffffff167f8c5be1e5ebec7d5bd14f71427d1e84f3dd0314c0f7b2291e5b200ac8c7c3b92583604051610964919061140f565b60405180910390a3505050565b600061097d8484610696565b90507fffffffffffffffffffffffffffffffffffffffffffffffffffffffffffffffff81146109f757818110156109e9576040517f08c379a00000000000000000000000000000000000000000000000000000000081526004016109e0906118a2565b60405180910390fd5b6109f684848484036107a8565b5b50505050565b600073ffffffffffffffffffffffffffffffffffffffff168373ffffffffffffffffffffffffffffffffffffffff1603610a6c576040517f08c379a0000000000000000000000000000000000000000000000000000000008152600401610a6390611934565b60405180910390fd5b600073ffffffffffffffffffffffffffffffffffffffff168273ffffffffffffffffffffffffffffffffffffffff1603610adb576040517f08c379a0000000000000000000000000000000000000000000000000000000008152600401610ad2906119c6565b60405180910390fd5b610ae683838361120c565b60008060008573ffffffffffffffffffffffffffffffffffffffff1673ffffffffffffffffffffffffffffffffffffffff16815260200190815260200160002054905081811015610b6c576040517f08c379a0000000000000000000000000000000000000000000000000000000008152600401610b6390611a58565b60405180910390fd5b8181036000808673ffffffffffffffffffffffffffffffffffffffff1673ffffffffffffffffffffffffffffffffffffffff16815260200190815260200160002081905550816000808573ffffffffffffffffffffffffffffffffffffffff1673ffffffffffffffffffffffffffffffffffffffff168152602001908152602001600020600082825401925050819055508273ffffffffffffffffffffffffffffffffffffffff168473ffffffffffffffffffffffffffffffffffffffff167fddf252ad1be2c89b69c2b068fc378daa952ba7f163c4a11628f55a4df523b3ef84604051610c5a919061140f565b60405180910390a3610c6d848484611211565b50505050565b610c7b6107a0565b73ffffffffffffffffffffffffffffffffffffffff16610c996104e9565b73ffffffffffffffffffffffffffffffffffffffff1614610cef576040517f08c379a0000000000000000000000000000000000000000000000000000000008152600401610ce690611ac4565b60405180910390fd5b565b600073ffffffffffffffffffffffffffffffffffffffff168273ffffffffffffffffffffffffffffffffffffffff1603610d60576040517f08c379a0000000000000000000000000000000000000000000000000000000008152600401610d5790611b30565b60405180910390fd5b610d6c6000838361120c565b8060026000828254610d7e91906115da565b92505081905550806000808473ffffffffffffffffffffffffffffffffffffffff1673ffffffffffffffffffffffffffffffffffffffff168152602001908152602001600020600082825401925050819055508173ffffffffffffffffffffffffffffffffffffffff16600073ffffffffffffffffffffffffffffffffffffffff167fddf252ad1be2c89b69c2b068fc378daa952ba7f163c4a11628f55a4df523b3ef83604051610e2f919061140f565b60405180910390a3610e4360008383611211565b5050565b6000600560009054906101000a900473ffffffffffffffffffffffffffffffffffffffff16905081600560006101000a81548173ffffffffffffffffffffffffffffffffffffffff021916908373ffffffffffffffffffffffffffffffffffffffff1602179055508173ffffffffffffffffffffffffffffffffffffffff168173ffffffffffffffffffffffffffffffffffffffff167f8be0079c531659141344cd1fd0a4f28419497f9722a3daafe3b4186f6b6457e060405160405180910390a35050565b600073ffffffffffffffffffffffffffffffffffffffff168273ffffffffffffffffffffffffffffffffffffffff1603610f7c576040517f08c379a0000000000000000000000000000000000000000000000000000000008152600401610f7390611bc2565b60405180910390fd5b610f888260008361120c565b60008060008473ffffffffffffffffffffffffffffffffffffffff1673ffffffffffffffffffffffffffffffffffffffff1681526020019081526020016000205490508181101561100e576040517f08c379a000000000000000000000000000000000000000000000000000000000815260040161100590611c54565b60405180910390fd5b8181036000808573ffffffffffffffffffffffffffffffffffffffff1673ffffffffffffffffffffffffffffffffffffffff1681526020019081526020016000208190555081600260008282540392505081905550600073ffffffffffffffffffffffffffffffffffffffff168373ffffffffffffffffffffffffffffffffffffffff167fddf252ad1be2c89b69c2b068fc378daa952ba7f163c4a11628f55a4df523b3ef846040516110c1919061140f565b60405180910390a36110d583600084611211565b505050565b611170816040516024016110ee91906112cf565b6040516020818303038152906040527f41304fac000000000000000000000000000000000000000000000000000000007bffffffffffffffffffffffffffffffffffffffffffffffffffffffff19166020820180517bffffffffffffffffffffffffffffffffffffffffffffffffffffffff8381831617835250505050611216565b50565b6112098160405160240161118791906114f0565b6040516020818303038152906040527f2c2ecbc2000000000000000000000000000000000000000000000000000000007bffffffffffffffffffffffffffffffffffffffffffffffffffffffff19166020820180517bffffffffffffffffffffffffffffffffffffffffffffffffffffffff8381831617835250505050611216565b50565b505050565b505050565b60008151905060006a636f6e736f6c652e6c6f679050602083016000808483855afa5050505050565b600081519050919050565b600082825260208201905092915050565b60005b8381101561127957808201518184015260208101905061125e565b60008484015250505050565b6000601f19601f8301169050919050565b60006112a18261123f565b6112ab818561124a565b93506112bb81856020860161125b565b6112c481611285565b840191505092915050565b600060208201905081810360008301526112e98184611296565b905092915050565b600080fd5b600073ffffffffffffffffffffffffffffffffffffffff82169050919050565b6000611321826112f6565b9050919050565b61133181611316565b811461133c57600080fd5b50565b60008135905061134e81611328565b92915050565b6000819050919050565b61136781611354565b811461137257600080fd5b50565b6000813590506113848161135e565b92915050565b600080604083850312156113a1576113a06112f1565b5b60006113af8582860161133f565b92505060206113c085828601611375565b9150509250929050565b60008115159050919050565b6113df816113ca565b82525050565b60006020820190506113fa60008301846113d6565b92915050565b61140981611354565b82525050565b60006020820190506114246000830184611400565b92915050565b600080600060608486031215611443576114426112f1565b5b60006114518682870161133f565b93505060206114628682870161133f565b925050604061147386828701611375565b9150509250925092565b600060ff82169050919050565b6114938161147d565b82525050565b60006020820190506114ae600083018461148a565b92915050565b6000602082840312156114ca576114c96112f1565b5b60006114d88482850161133f565b91505092915050565b6114ea81611316565b82525050565b600060208201905061150560008301846114e1565b92915050565b60008060408385031215611522576115216112f1565b5b60006115308582860161133f565b92505060206115418582860161133f565b9150509250929050565b7f4e487b7100000000000000000000000000000000000000000000000000000000600052602260045260246000fd5b6000600282049050600182168061159257607f821691505b6020821081036115a5576115a461154b565b5b50919050565b7f4e487b7100000000000000000000000000000000000000000000000000000000600052601160045260246000fd5b60006115e582611354565b91506115f083611354565b9250828201905080821115611608576116076115ab565b5b92915050565b7f45524332303a2064656372656173656420616c6c6f77616e63652062656c6f7760008201527f207a65726f000000000000000000000000000000000000000000000000000000602082015250565b600061166a60258361124a565b91506116758261160e565b604082019050919050565b600060208201905081810360008301526116998161165d565b9050919050565b7f4f776e61626c653a206e6577206f776e657220697320746865207a65726f206160008201527f6464726573730000000000000000000000000000000000000000000000000000602082015250565b60006116fc60268361124a565b9150611707826116a0565b604082019050919050565b6000602082019050818103600083015261172b816116ef565b9050919050565b7f45524332303a20617070726f76652066726f6d20746865207a65726f2061646460008201527f7265737300000000000000000000000000000000000000000000000000000000602082015250565b600061178e60248361124a565b915061179982611732565b604082019050919050565b600060208201905081810360008301526117bd81611781565b9050919050565b7f45524332303a20617070726f766520746f20746865207a65726f20616464726560008201527f7373000000000000000000000000000000000000000000000000000000000000602082015250565b600061182060228361124a565b915061182b826117c4565b604082019050919050565b6000602082019050818103600083015261184f81611813565b9050919050565b7f45524332303a20696e73756666696369656e7420616c6c6f77616e6365000000600082015250565b600061188c601d8361124a565b915061189782611856565b602082019050919050565b600060208201905081810360008301526118bb8161187f565b9050919050565b7f45524332303a207472616e736665722066726f6d20746865207a65726f20616460008201527f6472657373000000000000000000000000000000000000000000000000000000602082015250565b600061191e60258361124a565b9150611929826118c2565b604082019050919050565b6000602082019050818103600083015261194d81611911565b9050919050565b7f45524332303a207472616e7366657220746f20746865207a65726f206164647260008201527f6573730000000000000000000000000000000000000000000000000000000000602082015250565b60006119b060238361124a565b91506119bb82611954565b604082019050919050565b600060208201905081810360008301526119df816119a3565b9050919050565b7f45524332303a207472616e7366657220616d6f756e742065786365656473206260008201527f616c616e63650000000000000000000000000000000000000000000000000000602082015250565b6000611a4260268361124a565b9150611a4d826119e6565b604082019050919050565b60006020820190508181036000830152611a7181611a35565b9050919050565b7f4f776e61626c653a2063616c6c6572206973206e6f7420746865206f776e6572600082015250565b6000611aae60208361124a565b9150611ab982611a78565b602082019050919050565b60006020820190508181036000830152611add81611aa1565b9050919050565b7f45524332303a206d696e7420746f20746865207a65726f206164647265737300600082015250565b6000611b1a601f8361124a565b9150611b2582611ae4565b602082019050919050565b60006020820190508181036000830152611b4981611b0d565b9050919050565b7f45524332303a206275726e2066726f6d20746865207a65726f2061646472657360008201527f7300000000000000000000000000000000000000000000000000000000000000602082015250565b6000611bac60218361124a565b9150611bb782611b50565b604082019050919050565b60006020820190508181036000830152611bdb81611b9f565b9050919050565b7f45524332303a206275726e20616d6f756e7420657863656564732062616c616e60008201527f6365000000000000000000000000000000000000000000000000000000000000602082015250565b6000611c3e60228361124a565b9150611c4982611be2565b604082019050919050565b60006020820190508181036000830152611c6d81611c31565b905091905056fea26469706673582212201ffeb4616c5b2d34d61b96de611abe4ce1041fa3201036dcfc80edcf5bc2ab5e64736f6c63430008110033",
  "devdoc": {
    "author": "Okwuosa Chijioke",
    "details": "This implements 2 ERC-20 tokens that will be minted in exactly the same proportion as the underlying ERC-20 token transferred into the Factory contract. The asset will be burned in exactly the same proportion when asked to redeem/withdrawal the underlying asset. The contract will implement periodic rebalancing",
    "kind": "dev",
    "methods": {},
    "title": "ERC-20 Rebase Tokens",
    "version": 1
  },
  "userdoc": {
    "kind": "user",
    "methods": {},
    "notice": "Still under development",
    "version": 1
  },
  "storageLayout": {
    "storage": [
      {
        "astId": 169,
        "contract": "contracts/TokenFactory.sol:TokenFactory",
        "label": "_status",
        "offset": 0,
        "slot": "0",
        "type": "t_uint256"
      },
      {
        "astId": 1906,
        "contract": "contracts/TokenFactory.sol:TokenFactory",
        "label": "s_scallingFactor",
        "offset": 0,
        "slot": "1",
        "type": "t_array(t_struct(scallingFactor)1902_storage)dyn_storage"
      },
      {
        "astId": 1910,
        "contract": "contracts/TokenFactory.sol:TokenFactory",
        "label": "s_devTokenArray",
        "offset": 0,
        "slot": "2",
        "type": "t_array(t_contract(DevToken)1878)dyn_storage"
      },
      {
        "astId": 1919,
        "contract": "contracts/TokenFactory.sol:TokenFactory",
        "label": "s_lastRebaseCount",
        "offset": 0,
        "slot": "3",
        "type": "t_mapping(t_address,t_uint256)"
      }
    ],
    "types": {
      "t_address": {
        "encoding": "inplace",
        "label": "address",
        "numberOfBytes": "20"
      },
      "t_array(t_contract(DevToken)1878)dyn_storage": {
        "base": "t_contract(DevToken)1878",
        "encoding": "dynamic_array",
        "label": "contract DevToken[]",
        "numberOfBytes": "32"
      },
      "t_array(t_struct(scallingFactor)1902_storage)dyn_storage": {
        "base": "t_struct(scallingFactor)1902_storage",
        "encoding": "dynamic_array",
        "label": "struct TokenFactory.scallingFactor[]",
        "numberOfBytes": "32"
      },
      "t_contract(DevToken)1878": {
        "encoding": "inplace",
        "label": "contract DevToken",
        "numberOfBytes": "20"
      },
      "t_mapping(t_address,t_uint256)": {
        "encoding": "mapping",
        "key": "t_address",
        "label": "mapping(address => uint256)",
        "numberOfBytes": "32",
        "value": "t_uint256"
      },
      "t_struct(scallingFactor)1902_storage": {
        "encoding": "inplace",
        "label": "struct TokenFactory.scallingFactor",
        "members": [
          {
            "astId": 1899,
            "contract": "contracts/TokenFactory.sol:TokenFactory",
            "label": "scallingFactorX",
            "offset": 0,
            "slot": "0",
            "type": "t_uint256"
          },
          {
            "astId": 1901,
            "contract": "contracts/TokenFactory.sol:TokenFactory",
            "label": "scallingFactorY",
            "offset": 0,
            "slot": "1",
            "type": "t_uint256"
          }
        ],
        "numberOfBytes": "64"
      },
      "t_uint256": {
        "encoding": "inplace",
        "label": "uint256",
        "numberOfBytes": "32"
      }
    }
  }
}