{
  "address": "0x47181826012506CCc3492e275Af28054a825dC0E",
  "abi": [
    {
      "inputs": [
        {
          "internalType": "string",
          "name": "tokenName",
          "type": "string"
        },
        {
          "internalType": "string",
          "name": "tokenSymbol",
          "type": "string"
        },
        {
          "internalType": "address",
          "name": "factoryAddress",
          "type": "address"
        },
        {
          "internalType": "address[]",
          "name": "defaultOperators",
          "type": "address[]"
        }
      ],
      "stateMutability": "nonpayable",
      "type": "constructor"
    },
    {
      "inputs": [],
      "name": "DevToken__MethodNotAllowed",
      "type": "error"
    },
    {
      "inputs": [],
      "name": "DevToken__NotTokenFactory",
      "type": "error"
    },
    {
      "anonymous": false,
      "inputs": [
        {
          "indexed": true,
          "internalType": "address",
          "name": "owner",
          "type": "address"
        },
        {
          "indexed": true,
          "internalType": "address",
          "name": "spender",
          "type": "address"
        },
        {
          "indexed": false,
          "internalType": "uint256",
          "name": "value",
          "type": "uint256"
        }
      ],
      "name": "Approval",
      "type": "event"
    },
    {
      "anonymous": false,
      "inputs": [
        {
          "indexed": true,
          "internalType": "address",
          "name": "operator",
          "type": "address"
        },
        {
          "indexed": true,
          "internalType": "address",
          "name": "tokenHolder",
          "type": "address"
        }
      ],
      "name": "AuthorizedOperator",
      "type": "event"
    },
    {
      "anonymous": false,
      "inputs": [
        {
          "indexed": true,
          "internalType": "address",
          "name": "operator",
          "type": "address"
        },
        {
          "indexed": true,
          "internalType": "address",
          "name": "from",
          "type": "address"
        },
        {
          "indexed": false,
          "internalType": "uint256",
          "name": "amount",
          "type": "uint256"
        },
        {
          "indexed": false,
          "internalType": "bytes",
          "name": "data",
          "type": "bytes"
        },
        {
          "indexed": false,
          "internalType": "bytes",
          "name": "operatorData",
          "type": "bytes"
        }
      ],
      "name": "Burned",
      "type": "event"
    },
    {
      "anonymous": false,
      "inputs": [
        {
          "indexed": true,
          "internalType": "address",
          "name": "operator",
          "type": "address"
        },
        {
          "indexed": true,
          "internalType": "address",
          "name": "to",
          "type": "address"
        },
        {
          "indexed": false,
          "internalType": "uint256",
          "name": "amount",
          "type": "uint256"
        },
        {
          "indexed": false,
          "internalType": "bytes",
          "name": "data",
          "type": "bytes"
        },
        {
          "indexed": false,
          "internalType": "bytes",
          "name": "operatorData",
          "type": "bytes"
        }
      ],
      "name": "Minted",
      "type": "event"
    },
    {
      "anonymous": false,
      "inputs": [
        {
          "indexed": true,
          "internalType": "address",
          "name": "operator",
          "type": "address"
        },
        {
          "indexed": true,
          "internalType": "address",
          "name": "tokenHolder",
          "type": "address"
        }
      ],
      "name": "RevokedOperator",
      "type": "event"
    },
    {
      "anonymous": false,
      "inputs": [
        {
          "indexed": true,
          "internalType": "address",
          "name": "operator",
          "type": "address"
        },
        {
          "indexed": true,
          "internalType": "address",
          "name": "from",
          "type": "address"
        },
        {
          "indexed": true,
          "internalType": "address",
          "name": "to",
          "type": "address"
        },
        {
          "indexed": false,
          "internalType": "uint256",
          "name": "amount",
          "type": "uint256"
        },
        {
          "indexed": false,
          "internalType": "bytes",
          "name": "data",
          "type": "bytes"
        },
        {
          "indexed": false,
          "internalType": "bytes",
          "name": "operatorData",
          "type": "bytes"
        }
      ],
      "name": "Sent",
      "type": "event"
    },
    {
      "anonymous": false,
      "inputs": [
        {
          "indexed": true,
          "internalType": "address",
          "name": "from",
          "type": "address"
        },
        {
          "indexed": true,
          "internalType": "address",
          "name": "to",
          "type": "address"
        },
        {
          "indexed": false,
          "internalType": "uint256",
          "name": "value",
          "type": "uint256"
        }
      ],
      "name": "Transfer",
      "type": "event"
    },
    {
      "inputs": [],
      "name": "DOMAIN_SEPARATOR",
      "outputs": [
        {
          "internalType": "bytes32",
          "name": "",
          "type": "bytes32"
        }
      ],
      "stateMutability": "view",
      "type": "function"
    },
    {
      "inputs": [],
      "name": "_PERMIT_TYPEHASH",
      "outputs": [
        {
          "internalType": "bytes32",
          "name": "",
          "type": "bytes32"
        }
      ],
      "stateMutability": "view",
      "type": "function"
    },
    {
      "inputs": [
        {
          "internalType": "address",
          "name": "holder",
          "type": "address"
        },
        {
          "internalType": "address",
          "name": "spender",
          "type": "address"
        }
      ],
      "name": "allowance",
      "outputs": [
        {
          "internalType": "uint256",
          "name": "",
          "type": "uint256"
        }
      ],
      "stateMutability": "view",
      "type": "function"
    },
    {
      "inputs": [
        {
          "internalType": "address",
          "name": "spender",
          "type": "address"
        },
        {
          "internalType": "uint256",
          "name": "value",
          "type": "uint256"
        }
      ],
      "name": "approve",
      "outputs": [
        {
          "internalType": "bool",
          "name": "",
          "type": "bool"
        }
      ],
      "stateMutability": "nonpayable",
      "type": "function"
    },
    {
      "inputs": [
        {
          "internalType": "address",
          "name": "operator",
          "type": "address"
        }
      ],
      "name": "authorizeOperator",
      "outputs": [],
      "stateMutability": "nonpayable",
      "type": "function"
    },
    {
      "inputs": [
        {
          "internalType": "address",
          "name": "account",
          "type": "address"
        }
      ],
      "name": "balanceOf",
      "outputs": [
        {
          "internalType": "uint256",
          "name": "",
          "type": "uint256"
        }
      ],
      "stateMutability": "view",
      "type": "function"
    },
    {
      "inputs": [
        {
          "internalType": "uint256",
          "name": "",
          "type": "uint256"
        },
        {
          "internalType": "bytes",
          "name": "",
          "type": "bytes"
        }
      ],
      "name": "burn",
      "outputs": [],
      "stateMutability": "pure",
      "type": "function"
    },
    {
      "inputs": [],
      "name": "decimals",
      "outputs": [
        {
          "internalType": "uint8",
          "name": "",
          "type": "uint8"
        }
      ],
      "stateMutability": "pure",
      "type": "function"
    },
    {
      "inputs": [],
      "name": "defaultOperators",
      "outputs": [
        {
          "internalType": "address[]",
          "name": "",
          "type": "address[]"
        }
      ],
      "stateMutability": "view",
      "type": "function"
    },
    {
      "inputs": [
        {
          "internalType": "address",
          "name": "account",
          "type": "address"
        },
        {
          "internalType": "uint256",
          "name": "amount",
          "type": "uint256"
        }
      ],
      "name": "devBurn",
      "outputs": [],
      "stateMutability": "nonpayable",
      "type": "function"
    },
    {
      "inputs": [],
      "name": "getTokenFactory",
      "outputs": [
        {
          "internalType": "address",
          "name": "",
          "type": "address"
        }
      ],
      "stateMutability": "view",
      "type": "function"
    },
    {
      "inputs": [],
      "name": "granularity",
      "outputs": [
        {
          "internalType": "uint256",
          "name": "",
          "type": "uint256"
        }
      ],
      "stateMutability": "view",
      "type": "function"
    },
    {
      "inputs": [
        {
          "internalType": "address",
          "name": "account",
          "type": "address"
        }
      ],
      "name": "hasPendingRebase",
      "outputs": [
        {
          "internalType": "bool",
          "name": "",
          "type": "bool"
        }
      ],
      "stateMutability": "view",
      "type": "function"
    },
    {
      "inputs": [
        {
          "internalType": "address",
          "name": "operator",
          "type": "address"
        },
        {
          "internalType": "address",
          "name": "tokenHolder",
          "type": "address"
        }
      ],
      "name": "isOperatorFor",
      "outputs": [
        {
          "internalType": "bool",
          "name": "",
          "type": "bool"
        }
      ],
      "stateMutability": "view",
      "type": "function"
    },
    {
      "inputs": [
        {
          "internalType": "address",
          "name": "receiver",
          "type": "address"
        },
        {
          "internalType": "uint256",
          "name": "amount",
          "type": "uint256"
        }
      ],
      "name": "mint",
      "outputs": [],
      "stateMutability": "nonpayable",
      "type": "function"
    },
    {
      "inputs": [],
      "name": "name",
      "outputs": [
        {
          "internalType": "string",
          "name": "",
          "type": "string"
        }
      ],
      "stateMutability": "view",
      "type": "function"
    },
    {
      "inputs": [
        {
          "internalType": "address",
          "name": "owner",
          "type": "address"
        }
      ],
      "name": "nonces",
      "outputs": [
        {
          "internalType": "uint256",
          "name": "",
          "type": "uint256"
        }
      ],
      "stateMutability": "view",
      "type": "function"
    },
    {
      "inputs": [
        {
          "internalType": "address",
          "name": "",
          "type": "address"
        },
        {
          "internalType": "uint256",
          "name": "",
          "type": "uint256"
        },
        {
          "internalType": "bytes",
          "name": "",
          "type": "bytes"
        },
        {
          "internalType": "bytes",
          "name": "",
          "type": "bytes"
        }
      ],
      "name": "operatorBurn",
      "outputs": [],
      "stateMutability": "pure",
      "type": "function"
    },
    {
      "inputs": [
        {
          "internalType": "address",
          "name": "sender",
          "type": "address"
        },
        {
          "internalType": "address",
          "name": "recipient",
          "type": "address"
        },
        {
          "internalType": "uint256",
          "name": "amount",
          "type": "uint256"
        },
        {
          "internalType": "bytes",
          "name": "data",
          "type": "bytes"
        },
        {
          "internalType": "bytes",
          "name": "operatorData",
          "type": "bytes"
        }
      ],
      "name": "operatorSend",
      "outputs": [],
      "stateMutability": "nonpayable",
      "type": "function"
    },
    {
      "inputs": [
        {
          "internalType": "address",
          "name": "owner",
          "type": "address"
        },
        {
          "internalType": "address",
          "name": "spender",
          "type": "address"
        },
        {
          "internalType": "uint256",
          "name": "value",
          "type": "uint256"
        },
        {
          "internalType": "uint256",
          "name": "deadline",
          "type": "uint256"
        },
        {
          "internalType": "uint8",
          "name": "v",
          "type": "uint8"
        },
        {
          "internalType": "bytes32",
          "name": "r",
          "type": "bytes32"
        },
        {
          "internalType": "bytes32",
          "name": "s",
          "type": "bytes32"
        }
      ],
      "name": "permit",
      "outputs": [],
      "stateMutability": "nonpayable",
      "type": "function"
    },
    {
      "inputs": [
        {
          "internalType": "address",
          "name": "operator",
          "type": "address"
        }
      ],
      "name": "revokeOperator",
      "outputs": [],
      "stateMutability": "nonpayable",
      "type": "function"
    },
    {
      "inputs": [
        {
          "internalType": "address",
          "name": "recipient",
          "type": "address"
        },
        {
          "internalType": "uint256",
          "name": "amount",
          "type": "uint256"
        },
        {
          "internalType": "bytes",
          "name": "data",
          "type": "bytes"
        }
      ],
      "name": "send",
      "outputs": [],
      "stateMutability": "nonpayable",
      "type": "function"
    },
    {
      "inputs": [],
      "name": "symbol",
      "outputs": [
        {
          "internalType": "string",
          "name": "",
          "type": "string"
        }
      ],
      "stateMutability": "view",
      "type": "function"
    },
    {
      "inputs": [],
      "name": "totalSupply",
      "outputs": [
        {
          "internalType": "uint256",
          "name": "",
          "type": "uint256"
        }
      ],
      "stateMutability": "view",
      "type": "function"
    },
    {
      "inputs": [
        {
          "internalType": "address",
          "name": "to",
          "type": "address"
        },
        {
          "internalType": "uint256",
          "name": "amount",
          "type": "uint256"
        }
      ],
      "name": "transfer",
      "outputs": [
        {
          "internalType": "bool",
          "name": "",
          "type": "bool"
        }
      ],
      "stateMutability": "nonpayable",
      "type": "function"
    },
    {
      "inputs": [
        {
          "internalType": "address",
          "name": "holder",
          "type": "address"
        },
        {
          "internalType": "address",
          "name": "recipient",
          "type": "address"
        },
        {
          "internalType": "uint256",
          "name": "amount",
          "type": "uint256"
        }
      ],
      "name": "transferFrom",
      "outputs": [
        {
          "internalType": "bool",
          "name": "",
          "type": "bool"
        }
      ],
      "stateMutability": "nonpayable",
      "type": "function"
    },
    {
      "inputs": [
        {
          "internalType": "address",
          "name": "account",
          "type": "address"
        }
      ],
      "name": "unScaledbalanceOf",
      "outputs": [
        {
          "internalType": "uint256",
          "name": "",
          "type": "uint256"
        }
      ],
      "stateMutability": "view",
      "type": "function"
    }
  ],
  "transactionHash": "0xeb19d40b1e979f586d6c30f6faf5d3524e71489d5ba9549e71ae1600f959da43",
  "args": [
    "RistP Two",
    "R2",
    "0xCF98e5bEFf0D256EEc49b591613293724d70042F",
    []
  ],
  "numDeployments": 2,
  "solcInputHash": "920e49f1b997a95fc7ddf024757d22df",
  "bytecode": "0x6101606040523480156200001257600080fd5b5060405162004de638038062004de6833981810160405281019062000038919062000749565b83806040518060400160405280600181526020017f3100000000000000000000000000000000000000000000000000000000000000815250868685826002908162000084919062000a63565b50816003908162000096919062000a63565b508060049080519060200190620000af929190620003c8565b5060005b81518110156200014857600160056000848481518110620000d957620000d862000b4a565b5b602002602001015173ffffffffffffffffffffffffffffffffffffffff1673ffffffffffffffffffffffffffffffffffffffff16815260200190815260200160002060006101000a81548160ff02191690831515021790555080806200013f9062000ba8565b915050620000b3565b50731820a4b7618bde71dce8cdc73aab6c95905fad2473ffffffffffffffffffffffffffffffffffffffff166329965a1d307fac7fbab5f54a3ca8194167523c6753bfeb96a445279294b6125b68cce2177054306040518463ffffffff1660e01b8152600401620001bc9392919062000c21565b600060405180830381600087803b158015620001d757600080fd5b505af1158015620001ec573d6000803e3d6000fd5b50505050731820a4b7618bde71dce8cdc73aab6c95905fad2473ffffffffffffffffffffffffffffffffffffffff166329965a1d307faea199e31a596269b42cdafd93407f14436db6e4cad65417994c2eb37381e05a306040518463ffffffff1660e01b8152600401620002639392919062000c21565b600060405180830381600087803b1580156200027e57600080fd5b505af115801562000293573d6000803e3d6000fd5b5050505050505060008280519060200120905060008280519060200120905060007f8b73c3c69bb8fe3d512ecc4cf759cc79239f7b179b0ffacaa9a75d522b39400f90508260e081815250508161010081815250504660a08181525050620003038184846200038c60201b60201c565b608081815250503073ffffffffffffffffffffffffffffffffffffffff1660c08173ffffffffffffffffffffffffffffffffffffffff16815250508061012081815250505050505050508173ffffffffffffffffffffffffffffffffffffffff166101408173ffffffffffffffffffffffffffffffffffffffff16815250505050505062000ccc565b60008383834630604051602001620003a995949392919062000c6f565b6040516020818303038152906040528051906020012090509392505050565b82805482825590600052602060002090810192821562000444579160200282015b82811115620004435782518260006101000a81548173ffffffffffffffffffffffffffffffffffffffff021916908373ffffffffffffffffffffffffffffffffffffffff16021790555091602001919060010190620003e9565b5b50905062000453919062000457565b5090565b5b808211156200047257600081600090555060010162000458565b5090565b6000604051905090565b600080fd5b600080fd5b600080fd5b600080fd5b6000601f19601f8301169050919050565b7f4e487b7100000000000000000000000000000000000000000000000000000000600052604160045260246000fd5b620004df8262000494565b810181811067ffffffffffffffff82111715620005015762000500620004a5565b5b80604052505050565b60006200051662000476565b9050620005248282620004d4565b919050565b600067ffffffffffffffff821115620005475762000546620004a5565b5b620005528262000494565b9050602081019050919050565b60005b838110156200057f57808201518184015260208101905062000562565b60008484015250505050565b6000620005a26200059c8462000529565b6200050a565b905082815260208101848484011115620005c157620005c06200048f565b5b620005ce8482856200055f565b509392505050565b600082601f830112620005ee57620005ed6200048a565b5b8151620006008482602086016200058b565b91505092915050565b600073ffffffffffffffffffffffffffffffffffffffff82169050919050565b6000620006368262000609565b9050919050565b620006488162000629565b81146200065457600080fd5b50565b60008151905062000668816200063d565b92915050565b600067ffffffffffffffff8211156200068c576200068b620004a5565b5b602082029050602081019050919050565b600080fd5b6000620006b9620006b3846200066e565b6200050a565b90508083825260208201905060208402830185811115620006df57620006de6200069d565b5b835b818110156200070c5780620006f7888262000657565b845260208401935050602081019050620006e1565b5050509392505050565b600082601f8301126200072e576200072d6200048a565b5b815162000740848260208601620006a2565b91505092915050565b6000806000806080858703121562000766576200076562000480565b5b600085015167ffffffffffffffff81111562000787576200078662000485565b5b6200079587828801620005d6565b945050602085015167ffffffffffffffff811115620007b957620007b862000485565b5b620007c787828801620005d6565b9350506040620007da8782880162000657565b925050606085015167ffffffffffffffff811115620007fe57620007fd62000485565b5b6200080c8782880162000716565b91505092959194509250565b600081519050919050565b7f4e487b7100000000000000000000000000000000000000000000000000000000600052602260045260246000fd5b600060028204905060018216806200086b57607f821691505b60208210810362000881576200088062000823565b5b50919050565b60008190508160005260206000209050919050565b60006020601f8301049050919050565b600082821b905092915050565b600060088302620008eb7fffffffffffffffffffffffffffffffffffffffffffffffffffffffffffffffff82620008ac565b620008f78683620008ac565b95508019841693508086168417925050509392505050565b6000819050919050565b6000819050919050565b6000620009446200093e62000938846200090f565b62000919565b6200090f565b9050919050565b6000819050919050565b620009608362000923565b620009786200096f826200094b565b848454620008b9565b825550505050565b600090565b6200098f62000980565b6200099c81848462000955565b505050565b5b81811015620009c457620009b860008262000985565b600181019050620009a2565b5050565b601f82111562000a1357620009dd8162000887565b620009e8846200089c565b81016020851015620009f8578190505b62000a1062000a07856200089c565b830182620009a1565b50505b505050565b600082821c905092915050565b600062000a386000198460080262000a18565b1980831691505092915050565b600062000a53838362000a25565b9150826002028217905092915050565b62000a6e8262000818565b67ffffffffffffffff81111562000a8a5762000a89620004a5565b5b62000a96825462000852565b62000aa3828285620009c8565b600060209050601f83116001811462000adb576000841562000ac6578287015190505b62000ad2858262000a45565b86555062000b42565b601f19841662000aeb8662000887565b60005b8281101562000b155784890151825560018201915060208501945060208101905062000aee565b8683101562000b35578489015162000b31601f89168262000a25565b8355505b6001600288020188555050505b505050505050565b7f4e487b7100000000000000000000000000000000000000000000000000000000600052603260045260246000fd5b7f4e487b7100000000000000000000000000000000000000000000000000000000600052601160045260246000fd5b600062000bb5826200090f565b91507fffffffffffffffffffffffffffffffffffffffffffffffffffffffffffffffff820362000bea5762000be962000b79565b5b600182019050919050565b62000c008162000629565b82525050565b6000819050919050565b62000c1b8162000c06565b82525050565b600060608201905062000c38600083018662000bf5565b62000c47602083018562000c10565b62000c56604083018462000bf5565b949350505050565b62000c69816200090f565b82525050565b600060a08201905062000c86600083018862000c10565b62000c95602083018762000c10565b62000ca4604083018662000c10565b62000cb3606083018562000c5e565b62000cc2608083018462000bf5565b9695505050505050565b60805160a05160c05160e05161010051610120516101405161408062000d666000396000818161070a01528181610799015281816108540152818161098601528181610a9c01528181610deb01528181610e7701528181610f2701528181610fb3015261105401526000611b6c01526000611bae01526000611b8d01526000611ac201526000611b1801526000611b4101526140806000f3fe608060405234801561001057600080fd5b50600436106101a95760003560e01c80638f4cef0c116100f9578063aaeba2e211610097578063dd62ed3e11610071578063dd62ed3e146104e4578063fad8b32a14610514578063fc673c4f14610530578063fe9d93031461054c576101a9565b8063aaeba2e21461047c578063d505accf14610498578063d95b6371146104b4576101a9565b806395d89b41116100d357806395d89b41146103f4578063982aaf6b146104125780639bd9bbc614610430578063a9059cbb1461044c576101a9565b80638f4cef0c1461038a578063925d6ba2146103ba578063959b8c3f146103d8576101a9565b8063313ce56711610166578063556f0dc711610140578063556f0dc7146102f057806362ad1b831461030e57806370a082311461032a5780637ecebe001461035a576101a9565b8063313ce567146102985780633644e515146102b657806340c10f19146102d4576101a9565b806306e48538146101ae57806306fdde03146101cc578063095ea7b3146101ea57806318160ddd1461021a57806323b872dd146102385780632ec34d3814610268575b600080fd5b6101b6610568565b6040516101c39190612ab5565b60405180910390f35b6101d46105f6565b6040516101e19190612b67565b60405180910390f35b61020460048036038101906101ff9190612bff565b610688565b6040516102119190612c5a565b60405180910390f35b6102226106ab565b60405161022f9190612c84565b60405180910390f35b610252600480360381019061024d9190612c9f565b6106b5565b60405161025f9190612c5a565b60405180910390f35b610282600480360381019061027d9190612cf2565b610706565b60405161028f9190612c5a565b60405180910390f35b6102a061083a565b6040516102ad9190612d3b565b60405180910390f35b6102be610843565b6040516102cb9190612d6f565b60405180910390f35b6102ee60048036038101906102e99190612bff565b610852565b005b6102f8610905565b6040516103059190612c84565b60405180910390f35b61032860048036038101906103239190612ebf565b61090e565b005b610344600480360381019061033f9190612cf2565b610974565b6040516103519190612c84565b60405180910390f35b610374600480360381019061036f9190612cf2565b610a36565b6040516103819190612c84565b60405180910390f35b6103a4600480360381019061039f9190612cf2565b610a86565b6040516103b19190612c84565b60405180910390f35b6103c2610a98565b6040516103cf9190612f81565b60405180910390f35b6103f260048036038101906103ed9190612cf2565b610ac0565b005b6103fc610d20565b6040516104099190612b67565b60405180910390f35b61041a610db2565b6040516104279190612d6f565b60405180910390f35b61044a60048036038101906104459190612f9c565b610dd6565b005b61046660048036038101906104619190612bff565b610f11565b6040516104739190612c5a565b60405180910390f35b61049660048036038101906104919190612bff565b611052565b005b6104b260048036038101906104ad9190613063565b611105565b005b6104ce60048036038101906104c99190613105565b611247565b6040516104db9190612c5a565b60405180910390f35b6104fe60048036038101906104f99190613105565b6113f8565b60405161050b9190612c84565b60405180910390f35b61052e60048036038101906105299190612cf2565b61147f565b005b61054a60048036038101906105459190613145565b6116df565b005b610566600480360381019061056191906131e4565b611711565b005b606060048054806020026020016040519081016040528092919081815260200182805480156105ec57602002820191906000526020600020905b8160009054906101000a900473ffffffffffffffffffffffffffffffffffffffff1673ffffffffffffffffffffffffffffffffffffffff16815260200190600101908083116105a2575b5050505050905090565b6060600280546106059061326f565b80601f01602080910402602001604051908101604052809291908181526020018280546106319061326f565b801561067e5780601f106106535761010080835404028352916020019161067e565b820191906000526020600020905b81548152906001019060200180831161066157829003601f168201915b5050505050905090565b600080610693611743565b90506106a081858561174b565b600191505092915050565b6000600154905090565b6000806106c0611743565b90506106cd858285611914565b6106fa858585604051806020016040528060008152506040518060200160405280600081525060006119a0565b60019150509392505050565b60007f000000000000000000000000000000000000000000000000000000000000000073ffffffffffffffffffffffffffffffffffffffff166378c1a6c46040518163ffffffff1660e01b8152600401602060405180830381865afa158015610773573d6000803e3d6000fd5b505050506040513d601f19601f8201168201806040525081019061079791906132b5565b7f000000000000000000000000000000000000000000000000000000000000000073ffffffffffffffffffffffffffffffffffffffff16637b69ce2f846040518263ffffffff1660e01b81526004016107f09190612f81565b602060405180830381865afa15801561080d573d6000803e3d6000fd5b505050506040513d601f19601f8201168201806040525081019061083191906132b5565b14159050919050565b60006012905090565b600061084d611abe565b905090565b7f000000000000000000000000000000000000000000000000000000000000000073ffffffffffffffffffffffffffffffffffffffff163373ffffffffffffffffffffffffffffffffffffffff16146108d7576040517f9fb5b57800000000000000000000000000000000000000000000000000000000815260040160405180910390fd5b61090182826040518060200160405280600081525060405180602001604052806000815250611bd8565b5050565b60006001905090565b61091f610919611743565b86611247565b61095e576040517f08c379a000000000000000000000000000000000000000000000000000000000815260040161095590613354565b60405180910390fd5b61096d858585858560016119a0565b5050505050565b600061097f82610706565b15610a25577f000000000000000000000000000000000000000000000000000000000000000073ffffffffffffffffffffffffffffffffffffffff1663a4d96e17836040518263ffffffff1660e01b81526004016109dd9190612f81565b602060405180830381865afa1580156109fa573d6000803e3d6000fd5b505050506040513d601f19601f82011682018060405250810190610a1e91906132b5565b9050610a31565b610a2e82610a86565b90505b919050565b6000610a7f600960008473ffffffffffffffffffffffffffffffffffffffff1673ffffffffffffffffffffffffffffffffffffffff168152602001908152602001600020611bec565b9050919050565b6000610a9182611bfa565b9050919050565b60007f0000000000000000000000000000000000000000000000000000000000000000905090565b8073ffffffffffffffffffffffffffffffffffffffff16610adf611743565b73ffffffffffffffffffffffffffffffffffffffff1603610b35576040517f08c379a0000000000000000000000000000000000000000000000000000000008152600401610b2c906133e6565b60405180910390fd5b600560008273ffffffffffffffffffffffffffffffffffffffff1673ffffffffffffffffffffffffffffffffffffffff16815260200190815260200160002060009054906101000a900460ff1615610c1f5760076000610b93611743565b73ffffffffffffffffffffffffffffffffffffffff1673ffffffffffffffffffffffffffffffffffffffff16815260200190815260200160002060008273ffffffffffffffffffffffffffffffffffffffff1673ffffffffffffffffffffffffffffffffffffffff16815260200190815260200160002060006101000a81549060ff0219169055610cbc565b600160066000610c2d611743565b73ffffffffffffffffffffffffffffffffffffffff1673ffffffffffffffffffffffffffffffffffffffff16815260200190815260200160002060008373ffffffffffffffffffffffffffffffffffffffff1673ffffffffffffffffffffffffffffffffffffffff16815260200190815260200160002060006101000a81548160ff0219169083151502179055505b610cc4611743565b73ffffffffffffffffffffffffffffffffffffffff168173ffffffffffffffffffffffffffffffffffffffff167ff4caeb2d6ca8932a215a353d0703c326ec2d81fc68170f320eb2ab49e9df61f960405160405180910390a350565b606060038054610d2f9061326f565b80601f0160208091040260200160405190810160405280929190818152602001828054610d5b9061326f565b8015610da85780601f10610d7d57610100808354040283529160200191610da8565b820191906000526020600020905b815481529060010190602001808311610d8b57829003601f168201915b5050505050905090565b7f6e71edae12b1b97f4d1f60370fef10105fa2faae0126114a169c64845d6126c981565b6000339050610de481610706565b15610e75577f000000000000000000000000000000000000000000000000000000000000000073ffffffffffffffffffffffffffffffffffffffff166326720aa6826040518263ffffffff1660e01b8152600401610e429190612f81565b600060405180830381600087803b158015610e5c57600080fd5b505af1158015610e70573d6000803e3d6000fd5b505050505b7f000000000000000000000000000000000000000000000000000000000000000073ffffffffffffffffffffffffffffffffffffffff1663b722d6a4856040518263ffffffff1660e01b8152600401610ece9190612f81565b600060405180830381600087803b158015610ee857600080fd5b505af1158015610efc573d6000803e3d6000fd5b50505050610f0b848484611c42565b50505050565b600080339050610f2081610706565b15610fb1577f000000000000000000000000000000000000000000000000000000000000000073ffffffffffffffffffffffffffffffffffffffff166326720aa6826040518263ffffffff1660e01b8152600401610f7e9190612f81565b600060405180830381600087803b158015610f9857600080fd5b505af1158015610fac573d6000803e3d6000fd5b505050505b7f000000000000000000000000000000000000000000000000000000000000000073ffffffffffffffffffffffffffffffffffffffff1663b722d6a4856040518263ffffffff1660e01b815260040161100a9190612f81565b600060405180830381600087803b15801561102457600080fd5b505af1158015611038573d6000803e3d6000fd5b505050506110468484611c6c565b50600191505092915050565b7f000000000000000000000000000000000000000000000000000000000000000073ffffffffffffffffffffffffffffffffffffffff163373ffffffffffffffffffffffffffffffffffffffff16146110d7576040517f9fb5b57800000000000000000000000000000000000000000000000000000000815260040160405180910390fd5b61110182826040518060200160405280600081525060405180602001604052806000815250611cac565b5050565b83421115611148576040517f08c379a000000000000000000000000000000000000000000000000000000000815260040161113f90613452565b60405180910390fd5b60007f6e71edae12b1b97f4d1f60370fef10105fa2faae0126114a169c64845d6126c98888886111778c611efe565b8960405160200161118d96959493929190613472565b60405160208183030381529060405280519060200120905060006111b082611f5c565b905060006111c082878787611f76565b90508973ffffffffffffffffffffffffffffffffffffffff168173ffffffffffffffffffffffffffffffffffffffff1614611230576040517f08c379a00000000000000000000000000000000000000000000000000000000081526004016112279061351f565b60405180910390fd5b61123b8a8a8a61174b565b50505050505050505050565b60008173ffffffffffffffffffffffffffffffffffffffff168373ffffffffffffffffffffffffffffffffffffffff16148061135f5750600560008473ffffffffffffffffffffffffffffffffffffffff1673ffffffffffffffffffffffffffffffffffffffff16815260200190815260200160002060009054906101000a900460ff16801561135e5750600760008373ffffffffffffffffffffffffffffffffffffffff1673ffffffffffffffffffffffffffffffffffffffff16815260200190815260200160002060008473ffffffffffffffffffffffffffffffffffffffff1673ffffffffffffffffffffffffffffffffffffffff16815260200190815260200160002060009054906101000a900460ff16155b5b806113f05750600660008373ffffffffffffffffffffffffffffffffffffffff1673ffffffffffffffffffffffffffffffffffffffff16815260200190815260200160002060008473ffffffffffffffffffffffffffffffffffffffff1673ffffffffffffffffffffffffffffffffffffffff16815260200190815260200160002060009054906101000a900460ff165b905092915050565b6000600860008473ffffffffffffffffffffffffffffffffffffffff1673ffffffffffffffffffffffffffffffffffffffff16815260200190815260200160002060008373ffffffffffffffffffffffffffffffffffffffff1673ffffffffffffffffffffffffffffffffffffffff16815260200190815260200160002054905092915050565b611487611743565b73ffffffffffffffffffffffffffffffffffffffff168173ffffffffffffffffffffffffffffffffffffffff16036114f4576040517f08c379a00000000000000000000000000000000000000000000000000000000081526004016114eb906135b1565b60405180910390fd5b600560008273ffffffffffffffffffffffffffffffffffffffff1673ffffffffffffffffffffffffffffffffffffffff16815260200190815260200160002060009054906101000a900460ff16156115e757600160076000611554611743565b73ffffffffffffffffffffffffffffffffffffffff1673ffffffffffffffffffffffffffffffffffffffff16815260200190815260200160002060008373ffffffffffffffffffffffffffffffffffffffff1673ffffffffffffffffffffffffffffffffffffffff16815260200190815260200160002060006101000a81548160ff02191690831515021790555061167b565b600660006115f3611743565b73ffffffffffffffffffffffffffffffffffffffff1673ffffffffffffffffffffffffffffffffffffffff16815260200190815260200160002060008273ffffffffffffffffffffffffffffffffffffffff1673ffffffffffffffffffffffffffffffffffffffff16815260200190815260200160002060006101000a81549060ff02191690555b611683611743565b73ffffffffffffffffffffffffffffffffffffffff168173ffffffffffffffffffffffffffffffffffffffff167f50546e66e5f44d728365dc3908c63bc5cfeeab470722c1677e3073a6ac294aa160405160405180910390a350565b6040517f8790c37a00000000000000000000000000000000000000000000000000000000815260040160405180910390fd5b6040517f8790c37a00000000000000000000000000000000000000000000000000000000815260040160405180910390fd5b600033905090565b600073ffffffffffffffffffffffffffffffffffffffff168373ffffffffffffffffffffffffffffffffffffffff16036117ba576040517f08c379a00000000000000000000000000000000000000000000000000000000081526004016117b190613643565b60405180910390fd5b600073ffffffffffffffffffffffffffffffffffffffff168273ffffffffffffffffffffffffffffffffffffffff1603611829576040517f08c379a0000000000000000000000000000000000000000000000000000000008152600401611820906136d5565b60405180910390fd5b80600860008573ffffffffffffffffffffffffffffffffffffffff1673ffffffffffffffffffffffffffffffffffffffff16815260200190815260200160002060008473ffffffffffffffffffffffffffffffffffffffff1673ffffffffffffffffffffffffffffffffffffffff168152602001908152602001600020819055508173ffffffffffffffffffffffffffffffffffffffff168373ffffffffffffffffffffffffffffffffffffffff167f8c5be1e5ebec7d5bd14f71427d1e84f3dd0314c0f7b2291e5b200ac8c7c3b925836040516119079190612c84565b60405180910390a3505050565b600061192084846113f8565b90507fffffffffffffffffffffffffffffffffffffffffffffffffffffffffffffffff811461199a578181101561198c576040517f08c379a000000000000000000000000000000000000000000000000000000000815260040161198390613741565b60405180910390fd5b611999848484840361174b565b5b50505050565b600073ffffffffffffffffffffffffffffffffffffffff168673ffffffffffffffffffffffffffffffffffffffff1603611a0f576040517f08c379a0000000000000000000000000000000000000000000000000000000008152600401611a06906137d3565b60405180910390fd5b600073ffffffffffffffffffffffffffffffffffffffff168573ffffffffffffffffffffffffffffffffffffffff1603611a7e576040517f08c379a0000000000000000000000000000000000000000000000000000000008152600401611a7590613865565b60405180910390fd5b6000611a88611743565b9050611a98818888888888611fa1565b611aa6818888888888612108565b611ab581888888888888612322565b50505050505050565b60007f000000000000000000000000000000000000000000000000000000000000000073ffffffffffffffffffffffffffffffffffffffff163073ffffffffffffffffffffffffffffffffffffffff16148015611b3a57507f000000000000000000000000000000000000000000000000000000000000000046145b15611b67577f00000000000000000000000000000000000000000000000000000000000000009050611bd5565b611bd27f00000000000000000000000000000000000000000000000000000000000000007f00000000000000000000000000000000000000000000000000000000000000007f00000000000000000000000000000000000000000000000000000000000000006124f4565b90505b90565b611be684848484600161252e565b50505050565b600081600001549050919050565b60008060008373ffffffffffffffffffffffffffffffffffffffff1673ffffffffffffffffffffffffffffffffffffffff168152602001908152602001600020549050919050565b611c67611c4d611743565b8484846040518060200160405280600081525060016119a0565b505050565b6000611ca2611c79611743565b8484604051806020016040528060008152506040518060200160405280600081525060006119a0565b6001905092915050565b600073ffffffffffffffffffffffffffffffffffffffff168473ffffffffffffffffffffffffffffffffffffffff1603611d1b576040517f08c379a0000000000000000000000000000000000000000000000000000000008152600401611d12906138f7565b60405180910390fd5b6000611d25611743565b9050611d3681866000878787611fa1565b611d43818660008761270b565b60008060008773ffffffffffffffffffffffffffffffffffffffff1673ffffffffffffffffffffffffffffffffffffffff16815260200190815260200160002054905084811015611dc9576040517f08c379a0000000000000000000000000000000000000000000000000000000008152600401611dc090613989565b60405180910390fd5b8481036000808873ffffffffffffffffffffffffffffffffffffffff1673ffffffffffffffffffffffffffffffffffffffff168152602001908152602001600020819055508460016000828254611e2091906139d8565b925050819055508573ffffffffffffffffffffffffffffffffffffffff168273ffffffffffffffffffffffffffffffffffffffff167fa78a9be3a7b862d26933ad85fb11d80ef66b8f972d7cbba06621d583943a4098878787604051611e8893929190613a61565b60405180910390a3600073ffffffffffffffffffffffffffffffffffffffff168673ffffffffffffffffffffffffffffffffffffffff167fddf252ad1be2c89b69c2b068fc378daa952ba7f163c4a11628f55a4df523b3ef87604051611eee9190612c84565b60405180910390a3505050505050565b600080600960008473ffffffffffffffffffffffffffffffffffffffff1673ffffffffffffffffffffffffffffffffffffffff1681526020019081526020016000209050611f4b81611bec565b9150611f5681612711565b50919050565b6000611f6f611f69611abe565b83612727565b9050919050565b6000806000611f878787878761275a565b91509150611f948161283c565b8192505050949350505050565b6000731820a4b7618bde71dce8cdc73aab6c95905fad2473ffffffffffffffffffffffffffffffffffffffff1663aabbb8ca877f29ddb589b1fb5fc7cf394961c1adf5f8c6454761adf795e67fe149f658abe8956040518363ffffffff1660e01b8152600401612012929190613aa6565b602060405180830381865afa15801561202f573d6000803e3d6000fd5b505050506040513d601f19601f820116820180604052508101906120539190613ae4565b9050600073ffffffffffffffffffffffffffffffffffffffff168173ffffffffffffffffffffffffffffffffffffffff16146120ff578073ffffffffffffffffffffffffffffffffffffffff166375ab97828888888888886040518763ffffffff1660e01b81526004016120cc96959493929190613b11565b600060405180830381600087803b1580156120e657600080fd5b505af11580156120fa573d6000803e3d6000fd5b505050505b50505050505050565b6121148686868661270b565b60008060008773ffffffffffffffffffffffffffffffffffffffff1673ffffffffffffffffffffffffffffffffffffffff1681526020019081526020016000205490508381101561219a576040517f08c379a000000000000000000000000000000000000000000000000000000000815260040161219190613bf2565b60405180910390fd5b8381036000808873ffffffffffffffffffffffffffffffffffffffff1673ffffffffffffffffffffffffffffffffffffffff16815260200190815260200160002081905550836000808773ffffffffffffffffffffffffffffffffffffffff1673ffffffffffffffffffffffffffffffffffffffff168152602001908152602001600020600082825461222d9190613c12565b925050819055508473ffffffffffffffffffffffffffffffffffffffff168673ffffffffffffffffffffffffffffffffffffffff168873ffffffffffffffffffffffffffffffffffffffff167f06b541ddaa720db2b10a4d0cdac39b8d360425fc073085fac19bc826146779878787876040516122ac93929190613a61565b60405180910390a48473ffffffffffffffffffffffffffffffffffffffff168673ffffffffffffffffffffffffffffffffffffffff167fddf252ad1be2c89b69c2b068fc378daa952ba7f163c4a11628f55a4df523b3ef866040516123119190612c84565b60405180910390a350505050505050565b6000731820a4b7618bde71dce8cdc73aab6c95905fad2473ffffffffffffffffffffffffffffffffffffffff1663aabbb8ca877fb281fc8c12954d22544db45de3159a39272895b169a852b314f9cc762e44c53b6040518363ffffffff1660e01b8152600401612393929190613aa6565b602060405180830381865afa1580156123b0573d6000803e3d6000fd5b505050506040513d601f19601f820116820180604052508101906123d49190613ae4565b9050600073ffffffffffffffffffffffffffffffffffffffff168173ffffffffffffffffffffffffffffffffffffffff1614612483578073ffffffffffffffffffffffffffffffffffffffff166223de298989898989896040518763ffffffff1660e01b815260040161244c96959493929190613b11565b600060405180830381600087803b15801561246657600080fd5b505af115801561247a573d6000803e3d6000fd5b505050506124ea565b81156124e9576124a88673ffffffffffffffffffffffffffffffffffffffff166129a2565b156124e8576040517f08c379a00000000000000000000000000000000000000000000000000000000081526004016124df90613cde565b60405180910390fd5b5b5b5050505050505050565b6000838383463060405160200161250f959493929190613cfe565b6040516020818303038152906040528051906020012090509392505050565b600073ffffffffffffffffffffffffffffffffffffffff168573ffffffffffffffffffffffffffffffffffffffff160361259d576040517f08c379a000000000000000000000000000000000000000000000000000000000815260040161259490613d9d565b60405180910390fd5b60006125a7611743565b90506125b6816000888861270b565b84600160008282546125c89190613c12565b92505081905550846000808873ffffffffffffffffffffffffffffffffffffffff1673ffffffffffffffffffffffffffffffffffffffff168152602001908152602001600020600082825461261d9190613c12565b925050819055506126348160008888888888612322565b8573ffffffffffffffffffffffffffffffffffffffff168173ffffffffffffffffffffffffffffffffffffffff167f2fe5be0146f74c5bce36c0b80911af6c7d86ff27e89d5cfa61fc681327954e5d87878760405161269593929190613a61565b60405180910390a38573ffffffffffffffffffffffffffffffffffffffff16600073ffffffffffffffffffffffffffffffffffffffff167fddf252ad1be2c89b69c2b068fc378daa952ba7f163c4a11628f55a4df523b3ef876040516126fb9190612c84565b60405180910390a3505050505050565b50505050565b6001816000016000828254019250508190555050565b6000828260405160200161273c929190613e35565b60405160208183030381529060405280519060200120905092915050565b6000807f7fffffffffffffffffffffffffffffff5d576e7357a4501ddfe92f46681b20a08360001c1115612795576000600391509150612833565b6000600187878787604051600081526020016040526040516127ba9493929190613e6c565b6020604051602081039080840390855afa1580156127dc573d6000803e3d6000fd5b505050602060405103519050600073ffffffffffffffffffffffffffffffffffffffff168173ffffffffffffffffffffffffffffffffffffffff160361282a57600060019250925050612833565b80600092509250505b94509492505050565b600060048111156128505761284f613eb1565b5b81600481111561286357612862613eb1565b5b031561299f576001600481111561287d5761287c613eb1565b5b8160048111156128905761288f613eb1565b5b036128d0576040517f08c379a00000000000000000000000000000000000000000000000000000000081526004016128c790613f2c565b60405180910390fd5b600260048111156128e4576128e3613eb1565b5b8160048111156128f7576128f6613eb1565b5b03612937576040517f08c379a000000000000000000000000000000000000000000000000000000000815260040161292e90613f98565b60405180910390fd5b6003600481111561294b5761294a613eb1565b5b81600481111561295e5761295d613eb1565b5b0361299e576040517f08c379a00000000000000000000000000000000000000000000000000000000081526004016129959061402a565b60405180910390fd5b5b50565b6000808273ffffffffffffffffffffffffffffffffffffffff163b119050919050565b600081519050919050565b600082825260208201905092915050565b6000819050602082019050919050565b600073ffffffffffffffffffffffffffffffffffffffff82169050919050565b6000612a1c826129f1565b9050919050565b612a2c81612a11565b82525050565b6000612a3e8383612a23565b60208301905092915050565b6000602082019050919050565b6000612a62826129c5565b612a6c81856129d0565b9350612a77836129e1565b8060005b83811015612aa8578151612a8f8882612a32565b9750612a9a83612a4a565b925050600181019050612a7b565b5085935050505092915050565b60006020820190508181036000830152612acf8184612a57565b905092915050565b600081519050919050565b600082825260208201905092915050565b60005b83811015612b11578082015181840152602081019050612af6565b60008484015250505050565b6000601f19601f8301169050919050565b6000612b3982612ad7565b612b438185612ae2565b9350612b53818560208601612af3565b612b5c81612b1d565b840191505092915050565b60006020820190508181036000830152612b818184612b2e565b905092915050565b6000604051905090565b600080fd5b600080fd5b612ba681612a11565b8114612bb157600080fd5b50565b600081359050612bc381612b9d565b92915050565b6000819050919050565b612bdc81612bc9565b8114612be757600080fd5b50565b600081359050612bf981612bd3565b92915050565b60008060408385031215612c1657612c15612b93565b5b6000612c2485828601612bb4565b9250506020612c3585828601612bea565b9150509250929050565b60008115159050919050565b612c5481612c3f565b82525050565b6000602082019050612c6f6000830184612c4b565b92915050565b612c7e81612bc9565b82525050565b6000602082019050612c996000830184612c75565b92915050565b600080600060608486031215612cb857612cb7612b93565b5b6000612cc686828701612bb4565b9350506020612cd786828701612bb4565b9250506040612ce886828701612bea565b9150509250925092565b600060208284031215612d0857612d07612b93565b5b6000612d1684828501612bb4565b91505092915050565b600060ff82169050919050565b612d3581612d1f565b82525050565b6000602082019050612d506000830184612d2c565b92915050565b6000819050919050565b612d6981612d56565b82525050565b6000602082019050612d846000830184612d60565b92915050565b600080fd5b600080fd5b7f4e487b7100000000000000000000000000000000000000000000000000000000600052604160045260246000fd5b612dcc82612b1d565b810181811067ffffffffffffffff82111715612deb57612dea612d94565b5b80604052505050565b6000612dfe612b89565b9050612e0a8282612dc3565b919050565b600067ffffffffffffffff821115612e2a57612e29612d94565b5b612e3382612b1d565b9050602081019050919050565b82818337600083830152505050565b6000612e62612e5d84612e0f565b612df4565b905082815260208101848484011115612e7e57612e7d612d8f565b5b612e89848285612e40565b509392505050565b600082601f830112612ea657612ea5612d8a565b5b8135612eb6848260208601612e4f565b91505092915050565b600080600080600060a08688031215612edb57612eda612b93565b5b6000612ee988828901612bb4565b9550506020612efa88828901612bb4565b9450506040612f0b88828901612bea565b935050606086013567ffffffffffffffff811115612f2c57612f2b612b98565b5b612f3888828901612e91565b925050608086013567ffffffffffffffff811115612f5957612f58612b98565b5b612f6588828901612e91565b9150509295509295909350565b612f7b81612a11565b82525050565b6000602082019050612f966000830184612f72565b92915050565b600080600060608486031215612fb557612fb4612b93565b5b6000612fc386828701612bb4565b9350506020612fd486828701612bea565b925050604084013567ffffffffffffffff811115612ff557612ff4612b98565b5b61300186828701612e91565b9150509250925092565b61301481612d1f565b811461301f57600080fd5b50565b6000813590506130318161300b565b92915050565b61304081612d56565b811461304b57600080fd5b50565b60008135905061305d81613037565b92915050565b600080600080600080600060e0888a03121561308257613081612b93565b5b60006130908a828b01612bb4565b97505060206130a18a828b01612bb4565b96505060406130b28a828b01612bea565b95505060606130c38a828b01612bea565b94505060806130d48a828b01613022565b93505060a06130e58a828b0161304e565b92505060c06130f68a828b0161304e565b91505092959891949750929550565b6000806040838503121561311c5761311b612b93565b5b600061312a85828601612bb4565b925050602061313b85828601612bb4565b9150509250929050565b6000806000806080858703121561315f5761315e612b93565b5b600061316d87828801612bb4565b945050602061317e87828801612bea565b935050604085013567ffffffffffffffff81111561319f5761319e612b98565b5b6131ab87828801612e91565b925050606085013567ffffffffffffffff8111156131cc576131cb612b98565b5b6131d887828801612e91565b91505092959194509250565b600080604083850312156131fb576131fa612b93565b5b600061320985828601612bea565b925050602083013567ffffffffffffffff81111561322a57613229612b98565b5b61323685828601612e91565b9150509250929050565b7f4e487b7100000000000000000000000000000000000000000000000000000000600052602260045260246000fd5b6000600282049050600182168061328757607f821691505b60208210810361329a57613299613240565b5b50919050565b6000815190506132af81612bd3565b92915050565b6000602082840312156132cb576132ca612b93565b5b60006132d9848285016132a0565b91505092915050565b7f4552433737373a2063616c6c6572206973206e6f7420616e206f70657261746f60008201527f7220666f7220686f6c6465720000000000000000000000000000000000000000602082015250565b600061333e602c83612ae2565b9150613349826132e2565b604082019050919050565b6000602082019050818103600083015261336d81613331565b9050919050565b7f4552433737373a20617574686f72697a696e672073656c66206173206f70657260008201527f61746f7200000000000000000000000000000000000000000000000000000000602082015250565b60006133d0602483612ae2565b91506133db82613374565b604082019050919050565b600060208201905081810360008301526133ff816133c3565b9050919050565b7f45524332305065726d69743a206578706972656420646561646c696e65000000600082015250565b600061343c601d83612ae2565b915061344782613406565b602082019050919050565b6000602082019050818103600083015261346b8161342f565b9050919050565b600060c0820190506134876000830189612d60565b6134946020830188612f72565b6134a16040830187612f72565b6134ae6060830186612c75565b6134bb6080830185612c75565b6134c860a0830184612c75565b979650505050505050565b7f45524332305065726d69743a20696e76616c6964207369676e61747572650000600082015250565b6000613509601e83612ae2565b9150613514826134d3565b602082019050919050565b60006020820190508181036000830152613538816134fc565b9050919050565b7f4552433737373a207265766f6b696e672073656c66206173206f70657261746f60008201527f7200000000000000000000000000000000000000000000000000000000000000602082015250565b600061359b602183612ae2565b91506135a68261353f565b604082019050919050565b600060208201905081810360008301526135ca8161358e565b9050919050565b7f4552433737373a20617070726f76652066726f6d20746865207a65726f20616460008201527f6472657373000000000000000000000000000000000000000000000000000000602082015250565b600061362d602583612ae2565b9150613638826135d1565b604082019050919050565b6000602082019050818103600083015261365c81613620565b9050919050565b7f4552433737373a20617070726f766520746f20746865207a65726f206164647260008201527f6573730000000000000000000000000000000000000000000000000000000000602082015250565b60006136bf602383612ae2565b91506136ca82613663565b604082019050919050565b600060208201905081810360008301526136ee816136b2565b9050919050565b7f4552433737373a20696e73756666696369656e7420616c6c6f77616e63650000600082015250565b600061372b601e83612ae2565b9150613736826136f5565b602082019050919050565b6000602082019050818103600083015261375a8161371e565b9050919050565b7f4552433737373a207472616e736665722066726f6d20746865207a65726f206160008201527f6464726573730000000000000000000000000000000000000000000000000000602082015250565b60006137bd602683612ae2565b91506137c882613761565b604082019050919050565b600060208201905081810360008301526137ec816137b0565b9050919050565b7f4552433737373a207472616e7366657220746f20746865207a65726f2061646460008201527f7265737300000000000000000000000000000000000000000000000000000000602082015250565b600061384f602483612ae2565b915061385a826137f3565b604082019050919050565b6000602082019050818103600083015261387e81613842565b9050919050565b7f4552433737373a206275726e2066726f6d20746865207a65726f20616464726560008201527f7373000000000000000000000000000000000000000000000000000000000000602082015250565b60006138e1602283612ae2565b91506138ec82613885565b604082019050919050565b60006020820190508181036000830152613910816138d4565b9050919050565b7f4552433737373a206275726e20616d6f756e7420657863656564732062616c6160008201527f6e63650000000000000000000000000000000000000000000000000000000000602082015250565b6000613973602383612ae2565b915061397e82613917565b604082019050919050565b600060208201905081810360008301526139a281613966565b9050919050565b7f4e487b7100000000000000000000000000000000000000000000000000000000600052601160045260246000fd5b60006139e382612bc9565b91506139ee83612bc9565b9250828203905081811115613a0657613a056139a9565b5b92915050565b600081519050919050565b600082825260208201905092915050565b6000613a3382613a0c565b613a3d8185613a17565b9350613a4d818560208601612af3565b613a5681612b1d565b840191505092915050565b6000606082019050613a766000830186612c75565b8181036020830152613a888185613a28565b90508181036040830152613a9c8184613a28565b9050949350505050565b6000604082019050613abb6000830185612f72565b613ac86020830184612d60565b9392505050565b600081519050613ade81612b9d565b92915050565b600060208284031215613afa57613af9612b93565b5b6000613b0884828501613acf565b91505092915050565b600060c082019050613b266000830189612f72565b613b336020830188612f72565b613b406040830187612f72565b613b4d6060830186612c75565b8181036080830152613b5f8185613a28565b905081810360a0830152613b738184613a28565b9050979650505050505050565b7f4552433737373a207472616e7366657220616d6f756e7420657863656564732060008201527f62616c616e636500000000000000000000000000000000000000000000000000602082015250565b6000613bdc602783612ae2565b9150613be782613b80565b604082019050919050565b60006020820190508181036000830152613c0b81613bcf565b9050919050565b6000613c1d82612bc9565b9150613c2883612bc9565b9250828201905080821115613c4057613c3f6139a9565b5b92915050565b7f4552433737373a20746f6b656e20726563697069656e7420636f6e747261637460008201527f20686173206e6f20696d706c656d656e74657220666f7220455243373737546f60208201527f6b656e73526563697069656e7400000000000000000000000000000000000000604082015250565b6000613cc8604d83612ae2565b9150613cd382613c46565b606082019050919050565b60006020820190508181036000830152613cf781613cbb565b9050919050565b600060a082019050613d136000830188612d60565b613d206020830187612d60565b613d2d6040830186612d60565b613d3a6060830185612c75565b613d476080830184612f72565b9695505050505050565b7f4552433737373a206d696e7420746f20746865207a65726f2061646472657373600082015250565b6000613d87602083612ae2565b9150613d9282613d51565b602082019050919050565b60006020820190508181036000830152613db681613d7a565b9050919050565b600081905092915050565b7f1901000000000000000000000000000000000000000000000000000000000000600082015250565b6000613dfe600283613dbd565b9150613e0982613dc8565b600282019050919050565b6000819050919050565b613e2f613e2a82612d56565b613e14565b82525050565b6000613e4082613df1565b9150613e4c8285613e1e565b602082019150613e5c8284613e1e565b6020820191508190509392505050565b6000608082019050613e816000830187612d60565b613e8e6020830186612d2c565b613e9b6040830185612d60565b613ea86060830184612d60565b95945050505050565b7f4e487b7100000000000000000000000000000000000000000000000000000000600052602160045260246000fd5b7f45434453413a20696e76616c6964207369676e61747572650000000000000000600082015250565b6000613f16601883612ae2565b9150613f2182613ee0565b602082019050919050565b60006020820190508181036000830152613f4581613f09565b9050919050565b7f45434453413a20696e76616c6964207369676e6174757265206c656e67746800600082015250565b6000613f82601f83612ae2565b9150613f8d82613f4c565b602082019050919050565b60006020820190508181036000830152613fb181613f75565b9050919050565b7f45434453413a20696e76616c6964207369676e6174757265202773272076616c60008201527f7565000000000000000000000000000000000000000000000000000000000000602082015250565b6000614014602283612ae2565b915061401f82613fb8565b604082019050919050565b6000602082019050818103600083015261404381614007565b905091905056fea264697066735822122039c94c6f4a82ccdc6342248072cd106a3200b19d659ae2a167c468802af63ada64736f6c63430008110033",
  "devdoc": {
    "kind": "dev",
    "methods": {
      "DOMAIN_SEPARATOR()": {
        "details": "See {IERC20Permit-DOMAIN_SEPARATOR}."
      },
      "allowance(address,address)": {
        "details": "See {IERC20-allowance}. Note that operator and allowance concepts are orthogonal: operators may not have allowance, and accounts with allowance may not be operators themselves."
      },
      "approve(address,uint256)": {
        "details": "See {IERC20-approve}. NOTE: If `value` is the maximum `uint256`, the allowance is not updated on `transferFrom`. This is semantically equivalent to an infinite approval. Note that accounts cannot have allowance issued by their operators."
      },
      "authorizeOperator(address)": {
        "details": "See {IERC777-authorizeOperator}."
      },
      "balanceOf(address)": {
        "details": "See {IERC777-balanceOf}. "
      },
      "burn(uint256,bytes)": {
        "details": "See {IERC777-burn}. "
      },
      "decimals()": {
        "details": "See {ERC20-decimals}. Always returns 18, as per the [ERC777 EIP](https://eips.ethereum.org/EIPS/eip-777#backward-compatibility)."
      },
      "defaultOperators()": {
        "details": "See {IERC777-defaultOperators}."
      },
      "granularity()": {
        "details": "See {IERC777-granularity}. This implementation always returns `1`."
      },
      "isOperatorFor(address,address)": {
        "details": "See {IERC777-isOperatorFor}."
      },
      "name()": {
        "details": "See {IERC777-name}."
      },
      "nonces(address)": {
        "details": "See {IERC20Permit-nonces}."
      },
      "operatorBurn(address,uint256,bytes,bytes)": {
        "details": "See {IERC777-operatorBurn}. "
      },
      "operatorSend(address,address,uint256,bytes,bytes)": {
        "details": "See {IERC777-operatorSend}. Emits {Sent} and {IERC20-Transfer} events."
      },
      "permit(address,address,uint256,uint256,uint8,bytes32,bytes32)": {
        "details": "See {IERC20Permit-permit}."
      },
      "revokeOperator(address)": {
        "details": "See {IERC777-revokeOperator}."
      },
      "send(address,uint256,bytes)": {
        "details": "See {IERC777-send}. Also emits a {IERC20-Transfer} event for ERC20 compatibility."
      },
      "symbol()": {
        "details": "See {IERC777-symbol}."
      },
      "totalSupply()": {
        "details": "See {IERC777-totalSupply}."
      },
      "transfer(address,uint256)": {
        "details": "See {IERC777-transfer}. "
      },
      "transferFrom(address,address,uint256)": {
        "details": "See {IERC20-transferFrom}. NOTE: Does not update the allowance if the current allowance is the maximum `uint256`. Note that operator and allowance concepts are orthogonal: operators cannot call `transferFrom` (unless they have allowance), and accounts with allowance cannot call `operatorSend` (unless they are operators). Emits {Sent}, {IERC20-Transfer} and {IERC20-Approval} events."
      }
    },
    "version": 1
  },
  "userdoc": {
    "kind": "user",
    "methods": {},
    "version": 1
  },
  "storageLayout": {
    "storage": [
      {
        "astId": 1474,
        "contract": "contracts/vaults/DevToken.sol:DevToken",
        "label": "_balances",
        "offset": 0,
        "slot": "0",
        "type": "t_mapping(t_address,t_uint256)"
      },
      {
        "astId": 1476,
        "contract": "contracts/vaults/DevToken.sol:DevToken",
        "label": "_totalSupply",
        "offset": 0,
        "slot": "1",
        "type": "t_uint256"
      },
      {
        "astId": 1478,
        "contract": "contracts/vaults/DevToken.sol:DevToken",
        "label": "_name",
        "offset": 0,
        "slot": "2",
        "type": "t_string_storage"
      },
      {
        "astId": 1480,
        "contract": "contracts/vaults/DevToken.sol:DevToken",
        "label": "_symbol",
        "offset": 0,
        "slot": "3",
        "type": "t_string_storage"
      },
      {
        "astId": 1493,
        "contract": "contracts/vaults/DevToken.sol:DevToken",
        "label": "_defaultOperatorsArray",
        "offset": 0,
        "slot": "4",
        "type": "t_array(t_address)dyn_storage"
      },
      {
        "astId": 1497,
        "contract": "contracts/vaults/DevToken.sol:DevToken",
        "label": "_defaultOperators",
        "offset": 0,
        "slot": "5",
        "type": "t_mapping(t_address,t_bool)"
      },
      {
        "astId": 1503,
        "contract": "contracts/vaults/DevToken.sol:DevToken",
        "label": "_operators",
        "offset": 0,
        "slot": "6",
        "type": "t_mapping(t_address,t_mapping(t_address,t_bool))"
      },
      {
        "astId": 1509,
        "contract": "contracts/vaults/DevToken.sol:DevToken",
        "label": "_revokedDefaultOperators",
        "offset": 0,
        "slot": "7",
        "type": "t_mapping(t_address,t_mapping(t_address,t_bool))"
      },
      {
        "astId": 1515,
        "contract": "contracts/vaults/DevToken.sol:DevToken",
        "label": "_allowances",
        "offset": 0,
        "slot": "8",
        "type": "t_mapping(t_address,t_mapping(t_address,t_uint256))"
      },
      {
        "astId": 5145,
        "contract": "contracts/vaults/DevToken.sol:DevToken",
        "label": "_nonces",
        "offset": 0,
        "slot": "9",
        "type": "t_mapping(t_address,t_struct(Counter)3097_storage)"
      },
      {
        "astId": 5153,
        "contract": "contracts/vaults/DevToken.sol:DevToken",
        "label": "_PERMIT_TYPEHASH_DEPRECATED_SLOT",
        "offset": 0,
        "slot": "10",
        "type": "t_bytes32"
      }
    ],
    "types": {
      "t_address": {
        "encoding": "inplace",
        "label": "address",
        "numberOfBytes": "20"
      },
      "t_array(t_address)dyn_storage": {
        "base": "t_address",
        "encoding": "dynamic_array",
        "label": "address[]",
        "numberOfBytes": "32"
      },
      "t_bool": {
        "encoding": "inplace",
        "label": "bool",
        "numberOfBytes": "1"
      },
      "t_bytes32": {
        "encoding": "inplace",
        "label": "bytes32",
        "numberOfBytes": "32"
      },
      "t_mapping(t_address,t_bool)": {
        "encoding": "mapping",
        "key": "t_address",
        "label": "mapping(address => bool)",
        "numberOfBytes": "32",
        "value": "t_bool"
      },
      "t_mapping(t_address,t_mapping(t_address,t_bool))": {
        "encoding": "mapping",
        "key": "t_address",
        "label": "mapping(address => mapping(address => bool))",
        "numberOfBytes": "32",
        "value": "t_mapping(t_address,t_bool)"
      },
      "t_mapping(t_address,t_mapping(t_address,t_uint256))": {
        "encoding": "mapping",
        "key": "t_address",
        "label": "mapping(address => mapping(address => uint256))",
        "numberOfBytes": "32",
        "value": "t_mapping(t_address,t_uint256)"
      },
      "t_mapping(t_address,t_struct(Counter)3097_storage)": {
        "encoding": "mapping",
        "key": "t_address",
        "label": "mapping(address => struct Counters.Counter)",
        "numberOfBytes": "32",
        "value": "t_struct(Counter)3097_storage"
      },
      "t_mapping(t_address,t_uint256)": {
        "encoding": "mapping",
        "key": "t_address",
        "label": "mapping(address => uint256)",
        "numberOfBytes": "32",
        "value": "t_uint256"
      },
      "t_string_storage": {
        "encoding": "bytes",
        "label": "string",
        "numberOfBytes": "32"
      },
      "t_struct(Counter)3097_storage": {
        "encoding": "inplace",
        "label": "struct Counters.Counter",
        "members": [
          {
            "astId": 3096,
            "contract": "contracts/vaults/DevToken.sol:DevToken",
            "label": "_value",
            "offset": 0,
            "slot": "0",
            "type": "t_uint256"
          }
        ],
        "numberOfBytes": "32"
      },
      "t_uint256": {
        "encoding": "inplace",
        "label": "uint256",
        "numberOfBytes": "32"
      }
    }
  }
}