{
  "address": "0x76dC00a278D5d08Af8a4B14F8b84054E487A09c9",
  "abi": [
    {
      "inputs": [
        {
          "internalType": "contract IERC20",
          "name": "baseTokenAddress",
          "type": "address"
        },
        {
          "internalType": "address",
          "name": "priceFeedAddress",
          "type": "address"
        },
        {
          "internalType": "uint256",
          "name": "rebaseInterval",
          "type": "uint256"
        }
      ],
      "stateMutability": "nonpayable",
      "type": "constructor"
    },
    {
      "inputs": [],
      "name": "OnlySimulatedBackend",
      "type": "error"
    },
    {
      "inputs": [],
      "name": "TokenFactory__DepositMoreThanMax",
      "type": "error"
    },
    {
      "inputs": [],
      "name": "TokenFactory__MintMoreThanMax",
      "type": "error"
    },
    {
      "inputs": [],
      "name": "TokenFactory__OnlyAssetOwner",
      "type": "error"
    },
    {
      "inputs": [],
      "name": "TokenFactory__RedeemMoreThanMax",
      "type": "error"
    },
    {
      "inputs": [],
      "name": "TokenFactory__UpkeepNotNeeded",
      "type": "error"
    },
    {
      "inputs": [],
      "name": "TokenFactory__WithdrawMoreThanMax",
      "type": "error"
    },
    {
      "inputs": [],
      "name": "TokenFactory__ZeroDeposit",
      "type": "error"
    },
    {
      "anonymous": false,
      "inputs": [
        {
          "indexed": true,
          "internalType": "address",
          "name": "owner",
          "type": "address"
        },
        {
          "indexed": true,
          "internalType": "address",
          "name": "spender",
          "type": "address"
        },
        {
          "indexed": false,
          "internalType": "uint256",
          "name": "value",
          "type": "uint256"
        }
      ],
      "name": "Approval",
      "type": "event"
    },
    {
      "anonymous": false,
      "inputs": [
        {
          "indexed": true,
          "internalType": "bytes32",
          "name": "id",
          "type": "bytes32"
        }
      ],
      "name": "ChainlinkCancelled",
      "type": "event"
    },
    {
      "anonymous": false,
      "inputs": [
        {
          "indexed": true,
          "internalType": "bytes32",
          "name": "id",
          "type": "bytes32"
        }
      ],
      "name": "ChainlinkFulfilled",
      "type": "event"
    },
    {
      "anonymous": false,
      "inputs": [
        {
          "indexed": true,
          "internalType": "bytes32",
          "name": "id",
          "type": "bytes32"
        }
      ],
      "name": "ChainlinkRequested",
      "type": "event"
    },
    {
      "anonymous": false,
      "inputs": [
        {
          "indexed": true,
          "internalType": "address",
          "name": "sender",
          "type": "address"
        },
        {
          "indexed": true,
          "internalType": "address",
          "name": "owner",
          "type": "address"
        },
        {
          "indexed": false,
          "internalType": "uint256",
          "name": "assets",
          "type": "uint256"
        },
        {
          "indexed": false,
          "internalType": "uint256",
          "name": "shares",
          "type": "uint256"
        }
      ],
      "name": "Deposit",
      "type": "event"
    },
    {
      "anonymous": false,
      "inputs": [
        {
          "indexed": true,
          "internalType": "address",
          "name": "previousOwner",
          "type": "address"
        },
        {
          "indexed": true,
          "internalType": "address",
          "name": "newOwner",
          "type": "address"
        }
      ],
      "name": "OwnershipTransferred",
      "type": "event"
    },
    {
      "anonymous": false,
      "inputs": [
        {
          "indexed": false,
          "internalType": "uint256",
          "name": "rebaseCount",
          "type": "uint256"
        },
        {
          "indexed": false,
          "internalType": "uint256",
          "name": "newScallingFactorX",
          "type": "uint256"
        }
      ],
      "name": "Rebase",
      "type": "event"
    },
    {
      "anonymous": false,
      "inputs": [
        {
          "indexed": false,
          "internalType": "address",
          "name": "userAddress",
          "type": "address"
        },
        {
          "indexed": false,
          "internalType": "uint256",
          "name": "rebaseCount",
          "type": "uint256"
        }
      ],
      "name": "RebaseApplied",
      "type": "event"
    },
    {
      "anonymous": false,
      "inputs": [
        {
          "indexed": true,
          "internalType": "bytes32",
          "name": "requestId",
          "type": "bytes32"
        },
        {
          "indexed": false,
          "internalType": "uint256",
          "name": "undResponse",
          "type": "uint256"
        },
        {
          "indexed": false,
          "internalType": "uint256",
          "name": "navResponse",
          "type": "uint256"
        },
        {
          "indexed": false,
          "internalType": "uint256",
          "name": "timResponse",
          "type": "uint256"
        }
      ],
      "name": "RequestMultipleFulfilled",
      "type": "event"
    },
    {
      "anonymous": false,
      "inputs": [
        {
          "indexed": true,
          "internalType": "address",
          "name": "from",
          "type": "address"
        },
        {
          "indexed": true,
          "internalType": "address",
          "name": "to",
          "type": "address"
        },
        {
          "indexed": false,
          "internalType": "uint256",
          "name": "value",
          "type": "uint256"
        }
      ],
      "name": "Transfer",
      "type": "event"
    },
    {
      "anonymous": false,
      "inputs": [
        {
          "indexed": true,
          "internalType": "address",
          "name": "sender",
          "type": "address"
        },
        {
          "indexed": true,
          "internalType": "address",
          "name": "receiver",
          "type": "address"
        },
        {
          "indexed": true,
          "internalType": "address",
          "name": "owner",
          "type": "address"
        },
        {
          "indexed": false,
          "internalType": "uint256",
          "name": "assets",
          "type": "uint256"
        },
        {
          "indexed": false,
          "internalType": "uint256",
          "name": "shares",
          "type": "uint256"
        }
      ],
      "name": "Withdraw",
      "type": "event"
    },
    {
      "inputs": [
        {
          "internalType": "address",
          "name": "owner",
          "type": "address"
        },
        {
          "internalType": "address",
          "name": "spender",
          "type": "address"
        }
      ],
      "name": "allowance",
      "outputs": [
        {
          "internalType": "uint256",
          "name": "",
          "type": "uint256"
        }
      ],
      "stateMutability": "view",
      "type": "function"
    },
    {
      "inputs": [
        {
          "internalType": "address",
          "name": "owner_",
          "type": "address"
        }
      ],
      "name": "applyRebase",
      "outputs": [],
      "stateMutability": "nonpayable",
      "type": "function"
    },
    {
      "inputs": [
        {
          "internalType": "address",
          "name": "spender",
          "type": "address"
        },
        {
          "internalType": "uint256",
          "name": "amount",
          "type": "uint256"
        }
      ],
      "name": "approve",
      "outputs": [
        {
          "internalType": "bool",
          "name": "",
          "type": "bool"
        }
      ],
      "stateMutability": "nonpayable",
      "type": "function"
    },
    {
      "inputs": [],
      "name": "asset",
      "outputs": [
        {
          "internalType": "address",
          "name": "",
          "type": "address"
        }
      ],
      "stateMutability": "view",
      "type": "function"
    },
    {
      "inputs": [
        {
          "internalType": "address",
          "name": "account",
          "type": "address"
        }
      ],
      "name": "balanceOf",
      "outputs": [
        {
          "internalType": "uint256",
          "name": "",
          "type": "uint256"
        }
      ],
      "stateMutability": "view",
      "type": "function"
    },
    {
      "inputs": [
        {
          "internalType": "address",
          "name": "owner_",
          "type": "address"
        }
      ],
      "name": "calculateRollOverValue",
      "outputs": [
        {
          "internalType": "uint256",
          "name": "",
          "type": "uint256"
        }
      ],
      "stateMutability": "view",
      "type": "function"
    },
    {
      "inputs": [
        {
          "internalType": "bytes",
          "name": "",
          "type": "bytes"
        }
      ],
      "name": "checkUpkeep",
      "outputs": [
        {
          "internalType": "bool",
          "name": "upkeepNeeded",
          "type": "bool"
        },
        {
          "internalType": "bytes",
          "name": "performData",
          "type": "bytes"
        }
      ],
      "stateMutability": "view",
      "type": "function"
    },
    {
      "inputs": [
        {
          "internalType": "uint256",
          "name": "shares",
          "type": "uint256"
        }
      ],
      "name": "convertToAssets",
      "outputs": [
        {
          "internalType": "uint256",
          "name": "assets",
          "type": "uint256"
        }
      ],
      "stateMutability": "view",
      "type": "function"
    },
    {
      "inputs": [
        {
          "internalType": "uint256",
          "name": "assets",
          "type": "uint256"
        }
      ],
      "name": "convertToShares",
      "outputs": [
        {
          "internalType": "uint256",
          "name": "shares",
          "type": "uint256"
        }
      ],
      "stateMutability": "view",
      "type": "function"
    },
    {
      "inputs": [],
      "name": "decimals",
      "outputs": [
        {
          "internalType": "uint8",
          "name": "",
          "type": "uint8"
        }
      ],
      "stateMutability": "view",
      "type": "function"
    },
    {
      "inputs": [
        {
          "internalType": "address",
          "name": "spender",
          "type": "address"
        },
        {
          "internalType": "uint256",
          "name": "subtractedValue",
          "type": "uint256"
        }
      ],
      "name": "decreaseAllowance",
      "outputs": [
        {
          "internalType": "bool",
          "name": "",
          "type": "bool"
        }
      ],
      "stateMutability": "nonpayable",
      "type": "function"
    },
    {
      "inputs": [
        {
          "internalType": "uint256",
          "name": "assets",
          "type": "uint256"
        },
        {
          "internalType": "address",
          "name": "receiver",
          "type": "address"
        }
      ],
      "name": "deposit",
      "outputs": [
        {
          "internalType": "uint256",
          "name": "",
          "type": "uint256"
        }
      ],
      "stateMutability": "nonpayable",
      "type": "function"
    },
    {
      "inputs": [
        {
          "internalType": "bytes32",
          "name": "requestId",
          "type": "bytes32"
        },
        {
          "internalType": "uint256",
          "name": "undResponse",
          "type": "uint256"
        },
        {
          "internalType": "uint256",
          "name": "navResponse",
          "type": "uint256"
        },
        {
          "internalType": "uint256",
          "name": "timResponse",
          "type": "uint256"
        }
      ],
      "name": "fulfillMultipleParameters",
      "outputs": [],
      "stateMutability": "nonpayable",
      "type": "function"
    },
    {
      "inputs": [
        {
          "internalType": "uint256",
          "name": "index",
          "type": "uint256"
        }
      ],
      "name": "getDevTokenAddress",
      "outputs": [
        {
          "internalType": "contract DevToken",
          "name": "",
          "type": "address"
        }
      ],
      "stateMutability": "view",
      "type": "function"
    },
    {
      "inputs": [],
      "name": "getInterval",
      "outputs": [
        {
          "internalType": "uint256",
          "name": "",
          "type": "uint256"
        }
      ],
      "stateMutability": "view",
      "type": "function"
    },
    {
      "inputs": [],
      "name": "getPriceFeedAddress",
      "outputs": [
        {
          "internalType": "contract AggregatorV3Interface",
          "name": "",
          "type": "address"
        }
      ],
      "stateMutability": "view",
      "type": "function"
    },
    {
      "inputs": [],
      "name": "getScallingFactorLength",
      "outputs": [
        {
          "internalType": "uint256",
          "name": "",
          "type": "uint256"
        }
      ],
      "stateMutability": "view",
      "type": "function"
    },
    {
      "inputs": [
        {
          "internalType": "address",
          "name": "userAddress",
          "type": "address"
        }
      ],
      "name": "getUserLastRebaseCount",
      "outputs": [
        {
          "internalType": "uint256",
          "name": "",
          "type": "uint256"
        }
      ],
      "stateMutability": "view",
      "type": "function"
    },
    {
      "inputs": [
        {
          "internalType": "address",
          "name": "spender",
          "type": "address"
        },
        {
          "internalType": "uint256",
          "name": "addedValue",
          "type": "uint256"
        }
      ],
      "name": "increaseAllowance",
      "outputs": [
        {
          "internalType": "bool",
          "name": "",
          "type": "bool"
        }
      ],
      "stateMutability": "nonpayable",
      "type": "function"
    },
    {
      "inputs": [
        {
          "internalType": "contract DevToken",
          "name": "token1",
          "type": "address"
        },
        {
          "internalType": "contract DevToken",
          "name": "token2",
          "type": "address"
        }
      ],
      "name": "initialize",
      "outputs": [],
      "stateMutability": "nonpayable",
      "type": "function"
    },
    {
      "inputs": [
        {
          "internalType": "address",
          "name": "owner_",
          "type": "address"
        }
      ],
      "name": "maxAmountToWithdraw",
      "outputs": [
        {
          "internalType": "uint256",
          "name": "",
          "type": "uint256"
        }
      ],
      "stateMutability": "view",
      "type": "function"
    },
    {
      "inputs": [
        {
          "internalType": "address",
          "name": "",
          "type": "address"
        }
      ],
      "name": "maxDeposit",
      "outputs": [
        {
          "internalType": "uint256",
          "name": "",
          "type": "uint256"
        }
      ],
      "stateMutability": "view",
      "type": "function"
    },
    {
      "inputs": [
        {
          "internalType": "address",
          "name": "",
          "type": "address"
        }
      ],
      "name": "maxMint",
      "outputs": [
        {
          "internalType": "uint256",
          "name": "",
          "type": "uint256"
        }
      ],
      "stateMutability": "view",
      "type": "function"
    },
    {
      "inputs": [
        {
          "internalType": "address",
          "name": "owner_",
          "type": "address"
        }
      ],
      "name": "maxRedeem",
      "outputs": [
        {
          "internalType": "uint256",
          "name": "",
          "type": "uint256"
        }
      ],
      "stateMutability": "view",
      "type": "function"
    },
    {
      "inputs": [
        {
          "internalType": "address",
          "name": "owner_",
          "type": "address"
        }
      ],
      "name": "maxWithdraw",
      "outputs": [
        {
          "internalType": "uint256",
          "name": "",
          "type": "uint256"
        }
      ],
      "stateMutability": "view",
      "type": "function"
    },
    {
      "inputs": [
        {
          "internalType": "uint256",
          "name": "shares",
          "type": "uint256"
        },
        {
          "internalType": "address",
          "name": "receiver",
          "type": "address"
        }
      ],
      "name": "mint",
      "outputs": [
        {
          "internalType": "uint256",
          "name": "",
          "type": "uint256"
        }
      ],
      "stateMutability": "nonpayable",
      "type": "function"
    },
    {
      "inputs": [],
      "name": "name",
      "outputs": [
        {
          "internalType": "string",
          "name": "",
          "type": "string"
        }
      ],
      "stateMutability": "view",
      "type": "function"
    },
    {
      "inputs": [],
      "name": "owner",
      "outputs": [
        {
          "internalType": "address",
          "name": "",
          "type": "address"
        }
      ],
      "stateMutability": "view",
      "type": "function"
    },
    {
      "inputs": [
        {
          "internalType": "bytes",
          "name": "",
          "type": "bytes"
        }
      ],
      "name": "performUpkeep",
      "outputs": [],
      "stateMutability": "nonpayable",
      "type": "function"
    },
    {
      "inputs": [
        {
          "internalType": "uint256",
          "name": "assets",
          "type": "uint256"
        }
      ],
      "name": "previewDeposit",
      "outputs": [
        {
          "internalType": "uint256",
          "name": "",
          "type": "uint256"
        }
      ],
      "stateMutability": "view",
      "type": "function"
    },
    {
      "inputs": [
        {
          "internalType": "uint256",
          "name": "shares",
          "type": "uint256"
        }
      ],
      "name": "previewMint",
      "outputs": [
        {
          "internalType": "uint256",
          "name": "",
          "type": "uint256"
        }
      ],
      "stateMutability": "view",
      "type": "function"
    },
    {
      "inputs": [
        {
          "internalType": "uint256",
          "name": "shares",
          "type": "uint256"
        }
      ],
      "name": "previewRedeem",
      "outputs": [
        {
          "internalType": "uint256",
          "name": "",
          "type": "uint256"
        }
      ],
      "stateMutability": "view",
      "type": "function"
    },
    {
      "inputs": [
        {
          "internalType": "uint256",
          "name": "assets",
          "type": "uint256"
        }
      ],
      "name": "previewWithdraw",
      "outputs": [
        {
          "internalType": "uint256",
          "name": "",
          "type": "uint256"
        }
      ],
      "stateMutability": "view",
      "type": "function"
    },
    {
      "inputs": [
        {
          "internalType": "uint256",
          "name": "shares",
          "type": "uint256"
        },
        {
          "internalType": "address",
          "name": "receiver",
          "type": "address"
        },
        {
          "internalType": "address",
          "name": "owner_",
          "type": "address"
        }
      ],
      "name": "redeem",
      "outputs": [
        {
          "internalType": "uint256",
          "name": "",
          "type": "uint256"
        }
      ],
      "stateMutability": "nonpayable",
      "type": "function"
    },
    {
      "inputs": [],
      "name": "renounceOwnership",
      "outputs": [],
      "stateMutability": "nonpayable",
      "type": "function"
    },
    {
      "inputs": [],
      "name": "requestMultipleParameters",
      "outputs": [],
      "stateMutability": "nonpayable",
      "type": "function"
    },
    {
      "inputs": [
        {
          "internalType": "uint256",
          "name": "scallingFactorX_",
          "type": "uint256"
        }
      ],
      "name": "subUnchecked",
      "outputs": [
        {
          "internalType": "uint256",
          "name": "",
          "type": "uint256"
        }
      ],
      "stateMutability": "view",
      "type": "function"
    },
    {
      "inputs": [],
      "name": "symbol",
      "outputs": [
        {
          "internalType": "string",
          "name": "",
          "type": "string"
        }
      ],
      "stateMutability": "view",
      "type": "function"
    },
    {
      "inputs": [],
      "name": "totalAssets",
      "outputs": [
        {
          "internalType": "uint256",
          "name": "",
          "type": "uint256"
        }
      ],
      "stateMutability": "view",
      "type": "function"
    },
    {
      "inputs": [],
      "name": "totalSupply",
      "outputs": [
        {
          "internalType": "uint256",
          "name": "",
          "type": "uint256"
        }
      ],
      "stateMutability": "view",
      "type": "function"
    },
    {
      "inputs": [
        {
          "internalType": "address",
          "name": "to",
          "type": "address"
        },
        {
          "internalType": "uint256",
          "name": "amount",
          "type": "uint256"
        }
      ],
      "name": "transfer",
      "outputs": [
        {
          "internalType": "bool",
          "name": "",
          "type": "bool"
        }
      ],
      "stateMutability": "nonpayable",
      "type": "function"
    },
    {
      "inputs": [
        {
          "internalType": "address",
          "name": "from",
          "type": "address"
        },
        {
          "internalType": "address",
          "name": "to",
          "type": "address"
        },
        {
          "internalType": "uint256",
          "name": "amount",
          "type": "uint256"
        }
      ],
      "name": "transferFrom",
      "outputs": [
        {
          "internalType": "bool",
          "name": "",
          "type": "bool"
        }
      ],
      "stateMutability": "nonpayable",
      "type": "function"
    },
    {
      "inputs": [
        {
          "internalType": "address",
          "name": "newOwner",
          "type": "address"
        }
      ],
      "name": "transferOwnership",
      "outputs": [],
      "stateMutability": "nonpayable",
      "type": "function"
    },
    {
      "inputs": [
        {
          "internalType": "address",
          "name": "owner_",
          "type": "address"
        }
      ],
      "name": "updateUserLastRebaseCount",
      "outputs": [],
      "stateMutability": "nonpayable",
      "type": "function"
    },
    {
      "inputs": [
        {
          "internalType": "uint256",
          "name": "assets",
          "type": "uint256"
        },
        {
          "internalType": "address",
          "name": "receiver",
          "type": "address"
        },
        {
          "internalType": "address",
          "name": "owner_",
          "type": "address"
        }
      ],
      "name": "withdraw",
      "outputs": [
        {
          "internalType": "uint256",
          "name": "",
          "type": "uint256"
        }
      ],
      "stateMutability": "nonpayable",
      "type": "function"
    },
    {
      "inputs": [],
      "name": "withdrawLink",
      "outputs": [],
      "stateMutability": "nonpayable",
      "type": "function"
    }
  ],
  "transactionHash": "0xd22f9fdd6d199d172c33526db31533bc5741026809e6ce4277b8fd6f37b62a4a",
  "args": [
    "0xb98B5c3DB3728fEff9Da93Bd53270009A67d8708",
    "0xe3C1c326B58B115669c4f3Ec69B3a4BDeCa027c0",
    300
  ],
  "numDeployments": 2,
  "solcInputHash": "7bc925eba6186b82072bc06e1d6df176",
  "bytecode": "0x6101006040526001600b553480156200001757600080fd5b5060405162005f8e38038062005f8e83398181016040528101906200003d919062000628565b6040518060400160405280601181526020017f5269736b50726f746f636f6c5661756c740000000000000000000000000000008152506040518060400160405280600381526020017f52504b00000000000000000000000000000000000000000000000000000000008152508160039081620000ba9190620008f4565b508060049081620000cc9190620008f4565b5050506001600581905550620000f7620000eb6200028d60201b60201c565b6200029560201b60201c565b8273ffffffffffffffffffffffffffffffffffffffff1660a08173ffffffffffffffffffffffffffffffffffffffff16815250508173ffffffffffffffffffffffffffffffffffffffff1660808173ffffffffffffffffffffffffffffffffffffffff16815250506000806200017560a0516200035b60201b60201c565b91509150816200019a5762000194620004ad60201b620023461760201c565b6200019c565b805b60ff1660c08160ff16815250508260e08181525050426010819055506000601160006101000a81548160ff02191690836001811115620001e157620001e0620009db565b5b02179055506200020b73779877a7b0d9e8603169ddbd7836e478b4624789620004b660201b60201c565b62000230736090149792daaee9d1d568c9f9a6f6b46aa29efd620004fa60201b60201c565b7f3533663937353539323063643435316138666534366635303837343638333935601281905550600a670de0b6b3a7640000600162000270919062000a39565b6200027c919062000ab3565b601381905550505050505062000baf565b600033905090565b6000600660009054906101000a900473ffffffffffffffffffffffffffffffffffffffff16905081600660006101000a81548173ffffffffffffffffffffffffffffffffffffffff021916908373ffffffffffffffffffffffffffffffffffffffff1602179055508173ffffffffffffffffffffffffffffffffffffffff168173ffffffffffffffffffffffffffffffffffffffff167f8be0079c531659141344cd1fd0a4f28419497f9722a3daafe3b4186f6b6457e060405160405180910390a35050565b6000806000808473ffffffffffffffffffffffffffffffffffffffff1663313ce56760e01b604051602401604051602081830303815290604052907bffffffffffffffffffffffffffffffffffffffffffffffffffffffff19166020820180517bffffffffffffffffffffffffffffffffffffffffffffffffffffffff8381831617835250505050604051620003f2919062000b64565b600060405180830381855afa9150503d80600081146200042f576040519150601f19603f3d011682016040523d82523d6000602084013e62000434565b606091505b50915091508180156200044957506020815110155b80156200046e575060ff8016818060200190518101906200046b919062000b7d565b11155b156200049e576000818060200190518101906200048c919062000b7d565b905060018194509450505050620004a8565b6000809350935050505b915091565b60006012905090565b80600960006101000a81548173ffffffffffffffffffffffffffffffffffffffff021916908373ffffffffffffffffffffffffffffffffffffffff16021790555050565b80600a60006101000a81548173ffffffffffffffffffffffffffffffffffffffff021916908373ffffffffffffffffffffffffffffffffffffffff16021790555050565b600080fd5b600073ffffffffffffffffffffffffffffffffffffffff82169050919050565b6000620005708262000543565b9050919050565b6000620005848262000563565b9050919050565b620005968162000577565b8114620005a257600080fd5b50565b600081519050620005b6816200058b565b92915050565b620005c78162000563565b8114620005d357600080fd5b50565b600081519050620005e781620005bc565b92915050565b6000819050919050565b6200060281620005ed565b81146200060e57600080fd5b50565b6000815190506200062281620005f7565b92915050565b6000806000606084860312156200064457620006436200053e565b5b60006200065486828701620005a5565b93505060206200066786828701620005d6565b92505060406200067a8682870162000611565b9150509250925092565b600081519050919050565b7f4e487b7100000000000000000000000000000000000000000000000000000000600052604160045260246000fd5b7f4e487b7100000000000000000000000000000000000000000000000000000000600052602260045260246000fd5b600060028204905060018216806200070657607f821691505b6020821081036200071c576200071b620006be565b5b50919050565b60008190508160005260206000209050919050565b60006020601f8301049050919050565b600082821b905092915050565b600060088302620007867fffffffffffffffffffffffffffffffffffffffffffffffffffffffffffffffff8262000747565b62000792868362000747565b95508019841693508086168417925050509392505050565b6000819050919050565b6000620007d5620007cf620007c984620005ed565b620007aa565b620005ed565b9050919050565b6000819050919050565b620007f183620007b4565b620008096200080082620007dc565b84845462000754565b825550505050565b600090565b6200082062000811565b6200082d818484620007e6565b505050565b5b8181101562000855576200084960008262000816565b60018101905062000833565b5050565b601f821115620008a4576200086e8162000722565b620008798462000737565b8101602085101562000889578190505b620008a1620008988562000737565b83018262000832565b50505b505050565b600082821c905092915050565b6000620008c960001984600802620008a9565b1980831691505092915050565b6000620008e48383620008b6565b9150826002028217905092915050565b620008ff8262000684565b67ffffffffffffffff8111156200091b576200091a6200068f565b5b620009278254620006ed565b6200093482828562000859565b600060209050601f8311600181146200096c576000841562000957578287015190505b620009638582620008d6565b865550620009d3565b601f1984166200097c8662000722565b60005b82811015620009a6578489015182556001820191506020850194506020810190506200097f565b86831015620009c65784890151620009c2601f891682620008b6565b8355505b6001600288020188555050505b505050505050565b7f4e487b7100000000000000000000000000000000000000000000000000000000600052602160045260246000fd5b7f4e487b7100000000000000000000000000000000000000000000000000000000600052601160045260246000fd5b600062000a4682620005ed565b915062000a5383620005ed565b925082820262000a6381620005ed565b9150828204841483151762000a7d5762000a7c62000a0a565b5b5092915050565b7f4e487b7100000000000000000000000000000000000000000000000000000000600052601260045260246000fd5b600062000ac082620005ed565b915062000acd83620005ed565b92508262000ae05762000adf62000a84565b5b828204905092915050565b600081519050919050565b600081905092915050565b60005b8381101562000b2157808201518184015260208101905062000b04565b60008484015250505050565b600062000b3a8262000aeb565b62000b46818562000af6565b935062000b5881856020860162000b01565b80840191505092915050565b600062000b72828462000b2d565b915081905092915050565b60006020828403121562000b965762000b956200053e565b5b600062000ba68482850162000611565b91505092915050565b60805160a05160c05160e05161538262000c0c60003960008181611595015281816127a80152612d0101526000610dff01526000818161099601528181610e27015281816128a10152612b1d01526000610b1201526153826000f3fe608060405234801561001057600080fd5b506004361061028a5760003560e01c80637b69ce2f1161015c578063b722d6a4116100ce578063d905777e11610087578063d905777e1461089a578063dd62ed3e146108ca578063e0504a2a146108fa578063ef8b30f71461092a578063f2fde38b1461095a578063fda4417b146109765761028a565b8063b722d6a41461078e578063ba087652146107aa578063c63d75b6146107da578063c6e6f5921461080a578063c887e8a01461083a578063ce96cb771461086a5761028a565b806395d89b411161012057806395d89b4114610680578063a457c2d71461069e578063a4d96e17146106ce578063a9059cbb146106fe578063b3d7f6b91461072e578063b460af941461075e5761028a565b80637b69ce2f146105da5780638da5cb5b1461060a5780638dc654a21461062857806391ad27b41461063257806394bf804d146106505761028a565b806338d52e0f116102005780634cdad506116101b95780634cdad506146104f15780636e04ff0d146105215780636e553f651461055257806370a0823114610582578063715018a6146105b257806378c1a6c4146105bc5761028a565b806338d52e0f14610431578063395093511461044f578063402d267d1461047f5780634585e33b146104af578063485cc955146104cb5780634a3afb47146104e75761028a565b80630a28a477116102525780630a28a4771461035b5780630f0f30b21461038b57806318160ddd146103a957806323b872dd146103c757806326720aa6146103f7578063313ce567146104135761028a565b806301e1d1141461028f5780630318b3a0146102ad57806306fdde03146102dd57806307a2d13a146102fb578063095ea7b31461032b575b600080fd5b610297610992565b6040516102a49190613ca1565b60405180910390f35b6102c760048036038101906102c29190613cf2565b610a33565b6040516102d49190613ca1565b60405180910390f35b6102e5610a4c565b6040516102f29190613daf565b60405180910390f35b61031560048036038101906103109190613cf2565b610ade565b6040516103229190613ca1565b60405180910390f35b61034560048036038101906103409190613e2f565b610ae8565b6040516103529190613e8a565b60405180910390f35b61037560048036038101906103709190613cf2565b610b04565b6040516103829190613ca1565b60405180910390f35b610393610b0e565b6040516103a09190613f04565b60405180910390f35b6103b1610b36565b6040516103be9190613ca1565b60405180910390f35b6103e160048036038101906103dc9190613f1f565b610b4d565b6040516103ee9190613e8a565b60405180910390f35b610411600480360381019061040c9190613f72565b610b6b565b005b61041b610dfb565b6040516104289190613fbb565b60405180910390f35b610439610e23565b6040516104469190613fe5565b60405180910390f35b61046960048036038101906104649190613e2f565b610e4b565b6040516104769190613e8a565b60405180910390f35b61049960048036038101906104949190613f72565b610e82565b6040516104a69190613ca1565b60405180910390f35b6104c960048036038101906104c49190614065565b610eb8565b005b6104e560048036038101906104e091906140f0565b610f33565b005b6104ef611005565b005b61050b60048036038101906105069190613cf2565b6112d0565b6040516105189190613ca1565b60405180910390f35b61053b60048036038101906105369190614065565b6112da565b604051610549929190614185565b60405180910390f35b61056c600480360381019061056791906141b5565b6112ef565b6040516105799190613ca1565b60405180910390f35b61059c60048036038101906105979190613f72565b611396565b6040516105a99190613ca1565b60405180910390f35b6105ba6113b0565b005b6105c46113c4565b6040516105d19190613ca1565b60405180910390f35b6105f460048036038101906105ef9190613f72565b6113d1565b6040516106019190613ca1565b60405180910390f35b61061261141a565b60405161061f9190613fe5565b60405180910390f35b610630611444565b005b61063a611591565b6040516106479190613ca1565b60405180910390f35b61066a600480360381019061066591906141b5565b6115b9565b6040516106779190613ca1565b60405180910390f35b610688611627565b6040516106959190613daf565b60405180910390f35b6106b860048036038101906106b39190613e2f565b6116b9565b6040516106c59190613e8a565b60405180910390f35b6106e860048036038101906106e39190613f72565b611730565b6040516106f59190613ca1565b60405180910390f35b61071860048036038101906107139190613e2f565b611971565b6040516107259190613e8a565b60405180910390f35b61074860048036038101906107439190613cf2565b61198d565b6040516107559190613ca1565b60405180910390f35b610778600480360381019061077391906141f5565b611997565b6040516107859190613ca1565b60405180910390f35b6107a860048036038101906107a39190613f72565b611a9e565b005b6107c460048036038101906107bf91906141f5565b611c72565b6040516107d19190613ca1565b60405180910390f35b6107f460048036038101906107ef9190613f72565b611d79565b6040516108019190613ca1565b60405180910390f35b610824600480360381019061081f9190613cf2565b611daf565b6040516108319190613ca1565b60405180910390f35b610854600480360381019061084f9190613f72565b611db9565b6040516108619190613ca1565b60405180910390f35b610884600480360381019061087f9190613f72565b6120b4565b6040516108919190613ca1565b60405180910390f35b6108b460048036038101906108af9190613f72565b6120c6565b6040516108c19190613ca1565b60405180910390f35b6108e460048036038101906108df9190614248565b6120d8565b6040516108f19190613ca1565b60405180910390f35b610914600480360381019061090f9190613cf2565b6120f4565b60405161092191906142a9565b60405180910390f35b610944600480360381019061093f9190613cf2565b61213c565b6040516109519190613ca1565b60405180910390f35b610974600480360381019061096f9190613f72565b612146565b005b610990600480360381019061098b91906142fa565b6121c9565b005b60007f000000000000000000000000000000000000000000000000000000000000000073ffffffffffffffffffffffffffffffffffffffff166370a08231306040518263ffffffff1660e01b81526004016109ed9190613fe5565b602060405180830381865afa158015610a0a573d6000803e3d6000fd5b505050506040513d601f19601f82011682018060405250810190610a2e9190614376565b905090565b600081610a3e610dfb565b60ff16600a0a039050919050565b606060038054610a5b906143d2565b80601f0160208091040260200160405190810160405280929190818152602001828054610a87906143d2565b8015610ad45780601f10610aa957610100808354040283529160200191610ad4565b820191906000526020600020905b815481529060010190602001808311610ab757829003601f168201915b5050505050905090565b6000819050919050565b6000610af261234f565b610afc83836123cd565b905092915050565b6000819050919050565b60007f0000000000000000000000000000000000000000000000000000000000000000905090565b6000610b4061234f565b610b486123f0565b905090565b6000610b5761234f565b610b628484846123fa565b90509392505050565b6000600e600081548110610b8257610b81614403565b5b9060005260206000200160009054906101000a900473ffffffffffffffffffffffffffffffffffffffff1673ffffffffffffffffffffffffffffffffffffffff16638f4cef0c836040518263ffffffff1660e01b8152600401610be59190613fe5565b602060405180830381865afa158015610c02573d6000803e3d6000fd5b505050506040513d601f19601f82011682018060405250810190610c269190614376565b90506000600e600181548110610c3f57610c3e614403565b5b9060005260206000200160009054906101000a900473ffffffffffffffffffffffffffffffffffffffff1673ffffffffffffffffffffffffffffffffffffffff16638f4cef0c846040518263ffffffff1660e01b8152600401610ca29190613fe5565b602060405180830381865afa158015610cbf573d6000803e3d6000fd5b505050506040513d601f19601f82011682018060405250810190610ce39190614376565b90506000610cf084611730565b9050610cfa6113c4565b600f60008673ffffffffffffffffffffffffffffffffffffffff1673ffffffffffffffffffffffffffffffffffffffff1681526020019081526020016000208190555082811115610d6157610d5c6000858584610d579190614461565b612429565b610d79565b610d786000858386610d739190614461565b6124e7565b5b81811115610d9d57610d986001858484610d939190614461565b612429565b610db5565b610db46001858385610daf9190614461565b6124e7565b5b7fe4cdf9910b64ce21ac80bc33f09dc8c436c35db3daaa632ef78df23421b6fb2584610ddf6113c4565b604051610ded929190614495565b60405180910390a150505050565b60007f0000000000000000000000000000000000000000000000000000000000000000905090565b60007f0000000000000000000000000000000000000000000000000000000000000000905090565b600080610e56612597565b9050610e77818585610e6885896120d8565b610e7291906144be565b61259f565b600191505092915050565b600060017fffffffffffffffffffffffffffffffffffffffffffffffffffffffffffffffff610eb19190614461565b9050919050565b6000610ec2612768565b905080610efb576040517f9e146c1b00000000000000000000000000000000000000000000000000000000815260040160405180910390fd5b6001601160006101000a81548160ff02191690836001811115610f2157610f206144f2565b5b0217905550610f2e611005565b505050565b610f3b61234f565b600e829080600181540180825580915050600190039060005260206000200160009091909190916101000a81548173ffffffffffffffffffffffffffffffffffffffff021916908373ffffffffffffffffffffffffffffffffffffffff160217905550600e819080600181540180825580915050600190039060005260206000200160009091909190916101000a81548173ffffffffffffffffffffffffffffffffffffffff021916908373ffffffffffffffffffffffffffffffffffffffff1602179055505050565b600061101b6012543063fda4417b60e01b612801565b905061107f6040518060400160405280600681526020017f75726c425443000000000000000000000000000000000000000000000000000081525060405180606001604052806036815260200161531760369139836128329092919063ffffffff16565b6110fe6040518060400160405280600781526020017f70617468425443000000000000000000000000000000000000000000000000008152506040518060400160405280600381526020017f554e440000000000000000000000000000000000000000000000000000000000815250836128329092919063ffffffff16565b6111606040518060400160405280600681526020017f75726c555344000000000000000000000000000000000000000000000000000081525060405180606001604052806036815260200161531760369139836128329092919063ffffffff16565b6111df6040518060400160405280600781526020017f70617468555344000000000000000000000000000000000000000000000000008152506040518060400160405280600381526020017f4e41560000000000000000000000000000000000000000000000000000000000815250836128329092919063ffffffff16565b6112416040518060400160405280600681526020017f75726c455552000000000000000000000000000000000000000000000000000081525060405180606001604052806036815260200161531760369139836128329092919063ffffffff16565b6112c06040518060400160405280600781526020017f70617468455552000000000000000000000000000000000000000000000000008152506040518060400160405280600381526020017f54494d0000000000000000000000000000000000000000000000000000000000815250836128329092919063ffffffff16565b6112cc81601354612865565b5050565b6000819050919050565b600060606112e6612768565b91509250929050565b600080830361132a576040517f485dbddf00000000000000000000000000000000000000000000000000000000815260040160405180910390fd5b61133382610e82565b83111561136c576040517f5880412600000000000000000000000000000000000000000000000000000000815260040160405180910390fd5b60006113778461213c565b905061138c611384612597565b84868461289c565b8091505092915050565b60006113a061234f565b6113a982612956565b9050919050565b6113b861234f565b6113c2600061299e565b565b6000600d80549050905090565b6000600f60008373ffffffffffffffffffffffffffffffffffffffff1673ffffffffffffffffffffffffffffffffffffffff168152602001908152602001600020549050919050565b6000600660009054906101000a900473ffffffffffffffffffffffffffffffffffffffff16905090565b61144c61234f565b6000611456612a64565b90508073ffffffffffffffffffffffffffffffffffffffff1663a9059cbb338373ffffffffffffffffffffffffffffffffffffffff166370a08231306040518263ffffffff1660e01b81526004016114ae9190613fe5565b602060405180830381865afa1580156114cb573d6000803e3d6000fd5b505050506040513d601f19601f820116820180604052508101906114ef9190614376565b6040518363ffffffff1660e01b815260040161150c929190614495565b6020604051808303816000875af115801561152b573d6000803e3d6000fd5b505050506040513d601f19601f8201168201806040525081019061154f919061454d565b61158e576040517f08c379a0000000000000000000000000000000000000000000000000000000008152600401611585906145c6565b60405180910390fd5b50565b60007f0000000000000000000000000000000000000000000000000000000000000000905090565b60006115c482611d79565b8311156115fd576040517fb6727dd900000000000000000000000000000000000000000000000000000000815260040160405180910390fd5b60006116088461198d565b905061161d611615612597565b84838761289c565b8091505092915050565b606060048054611636906143d2565b80601f0160208091040260200160405190810160405280929190818152602001828054611662906143d2565b80156116af5780601f10611684576101008083540402835291602001916116af565b820191906000526020600020905b81548152906001019060200180831161169257829003601f168201915b5050505050905090565b6000806116c4612597565b905060006116d282866120d8565b905083811015611717576040517f08c379a000000000000000000000000000000000000000000000000000000000815260040161170e90614658565b60405180910390fd5b611724828686840361259f565b60019250505092915050565b600080600d600f60008573ffffffffffffffffffffffffffffffffffffffff1673ffffffffffffffffffffffffffffffffffffffff168152602001908152602001600020548154811061178657611785614403565b5b90600052602060002001549050600061179e82610a33565b905060006117aa610dfb565b600a6117b691906147ab565b90506000600e6000815481106117cf576117ce614403565b5b9060005260206000200160009054906101000a900473ffffffffffffffffffffffffffffffffffffffff1673ffffffffffffffffffffffffffffffffffffffff16638f4cef0c876040518263ffffffff1660e01b81526004016118329190613fe5565b602060405180830381865afa15801561184f573d6000803e3d6000fd5b505050506040513d601f19601f820116820180604052508101906118739190614376565b90506000600e60018154811061188c5761188b614403565b5b9060005260206000200160009054906101000a900473ffffffffffffffffffffffffffffffffffffffff1673ffffffffffffffffffffffffffffffffffffffff16638f4cef0c886040518263ffffffff1660e01b81526004016118ef9190613fe5565b602060405180830381865afa15801561190c573d6000803e3d6000fd5b505050506040513d601f19601f820116820180604052508101906119309190614376565b9050600083858361194191906147f6565b878561194d91906147f6565b61195791906144be565b6119619190614867565b9050809650505050505050919050565b600061197b61234f565b6119858383612a8e565b905092915050565b6000819050919050565b6000813373ffffffffffffffffffffffffffffffffffffffff168173ffffffffffffffffffffffffffffffffffffffff16146119ff576040517f3178cde900000000000000000000000000000000000000000000000000000000815260040160405180910390fd5b611a07612ab1565b611a0f6113c4565b611a18856113d1565b14611a2757611a2684610b6b565b5b611a30836120b4565b851115611a69576040517f6e95b8bb00000000000000000000000000000000000000000000000000000000815260040160405180910390fd5b6000611a7486610b04565b9050611a8a611a81612597565b86868985612b00565b80925050611a96612bc8565b509392505050565b6000600e600081548110611ab557611ab4614403565b5b9060005260206000200160009054906101000a900473ffffffffffffffffffffffffffffffffffffffff1673ffffffffffffffffffffffffffffffffffffffff16638f4cef0c836040518263ffffffff1660e01b8152600401611b189190613fe5565b602060405180830381865afa158015611b35573d6000803e3d6000fd5b505050506040513d601f19601f82011682018060405250810190611b599190614376565b148015611c1e57506000600e600081548110611b7857611b77614403565b5b9060005260206000200160009054906101000a900473ffffffffffffffffffffffffffffffffffffffff1673ffffffffffffffffffffffffffffffffffffffff16638f4cef0c836040518263ffffffff1660e01b8152600401611bdb9190613fe5565b602060405180830381865afa158015611bf8573d6000803e3d6000fd5b505050506040513d601f19601f82011682018060405250810190611c1c9190614376565b145b15611c6f57611c2b6113c4565b600f60008373ffffffffffffffffffffffffffffffffffffffff1673ffffffffffffffffffffffffffffffffffffffff168152602001908152602001600020819055505b50565b6000813373ffffffffffffffffffffffffffffffffffffffff168173ffffffffffffffffffffffffffffffffffffffff1614611cda576040517f3178cde900000000000000000000000000000000000000000000000000000000815260040160405180910390fd5b611ce2612ab1565b611cea6113c4565b611cf3856113d1565b14611d0257611d0184610b6b565b5b611d0b836120c6565b851115611d44576040517f1bccfb1600000000000000000000000000000000000000000000000000000000815260040160405180910390fd5b6000611d4f866112d0565b9050611d65611d5c612597565b8686848a612b00565b80925050611d71612bc8565b509392505050565b600060017fffffffffffffffffffffffffffffffffffffffffffffffffffffffffffffffff611da89190614461565b9050919050565b6000819050919050565b6000600e600181548110611dd057611dcf614403565b5b9060005260206000200160009054906101000a900473ffffffffffffffffffffffffffffffffffffffff1673ffffffffffffffffffffffffffffffffffffffff166370a08231836040518263ffffffff1660e01b8152600401611e339190613fe5565b602060405180830381865afa158015611e50573d6000803e3d6000fd5b505050506040513d601f19601f82011682018060405250810190611e749190614376565b600e600081548110611e8957611e88614403565b5b9060005260206000200160009054906101000a900473ffffffffffffffffffffffffffffffffffffffff1673ffffffffffffffffffffffffffffffffffffffff166370a08231846040518263ffffffff1660e01b8152600401611eec9190613fe5565b602060405180830381865afa158015611f09573d6000803e3d6000fd5b505050506040513d601f19601f82011682018060405250810190611f2d9190614376565b1115611ff357600e600181548110611f4857611f47614403565b5b9060005260206000200160009054906101000a900473ffffffffffffffffffffffffffffffffffffffff1673ffffffffffffffffffffffffffffffffffffffff166370a08231836040518263ffffffff1660e01b8152600401611fab9190613fe5565b602060405180830381865afa158015611fc8573d6000803e3d6000fd5b505050506040513d601f19601f82011682018060405250810190611fec9190614376565b90506120af565b600e60008154811061200857612007614403565b5b9060005260206000200160009054906101000a900473ffffffffffffffffffffffffffffffffffffffff1673ffffffffffffffffffffffffffffffffffffffff166370a08231836040518263ffffffff1660e01b815260040161206b9190613fe5565b602060405180830381865afa158015612088573d6000803e3d6000fd5b505050506040513d601f19601f820116820180604052508101906120ac9190614376565b90505b919050565b60006120bf82611db9565b9050919050565b60006120d182611db9565b9050919050565b60006120e261234f565b6120ec8383612bd2565b905092915050565b6000600e828154811061210a57612109614403565b5b9060005260206000200160009054906101000a900473ffffffffffffffffffffffffffffffffffffffff169050919050565b6000819050919050565b61214e61234f565b600073ffffffffffffffffffffffffffffffffffffffff168173ffffffffffffffffffffffffffffffffffffffff16036121bd576040517f08c379a00000000000000000000000000000000000000000000000000000000081526004016121b49061490a565b60405180910390fd5b6121c68161299e565b50565b83600c600082815260200190815260200160002060009054906101000a900473ffffffffffffffffffffffffffffffffffffffff1673ffffffffffffffffffffffffffffffffffffffff163373ffffffffffffffffffffffffffffffffffffffff161461226b576040517f08c379a00000000000000000000000000000000000000000000000000000000081526004016122629061499c565b60405180910390fd5b600c600082815260200190815260200160002060006101000a81549073ffffffffffffffffffffffffffffffffffffffff0219169055807f7cc135e0cebb02c3480ae5d74d377283180a2601f8f644edf7987b009316c63a60405160405180910390a2847fd8422588c680817fe4971ef8a5fe6a6b5df0d7cd4537eabef7fb17750e4187a7858585604051612302939291906149bc565b60405180910390a26000620186a09050600081866123209190614867565b9050600082866123309190614867565b905061233c8282612c59565b5050505050505050565b60006012905090565b612357612597565b73ffffffffffffffffffffffffffffffffffffffff1661237561141a565b73ffffffffffffffffffffffffffffffffffffffff16146123cb576040517f08c379a00000000000000000000000000000000000000000000000000000000081526004016123c290614a3f565b60405180910390fd5b565b6000806123d8612597565b90506123e581858561259f565b600191505092915050565b6000600254905090565b600080612405612597565b9050612412858285612d79565b61241d858585612e05565b60019150509392505050565b60006124348261198d565b9050600e848154811061244a57612449614403565b5b9060005260206000200160009054906101000a900473ffffffffffffffffffffffffffffffffffffffff1673ffffffffffffffffffffffffffffffffffffffff166340c10f1984836040518363ffffffff1660e01b81526004016124af929190614495565b600060405180830381600087803b1580156124c957600080fd5b505af11580156124dd573d6000803e3d6000fd5b5050505050505050565b600e83815481106124fb576124fa614403565b5b9060005260206000200160009054906101000a900473ffffffffffffffffffffffffffffffffffffffff1673ffffffffffffffffffffffffffffffffffffffff1663aaeba2e283836040518363ffffffff1660e01b8152600401612560929190614495565b600060405180830381600087803b15801561257a57600080fd5b505af115801561258e573d6000803e3d6000fd5b50505050505050565b600033905090565b600073ffffffffffffffffffffffffffffffffffffffff168373ffffffffffffffffffffffffffffffffffffffff160361260e576040517f08c379a000000000000000000000000000000000000000000000000000000000815260040161260590614ad1565b60405180910390fd5b600073ffffffffffffffffffffffffffffffffffffffff168273ffffffffffffffffffffffffffffffffffffffff160361267d576040517f08c379a000000000000000000000000000000000000000000000000000000000815260040161267490614b63565b60405180910390fd5b80600160008573ffffffffffffffffffffffffffffffffffffffff1673ffffffffffffffffffffffffffffffffffffffff16815260200190815260200160002060008473ffffffffffffffffffffffffffffffffffffffff1673ffffffffffffffffffffffffffffffffffffffff168152602001908152602001600020819055508173ffffffffffffffffffffffffffffffffffffffff168373ffffffffffffffffffffffffffffffffffffffff167f8c5be1e5ebec7d5bd14f71427d1e84f3dd0314c0f7b2291e5b200ac8c7c3b9258360405161275b9190613ca1565b60405180910390a3505050565b600080601160009054906101000a900460ff16600181111561278d5761278c6144f2565b5b600060018111156127a1576127a06144f2565b5b14905060007f0000000000000000000000000000000000000000000000000000000000000000601054426127d59190614461565b1190506000806127e3610992565b1190508280156127f05750815b80156127f95750805b935050505090565b612809613c01565b612811613c01565b6128288585858461307b909392919063ffffffff16565b9150509392505050565b61284982846080015161312b90919063ffffffff16565b61286081846080015161312b90919063ffffffff16565b505050565b6000612894600a60009054906101000a900473ffffffffffffffffffffffffffffffffffffffff168484613150565b905092915050565b6128c87f000000000000000000000000000000000000000000000000000000000000000085308561321c565b6128d183611a9e565b6128dd60008483612429565b6128e960018483612429565b8273ffffffffffffffffffffffffffffffffffffffff163373ffffffffffffffffffffffffffffffffffffffff167fdcbc1c05240f31ff3ad067ef1ee35ce4997762752e3a095284754544f4c709d78484604051612948929190614b83565b60405180910390a350505050565b60008060008373ffffffffffffffffffffffffffffffffffffffff1673ffffffffffffffffffffffffffffffffffffffff168152602001908152602001600020549050919050565b6000600660009054906101000a900473ffffffffffffffffffffffffffffffffffffffff16905081600660006101000a81548173ffffffffffffffffffffffffffffffffffffffff021916908373ffffffffffffffffffffffffffffffffffffffff1602179055508173ffffffffffffffffffffffffffffffffffffffff168173ffffffffffffffffffffffffffffffffffffffff167f8be0079c531659141344cd1fd0a4f28419497f9722a3daafe3b4186f6b6457e060405160405180910390a35050565b6000600960009054906101000a900473ffffffffffffffffffffffffffffffffffffffff16905090565b600080612a99612597565b9050612aa6818585612e05565b600191505092915050565b600260055403612af6576040517f08c379a0000000000000000000000000000000000000000000000000000000008152600401612aed90614bf8565b60405180910390fd5b6002600581905550565b612b0c600086846124e7565b612b18600186846124e7565b612b437f000000000000000000000000000000000000000000000000000000000000000085846132a5565b8273ffffffffffffffffffffffffffffffffffffffff168473ffffffffffffffffffffffffffffffffffffffff168673ffffffffffffffffffffffffffffffffffffffff167ffbde797d201c681b91056529119e0b02407c7bb96a4a2c75c01fc9667232c8db8585604051612bb9929190614b83565b60405180910390a45050505050565b6001600581905550565b6000600160008473ffffffffffffffffffffffffffffffffffffffff1673ffffffffffffffffffffffffffffffffffffffff16815260200190815260200160002060008373ffffffffffffffffffffffffffffffffffffffff1673ffffffffffffffffffffffffffffffffffffffff16815260200190815260200160002054905092915050565b6000612c6f60028461332b90919063ffffffff16565b90506000816002612c7e610dfb565b600a612c8a91906147ab565b85612c9591906147f6565b612c9f9190614867565b612ca99190614867565b9050600d8190806001815401808255809150506001900390600052602060002001600090919091909150556000601160006101000a81548160ff02191690836001811115612cfa57612cf96144f2565b5b02179055507f0000000000000000000000000000000000000000000000000000000000000000601054612d2d91906144be565b6010819055507f11c6bf55864ff83827df712625d7a80e5583eef0264921025e7cd22003a21511612d5c6113c4565b82604051612d6b929190614b83565b60405180910390a150505050565b6000612d8584846120d8565b90507fffffffffffffffffffffffffffffffffffffffffffffffffffffffffffffffff8114612dff5781811015612df1576040517f08c379a0000000000000000000000000000000000000000000000000000000008152600401612de890614c64565b60405180910390fd5b612dfe848484840361259f565b5b50505050565b600073ffffffffffffffffffffffffffffffffffffffff168373ffffffffffffffffffffffffffffffffffffffff1603612e74576040517f08c379a0000000000000000000000000000000000000000000000000000000008152600401612e6b90614cf6565b60405180910390fd5b600073ffffffffffffffffffffffffffffffffffffffff168273ffffffffffffffffffffffffffffffffffffffff1603612ee3576040517f08c379a0000000000000000000000000000000000000000000000000000000008152600401612eda90614d88565b60405180910390fd5b612eee838383613368565b60008060008573ffffffffffffffffffffffffffffffffffffffff1673ffffffffffffffffffffffffffffffffffffffff16815260200190815260200160002054905081811015612f74576040517f08c379a0000000000000000000000000000000000000000000000000000000008152600401612f6b90614e1a565b60405180910390fd5b8181036000808673ffffffffffffffffffffffffffffffffffffffff1673ffffffffffffffffffffffffffffffffffffffff16815260200190815260200160002081905550816000808573ffffffffffffffffffffffffffffffffffffffff1673ffffffffffffffffffffffffffffffffffffffff168152602001908152602001600020600082825401925050819055508273ffffffffffffffffffffffffffffffffffffffff168473ffffffffffffffffffffffffffffffffffffffff167fddf252ad1be2c89b69c2b068fc378daa952ba7f163c4a11628f55a4df523b3ef846040516130629190613ca1565b60405180910390a361307584848461336d565b50505050565b613083613c01565b6130938560800151610100613372565b508385600001818152505082856020019073ffffffffffffffffffffffffffffffffffffffff16908173ffffffffffffffffffffffffffffffffffffffff16815250508185604001907bffffffffffffffffffffffffffffffffffffffffffffffffffffffff191690817bffffffffffffffffffffffffffffffffffffffffffffffffffffffff191681525050849050949350505050565b61313882600383516133dc565b61314b818361356190919063ffffffff16565b505050565b600080600b54905060018161316591906144be565b600b819055506000634042994660e01b60008087600001513089604001518760018c60800151600001516040516024016131a6989796959493929190614e84565b604051602081830303815290604052907bffffffffffffffffffffffffffffffffffffffffffffffffffffffff19166020820180517bffffffffffffffffffffffffffffffffffffffffffffffffffffffff8381831617835250505050905061321186838684613583565b925050509392505050565b61329f846323b872dd60e01b85858560405160240161323d93929190614f09565b604051602081830303815290604052907bffffffffffffffffffffffffffffffffffffffffffffffffffffffff19166020820180517bffffffffffffffffffffffffffffffffffffffffffffffffffffffff8381831617835250505050613718565b50505050565b6133268363a9059cbb60e01b84846040516024016132c4929190614495565b604051602081830303815290604052907bffffffffffffffffffffffffffffffffffffffffffffffffffffffff19166020820180517bffffffffffffffffffffffffffffffffffffffffffffffffffffffff8381831617835250505050613718565b505050565b600080831461335d576001826001856133449190614461565b61334e9190614867565b61335891906144be565b613360565b60005b905092915050565b505050565b505050565b61337a613c6e565b60006020836133899190614f40565b146133b55760208261339b9190614f40565b60206133a79190614461565b826133b291906144be565b91505b81836020018181525050604051808452600081528281016020016040525082905092915050565b60178167ffffffffffffffff16116134135761340d8160058460ff16901b60ff1617846137df90919063ffffffff16565b5061355c565b60ff8167ffffffffffffffff161161346957613442601860058460ff16901b17846137df90919063ffffffff16565b506134638167ffffffffffffffff166001856137ff9092919063ffffffff16565b5061355b565b61ffff8167ffffffffffffffff16116134c057613499601960058460ff16901b17846137df90919063ffffffff16565b506134ba8167ffffffffffffffff166002856137ff9092919063ffffffff16565b5061355a565b63ffffffff8167ffffffffffffffff1611613519576134f2601a60058460ff16901b17846137df90919063ffffffff16565b506135138167ffffffffffffffff166004856137ff9092919063ffffffff16565b50613559565b613536601b60058460ff16901b17846137df90919063ffffffff16565b506135578167ffffffffffffffff166008856137ff9092919063ffffffff16565b505b5b5b5b505050565b613569613c6e565b61357b83846000015151848551613821565b905092915050565b60003084604051602001613598929190614fec565b60405160208183030381529060405280519060200120905084600c600083815260200190815260200160002060006101000a81548173ffffffffffffffffffffffffffffffffffffffff021916908373ffffffffffffffffffffffffffffffffffffffff160217905550807fb5e6e01e79f91267dc17b4e6314d5d4d03593d2ceee0fbb452b750bd70ea5af960405160405180910390a2600960009054906101000a900473ffffffffffffffffffffffffffffffffffffffff1673ffffffffffffffffffffffffffffffffffffffff16634000aea08685856040518463ffffffff1660e01b815260040161368e93929190615018565b6020604051808303816000875af11580156136ad573d6000803e3d6000fd5b505050506040513d601f19601f820116820180604052508101906136d1919061454d565b613710576040517f08c379a0000000000000000000000000000000000000000000000000000000008152600401613707906150c8565b60405180910390fd5b949350505050565b600061377a826040518060400160405280602081526020017f5361666545524332303a206c6f772d6c6576656c2063616c6c206661696c65648152508573ffffffffffffffffffffffffffffffffffffffff166139109092919063ffffffff16565b90506000815111156137da578080602001905181019061379a919061454d565b6137d9576040517f08c379a00000000000000000000000000000000000000000000000000000000081526004016137d09061515a565b60405180910390fd5b5b505050565b6137e7613c6e565b6137f78384600001515184613928565b905092915050565b613807613c6e565b61381884856000015151858561397e565b90509392505050565b613829613c6e565b825182111561383757600080fd5b8460200151828561384891906144be565b111561387d5761387c85600261386d8860200151888761386891906144be565b613a0c565b61387791906147f6565b613a28565b5b60008086518051876020830101935080888701111561389c5787860182525b60208701925050505b602084106138e357805182526020826138be91906144be565b91506020816138cd91906144be565b90506020846138dc9190614461565b93506138a5565b60006001856020036101000a03905080198251168184511681811785525050508692505050949350505050565b606061391f8484600085613a4c565b90509392505050565b613930613c6e565b8360200151831061395657613955846002866020015161395091906147f6565b613a28565b5b83518051602085830101848153818603613971576001820183525b5050508390509392505050565b613986613c6e565b8460200151848361399791906144be565b11156139bf576139be85600286856139af91906144be565b6139b991906147f6565b613a28565b5b60006001836101006139d1919061517a565b6139db9190614461565b905085518386820101858319825116178152815185880111156139fe5784870182525b505085915050949350505050565b600081831115613a1e57829050613a22565b8190505b92915050565b600082600001519050613a3b8383613372565b50613a468382613561565b50505050565b606082471015613a91576040517f08c379a0000000000000000000000000000000000000000000000000000000008152600401613a8890615237565b60405180910390fd5b6000808673ffffffffffffffffffffffffffffffffffffffff168587604051613aba9190615293565b60006040518083038185875af1925050503d8060008114613af7576040519150601f19603f3d011682016040523d82523d6000602084013e613afc565b606091505b5091509150613b0d87838387613b19565b92505050949350505050565b60608315613b7b576000835103613b7357613b3385613b8e565b613b72576040517f08c379a0000000000000000000000000000000000000000000000000000000008152600401613b69906152f6565b60405180910390fd5b5b829050613b86565b613b858383613bb1565b5b949350505050565b6000808273ffffffffffffffffffffffffffffffffffffffff163b119050919050565b600082511115613bc45781518083602001fd5b806040517f08c379a0000000000000000000000000000000000000000000000000000000008152600401613bf89190613daf565b60405180910390fd5b6040518060a0016040528060008019168152602001600073ffffffffffffffffffffffffffffffffffffffff16815260200160007bffffffffffffffffffffffffffffffffffffffffffffffffffffffff1916815260200160008152602001613c68613c6e565b81525090565b604051806040016040528060608152602001600081525090565b6000819050919050565b613c9b81613c88565b82525050565b6000602082019050613cb66000830184613c92565b92915050565b600080fd5b600080fd5b613ccf81613c88565b8114613cda57600080fd5b50565b600081359050613cec81613cc6565b92915050565b600060208284031215613d0857613d07613cbc565b5b6000613d1684828501613cdd565b91505092915050565b600081519050919050565b600082825260208201905092915050565b60005b83811015613d59578082015181840152602081019050613d3e565b60008484015250505050565b6000601f19601f8301169050919050565b6000613d8182613d1f565b613d8b8185613d2a565b9350613d9b818560208601613d3b565b613da481613d65565b840191505092915050565b60006020820190508181036000830152613dc98184613d76565b905092915050565b600073ffffffffffffffffffffffffffffffffffffffff82169050919050565b6000613dfc82613dd1565b9050919050565b613e0c81613df1565b8114613e1757600080fd5b50565b600081359050613e2981613e03565b92915050565b60008060408385031215613e4657613e45613cbc565b5b6000613e5485828601613e1a565b9250506020613e6585828601613cdd565b9150509250929050565b60008115159050919050565b613e8481613e6f565b82525050565b6000602082019050613e9f6000830184613e7b565b92915050565b6000819050919050565b6000613eca613ec5613ec084613dd1565b613ea5565b613dd1565b9050919050565b6000613edc82613eaf565b9050919050565b6000613eee82613ed1565b9050919050565b613efe81613ee3565b82525050565b6000602082019050613f196000830184613ef5565b92915050565b600080600060608486031215613f3857613f37613cbc565b5b6000613f4686828701613e1a565b9350506020613f5786828701613e1a565b9250506040613f6886828701613cdd565b9150509250925092565b600060208284031215613f8857613f87613cbc565b5b6000613f9684828501613e1a565b91505092915050565b600060ff82169050919050565b613fb581613f9f565b82525050565b6000602082019050613fd06000830184613fac565b92915050565b613fdf81613df1565b82525050565b6000602082019050613ffa6000830184613fd6565b92915050565b600080fd5b600080fd5b600080fd5b60008083601f84011261402557614024614000565b5b8235905067ffffffffffffffff81111561404257614041614005565b5b60208301915083600182028301111561405e5761405d61400a565b5b9250929050565b6000806020838503121561407c5761407b613cbc565b5b600083013567ffffffffffffffff81111561409a57614099613cc1565b5b6140a68582860161400f565b92509250509250929050565b60006140bd82613df1565b9050919050565b6140cd816140b2565b81146140d857600080fd5b50565b6000813590506140ea816140c4565b92915050565b6000806040838503121561410757614106613cbc565b5b6000614115858286016140db565b9250506020614126858286016140db565b9150509250929050565b600081519050919050565b600082825260208201905092915050565b600061415782614130565b614161818561413b565b9350614171818560208601613d3b565b61417a81613d65565b840191505092915050565b600060408201905061419a6000830185613e7b565b81810360208301526141ac818461414c565b90509392505050565b600080604083850312156141cc576141cb613cbc565b5b60006141da85828601613cdd565b92505060206141eb85828601613e1a565b9150509250929050565b60008060006060848603121561420e5761420d613cbc565b5b600061421c86828701613cdd565b935050602061422d86828701613e1a565b925050604061423e86828701613e1a565b9150509250925092565b6000806040838503121561425f5761425e613cbc565b5b600061426d85828601613e1a565b925050602061427e85828601613e1a565b9150509250929050565b600061429382613ed1565b9050919050565b6142a381614288565b82525050565b60006020820190506142be600083018461429a565b92915050565b6000819050919050565b6142d7816142c4565b81146142e257600080fd5b50565b6000813590506142f4816142ce565b92915050565b6000806000806080858703121561431457614313613cbc565b5b6000614322878288016142e5565b945050602061433387828801613cdd565b935050604061434487828801613cdd565b925050606061435587828801613cdd565b91505092959194509250565b60008151905061437081613cc6565b92915050565b60006020828403121561438c5761438b613cbc565b5b600061439a84828501614361565b91505092915050565b7f4e487b7100000000000000000000000000000000000000000000000000000000600052602260045260246000fd5b600060028204905060018216806143ea57607f821691505b6020821081036143fd576143fc6143a3565b5b50919050565b7f4e487b7100000000000000000000000000000000000000000000000000000000600052603260045260246000fd5b7f4e487b7100000000000000000000000000000000000000000000000000000000600052601160045260246000fd5b600061446c82613c88565b915061447783613c88565b925082820390508181111561448f5761448e614432565b5b92915050565b60006040820190506144aa6000830185613fd6565b6144b76020830184613c92565b9392505050565b60006144c982613c88565b91506144d483613c88565b92508282019050808211156144ec576144eb614432565b5b92915050565b7f4e487b7100000000000000000000000000000000000000000000000000000000600052602160045260246000fd5b61452a81613e6f565b811461453557600080fd5b50565b60008151905061454781614521565b92915050565b60006020828403121561456357614562613cbc565b5b600061457184828501614538565b91505092915050565b7f556e61626c6520746f207472616e736665720000000000000000000000000000600082015250565b60006145b0601283613d2a565b91506145bb8261457a565b602082019050919050565b600060208201905081810360008301526145df816145a3565b9050919050565b7f45524332303a2064656372656173656420616c6c6f77616e63652062656c6f7760008201527f207a65726f000000000000000000000000000000000000000000000000000000602082015250565b6000614642602583613d2a565b915061464d826145e6565b604082019050919050565b6000602082019050818103600083015261467181614635565b9050919050565b60008160011c9050919050565b6000808291508390505b60018511156146cf578086048111156146ab576146aa614432565b5b60018516156146ba5780820291505b80810290506146c885614678565b945061468f565b94509492505050565b6000826146e857600190506147a4565b816146f657600090506147a4565b816001811461470c576002811461471657614745565b60019150506147a4565b60ff84111561472857614727614432565b5b8360020a91508482111561473f5761473e614432565b5b506147a4565b5060208310610133831016604e8410600b841016171561477a5782820a90508381111561477557614774614432565b5b6147a4565b6147878484846001614685565b9250905081840481111561479e5761479d614432565b5b81810290505b9392505050565b60006147b682613c88565b91506147c183613f9f565b92506147ee7fffffffffffffffffffffffffffffffffffffffffffffffffffffffffffffffff84846146d8565b905092915050565b600061480182613c88565b915061480c83613c88565b925082820261481a81613c88565b9150828204841483151761483157614830614432565b5b5092915050565b7f4e487b7100000000000000000000000000000000000000000000000000000000600052601260045260246000fd5b600061487282613c88565b915061487d83613c88565b92508261488d5761488c614838565b5b828204905092915050565b7f4f776e61626c653a206e6577206f776e657220697320746865207a65726f206160008201527f6464726573730000000000000000000000000000000000000000000000000000602082015250565b60006148f4602683613d2a565b91506148ff82614898565b604082019050919050565b60006020820190508181036000830152614923816148e7565b9050919050565b7f536f75726365206d75737420626520746865206f7261636c65206f662074686560008201527f2072657175657374000000000000000000000000000000000000000000000000602082015250565b6000614986602883613d2a565b91506149918261492a565b604082019050919050565b600060208201905081810360008301526149b581614979565b9050919050565b60006060820190506149d16000830186613c92565b6149de6020830185613c92565b6149eb6040830184613c92565b949350505050565b7f4f776e61626c653a2063616c6c6572206973206e6f7420746865206f776e6572600082015250565b6000614a29602083613d2a565b9150614a34826149f3565b602082019050919050565b60006020820190508181036000830152614a5881614a1c565b9050919050565b7f45524332303a20617070726f76652066726f6d20746865207a65726f2061646460008201527f7265737300000000000000000000000000000000000000000000000000000000602082015250565b6000614abb602483613d2a565b9150614ac682614a5f565b604082019050919050565b60006020820190508181036000830152614aea81614aae565b9050919050565b7f45524332303a20617070726f766520746f20746865207a65726f20616464726560008201527f7373000000000000000000000000000000000000000000000000000000000000602082015250565b6000614b4d602283613d2a565b9150614b5882614af1565b604082019050919050565b60006020820190508181036000830152614b7c81614b40565b9050919050565b6000604082019050614b986000830185613c92565b614ba56020830184613c92565b9392505050565b7f5265656e7472616e637947756172643a207265656e7472616e742063616c6c00600082015250565b6000614be2601f83613d2a565b9150614bed82614bac565b602082019050919050565b60006020820190508181036000830152614c1181614bd5565b9050919050565b7f45524332303a20696e73756666696369656e7420616c6c6f77616e6365000000600082015250565b6000614c4e601d83613d2a565b9150614c5982614c18565b602082019050919050565b60006020820190508181036000830152614c7d81614c41565b9050919050565b7f45524332303a207472616e736665722066726f6d20746865207a65726f20616460008201527f6472657373000000000000000000000000000000000000000000000000000000602082015250565b6000614ce0602583613d2a565b9150614ceb82614c84565b604082019050919050565b60006020820190508181036000830152614d0f81614cd3565b9050919050565b7f45524332303a207472616e7366657220746f20746865207a65726f206164647260008201527f6573730000000000000000000000000000000000000000000000000000000000602082015250565b6000614d72602383613d2a565b9150614d7d82614d16565b604082019050919050565b60006020820190508181036000830152614da181614d65565b9050919050565b7f45524332303a207472616e7366657220616d6f756e742065786365656473206260008201527f616c616e63650000000000000000000000000000000000000000000000000000602082015250565b6000614e04602683613d2a565b9150614e0f82614da8565b604082019050919050565b60006020820190508181036000830152614e3381614df7565b9050919050565b614e43816142c4565b82525050565b60007fffffffff0000000000000000000000000000000000000000000000000000000082169050919050565b614e7e81614e49565b82525050565b600061010082019050614e9a600083018b613fd6565b614ea7602083018a613c92565b614eb46040830189614e3a565b614ec16060830188613fd6565b614ece6080830187614e75565b614edb60a0830186613c92565b614ee860c0830185613c92565b81810360e0830152614efa818461414c565b90509998505050505050505050565b6000606082019050614f1e6000830186613fd6565b614f2b6020830185613fd6565b614f386040830184613c92565b949350505050565b6000614f4b82613c88565b9150614f5683613c88565b925082614f6657614f65614838565b5b828206905092915050565b6000614f7c82613ed1565b9050919050565b60008160601b9050919050565b6000614f9b82614f83565b9050919050565b6000614fad82614f90565b9050919050565b614fc5614fc082614f71565b614fa2565b82525050565b6000819050919050565b614fe6614fe182613c88565b614fcb565b82525050565b6000614ff88285614fb4565b6014820191506150088284614fd5565b6020820191508190509392505050565b600060608201905061502d6000830186613fd6565b61503a6020830185613c92565b818103604083015261504c818461414c565b9050949350505050565b7f756e61626c6520746f207472616e73666572416e6443616c6c20746f206f726160008201527f636c650000000000000000000000000000000000000000000000000000000000602082015250565b60006150b2602383613d2a565b91506150bd82615056565b604082019050919050565b600060208201905081810360008301526150e1816150a5565b9050919050565b7f5361666545524332303a204552433230206f7065726174696f6e20646964206e60008201527f6f74207375636365656400000000000000000000000000000000000000000000602082015250565b6000615144602a83613d2a565b915061514f826150e8565b604082019050919050565b6000602082019050818103600083015261517381615137565b9050919050565b600061518582613c88565b915061519083613c88565b92506151bd7fffffffffffffffffffffffffffffffffffffffffffffffffffffffffffffffff84846146d8565b905092915050565b7f416464726573733a20696e73756666696369656e742062616c616e636520666f60008201527f722063616c6c0000000000000000000000000000000000000000000000000000602082015250565b6000615221602683613d2a565b915061522c826151c5565b604082019050919050565b6000602082019050818103600083015261525081615214565b9050919050565b600081905092915050565b600061526d82614130565b6152778185615257565b9350615287818560208601613d3b565b80840191505092915050565b600061529f8284615262565b915081905092915050565b7f416464726573733a2063616c6c20746f206e6f6e2d636f6e7472616374000000600082015250565b60006152e0601d83613d2a565b91506152eb826152aa565b602082019050919050565b6000602082019050818103600083015261530f816152d3565b905091905056fe68747470733a2f2f6a696f6b656f6b77756f73612e6769746875622e696f2f7269736b2d706167652f726573706f6e73652e6a736f6ea2646970667358221220e389cc25656295a5114c4e22746477189ab260e934ee740b277d6f4849087d1c64736f6c63430008110033",
  "devdoc": {
    "author": "Okwuosa Chijioke",
    "details": "This implements 2 ERC-20 tokens that will be minted in exactly the same proportion as the underlying ERC-20 token transferred into the Factory contract. The asset will be burned in exactly the same proportion when asked to redeem/withdrawal the underlying asset. The contract will implement periodic rebalancing",
    "kind": "dev",
    "methods": {
      "allowance(address,address)": {
        "details": "See {ERC20-allowance}. "
      },
      "approve(address,uint256)": {
        "details": "See {ERC20-approve}. "
      },
      "asset()": {
        "details": "See {IERC4626-asset}. "
      },
      "balanceOf(address)": {
        "details": "See {ERC20-balanceOf}. "
      },
      "checkUpkeep(bytes)": {
        "details": "This is the function that the Chainlink Keeper nodes call they look for `upkeepNeeded` to return True. the following should be true for this to return true: 1. The time interval has passed between rebase period. 2. Trading is in open state. 3. Implicity, your subscription is funded with LINK. 4. The contract has some deposits"
      },
      "convertToAssets(uint256)": {
        "details": "See {IERC4626-convertToAssets}. "
      },
      "convertToShares(uint256)": {
        "details": "See {IERC4626-convertToShares}. "
      },
      "decimals()": {
        "details": "Decimals are read from the underlying asset in the constructor and cached. If this fails (e.g., the asset has not been created yet), the cached value is set to a default obtained by `super.decimals()` (which depends on inheritance but is most likely 18). Override this function in order to set a guaranteed hardcoded value. See {IERC20Metadata-decimals}."
      },
      "decreaseAllowance(address,uint256)": {
        "details": "Atomically decreases the allowance granted to `spender` by the caller. This is an alternative to {approve} that can be used as a mitigation for problems described in {IERC20-approve}. Emits an {Approval} event indicating the updated allowance. Requirements: - `spender` cannot be the zero address. - `spender` must have allowance for the caller of at least `subtractedValue`."
      },
      "deposit(uint256,address)": {
        "details": "See {IERC4626-deposit}. "
      },
      "fulfillMultipleParameters(bytes32,uint256,uint256,uint256)": {
        "details": "This is called by the oracle. recordChainlinkFulfillment must be used."
      },
      "increaseAllowance(address,uint256)": {
        "details": "Atomically increases the allowance granted to `spender` by the caller. This is an alternative to {approve} that can be used as a mitigation for problems described in {IERC20-approve}. Emits an {Approval} event indicating the updated allowance. Requirements: - `spender` cannot be the zero address."
      },
      "maxDeposit(address)": {
        "details": "See {IERC4626-maxDeposit}. "
      },
      "maxMint(address)": {
        "details": "See {IERC4626-maxMint}. "
      },
      "maxRedeem(address)": {
        "details": "See {IERC4626-maxRedeem}. "
      },
      "maxWithdraw(address)": {
        "details": "See {IERC4626-maxWithdraw}. "
      },
      "mint(uint256,address)": {
        "details": "See {IERC4626-mint}. As opposed to {deposit}, minting is allowed even if the vault is in a state where the price of a share is zero. In this case, the shares will be minted without requiring any assets to be deposited."
      },
      "name()": {
        "details": "Returns the name of the token."
      },
      "owner()": {
        "details": "Returns the address of the current owner."
      },
      "performUpkeep(bytes)": {
        "details": "Once `checkUpkeep` is returning `true`, this function is called"
      },
      "previewDeposit(uint256)": {
        "details": "See {IERC4626-previewDeposit}. "
      },
      "previewMint(uint256)": {
        "details": "See {IERC4626-previewMint}. "
      },
      "previewRedeem(uint256)": {
        "details": "See {IERC4626-previewRedeem}. "
      },
      "previewWithdraw(uint256)": {
        "details": "See {IERC4626-previewWithdraw}. "
      },
      "redeem(uint256,address,address)": {
        "details": "See {IERC4626-redeem}. "
      },
      "renounceOwnership()": {
        "details": "Leaves the contract without owner. It will not be possible to call `onlyOwner` functions anymore. Can only be called by the current owner. NOTE: Renouncing ownership will leave the contract without an owner, thereby removing any functionality that is only available to the owner."
      },
      "symbol()": {
        "details": "Returns the symbol of the token, usually a shorter version of the name."
      },
      "totalAssets()": {
        "details": "See {IERC4626-totalAssets}. "
      },
      "totalSupply()": {
        "details": "See {ERC20-totalSupply}. "
      },
      "transfer(address,uint256)": {
        "details": "See {ERC20-transfer}. "
      },
      "transferFrom(address,address,uint256)": {
        "details": "See {ERC20-transferFrom}. "
      },
      "transferOwnership(address)": {
        "details": "Transfers ownership of the contract to a new account (`newOwner`). Can only be called by the current owner."
      },
      "withdraw(uint256,address,address)": {
        "details": "See {IERC4626-withdraw}. "
      }
    },
    "title": "ERC-20 Rebase Tokens",
    "version": 1
  },
  "userdoc": {
    "kind": "user",
    "methods": {
      "fulfillMultipleParameters(bytes32,uint256,uint256,uint256)": {
        "notice": "Fulfillment function for multiple parameters in a single request"
      },
      "withdrawLink()": {
        "notice": "Allow withdraw of Link tokens from the contract"
      }
    },
    "notice": "Still under development",
    "version": 1
  },
  "storageLayout": {
    "storage": [
      {
        "astId": 2828,
        "contract": "contracts/vaults/TokenFactory.sol:TokenFactory",
        "label": "_balances",
        "offset": 0,
        "slot": "0",
        "type": "t_mapping(t_address,t_uint256)"
      },
      {
        "astId": 2834,
        "contract": "contracts/vaults/TokenFactory.sol:TokenFactory",
        "label": "_allowances",
        "offset": 0,
        "slot": "1",
        "type": "t_mapping(t_address,t_mapping(t_address,t_uint256))"
      },
      {
        "astId": 2836,
        "contract": "contracts/vaults/TokenFactory.sol:TokenFactory",
        "label": "_totalSupply",
        "offset": 0,
        "slot": "2",
        "type": "t_uint256"
      },
      {
        "astId": 2838,
        "contract": "contracts/vaults/TokenFactory.sol:TokenFactory",
        "label": "_name",
        "offset": 0,
        "slot": "3",
        "type": "t_string_storage"
      },
      {
        "astId": 2840,
        "contract": "contracts/vaults/TokenFactory.sol:TokenFactory",
        "label": "_symbol",
        "offset": 0,
        "slot": "4",
        "type": "t_string_storage"
      },
      {
        "astId": 2769,
        "contract": "contracts/vaults/TokenFactory.sol:TokenFactory",
        "label": "_status",
        "offset": 0,
        "slot": "5",
        "type": "t_uint256"
      },
      {
        "astId": 2485,
        "contract": "contracts/vaults/TokenFactory.sol:TokenFactory",
        "label": "_owner",
        "offset": 0,
        "slot": "6",
        "type": "t_address"
      },
      {
        "astId": 358,
        "contract": "contracts/vaults/TokenFactory.sol:TokenFactory",
        "label": "s_ens",
        "offset": 0,
        "slot": "7",
        "type": "t_contract(ENSInterface)1260"
      },
      {
        "astId": 360,
        "contract": "contracts/vaults/TokenFactory.sol:TokenFactory",
        "label": "s_ensNode",
        "offset": 0,
        "slot": "8",
        "type": "t_bytes32"
      },
      {
        "astId": 363,
        "contract": "contracts/vaults/TokenFactory.sol:TokenFactory",
        "label": "s_link",
        "offset": 0,
        "slot": "9",
        "type": "t_contract(LinkTokenInterface)1355"
      },
      {
        "astId": 366,
        "contract": "contracts/vaults/TokenFactory.sol:TokenFactory",
        "label": "s_oracle",
        "offset": 0,
        "slot": "10",
        "type": "t_contract(OperatorInterface)1435"
      },
      {
        "astId": 369,
        "contract": "contracts/vaults/TokenFactory.sol:TokenFactory",
        "label": "s_requestCount",
        "offset": 0,
        "slot": "11",
        "type": "t_uint256"
      },
      {
        "astId": 373,
        "contract": "contracts/vaults/TokenFactory.sol:TokenFactory",
        "label": "s_pendingRequests",
        "offset": 0,
        "slot": "12",
        "type": "t_mapping(t_bytes32,t_address)"
      },
      {
        "astId": 8025,
        "contract": "contracts/vaults/TokenFactory.sol:TokenFactory",
        "label": "scallingFactorX",
        "offset": 0,
        "slot": "13",
        "type": "t_array(t_uint256)dyn_storage"
      },
      {
        "astId": 8029,
        "contract": "contracts/vaults/TokenFactory.sol:TokenFactory",
        "label": "devTokenArray",
        "offset": 0,
        "slot": "14",
        "type": "t_array(t_contract(DevToken)7964)dyn_storage"
      },
      {
        "astId": 8036,
        "contract": "contracts/vaults/TokenFactory.sol:TokenFactory",
        "label": "lastRebaseCount",
        "offset": 0,
        "slot": "15",
        "type": "t_mapping(t_address,t_uint256)"
      },
      {
        "astId": 8045,
        "contract": "contracts/vaults/TokenFactory.sol:TokenFactory",
        "label": "lastTimeStamp",
        "offset": 0,
        "slot": "16",
        "type": "t_uint256"
      },
      {
        "astId": 8048,
        "contract": "contracts/vaults/TokenFactory.sol:TokenFactory",
        "label": "tokenFactoryState",
        "offset": 0,
        "slot": "17",
        "type": "t_enum(TokenFactoryState)8008"
      },
      {
        "astId": 8050,
        "contract": "contracts/vaults/TokenFactory.sol:TokenFactory",
        "label": "jobId",
        "offset": 0,
        "slot": "18",
        "type": "t_bytes32"
      },
      {
        "astId": 8052,
        "contract": "contracts/vaults/TokenFactory.sol:TokenFactory",
        "label": "fee",
        "offset": 0,
        "slot": "19",
        "type": "t_uint256"
      }
    ],
    "types": {
      "t_address": {
        "encoding": "inplace",
        "label": "address",
        "numberOfBytes": "20"
      },
      "t_array(t_contract(DevToken)7964)dyn_storage": {
        "base": "t_contract(DevToken)7964",
        "encoding": "dynamic_array",
        "label": "contract DevToken[]",
        "numberOfBytes": "32"
      },
      "t_array(t_uint256)dyn_storage": {
        "base": "t_uint256",
        "encoding": "dynamic_array",
        "label": "uint256[]",
        "numberOfBytes": "32"
      },
      "t_bytes32": {
        "encoding": "inplace",
        "label": "bytes32",
        "numberOfBytes": "32"
      },
      "t_contract(DevToken)7964": {
        "encoding": "inplace",
        "label": "contract DevToken",
        "numberOfBytes": "20"
      },
      "t_contract(ENSInterface)1260": {
        "encoding": "inplace",
        "label": "contract ENSInterface",
        "numberOfBytes": "20"
      },
      "t_contract(LinkTokenInterface)1355": {
        "encoding": "inplace",
        "label": "contract LinkTokenInterface",
        "numberOfBytes": "20"
      },
      "t_contract(OperatorInterface)1435": {
        "encoding": "inplace",
        "label": "contract OperatorInterface",
        "numberOfBytes": "20"
      },
      "t_enum(TokenFactoryState)8008": {
        "encoding": "inplace",
        "label": "enum TokenFactory.TokenFactoryState",
        "numberOfBytes": "1"
      },
      "t_mapping(t_address,t_mapping(t_address,t_uint256))": {
        "encoding": "mapping",
        "key": "t_address",
        "label": "mapping(address => mapping(address => uint256))",
        "numberOfBytes": "32",
        "value": "t_mapping(t_address,t_uint256)"
      },
      "t_mapping(t_address,t_uint256)": {
        "encoding": "mapping",
        "key": "t_address",
        "label": "mapping(address => uint256)",
        "numberOfBytes": "32",
        "value": "t_uint256"
      },
      "t_mapping(t_bytes32,t_address)": {
        "encoding": "mapping",
        "key": "t_bytes32",
        "label": "mapping(bytes32 => address)",
        "numberOfBytes": "32",
        "value": "t_address"
      },
      "t_string_storage": {
        "encoding": "bytes",
        "label": "string",
        "numberOfBytes": "32"
      },
      "t_uint256": {
        "encoding": "inplace",
        "label": "uint256",
        "numberOfBytes": "32"
      }
    }
  }
}