{
  "address": "0xfB1eCFDf59D43E2D70fFB5E14cF02fa2414DbA74",
  "abi": [
    {
      "inputs": [
        {
          "internalType": "contract IERC20",
          "name": "baseTokenAddress",
          "type": "address"
        },
        {
          "internalType": "string",
          "name": "externalApiAddress",
          "type": "string"
        },
        {
          "internalType": "uint256",
          "name": "rebaseInterval",
          "type": "uint256"
        },
        {
          "internalType": "address",
          "name": "chainlinkTokenAddress",
          "type": "address"
        },
        {
          "internalType": "address",
          "name": "chainlinkOracleAddress",
          "type": "address"
        },
        {
          "internalType": "bytes32",
          "name": "chainlinkUintJobId",
          "type": "bytes32"
        },
        {
          "internalType": "bytes32",
          "name": "chainlinkBytesJobId",
          "type": "bytes32"
        },
        {
          "internalType": "uint256",
          "name": "linkFee",
          "type": "uint256"
        },
        {
          "internalType": "uint256",
          "name": "currentTimeStamp",
          "type": "uint256"
        }
      ],
      "stateMutability": "nonpayable",
      "type": "constructor"
    },
    {
      "inputs": [],
      "name": "OnlySimulatedBackend",
      "type": "error"
    },
    {
      "inputs": [],
      "name": "TokenFactory__DepositMoreThanMax",
      "type": "error"
    },
    {
      "inputs": [],
      "name": "TokenFactory__MethodNotAllowed",
      "type": "error"
    },
    {
      "inputs": [],
      "name": "TokenFactory__MintMoreThanMax",
      "type": "error"
    },
    {
      "inputs": [],
      "name": "TokenFactory__OnlyAssetOwner",
      "type": "error"
    },
    {
      "inputs": [],
      "name": "TokenFactory__RedeemMoreThanMax",
      "type": "error"
    },
    {
      "inputs": [],
      "name": "TokenFactory__UpkeepNotNeeded",
      "type": "error"
    },
    {
      "inputs": [],
      "name": "TokenFactory__WithdrawMoreThanMax",
      "type": "error"
    },
    {
      "inputs": [],
      "name": "TokenFactory__ZeroDeposit",
      "type": "error"
    },
    {
      "anonymous": false,
      "inputs": [
        {
          "indexed": true,
          "internalType": "address",
          "name": "owner",
          "type": "address"
        },
        {
          "indexed": true,
          "internalType": "address",
          "name": "spender",
          "type": "address"
        },
        {
          "indexed": false,
          "internalType": "uint256",
          "name": "value",
          "type": "uint256"
        }
      ],
      "name": "Approval",
      "type": "event"
    },
    {
      "anonymous": false,
      "inputs": [
        {
          "indexed": true,
          "internalType": "bytes32",
          "name": "id",
          "type": "bytes32"
        }
      ],
      "name": "ChainlinkCancelled",
      "type": "event"
    },
    {
      "anonymous": false,
      "inputs": [
        {
          "indexed": true,
          "internalType": "bytes32",
          "name": "id",
          "type": "bytes32"
        }
      ],
      "name": "ChainlinkFulfilled",
      "type": "event"
    },
    {
      "anonymous": false,
      "inputs": [
        {
          "indexed": true,
          "internalType": "bytes32",
          "name": "id",
          "type": "bytes32"
        }
      ],
      "name": "ChainlinkRequested",
      "type": "event"
    },
    {
      "anonymous": false,
      "inputs": [
        {
          "indexed": true,
          "internalType": "address",
          "name": "sender",
          "type": "address"
        },
        {
          "indexed": true,
          "internalType": "address",
          "name": "owner",
          "type": "address"
        },
        {
          "indexed": false,
          "internalType": "uint256",
          "name": "assets",
          "type": "uint256"
        },
        {
          "indexed": false,
          "internalType": "uint256",
          "name": "shares",
          "type": "uint256"
        }
      ],
      "name": "Deposit",
      "type": "event"
    },
    {
      "anonymous": false,
      "inputs": [
        {
          "indexed": true,
          "internalType": "address",
          "name": "previousOwner",
          "type": "address"
        },
        {
          "indexed": true,
          "internalType": "address",
          "name": "newOwner",
          "type": "address"
        }
      ],
      "name": "OwnershipTransferred",
      "type": "event"
    },
    {
      "anonymous": false,
      "inputs": [
        {
          "indexed": false,
          "internalType": "uint256",
          "name": "rebaseCount",
          "type": "uint256"
        },
        {
          "indexed": false,
          "internalType": "uint256",
          "name": "newScallingFactorX",
          "type": "uint256"
        }
      ],
      "name": "Rebase",
      "type": "event"
    },
    {
      "anonymous": false,
      "inputs": [
        {
          "indexed": false,
          "internalType": "address",
          "name": "userAddress",
          "type": "address"
        },
        {
          "indexed": false,
          "internalType": "uint256",
          "name": "rebaseCount",
          "type": "uint256"
        }
      ],
      "name": "RebaseApplied",
      "type": "event"
    },
    {
      "anonymous": false,
      "inputs": [
        {
          "indexed": true,
          "internalType": "bytes32",
          "name": "requestId",
          "type": "bytes32"
        },
        {
          "indexed": true,
          "internalType": "bytes",
          "name": "data",
          "type": "bytes"
        }
      ],
      "name": "RequestFulfilled",
      "type": "event"
    },
    {
      "anonymous": false,
      "inputs": [
        {
          "indexed": true,
          "internalType": "bytes32",
          "name": "requestId",
          "type": "bytes32"
        },
        {
          "indexed": false,
          "internalType": "uint256",
          "name": "undResponse",
          "type": "uint256"
        },
        {
          "indexed": false,
          "internalType": "uint256",
          "name": "navResponse",
          "type": "uint256"
        },
        {
          "indexed": false,
          "internalType": "uint256",
          "name": "timResponse",
          "type": "uint256"
        }
      ],
      "name": "RequestMultipleFulfilled",
      "type": "event"
    },
    {
      "anonymous": false,
      "inputs": [
        {
          "indexed": true,
          "internalType": "address",
          "name": "from",
          "type": "address"
        },
        {
          "indexed": true,
          "internalType": "address",
          "name": "to",
          "type": "address"
        },
        {
          "indexed": false,
          "internalType": "uint256",
          "name": "value",
          "type": "uint256"
        }
      ],
      "name": "Transfer",
      "type": "event"
    },
    {
      "anonymous": false,
      "inputs": [
        {
          "indexed": true,
          "internalType": "address",
          "name": "sender",
          "type": "address"
        },
        {
          "indexed": true,
          "internalType": "address",
          "name": "receiver",
          "type": "address"
        },
        {
          "indexed": true,
          "internalType": "address",
          "name": "owner",
          "type": "address"
        },
        {
          "indexed": false,
          "internalType": "uint256",
          "name": "assets",
          "type": "uint256"
        },
        {
          "indexed": false,
          "internalType": "uint256",
          "name": "shares",
          "type": "uint256"
        }
      ],
      "name": "Withdraw",
      "type": "event"
    },
    {
      "inputs": [
        {
          "internalType": "address",
          "name": "owner",
          "type": "address"
        },
        {
          "internalType": "address",
          "name": "spender",
          "type": "address"
        }
      ],
      "name": "allowance",
      "outputs": [
        {
          "internalType": "uint256",
          "name": "",
          "type": "uint256"
        }
      ],
      "stateMutability": "view",
      "type": "function"
    },
    {
      "inputs": [
        {
          "internalType": "address",
          "name": "owner_",
          "type": "address"
        }
      ],
      "name": "applyRebase",
      "outputs": [],
      "stateMutability": "nonpayable",
      "type": "function"
    },
    {
      "inputs": [
        {
          "internalType": "address",
          "name": "",
          "type": "address"
        },
        {
          "internalType": "uint256",
          "name": "",
          "type": "uint256"
        }
      ],
      "name": "approve",
      "outputs": [
        {
          "internalType": "bool",
          "name": "",
          "type": "bool"
        }
      ],
      "stateMutability": "nonpayable",
      "type": "function"
    },
    {
      "inputs": [],
      "name": "asset",
      "outputs": [
        {
          "internalType": "address",
          "name": "",
          "type": "address"
        }
      ],
      "stateMutability": "view",
      "type": "function"
    },
    {
      "inputs": [
        {
          "internalType": "address",
          "name": "",
          "type": "address"
        }
      ],
      "name": "balanceOf",
      "outputs": [
        {
          "internalType": "uint256",
          "name": "",
          "type": "uint256"
        }
      ],
      "stateMutability": "view",
      "type": "function"
    },
    {
      "inputs": [
        {
          "internalType": "address",
          "name": "owner_",
          "type": "address"
        }
      ],
      "name": "calculateRollOverValue",
      "outputs": [
        {
          "internalType": "uint256",
          "name": "",
          "type": "uint256"
        }
      ],
      "stateMutability": "view",
      "type": "function"
    },
    {
      "inputs": [
        {
          "internalType": "bytes",
          "name": "",
          "type": "bytes"
        }
      ],
      "name": "checkUpkeep",
      "outputs": [
        {
          "internalType": "bool",
          "name": "upkeepNeeded",
          "type": "bool"
        },
        {
          "internalType": "bytes",
          "name": "performData",
          "type": "bytes"
        }
      ],
      "stateMutability": "view",
      "type": "function"
    },
    {
      "inputs": [
        {
          "internalType": "uint256",
          "name": "shares",
          "type": "uint256"
        }
      ],
      "name": "convertToAssets",
      "outputs": [
        {
          "internalType": "uint256",
          "name": "assets",
          "type": "uint256"
        }
      ],
      "stateMutability": "view",
      "type": "function"
    },
    {
      "inputs": [
        {
          "internalType": "uint256",
          "name": "assets",
          "type": "uint256"
        }
      ],
      "name": "convertToShares",
      "outputs": [
        {
          "internalType": "uint256",
          "name": "shares",
          "type": "uint256"
        }
      ],
      "stateMutability": "view",
      "type": "function"
    },
    {
      "inputs": [],
      "name": "decimals",
      "outputs": [
        {
          "internalType": "uint8",
          "name": "",
          "type": "uint8"
        }
      ],
      "stateMutability": "view",
      "type": "function"
    },
    {
      "inputs": [
        {
          "internalType": "address",
          "name": "spender",
          "type": "address"
        },
        {
          "internalType": "uint256",
          "name": "subtractedValue",
          "type": "uint256"
        }
      ],
      "name": "decreaseAllowance",
      "outputs": [
        {
          "internalType": "bool",
          "name": "",
          "type": "bool"
        }
      ],
      "stateMutability": "nonpayable",
      "type": "function"
    },
    {
      "inputs": [
        {
          "internalType": "uint256",
          "name": "assets",
          "type": "uint256"
        },
        {
          "internalType": "address",
          "name": "receiver",
          "type": "address"
        }
      ],
      "name": "deposit",
      "outputs": [
        {
          "internalType": "uint256",
          "name": "",
          "type": "uint256"
        }
      ],
      "stateMutability": "nonpayable",
      "type": "function"
    },
    {
      "inputs": [
        {
          "internalType": "bytes32",
          "name": "requestId",
          "type": "bytes32"
        },
        {
          "internalType": "bytes",
          "name": "bytesData",
          "type": "bytes"
        }
      ],
      "name": "fulfillBytes",
      "outputs": [],
      "stateMutability": "nonpayable",
      "type": "function"
    },
    {
      "inputs": [
        {
          "internalType": "bytes32",
          "name": "requestId",
          "type": "bytes32"
        },
        {
          "internalType": "uint256",
          "name": "undResponse",
          "type": "uint256"
        },
        {
          "internalType": "uint256",
          "name": "navResponse",
          "type": "uint256"
        },
        {
          "internalType": "uint256",
          "name": "timResponse",
          "type": "uint256"
        }
      ],
      "name": "fulfillMultipleParameters",
      "outputs": [],
      "stateMutability": "nonpayable",
      "type": "function"
    },
    {
      "inputs": [],
      "name": "getCurrentBlockTimeStamp",
      "outputs": [
        {
          "internalType": "uint256",
          "name": "",
          "type": "uint256"
        }
      ],
      "stateMutability": "view",
      "type": "function"
    },
    {
      "inputs": [
        {
          "internalType": "uint256",
          "name": "index",
          "type": "uint256"
        }
      ],
      "name": "getDevTokenAddress",
      "outputs": [
        {
          "internalType": "contract DevToken",
          "name": "",
          "type": "address"
        }
      ],
      "stateMutability": "view",
      "type": "function"
    },
    {
      "inputs": [],
      "name": "getExternalApiUrl",
      "outputs": [
        {
          "internalType": "string",
          "name": "",
          "type": "string"
        }
      ],
      "stateMutability": "view",
      "type": "function"
    },
    {
      "inputs": [],
      "name": "getInterval",
      "outputs": [
        {
          "internalType": "uint256",
          "name": "",
          "type": "uint256"
        }
      ],
      "stateMutability": "view",
      "type": "function"
    },
    {
      "inputs": [],
      "name": "getLastTimeStamp",
      "outputs": [
        {
          "internalType": "uint256",
          "name": "",
          "type": "uint256"
        }
      ],
      "stateMutability": "view",
      "type": "function"
    },
    {
      "inputs": [],
      "name": "getScallingFactorLength",
      "outputs": [
        {
          "internalType": "uint256",
          "name": "",
          "type": "uint256"
        }
      ],
      "stateMutability": "view",
      "type": "function"
    },
    {
      "inputs": [
        {
          "internalType": "address",
          "name": "userAddress",
          "type": "address"
        }
      ],
      "name": "getUserLastRebaseCount",
      "outputs": [
        {
          "internalType": "uint256",
          "name": "",
          "type": "uint256"
        }
      ],
      "stateMutability": "view",
      "type": "function"
    },
    {
      "inputs": [
        {
          "internalType": "address",
          "name": "spender",
          "type": "address"
        },
        {
          "internalType": "uint256",
          "name": "addedValue",
          "type": "uint256"
        }
      ],
      "name": "increaseAllowance",
      "outputs": [
        {
          "internalType": "bool",
          "name": "",
          "type": "bool"
        }
      ],
      "stateMutability": "nonpayable",
      "type": "function"
    },
    {
      "inputs": [
        {
          "internalType": "contract DevToken",
          "name": "token1",
          "type": "address"
        },
        {
          "internalType": "contract DevToken",
          "name": "token2",
          "type": "address"
        }
      ],
      "name": "initialize",
      "outputs": [],
      "stateMutability": "nonpayable",
      "type": "function"
    },
    {
      "inputs": [
        {
          "internalType": "address",
          "name": "owner_",
          "type": "address"
        }
      ],
      "name": "maxAmountToWithdraw",
      "outputs": [
        {
          "internalType": "uint256",
          "name": "",
          "type": "uint256"
        }
      ],
      "stateMutability": "view",
      "type": "function"
    },
    {
      "inputs": [
        {
          "internalType": "address",
          "name": "",
          "type": "address"
        }
      ],
      "name": "maxDeposit",
      "outputs": [
        {
          "internalType": "uint256",
          "name": "",
          "type": "uint256"
        }
      ],
      "stateMutability": "view",
      "type": "function"
    },
    {
      "inputs": [
        {
          "internalType": "address",
          "name": "",
          "type": "address"
        }
      ],
      "name": "maxMint",
      "outputs": [
        {
          "internalType": "uint256",
          "name": "",
          "type": "uint256"
        }
      ],
      "stateMutability": "view",
      "type": "function"
    },
    {
      "inputs": [
        {
          "internalType": "address",
          "name": "owner_",
          "type": "address"
        }
      ],
      "name": "maxRedeem",
      "outputs": [
        {
          "internalType": "uint256",
          "name": "",
          "type": "uint256"
        }
      ],
      "stateMutability": "view",
      "type": "function"
    },
    {
      "inputs": [
        {
          "internalType": "address",
          "name": "owner_",
          "type": "address"
        }
      ],
      "name": "maxWithdraw",
      "outputs": [
        {
          "internalType": "uint256",
          "name": "",
          "type": "uint256"
        }
      ],
      "stateMutability": "view",
      "type": "function"
    },
    {
      "inputs": [
        {
          "internalType": "uint256",
          "name": "shares",
          "type": "uint256"
        },
        {
          "internalType": "address",
          "name": "receiver",
          "type": "address"
        }
      ],
      "name": "mint",
      "outputs": [
        {
          "internalType": "uint256",
          "name": "",
          "type": "uint256"
        }
      ],
      "stateMutability": "nonpayable",
      "type": "function"
    },
    {
      "inputs": [],
      "name": "name",
      "outputs": [
        {
          "internalType": "string",
          "name": "",
          "type": "string"
        }
      ],
      "stateMutability": "view",
      "type": "function"
    },
    {
      "inputs": [],
      "name": "owner",
      "outputs": [
        {
          "internalType": "address",
          "name": "",
          "type": "address"
        }
      ],
      "stateMutability": "view",
      "type": "function"
    },
    {
      "inputs": [
        {
          "internalType": "bytes",
          "name": "",
          "type": "bytes"
        }
      ],
      "name": "performUpkeep",
      "outputs": [],
      "stateMutability": "nonpayable",
      "type": "function"
    },
    {
      "inputs": [
        {
          "internalType": "uint256",
          "name": "assets",
          "type": "uint256"
        }
      ],
      "name": "previewDeposit",
      "outputs": [
        {
          "internalType": "uint256",
          "name": "",
          "type": "uint256"
        }
      ],
      "stateMutability": "view",
      "type": "function"
    },
    {
      "inputs": [
        {
          "internalType": "uint256",
          "name": "shares",
          "type": "uint256"
        }
      ],
      "name": "previewMint",
      "outputs": [
        {
          "internalType": "uint256",
          "name": "",
          "type": "uint256"
        }
      ],
      "stateMutability": "view",
      "type": "function"
    },
    {
      "inputs": [
        {
          "internalType": "uint256",
          "name": "shares",
          "type": "uint256"
        }
      ],
      "name": "previewRedeem",
      "outputs": [
        {
          "internalType": "uint256",
          "name": "",
          "type": "uint256"
        }
      ],
      "stateMutability": "view",
      "type": "function"
    },
    {
      "inputs": [
        {
          "internalType": "uint256",
          "name": "assets",
          "type": "uint256"
        }
      ],
      "name": "previewWithdraw",
      "outputs": [
        {
          "internalType": "uint256",
          "name": "",
          "type": "uint256"
        }
      ],
      "stateMutability": "view",
      "type": "function"
    },
    {
      "inputs": [
        {
          "internalType": "uint256",
          "name": "rebasePrice",
          "type": "uint256"
        },
        {
          "internalType": "uint256",
          "name": "asset1Price",
          "type": "uint256"
        },
        {
          "internalType": "uint256",
          "name": "timestamp",
          "type": "uint256"
        },
        {
          "internalType": "bytes",
          "name": "sig",
          "type": "bytes"
        }
      ],
      "name": "rebaseManualTrigger",
      "outputs": [],
      "stateMutability": "nonpayable",
      "type": "function"
    },
    {
      "inputs": [
        {
          "internalType": "uint256",
          "name": "shares",
          "type": "uint256"
        },
        {
          "internalType": "address",
          "name": "receiver",
          "type": "address"
        },
        {
          "internalType": "address",
          "name": "owner_",
          "type": "address"
        }
      ],
      "name": "redeem",
      "outputs": [
        {
          "internalType": "uint256",
          "name": "",
          "type": "uint256"
        }
      ],
      "stateMutability": "nonpayable",
      "type": "function"
    },
    {
      "inputs": [],
      "name": "renounceOwnership",
      "outputs": [],
      "stateMutability": "nonpayable",
      "type": "function"
    },
    {
      "inputs": [],
      "name": "requestBytes",
      "outputs": [],
      "stateMutability": "nonpayable",
      "type": "function"
    },
    {
      "inputs": [],
      "name": "requestMultipleParameters",
      "outputs": [],
      "stateMutability": "nonpayable",
      "type": "function"
    },
    {
      "inputs": [
        {
          "internalType": "address",
          "name": "tokenAddress",
          "type": "address"
        },
        {
          "internalType": "address",
          "name": "to",
          "type": "address"
        },
        {
          "internalType": "uint256",
          "name": "amount",
          "type": "uint256"
        }
      ],
      "name": "rescueTokens",
      "outputs": [],
      "stateMutability": "nonpayable",
      "type": "function"
    },
    {
      "inputs": [],
      "name": "signature",
      "outputs": [
        {
          "internalType": "bytes",
          "name": "",
          "type": "bytes"
        }
      ],
      "stateMutability": "view",
      "type": "function"
    },
    {
      "inputs": [
        {
          "internalType": "uint256",
          "name": "scallingFactorX_",
          "type": "uint256"
        }
      ],
      "name": "subUnchecked",
      "outputs": [
        {
          "internalType": "uint256",
          "name": "",
          "type": "uint256"
        }
      ],
      "stateMutability": "view",
      "type": "function"
    },
    {
      "inputs": [],
      "name": "symbol",
      "outputs": [
        {
          "internalType": "string",
          "name": "",
          "type": "string"
        }
      ],
      "stateMutability": "view",
      "type": "function"
    },
    {
      "inputs": [],
      "name": "totalAssets",
      "outputs": [
        {
          "internalType": "uint256",
          "name": "",
          "type": "uint256"
        }
      ],
      "stateMutability": "view",
      "type": "function"
    },
    {
      "inputs": [],
      "name": "totalSupply",
      "outputs": [
        {
          "internalType": "uint256",
          "name": "",
          "type": "uint256"
        }
      ],
      "stateMutability": "pure",
      "type": "function"
    },
    {
      "inputs": [
        {
          "internalType": "address",
          "name": "",
          "type": "address"
        },
        {
          "internalType": "uint256",
          "name": "",
          "type": "uint256"
        }
      ],
      "name": "transfer",
      "outputs": [
        {
          "internalType": "bool",
          "name": "",
          "type": "bool"
        }
      ],
      "stateMutability": "nonpayable",
      "type": "function"
    },
    {
      "inputs": [
        {
          "internalType": "address",
          "name": "",
          "type": "address"
        },
        {
          "internalType": "address",
          "name": "",
          "type": "address"
        },
        {
          "internalType": "uint256",
          "name": "",
          "type": "uint256"
        }
      ],
      "name": "transferFrom",
      "outputs": [
        {
          "internalType": "bool",
          "name": "",
          "type": "bool"
        }
      ],
      "stateMutability": "nonpayable",
      "type": "function"
    },
    {
      "inputs": [
        {
          "internalType": "address",
          "name": "newOwner",
          "type": "address"
        }
      ],
      "name": "transferOwnership",
      "outputs": [],
      "stateMutability": "nonpayable",
      "type": "function"
    },
    {
      "inputs": [
        {
          "internalType": "address",
          "name": "owner_",
          "type": "address"
        }
      ],
      "name": "updateUserLastRebaseCount",
      "outputs": [],
      "stateMutability": "nonpayable",
      "type": "function"
    },
    {
      "inputs": [
        {
          "internalType": "uint256",
          "name": "assets",
          "type": "uint256"
        },
        {
          "internalType": "address",
          "name": "receiver",
          "type": "address"
        },
        {
          "internalType": "address",
          "name": "owner_",
          "type": "address"
        }
      ],
      "name": "withdraw",
      "outputs": [
        {
          "internalType": "uint256",
          "name": "",
          "type": "uint256"
        }
      ],
      "stateMutability": "nonpayable",
      "type": "function"
    }
  ],
  "transactionHash": "0x882d0e9da71c1e5f4014d77ad369ac0e77e85dd31707469f4fa94e8cb5730674",
  "args": [
    "0x0b0f9b36Ab434A7d3cc8F6A0C0fa5eBb8dA8399D",
    "https://jiokeokwuosa.github.io/risk-page/response.json",
    300,
    "0x779877A7B0D9E8603169DdbD7836e478b4624789",
    "0x6090149792dAAeE9D1D568c9f9a6F6B46AA29eFD",
    "0x3533663937353539323063643435316138666534366635303837343638333935",
    "0x3764613237303266333766643438653562316239613537313565333530396236",
    10,
    1683649229
  ],
  "numDeployments": 1,
  "solcInputHash": "73bff91ff489da2b13a632855148a247",
  "bytecode": "0x60e06040526001600b553480156200001657600080fd5b50604051620065323803806200653283398181016040528101906200003c919062000792565b6040518060400160405280601181526020017f5269736b50726f746f636f6c5661756c740000000000000000000000000000008152506040518060400160405280600381526020017f52504b00000000000000000000000000000000000000000000000000000000008152508160039081620000b9919062000ad1565b508060049081620000cb919062000ad1565b5050506001600581905550620000f6620000ea6200022e60201b60201c565b6200023660201b60201c565b8873ffffffffffffffffffffffffffffffffffffffff1660808173ffffffffffffffffffffffffffffffffffffffff168152505087600f90816200013b919062000ad1565b5060008062000152608051620002fc60201b60201c565b91509150816200017757620001716200044e60201b620029771760201c565b62000179565b805b60ff1660a08160ff16815250508860c08181525050826011819055506000601260006101000a81548160ff02191690836001811115620001be57620001bd62000bb8565b5b0217905550620001d4886200045760201b60201c565b620001e5876200049b60201b60201c565b856013819055508460148190555083670de0b6b3a764000060016200020b919062000c16565b62000217919062000c90565b601581905550505050505050505050505062000d60565b600033905090565b6000600660009054906101000a900473ffffffffffffffffffffffffffffffffffffffff16905081600660006101000a81548173ffffffffffffffffffffffffffffffffffffffff021916908373ffffffffffffffffffffffffffffffffffffffff1602179055508173ffffffffffffffffffffffffffffffffffffffff168173ffffffffffffffffffffffffffffffffffffffff167f8be0079c531659141344cd1fd0a4f28419497f9722a3daafe3b4186f6b6457e060405160405180910390a35050565b6000806000808473ffffffffffffffffffffffffffffffffffffffff1663313ce56760e01b604051602401604051602081830303815290604052907bffffffffffffffffffffffffffffffffffffffffffffffffffffffff19166020820180517bffffffffffffffffffffffffffffffffffffffffffffffffffffffff838183161783525050505060405162000393919062000d15565b600060405180830381855afa9150503d8060008114620003d0576040519150601f19603f3d011682016040523d82523d6000602084013e620003d5565b606091505b5091509150818015620003ea57506020815110155b80156200040f575060ff8016818060200190518101906200040c919062000d2e565b11155b156200043f576000818060200190518101906200042d919062000d2e565b90506001819450945050505062000449565b6000809350935050505b915091565b60006012905090565b80600960006101000a81548173ffffffffffffffffffffffffffffffffffffffff021916908373ffffffffffffffffffffffffffffffffffffffff16021790555050565b80600a60006101000a81548173ffffffffffffffffffffffffffffffffffffffff021916908373ffffffffffffffffffffffffffffffffffffffff16021790555050565b6000604051905090565b600080fd5b600080fd5b600073ffffffffffffffffffffffffffffffffffffffff82169050919050565b60006200052082620004f3565b9050919050565b6000620005348262000513565b9050919050565b620005468162000527565b81146200055257600080fd5b50565b60008151905062000566816200053b565b92915050565b600080fd5b600080fd5b6000601f19601f8301169050919050565b7f4e487b7100000000000000000000000000000000000000000000000000000000600052604160045260246000fd5b620005c18262000576565b810181811067ffffffffffffffff82111715620005e357620005e262000587565b5b80604052505050565b6000620005f8620004df565b9050620006068282620005b6565b919050565b600067ffffffffffffffff82111562000629576200062862000587565b5b620006348262000576565b9050602081019050919050565b60005b838110156200066157808201518184015260208101905062000644565b60008484015250505050565b6000620006846200067e846200060b565b620005ec565b905082815260208101848484011115620006a357620006a262000571565b5b620006b084828562000641565b509392505050565b600082601f830112620006d057620006cf6200056c565b5b8151620006e28482602086016200066d565b91505092915050565b6000819050919050565b6200070081620006eb565b81146200070c57600080fd5b50565b6000815190506200072081620006f5565b92915050565b620007318162000513565b81146200073d57600080fd5b50565b600081519050620007518162000726565b92915050565b6000819050919050565b6200076c8162000757565b81146200077857600080fd5b50565b6000815190506200078c8162000761565b92915050565b60008060008060008060008060006101208a8c031215620007b857620007b7620004e9565b5b6000620007c88c828d0162000555565b99505060208a015167ffffffffffffffff811115620007ec57620007eb620004ee565b5b620007fa8c828d01620006b8565b98505060406200080d8c828d016200070f565b9750506060620008208c828d0162000740565b9650506080620008338c828d0162000740565b95505060a0620008468c828d016200077b565b94505060c0620008598c828d016200077b565b93505060e06200086c8c828d016200070f565b925050610100620008808c828d016200070f565b9150509295985092959850929598565b600081519050919050565b7f4e487b7100000000000000000000000000000000000000000000000000000000600052602260045260246000fd5b60006002820490506001821680620008e357607f821691505b602082108103620008f957620008f86200089b565b5b50919050565b60008190508160005260206000209050919050565b60006020601f8301049050919050565b600082821b905092915050565b600060088302620009637fffffffffffffffffffffffffffffffffffffffffffffffffffffffffffffffff8262000924565b6200096f868362000924565b95508019841693508086168417925050509392505050565b6000819050919050565b6000620009b2620009ac620009a684620006eb565b62000987565b620006eb565b9050919050565b6000819050919050565b620009ce8362000991565b620009e6620009dd82620009b9565b84845462000931565b825550505050565b600090565b620009fd620009ee565b62000a0a818484620009c3565b505050565b5b8181101562000a325762000a26600082620009f3565b60018101905062000a10565b5050565b601f82111562000a815762000a4b81620008ff565b62000a568462000914565b8101602085101562000a66578190505b62000a7e62000a758562000914565b83018262000a0f565b50505b505050565b600082821c905092915050565b600062000aa66000198460080262000a86565b1980831691505092915050565b600062000ac1838362000a93565b9150826002028217905092915050565b62000adc8262000890565b67ffffffffffffffff81111562000af85762000af762000587565b5b62000b048254620008ca565b62000b1182828562000a36565b600060209050601f83116001811462000b49576000841562000b34578287015190505b62000b40858262000ab3565b86555062000bb0565b601f19841662000b5986620008ff565b60005b8281101562000b835784890151825560018201915060208501945060208101905062000b5c565b8683101562000ba3578489015162000b9f601f89168262000a93565b8355505b6001600288020188555050505b505050505050565b7f4e487b7100000000000000000000000000000000000000000000000000000000600052602160045260246000fd5b7f4e487b7100000000000000000000000000000000000000000000000000000000600052601160045260246000fd5b600062000c2382620006eb565b915062000c3083620006eb565b925082820262000c4081620006eb565b9150828204841483151762000c5a5762000c5962000be7565b5b5092915050565b7f4e487b7100000000000000000000000000000000000000000000000000000000600052601260045260246000fd5b600062000c9d82620006eb565b915062000caa83620006eb565b92508262000cbd5762000cbc62000c61565b5b828204905092915050565b600081519050919050565b600081905092915050565b600062000ceb8262000cc8565b62000cf7818562000cd3565b935062000d0981856020860162000641565b80840191505092915050565b600062000d23828462000cde565b915081905092915050565b60006020828403121562000d475762000d46620004e9565b5b600062000d57848285016200070f565b91505092915050565b60805160a05160c05161577f62000db3600039600081816119ae01528181612d9a01526132250152600061115f015260008181610ac60152818161118701528181612e5e0152613045015261577f6000f3fe608060405234801561001057600080fd5b506004361061030c5760003560e01c80638da5cb5b1161019d578063c63d75b6116100e9578063d905777e116100a2578063e0504a2a1161007c578063e0504a2a14610a2a578063ef8b30f714610a5a578063f2fde38b14610a8a578063fda4417b14610aa65761030c565b8063d905777e146109ac578063d9af94af146109dc578063dd62ed3e146109fa5761030c565b8063c63d75b6146108b4578063c6e6f592146108e4578063c887e8a014610914578063ce96cb7714610944578063cea9d26f14610974578063d100720e146109905761030c565b8063a9059cbb11610156578063b722d6a411610130578063b722d6a41461082e578063ba0876521461084a578063c1c244e81461087a578063c2fb8523146108985761030c565b8063a9059cbb1461079e578063b3d7f6b9146107ce578063b460af94146107fe5761030c565b80638da5cb5b146106b457806391ad27b4146106d257806394bf804d146106f057806395d89b4114610720578063a457c2d71461073e578063a4d96e171461076e5761030c565b8063395093511161025c57806351ff48471161021557806370a08231116101ef57806370a082311461062c578063715018a61461065c57806378c1a6c4146106665780637b69ce2f146106845761030c565b806351ff4847146105ad5780636e04ff0d146105cb5780636e553f65146105fc5761030c565b806339509351146104db578063402d267d1461050b5780634585e33b1461053b578063485cc955146105575780634a3afb47146105735780634cdad5061461057d5761030c565b806311411e8a116102c957806323b872dd116102a357806323b872dd1461045357806326720aa614610483578063313ce5671461049f57806338d52e0f146104bd5761030c565b806311411e8a1461040d57806318160ddd146104175780631a7c98c8146104355761030c565b806301e1d114146103115780630318b3a01461032f57806306fdde031461035f57806307a2d13a1461037d578063095ea7b3146103ad5780630a28a477146103dd575b600080fd5b610319610ac2565b6040516103269190613eef565b60405180910390f35b61034960048036038101906103449190613f4a565b610b63565b6040516103569190613eef565b60405180910390f35b610367610b7c565b6040516103749190614007565b60405180910390f35b61039760048036038101906103929190613f4a565b610c0e565b6040516103a49190613eef565b60405180910390f35b6103c760048036038101906103c29190614087565b610c18565b6040516103d491906140e2565b60405180910390f35b6103f760048036038101906103f29190613f4a565b610c4c565b6040516104049190613eef565b60405180910390f35b610415610c56565b005b61041f610dd1565b60405161042c9190613eef565b60405180910390f35b61043d610e05565b60405161044a9190614007565b60405180910390f35b61046d600480360381019061046891906140fd565b610e97565b60405161047a91906140e2565b60405180910390f35b61049d60048036038101906104989190614150565b610ecb565b005b6104a761115b565b6040516104b49190614199565b60405180910390f35b6104c5611183565b6040516104d291906141c3565b60405180910390f35b6104f560048036038101906104f09190614087565b6111ab565b60405161050291906140e2565b60405180910390f35b61052560048036038101906105209190614150565b6111e2565b6040516105329190613eef565b60405180910390f35b61055560048036038101906105509190614243565b611218565b005b610571600480360381019061056c91906142ce565b61129b565b005b61057b61136d565b005b61059760048036038101906105929190613f4a565b61178e565b6040516105a49190613eef565b60405180910390f35b6105b5611798565b6040516105c29190614363565b60405180910390f35b6105e560048036038101906105e09190614243565b611826565b6040516105f3929190614385565b60405180910390f35b610616600480360381019061061191906143b5565b61183b565b6040516106239190613eef565b60405180910390f35b61064660048036038101906106419190614150565b6118e2565b6040516106539190613eef565b60405180910390f35b610664611916565b005b61066e61192a565b60405161067b9190613eef565b60405180910390f35b61069e60048036038101906106999190614150565b611937565b6040516106ab9190613eef565b60405180910390f35b6106bc611980565b6040516106c991906141c3565b60405180910390f35b6106da6119aa565b6040516106e79190613eef565b60405180910390f35b61070a600480360381019061070591906143b5565b6119d2565b6040516107179190613eef565b60405180910390f35b610728611a40565b6040516107359190614007565b60405180910390f35b61075860048036038101906107539190614087565b611ad2565b60405161076591906140e2565b60405180910390f35b61078860048036038101906107839190614150565b611b49565b6040516107959190613eef565b60405180910390f35b6107b860048036038101906107b39190614087565b611d8a565b6040516107c591906140e2565b60405180910390f35b6107e860048036038101906107e39190613f4a565b611dbe565b6040516107f59190613eef565b60405180910390f35b610818600480360381019061081391906143f5565b611dc8565b6040516108259190613eef565b60405180910390f35b61084860048036038101906108439190614150565b611ecf565b005b610864600480360381019061085f91906143f5565b6120a3565b6040516108719190613eef565b60405180910390f35b6108826121aa565b60405161088f9190613eef565b60405180910390f35b6108b260048036038101906108ad91906145ae565b6121b4565b005b6108ce60048036038101906108c99190614150565b612311565b6040516108db9190613eef565b60405180910390f35b6108fe60048036038101906108f99190613f4a565b612347565b60405161090b9190613eef565b60405180910390f35b61092e60048036038101906109299190614150565b612351565b60405161093b9190613eef565b60405180910390f35b61095e60048036038101906109599190614150565b61264c565b60405161096b9190613eef565b60405180910390f35b61098e600480360381019061098991906140fd565b61265e565b005b6109aa60048036038101906109a5919061460a565b61267c565b005b6109c660048036038101906109c19190614150565b61268e565b6040516109d39190613eef565b60405180910390f35b6109e46126a0565b6040516109f19190613eef565b60405180910390f35b610a146004803603810190610a0f919061468d565b6126a8565b604051610a219190613eef565b60405180910390f35b610a446004803603810190610a3f9190613f4a565b6126c4565b604051610a51919061472c565b60405180910390f35b610a746004803603810190610a6f9190613f4a565b61270c565b604051610a819190613eef565b60405180910390f35b610aa46004803603810190610a9f9190614150565b612716565b005b610ac06004803603810190610abb9190614747565b612799565b005b60007f000000000000000000000000000000000000000000000000000000000000000073ffffffffffffffffffffffffffffffffffffffff166370a08231306040518263ffffffff1660e01b8152600401610b1d91906141c3565b602060405180830381865afa158015610b3a573d6000803e3d6000fd5b505050506040513d601f19601f82011682018060405250810190610b5e91906147c3565b905090565b600081610b6e61115b565b60ff16600a0a039050919050565b606060038054610b8b9061481f565b80601f0160208091040260200160405190810160405280929190818152602001828054610bb79061481f565b8015610c045780601f10610bd957610100808354040283529160200191610c04565b820191906000526020600020905b815481529060010190602001808311610be757829003601f168201915b5050505050905090565b6000819050919050565b60006040517ff01176f600000000000000000000000000000000000000000000000000000000815260040160405180910390fd5b6000819050919050565b6000610c6c6014543063c2fb852360e01b612980565b9050610d426040518060400160405280600381526020017f6765740000000000000000000000000000000000000000000000000000000000815250600f8054610cb49061481f565b80601f0160208091040260200160405190810160405280929190818152602001828054610ce09061481f565b8015610d2d5780601f10610d0257610100808354040283529160200191610d2d565b820191906000526020600020905b815481529060010190602001808311610d1057829003601f168201915b5050505050836129b19092919063ffffffff16565b610dc16040518060400160405280600481526020017f70617468000000000000000000000000000000000000000000000000000000008152506040518060400160405280600381526020017f5349470000000000000000000000000000000000000000000000000000000000815250836129b19092919063ffffffff16565b610dcd816015546129e4565b5050565b60006040517ff01176f600000000000000000000000000000000000000000000000000000000815260040160405180910390fd5b6060600f8054610e149061481f565b80601f0160208091040260200160405190810160405280929190818152602001828054610e409061481f565b8015610e8d5780601f10610e6257610100808354040283529160200191610e8d565b820191906000526020600020905b815481529060010190602001808311610e7057829003601f168201915b5050505050905090565b60006040517ff01176f600000000000000000000000000000000000000000000000000000000815260040160405180910390fd5b6000600e600081548110610ee257610ee1614850565b5b9060005260206000200160009054906101000a900473ffffffffffffffffffffffffffffffffffffffff1673ffffffffffffffffffffffffffffffffffffffff16638f4cef0c836040518263ffffffff1660e01b8152600401610f4591906141c3565b602060405180830381865afa158015610f62573d6000803e3d6000fd5b505050506040513d601f19601f82011682018060405250810190610f8691906147c3565b90506000600e600181548110610f9f57610f9e614850565b5b9060005260206000200160009054906101000a900473ffffffffffffffffffffffffffffffffffffffff1673ffffffffffffffffffffffffffffffffffffffff16638f4cef0c846040518263ffffffff1660e01b815260040161100291906141c3565b602060405180830381865afa15801561101f573d6000803e3d6000fd5b505050506040513d601f19601f8201168201806040525081019061104391906147c3565b9050600061105084611b49565b905061105a61192a565b601060008673ffffffffffffffffffffffffffffffffffffffff1673ffffffffffffffffffffffffffffffffffffffff16815260200190815260200160002081905550828111156110c1576110bc60008585846110b791906148ae565b612a1b565b6110d9565b6110d860008583866110d391906148ae565b612ad9565b5b818111156110fd576110f860018584846110f391906148ae565b612a1b565b611115565b611114600185838561110f91906148ae565b612ad9565b5b7fe4cdf9910b64ce21ac80bc33f09dc8c436c35db3daaa632ef78df23421b6fb258461113f61192a565b60405161114d9291906148e2565b60405180910390a150505050565b60007f0000000000000000000000000000000000000000000000000000000000000000905090565b60007f0000000000000000000000000000000000000000000000000000000000000000905090565b6000806111b6612b89565b90506111d78185856111c885896126a8565b6111d2919061490b565b612b91565b600191505092915050565b600060017fffffffffffffffffffffffffffffffffffffffffffffffffffffffffffffffff61121191906148ae565b9050919050565b6000611222612d5a565b90508061125b576040517f9e146c1b00000000000000000000000000000000000000000000000000000000815260040160405180910390fd5b6001601260006101000a81548160ff021916908360018111156112815761128061493f565b5b021790555061128e610c56565b61129661136d565b505050565b6112a3612ddb565b600e829080600181540180825580915050600190039060005260206000200160009091909190916101000a81548173ffffffffffffffffffffffffffffffffffffffff021916908373ffffffffffffffffffffffffffffffffffffffff160217905550600e819080600181540180825580915050600190039060005260206000200160009091909190916101000a81548173ffffffffffffffffffffffffffffffffffffffff021916908373ffffffffffffffffffffffffffffffffffffffff1602179055505050565b60006113836013543063fda4417b60e01b612980565b90506114596040518060400160405280600681526020017f75726c4254430000000000000000000000000000000000000000000000000000815250600f80546113cb9061481f565b80601f01602080910402602001604051908101604052809291908181526020018280546113f79061481f565b80156114445780601f1061141957610100808354040283529160200191611444565b820191906000526020600020905b81548152906001019060200180831161142757829003601f168201915b5050505050836129b19092919063ffffffff16565b6114d86040518060400160405280600781526020017f70617468425443000000000000000000000000000000000000000000000000008152506040518060400160405280600381526020017f554e440000000000000000000000000000000000000000000000000000000000815250836129b19092919063ffffffff16565b6115ac6040518060400160405280600681526020017f75726c5553440000000000000000000000000000000000000000000000000000815250600f805461151e9061481f565b80601f016020809104026020016040519081016040528092919081815260200182805461154a9061481f565b80156115975780601f1061156c57610100808354040283529160200191611597565b820191906000526020600020905b81548152906001019060200180831161157a57829003601f168201915b5050505050836129b19092919063ffffffff16565b61162b6040518060400160405280600781526020017f70617468555344000000000000000000000000000000000000000000000000008152506040518060400160405280600381526020017f4e41560000000000000000000000000000000000000000000000000000000000815250836129b19092919063ffffffff16565b6116ff6040518060400160405280600681526020017f75726c4555520000000000000000000000000000000000000000000000000000815250600f80546116719061481f565b80601f016020809104026020016040519081016040528092919081815260200182805461169d9061481f565b80156116ea5780601f106116bf576101008083540402835291602001916116ea565b820191906000526020600020905b8154815290600101906020018083116116cd57829003601f168201915b5050505050836129b19092919063ffffffff16565b61177e6040518060400160405280600781526020017f70617468455552000000000000000000000000000000000000000000000000008152506040518060400160405280600381526020017f54494d0000000000000000000000000000000000000000000000000000000000815250836129b19092919063ffffffff16565b61178a816015546129e4565b5050565b6000819050919050565b601680546117a59061481f565b80601f01602080910402602001604051908101604052809291908181526020018280546117d19061481f565b801561181e5780601f106117f35761010080835404028352916020019161181e565b820191906000526020600020905b81548152906001019060200180831161180157829003601f168201915b505050505081565b60006060611832612d5a565b91509250929050565b6000808303611876576040517f485dbddf00000000000000000000000000000000000000000000000000000000815260040160405180910390fd5b61187f826111e2565b8311156118b8576040517f5880412600000000000000000000000000000000000000000000000000000000815260040160405180910390fd5b60006118c38461270c565b90506118d86118d0612b89565b848684612e59565b8091505092915050565b60006040517ff01176f600000000000000000000000000000000000000000000000000000000815260040160405180910390fd5b61191e612ddb565b6119286000612f13565b565b6000600d80549050905090565b6000601060008373ffffffffffffffffffffffffffffffffffffffff1673ffffffffffffffffffffffffffffffffffffffff168152602001908152602001600020549050919050565b6000600660009054906101000a900473ffffffffffffffffffffffffffffffffffffffff16905090565b60007f0000000000000000000000000000000000000000000000000000000000000000905090565b60006119dd82612311565b831115611a16576040517fb6727dd900000000000000000000000000000000000000000000000000000000815260040160405180910390fd5b6000611a2184611dbe565b9050611a36611a2e612b89565b848387612e59565b8091505092915050565b606060048054611a4f9061481f565b80601f0160208091040260200160405190810160405280929190818152602001828054611a7b9061481f565b8015611ac85780601f10611a9d57610100808354040283529160200191611ac8565b820191906000526020600020905b815481529060010190602001808311611aab57829003601f168201915b5050505050905090565b600080611add612b89565b90506000611aeb82866126a8565b905083811015611b30576040517f08c379a0000000000000000000000000000000000000000000000000000000008152600401611b27906149e0565b60405180910390fd5b611b3d8286868403612b91565b60019250505092915050565b600080600d601060008573ffffffffffffffffffffffffffffffffffffffff1673ffffffffffffffffffffffffffffffffffffffff1681526020019081526020016000205481548110611b9f57611b9e614850565b5b906000526020600020015490506000611bb782610b63565b90506000611bc361115b565b600a611bcf9190614b33565b90506000600e600081548110611be857611be7614850565b5b9060005260206000200160009054906101000a900473ffffffffffffffffffffffffffffffffffffffff1673ffffffffffffffffffffffffffffffffffffffff16638f4cef0c876040518263ffffffff1660e01b8152600401611c4b91906141c3565b602060405180830381865afa158015611c68573d6000803e3d6000fd5b505050506040513d601f19601f82011682018060405250810190611c8c91906147c3565b90506000600e600181548110611ca557611ca4614850565b5b9060005260206000200160009054906101000a900473ffffffffffffffffffffffffffffffffffffffff1673ffffffffffffffffffffffffffffffffffffffff16638f4cef0c886040518263ffffffff1660e01b8152600401611d0891906141c3565b602060405180830381865afa158015611d25573d6000803e3d6000fd5b505050506040513d601f19601f82011682018060405250810190611d4991906147c3565b90506000838583611d5a9190614b7e565b8785611d669190614b7e565b611d70919061490b565b611d7a9190614bef565b9050809650505050505050919050565b60006040517ff01176f600000000000000000000000000000000000000000000000000000000815260040160405180910390fd5b6000819050919050565b6000813373ffffffffffffffffffffffffffffffffffffffff168173ffffffffffffffffffffffffffffffffffffffff1614611e30576040517f3178cde900000000000000000000000000000000000000000000000000000000815260040160405180910390fd5b611e38612fd9565b611e4061192a565b611e4985611937565b14611e5857611e5784610ecb565b5b611e618361264c565b851115611e9a576040517f6e95b8bb00000000000000000000000000000000000000000000000000000000815260040160405180910390fd5b6000611ea586610c4c565b9050611ebb611eb2612b89565b86868985613028565b80925050611ec76130f0565b509392505050565b6000600e600081548110611ee657611ee5614850565b5b9060005260206000200160009054906101000a900473ffffffffffffffffffffffffffffffffffffffff1673ffffffffffffffffffffffffffffffffffffffff16638f4cef0c836040518263ffffffff1660e01b8152600401611f4991906141c3565b602060405180830381865afa158015611f66573d6000803e3d6000fd5b505050506040513d601f19601f82011682018060405250810190611f8a91906147c3565b14801561204f57506000600e600081548110611fa957611fa8614850565b5b9060005260206000200160009054906101000a900473ffffffffffffffffffffffffffffffffffffffff1673ffffffffffffffffffffffffffffffffffffffff16638f4cef0c836040518263ffffffff1660e01b815260040161200c91906141c3565b602060405180830381865afa158015612029573d6000803e3d6000fd5b505050506040513d601f19601f8201168201806040525081019061204d91906147c3565b145b156120a05761205c61192a565b601060008373ffffffffffffffffffffffffffffffffffffffff1673ffffffffffffffffffffffffffffffffffffffff168152602001908152602001600020819055505b50565b6000813373ffffffffffffffffffffffffffffffffffffffff168173ffffffffffffffffffffffffffffffffffffffff161461210b576040517f3178cde900000000000000000000000000000000000000000000000000000000815260040160405180910390fd5b612113612fd9565b61211b61192a565b61212485611937565b146121335761213284610ecb565b5b61213c8361268e565b851115612175576040517f1bccfb1600000000000000000000000000000000000000000000000000000000815260040160405180910390fd5b60006121808661178e565b905061219661218d612b89565b8686848a613028565b809250506121a26130f0565b509392505050565b6000601154905090565b81600c600082815260200190815260200160002060009054906101000a900473ffffffffffffffffffffffffffffffffffffffff1673ffffffffffffffffffffffffffffffffffffffff163373ffffffffffffffffffffffffffffffffffffffff1614612256576040517f08c379a000000000000000000000000000000000000000000000000000000000815260040161224d90614c92565b60405180910390fd5b600c600082815260200190815260200160002060006101000a81549073ffffffffffffffffffffffffffffffffffffffff0219169055807f7cc135e0cebb02c3480ae5d74d377283180a2601f8f644edf7987b009316c63a60405160405180910390a2816040516122c79190614cee565b6040518091039020837f1a111c5dcf9a71088bd5e1797fdfaf399fec2afbb24aca247e4e3e9f4b61df9160405160405180910390a3816016908161230b9190614ea7565b50505050565b600060017fffffffffffffffffffffffffffffffffffffffffffffffffffffffffffffffff61234091906148ae565b9050919050565b6000819050919050565b6000600e60018154811061236857612367614850565b5b9060005260206000200160009054906101000a900473ffffffffffffffffffffffffffffffffffffffff1673ffffffffffffffffffffffffffffffffffffffff166370a08231836040518263ffffffff1660e01b81526004016123cb91906141c3565b602060405180830381865afa1580156123e8573d6000803e3d6000fd5b505050506040513d601f19601f8201168201806040525081019061240c91906147c3565b600e60008154811061242157612420614850565b5b9060005260206000200160009054906101000a900473ffffffffffffffffffffffffffffffffffffffff1673ffffffffffffffffffffffffffffffffffffffff166370a08231846040518263ffffffff1660e01b815260040161248491906141c3565b602060405180830381865afa1580156124a1573d6000803e3d6000fd5b505050506040513d601f19601f820116820180604052508101906124c591906147c3565b111561258b57600e6001815481106124e0576124df614850565b5b9060005260206000200160009054906101000a900473ffffffffffffffffffffffffffffffffffffffff1673ffffffffffffffffffffffffffffffffffffffff166370a08231836040518263ffffffff1660e01b815260040161254391906141c3565b602060405180830381865afa158015612560573d6000803e3d6000fd5b505050506040513d601f19601f8201168201806040525081019061258491906147c3565b9050612647565b600e6000815481106125a05761259f614850565b5b9060005260206000200160009054906101000a900473ffffffffffffffffffffffffffffffffffffffff1673ffffffffffffffffffffffffffffffffffffffff166370a08231836040518263ffffffff1660e01b815260040161260391906141c3565b602060405180830381865afa158015612620573d6000803e3d6000fd5b505050506040513d601f19601f8201168201806040525081019061264491906147c3565b90505b919050565b600061265782612351565b9050919050565b612666612ddb565b60008390506126768184846130fa565b50505050565b61268884848484613180565b50505050565b600061269982612351565b9050919050565b600042905090565b60006126b2612ddb565b6126bc83836132d2565b905092915050565b6000600e82815481106126da576126d9614850565b5b9060005260206000200160009054906101000a900473ffffffffffffffffffffffffffffffffffffffff169050919050565b6000819050919050565b61271e612ddb565b600073ffffffffffffffffffffffffffffffffffffffff168173ffffffffffffffffffffffffffffffffffffffff160361278d576040517f08c379a000000000000000000000000000000000000000000000000000000000815260040161278490614feb565b60405180910390fd5b61279681612f13565b50565b83600c600082815260200190815260200160002060009054906101000a900473ffffffffffffffffffffffffffffffffffffffff1673ffffffffffffffffffffffffffffffffffffffff163373ffffffffffffffffffffffffffffffffffffffff161461283b576040517f08c379a000000000000000000000000000000000000000000000000000000000815260040161283290614c92565b60405180910390fd5b600c600082815260200190815260200160002060006101000a81549073ffffffffffffffffffffffffffffffffffffffff0219169055807f7cc135e0cebb02c3480ae5d74d377283180a2601f8f644edf7987b009316c63a60405160405180910390a2847fd8422588c680817fe4971ef8a5fe6a6b5df0d7cd4537eabef7fb17750e4187a78585856040516128d29392919061500b565b60405180910390a2612970848484601680546128ed9061481f565b80601f01602080910402602001604051908101604052809291908181526020018280546129199061481f565b80156129665780601f1061293b57610100808354040283529160200191612966565b820191906000526020600020905b81548152906001019060200180831161294957829003601f168201915b5050505050613180565b5050505050565b60006012905090565b612988613e4f565b612990613e4f565b6129a785858584613359909392919063ffffffff16565b9150509392505050565b6129c882846080015161340990919063ffffffff16565b6129df81846080015161340990919063ffffffff16565b505050565b6000612a13600a60009054906101000a900473ffffffffffffffffffffffffffffffffffffffff16848461342e565b905092915050565b6000612a2682611dbe565b9050600e8481548110612a3c57612a3b614850565b5b9060005260206000200160009054906101000a900473ffffffffffffffffffffffffffffffffffffffff1673ffffffffffffffffffffffffffffffffffffffff166340c10f1984836040518363ffffffff1660e01b8152600401612aa19291906148e2565b600060405180830381600087803b158015612abb57600080fd5b505af1158015612acf573d6000803e3d6000fd5b5050505050505050565b600e8381548110612aed57612aec614850565b5b9060005260206000200160009054906101000a900473ffffffffffffffffffffffffffffffffffffffff1673ffffffffffffffffffffffffffffffffffffffff1663aaeba2e283836040518363ffffffff1660e01b8152600401612b529291906148e2565b600060405180830381600087803b158015612b6c57600080fd5b505af1158015612b80573d6000803e3d6000fd5b50505050505050565b600033905090565b600073ffffffffffffffffffffffffffffffffffffffff168373ffffffffffffffffffffffffffffffffffffffff1603612c00576040517f08c379a0000000000000000000000000000000000000000000000000000000008152600401612bf7906150b4565b60405180910390fd5b600073ffffffffffffffffffffffffffffffffffffffff168273ffffffffffffffffffffffffffffffffffffffff1603612c6f576040517f08c379a0000000000000000000000000000000000000000000000000000000008152600401612c6690615146565b60405180910390fd5b80600160008573ffffffffffffffffffffffffffffffffffffffff1673ffffffffffffffffffffffffffffffffffffffff16815260200190815260200160002060008473ffffffffffffffffffffffffffffffffffffffff1673ffffffffffffffffffffffffffffffffffffffff168152602001908152602001600020819055508173ffffffffffffffffffffffffffffffffffffffff168373ffffffffffffffffffffffffffffffffffffffff167f8c5be1e5ebec7d5bd14f71427d1e84f3dd0314c0f7b2291e5b200ac8c7c3b92583604051612d4d9190613eef565b60405180910390a3505050565b600080601260009054906101000a900460ff166001811115612d7f57612d7e61493f565b5b60006001811115612d9357612d9261493f565b5b14905060007f000000000000000000000000000000000000000000000000000000000000000060115442612dc791906148ae565b119050818015612dd45750805b9250505090565b612de3612b89565b73ffffffffffffffffffffffffffffffffffffffff16612e01611980565b73ffffffffffffffffffffffffffffffffffffffff1614612e57576040517f08c379a0000000000000000000000000000000000000000000000000000000008152600401612e4e906151b2565b60405180910390fd5b565b612e857f00000000000000000000000000000000000000000000000000000000000000008530856134fa565b612e8e83611ecf565b612e9a60008483612a1b565b612ea660018483612a1b565b8273ffffffffffffffffffffffffffffffffffffffff168473ffffffffffffffffffffffffffffffffffffffff167fdcbc1c05240f31ff3ad067ef1ee35ce4997762752e3a095284754544f4c709d78484604051612f059291906151d2565b60405180910390a350505050565b6000600660009054906101000a900473ffffffffffffffffffffffffffffffffffffffff16905081600660006101000a81548173ffffffffffffffffffffffffffffffffffffffff021916908373ffffffffffffffffffffffffffffffffffffffff1602179055508173ffffffffffffffffffffffffffffffffffffffff168173ffffffffffffffffffffffffffffffffffffffff167f8be0079c531659141344cd1fd0a4f28419497f9722a3daafe3b4186f6b6457e060405160405180910390a35050565b60026005540361301e576040517f08c379a000000000000000000000000000000000000000000000000000000000815260040161301590615247565b60405180910390fd5b6002600581905550565b61303460008684612ad9565b61304060018684612ad9565b61306b7f000000000000000000000000000000000000000000000000000000000000000085846130fa565b8273ffffffffffffffffffffffffffffffffffffffff168473ffffffffffffffffffffffffffffffffffffffff168673ffffffffffffffffffffffffffffffffffffffff167ffbde797d201c681b91056529119e0b02407c7bb96a4a2c75c01fc9667232c8db85856040516130e19291906151d2565b60405180910390a45050505050565b6001600581905550565b61317b8363a9059cbb60e01b84846040516024016131199291906148e2565b604051602081830303815290604052907bffffffffffffffffffffffffffffffffffffffffffffffffffffffff19166020820180517bffffffffffffffffffffffffffffffffffffffffffffffffffffffff8381831617835250505050613583565b505050565b6000620186a09050600081866131969190614bef565b9050600082866131a69190614bef565b905060006131be60028461364a90919063ffffffff16565b905060008160026131cd61115b565b600a6131d99190614b33565b856131e49190614b7e565b6131ee9190614bef565b6131f89190614bef565b9050600d8190806001815401808255809150506001900390600052602060002001600090919091909150557f000000000000000000000000000000000000000000000000000000000000000060116000828254613255919061490b565b925050819055506000601260006101000a81548160ff021916908360018111156132825761328161493f565b5b02179055507f11c6bf55864ff83827df712625d7a80e5583eef0264921025e7cd22003a215116132b061192a565b826040516132bf9291906151d2565b60405180910390a1505050505050505050565b6000600160008473ffffffffffffffffffffffffffffffffffffffff1673ffffffffffffffffffffffffffffffffffffffff16815260200190815260200160002060008373ffffffffffffffffffffffffffffffffffffffff1673ffffffffffffffffffffffffffffffffffffffff16815260200190815260200160002054905092915050565b613361613e4f565b6133718560800151610100613687565b508385600001818152505082856020019073ffffffffffffffffffffffffffffffffffffffff16908173ffffffffffffffffffffffffffffffffffffffff16815250508185604001907bffffffffffffffffffffffffffffffffffffffffffffffffffffffff191690817bffffffffffffffffffffffffffffffffffffffffffffffffffffffff191681525050849050949350505050565b61341682600383516136f1565b613429818361387690919063ffffffff16565b505050565b600080600b549050600181613443919061490b565b600b819055506000634042994660e01b60008087600001513089604001518760018c60800151600001516040516024016134849897969594939291906152b1565b604051602081830303815290604052907bffffffffffffffffffffffffffffffffffffffffffffffffffffffff19166020820180517bffffffffffffffffffffffffffffffffffffffffffffffffffffffff838183161783525050505090506134ef86838684613898565b925050509392505050565b61357d846323b872dd60e01b85858560405160240161351b93929190615336565b604051602081830303815290604052907bffffffffffffffffffffffffffffffffffffffffffffffffffffffff19166020820180517bffffffffffffffffffffffffffffffffffffffffffffffffffffffff8381831617835250505050613583565b50505050565b60006135e5826040518060400160405280602081526020017f5361666545524332303a206c6f772d6c6576656c2063616c6c206661696c65648152508573ffffffffffffffffffffffffffffffffffffffff16613a2d9092919063ffffffff16565b905060008151111561364557808060200190518101906136059190615399565b613644576040517f08c379a000000000000000000000000000000000000000000000000000000000815260040161363b90615438565b60405180910390fd5b5b505050565b600080831461367c5760018260018561366391906148ae565b61366d9190614bef565b613677919061490b565b61367f565b60005b905092915050565b61368f613ebc565b600060208361369e9190615458565b146136ca576020826136b09190615458565b60206136bc91906148ae565b826136c7919061490b565b91505b81836020018181525050604051808452600081528281016020016040525082905092915050565b60178167ffffffffffffffff1611613728576137228160058460ff16901b60ff161784613a4590919063ffffffff16565b50613871565b60ff8167ffffffffffffffff161161377e57613757601860058460ff16901b1784613a4590919063ffffffff16565b506137788167ffffffffffffffff16600185613a659092919063ffffffff16565b50613870565b61ffff8167ffffffffffffffff16116137d5576137ae601960058460ff16901b1784613a4590919063ffffffff16565b506137cf8167ffffffffffffffff16600285613a659092919063ffffffff16565b5061386f565b63ffffffff8167ffffffffffffffff161161382e57613807601a60058460ff16901b1784613a4590919063ffffffff16565b506138288167ffffffffffffffff16600485613a659092919063ffffffff16565b5061386e565b61384b601b60058460ff16901b1784613a4590919063ffffffff16565b5061386c8167ffffffffffffffff16600885613a659092919063ffffffff16565b505b5b5b5b505050565b61387e613ebc565b61389083846000015151848551613a87565b905092915050565b600030846040516020016138ad929190615504565b60405160208183030381529060405280519060200120905084600c600083815260200190815260200160002060006101000a81548173ffffffffffffffffffffffffffffffffffffffff021916908373ffffffffffffffffffffffffffffffffffffffff160217905550807fb5e6e01e79f91267dc17b4e6314d5d4d03593d2ceee0fbb452b750bd70ea5af960405160405180910390a2600960009054906101000a900473ffffffffffffffffffffffffffffffffffffffff1673ffffffffffffffffffffffffffffffffffffffff16634000aea08685856040518463ffffffff1660e01b81526004016139a393929190615530565b6020604051808303816000875af11580156139c2573d6000803e3d6000fd5b505050506040513d601f19601f820116820180604052508101906139e69190615399565b613a25576040517f08c379a0000000000000000000000000000000000000000000000000000000008152600401613a1c906155e0565b60405180910390fd5b949350505050565b6060613a3c8484600085613b76565b90509392505050565b613a4d613ebc565b613a5d8384600001515184613c43565b905092915050565b613a6d613ebc565b613a7e848560000151518585613c99565b90509392505050565b613a8f613ebc565b8251821115613a9d57600080fd5b84602001518285613aae919061490b565b1115613ae357613ae2856002613ad388602001518887613ace919061490b565b613d27565b613add9190614b7e565b613d43565b5b600080865180518760208301019350808887011115613b025787860182525b60208701925050505b60208410613b495780518252602082613b24919061490b565b9150602081613b33919061490b565b9050602084613b4291906148ae565b9350613b0b565b60006001856020036101000a03905080198251168184511681811785525050508692505050949350505050565b606082471015613bbb576040517f08c379a0000000000000000000000000000000000000000000000000000000008152600401613bb290615672565b60405180910390fd5b6000808673ffffffffffffffffffffffffffffffffffffffff168587604051613be49190614cee565b60006040518083038185875af1925050503d8060008114613c21576040519150601f19603f3d011682016040523d82523d6000602084013e613c26565b606091505b5091509150613c3787838387613d67565b92505050949350505050565b613c4b613ebc565b83602001518310613c7157613c708460028660200151613c6b9190614b7e565b613d43565b5b83518051602085830101848153818603613c8c576001820183525b5050508390509392505050565b613ca1613ebc565b84602001518483613cb2919061490b565b1115613cda57613cd98560028685613cca919061490b565b613cd49190614b7e565b613d43565b5b6000600183610100613cec9190615692565b613cf691906148ae565b90508551838682010185831982511617815281518588011115613d195784870182525b505085915050949350505050565b600081831115613d3957829050613d3d565b8190505b92915050565b600082600001519050613d568383613687565b50613d618382613876565b50505050565b60608315613dc9576000835103613dc157613d8185613ddc565b613dc0576040517f08c379a0000000000000000000000000000000000000000000000000000000008152600401613db790615729565b60405180910390fd5b5b829050613dd4565b613dd38383613dff565b5b949350505050565b6000808273ffffffffffffffffffffffffffffffffffffffff163b119050919050565b600082511115613e125781518083602001fd5b806040517f08c379a0000000000000000000000000000000000000000000000000000000008152600401613e469190614007565b60405180910390fd5b6040518060a0016040528060008019168152602001600073ffffffffffffffffffffffffffffffffffffffff16815260200160007bffffffffffffffffffffffffffffffffffffffffffffffffffffffff1916815260200160008152602001613eb6613ebc565b81525090565b604051806040016040528060608152602001600081525090565b6000819050919050565b613ee981613ed6565b82525050565b6000602082019050613f046000830184613ee0565b92915050565b6000604051905090565b600080fd5b600080fd5b613f2781613ed6565b8114613f3257600080fd5b50565b600081359050613f4481613f1e565b92915050565b600060208284031215613f6057613f5f613f14565b5b6000613f6e84828501613f35565b91505092915050565b600081519050919050565b600082825260208201905092915050565b60005b83811015613fb1578082015181840152602081019050613f96565b60008484015250505050565b6000601f19601f8301169050919050565b6000613fd982613f77565b613fe38185613f82565b9350613ff3818560208601613f93565b613ffc81613fbd565b840191505092915050565b600060208201905081810360008301526140218184613fce565b905092915050565b600073ffffffffffffffffffffffffffffffffffffffff82169050919050565b600061405482614029565b9050919050565b61406481614049565b811461406f57600080fd5b50565b6000813590506140818161405b565b92915050565b6000806040838503121561409e5761409d613f14565b5b60006140ac85828601614072565b92505060206140bd85828601613f35565b9150509250929050565b60008115159050919050565b6140dc816140c7565b82525050565b60006020820190506140f760008301846140d3565b92915050565b60008060006060848603121561411657614115613f14565b5b600061412486828701614072565b935050602061413586828701614072565b925050604061414686828701613f35565b9150509250925092565b60006020828403121561416657614165613f14565b5b600061417484828501614072565b91505092915050565b600060ff82169050919050565b6141938161417d565b82525050565b60006020820190506141ae600083018461418a565b92915050565b6141bd81614049565b82525050565b60006020820190506141d860008301846141b4565b92915050565b600080fd5b600080fd5b600080fd5b60008083601f840112614203576142026141de565b5b8235905067ffffffffffffffff8111156142205761421f6141e3565b5b60208301915083600182028301111561423c5761423b6141e8565b5b9250929050565b6000806020838503121561425a57614259613f14565b5b600083013567ffffffffffffffff81111561427857614277613f19565b5b614284858286016141ed565b92509250509250929050565b600061429b82614049565b9050919050565b6142ab81614290565b81146142b657600080fd5b50565b6000813590506142c8816142a2565b92915050565b600080604083850312156142e5576142e4613f14565b5b60006142f3858286016142b9565b9250506020614304858286016142b9565b9150509250929050565b600081519050919050565b600082825260208201905092915050565b60006143358261430e565b61433f8185614319565b935061434f818560208601613f93565b61435881613fbd565b840191505092915050565b6000602082019050818103600083015261437d818461432a565b905092915050565b600060408201905061439a60008301856140d3565b81810360208301526143ac818461432a565b90509392505050565b600080604083850312156143cc576143cb613f14565b5b60006143da85828601613f35565b92505060206143eb85828601614072565b9150509250929050565b60008060006060848603121561440e5761440d613f14565b5b600061441c86828701613f35565b935050602061442d86828701614072565b925050604061443e86828701614072565b9150509250925092565b6000819050919050565b61445b81614448565b811461446657600080fd5b50565b60008135905061447881614452565b92915050565b600080fd5b7f4e487b7100000000000000000000000000000000000000000000000000000000600052604160045260246000fd5b6144bb82613fbd565b810181811067ffffffffffffffff821117156144da576144d9614483565b5b80604052505050565b60006144ed613f0a565b90506144f982826144b2565b919050565b600067ffffffffffffffff82111561451957614518614483565b5b61452282613fbd565b9050602081019050919050565b82818337600083830152505050565b600061455161454c846144fe565b6144e3565b90508281526020810184848401111561456d5761456c61447e565b5b61457884828561452f565b509392505050565b600082601f830112614595576145946141de565b5b81356145a584826020860161453e565b91505092915050565b600080604083850312156145c5576145c4613f14565b5b60006145d385828601614469565b925050602083013567ffffffffffffffff8111156145f4576145f3613f19565b5b61460085828601614580565b9150509250929050565b6000806000806080858703121561462457614623613f14565b5b600061463287828801613f35565b945050602061464387828801613f35565b935050604061465487828801613f35565b925050606085013567ffffffffffffffff81111561467557614674613f19565b5b61468187828801614580565b91505092959194509250565b600080604083850312156146a4576146a3613f14565b5b60006146b285828601614072565b92505060206146c385828601614072565b9150509250929050565b6000819050919050565b60006146f26146ed6146e884614029565b6146cd565b614029565b9050919050565b6000614704826146d7565b9050919050565b6000614716826146f9565b9050919050565b6147268161470b565b82525050565b6000602082019050614741600083018461471d565b92915050565b6000806000806080858703121561476157614760613f14565b5b600061476f87828801614469565b945050602061478087828801613f35565b935050604061479187828801613f35565b92505060606147a287828801613f35565b91505092959194509250565b6000815190506147bd81613f1e565b92915050565b6000602082840312156147d9576147d8613f14565b5b60006147e7848285016147ae565b91505092915050565b7f4e487b7100000000000000000000000000000000000000000000000000000000600052602260045260246000fd5b6000600282049050600182168061483757607f821691505b60208210810361484a576148496147f0565b5b50919050565b7f4e487b7100000000000000000000000000000000000000000000000000000000600052603260045260246000fd5b7f4e487b7100000000000000000000000000000000000000000000000000000000600052601160045260246000fd5b60006148b982613ed6565b91506148c483613ed6565b92508282039050818111156148dc576148db61487f565b5b92915050565b60006040820190506148f760008301856141b4565b6149046020830184613ee0565b9392505050565b600061491682613ed6565b915061492183613ed6565b92508282019050808211156149395761493861487f565b5b92915050565b7f4e487b7100000000000000000000000000000000000000000000000000000000600052602160045260246000fd5b7f45524332303a2064656372656173656420616c6c6f77616e63652062656c6f7760008201527f207a65726f000000000000000000000000000000000000000000000000000000602082015250565b60006149ca602583613f82565b91506149d58261496e565b604082019050919050565b600060208201905081810360008301526149f9816149bd565b9050919050565b60008160011c9050919050565b6000808291508390505b6001851115614a5757808604811115614a3357614a3261487f565b5b6001851615614a425780820291505b8081029050614a5085614a00565b9450614a17565b94509492505050565b600082614a705760019050614b2c565b81614a7e5760009050614b2c565b8160018114614a945760028114614a9e57614acd565b6001915050614b2c565b60ff841115614ab057614aaf61487f565b5b8360020a915084821115614ac757614ac661487f565b5b50614b2c565b5060208310610133831016604e8410600b8410161715614b025782820a905083811115614afd57614afc61487f565b5b614b2c565b614b0f8484846001614a0d565b92509050818404811115614b2657614b2561487f565b5b81810290505b9392505050565b6000614b3e82613ed6565b9150614b498361417d565b9250614b767fffffffffffffffffffffffffffffffffffffffffffffffffffffffffffffffff8484614a60565b905092915050565b6000614b8982613ed6565b9150614b9483613ed6565b9250828202614ba281613ed6565b91508282048414831517614bb957614bb861487f565b5b5092915050565b7f4e487b7100000000000000000000000000000000000000000000000000000000600052601260045260246000fd5b6000614bfa82613ed6565b9150614c0583613ed6565b925082614c1557614c14614bc0565b5b828204905092915050565b7f536f75726365206d75737420626520746865206f7261636c65206f662074686560008201527f2072657175657374000000000000000000000000000000000000000000000000602082015250565b6000614c7c602883613f82565b9150614c8782614c20565b604082019050919050565b60006020820190508181036000830152614cab81614c6f565b9050919050565b600081905092915050565b6000614cc88261430e565b614cd28185614cb2565b9350614ce2818560208601613f93565b80840191505092915050565b6000614cfa8284614cbd565b915081905092915050565b60008190508160005260206000209050919050565b60006020601f8301049050919050565b600082821b905092915050565b600060088302614d677fffffffffffffffffffffffffffffffffffffffffffffffffffffffffffffffff82614d2a565b614d718683614d2a565b95508019841693508086168417925050509392505050565b6000614da4614d9f614d9a84613ed6565b6146cd565b613ed6565b9050919050565b6000819050919050565b614dbe83614d89565b614dd2614dca82614dab565b848454614d37565b825550505050565b600090565b614de7614dda565b614df2818484614db5565b505050565b5b81811015614e1657614e0b600082614ddf565b600181019050614df8565b5050565b601f821115614e5b57614e2c81614d05565b614e3584614d1a565b81016020851015614e44578190505b614e58614e5085614d1a565b830182614df7565b50505b505050565b600082821c905092915050565b6000614e7e60001984600802614e60565b1980831691505092915050565b6000614e978383614e6d565b9150826002028217905092915050565b614eb08261430e565b67ffffffffffffffff811115614ec957614ec8614483565b5b614ed3825461481f565b614ede828285614e1a565b600060209050601f831160018114614f115760008415614eff578287015190505b614f098582614e8b565b865550614f71565b601f198416614f1f86614d05565b60005b82811015614f4757848901518255600182019150602085019450602081019050614f22565b86831015614f645784890151614f60601f891682614e6d565b8355505b6001600288020188555050505b505050505050565b7f4f776e61626c653a206e6577206f776e657220697320746865207a65726f206160008201527f6464726573730000000000000000000000000000000000000000000000000000602082015250565b6000614fd5602683613f82565b9150614fe082614f79565b604082019050919050565b6000602082019050818103600083015261500481614fc8565b9050919050565b60006060820190506150206000830186613ee0565b61502d6020830185613ee0565b61503a6040830184613ee0565b949350505050565b7f45524332303a20617070726f76652066726f6d20746865207a65726f2061646460008201527f7265737300000000000000000000000000000000000000000000000000000000602082015250565b600061509e602483613f82565b91506150a982615042565b604082019050919050565b600060208201905081810360008301526150cd81615091565b9050919050565b7f45524332303a20617070726f766520746f20746865207a65726f20616464726560008201527f7373000000000000000000000000000000000000000000000000000000000000602082015250565b6000615130602283613f82565b915061513b826150d4565b604082019050919050565b6000602082019050818103600083015261515f81615123565b9050919050565b7f4f776e61626c653a2063616c6c6572206973206e6f7420746865206f776e6572600082015250565b600061519c602083613f82565b91506151a782615166565b602082019050919050565b600060208201905081810360008301526151cb8161518f565b9050919050565b60006040820190506151e76000830185613ee0565b6151f46020830184613ee0565b9392505050565b7f5265656e7472616e637947756172643a207265656e7472616e742063616c6c00600082015250565b6000615231601f83613f82565b915061523c826151fb565b602082019050919050565b6000602082019050818103600083015261526081615224565b9050919050565b61527081614448565b82525050565b60007fffffffff0000000000000000000000000000000000000000000000000000000082169050919050565b6152ab81615276565b82525050565b6000610100820190506152c7600083018b6141b4565b6152d4602083018a613ee0565b6152e16040830189615267565b6152ee60608301886141b4565b6152fb60808301876152a2565b61530860a0830186613ee0565b61531560c0830185613ee0565b81810360e0830152615327818461432a565b90509998505050505050505050565b600060608201905061534b60008301866141b4565b61535860208301856141b4565b6153656040830184613ee0565b949350505050565b615376816140c7565b811461538157600080fd5b50565b6000815190506153938161536d565b92915050565b6000602082840312156153af576153ae613f14565b5b60006153bd84828501615384565b91505092915050565b7f5361666545524332303a204552433230206f7065726174696f6e20646964206e60008201527f6f74207375636365656400000000000000000000000000000000000000000000602082015250565b6000615422602a83613f82565b915061542d826153c6565b604082019050919050565b6000602082019050818103600083015261545181615415565b9050919050565b600061546382613ed6565b915061546e83613ed6565b92508261547e5761547d614bc0565b5b828206905092915050565b6000615494826146f9565b9050919050565b60008160601b9050919050565b60006154b38261549b565b9050919050565b60006154c5826154a8565b9050919050565b6154dd6154d882615489565b6154ba565b82525050565b6000819050919050565b6154fe6154f982613ed6565b6154e3565b82525050565b600061551082856154cc565b60148201915061552082846154ed565b6020820191508190509392505050565b600060608201905061554560008301866141b4565b6155526020830185613ee0565b8181036040830152615564818461432a565b9050949350505050565b7f756e61626c6520746f207472616e73666572416e6443616c6c20746f206f726160008201527f636c650000000000000000000000000000000000000000000000000000000000602082015250565b60006155ca602383613f82565b91506155d58261556e565b604082019050919050565b600060208201905081810360008301526155f9816155bd565b9050919050565b7f416464726573733a20696e73756666696369656e742062616c616e636520666f60008201527f722063616c6c0000000000000000000000000000000000000000000000000000602082015250565b600061565c602683613f82565b915061566782615600565b604082019050919050565b6000602082019050818103600083015261568b8161564f565b9050919050565b600061569d82613ed6565b91506156a883613ed6565b92506156d57fffffffffffffffffffffffffffffffffffffffffffffffffffffffffffffffff8484614a60565b905092915050565b7f416464726573733a2063616c6c20746f206e6f6e2d636f6e7472616374000000600082015250565b6000615713601d83613f82565b915061571e826156dd565b602082019050919050565b6000602082019050818103600083015261574281615706565b905091905056fea2646970667358221220208d53dd84c66c361884fd71a47d086e4f01b49fe0d96c5bba927664391ca73d64736f6c63430008110033",
  "devdoc": {
    "author": "Okwuosa Chijioke",
    "details": "This implements 2 ERC-20 tokens that will be minted in exactly the same proportion as the underlying ERC-20 token transferred into the Factory contract. The asset will be burned in exactly the same proportion when asked to redeem/withdrawal the underlying asset. The contract will implement periodic rebalancing",
    "kind": "dev",
    "methods": {
      "allowance(address,address)": {
        "details": "See {ERC20-allowance}. We don't revert directly in this function because  it throws unreachable code warnings during compilation unlike ERC 20 approve function "
      },
      "approve(address,uint256)": {
        "details": "See {ERC20-approve}. "
      },
      "asset()": {
        "details": "See {IERC4626-asset}. "
      },
      "balanceOf(address)": {
        "details": "See {ERC20-balanceOf}. "
      },
      "checkUpkeep(bytes)": {
        "details": "This is the function that the Chainlink Keeper nodes call they look for `upkeepNeeded` to return True. the following should be true for this to return true: 1. The time interval has passed between rebase period. 2. Trading is in open state. 3. Implicity, your subscription is funded with LINK. 4. The contract has some deposits"
      },
      "convertToAssets(uint256)": {
        "details": "See {IERC4626-convertToAssets}. "
      },
      "convertToShares(uint256)": {
        "details": "See {IERC4626-convertToShares}. "
      },
      "decimals()": {
        "details": "Decimals are read from the underlying asset in the constructor and cached. If this fails (e.g., the asset has not been created yet), the cached value is set to a default obtained by `super.decimals()` (which depends on inheritance but is most likely 18). Override this function in order to set a guaranteed hardcoded value. See {IERC20Metadata-decimals}."
      },
      "decreaseAllowance(address,uint256)": {
        "details": "Atomically decreases the allowance granted to `spender` by the caller. This is an alternative to {approve} that can be used as a mitigation for problems described in {IERC20-approve}. Emits an {Approval} event indicating the updated allowance. Requirements: - `spender` cannot be the zero address. - `spender` must have allowance for the caller of at least `subtractedValue`."
      },
      "deposit(uint256,address)": {
        "details": "See {IERC4626-deposit}. "
      },
      "fulfillBytes(bytes32,bytes)": {
        "details": "This is called by the oracle. recordChainlinkFulfillment must be used."
      },
      "fulfillMultipleParameters(bytes32,uint256,uint256,uint256)": {
        "details": "This is called by the oracle. recordChainlinkFulfillment must be used."
      },
      "increaseAllowance(address,uint256)": {
        "details": "Atomically increases the allowance granted to `spender` by the caller. This is an alternative to {approve} that can be used as a mitigation for problems described in {IERC20-approve}. Emits an {Approval} event indicating the updated allowance. Requirements: - `spender` cannot be the zero address."
      },
      "maxDeposit(address)": {
        "details": "See {IERC4626-maxDeposit}. "
      },
      "maxMint(address)": {
        "details": "See {IERC4626-maxMint}. "
      },
      "maxRedeem(address)": {
        "details": "See {IERC4626-maxRedeem}. "
      },
      "maxWithdraw(address)": {
        "details": "See {IERC4626-maxWithdraw}. "
      },
      "mint(uint256,address)": {
        "details": "See {IERC4626-mint}. As opposed to {deposit}, minting is allowed even if the vault is in a state where the price of a share is zero. In this case, the shares will be minted without requiring any assets to be deposited."
      },
      "name()": {
        "details": "Returns the name of the token."
      },
      "owner()": {
        "details": "Returns the address of the current owner."
      },
      "performUpkeep(bytes)": {
        "details": "Once `checkUpkeep` is returning `true`, this function is called"
      },
      "previewDeposit(uint256)": {
        "details": "See {IERC4626-previewDeposit}. "
      },
      "previewMint(uint256)": {
        "details": "See {IERC4626-previewMint}. "
      },
      "previewRedeem(uint256)": {
        "details": "See {IERC4626-previewRedeem}. "
      },
      "previewWithdraw(uint256)": {
        "details": "See {IERC4626-previewWithdraw}. "
      },
      "redeem(uint256,address,address)": {
        "details": "See {IERC4626-redeem}. "
      },
      "renounceOwnership()": {
        "details": "Leaves the contract without owner. It will not be possible to call `onlyOwner` functions anymore. Can only be called by the current owner. NOTE: Renouncing ownership will leave the contract without an owner, thereby removing any functionality that is only available to the owner."
      },
      "symbol()": {
        "details": "Returns the symbol of the token, usually a shorter version of the name."
      },
      "totalAssets()": {
        "details": "See {IERC4626-totalAssets}. "
      },
      "totalSupply()": {
        "details": "See {ERC20-totalSupply}. "
      },
      "transfer(address,uint256)": {
        "details": "See {ERC20-transfer}. "
      },
      "transferFrom(address,address,uint256)": {
        "details": "See {ERC20-transferFrom}. "
      },
      "transferOwnership(address)": {
        "details": "Transfers ownership of the contract to a new account (`newOwner`). Can only be called by the current owner."
      },
      "withdraw(uint256,address,address)": {
        "details": "See {IERC4626-withdraw}. "
      }
    },
    "title": "ERC-20 Rebase Tokens",
    "version": 1
  },
  "userdoc": {
    "kind": "user",
    "methods": {
      "fulfillBytes(bytes32,bytes)": {
        "notice": "Fulfillment function for signature bytes"
      },
      "fulfillMultipleParameters(bytes32,uint256,uint256,uint256)": {
        "notice": "Fulfillment function for multiple parameters in a single request"
      },
      "requestBytes()": {
        "notice": "Request signature bytes from the oracle"
      },
      "requestMultipleParameters()": {
        "notice": "Request asset prices and timestamp from the oracle"
      },
      "rescueTokens(address,address,uint256)": {
        "notice": "Allow withdraw of Link tokens / base tokens from the contract"
      }
    },
    "notice": "Still under development",
    "version": 1
  },
  "storageLayout": {
    "storage": [
      {
        "astId": 2782,
        "contract": "contracts/vaults/TokenFactory.sol:TokenFactory",
        "label": "_balances",
        "offset": 0,
        "slot": "0",
        "type": "t_mapping(t_address,t_uint256)"
      },
      {
        "astId": 2788,
        "contract": "contracts/vaults/TokenFactory.sol:TokenFactory",
        "label": "_allowances",
        "offset": 0,
        "slot": "1",
        "type": "t_mapping(t_address,t_mapping(t_address,t_uint256))"
      },
      {
        "astId": 2790,
        "contract": "contracts/vaults/TokenFactory.sol:TokenFactory",
        "label": "_totalSupply",
        "offset": 0,
        "slot": "2",
        "type": "t_uint256"
      },
      {
        "astId": 2792,
        "contract": "contracts/vaults/TokenFactory.sol:TokenFactory",
        "label": "_name",
        "offset": 0,
        "slot": "3",
        "type": "t_string_storage"
      },
      {
        "astId": 2794,
        "contract": "contracts/vaults/TokenFactory.sol:TokenFactory",
        "label": "_symbol",
        "offset": 0,
        "slot": "4",
        "type": "t_string_storage"
      },
      {
        "astId": 2723,
        "contract": "contracts/vaults/TokenFactory.sol:TokenFactory",
        "label": "_status",
        "offset": 0,
        "slot": "5",
        "type": "t_uint256"
      },
      {
        "astId": 2439,
        "contract": "contracts/vaults/TokenFactory.sol:TokenFactory",
        "label": "_owner",
        "offset": 0,
        "slot": "6",
        "type": "t_address"
      },
      {
        "astId": 358,
        "contract": "contracts/vaults/TokenFactory.sol:TokenFactory",
        "label": "s_ens",
        "offset": 0,
        "slot": "7",
        "type": "t_contract(ENSInterface)1214"
      },
      {
        "astId": 360,
        "contract": "contracts/vaults/TokenFactory.sol:TokenFactory",
        "label": "s_ensNode",
        "offset": 0,
        "slot": "8",
        "type": "t_bytes32"
      },
      {
        "astId": 363,
        "contract": "contracts/vaults/TokenFactory.sol:TokenFactory",
        "label": "s_link",
        "offset": 0,
        "slot": "9",
        "type": "t_contract(LinkTokenInterface)1309"
      },
      {
        "astId": 366,
        "contract": "contracts/vaults/TokenFactory.sol:TokenFactory",
        "label": "s_oracle",
        "offset": 0,
        "slot": "10",
        "type": "t_contract(OperatorInterface)1389"
      },
      {
        "astId": 369,
        "contract": "contracts/vaults/TokenFactory.sol:TokenFactory",
        "label": "s_requestCount",
        "offset": 0,
        "slot": "11",
        "type": "t_uint256"
      },
      {
        "astId": 373,
        "contract": "contracts/vaults/TokenFactory.sol:TokenFactory",
        "label": "s_pendingRequests",
        "offset": 0,
        "slot": "12",
        "type": "t_mapping(t_bytes32,t_address)"
      },
      {
        "astId": 7952,
        "contract": "contracts/vaults/TokenFactory.sol:TokenFactory",
        "label": "scallingFactorX",
        "offset": 0,
        "slot": "13",
        "type": "t_array(t_uint256)dyn_storage"
      },
      {
        "astId": 7956,
        "contract": "contracts/vaults/TokenFactory.sol:TokenFactory",
        "label": "devTokenArray",
        "offset": 0,
        "slot": "14",
        "type": "t_array(t_contract(DevToken)7894)dyn_storage"
      },
      {
        "astId": 7958,
        "contract": "contracts/vaults/TokenFactory.sol:TokenFactory",
        "label": "externalApiUrl",
        "offset": 0,
        "slot": "15",
        "type": "t_string_storage"
      },
      {
        "astId": 7962,
        "contract": "contracts/vaults/TokenFactory.sol:TokenFactory",
        "label": "lastRebaseCount",
        "offset": 0,
        "slot": "16",
        "type": "t_mapping(t_address,t_uint256)"
      },
      {
        "astId": 7971,
        "contract": "contracts/vaults/TokenFactory.sol:TokenFactory",
        "label": "lastTimeStamp",
        "offset": 0,
        "slot": "17",
        "type": "t_uint256"
      },
      {
        "astId": 7974,
        "contract": "contracts/vaults/TokenFactory.sol:TokenFactory",
        "label": "tokenFactoryState",
        "offset": 0,
        "slot": "18",
        "type": "t_enum(TokenFactoryState)7939"
      },
      {
        "astId": 7976,
        "contract": "contracts/vaults/TokenFactory.sol:TokenFactory",
        "label": "uintJobId",
        "offset": 0,
        "slot": "19",
        "type": "t_bytes32"
      },
      {
        "astId": 7978,
        "contract": "contracts/vaults/TokenFactory.sol:TokenFactory",
        "label": "bytesJobId",
        "offset": 0,
        "slot": "20",
        "type": "t_bytes32"
      },
      {
        "astId": 7980,
        "contract": "contracts/vaults/TokenFactory.sol:TokenFactory",
        "label": "fee",
        "offset": 0,
        "slot": "21",
        "type": "t_uint256"
      },
      {
        "astId": 7982,
        "contract": "contracts/vaults/TokenFactory.sol:TokenFactory",
        "label": "signature",
        "offset": 0,
        "slot": "22",
        "type": "t_bytes_storage"
      }
    ],
    "types": {
      "t_address": {
        "encoding": "inplace",
        "label": "address",
        "numberOfBytes": "20"
      },
      "t_array(t_contract(DevToken)7894)dyn_storage": {
        "base": "t_contract(DevToken)7894",
        "encoding": "dynamic_array",
        "label": "contract DevToken[]",
        "numberOfBytes": "32"
      },
      "t_array(t_uint256)dyn_storage": {
        "base": "t_uint256",
        "encoding": "dynamic_array",
        "label": "uint256[]",
        "numberOfBytes": "32"
      },
      "t_bytes32": {
        "encoding": "inplace",
        "label": "bytes32",
        "numberOfBytes": "32"
      },
      "t_bytes_storage": {
        "encoding": "bytes",
        "label": "bytes",
        "numberOfBytes": "32"
      },
      "t_contract(DevToken)7894": {
        "encoding": "inplace",
        "label": "contract DevToken",
        "numberOfBytes": "20"
      },
      "t_contract(ENSInterface)1214": {
        "encoding": "inplace",
        "label": "contract ENSInterface",
        "numberOfBytes": "20"
      },
      "t_contract(LinkTokenInterface)1309": {
        "encoding": "inplace",
        "label": "contract LinkTokenInterface",
        "numberOfBytes": "20"
      },
      "t_contract(OperatorInterface)1389": {
        "encoding": "inplace",
        "label": "contract OperatorInterface",
        "numberOfBytes": "20"
      },
      "t_enum(TokenFactoryState)7939": {
        "encoding": "inplace",
        "label": "enum TokenFactory.TokenFactoryState",
        "numberOfBytes": "1"
      },
      "t_mapping(t_address,t_mapping(t_address,t_uint256))": {
        "encoding": "mapping",
        "key": "t_address",
        "label": "mapping(address => mapping(address => uint256))",
        "numberOfBytes": "32",
        "value": "t_mapping(t_address,t_uint256)"
      },
      "t_mapping(t_address,t_uint256)": {
        "encoding": "mapping",
        "key": "t_address",
        "label": "mapping(address => uint256)",
        "numberOfBytes": "32",
        "value": "t_uint256"
      },
      "t_mapping(t_bytes32,t_address)": {
        "encoding": "mapping",
        "key": "t_bytes32",
        "label": "mapping(bytes32 => address)",
        "numberOfBytes": "32",
        "value": "t_address"
      },
      "t_string_storage": {
        "encoding": "bytes",
        "label": "string",
        "numberOfBytes": "32"
      },
      "t_uint256": {
        "encoding": "inplace",
        "label": "uint256",
        "numberOfBytes": "32"
      }
    }
  }
}