{
  "address": "0xdE4C389B459136500f15360e6C5D0696D97D534C",
  "abi": [
    {
      "inputs": [
        {
          "internalType": "contract IERC20",
          "name": "baseTokenAddress",
          "type": "address"
        },
        {
          "internalType": "address",
          "name": "priceFeedAddress",
          "type": "address"
        },
        {
          "internalType": "uint256",
          "name": "rebaseInterval",
          "type": "uint256"
        },
        {
          "internalType": "address",
          "name": "chainlinkTokenAddress",
          "type": "address"
        },
        {
          "internalType": "address",
          "name": "chainlinkOracleAddress",
          "type": "address"
        },
        {
          "internalType": "bytes32",
          "name": "chainlinkJobId",
          "type": "bytes32"
        },
        {
          "internalType": "uint256",
          "name": "linkFee",
          "type": "uint256"
        }
      ],
      "stateMutability": "nonpayable",
      "type": "constructor"
    },
    {
      "inputs": [],
      "name": "OnlySimulatedBackend",
      "type": "error"
    },
    {
      "inputs": [],
      "name": "TokenFactory__DepositMoreThanMax",
      "type": "error"
    },
    {
      "inputs": [],
      "name": "TokenFactory__MethodNotAllowed",
      "type": "error"
    },
    {
      "inputs": [],
      "name": "TokenFactory__MintMoreThanMax",
      "type": "error"
    },
    {
      "inputs": [],
      "name": "TokenFactory__OnlyAssetOwner",
      "type": "error"
    },
    {
      "inputs": [],
      "name": "TokenFactory__RedeemMoreThanMax",
      "type": "error"
    },
    {
      "inputs": [],
      "name": "TokenFactory__UpkeepNotNeeded",
      "type": "error"
    },
    {
      "inputs": [],
      "name": "TokenFactory__WithdrawMoreThanMax",
      "type": "error"
    },
    {
      "inputs": [],
      "name": "TokenFactory__ZeroDeposit",
      "type": "error"
    },
    {
      "anonymous": false,
      "inputs": [
        {
          "indexed": true,
          "internalType": "address",
          "name": "owner",
          "type": "address"
        },
        {
          "indexed": true,
          "internalType": "address",
          "name": "spender",
          "type": "address"
        },
        {
          "indexed": false,
          "internalType": "uint256",
          "name": "value",
          "type": "uint256"
        }
      ],
      "name": "Approval",
      "type": "event"
    },
    {
      "anonymous": false,
      "inputs": [
        {
          "indexed": true,
          "internalType": "bytes32",
          "name": "id",
          "type": "bytes32"
        }
      ],
      "name": "ChainlinkCancelled",
      "type": "event"
    },
    {
      "anonymous": false,
      "inputs": [
        {
          "indexed": true,
          "internalType": "bytes32",
          "name": "id",
          "type": "bytes32"
        }
      ],
      "name": "ChainlinkFulfilled",
      "type": "event"
    },
    {
      "anonymous": false,
      "inputs": [
        {
          "indexed": true,
          "internalType": "bytes32",
          "name": "id",
          "type": "bytes32"
        }
      ],
      "name": "ChainlinkRequested",
      "type": "event"
    },
    {
      "anonymous": false,
      "inputs": [
        {
          "indexed": true,
          "internalType": "address",
          "name": "sender",
          "type": "address"
        },
        {
          "indexed": true,
          "internalType": "address",
          "name": "owner",
          "type": "address"
        },
        {
          "indexed": false,
          "internalType": "uint256",
          "name": "assets",
          "type": "uint256"
        },
        {
          "indexed": false,
          "internalType": "uint256",
          "name": "shares",
          "type": "uint256"
        }
      ],
      "name": "Deposit",
      "type": "event"
    },
    {
      "anonymous": false,
      "inputs": [
        {
          "indexed": true,
          "internalType": "address",
          "name": "previousOwner",
          "type": "address"
        },
        {
          "indexed": true,
          "internalType": "address",
          "name": "newOwner",
          "type": "address"
        }
      ],
      "name": "OwnershipTransferred",
      "type": "event"
    },
    {
      "anonymous": false,
      "inputs": [
        {
          "indexed": false,
          "internalType": "uint256",
          "name": "rebaseCount",
          "type": "uint256"
        },
        {
          "indexed": false,
          "internalType": "uint256",
          "name": "newScallingFactorX",
          "type": "uint256"
        }
      ],
      "name": "Rebase",
      "type": "event"
    },
    {
      "anonymous": false,
      "inputs": [
        {
          "indexed": false,
          "internalType": "address",
          "name": "userAddress",
          "type": "address"
        },
        {
          "indexed": false,
          "internalType": "uint256",
          "name": "rebaseCount",
          "type": "uint256"
        }
      ],
      "name": "RebaseApplied",
      "type": "event"
    },
    {
      "anonymous": false,
      "inputs": [
        {
          "indexed": true,
          "internalType": "bytes32",
          "name": "requestId",
          "type": "bytes32"
        },
        {
          "indexed": false,
          "internalType": "uint256",
          "name": "undResponse",
          "type": "uint256"
        },
        {
          "indexed": false,
          "internalType": "uint256",
          "name": "navResponse",
          "type": "uint256"
        },
        {
          "indexed": false,
          "internalType": "uint256",
          "name": "timResponse",
          "type": "uint256"
        }
      ],
      "name": "RequestMultipleFulfilled",
      "type": "event"
    },
    {
      "anonymous": false,
      "inputs": [
        {
          "indexed": true,
          "internalType": "address",
          "name": "from",
          "type": "address"
        },
        {
          "indexed": true,
          "internalType": "address",
          "name": "to",
          "type": "address"
        },
        {
          "indexed": false,
          "internalType": "uint256",
          "name": "value",
          "type": "uint256"
        }
      ],
      "name": "Transfer",
      "type": "event"
    },
    {
      "anonymous": false,
      "inputs": [
        {
          "indexed": true,
          "internalType": "address",
          "name": "sender",
          "type": "address"
        },
        {
          "indexed": true,
          "internalType": "address",
          "name": "receiver",
          "type": "address"
        },
        {
          "indexed": true,
          "internalType": "address",
          "name": "owner",
          "type": "address"
        },
        {
          "indexed": false,
          "internalType": "uint256",
          "name": "assets",
          "type": "uint256"
        },
        {
          "indexed": false,
          "internalType": "uint256",
          "name": "shares",
          "type": "uint256"
        }
      ],
      "name": "Withdraw",
      "type": "event"
    },
    {
      "inputs": [
        {
          "internalType": "address",
          "name": "",
          "type": "address"
        },
        {
          "internalType": "address",
          "name": "",
          "type": "address"
        }
      ],
      "name": "allowance",
      "outputs": [
        {
          "internalType": "uint256",
          "name": "",
          "type": "uint256"
        }
      ],
      "stateMutability": "view",
      "type": "function"
    },
    {
      "inputs": [
        {
          "internalType": "address",
          "name": "owner_",
          "type": "address"
        }
      ],
      "name": "applyRebase",
      "outputs": [],
      "stateMutability": "nonpayable",
      "type": "function"
    },
    {
      "inputs": [
        {
          "internalType": "address",
          "name": "",
          "type": "address"
        },
        {
          "internalType": "uint256",
          "name": "",
          "type": "uint256"
        }
      ],
      "name": "approve",
      "outputs": [
        {
          "internalType": "bool",
          "name": "",
          "type": "bool"
        }
      ],
      "stateMutability": "nonpayable",
      "type": "function"
    },
    {
      "inputs": [],
      "name": "asset",
      "outputs": [
        {
          "internalType": "address",
          "name": "",
          "type": "address"
        }
      ],
      "stateMutability": "view",
      "type": "function"
    },
    {
      "inputs": [
        {
          "internalType": "address",
          "name": "",
          "type": "address"
        }
      ],
      "name": "balanceOf",
      "outputs": [
        {
          "internalType": "uint256",
          "name": "",
          "type": "uint256"
        }
      ],
      "stateMutability": "view",
      "type": "function"
    },
    {
      "inputs": [
        {
          "internalType": "address",
          "name": "owner_",
          "type": "address"
        }
      ],
      "name": "calculateRollOverValue",
      "outputs": [
        {
          "internalType": "uint256",
          "name": "",
          "type": "uint256"
        }
      ],
      "stateMutability": "view",
      "type": "function"
    },
    {
      "inputs": [
        {
          "internalType": "bytes",
          "name": "",
          "type": "bytes"
        }
      ],
      "name": "checkUpkeep",
      "outputs": [
        {
          "internalType": "bool",
          "name": "upkeepNeeded",
          "type": "bool"
        },
        {
          "internalType": "bytes",
          "name": "performData",
          "type": "bytes"
        }
      ],
      "stateMutability": "view",
      "type": "function"
    },
    {
      "inputs": [
        {
          "internalType": "uint256",
          "name": "shares",
          "type": "uint256"
        }
      ],
      "name": "convertToAssets",
      "outputs": [
        {
          "internalType": "uint256",
          "name": "assets",
          "type": "uint256"
        }
      ],
      "stateMutability": "view",
      "type": "function"
    },
    {
      "inputs": [
        {
          "internalType": "uint256",
          "name": "assets",
          "type": "uint256"
        }
      ],
      "name": "convertToShares",
      "outputs": [
        {
          "internalType": "uint256",
          "name": "shares",
          "type": "uint256"
        }
      ],
      "stateMutability": "view",
      "type": "function"
    },
    {
      "inputs": [],
      "name": "decimals",
      "outputs": [
        {
          "internalType": "uint8",
          "name": "",
          "type": "uint8"
        }
      ],
      "stateMutability": "view",
      "type": "function"
    },
    {
      "inputs": [
        {
          "internalType": "address",
          "name": "spender",
          "type": "address"
        },
        {
          "internalType": "uint256",
          "name": "subtractedValue",
          "type": "uint256"
        }
      ],
      "name": "decreaseAllowance",
      "outputs": [
        {
          "internalType": "bool",
          "name": "",
          "type": "bool"
        }
      ],
      "stateMutability": "nonpayable",
      "type": "function"
    },
    {
      "inputs": [
        {
          "internalType": "uint256",
          "name": "assets",
          "type": "uint256"
        },
        {
          "internalType": "address",
          "name": "receiver",
          "type": "address"
        }
      ],
      "name": "deposit",
      "outputs": [
        {
          "internalType": "uint256",
          "name": "",
          "type": "uint256"
        }
      ],
      "stateMutability": "nonpayable",
      "type": "function"
    },
    {
      "inputs": [
        {
          "internalType": "bytes32",
          "name": "requestId",
          "type": "bytes32"
        },
        {
          "internalType": "uint256",
          "name": "undResponse",
          "type": "uint256"
        },
        {
          "internalType": "uint256",
          "name": "navResponse",
          "type": "uint256"
        },
        {
          "internalType": "uint256",
          "name": "timResponse",
          "type": "uint256"
        }
      ],
      "name": "fulfillMultipleParameters",
      "outputs": [],
      "stateMutability": "nonpayable",
      "type": "function"
    },
    {
      "inputs": [],
      "name": "getCurrentBlockTimeStamp",
      "outputs": [
        {
          "internalType": "uint256",
          "name": "",
          "type": "uint256"
        }
      ],
      "stateMutability": "view",
      "type": "function"
    },
    {
      "inputs": [
        {
          "internalType": "uint256",
          "name": "index",
          "type": "uint256"
        }
      ],
      "name": "getDevTokenAddress",
      "outputs": [
        {
          "internalType": "contract DevToken",
          "name": "",
          "type": "address"
        }
      ],
      "stateMutability": "view",
      "type": "function"
    },
    {
      "inputs": [],
      "name": "getInterval",
      "outputs": [
        {
          "internalType": "uint256",
          "name": "",
          "type": "uint256"
        }
      ],
      "stateMutability": "view",
      "type": "function"
    },
    {
      "inputs": [],
      "name": "getLastTimeStamp",
      "outputs": [
        {
          "internalType": "uint256",
          "name": "",
          "type": "uint256"
        }
      ],
      "stateMutability": "view",
      "type": "function"
    },
    {
      "inputs": [],
      "name": "getPriceFeedAddress",
      "outputs": [
        {
          "internalType": "contract AggregatorV3Interface",
          "name": "",
          "type": "address"
        }
      ],
      "stateMutability": "view",
      "type": "function"
    },
    {
      "inputs": [],
      "name": "getScallingFactorLength",
      "outputs": [
        {
          "internalType": "uint256",
          "name": "",
          "type": "uint256"
        }
      ],
      "stateMutability": "view",
      "type": "function"
    },
    {
      "inputs": [
        {
          "internalType": "address",
          "name": "userAddress",
          "type": "address"
        }
      ],
      "name": "getUserLastRebaseCount",
      "outputs": [
        {
          "internalType": "uint256",
          "name": "",
          "type": "uint256"
        }
      ],
      "stateMutability": "view",
      "type": "function"
    },
    {
      "inputs": [
        {
          "internalType": "address",
          "name": "spender",
          "type": "address"
        },
        {
          "internalType": "uint256",
          "name": "addedValue",
          "type": "uint256"
        }
      ],
      "name": "increaseAllowance",
      "outputs": [
        {
          "internalType": "bool",
          "name": "",
          "type": "bool"
        }
      ],
      "stateMutability": "nonpayable",
      "type": "function"
    },
    {
      "inputs": [
        {
          "internalType": "contract DevToken",
          "name": "token1",
          "type": "address"
        },
        {
          "internalType": "contract DevToken",
          "name": "token2",
          "type": "address"
        }
      ],
      "name": "initialize",
      "outputs": [],
      "stateMutability": "nonpayable",
      "type": "function"
    },
    {
      "inputs": [
        {
          "internalType": "address",
          "name": "owner_",
          "type": "address"
        }
      ],
      "name": "maxAmountToWithdraw",
      "outputs": [
        {
          "internalType": "uint256",
          "name": "",
          "type": "uint256"
        }
      ],
      "stateMutability": "view",
      "type": "function"
    },
    {
      "inputs": [
        {
          "internalType": "address",
          "name": "",
          "type": "address"
        }
      ],
      "name": "maxDeposit",
      "outputs": [
        {
          "internalType": "uint256",
          "name": "",
          "type": "uint256"
        }
      ],
      "stateMutability": "view",
      "type": "function"
    },
    {
      "inputs": [
        {
          "internalType": "address",
          "name": "",
          "type": "address"
        }
      ],
      "name": "maxMint",
      "outputs": [
        {
          "internalType": "uint256",
          "name": "",
          "type": "uint256"
        }
      ],
      "stateMutability": "view",
      "type": "function"
    },
    {
      "inputs": [
        {
          "internalType": "address",
          "name": "owner_",
          "type": "address"
        }
      ],
      "name": "maxRedeem",
      "outputs": [
        {
          "internalType": "uint256",
          "name": "",
          "type": "uint256"
        }
      ],
      "stateMutability": "view",
      "type": "function"
    },
    {
      "inputs": [
        {
          "internalType": "address",
          "name": "owner_",
          "type": "address"
        }
      ],
      "name": "maxWithdraw",
      "outputs": [
        {
          "internalType": "uint256",
          "name": "",
          "type": "uint256"
        }
      ],
      "stateMutability": "view",
      "type": "function"
    },
    {
      "inputs": [
        {
          "internalType": "uint256",
          "name": "shares",
          "type": "uint256"
        },
        {
          "internalType": "address",
          "name": "receiver",
          "type": "address"
        }
      ],
      "name": "mint",
      "outputs": [
        {
          "internalType": "uint256",
          "name": "",
          "type": "uint256"
        }
      ],
      "stateMutability": "nonpayable",
      "type": "function"
    },
    {
      "inputs": [],
      "name": "name",
      "outputs": [
        {
          "internalType": "string",
          "name": "",
          "type": "string"
        }
      ],
      "stateMutability": "view",
      "type": "function"
    },
    {
      "inputs": [],
      "name": "owner",
      "outputs": [
        {
          "internalType": "address",
          "name": "",
          "type": "address"
        }
      ],
      "stateMutability": "view",
      "type": "function"
    },
    {
      "inputs": [
        {
          "internalType": "bytes",
          "name": "",
          "type": "bytes"
        }
      ],
      "name": "performUpkeep",
      "outputs": [],
      "stateMutability": "nonpayable",
      "type": "function"
    },
    {
      "inputs": [
        {
          "internalType": "uint256",
          "name": "assets",
          "type": "uint256"
        }
      ],
      "name": "previewDeposit",
      "outputs": [
        {
          "internalType": "uint256",
          "name": "",
          "type": "uint256"
        }
      ],
      "stateMutability": "view",
      "type": "function"
    },
    {
      "inputs": [
        {
          "internalType": "uint256",
          "name": "shares",
          "type": "uint256"
        }
      ],
      "name": "previewMint",
      "outputs": [
        {
          "internalType": "uint256",
          "name": "",
          "type": "uint256"
        }
      ],
      "stateMutability": "view",
      "type": "function"
    },
    {
      "inputs": [
        {
          "internalType": "uint256",
          "name": "shares",
          "type": "uint256"
        }
      ],
      "name": "previewRedeem",
      "outputs": [
        {
          "internalType": "uint256",
          "name": "",
          "type": "uint256"
        }
      ],
      "stateMutability": "view",
      "type": "function"
    },
    {
      "inputs": [
        {
          "internalType": "uint256",
          "name": "assets",
          "type": "uint256"
        }
      ],
      "name": "previewWithdraw",
      "outputs": [
        {
          "internalType": "uint256",
          "name": "",
          "type": "uint256"
        }
      ],
      "stateMutability": "view",
      "type": "function"
    },
    {
      "inputs": [
        {
          "internalType": "uint256",
          "name": "rebasePrice",
          "type": "uint256"
        },
        {
          "internalType": "uint256",
          "name": "asset1Price",
          "type": "uint256"
        }
      ],
      "name": "rebaseManualTrigger",
      "outputs": [],
      "stateMutability": "nonpayable",
      "type": "function"
    },
    {
      "inputs": [
        {
          "internalType": "uint256",
          "name": "shares",
          "type": "uint256"
        },
        {
          "internalType": "address",
          "name": "receiver",
          "type": "address"
        },
        {
          "internalType": "address",
          "name": "owner_",
          "type": "address"
        }
      ],
      "name": "redeem",
      "outputs": [
        {
          "internalType": "uint256",
          "name": "",
          "type": "uint256"
        }
      ],
      "stateMutability": "nonpayable",
      "type": "function"
    },
    {
      "inputs": [],
      "name": "renounceOwnership",
      "outputs": [],
      "stateMutability": "nonpayable",
      "type": "function"
    },
    {
      "inputs": [],
      "name": "requestMultipleParameters",
      "outputs": [],
      "stateMutability": "nonpayable",
      "type": "function"
    },
    {
      "inputs": [
        {
          "internalType": "address",
          "name": "tokenAddress",
          "type": "address"
        },
        {
          "internalType": "address",
          "name": "to",
          "type": "address"
        },
        {
          "internalType": "uint256",
          "name": "amount",
          "type": "uint256"
        }
      ],
      "name": "rescueTokens",
      "outputs": [],
      "stateMutability": "nonpayable",
      "type": "function"
    },
    {
      "inputs": [
        {
          "internalType": "uint256",
          "name": "scallingFactorX_",
          "type": "uint256"
        }
      ],
      "name": "subUnchecked",
      "outputs": [
        {
          "internalType": "uint256",
          "name": "",
          "type": "uint256"
        }
      ],
      "stateMutability": "view",
      "type": "function"
    },
    {
      "inputs": [],
      "name": "symbol",
      "outputs": [
        {
          "internalType": "string",
          "name": "",
          "type": "string"
        }
      ],
      "stateMutability": "view",
      "type": "function"
    },
    {
      "inputs": [],
      "name": "totalAssets",
      "outputs": [
        {
          "internalType": "uint256",
          "name": "",
          "type": "uint256"
        }
      ],
      "stateMutability": "view",
      "type": "function"
    },
    {
      "inputs": [],
      "name": "totalSupply",
      "outputs": [
        {
          "internalType": "uint256",
          "name": "",
          "type": "uint256"
        }
      ],
      "stateMutability": "pure",
      "type": "function"
    },
    {
      "inputs": [
        {
          "internalType": "address",
          "name": "",
          "type": "address"
        },
        {
          "internalType": "uint256",
          "name": "",
          "type": "uint256"
        }
      ],
      "name": "transfer",
      "outputs": [
        {
          "internalType": "bool",
          "name": "",
          "type": "bool"
        }
      ],
      "stateMutability": "nonpayable",
      "type": "function"
    },
    {
      "inputs": [
        {
          "internalType": "address",
          "name": "",
          "type": "address"
        },
        {
          "internalType": "address",
          "name": "",
          "type": "address"
        },
        {
          "internalType": "uint256",
          "name": "",
          "type": "uint256"
        }
      ],
      "name": "transferFrom",
      "outputs": [
        {
          "internalType": "bool",
          "name": "",
          "type": "bool"
        }
      ],
      "stateMutability": "nonpayable",
      "type": "function"
    },
    {
      "inputs": [
        {
          "internalType": "address",
          "name": "newOwner",
          "type": "address"
        }
      ],
      "name": "transferOwnership",
      "outputs": [],
      "stateMutability": "nonpayable",
      "type": "function"
    },
    {
      "inputs": [
        {
          "internalType": "address",
          "name": "owner_",
          "type": "address"
        }
      ],
      "name": "updateUserLastRebaseCount",
      "outputs": [],
      "stateMutability": "nonpayable",
      "type": "function"
    },
    {
      "inputs": [
        {
          "internalType": "uint256",
          "name": "assets",
          "type": "uint256"
        },
        {
          "internalType": "address",
          "name": "receiver",
          "type": "address"
        },
        {
          "internalType": "address",
          "name": "owner_",
          "type": "address"
        }
      ],
      "name": "withdraw",
      "outputs": [
        {
          "internalType": "uint256",
          "name": "",
          "type": "uint256"
        }
      ],
      "stateMutability": "nonpayable",
      "type": "function"
    }
  ],
  "transactionHash": "0xb8c03f1ce56af40ebea3cd6e1e2d23a7e2b03f0af3525a8eb74b39ccaef803ab",
  "args": [
    "0xc0DB9732e51528a25D2a2A590cdCE7631CB3C509",
    "0xD064af8411c5eC163f593be6dC1C56e2f8AF204C",
    300,
    "0x779877A7B0D9E8603169DdbD7836e478b4624789",
    "0x6090149792dAAeE9D1D568c9f9a6F6B46AA29eFD",
    "0x3533663937353539323063643435316138666534366635303837343638333935",
    10
  ],
  "numDeployments": 7,
  "solcInputHash": "cf75486cfbbf6aebc3c75907c189230f",
  "bytecode": "0x6101006040526001600b553480156200001757600080fd5b50604051620058e6380380620058e683398181016040528101906200003d91906200061e565b6040518060400160405280601181526020017f5269736b50726f746f636f6c5661756c740000000000000000000000000000008152506040518060400160405280600381526020017f52504b00000000000000000000000000000000000000000000000000000000008152508160039081620000ba919062000941565b508060049081620000cc919062000941565b5050506001600581905550620000f7620000eb6200024860201b60201c565b6200025060201b60201c565b8673ffffffffffffffffffffffffffffffffffffffff1660a08173ffffffffffffffffffffffffffffffffffffffff16815250508573ffffffffffffffffffffffffffffffffffffffff1660808173ffffffffffffffffffffffffffffffffffffffff16815250506000806200017560a0516200031660201b60201c565b91509150816200019a57620001946200046860201b6200236f1760201c565b6200019c565b805b60ff1660c08160ff16815250508660e08181525050426010819055506000601160006101000a81548160ff02191690836001811115620001e157620001e062000a28565b5b0217905550620001f7866200047160201b60201c565b6200020885620004b560201b60201c565b8360128190555082670de0b6b3a7640000600162000227919062000a86565b62000233919062000b00565b60138190555050505050505050505062000bfc565b600033905090565b6000600660009054906101000a900473ffffffffffffffffffffffffffffffffffffffff16905081600660006101000a81548173ffffffffffffffffffffffffffffffffffffffff021916908373ffffffffffffffffffffffffffffffffffffffff1602179055508173ffffffffffffffffffffffffffffffffffffffff168173ffffffffffffffffffffffffffffffffffffffff167f8be0079c531659141344cd1fd0a4f28419497f9722a3daafe3b4186f6b6457e060405160405180910390a35050565b6000806000808473ffffffffffffffffffffffffffffffffffffffff1663313ce56760e01b604051602401604051602081830303815290604052907bffffffffffffffffffffffffffffffffffffffffffffffffffffffff19166020820180517bffffffffffffffffffffffffffffffffffffffffffffffffffffffff8381831617835250505050604051620003ad919062000bb1565b600060405180830381855afa9150503d8060008114620003ea576040519150601f19603f3d011682016040523d82523d6000602084013e620003ef565b606091505b50915091508180156200040457506020815110155b801562000429575060ff80168180602001905181019062000426919062000bca565b11155b15620004595760008180602001905181019062000447919062000bca565b90506001819450945050505062000463565b6000809350935050505b915091565b60006012905090565b80600960006101000a81548173ffffffffffffffffffffffffffffffffffffffff021916908373ffffffffffffffffffffffffffffffffffffffff16021790555050565b80600a60006101000a81548173ffffffffffffffffffffffffffffffffffffffff021916908373ffffffffffffffffffffffffffffffffffffffff16021790555050565b600080fd5b600073ffffffffffffffffffffffffffffffffffffffff82169050919050565b60006200052b82620004fe565b9050919050565b60006200053f826200051e565b9050919050565b620005518162000532565b81146200055d57600080fd5b50565b600081519050620005718162000546565b92915050565b62000582816200051e565b81146200058e57600080fd5b50565b600081519050620005a28162000577565b92915050565b6000819050919050565b620005bd81620005a8565b8114620005c957600080fd5b50565b600081519050620005dd81620005b2565b92915050565b6000819050919050565b620005f881620005e3565b81146200060457600080fd5b50565b6000815190506200061881620005ed565b92915050565b600080600080600080600060e0888a03121562000640576200063f620004f9565b5b6000620006508a828b0162000560565b9750506020620006638a828b0162000591565b9650506040620006768a828b01620005cc565b9550506060620006898a828b0162000591565b94505060806200069c8a828b0162000591565b93505060a0620006af8a828b0162000607565b92505060c0620006c28a828b01620005cc565b91505092959891949750929550565b600081519050919050565b7f4e487b7100000000000000000000000000000000000000000000000000000000600052604160045260246000fd5b7f4e487b7100000000000000000000000000000000000000000000000000000000600052602260045260246000fd5b600060028204905060018216806200075357607f821691505b6020821081036200076957620007686200070b565b5b50919050565b60008190508160005260206000209050919050565b60006020601f8301049050919050565b600082821b905092915050565b600060088302620007d37fffffffffffffffffffffffffffffffffffffffffffffffffffffffffffffffff8262000794565b620007df868362000794565b95508019841693508086168417925050509392505050565b6000819050919050565b6000620008226200081c6200081684620005a8565b620007f7565b620005a8565b9050919050565b6000819050919050565b6200083e8362000801565b620008566200084d8262000829565b848454620007a1565b825550505050565b600090565b6200086d6200085e565b6200087a81848462000833565b505050565b5b81811015620008a2576200089660008262000863565b60018101905062000880565b5050565b601f821115620008f157620008bb816200076f565b620008c68462000784565b81016020851015620008d6578190505b620008ee620008e58562000784565b8301826200087f565b50505b505050565b600082821c905092915050565b60006200091660001984600802620008f6565b1980831691505092915050565b600062000931838362000903565b9150826002028217905092915050565b6200094c82620006d1565b67ffffffffffffffff811115620009685762000967620006dc565b5b6200097482546200073a565b62000981828285620008a6565b600060209050601f831160018114620009b95760008415620009a4578287015190505b620009b0858262000923565b86555062000a20565b601f198416620009c9866200076f565b60005b82811015620009f357848901518255600182019150602085019450602081019050620009cc565b8683101562000a13578489015162000a0f601f89168262000903565b8355505b6001600288020188555050505b505050505050565b7f4e487b7100000000000000000000000000000000000000000000000000000000600052602160045260246000fd5b7f4e487b7100000000000000000000000000000000000000000000000000000000600052601160045260246000fd5b600062000a9382620005a8565b915062000aa083620005a8565b925082820262000ab081620005a8565b9150828204841483151762000aca5762000ac962000a57565b5b5092915050565b7f4e487b7100000000000000000000000000000000000000000000000000000000600052601260045260246000fd5b600062000b0d82620005a8565b915062000b1a83620005a8565b92508262000b2d5762000b2c62000ad1565b5b828204905092915050565b600081519050919050565b600081905092915050565b60005b8381101562000b6e57808201518184015260208101905062000b51565b60008484015250505050565b600062000b878262000b38565b62000b93818562000b43565b935062000ba581856020860162000b4e565b80840191505092915050565b600062000bbf828462000b7a565b915081905092915050565b60006020828403121562000be35762000be2620004f9565b5b600062000bf384828501620005cc565b91505092915050565b60805160a05160c05160e051614c9462000c526000396000818161154801526126f701526000610ee5015260008181610a3101528181610f0d015281816128560152612a3d01526000610bc50152614c946000f3fe608060405234801561001057600080fd5b50600436106102bb5760003560e01c80638da5cb5b11610182578063c63d75b6116100e9578063d905777e116100a2578063e0504a2a1161007c578063e0504a2a14610995578063ef8b30f7146109c5578063f2fde38b146109f5578063fda4417b14610a11576102bb565b8063d905777e14610917578063d9af94af14610947578063dd62ed3e14610965576102bb565b8063c63d75b61461081f578063c6e6f5921461084f578063c887e8a01461087f578063ce96cb77146108af578063cea9d26f146108df578063d2d9340f146108fb576102bb565b8063a9059cbb1161013b578063a9059cbb14610725578063b3d7f6b914610755578063b460af9414610785578063b722d6a4146107b5578063ba087652146107d1578063c1c244e814610801576102bb565b80638da5cb5b1461063b57806391ad27b41461065957806394bf804d1461067757806395d89b41146106a7578063a457c2d7146106c5578063a4d96e17146106f5576102bb565b806339509351116102265780636e04ff0d116101df5780636e04ff0d146105525780636e553f651461058357806370a08231146105b3578063715018a6146105e357806378c1a6c4146105ed5780637b69ce2f1461060b576102bb565b80633950935114610480578063402d267d146104b05780634585e33b146104e0578063485cc955146104fc5780634a3afb47146105185780634cdad50614610522576102bb565b80630f0f30b2116102785780630f0f30b2146103bc57806318160ddd146103da57806323b872dd146103f857806326720aa614610428578063313ce5671461044457806338d52e0f14610462576102bb565b806301e1d114146102c05780630318b3a0146102de57806306fdde031461030e57806307a2d13a1461032c578063095ea7b31461035c5780630a28a4771461038c575b600080fd5b6102c8610a2d565b6040516102d59190613801565b60405180910390f35b6102f860048036038101906102f39190613852565b610ace565b6040516103059190613801565b60405180910390f35b610316610ae7565b604051610323919061390f565b60405180910390f35b61034660048036038101906103419190613852565b610b79565b6040516103539190613801565b60405180910390f35b6103766004803603810190610371919061398f565b610b83565b60405161038391906139ea565b60405180910390f35b6103a660048036038101906103a19190613852565b610bb7565b6040516103b39190613801565b60405180910390f35b6103c4610bc1565b6040516103d19190613a64565b60405180910390f35b6103e2610be9565b6040516103ef9190613801565b60405180910390f35b610412600480360381019061040d9190613a7f565b610c1d565b60405161041f91906139ea565b60405180910390f35b610442600480360381019061043d9190613ad2565b610c51565b005b61044c610ee1565b6040516104599190613b1b565b60405180910390f35b61046a610f09565b6040516104779190613b45565b60405180910390f35b61049a6004803603810190610495919061398f565b610f31565b6040516104a791906139ea565b60405180910390f35b6104ca60048036038101906104c59190613ad2565b610f68565b6040516104d79190613801565b60405180910390f35b6104fa60048036038101906104f59190613bc5565b610f9e565b005b61051660048036038101906105119190613c50565b611019565b005b6105206110eb565b005b61053c60048036038101906105379190613852565b6113b6565b6040516105499190613801565b60405180910390f35b61056c60048036038101906105679190613bc5565b6113c0565b60405161057a929190613ce5565b60405180910390f35b61059d60048036038101906105989190613d15565b6113d5565b6040516105aa9190613801565b60405180910390f35b6105cd60048036038101906105c89190613ad2565b61147c565b6040516105da9190613801565b60405180910390f35b6105eb6114b0565b005b6105f56114c4565b6040516106029190613801565b60405180910390f35b61062560048036038101906106209190613ad2565b6114d1565b6040516106329190613801565b60405180910390f35b61064361151a565b6040516106509190613b45565b60405180910390f35b610661611544565b60405161066e9190613801565b60405180910390f35b610691600480360381019061068c9190613d15565b61156c565b60405161069e9190613801565b60405180910390f35b6106af6115da565b6040516106bc919061390f565b60405180910390f35b6106df60048036038101906106da919061398f565b61166c565b6040516106ec91906139ea565b60405180910390f35b61070f600480360381019061070a9190613ad2565b6116e3565b60405161071c9190613801565b60405180910390f35b61073f600480360381019061073a919061398f565b611924565b60405161074c91906139ea565b60405180910390f35b61076f600480360381019061076a9190613852565b611958565b60405161077c9190613801565b60405180910390f35b61079f600480360381019061079a9190613d55565b611962565b6040516107ac9190613801565b60405180910390f35b6107cf60048036038101906107ca9190613ad2565b611a69565b005b6107eb60048036038101906107e69190613d55565b611c3d565b6040516107f89190613801565b60405180910390f35b610809611d44565b6040516108169190613801565b60405180910390f35b61083960048036038101906108349190613ad2565b611d4e565b6040516108469190613801565b60405180910390f35b61086960048036038101906108649190613852565b611d84565b6040516108769190613801565b60405180910390f35b61089960048036038101906108949190613ad2565b611d8e565b6040516108a69190613801565b60405180910390f35b6108c960048036038101906108c49190613ad2565b612089565b6040516108d69190613801565b60405180910390f35b6108f960048036038101906108f49190613a7f565b61209b565b005b61091560048036038101906109109190613da8565b6120b9565b005b610931600480360381019061092c9190613ad2565b6120cf565b60405161093e9190613801565b60405180910390f35b61094f6120e1565b60405161095c9190613801565b60405180910390f35b61097f600480360381019061097a9190613de8565b6120e9565b60405161098c9190613801565b60405180910390f35b6109af60048036038101906109aa9190613852565b61211d565b6040516109bc9190613e49565b60405180910390f35b6109df60048036038101906109da9190613852565b612165565b6040516109ec9190613801565b60405180910390f35b610a0f6004803603810190610a0a9190613ad2565b61216f565b005b610a2b6004803603810190610a269190613e9a565b6121f2565b005b60007f000000000000000000000000000000000000000000000000000000000000000073ffffffffffffffffffffffffffffffffffffffff166370a08231306040518263ffffffff1660e01b8152600401610a889190613b45565b602060405180830381865afa158015610aa5573d6000803e3d6000fd5b505050506040513d601f19601f82011682018060405250810190610ac99190613f16565b905090565b600081610ad9610ee1565b60ff16600a0a039050919050565b606060038054610af690613f72565b80601f0160208091040260200160405190810160405280929190818152602001828054610b2290613f72565b8015610b6f5780601f10610b4457610100808354040283529160200191610b6f565b820191906000526020600020905b815481529060010190602001808311610b5257829003601f168201915b5050505050905090565b6000819050919050565b60006040517ff01176f600000000000000000000000000000000000000000000000000000000815260040160405180910390fd5b6000819050919050565b60007f0000000000000000000000000000000000000000000000000000000000000000905090565b60006040517ff01176f600000000000000000000000000000000000000000000000000000000815260040160405180910390fd5b60006040517ff01176f600000000000000000000000000000000000000000000000000000000815260040160405180910390fd5b6000600e600081548110610c6857610c67613fa3565b5b9060005260206000200160009054906101000a900473ffffffffffffffffffffffffffffffffffffffff1673ffffffffffffffffffffffffffffffffffffffff16638f4cef0c836040518263ffffffff1660e01b8152600401610ccb9190613b45565b602060405180830381865afa158015610ce8573d6000803e3d6000fd5b505050506040513d601f19601f82011682018060405250810190610d0c9190613f16565b90506000600e600181548110610d2557610d24613fa3565b5b9060005260206000200160009054906101000a900473ffffffffffffffffffffffffffffffffffffffff1673ffffffffffffffffffffffffffffffffffffffff16638f4cef0c846040518263ffffffff1660e01b8152600401610d889190613b45565b602060405180830381865afa158015610da5573d6000803e3d6000fd5b505050506040513d601f19601f82011682018060405250810190610dc99190613f16565b90506000610dd6846116e3565b9050610de06114c4565b600f60008673ffffffffffffffffffffffffffffffffffffffff1673ffffffffffffffffffffffffffffffffffffffff1681526020019081526020016000208190555082811115610e4757610e426000858584610e3d9190614001565b612378565b610e5f565b610e5e6000858386610e599190614001565b612436565b5b81811115610e8357610e7e6001858484610e799190614001565b612378565b610e9b565b610e9a6001858385610e959190614001565b612436565b5b7fe4cdf9910b64ce21ac80bc33f09dc8c436c35db3daaa632ef78df23421b6fb2584610ec56114c4565b604051610ed3929190614035565b60405180910390a150505050565b60007f0000000000000000000000000000000000000000000000000000000000000000905090565b60007f0000000000000000000000000000000000000000000000000000000000000000905090565b600080610f3c6124e6565b9050610f5d818585610f4e85896120e9565b610f58919061405e565b6124ee565b600191505092915050565b600060017fffffffffffffffffffffffffffffffffffffffffffffffffffffffffffffffff610f979190614001565b9050919050565b6000610fa86126b7565b905080610fe1576040517f9e146c1b00000000000000000000000000000000000000000000000000000000815260040160405180910390fd5b6001601160006101000a81548160ff0219169083600181111561100757611006614092565b5b02179055506110146110eb565b505050565b611021612738565b600e829080600181540180825580915050600190039060005260206000200160009091909190916101000a81548173ffffffffffffffffffffffffffffffffffffffff021916908373ffffffffffffffffffffffffffffffffffffffff160217905550600e819080600181540180825580915050600190039060005260206000200160009091909190916101000a81548173ffffffffffffffffffffffffffffffffffffffff021916908373ffffffffffffffffffffffffffffffffffffffff1602179055505050565b60006111016012543063fda4417b60e01b6127b6565b90506111656040518060400160405280600681526020017f75726c4254430000000000000000000000000000000000000000000000000000815250604051806060016040528060368152602001614c2960369139836127e79092919063ffffffff16565b6111e46040518060400160405280600781526020017f70617468425443000000000000000000000000000000000000000000000000008152506040518060400160405280600381526020017f554e440000000000000000000000000000000000000000000000000000000000815250836127e79092919063ffffffff16565b6112466040518060400160405280600681526020017f75726c5553440000000000000000000000000000000000000000000000000000815250604051806060016040528060368152602001614c2960369139836127e79092919063ffffffff16565b6112c56040518060400160405280600781526020017f70617468555344000000000000000000000000000000000000000000000000008152506040518060400160405280600381526020017f4e41560000000000000000000000000000000000000000000000000000000000815250836127e79092919063ffffffff16565b6113276040518060400160405280600681526020017f75726c4555520000000000000000000000000000000000000000000000000000815250604051806060016040528060368152602001614c2960369139836127e79092919063ffffffff16565b6113a66040518060400160405280600781526020017f70617468455552000000000000000000000000000000000000000000000000008152506040518060400160405280600381526020017f54494d0000000000000000000000000000000000000000000000000000000000815250836127e79092919063ffffffff16565b6113b28160135461281a565b5050565b6000819050919050565b600060606113cc6126b7565b91509250929050565b6000808303611410576040517f485dbddf00000000000000000000000000000000000000000000000000000000815260040160405180910390fd5b61141982610f68565b831115611452576040517f5880412600000000000000000000000000000000000000000000000000000000815260040160405180910390fd5b600061145d84612165565b905061147261146a6124e6565b848684612851565b8091505092915050565b60006040517ff01176f600000000000000000000000000000000000000000000000000000000815260040160405180910390fd5b6114b8612738565b6114c2600061290b565b565b6000600d80549050905090565b6000600f60008373ffffffffffffffffffffffffffffffffffffffff1673ffffffffffffffffffffffffffffffffffffffff168152602001908152602001600020549050919050565b6000600660009054906101000a900473ffffffffffffffffffffffffffffffffffffffff16905090565b60007f0000000000000000000000000000000000000000000000000000000000000000905090565b600061157782611d4e565b8311156115b0576040517fb6727dd900000000000000000000000000000000000000000000000000000000815260040160405180910390fd5b60006115bb84611958565b90506115d06115c86124e6565b848387612851565b8091505092915050565b6060600480546115e990613f72565b80601f016020809104026020016040519081016040528092919081815260200182805461161590613f72565b80156116625780601f1061163757610100808354040283529160200191611662565b820191906000526020600020905b81548152906001019060200180831161164557829003601f168201915b5050505050905090565b6000806116776124e6565b9050600061168582866120e9565b9050838110156116ca576040517f08c379a00000000000000000000000000000000000000000000000000000000081526004016116c190614133565b60405180910390fd5b6116d782868684036124ee565b60019250505092915050565b600080600d600f60008573ffffffffffffffffffffffffffffffffffffffff1673ffffffffffffffffffffffffffffffffffffffff168152602001908152602001600020548154811061173957611738613fa3565b5b90600052602060002001549050600061175182610ace565b9050600061175d610ee1565b600a6117699190614286565b90506000600e60008154811061178257611781613fa3565b5b9060005260206000200160009054906101000a900473ffffffffffffffffffffffffffffffffffffffff1673ffffffffffffffffffffffffffffffffffffffff16638f4cef0c876040518263ffffffff1660e01b81526004016117e59190613b45565b602060405180830381865afa158015611802573d6000803e3d6000fd5b505050506040513d601f19601f820116820180604052508101906118269190613f16565b90506000600e60018154811061183f5761183e613fa3565b5b9060005260206000200160009054906101000a900473ffffffffffffffffffffffffffffffffffffffff1673ffffffffffffffffffffffffffffffffffffffff16638f4cef0c886040518263ffffffff1660e01b81526004016118a29190613b45565b602060405180830381865afa1580156118bf573d6000803e3d6000fd5b505050506040513d601f19601f820116820180604052508101906118e39190613f16565b905060008385836118f491906142d1565b878561190091906142d1565b61190a919061405e565b6119149190614342565b9050809650505050505050919050565b60006040517ff01176f600000000000000000000000000000000000000000000000000000000815260040160405180910390fd5b6000819050919050565b6000813373ffffffffffffffffffffffffffffffffffffffff168173ffffffffffffffffffffffffffffffffffffffff16146119ca576040517f3178cde900000000000000000000000000000000000000000000000000000000815260040160405180910390fd5b6119d26129d1565b6119da6114c4565b6119e3856114d1565b146119f2576119f184610c51565b5b6119fb83612089565b851115611a34576040517f6e95b8bb00000000000000000000000000000000000000000000000000000000815260040160405180910390fd5b6000611a3f86610bb7565b9050611a55611a4c6124e6565b86868985612a20565b80925050611a61612ae8565b509392505050565b6000600e600081548110611a8057611a7f613fa3565b5b9060005260206000200160009054906101000a900473ffffffffffffffffffffffffffffffffffffffff1673ffffffffffffffffffffffffffffffffffffffff16638f4cef0c836040518263ffffffff1660e01b8152600401611ae39190613b45565b602060405180830381865afa158015611b00573d6000803e3d6000fd5b505050506040513d601f19601f82011682018060405250810190611b249190613f16565b148015611be957506000600e600081548110611b4357611b42613fa3565b5b9060005260206000200160009054906101000a900473ffffffffffffffffffffffffffffffffffffffff1673ffffffffffffffffffffffffffffffffffffffff16638f4cef0c836040518263ffffffff1660e01b8152600401611ba69190613b45565b602060405180830381865afa158015611bc3573d6000803e3d6000fd5b505050506040513d601f19601f82011682018060405250810190611be79190613f16565b145b15611c3a57611bf66114c4565b600f60008373ffffffffffffffffffffffffffffffffffffffff1673ffffffffffffffffffffffffffffffffffffffff168152602001908152602001600020819055505b50565b6000813373ffffffffffffffffffffffffffffffffffffffff168173ffffffffffffffffffffffffffffffffffffffff1614611ca5576040517f3178cde900000000000000000000000000000000000000000000000000000000815260040160405180910390fd5b611cad6129d1565b611cb56114c4565b611cbe856114d1565b14611ccd57611ccc84610c51565b5b611cd6836120cf565b851115611d0f576040517f1bccfb1600000000000000000000000000000000000000000000000000000000815260040160405180910390fd5b6000611d1a866113b6565b9050611d30611d276124e6565b8686848a612a20565b80925050611d3c612ae8565b509392505050565b6000601054905090565b600060017fffffffffffffffffffffffffffffffffffffffffffffffffffffffffffffffff611d7d9190614001565b9050919050565b6000819050919050565b6000600e600181548110611da557611da4613fa3565b5b9060005260206000200160009054906101000a900473ffffffffffffffffffffffffffffffffffffffff1673ffffffffffffffffffffffffffffffffffffffff166370a08231836040518263ffffffff1660e01b8152600401611e089190613b45565b602060405180830381865afa158015611e25573d6000803e3d6000fd5b505050506040513d601f19601f82011682018060405250810190611e499190613f16565b600e600081548110611e5e57611e5d613fa3565b5b9060005260206000200160009054906101000a900473ffffffffffffffffffffffffffffffffffffffff1673ffffffffffffffffffffffffffffffffffffffff166370a08231846040518263ffffffff1660e01b8152600401611ec19190613b45565b602060405180830381865afa158015611ede573d6000803e3d6000fd5b505050506040513d601f19601f82011682018060405250810190611f029190613f16565b1115611fc857600e600181548110611f1d57611f1c613fa3565b5b9060005260206000200160009054906101000a900473ffffffffffffffffffffffffffffffffffffffff1673ffffffffffffffffffffffffffffffffffffffff166370a08231836040518263ffffffff1660e01b8152600401611f809190613b45565b602060405180830381865afa158015611f9d573d6000803e3d6000fd5b505050506040513d601f19601f82011682018060405250810190611fc19190613f16565b9050612084565b600e600081548110611fdd57611fdc613fa3565b5b9060005260206000200160009054906101000a900473ffffffffffffffffffffffffffffffffffffffff1673ffffffffffffffffffffffffffffffffffffffff166370a08231836040518263ffffffff1660e01b81526004016120409190613b45565b602060405180830381865afa15801561205d573d6000803e3d6000fd5b505050506040513d601f19601f820116820180604052508101906120819190613f16565b90505b919050565b600061209482611d8e565b9050919050565b6120a3612738565b60008390506120b3818484612af2565b50505050565b6120c1612738565b6120cb8282612b78565b5050565b60006120da82611d8e565b9050919050565b600042905090565b60006040517ff01176f600000000000000000000000000000000000000000000000000000000815260040160405180910390fd5b6000600e828154811061213357612132613fa3565b5b9060005260206000200160009054906101000a900473ffffffffffffffffffffffffffffffffffffffff169050919050565b6000819050919050565b612177612738565b600073ffffffffffffffffffffffffffffffffffffffff168173ffffffffffffffffffffffffffffffffffffffff16036121e6576040517f08c379a00000000000000000000000000000000000000000000000000000000081526004016121dd906143e5565b60405180910390fd5b6121ef8161290b565b50565b83600c600082815260200190815260200160002060009054906101000a900473ffffffffffffffffffffffffffffffffffffffff1673ffffffffffffffffffffffffffffffffffffffff163373ffffffffffffffffffffffffffffffffffffffff1614612294576040517f08c379a000000000000000000000000000000000000000000000000000000000815260040161228b90614477565b60405180910390fd5b600c600082815260200190815260200160002060006101000a81549073ffffffffffffffffffffffffffffffffffffffff0219169055807f7cc135e0cebb02c3480ae5d74d377283180a2601f8f644edf7987b009316c63a60405160405180910390a2847fd8422588c680817fe4971ef8a5fe6a6b5df0d7cd4537eabef7fb17750e4187a785858560405161232b93929190614497565b60405180910390a26000620186a09050600081866123499190614342565b9050600082866123599190614342565b90506123658282612b78565b5050505050505050565b60006012905090565b600061238382611958565b9050600e848154811061239957612398613fa3565b5b9060005260206000200160009054906101000a900473ffffffffffffffffffffffffffffffffffffffff1673ffffffffffffffffffffffffffffffffffffffff166340c10f1984836040518363ffffffff1660e01b81526004016123fe929190614035565b600060405180830381600087803b15801561241857600080fd5b505af115801561242c573d6000803e3d6000fd5b5050505050505050565b600e838154811061244a57612449613fa3565b5b9060005260206000200160009054906101000a900473ffffffffffffffffffffffffffffffffffffffff1673ffffffffffffffffffffffffffffffffffffffff1663aaeba2e283836040518363ffffffff1660e01b81526004016124af929190614035565b600060405180830381600087803b1580156124c957600080fd5b505af11580156124dd573d6000803e3d6000fd5b50505050505050565b600033905090565b600073ffffffffffffffffffffffffffffffffffffffff168373ffffffffffffffffffffffffffffffffffffffff160361255d576040517f08c379a000000000000000000000000000000000000000000000000000000000815260040161255490614540565b60405180910390fd5b600073ffffffffffffffffffffffffffffffffffffffff168273ffffffffffffffffffffffffffffffffffffffff16036125cc576040517f08c379a00000000000000000000000000000000000000000000000000000000081526004016125c3906145d2565b60405180910390fd5b80600160008573ffffffffffffffffffffffffffffffffffffffff1673ffffffffffffffffffffffffffffffffffffffff16815260200190815260200160002060008473ffffffffffffffffffffffffffffffffffffffff1673ffffffffffffffffffffffffffffffffffffffff168152602001908152602001600020819055508173ffffffffffffffffffffffffffffffffffffffff168373ffffffffffffffffffffffffffffffffffffffff167f8c5be1e5ebec7d5bd14f71427d1e84f3dd0314c0f7b2291e5b200ac8c7c3b925836040516126aa9190613801565b60405180910390a3505050565b600080601160009054906101000a900460ff1660018111156126dc576126db614092565b5b600060018111156126f0576126ef614092565b5b14905060007f0000000000000000000000000000000000000000000000000000000000000000601054426127249190614001565b1190508180156127315750805b9250505090565b6127406124e6565b73ffffffffffffffffffffffffffffffffffffffff1661275e61151a565b73ffffffffffffffffffffffffffffffffffffffff16146127b4576040517f08c379a00000000000000000000000000000000000000000000000000000000081526004016127ab9061463e565b60405180910390fd5b565b6127be613761565b6127c6613761565b6127dd85858584612c6b909392919063ffffffff16565b9150509392505050565b6127fe828460800151612d1b90919063ffffffff16565b612815818460800151612d1b90919063ffffffff16565b505050565b6000612849600a60009054906101000a900473ffffffffffffffffffffffffffffffffffffffff168484612d40565b905092915050565b61287d7f0000000000000000000000000000000000000000000000000000000000000000853085612e0c565b61288683611a69565b61289260008483612378565b61289e60018483612378565b8273ffffffffffffffffffffffffffffffffffffffff168473ffffffffffffffffffffffffffffffffffffffff167fdcbc1c05240f31ff3ad067ef1ee35ce4997762752e3a095284754544f4c709d784846040516128fd92919061465e565b60405180910390a350505050565b6000600660009054906101000a900473ffffffffffffffffffffffffffffffffffffffff16905081600660006101000a81548173ffffffffffffffffffffffffffffffffffffffff021916908373ffffffffffffffffffffffffffffffffffffffff1602179055508173ffffffffffffffffffffffffffffffffffffffff168173ffffffffffffffffffffffffffffffffffffffff167f8be0079c531659141344cd1fd0a4f28419497f9722a3daafe3b4186f6b6457e060405160405180910390a35050565b600260055403612a16576040517f08c379a0000000000000000000000000000000000000000000000000000000008152600401612a0d906146d3565b60405180910390fd5b6002600581905550565b612a2c60008684612436565b612a3860018684612436565b612a637f00000000000000000000000000000000000000000000000000000000000000008584612af2565b8273ffffffffffffffffffffffffffffffffffffffff168473ffffffffffffffffffffffffffffffffffffffff168673ffffffffffffffffffffffffffffffffffffffff167ffbde797d201c681b91056529119e0b02407c7bb96a4a2c75c01fc9667232c8db8585604051612ad992919061465e565b60405180910390a45050505050565b6001600581905550565b612b738363a9059cbb60e01b8484604051602401612b11929190614035565b604051602081830303815290604052907bffffffffffffffffffffffffffffffffffffffffffffffffffffffff19166020820180517bffffffffffffffffffffffffffffffffffffffffffffffffffffffff8381831617835250505050612e95565b505050565b6000612b8e600284612f5c90919063ffffffff16565b90506000816002612b9d610ee1565b600a612ba99190614286565b85612bb491906142d1565b612bbe9190614342565b612bc89190614342565b9050600d819080600181540180825580915050600190039060005260206000200160009091909190915055426010819055506000601160006101000a81548160ff02191690836001811115612c2057612c1f614092565b5b02179055507f11c6bf55864ff83827df712625d7a80e5583eef0264921025e7cd22003a21511612c4e6114c4565b82604051612c5d92919061465e565b60405180910390a150505050565b612c73613761565b612c838560800151610100612f99565b508385600001818152505082856020019073ffffffffffffffffffffffffffffffffffffffff16908173ffffffffffffffffffffffffffffffffffffffff16815250508185604001907bffffffffffffffffffffffffffffffffffffffffffffffffffffffff191690817bffffffffffffffffffffffffffffffffffffffffffffffffffffffff191681525050849050949350505050565b612d288260038351613003565b612d3b818361318890919063ffffffff16565b505050565b600080600b549050600181612d55919061405e565b600b819055506000634042994660e01b60008087600001513089604001518760018c6080015160000151604051602401612d9698979695949392919061473d565b604051602081830303815290604052907bffffffffffffffffffffffffffffffffffffffffffffffffffffffff19166020820180517bffffffffffffffffffffffffffffffffffffffffffffffffffffffff83818316178352505050509050612e01868386846131aa565b925050509392505050565b612e8f846323b872dd60e01b858585604051602401612e2d939291906147c2565b604051602081830303815290604052907bffffffffffffffffffffffffffffffffffffffffffffffffffffffff19166020820180517bffffffffffffffffffffffffffffffffffffffffffffffffffffffff8381831617835250505050612e95565b50505050565b6000612ef7826040518060400160405280602081526020017f5361666545524332303a206c6f772d6c6576656c2063616c6c206661696c65648152508573ffffffffffffffffffffffffffffffffffffffff1661333f9092919063ffffffff16565b9050600081511115612f575780806020019051810190612f179190614825565b612f56576040517f08c379a0000000000000000000000000000000000000000000000000000000008152600401612f4d906148c4565b60405180910390fd5b5b505050565b6000808314612f8e57600182600185612f759190614001565b612f7f9190614342565b612f89919061405e565b612f91565b60005b905092915050565b612fa16137ce565b6000602083612fb091906148e4565b14612fdc57602082612fc291906148e4565b6020612fce9190614001565b82612fd9919061405e565b91505b81836020018181525050604051808452600081528281016020016040525082905092915050565b60178167ffffffffffffffff161161303a576130348160058460ff16901b60ff16178461335790919063ffffffff16565b50613183565b60ff8167ffffffffffffffff161161309057613069601860058460ff16901b178461335790919063ffffffff16565b5061308a8167ffffffffffffffff166001856133779092919063ffffffff16565b50613182565b61ffff8167ffffffffffffffff16116130e7576130c0601960058460ff16901b178461335790919063ffffffff16565b506130e18167ffffffffffffffff166002856133779092919063ffffffff16565b50613181565b63ffffffff8167ffffffffffffffff161161314057613119601a60058460ff16901b178461335790919063ffffffff16565b5061313a8167ffffffffffffffff166004856133779092919063ffffffff16565b50613180565b61315d601b60058460ff16901b178461335790919063ffffffff16565b5061317e8167ffffffffffffffff166008856133779092919063ffffffff16565b505b5b5b5b505050565b6131906137ce565b6131a283846000015151848551613399565b905092915050565b600030846040516020016131bf929190614990565b60405160208183030381529060405280519060200120905084600c600083815260200190815260200160002060006101000a81548173ffffffffffffffffffffffffffffffffffffffff021916908373ffffffffffffffffffffffffffffffffffffffff160217905550807fb5e6e01e79f91267dc17b4e6314d5d4d03593d2ceee0fbb452b750bd70ea5af960405160405180910390a2600960009054906101000a900473ffffffffffffffffffffffffffffffffffffffff1673ffffffffffffffffffffffffffffffffffffffff16634000aea08685856040518463ffffffff1660e01b81526004016132b5939291906149bc565b6020604051808303816000875af11580156132d4573d6000803e3d6000fd5b505050506040513d601f19601f820116820180604052508101906132f89190614825565b613337576040517f08c379a000000000000000000000000000000000000000000000000000000000815260040161332e90614a6c565b60405180910390fd5b949350505050565b606061334e8484600085613488565b90509392505050565b61335f6137ce565b61336f8384600001515184613555565b905092915050565b61337f6137ce565b6133908485600001515185856135ab565b90509392505050565b6133a16137ce565b82518211156133af57600080fd5b846020015182856133c0919061405e565b11156133f5576133f48560026133e5886020015188876133e0919061405e565b613639565b6133ef91906142d1565b613655565b5b6000808651805187602083010193508088870111156134145787860182525b60208701925050505b6020841061345b5780518252602082613436919061405e565b9150602081613445919061405e565b90506020846134549190614001565b935061341d565b60006001856020036101000a03905080198251168184511681811785525050508692505050949350505050565b6060824710156134cd576040517f08c379a00000000000000000000000000000000000000000000000000000000081526004016134c490614afe565b60405180910390fd5b6000808673ffffffffffffffffffffffffffffffffffffffff1685876040516134f69190614b5a565b60006040518083038185875af1925050503d8060008114613533576040519150601f19603f3d011682016040523d82523d6000602084013e613538565b606091505b509150915061354987838387613679565b92505050949350505050565b61355d6137ce565b8360200151831061358357613582846002866020015161357d91906142d1565b613655565b5b8351805160208583010184815381860361359e576001820183525b5050508390509392505050565b6135b36137ce565b846020015184836135c4919061405e565b11156135ec576135eb85600286856135dc919061405e565b6135e691906142d1565b613655565b5b60006001836101006135fe9190614b71565b6136089190614001565b9050855183868201018583198251161781528151858801111561362b5784870182525b505085915050949350505050565b60008183111561364b5782905061364f565b8190505b92915050565b6000826000015190506136688383612f99565b506136738382613188565b50505050565b606083156136db5760008351036136d357613693856136ee565b6136d2576040517f08c379a00000000000000000000000000000000000000000000000000000000081526004016136c990614c08565b60405180910390fd5b5b8290506136e6565b6136e58383613711565b5b949350505050565b6000808273ffffffffffffffffffffffffffffffffffffffff163b119050919050565b6000825111156137245781518083602001fd5b806040517f08c379a0000000000000000000000000000000000000000000000000000000008152600401613758919061390f565b60405180910390fd5b6040518060a0016040528060008019168152602001600073ffffffffffffffffffffffffffffffffffffffff16815260200160007bffffffffffffffffffffffffffffffffffffffffffffffffffffffff19168152602001600081526020016137c86137ce565b81525090565b604051806040016040528060608152602001600081525090565b6000819050919050565b6137fb816137e8565b82525050565b600060208201905061381660008301846137f2565b92915050565b600080fd5b600080fd5b61382f816137e8565b811461383a57600080fd5b50565b60008135905061384c81613826565b92915050565b6000602082840312156138685761386761381c565b5b60006138768482850161383d565b91505092915050565b600081519050919050565b600082825260208201905092915050565b60005b838110156138b957808201518184015260208101905061389e565b60008484015250505050565b6000601f19601f8301169050919050565b60006138e18261387f565b6138eb818561388a565b93506138fb81856020860161389b565b613904816138c5565b840191505092915050565b6000602082019050818103600083015261392981846138d6565b905092915050565b600073ffffffffffffffffffffffffffffffffffffffff82169050919050565b600061395c82613931565b9050919050565b61396c81613951565b811461397757600080fd5b50565b60008135905061398981613963565b92915050565b600080604083850312156139a6576139a561381c565b5b60006139b48582860161397a565b92505060206139c58582860161383d565b9150509250929050565b60008115159050919050565b6139e4816139cf565b82525050565b60006020820190506139ff60008301846139db565b92915050565b6000819050919050565b6000613a2a613a25613a2084613931565b613a05565b613931565b9050919050565b6000613a3c82613a0f565b9050919050565b6000613a4e82613a31565b9050919050565b613a5e81613a43565b82525050565b6000602082019050613a796000830184613a55565b92915050565b600080600060608486031215613a9857613a9761381c565b5b6000613aa68682870161397a565b9350506020613ab78682870161397a565b9250506040613ac88682870161383d565b9150509250925092565b600060208284031215613ae857613ae761381c565b5b6000613af68482850161397a565b91505092915050565b600060ff82169050919050565b613b1581613aff565b82525050565b6000602082019050613b306000830184613b0c565b92915050565b613b3f81613951565b82525050565b6000602082019050613b5a6000830184613b36565b92915050565b600080fd5b600080fd5b600080fd5b60008083601f840112613b8557613b84613b60565b5b8235905067ffffffffffffffff811115613ba257613ba1613b65565b5b602083019150836001820283011115613bbe57613bbd613b6a565b5b9250929050565b60008060208385031215613bdc57613bdb61381c565b5b600083013567ffffffffffffffff811115613bfa57613bf9613821565b5b613c0685828601613b6f565b92509250509250929050565b6000613c1d82613951565b9050919050565b613c2d81613c12565b8114613c3857600080fd5b50565b600081359050613c4a81613c24565b92915050565b60008060408385031215613c6757613c6661381c565b5b6000613c7585828601613c3b565b9250506020613c8685828601613c3b565b9150509250929050565b600081519050919050565b600082825260208201905092915050565b6000613cb782613c90565b613cc18185613c9b565b9350613cd181856020860161389b565b613cda816138c5565b840191505092915050565b6000604082019050613cfa60008301856139db565b8181036020830152613d0c8184613cac565b90509392505050565b60008060408385031215613d2c57613d2b61381c565b5b6000613d3a8582860161383d565b9250506020613d4b8582860161397a565b9150509250929050565b600080600060608486031215613d6e57613d6d61381c565b5b6000613d7c8682870161383d565b9350506020613d8d8682870161397a565b9250506040613d9e8682870161397a565b9150509250925092565b60008060408385031215613dbf57613dbe61381c565b5b6000613dcd8582860161383d565b9250506020613dde8582860161383d565b9150509250929050565b60008060408385031215613dff57613dfe61381c565b5b6000613e0d8582860161397a565b9250506020613e1e8582860161397a565b9150509250929050565b6000613e3382613a31565b9050919050565b613e4381613e28565b82525050565b6000602082019050613e5e6000830184613e3a565b92915050565b6000819050919050565b613e7781613e64565b8114613e8257600080fd5b50565b600081359050613e9481613e6e565b92915050565b60008060008060808587031215613eb457613eb361381c565b5b6000613ec287828801613e85565b9450506020613ed38782880161383d565b9350506040613ee48782880161383d565b9250506060613ef58782880161383d565b91505092959194509250565b600081519050613f1081613826565b92915050565b600060208284031215613f2c57613f2b61381c565b5b6000613f3a84828501613f01565b91505092915050565b7f4e487b7100000000000000000000000000000000000000000000000000000000600052602260045260246000fd5b60006002820490506001821680613f8a57607f821691505b602082108103613f9d57613f9c613f43565b5b50919050565b7f4e487b7100000000000000000000000000000000000000000000000000000000600052603260045260246000fd5b7f4e487b7100000000000000000000000000000000000000000000000000000000600052601160045260246000fd5b600061400c826137e8565b9150614017836137e8565b925082820390508181111561402f5761402e613fd2565b5b92915050565b600060408201905061404a6000830185613b36565b61405760208301846137f2565b9392505050565b6000614069826137e8565b9150614074836137e8565b925082820190508082111561408c5761408b613fd2565b5b92915050565b7f4e487b7100000000000000000000000000000000000000000000000000000000600052602160045260246000fd5b7f45524332303a2064656372656173656420616c6c6f77616e63652062656c6f7760008201527f207a65726f000000000000000000000000000000000000000000000000000000602082015250565b600061411d60258361388a565b9150614128826140c1565b604082019050919050565b6000602082019050818103600083015261414c81614110565b9050919050565b60008160011c9050919050565b6000808291508390505b60018511156141aa5780860481111561418657614185613fd2565b5b60018516156141955780820291505b80810290506141a385614153565b945061416a565b94509492505050565b6000826141c3576001905061427f565b816141d1576000905061427f565b81600181146141e757600281146141f157614220565b600191505061427f565b60ff84111561420357614202613fd2565b5b8360020a91508482111561421a57614219613fd2565b5b5061427f565b5060208310610133831016604e8410600b84101617156142555782820a9050838111156142505761424f613fd2565b5b61427f565b6142628484846001614160565b9250905081840481111561427957614278613fd2565b5b81810290505b9392505050565b6000614291826137e8565b915061429c83613aff565b92506142c97fffffffffffffffffffffffffffffffffffffffffffffffffffffffffffffffff84846141b3565b905092915050565b60006142dc826137e8565b91506142e7836137e8565b92508282026142f5816137e8565b9150828204841483151761430c5761430b613fd2565b5b5092915050565b7f4e487b7100000000000000000000000000000000000000000000000000000000600052601260045260246000fd5b600061434d826137e8565b9150614358836137e8565b92508261436857614367614313565b5b828204905092915050565b7f4f776e61626c653a206e6577206f776e657220697320746865207a65726f206160008201527f6464726573730000000000000000000000000000000000000000000000000000602082015250565b60006143cf60268361388a565b91506143da82614373565b604082019050919050565b600060208201905081810360008301526143fe816143c2565b9050919050565b7f536f75726365206d75737420626520746865206f7261636c65206f662074686560008201527f2072657175657374000000000000000000000000000000000000000000000000602082015250565b600061446160288361388a565b915061446c82614405565b604082019050919050565b6000602082019050818103600083015261449081614454565b9050919050565b60006060820190506144ac60008301866137f2565b6144b960208301856137f2565b6144c660408301846137f2565b949350505050565b7f45524332303a20617070726f76652066726f6d20746865207a65726f2061646460008201527f7265737300000000000000000000000000000000000000000000000000000000602082015250565b600061452a60248361388a565b9150614535826144ce565b604082019050919050565b600060208201905081810360008301526145598161451d565b9050919050565b7f45524332303a20617070726f766520746f20746865207a65726f20616464726560008201527f7373000000000000000000000000000000000000000000000000000000000000602082015250565b60006145bc60228361388a565b91506145c782614560565b604082019050919050565b600060208201905081810360008301526145eb816145af565b9050919050565b7f4f776e61626c653a2063616c6c6572206973206e6f7420746865206f776e6572600082015250565b600061462860208361388a565b9150614633826145f2565b602082019050919050565b600060208201905081810360008301526146578161461b565b9050919050565b600060408201905061467360008301856137f2565b61468060208301846137f2565b9392505050565b7f5265656e7472616e637947756172643a207265656e7472616e742063616c6c00600082015250565b60006146bd601f8361388a565b91506146c882614687565b602082019050919050565b600060208201905081810360008301526146ec816146b0565b9050919050565b6146fc81613e64565b82525050565b60007fffffffff0000000000000000000000000000000000000000000000000000000082169050919050565b61473781614702565b82525050565b600061010082019050614753600083018b613b36565b614760602083018a6137f2565b61476d60408301896146f3565b61477a6060830188613b36565b614787608083018761472e565b61479460a08301866137f2565b6147a160c08301856137f2565b81810360e08301526147b38184613cac565b90509998505050505050505050565b60006060820190506147d76000830186613b36565b6147e46020830185613b36565b6147f160408301846137f2565b949350505050565b614802816139cf565b811461480d57600080fd5b50565b60008151905061481f816147f9565b92915050565b60006020828403121561483b5761483a61381c565b5b600061484984828501614810565b91505092915050565b7f5361666545524332303a204552433230206f7065726174696f6e20646964206e60008201527f6f74207375636365656400000000000000000000000000000000000000000000602082015250565b60006148ae602a8361388a565b91506148b982614852565b604082019050919050565b600060208201905081810360008301526148dd816148a1565b9050919050565b60006148ef826137e8565b91506148fa836137e8565b92508261490a57614909614313565b5b828206905092915050565b600061492082613a31565b9050919050565b60008160601b9050919050565b600061493f82614927565b9050919050565b600061495182614934565b9050919050565b61496961496482614915565b614946565b82525050565b6000819050919050565b61498a614985826137e8565b61496f565b82525050565b600061499c8285614958565b6014820191506149ac8284614979565b6020820191508190509392505050565b60006060820190506149d16000830186613b36565b6149de60208301856137f2565b81810360408301526149f08184613cac565b9050949350505050565b7f756e61626c6520746f207472616e73666572416e6443616c6c20746f206f726160008201527f636c650000000000000000000000000000000000000000000000000000000000602082015250565b6000614a5660238361388a565b9150614a61826149fa565b604082019050919050565b60006020820190508181036000830152614a8581614a49565b9050919050565b7f416464726573733a20696e73756666696369656e742062616c616e636520666f60008201527f722063616c6c0000000000000000000000000000000000000000000000000000602082015250565b6000614ae860268361388a565b9150614af382614a8c565b604082019050919050565b60006020820190508181036000830152614b1781614adb565b9050919050565b600081905092915050565b6000614b3482613c90565b614b3e8185614b1e565b9350614b4e81856020860161389b565b80840191505092915050565b6000614b668284614b29565b915081905092915050565b6000614b7c826137e8565b9150614b87836137e8565b9250614bb47fffffffffffffffffffffffffffffffffffffffffffffffffffffffffffffffff84846141b3565b905092915050565b7f416464726573733a2063616c6c20746f206e6f6e2d636f6e7472616374000000600082015250565b6000614bf2601d8361388a565b9150614bfd82614bbc565b602082019050919050565b60006020820190508181036000830152614c2181614be5565b905091905056fe68747470733a2f2f6a696f6b656f6b77756f73612e6769746875622e696f2f7269736b2d706167652f726573706f6e73652e6a736f6ea26469706673582212208c5145f30d52f3db1cc785652faf20696a415449003d89e12a5b82890bd1967e64736f6c63430008110033",
  "devdoc": {
    "author": "Okwuosa Chijioke",
    "details": "This implements 2 ERC-20 tokens that will be minted in exactly the same proportion as the underlying ERC-20 token transferred into the Factory contract. The asset will be burned in exactly the same proportion when asked to redeem/withdrawal the underlying asset. The contract will implement periodic rebalancing",
    "kind": "dev",
    "methods": {
      "allowance(address,address)": {
        "details": "See {ERC20-allowance}. "
      },
      "approve(address,uint256)": {
        "details": "See {ERC20-approve}. "
      },
      "asset()": {
        "details": "See {IERC4626-asset}. "
      },
      "balanceOf(address)": {
        "details": "See {ERC20-balanceOf}. "
      },
      "checkUpkeep(bytes)": {
        "details": "This is the function that the Chainlink Keeper nodes call they look for `upkeepNeeded` to return True. the following should be true for this to return true: 1. The time interval has passed between rebase period. 2. Trading is in open state. 3. Implicity, your subscription is funded with LINK. 4. The contract has some deposits"
      },
      "convertToAssets(uint256)": {
        "details": "See {IERC4626-convertToAssets}. "
      },
      "convertToShares(uint256)": {
        "details": "See {IERC4626-convertToShares}. "
      },
      "decimals()": {
        "details": "Decimals are read from the underlying asset in the constructor and cached. If this fails (e.g., the asset has not been created yet), the cached value is set to a default obtained by `super.decimals()` (which depends on inheritance but is most likely 18). Override this function in order to set a guaranteed hardcoded value. See {IERC20Metadata-decimals}."
      },
      "decreaseAllowance(address,uint256)": {
        "details": "Atomically decreases the allowance granted to `spender` by the caller. This is an alternative to {approve} that can be used as a mitigation for problems described in {IERC20-approve}. Emits an {Approval} event indicating the updated allowance. Requirements: - `spender` cannot be the zero address. - `spender` must have allowance for the caller of at least `subtractedValue`."
      },
      "deposit(uint256,address)": {
        "details": "See {IERC4626-deposit}. "
      },
      "fulfillMultipleParameters(bytes32,uint256,uint256,uint256)": {
        "details": "This is called by the oracle. recordChainlinkFulfillment must be used."
      },
      "increaseAllowance(address,uint256)": {
        "details": "Atomically increases the allowance granted to `spender` by the caller. This is an alternative to {approve} that can be used as a mitigation for problems described in {IERC20-approve}. Emits an {Approval} event indicating the updated allowance. Requirements: - `spender` cannot be the zero address."
      },
      "maxDeposit(address)": {
        "details": "See {IERC4626-maxDeposit}. "
      },
      "maxMint(address)": {
        "details": "See {IERC4626-maxMint}. "
      },
      "maxRedeem(address)": {
        "details": "See {IERC4626-maxRedeem}. "
      },
      "maxWithdraw(address)": {
        "details": "See {IERC4626-maxWithdraw}. "
      },
      "mint(uint256,address)": {
        "details": "See {IERC4626-mint}. As opposed to {deposit}, minting is allowed even if the vault is in a state where the price of a share is zero. In this case, the shares will be minted without requiring any assets to be deposited."
      },
      "name()": {
        "details": "Returns the name of the token."
      },
      "owner()": {
        "details": "Returns the address of the current owner."
      },
      "performUpkeep(bytes)": {
        "details": "Once `checkUpkeep` is returning `true`, this function is called"
      },
      "previewDeposit(uint256)": {
        "details": "See {IERC4626-previewDeposit}. "
      },
      "previewMint(uint256)": {
        "details": "See {IERC4626-previewMint}. "
      },
      "previewRedeem(uint256)": {
        "details": "See {IERC4626-previewRedeem}. "
      },
      "previewWithdraw(uint256)": {
        "details": "See {IERC4626-previewWithdraw}. "
      },
      "redeem(uint256,address,address)": {
        "details": "See {IERC4626-redeem}. "
      },
      "renounceOwnership()": {
        "details": "Leaves the contract without owner. It will not be possible to call `onlyOwner` functions anymore. Can only be called by the current owner. NOTE: Renouncing ownership will leave the contract without an owner, thereby removing any functionality that is only available to the owner."
      },
      "symbol()": {
        "details": "Returns the symbol of the token, usually a shorter version of the name."
      },
      "totalAssets()": {
        "details": "See {IERC4626-totalAssets}. "
      },
      "totalSupply()": {
        "details": "See {ERC20-totalSupply}. "
      },
      "transfer(address,uint256)": {
        "details": "See {ERC20-transfer}. "
      },
      "transferFrom(address,address,uint256)": {
        "details": "See {ERC20-transferFrom}. "
      },
      "transferOwnership(address)": {
        "details": "Transfers ownership of the contract to a new account (`newOwner`). Can only be called by the current owner."
      },
      "withdraw(uint256,address,address)": {
        "details": "See {IERC4626-withdraw}. "
      }
    },
    "title": "ERC-20 Rebase Tokens",
    "version": 1
  },
  "userdoc": {
    "kind": "user",
    "methods": {
      "fulfillMultipleParameters(bytes32,uint256,uint256,uint256)": {
        "notice": "Fulfillment function for multiple parameters in a single request"
      },
      "rescueTokens(address,address,uint256)": {
        "notice": "Allow withdraw of Link tokens / base tokens from the contract"
      }
    },
    "notice": "Still under development",
    "version": 1
  },
  "storageLayout": {
    "storage": [
      {
        "astId": 2828,
        "contract": "contracts/vaults/TokenFactory.sol:TokenFactory",
        "label": "_balances",
        "offset": 0,
        "slot": "0",
        "type": "t_mapping(t_address,t_uint256)"
      },
      {
        "astId": 2834,
        "contract": "contracts/vaults/TokenFactory.sol:TokenFactory",
        "label": "_allowances",
        "offset": 0,
        "slot": "1",
        "type": "t_mapping(t_address,t_mapping(t_address,t_uint256))"
      },
      {
        "astId": 2836,
        "contract": "contracts/vaults/TokenFactory.sol:TokenFactory",
        "label": "_totalSupply",
        "offset": 0,
        "slot": "2",
        "type": "t_uint256"
      },
      {
        "astId": 2838,
        "contract": "contracts/vaults/TokenFactory.sol:TokenFactory",
        "label": "_name",
        "offset": 0,
        "slot": "3",
        "type": "t_string_storage"
      },
      {
        "astId": 2840,
        "contract": "contracts/vaults/TokenFactory.sol:TokenFactory",
        "label": "_symbol",
        "offset": 0,
        "slot": "4",
        "type": "t_string_storage"
      },
      {
        "astId": 2769,
        "contract": "contracts/vaults/TokenFactory.sol:TokenFactory",
        "label": "_status",
        "offset": 0,
        "slot": "5",
        "type": "t_uint256"
      },
      {
        "astId": 2485,
        "contract": "contracts/vaults/TokenFactory.sol:TokenFactory",
        "label": "_owner",
        "offset": 0,
        "slot": "6",
        "type": "t_address"
      },
      {
        "astId": 358,
        "contract": "contracts/vaults/TokenFactory.sol:TokenFactory",
        "label": "s_ens",
        "offset": 0,
        "slot": "7",
        "type": "t_contract(ENSInterface)1260"
      },
      {
        "astId": 360,
        "contract": "contracts/vaults/TokenFactory.sol:TokenFactory",
        "label": "s_ensNode",
        "offset": 0,
        "slot": "8",
        "type": "t_bytes32"
      },
      {
        "astId": 363,
        "contract": "contracts/vaults/TokenFactory.sol:TokenFactory",
        "label": "s_link",
        "offset": 0,
        "slot": "9",
        "type": "t_contract(LinkTokenInterface)1355"
      },
      {
        "astId": 366,
        "contract": "contracts/vaults/TokenFactory.sol:TokenFactory",
        "label": "s_oracle",
        "offset": 0,
        "slot": "10",
        "type": "t_contract(OperatorInterface)1435"
      },
      {
        "astId": 369,
        "contract": "contracts/vaults/TokenFactory.sol:TokenFactory",
        "label": "s_requestCount",
        "offset": 0,
        "slot": "11",
        "type": "t_uint256"
      },
      {
        "astId": 373,
        "contract": "contracts/vaults/TokenFactory.sol:TokenFactory",
        "label": "s_pendingRequests",
        "offset": 0,
        "slot": "12",
        "type": "t_mapping(t_bytes32,t_address)"
      },
      {
        "astId": 8027,
        "contract": "contracts/vaults/TokenFactory.sol:TokenFactory",
        "label": "scallingFactorX",
        "offset": 0,
        "slot": "13",
        "type": "t_array(t_uint256)dyn_storage"
      },
      {
        "astId": 8031,
        "contract": "contracts/vaults/TokenFactory.sol:TokenFactory",
        "label": "devTokenArray",
        "offset": 0,
        "slot": "14",
        "type": "t_array(t_contract(DevToken)7964)dyn_storage"
      },
      {
        "astId": 8038,
        "contract": "contracts/vaults/TokenFactory.sol:TokenFactory",
        "label": "lastRebaseCount",
        "offset": 0,
        "slot": "15",
        "type": "t_mapping(t_address,t_uint256)"
      },
      {
        "astId": 8047,
        "contract": "contracts/vaults/TokenFactory.sol:TokenFactory",
        "label": "lastTimeStamp",
        "offset": 0,
        "slot": "16",
        "type": "t_uint256"
      },
      {
        "astId": 8050,
        "contract": "contracts/vaults/TokenFactory.sol:TokenFactory",
        "label": "tokenFactoryState",
        "offset": 0,
        "slot": "17",
        "type": "t_enum(TokenFactoryState)8010"
      },
      {
        "astId": 8052,
        "contract": "contracts/vaults/TokenFactory.sol:TokenFactory",
        "label": "jobId",
        "offset": 0,
        "slot": "18",
        "type": "t_bytes32"
      },
      {
        "astId": 8054,
        "contract": "contracts/vaults/TokenFactory.sol:TokenFactory",
        "label": "fee",
        "offset": 0,
        "slot": "19",
        "type": "t_uint256"
      }
    ],
    "types": {
      "t_address": {
        "encoding": "inplace",
        "label": "address",
        "numberOfBytes": "20"
      },
      "t_array(t_contract(DevToken)7964)dyn_storage": {
        "base": "t_contract(DevToken)7964",
        "encoding": "dynamic_array",
        "label": "contract DevToken[]",
        "numberOfBytes": "32"
      },
      "t_array(t_uint256)dyn_storage": {
        "base": "t_uint256",
        "encoding": "dynamic_array",
        "label": "uint256[]",
        "numberOfBytes": "32"
      },
      "t_bytes32": {
        "encoding": "inplace",
        "label": "bytes32",
        "numberOfBytes": "32"
      },
      "t_contract(DevToken)7964": {
        "encoding": "inplace",
        "label": "contract DevToken",
        "numberOfBytes": "20"
      },
      "t_contract(ENSInterface)1260": {
        "encoding": "inplace",
        "label": "contract ENSInterface",
        "numberOfBytes": "20"
      },
      "t_contract(LinkTokenInterface)1355": {
        "encoding": "inplace",
        "label": "contract LinkTokenInterface",
        "numberOfBytes": "20"
      },
      "t_contract(OperatorInterface)1435": {
        "encoding": "inplace",
        "label": "contract OperatorInterface",
        "numberOfBytes": "20"
      },
      "t_enum(TokenFactoryState)8010": {
        "encoding": "inplace",
        "label": "enum TokenFactory.TokenFactoryState",
        "numberOfBytes": "1"
      },
      "t_mapping(t_address,t_mapping(t_address,t_uint256))": {
        "encoding": "mapping",
        "key": "t_address",
        "label": "mapping(address => mapping(address => uint256))",
        "numberOfBytes": "32",
        "value": "t_mapping(t_address,t_uint256)"
      },
      "t_mapping(t_address,t_uint256)": {
        "encoding": "mapping",
        "key": "t_address",
        "label": "mapping(address => uint256)",
        "numberOfBytes": "32",
        "value": "t_uint256"
      },
      "t_mapping(t_bytes32,t_address)": {
        "encoding": "mapping",
        "key": "t_bytes32",
        "label": "mapping(bytes32 => address)",
        "numberOfBytes": "32",
        "value": "t_address"
      },
      "t_string_storage": {
        "encoding": "bytes",
        "label": "string",
        "numberOfBytes": "32"
      },
      "t_uint256": {
        "encoding": "inplace",
        "label": "uint256",
        "numberOfBytes": "32"
      }
    }
  }
}