{
  "abi": [
    {
      "inputs": [
        {
          "internalType": "string",
          "name": "tokenName",
          "type": "string"
        },
        {
          "internalType": "string",
          "name": "tokenSymbol",
          "type": "string"
        },
        {
          "internalType": "address",
          "name": "factoryAddress",
          "type": "address"
        },
        {
          "internalType": "address[]",
          "name": "defaultOperators",
          "type": "address[]"
        }
      ],
      "stateMutability": "nonpayable",
      "type": "constructor"
    },
    {
      "inputs": [],
      "name": "DevToken__MethodNotAllowed",
      "type": "error"
    },
    {
      "inputs": [],
      "name": "DevToken__NotTokenFactory",
      "type": "error"
    },
    {
      "anonymous": false,
      "inputs": [
        {
          "indexed": true,
          "internalType": "address",
          "name": "owner",
          "type": "address"
        },
        {
          "indexed": true,
          "internalType": "address",
          "name": "spender",
          "type": "address"
        },
        {
          "indexed": false,
          "internalType": "uint256",
          "name": "value",
          "type": "uint256"
        }
      ],
      "name": "Approval",
      "type": "event"
    },
    {
      "anonymous": false,
      "inputs": [
        {
          "indexed": true,
          "internalType": "address",
          "name": "operator",
          "type": "address"
        },
        {
          "indexed": true,
          "internalType": "address",
          "name": "tokenHolder",
          "type": "address"
        }
      ],
      "name": "AuthorizedOperator",
      "type": "event"
    },
    {
      "anonymous": false,
      "inputs": [
        {
          "indexed": true,
          "internalType": "address",
          "name": "operator",
          "type": "address"
        },
        {
          "indexed": true,
          "internalType": "address",
          "name": "from",
          "type": "address"
        },
        {
          "indexed": false,
          "internalType": "uint256",
          "name": "amount",
          "type": "uint256"
        },
        {
          "indexed": false,
          "internalType": "bytes",
          "name": "data",
          "type": "bytes"
        },
        {
          "indexed": false,
          "internalType": "bytes",
          "name": "operatorData",
          "type": "bytes"
        }
      ],
      "name": "Burned",
      "type": "event"
    },
    {
      "anonymous": false,
      "inputs": [
        {
          "indexed": true,
          "internalType": "address",
          "name": "operator",
          "type": "address"
        },
        {
          "indexed": true,
          "internalType": "address",
          "name": "to",
          "type": "address"
        },
        {
          "indexed": false,
          "internalType": "uint256",
          "name": "amount",
          "type": "uint256"
        },
        {
          "indexed": false,
          "internalType": "bytes",
          "name": "data",
          "type": "bytes"
        },
        {
          "indexed": false,
          "internalType": "bytes",
          "name": "operatorData",
          "type": "bytes"
        }
      ],
      "name": "Minted",
      "type": "event"
    },
    {
      "anonymous": false,
      "inputs": [
        {
          "indexed": true,
          "internalType": "address",
          "name": "operator",
          "type": "address"
        },
        {
          "indexed": true,
          "internalType": "address",
          "name": "tokenHolder",
          "type": "address"
        }
      ],
      "name": "RevokedOperator",
      "type": "event"
    },
    {
      "anonymous": false,
      "inputs": [
        {
          "indexed": true,
          "internalType": "address",
          "name": "operator",
          "type": "address"
        },
        {
          "indexed": true,
          "internalType": "address",
          "name": "from",
          "type": "address"
        },
        {
          "indexed": true,
          "internalType": "address",
          "name": "to",
          "type": "address"
        },
        {
          "indexed": false,
          "internalType": "uint256",
          "name": "amount",
          "type": "uint256"
        },
        {
          "indexed": false,
          "internalType": "bytes",
          "name": "data",
          "type": "bytes"
        },
        {
          "indexed": false,
          "internalType": "bytes",
          "name": "operatorData",
          "type": "bytes"
        }
      ],
      "name": "Sent",
      "type": "event"
    },
    {
      "anonymous": false,
      "inputs": [
        {
          "indexed": true,
          "internalType": "address",
          "name": "from",
          "type": "address"
        },
        {
          "indexed": true,
          "internalType": "address",
          "name": "to",
          "type": "address"
        },
        {
          "indexed": false,
          "internalType": "uint256",
          "name": "value",
          "type": "uint256"
        }
      ],
      "name": "Transfer",
      "type": "event"
    },
    {
      "inputs": [],
      "name": "DOMAIN_SEPARATOR",
      "outputs": [
        {
          "internalType": "bytes32",
          "name": "",
          "type": "bytes32"
        }
      ],
      "stateMutability": "view",
      "type": "function"
    },
    {
      "inputs": [],
      "name": "_PERMIT_TYPEHASH",
      "outputs": [
        {
          "internalType": "bytes32",
          "name": "",
          "type": "bytes32"
        }
      ],
      "stateMutability": "view",
      "type": "function"
    },
    {
      "inputs": [
        {
          "internalType": "address",
          "name": "holder",
          "type": "address"
        },
        {
          "internalType": "address",
          "name": "spender",
          "type": "address"
        }
      ],
      "name": "allowance",
      "outputs": [
        {
          "internalType": "uint256",
          "name": "",
          "type": "uint256"
        }
      ],
      "stateMutability": "view",
      "type": "function"
    },
    {
      "inputs": [
        {
          "internalType": "address",
          "name": "spender",
          "type": "address"
        },
        {
          "internalType": "uint256",
          "name": "value",
          "type": "uint256"
        }
      ],
      "name": "approve",
      "outputs": [
        {
          "internalType": "bool",
          "name": "",
          "type": "bool"
        }
      ],
      "stateMutability": "nonpayable",
      "type": "function"
    },
    {
      "inputs": [
        {
          "internalType": "address",
          "name": "operator",
          "type": "address"
        }
      ],
      "name": "authorizeOperator",
      "outputs": [],
      "stateMutability": "nonpayable",
      "type": "function"
    },
    {
      "inputs": [
        {
          "internalType": "address",
          "name": "account",
          "type": "address"
        }
      ],
      "name": "balanceOf",
      "outputs": [
        {
          "internalType": "uint256",
          "name": "",
          "type": "uint256"
        }
      ],
      "stateMutability": "view",
      "type": "function"
    },
    {
      "inputs": [
        {
          "internalType": "uint256",
          "name": "",
          "type": "uint256"
        },
        {
          "internalType": "bytes",
          "name": "",
          "type": "bytes"
        }
      ],
      "name": "burn",
      "outputs": [],
      "stateMutability": "pure",
      "type": "function"
    },
    {
      "inputs": [],
      "name": "decimals",
      "outputs": [
        {
          "internalType": "uint8",
          "name": "",
          "type": "uint8"
        }
      ],
      "stateMutability": "pure",
      "type": "function"
    },
    {
      "inputs": [],
      "name": "defaultOperators",
      "outputs": [
        {
          "internalType": "address[]",
          "name": "",
          "type": "address[]"
        }
      ],
      "stateMutability": "view",
      "type": "function"
    },
    {
      "inputs": [
        {
          "internalType": "address",
          "name": "account",
          "type": "address"
        },
        {
          "internalType": "uint256",
          "name": "amount",
          "type": "uint256"
        }
      ],
      "name": "devBurn",
      "outputs": [],
      "stateMutability": "nonpayable",
      "type": "function"
    },
    {
      "inputs": [],
      "name": "getTokenFactory",
      "outputs": [
        {
          "internalType": "address",
          "name": "",
          "type": "address"
        }
      ],
      "stateMutability": "view",
      "type": "function"
    },
    {
      "inputs": [],
      "name": "granularity",
      "outputs": [
        {
          "internalType": "uint256",
          "name": "",
          "type": "uint256"
        }
      ],
      "stateMutability": "view",
      "type": "function"
    },
    {
      "inputs": [
        {
          "internalType": "address",
          "name": "account",
          "type": "address"
        }
      ],
      "name": "hasPendingRebase",
      "outputs": [
        {
          "internalType": "bool",
          "name": "",
          "type": "bool"
        }
      ],
      "stateMutability": "view",
      "type": "function"
    },
    {
      "inputs": [
        {
          "internalType": "address",
          "name": "operator",
          "type": "address"
        },
        {
          "internalType": "address",
          "name": "tokenHolder",
          "type": "address"
        }
      ],
      "name": "isOperatorFor",
      "outputs": [
        {
          "internalType": "bool",
          "name": "",
          "type": "bool"
        }
      ],
      "stateMutability": "view",
      "type": "function"
    },
    {
      "inputs": [
        {
          "internalType": "address",
          "name": "receiver",
          "type": "address"
        },
        {
          "internalType": "uint256",
          "name": "amount",
          "type": "uint256"
        }
      ],
      "name": "mint",
      "outputs": [],
      "stateMutability": "nonpayable",
      "type": "function"
    },
    {
      "inputs": [],
      "name": "name",
      "outputs": [
        {
          "internalType": "string",
          "name": "",
          "type": "string"
        }
      ],
      "stateMutability": "view",
      "type": "function"
    },
    {
      "inputs": [
        {
          "internalType": "address",
          "name": "owner",
          "type": "address"
        }
      ],
      "name": "nonces",
      "outputs": [
        {
          "internalType": "uint256",
          "name": "",
          "type": "uint256"
        }
      ],
      "stateMutability": "view",
      "type": "function"
    },
    {
      "inputs": [
        {
          "internalType": "address",
          "name": "",
          "type": "address"
        },
        {
          "internalType": "uint256",
          "name": "",
          "type": "uint256"
        },
        {
          "internalType": "bytes",
          "name": "",
          "type": "bytes"
        },
        {
          "internalType": "bytes",
          "name": "",
          "type": "bytes"
        }
      ],
      "name": "operatorBurn",
      "outputs": [],
      "stateMutability": "pure",
      "type": "function"
    },
    {
      "inputs": [
        {
          "internalType": "address",
          "name": "sender",
          "type": "address"
        },
        {
          "internalType": "address",
          "name": "recipient",
          "type": "address"
        },
        {
          "internalType": "uint256",
          "name": "amount",
          "type": "uint256"
        },
        {
          "internalType": "bytes",
          "name": "data",
          "type": "bytes"
        },
        {
          "internalType": "bytes",
          "name": "operatorData",
          "type": "bytes"
        }
      ],
      "name": "operatorSend",
      "outputs": [],
      "stateMutability": "nonpayable",
      "type": "function"
    },
    {
      "inputs": [
        {
          "internalType": "address",
          "name": "owner",
          "type": "address"
        },
        {
          "internalType": "address",
          "name": "spender",
          "type": "address"
        },
        {
          "internalType": "uint256",
          "name": "value",
          "type": "uint256"
        },
        {
          "internalType": "uint256",
          "name": "deadline",
          "type": "uint256"
        },
        {
          "internalType": "uint8",
          "name": "v",
          "type": "uint8"
        },
        {
          "internalType": "bytes32",
          "name": "r",
          "type": "bytes32"
        },
        {
          "internalType": "bytes32",
          "name": "s",
          "type": "bytes32"
        }
      ],
      "name": "permit",
      "outputs": [],
      "stateMutability": "nonpayable",
      "type": "function"
    },
    {
      "inputs": [
        {
          "internalType": "address",
          "name": "operator",
          "type": "address"
        }
      ],
      "name": "revokeOperator",
      "outputs": [],
      "stateMutability": "nonpayable",
      "type": "function"
    },
    {
      "inputs": [
        {
          "internalType": "address",
          "name": "recipient",
          "type": "address"
        },
        {
          "internalType": "uint256",
          "name": "amount",
          "type": "uint256"
        },
        {
          "internalType": "bytes",
          "name": "data",
          "type": "bytes"
        }
      ],
      "name": "send",
      "outputs": [],
      "stateMutability": "nonpayable",
      "type": "function"
    },
    {
      "inputs": [],
      "name": "symbol",
      "outputs": [
        {
          "internalType": "string",
          "name": "",
          "type": "string"
        }
      ],
      "stateMutability": "view",
      "type": "function"
    },
    {
      "inputs": [],
      "name": "totalSupply",
      "outputs": [
        {
          "internalType": "uint256",
          "name": "",
          "type": "uint256"
        }
      ],
      "stateMutability": "view",
      "type": "function"
    },
    {
      "inputs": [
        {
          "internalType": "address",
          "name": "to",
          "type": "address"
        },
        {
          "internalType": "uint256",
          "name": "amount",
          "type": "uint256"
        }
      ],
      "name": "transfer",
      "outputs": [
        {
          "internalType": "bool",
          "name": "",
          "type": "bool"
        }
      ],
      "stateMutability": "nonpayable",
      "type": "function"
    },
    {
      "inputs": [
        {
          "internalType": "address",
          "name": "holder",
          "type": "address"
        },
        {
          "internalType": "address",
          "name": "recipient",
          "type": "address"
        },
        {
          "internalType": "uint256",
          "name": "amount",
          "type": "uint256"
        }
      ],
      "name": "transferFrom",
      "outputs": [
        {
          "internalType": "bool",
          "name": "",
          "type": "bool"
        }
      ],
      "stateMutability": "nonpayable",
      "type": "function"
    },
    {
      "inputs": [
        {
          "internalType": "address",
          "name": "account",
          "type": "address"
        }
      ],
      "name": "unScaledbalanceOf",
      "outputs": [
        {
          "internalType": "uint256",
          "name": "",
          "type": "uint256"
        }
      ],
      "stateMutability": "view",
      "type": "function"
    }
  ],
  "bytecode": {
    "object": "0x6101606040523480156200001257600080fd5b5060405162002ae038038062002ae083398101604081905262000035916200044a565b6040805180820190915260018152603160f81b6020820152849081908186856002620000628482620005f0565b506003620000718382620005f0565b50805162000087906004906020840190620002d6565b5060005b8151811015620000f757600160056000848481518110620000b057620000b0620006bc565b6020908102919091018101516001600160a01b03168252810191909152604001600020805460ff191691151591909117905580620000ee81620006d2565b9150506200008b565b506040516329965a1d60e01b815230600482018190527fac7fbab5f54a3ca8194167523c6753bfeb96a445279294b6125b68cce217705460248301526044820152731820a4b7618bde71dce8cdc73aab6c95905fad24906329965a1d90606401600060405180830381600087803b1580156200017257600080fd5b505af115801562000187573d6000803e3d6000fd5b50506040516329965a1d60e01b815230600482018190527faea199e31a596269b42cdafd93407f14436db6e4cad65417994c2eb37381e05a60248301526044820152731820a4b7618bde71dce8cdc73aab6c95905fad2492506329965a1d9150606401600060405180830381600087803b1580156200020557600080fd5b505af11580156200021a573d6000803e3d6000fd5b5050865160208089019190912087518883012060e08290526101008190524660a0818152604080517f8b73c3c69bb8fe3d512ecc4cf759cc79239f7b179b0ffacaa9a75d522b39400f81880181905281830187905260608201869052608082019490945230818401528151808203909301835260c0019052805194019390932091975095509093509150620002ac9050565b6080523060c05261012052505050506001600160a01b03929092166101405250620006fa92505050565b8280548282559060005260206000209081019282156200032e579160200282015b828111156200032e57825182546001600160a01b0319166001600160a01b03909116178255602090920191600190910190620002f7565b506200033c92915062000340565b5090565b5b808211156200033c576000815560010162000341565b634e487b7160e01b600052604160045260246000fd5b604051601f8201601f191681016001600160401b038111828210171562000398576200039862000357565b604052919050565b600082601f830112620003b257600080fd5b81516001600160401b03811115620003ce57620003ce62000357565b6020620003e4601f8301601f191682016200036d565b8281528582848701011115620003f957600080fd5b60005b8381101562000419578581018301518282018401528201620003fc565b506000928101909101919091529392505050565b80516001600160a01b03811681146200044557600080fd5b919050565b600080600080608085870312156200046157600080fd5b84516001600160401b03808211156200047957600080fd5b6200048788838901620003a0565b95506020915081870151818111156200049f57600080fd5b620004ad89828a01620003a0565b955050620004be604088016200042d565b9350606087015181811115620004d357600080fd5b8701601f81018913620004e557600080fd5b805182811115620004fa57620004fa62000357565b8060051b92506200050d8484016200036d565b818152928201840192848101908b8511156200052857600080fd5b928501925b84841015620005515762000541846200042d565b825292850192908501906200052d565b989b979a50959850505050505050565b600181811c908216806200057657607f821691505b6020821081036200059757634e487b7160e01b600052602260045260246000fd5b50919050565b601f821115620005eb57600081815260208120601f850160051c81016020861015620005c65750805b601f850160051c820191505b81811015620005e757828155600101620005d2565b5050505b505050565b81516001600160401b038111156200060c576200060c62000357565b62000624816200061d845462000561565b846200059d565b602080601f8311600181146200065c5760008415620006435750858301515b600019600386901b1c1916600185901b178555620005e7565b600085815260208120601f198616915b828110156200068d578886015182559484019460019091019084016200066c565b5085821015620006ac5787850151600019600388901b60f8161c191681555b5050505050600190811b01905550565b634e487b7160e01b600052603260045260246000fd5b600060018201620006f357634e487b7160e01b600052601160045260246000fd5b5060010190565b60805160a05160c05160e05161010051610120516101405161234c62000794600039600081816102c80152818161054f015281816105ee0152818161067b0152818161079c015281816109a601528181610a2201528181610abf01528181610b3b0152610bac01526000611287015260006112d6015260006112b10152600061120a015260006112340152600061125e015261234c6000f3fe608060405234801561001057600080fd5b50600436106101a95760003560e01c80638f4cef0c116100f9578063aaeba2e211610097578063dd62ed3e11610071578063dd62ed3e14610393578063fad8b32a146103cc578063fc673c4f146103df578063fe9d9303146103f257600080fd5b8063aaeba2e21461035a578063d505accf1461036d578063d95b63711461038057600080fd5b806395d89b41116100d357806395d89b4114610305578063982aaf6b1461030d5780639bd9bbc614610334578063a9059cbb1461034757600080fd5b80638f4cef0c146102a8578063925d6ba2146102bb578063959b8c3f146102f257600080fd5b8063313ce56711610166578063556f0dc711610140578063556f0dc71461026857806362ad1b831461026f57806370a08231146102825780637ecebe001461029557600080fd5b8063313ce5671461023c5780633644e5151461024b57806340c10f191461025357600080fd5b806306e48538146101ae57806306fdde03146101cc578063095ea7b3146101e157806318160ddd1461020457806323b872dd146102165780632ec34d3814610229575b600080fd5b6101b6610400565b6040516101c39190611d80565b60405180910390f35b6101d4610462565b6040516101c39190611e13565b6101f46101ef366004611e3b565b6104eb565b60405190151581526020016101c3565b6001545b6040519081526020016101c3565b6101f4610224366004611e67565b610505565b6101f4610237366004611ea8565b61054b565b604051601281526020016101c3565b610208610661565b610266610261366004611e3b565b610670565b005b6001610208565b61026661027d366004611f68565b6106e7565b610208610290366004611ea8565b61076d565b6102086102a3366004611ea8565b610810565b6102086102b6366004611ea8565b61082e565b6040516001600160a01b037f00000000000000000000000000000000000000000000000000000000000000001681526020016101c3565b610266610300366004611ea8565b61084c565b6101d4610969565b6102087f6e71edae12b1b97f4d1f60370fef10105fa2faae0126114a169c64845d6126c981565b610266610342366004611ffb565b610978565b6101f4610355366004611e3b565b610a8f565b610266610368366004611e3b565b610ba1565b61026661037b366004612054565b610c14565b6101f461038e3660046120cb565b610d78565b6102086103a13660046120cb565b6001600160a01b03918216600090815260086020908152604080832093909416825291909152205490565b6102666103da366004611ea8565b610e1a565b6102666103ed366004612104565b610f35565b6102666103ed366004612184565b6060600480548060200260200160405190810160405280929190818152602001828054801561045857602002820191906000526020600020905b81546001600160a01b0316815260019091019060200180831161043a575b5050505050905090565b606060028054610471906121cb565b80601f016020809104026020016040519081016040528092919081815260200182805461049d906121cb565b80156104585780601f106104bf57610100808354040283529160200191610458565b820191906000526020600020905b8154815290600101906020018083116104cd57509395945050505050565b6000336104f9818585610f4e565b60019150505b92915050565b600033610513858285611075565b61054085858560405180602001604052806000815250604051806020016040528060008152506000611101565b506001949350505050565b60007f00000000000000000000000000000000000000000000000000000000000000006001600160a01b03166378c1a6c46040518163ffffffff1660e01b8152600401602060405180830381865afa1580156105ab573d6000803e3d6000fd5b505050506040513d601f19601f820116820180604052508101906105cf91906121ff565b604051637b69ce2f60e01b81526001600160a01b0384811660048301527f00000000000000000000000000000000000000000000000000000000000000001690637b69ce2f90602401602060405180830381865afa158015610635573d6000803e3d6000fd5b505050506040513d601f19601f8201168201806040525081019061065991906121ff565b141592915050565b600061066b6111fd565b905090565b336001600160a01b037f000000000000000000000000000000000000000000000000000000000000000016146106b9576040516313f6b6af60e31b815260040160405180910390fd5b6106e382826040518060200160405280600081525060405180602001604052806000815250611324565b5050565b6106f13386610d78565b6107575760405162461bcd60e51b815260206004820152602c60248201527f4552433737373a2063616c6c6572206973206e6f7420616e206f70657261746f60448201526b39103337b9103437b63232b960a11b60648201526084015b60405180910390fd5b61076685858585856001611101565b5050505050565b60006107788261054b565b156108075760405163a4d96e1760e01b81526001600160a01b0383811660048301527f0000000000000000000000000000000000000000000000000000000000000000169063a4d96e1790602401602060405180830381865afa1580156107e3573d6000803e3d6000fd5b505050506040513d601f19601f820116820180604052508101906104ff91906121ff565b6104ff8261082e565b6001600160a01b0381166000908152600960205260408120546104ff565b6001600160a01b0381166000908152602081905260408120546104ff565b6001600160a01b03811633036108b05760405162461bcd60e51b8152602060048201526024808201527f4552433737373a20617574686f72697a696e672073656c66206173206f70657260448201526330ba37b960e11b606482015260840161074e565b6001600160a01b03811660009081526005602052604090205460ff1615610901573360009081526007602090815260408083206001600160a01b03851684529091529020805460ff19169055610930565b3360009081526006602090815260408083206001600160a01b03851684529091529020805460ff191660011790555b60405133906001600160a01b038316907ff4caeb2d6ca8932a215a353d0703c326ec2d81fc68170f320eb2ab49e9df61f990600090a350565b606060038054610471906121cb565b336109828161054b565b15610a0357604051631339055360e11b81526001600160a01b0382811660048301527f000000000000000000000000000000000000000000000000000000000000000016906326720aa690602401600060405180830381600087803b1580156109ea57600080fd5b505af11580156109fe573d6000803e3d6000fd5b505050505b604051632dc8b5a960e21b81526001600160a01b0385811660048301527f0000000000000000000000000000000000000000000000000000000000000000169063b722d6a490602401600060405180830381600087803b158015610a6657600080fd5b505af1158015610a7a573d6000803e3d6000fd5b50505050610a89848484611332565b50505050565b600033610a9b8161054b565b15610b1c57604051631339055360e11b81526001600160a01b0382811660048301527f000000000000000000000000000000000000000000000000000000000000000016906326720aa690602401600060405180830381600087803b158015610b0357600080fd5b505af1158015610b17573d6000803e3d6000fd5b505050505b604051632dc8b5a960e21b81526001600160a01b0385811660048301527f0000000000000000000000000000000000000000000000000000000000000000169063b722d6a490602401600060405180830381600087803b158015610b7f57600080fd5b505af1158015610b93573d6000803e3d6000fd5b505050506105408484611355565b336001600160a01b037f00000000000000000000000000000000000000000000000000000000000000001614610bea576040516313f6b6af60e31b815260040160405180910390fd5b6106e38282604051806020016040528060008152506040518060200160405280600081525061138d565b83421115610c645760405162461bcd60e51b815260206004820152601d60248201527f45524332305065726d69743a206578706972656420646561646c696e65000000604482015260640161074e565b60007f6e71edae12b1b97f4d1f60370fef10105fa2faae0126114a169c64845d6126c9888888610c938c611542565b6040805160208101969096526001600160a01b0394851690860152929091166060840152608083015260a082015260c0810186905260e0016040516020818303038152906040528051906020012090506000610cee8261156a565b90506000610cfe828787876115b8565b9050896001600160a01b0316816001600160a01b031614610d615760405162461bcd60e51b815260206004820152601e60248201527f45524332305065726d69743a20696e76616c6964207369676e61747572650000604482015260640161074e565b610d6c8a8a8a610f4e565b50505050505050505050565b6000816001600160a01b0316836001600160a01b03161480610de357506001600160a01b03831660009081526005602052604090205460ff168015610de357506001600160a01b0380831660009081526007602090815260408083209387168352929052205460ff16155b80610e1357506001600160a01b0380831660009081526006602090815260408083209387168352929052205460ff165b9392505050565b336001600160a01b03821603610e7c5760405162461bcd60e51b815260206004820152602160248201527f4552433737373a207265766f6b696e672073656c66206173206f70657261746f6044820152603960f91b606482015260840161074e565b6001600160a01b03811660009081526005602052604090205460ff1615610ed0573360009081526007602090815260408083206001600160a01b03851684529091529020805460ff19166001179055610efc565b3360009081526006602090815260408083206001600160a01b03851684529091529020805460ff191690555b60405133906001600160a01b038316907f50546e66e5f44d728365dc3908c63bc5cfeeab470722c1677e3073a6ac294aa190600090a350565b6040516343c861bd60e11b815260040160405180910390fd5b6001600160a01b038316610fb25760405162461bcd60e51b815260206004820152602560248201527f4552433737373a20617070726f76652066726f6d20746865207a65726f206164604482015264647265737360d81b606482015260840161074e565b6001600160a01b0382166110145760405162461bcd60e51b815260206004820152602360248201527f4552433737373a20617070726f766520746f20746865207a65726f206164647260448201526265737360e81b606482015260840161074e565b6001600160a01b0383811660008181526008602090815260408083209487168084529482529182902085905590518481527f8c5be1e5ebec7d5bd14f71427d1e84f3dd0314c0f7b2291e5b200ac8c7c3b925910160405180910390a3505050565b6001600160a01b038381166000908152600860209081526040808320938616835292905220546000198114610a8957818110156110f45760405162461bcd60e51b815260206004820152601e60248201527f4552433737373a20696e73756666696369656e7420616c6c6f77616e63650000604482015260640161074e565b610a898484848403610f4e565b6001600160a01b0386166111665760405162461bcd60e51b815260206004820152602660248201527f4552433737373a207472616e736665722066726f6d20746865207a65726f206160448201526564647265737360d01b606482015260840161074e565b6001600160a01b0385166111c85760405162461bcd60e51b8152602060048201526024808201527f4552433737373a207472616e7366657220746f20746865207a65726f206164646044820152637265737360e01b606482015260840161074e565b336111d78188888888886115e0565b6111e5818888888888611707565b6111f48188888888888861186d565b50505050505050565b6000306001600160a01b037f00000000000000000000000000000000000000000000000000000000000000001614801561125657507f000000000000000000000000000000000000000000000000000000000000000046145b1561128057507f000000000000000000000000000000000000000000000000000000000000000090565b50604080517f00000000000000000000000000000000000000000000000000000000000000006020808301919091527f0000000000000000000000000000000000000000000000000000000000000000828401527f000000000000000000000000000000000000000000000000000000000000000060608301524660808301523060a0808401919091528351808403909101815260c0909201909252805191012090565b610a89848484846001611a32565b61135033848484604051806020016040528060008152506001611101565b505050565b600061138433848460405180602001604052806000815250604051806020016040528060008152506000611101565b50600192915050565b6001600160a01b0384166113ee5760405162461bcd60e51b815260206004820152602260248201527f4552433737373a206275726e2066726f6d20746865207a65726f206164647265604482015261737360f01b606482015260840161074e565b336113fe818660008787876115e0565b6001600160a01b038516600090815260208190526040902054848110156114735760405162461bcd60e51b815260206004820152602360248201527f4552433737373a206275726e20616d6f756e7420657863656564732062616c616044820152626e636560e81b606482015260840161074e565b6001600160a01b03861660009081526020819052604081208683039055600180548792906114a290849061222e565b92505081905550856001600160a01b0316826001600160a01b03167fa78a9be3a7b862d26933ad85fb11d80ef66b8f972d7cbba06621d583943a40988787876040516114f093929190612241565b60405180910390a36040518581526000906001600160a01b038816907fddf252ad1be2c89b69c2b068fc378daa952ba7f163c4a11628f55a4df523b3ef906020015b60405180910390a3505050505050565b6001600160a01b03811660009081526009602052604090208054600181018255905b50919050565b60006104ff6115776111fd565b8360405161190160f01b6020820152602281018390526042810182905260009060620160405160208183030381529060405280519060200120905092915050565b60008060006115c987878787611b6f565b915091506115d681611c33565b5095945050505050565b60405163555ddc6560e11b81526001600160a01b03861660048201527f29ddb589b1fb5fc7cf394961c1adf5f8c6454761adf795e67fe149f658abe8956024820152600090731820a4b7618bde71dce8cdc73aab6c95905fad249063aabbb8ca90604401602060405180830381865afa158015611661573d6000803e3d6000fd5b505050506040513d601f19601f820116820180604052508101906116859190612276565b90506001600160a01b038116156111f457604051633ad5cbc160e11b81526001600160a01b038216906375ab9782906116cc908a908a908a908a908a908a90600401612293565b600060405180830381600087803b1580156116e657600080fd5b505af11580156116fa573d6000803e3d6000fd5b5050505050505050505050565b6001600160a01b038516600090815260208190526040902054838110156117805760405162461bcd60e51b815260206004820152602760248201527f4552433737373a207472616e7366657220616d6f756e7420657863656564732060448201526662616c616e636560c81b606482015260840161074e565b6001600160a01b038087166000908152602081905260408082208785039055918716815290812080548692906117b79084906122ed565b92505081905550846001600160a01b0316866001600160a01b0316886001600160a01b03167f06b541ddaa720db2b10a4d0cdac39b8d360425fc073085fac19bc8261467798787878760405161180f93929190612241565b60405180910390a4846001600160a01b0316866001600160a01b03167fddf252ad1be2c89b69c2b068fc378daa952ba7f163c4a11628f55a4df523b3ef8660405161185c91815260200190565b60405180910390a350505050505050565b60405163555ddc6560e11b81526001600160a01b03861660048201527fb281fc8c12954d22544db45de3159a39272895b169a852b314f9cc762e44c53b6024820152600090731820a4b7618bde71dce8cdc73aab6c95905fad249063aabbb8ca90604401602060405180830381865afa1580156118ee573d6000803e3d6000fd5b505050506040513d601f19601f820116820180604052508101906119129190612276565b90506001600160a01b0381161561198e576040516223de2960e01b81526001600160a01b038216906223de2990611957908b908b908b908b908b908b90600401612293565b600060405180830381600087803b15801561197157600080fd5b505af1158015611985573d6000803e3d6000fd5b50505050611a28565b8115611a28576001600160a01b0386163b15611a285760405162461bcd60e51b815260206004820152604d60248201527f4552433737373a20746f6b656e20726563697069656e7420636f6e747261637460448201527f20686173206e6f20696d706c656d656e74657220666f7220455243373737546f60648201526c1ad95b9cd49958da5c1a595b9d609a1b608482015260a40161074e565b5050505050505050565b6001600160a01b038516611a885760405162461bcd60e51b815260206004820181905260248201527f4552433737373a206d696e7420746f20746865207a65726f2061646472657373604482015260640161074e565b60003390508460016000828254611a9f91906122ed565b90915550506001600160a01b03861660009081526020819052604081208054879290611acc9084906122ed565b90915550611ae29050816000888888888861186d565b856001600160a01b0316816001600160a01b03167f2fe5be0146f74c5bce36c0b80911af6c7d86ff27e89d5cfa61fc681327954e5d878787604051611b2993929190612241565b60405180910390a36040518581526001600160a01b038716906000907fddf252ad1be2c89b69c2b068fc378daa952ba7f163c4a11628f55a4df523b3ef90602001611532565b6000807f7fffffffffffffffffffffffffffffff5d576e7357a4501ddfe92f46681b20a0831115611ba65750600090506003611c2a565b6040805160008082526020820180845289905260ff881692820192909252606081018690526080810185905260019060a0016020604051602081039080840390855afa158015611bfa573d6000803e3d6000fd5b5050604051601f1901519150506001600160a01b038116611c2357600060019250925050611c2a565b9150600090505b94509492505050565b6000816004811115611c4757611c47612300565b03611c4f5750565b6001816004811115611c6357611c63612300565b03611cb05760405162461bcd60e51b815260206004820152601860248201527f45434453413a20696e76616c6964207369676e61747572650000000000000000604482015260640161074e565b6002816004811115611cc457611cc4612300565b03611d115760405162461bcd60e51b815260206004820152601f60248201527f45434453413a20696e76616c6964207369676e6174757265206c656e67746800604482015260640161074e565b6003816004811115611d2557611d25612300565b03611d7d5760405162461bcd60e51b815260206004820152602260248201527f45434453413a20696e76616c6964207369676e6174757265202773272076616c604482015261756560f01b606482015260840161074e565b50565b6020808252825182820181905260009190848201906040850190845b81811015611dc15783516001600160a01b031683529284019291840191600101611d9c565b50909695505050505050565b6000815180845260005b81811015611df357602081850181015186830182015201611dd7565b506000602082860101526020601f19601f83011685010191505092915050565b602081526000610e136020830184611dcd565b6001600160a01b0381168114611d7d57600080fd5b60008060408385031215611e4e57600080fd5b8235611e5981611e26565b946020939093013593505050565b600080600060608486031215611e7c57600080fd5b8335611e8781611e26565b92506020840135611e9781611e26565b929592945050506040919091013590565b600060208284031215611eba57600080fd5b8135610e1381611e26565b634e487b7160e01b600052604160045260246000fd5b600082601f830112611eec57600080fd5b813567ffffffffffffffff80821115611f0757611f07611ec5565b604051601f8301601f19908116603f01168101908282118183101715611f2f57611f2f611ec5565b81604052838152866020858801011115611f4857600080fd5b836020870160208301376000602085830101528094505050505092915050565b600080600080600060a08688031215611f8057600080fd5b8535611f8b81611e26565b94506020860135611f9b81611e26565b935060408601359250606086013567ffffffffffffffff80821115611fbf57600080fd5b611fcb89838a01611edb565b93506080880135915080821115611fe157600080fd5b50611fee88828901611edb565b9150509295509295909350565b60008060006060848603121561201057600080fd5b833561201b81611e26565b925060208401359150604084013567ffffffffffffffff81111561203e57600080fd5b61204a86828701611edb565b9150509250925092565b600080600080600080600060e0888a03121561206f57600080fd5b873561207a81611e26565b9650602088013561208a81611e26565b95506040880135945060608801359350608088013560ff811681146120ae57600080fd5b9699959850939692959460a0840135945060c09093013592915050565b600080604083850312156120de57600080fd5b82356120e981611e26565b915060208301356120f981611e26565b809150509250929050565b6000806000806080858703121561211a57600080fd5b843561212581611e26565b935060208501359250604085013567ffffffffffffffff8082111561214957600080fd5b61215588838901611edb565b9350606087013591508082111561216b57600080fd5b5061217887828801611edb565b91505092959194509250565b6000806040838503121561219757600080fd5b82359150602083013567ffffffffffffffff8111156121b557600080fd5b6121c185828601611edb565b9150509250929050565b600181811c908216806121df57607f821691505b60208210810361156457634e487b7160e01b600052602260045260246000fd5b60006020828403121561221157600080fd5b5051919050565b634e487b7160e01b600052601160045260246000fd5b818103818111156104ff576104ff612218565b83815260606020820152600061225a6060830185611dcd565b828103604084015261226c8185611dcd565b9695505050505050565b60006020828403121561228857600080fd5b8151610e1381611e26565b6001600160a01b0387811682528681166020830152851660408201526060810184905260c0608082018190526000906122ce90830185611dcd565b82810360a08401526122e08185611dcd565b9998505050505050505050565b808201808211156104ff576104ff612218565b634e487b7160e01b600052602160045260246000fdfea2646970667358221220c2ba9ec2e0d79b2a254058be54d4ef0e243f6e142ada2cb4b9067689ca834a7d64736f6c63430008130033",
    "linkReferences": {}
  },
  "methodIdentifiers": {
    "DOMAIN_SEPARATOR()": "3644e515",
    "_PERMIT_TYPEHASH()": "982aaf6b",
    "allowance(address,address)": "dd62ed3e",
    "approve(address,uint256)": "095ea7b3",
    "authorizeOperator(address)": "959b8c3f",
    "balanceOf(address)": "70a08231",
    "burn(uint256,bytes)": "fe9d9303",
    "decimals()": "313ce567",
    "defaultOperators()": "06e48538",
    "devBurn(address,uint256)": "aaeba2e2",
    "getTokenFactory()": "925d6ba2",
    "granularity()": "556f0dc7",
    "hasPendingRebase(address)": "2ec34d38",
    "isOperatorFor(address,address)": "d95b6371",
    "mint(address,uint256)": "40c10f19",
    "name()": "06fdde03",
    "nonces(address)": "7ecebe00",
    "operatorBurn(address,uint256,bytes,bytes)": "fc673c4f",
    "operatorSend(address,address,uint256,bytes,bytes)": "62ad1b83",
    "permit(address,address,uint256,uint256,uint8,bytes32,bytes32)": "d505accf",
    "revokeOperator(address)": "fad8b32a",
    "send(address,uint256,bytes)": "9bd9bbc6",
    "symbol()": "95d89b41",
    "totalSupply()": "18160ddd",
    "transfer(address,uint256)": "a9059cbb",
    "transferFrom(address,address,uint256)": "23b872dd",
    "unScaledbalanceOf(address)": "8f4cef0c"
  },
  "id": 4
}