{
  "_format": "hh-sol-artifact-1",
  "contractName": "SmartToken",
  "sourceName": "contracts/vaults/SmartToken.sol",
  "abi": [
    {
      "inputs": [],
      "stateMutability": "nonpayable",
      "type": "constructor"
    },
    {
      "inputs": [],
      "name": "BaseContract__DepositCircuitBreaker",
      "type": "error"
    },
    {
      "inputs": [],
      "name": "BaseContract__RebalanceCircuitBreaker",
      "type": "error"
    },
    {
      "inputs": [],
      "name": "BaseContract__SanctionedAddress",
      "type": "error"
    },
    {
      "inputs": [],
      "name": "BaseContract__TransferCircuitBreaker",
      "type": "error"
    },
    {
      "inputs": [],
      "name": "BaseContract__WithdrawCircuitBreaker",
      "type": "error"
    },
    {
      "inputs": [],
      "name": "SmartToken__DepositLimitHit",
      "type": "error"
    },
    {
      "inputs": [],
      "name": "SmartToken__DepositMoreThanMax",
      "type": "error"
    },
    {
      "inputs": [],
      "name": "SmartToken__InsufficientUnderlying",
      "type": "error"
    },
    {
      "inputs": [],
      "name": "SmartToken__MethodNotAllowed",
      "type": "error"
    },
    {
      "inputs": [],
      "name": "SmartToken__MintMoreThanMax",
      "type": "error"
    },
    {
      "inputs": [],
      "name": "SmartToken__NotTokenFactory",
      "type": "error"
    },
    {
      "inputs": [],
      "name": "SmartToken__OnlyAssetOwner",
      "type": "error"
    },
    {
      "inputs": [],
      "name": "SmartToken__RedeemMoreThanMax",
      "type": "error"
    },
    {
      "inputs": [],
      "name": "SmartToken__WithdrawLimitHit",
      "type": "error"
    },
    {
      "inputs": [],
      "name": "SmartToken__WithdrawMoreThanMax",
      "type": "error"
    },
    {
      "inputs": [],
      "name": "SmartToken__ZeroDeposit",
      "type": "error"
    },
    {
      "anonymous": false,
      "inputs": [
        {
          "indexed": false,
          "internalType": "address",
          "name": "previousAdmin",
          "type": "address"
        },
        {
          "indexed": false,
          "internalType": "address",
          "name": "newAdmin",
          "type": "address"
        }
      ],
      "name": "AdminChanged",
      "type": "event"
    },
    {
      "anonymous": false,
      "inputs": [
        {
          "indexed": true,
          "internalType": "address",
          "name": "owner",
          "type": "address"
        },
        {
          "indexed": true,
          "internalType": "address",
          "name": "spender",
          "type": "address"
        },
        {
          "indexed": false,
          "internalType": "uint256",
          "name": "value",
          "type": "uint256"
        }
      ],
      "name": "Approval",
      "type": "event"
    },
    {
      "anonymous": false,
      "inputs": [
        {
          "indexed": true,
          "internalType": "address",
          "name": "beacon",
          "type": "address"
        }
      ],
      "name": "BeaconUpgraded",
      "type": "event"
    },
    {
      "anonymous": false,
      "inputs": [
        {
          "indexed": true,
          "internalType": "address",
          "name": "sender",
          "type": "address"
        },
        {
          "indexed": true,
          "internalType": "address",
          "name": "owner",
          "type": "address"
        },
        {
          "indexed": false,
          "internalType": "uint256",
          "name": "assets",
          "type": "uint256"
        },
        {
          "indexed": false,
          "internalType": "uint256",
          "name": "shares",
          "type": "uint256"
        }
      ],
      "name": "Deposit",
      "type": "event"
    },
    {
      "anonymous": false,
      "inputs": [],
      "name": "EIP712DomainChanged",
      "type": "event"
    },
    {
      "anonymous": false,
      "inputs": [
        {
          "indexed": false,
          "internalType": "uint8",
          "name": "version",
          "type": "uint8"
        }
      ],
      "name": "Initialized",
      "type": "event"
    },
    {
      "anonymous": false,
      "inputs": [
        {
          "indexed": true,
          "internalType": "address",
          "name": "previousOwner",
          "type": "address"
        },
        {
          "indexed": true,
          "internalType": "address",
          "name": "newOwner",
          "type": "address"
        }
      ],
      "name": "OwnershipTransferred",
      "type": "event"
    },
    {
      "anonymous": false,
      "inputs": [
        {
          "indexed": true,
          "internalType": "address",
          "name": "from",
          "type": "address"
        },
        {
          "indexed": true,
          "internalType": "address",
          "name": "to",
          "type": "address"
        },
        {
          "indexed": false,
          "internalType": "uint256",
          "name": "value",
          "type": "uint256"
        }
      ],
      "name": "Transfer",
      "type": "event"
    },
    {
      "anonymous": false,
      "inputs": [
        {
          "indexed": true,
          "internalType": "address",
          "name": "implementation",
          "type": "address"
        }
      ],
      "name": "Upgraded",
      "type": "event"
    },
    {
      "anonymous": false,
      "inputs": [
        {
          "indexed": true,
          "internalType": "address",
          "name": "sender",
          "type": "address"
        },
        {
          "indexed": true,
          "internalType": "address",
          "name": "receiver",
          "type": "address"
        },
        {
          "indexed": true,
          "internalType": "address",
          "name": "owner",
          "type": "address"
        },
        {
          "indexed": false,
          "internalType": "uint256",
          "name": "assets",
          "type": "uint256"
        },
        {
          "indexed": false,
          "internalType": "uint256",
          "name": "shares",
          "type": "uint256"
        }
      ],
      "name": "Withdraw",
      "type": "event"
    },
    {
      "inputs": [],
      "name": "DOMAIN_SEPARATOR",
      "outputs": [
        {
          "internalType": "bytes32",
          "name": "",
          "type": "bytes32"
        }
      ],
      "stateMutability": "view",
      "type": "function"
    },
    {
      "inputs": [
        {
          "internalType": "address",
          "name": "owner",
          "type": "address"
        },
        {
          "internalType": "address",
          "name": "spender",
          "type": "address"
        }
      ],
      "name": "allowance",
      "outputs": [
        {
          "internalType": "uint256",
          "name": "",
          "type": "uint256"
        }
      ],
      "stateMutability": "view",
      "type": "function"
    },
    {
      "inputs": [
        {
          "internalType": "address",
          "name": "spender",
          "type": "address"
        },
        {
          "internalType": "uint256",
          "name": "amount",
          "type": "uint256"
        }
      ],
      "name": "approve",
      "outputs": [
        {
          "internalType": "bool",
          "name": "",
          "type": "bool"
        }
      ],
      "stateMutability": "nonpayable",
      "type": "function"
    },
    {
      "inputs": [],
      "name": "asset",
      "outputs": [
        {
          "internalType": "address",
          "name": "",
          "type": "address"
        }
      ],
      "stateMutability": "view",
      "type": "function"
    },
    {
      "inputs": [
        {
          "internalType": "address",
          "name": "account",
          "type": "address"
        }
      ],
      "name": "balanceOf",
      "outputs": [
        {
          "internalType": "uint256",
          "name": "",
          "type": "uint256"
        }
      ],
      "stateMutability": "view",
      "type": "function"
    },
    {
      "inputs": [
        {
          "internalType": "address",
          "name": "account",
          "type": "address"
        },
        {
          "internalType": "uint256",
          "name": "amount",
          "type": "uint256"
        }
      ],
      "name": "burn",
      "outputs": [],
      "stateMutability": "nonpayable",
      "type": "function"
    },
    {
      "inputs": [
        {
          "internalType": "uint256",
          "name": "shares",
          "type": "uint256"
        }
      ],
      "name": "convertToAssets",
      "outputs": [
        {
          "internalType": "uint256",
          "name": "assets",
          "type": "uint256"
        }
      ],
      "stateMutability": "view",
      "type": "function"
    },
    {
      "inputs": [
        {
          "internalType": "uint256",
          "name": "assets",
          "type": "uint256"
        }
      ],
      "name": "convertToShares",
      "outputs": [
        {
          "internalType": "uint256",
          "name": "shares",
          "type": "uint256"
        }
      ],
      "stateMutability": "view",
      "type": "function"
    },
    {
      "inputs": [],
      "name": "decimals",
      "outputs": [
        {
          "internalType": "uint8",
          "name": "",
          "type": "uint8"
        }
      ],
      "stateMutability": "view",
      "type": "function"
    },
    {
      "inputs": [
        {
          "internalType": "address",
          "name": "spender",
          "type": "address"
        },
        {
          "internalType": "uint256",
          "name": "subtractedValue",
          "type": "uint256"
        }
      ],
      "name": "decreaseAllowance",
      "outputs": [
        {
          "internalType": "bool",
          "name": "",
          "type": "bool"
        }
      ],
      "stateMutability": "nonpayable",
      "type": "function"
    },
    {
      "inputs": [
        {
          "internalType": "uint256",
          "name": "assets",
          "type": "uint256"
        },
        {
          "internalType": "address",
          "name": "receiver",
          "type": "address"
        }
      ],
      "name": "deposit",
      "outputs": [
        {
          "internalType": "uint256",
          "name": "",
          "type": "uint256"
        }
      ],
      "stateMutability": "nonpayable",
      "type": "function"
    },
    {
      "inputs": [
        {
          "internalType": "uint256",
          "name": "assets",
          "type": "uint256"
        },
        {
          "internalType": "address",
          "name": "receiver",
          "type": "address"
        },
        {
          "internalType": "uint256",
          "name": "deadline",
          "type": "uint256"
        },
        {
          "internalType": "uint8",
          "name": "v",
          "type": "uint8"
        },
        {
          "internalType": "bytes32",
          "name": "r",
          "type": "bytes32"
        },
        {
          "internalType": "bytes32",
          "name": "s",
          "type": "bytes32"
        }
      ],
      "name": "depositWithPermit",
      "outputs": [
        {
          "internalType": "uint256",
          "name": "",
          "type": "uint256"
        }
      ],
      "stateMutability": "nonpayable",
      "type": "function"
    },
    {
      "inputs": [],
      "name": "eip712Domain",
      "outputs": [
        {
          "internalType": "bytes1",
          "name": "fields",
          "type": "bytes1"
        },
        {
          "internalType": "string",
          "name": "name",
          "type": "string"
        },
        {
          "internalType": "string",
          "name": "version",
          "type": "string"
        },
        {
          "internalType": "uint256",
          "name": "chainId",
          "type": "uint256"
        },
        {
          "internalType": "address",
          "name": "verifyingContract",
          "type": "address"
        },
        {
          "internalType": "bytes32",
          "name": "salt",
          "type": "bytes32"
        },
        {
          "internalType": "uint256[]",
          "name": "extensions",
          "type": "uint256[]"
        }
      ],
      "stateMutability": "view",
      "type": "function"
    },
    {
      "inputs": [],
      "name": "getTokenFactory",
      "outputs": [
        {
          "internalType": "address",
          "name": "",
          "type": "address"
        }
      ],
      "stateMutability": "view",
      "type": "function"
    },
    {
      "inputs": [
        {
          "internalType": "address",
          "name": "sender",
          "type": "address"
        },
        {
          "internalType": "address",
          "name": "receiver",
          "type": "address"
        }
      ],
      "name": "handlePendingRebalance",
      "outputs": [],
      "stateMutability": "nonpayable",
      "type": "function"
    },
    {
      "inputs": [
        {
          "internalType": "address",
          "name": "account",
          "type": "address"
        }
      ],
      "name": "hasPendingRebalance",
      "outputs": [
        {
          "internalType": "bool",
          "name": "",
          "type": "bool"
        }
      ],
      "stateMutability": "view",
      "type": "function"
    },
    {
      "inputs": [
        {
          "internalType": "address",
          "name": "spender",
          "type": "address"
        },
        {
          "internalType": "uint256",
          "name": "addedValue",
          "type": "uint256"
        }
      ],
      "name": "increaseAllowance",
      "outputs": [
        {
          "internalType": "bool",
          "name": "",
          "type": "bool"
        }
      ],
      "stateMutability": "nonpayable",
      "type": "function"
    },
    {
      "inputs": [
        {
          "internalType": "string",
          "name": "tokenName",
          "type": "string"
        },
        {
          "internalType": "string",
          "name": "tokenSymbol",
          "type": "string"
        },
        {
          "internalType": "address",
          "name": "factoryAddress",
          "type": "address"
        },
        {
          "internalType": "address",
          "name": "sanctionsContract_",
          "type": "address"
        },
        {
          "internalType": "bool",
          "name": "isX_",
          "type": "bool"
        },
        {
          "internalType": "address",
          "name": "owner_",
          "type": "address"
        }
      ],
      "name": "initialize",
      "outputs": [],
      "stateMutability": "nonpayable",
      "type": "function"
    },
    {
      "inputs": [],
      "name": "isDepositCircuitBreaker",
      "outputs": [
        {
          "internalType": "bool",
          "name": "",
          "type": "bool"
        }
      ],
      "stateMutability": "view",
      "type": "function"
    },
    {
      "inputs": [],
      "name": "isRebalanceCircuitBreaker",
      "outputs": [
        {
          "internalType": "bool",
          "name": "",
          "type": "bool"
        }
      ],
      "stateMutability": "view",
      "type": "function"
    },
    {
      "inputs": [],
      "name": "isTransferCircuitBreaker",
      "outputs": [
        {
          "internalType": "bool",
          "name": "",
          "type": "bool"
        }
      ],
      "stateMutability": "view",
      "type": "function"
    },
    {
      "inputs": [],
      "name": "isWithdrawCircuitBreaker",
      "outputs": [
        {
          "internalType": "bool",
          "name": "",
          "type": "bool"
        }
      ],
      "stateMutability": "view",
      "type": "function"
    },
    {
      "inputs": [
        {
          "internalType": "address",
          "name": "account",
          "type": "address"
        }
      ],
      "name": "maxDeposit",
      "outputs": [
        {
          "internalType": "uint256",
          "name": "",
          "type": "uint256"
        }
      ],
      "stateMutability": "view",
      "type": "function"
    },
    {
      "inputs": [
        {
          "internalType": "address",
          "name": "account",
          "type": "address"
        }
      ],
      "name": "maxMint",
      "outputs": [
        {
          "internalType": "uint256",
          "name": "",
          "type": "uint256"
        }
      ],
      "stateMutability": "view",
      "type": "function"
    },
    {
      "inputs": [
        {
          "internalType": "address",
          "name": "owner_",
          "type": "address"
        }
      ],
      "name": "maxRedeem",
      "outputs": [
        {
          "internalType": "uint256",
          "name": "",
          "type": "uint256"
        }
      ],
      "stateMutability": "view",
      "type": "function"
    },
    {
      "inputs": [
        {
          "internalType": "address",
          "name": "owner_",
          "type": "address"
        }
      ],
      "name": "maxWithdraw",
      "outputs": [
        {
          "internalType": "uint256",
          "name": "",
          "type": "uint256"
        }
      ],
      "stateMutability": "view",
      "type": "function"
    },
    {
      "inputs": [
        {
          "internalType": "uint256",
          "name": "shares",
          "type": "uint256"
        },
        {
          "internalType": "address",
          "name": "receiver",
          "type": "address"
        }
      ],
      "name": "mint",
      "outputs": [
        {
          "internalType": "uint256",
          "name": "",
          "type": "uint256"
        }
      ],
      "stateMutability": "nonpayable",
      "type": "function"
    },
    {
      "inputs": [
        {
          "internalType": "address",
          "name": "receiver",
          "type": "address"
        },
        {
          "internalType": "uint256",
          "name": "amount",
          "type": "uint256"
        }
      ],
      "name": "mintAsset",
      "outputs": [],
      "stateMutability": "nonpayable",
      "type": "function"
    },
    {
      "inputs": [],
      "name": "name",
      "outputs": [
        {
          "internalType": "string",
          "name": "",
          "type": "string"
        }
      ],
      "stateMutability": "view",
      "type": "function"
    },
    {
      "inputs": [
        {
          "internalType": "address",
          "name": "owner",
          "type": "address"
        }
      ],
      "name": "nonces",
      "outputs": [
        {
          "internalType": "uint256",
          "name": "",
          "type": "uint256"
        }
      ],
      "stateMutability": "view",
      "type": "function"
    },
    {
      "inputs": [],
      "name": "owner",
      "outputs": [
        {
          "internalType": "address",
          "name": "",
          "type": "address"
        }
      ],
      "stateMutability": "view",
      "type": "function"
    },
    {
      "inputs": [
        {
          "internalType": "address",
          "name": "owner",
          "type": "address"
        },
        {
          "internalType": "address",
          "name": "spender",
          "type": "address"
        },
        {
          "internalType": "uint256",
          "name": "value",
          "type": "uint256"
        },
        {
          "internalType": "uint256",
          "name": "deadline",
          "type": "uint256"
        },
        {
          "internalType": "uint8",
          "name": "v",
          "type": "uint8"
        },
        {
          "internalType": "bytes32",
          "name": "r",
          "type": "bytes32"
        },
        {
          "internalType": "bytes32",
          "name": "s",
          "type": "bytes32"
        }
      ],
      "name": "permit",
      "outputs": [],
      "stateMutability": "nonpayable",
      "type": "function"
    },
    {
      "inputs": [
        {
          "internalType": "uint256",
          "name": "assets",
          "type": "uint256"
        }
      ],
      "name": "previewDeposit",
      "outputs": [
        {
          "internalType": "uint256",
          "name": "",
          "type": "uint256"
        }
      ],
      "stateMutability": "view",
      "type": "function"
    },
    {
      "inputs": [
        {
          "internalType": "uint256",
          "name": "shares",
          "type": "uint256"
        }
      ],
      "name": "previewMint",
      "outputs": [
        {
          "internalType": "uint256",
          "name": "",
          "type": "uint256"
        }
      ],
      "stateMutability": "view",
      "type": "function"
    },
    {
      "inputs": [
        {
          "internalType": "uint256",
          "name": "shares",
          "type": "uint256"
        }
      ],
      "name": "previewRedeem",
      "outputs": [
        {
          "internalType": "uint256",
          "name": "",
          "type": "uint256"
        }
      ],
      "stateMutability": "view",
      "type": "function"
    },
    {
      "inputs": [
        {
          "internalType": "uint256",
          "name": "assets",
          "type": "uint256"
        }
      ],
      "name": "previewWithdraw",
      "outputs": [
        {
          "internalType": "uint256",
          "name": "",
          "type": "uint256"
        }
      ],
      "stateMutability": "view",
      "type": "function"
    },
    {
      "inputs": [],
      "name": "proxiableUUID",
      "outputs": [
        {
          "internalType": "bytes32",
          "name": "",
          "type": "bytes32"
        }
      ],
      "stateMutability": "view",
      "type": "function"
    },
    {
      "inputs": [
        {
          "internalType": "uint256",
          "name": "shares",
          "type": "uint256"
        },
        {
          "internalType": "address",
          "name": "receiver",
          "type": "address"
        },
        {
          "internalType": "address",
          "name": "owner_",
          "type": "address"
        }
      ],
      "name": "redeem",
      "outputs": [
        {
          "internalType": "uint256",
          "name": "",
          "type": "uint256"
        }
      ],
      "stateMutability": "nonpayable",
      "type": "function"
    },
    {
      "inputs": [],
      "name": "renounceOwnership",
      "outputs": [],
      "stateMutability": "nonpayable",
      "type": "function"
    },
    {
      "inputs": [],
      "name": "resumeAllCircuitBreakers",
      "outputs": [],
      "stateMutability": "nonpayable",
      "type": "function"
    },
    {
      "inputs": [
        {
          "internalType": "address",
          "name": "account",
          "type": "address"
        },
        {
          "internalType": "uint256",
          "name": "amount",
          "type": "uint256"
        }
      ],
      "name": "smartBalanceAdjust",
      "outputs": [],
      "stateMutability": "nonpayable",
      "type": "function"
    },
    {
      "inputs": [
        {
          "internalType": "address",
          "name": "treasuryAddress",
          "type": "address"
        },
        {
          "internalType": "uint256",
          "name": "amount",
          "type": "uint256"
        }
      ],
      "name": "smartTreasuryTransfer",
      "outputs": [],
      "stateMutability": "nonpayable",
      "type": "function"
    },
    {
      "inputs": [],
      "name": "stopAllCircuitBreakers",
      "outputs": [],
      "stateMutability": "nonpayable",
      "type": "function"
    },
    {
      "inputs": [],
      "name": "symbol",
      "outputs": [
        {
          "internalType": "string",
          "name": "",
          "type": "string"
        }
      ],
      "stateMutability": "view",
      "type": "function"
    },
    {
      "inputs": [],
      "name": "toggleDepositCircuitBreaker",
      "outputs": [],
      "stateMutability": "nonpayable",
      "type": "function"
    },
    {
      "inputs": [],
      "name": "toggleRebalanceCircuitBreaker",
      "outputs": [],
      "stateMutability": "nonpayable",
      "type": "function"
    },
    {
      "inputs": [],
      "name": "toggleTransferCircuitBreaker",
      "outputs": [],
      "stateMutability": "nonpayable",
      "type": "function"
    },
    {
      "inputs": [],
      "name": "toggleWithdrawCircuitBreaker",
      "outputs": [],
      "stateMutability": "nonpayable",
      "type": "function"
    },
    {
      "inputs": [],
      "name": "totalAssets",
      "outputs": [
        {
          "internalType": "uint256",
          "name": "",
          "type": "uint256"
        }
      ],
      "stateMutability": "view",
      "type": "function"
    },
    {
      "inputs": [],
      "name": "totalSupply",
      "outputs": [
        {
          "internalType": "uint256",
          "name": "",
          "type": "uint256"
        }
      ],
      "stateMutability": "view",
      "type": "function"
    },
    {
      "inputs": [
        {
          "internalType": "address",
          "name": "recipient",
          "type": "address"
        },
        {
          "internalType": "uint256",
          "name": "amount",
          "type": "uint256"
        }
      ],
      "name": "transfer",
      "outputs": [
        {
          "internalType": "bool",
          "name": "",
          "type": "bool"
        }
      ],
      "stateMutability": "nonpayable",
      "type": "function"
    },
    {
      "inputs": [
        {
          "internalType": "address",
          "name": "sender",
          "type": "address"
        },
        {
          "internalType": "address",
          "name": "recipient",
          "type": "address"
        },
        {
          "internalType": "uint256",
          "name": "amount",
          "type": "uint256"
        }
      ],
      "name": "transferFrom",
      "outputs": [
        {
          "internalType": "bool",
          "name": "",
          "type": "bool"
        }
      ],
      "stateMutability": "nonpayable",
      "type": "function"
    },
    {
      "inputs": [
        {
          "internalType": "address",
          "name": "newOwner",
          "type": "address"
        }
      ],
      "name": "transferOwnership",
      "outputs": [],
      "stateMutability": "nonpayable",
      "type": "function"
    },
    {
      "inputs": [
        {
          "internalType": "address",
          "name": "account",
          "type": "address"
        }
      ],
      "name": "unScaledbalanceOf",
      "outputs": [
        {
          "internalType": "uint256",
          "name": "",
          "type": "uint256"
        }
      ],
      "stateMutability": "view",
      "type": "function"
    },
    {
      "inputs": [
        {
          "internalType": "address",
          "name": "newImplementation",
          "type": "address"
        }
      ],
      "name": "upgradeTo",
      "outputs": [],
      "stateMutability": "nonpayable",
      "type": "function"
    },
    {
      "inputs": [
        {
          "internalType": "address",
          "name": "newImplementation",
          "type": "address"
        },
        {
          "internalType": "bytes",
          "name": "data",
          "type": "bytes"
        }
      ],
      "name": "upgradeToAndCall",
      "outputs": [],
      "stateMutability": "payable",
      "type": "function"
    },
    {
      "inputs": [
        {
          "internalType": "uint256",
          "name": "assets",
          "type": "uint256"
        },
        {
          "internalType": "address",
          "name": "receiver",
          "type": "address"
        },
        {
          "internalType": "address",
          "name": "owner_",
          "type": "address"
        }
      ],
      "name": "withdraw",
      "outputs": [
        {
          "internalType": "uint256",
          "name": "",
          "type": "uint256"
        }
      ],
      "stateMutability": "nonpayable",
      "type": "function"
    }
  ],
  "bytecode": "0x60a0604052306080523480156200001557600080fd5b506200002062000030565b6200002a62000030565b620000f1565b600054610100900460ff16156200009d5760405162461bcd60e51b815260206004820152602760248201527f496e697469616c697a61626c653a20636f6e747261637420697320696e697469604482015266616c697a696e6760c81b606482015260840160405180910390fd5b60005460ff90811614620000ef576000805460ff191660ff9081179091556040519081527f7f26b83ff96e1f2b6a682f133852f6798a09c465da95921460cefb38474024989060200160405180910390a15b565b608051614f4962000129600039600081816112bc015281816113520152818161152d015281816115c301526119510152614f496000f3fe6080604052600436106103765760003560e01c80637ecebe00116101d1578063b460af9411610102578063d78f0921116100a0578063ef8b30f71161006f578063ef8b30f7146103fc578063f077fd3c1461093d578063f2fde38b1461095d578063fd6064b31461097d57600080fd5b8063d78f0921146108cd578063d905777e14610878578063dd62ed3e146108e2578063e58127311461092857600080fd5b8063c6e6f592116100dc578063c6e6f592146103fc578063ce96cb7714610878578063d505accf14610898578063d69f62e0146108b857600080fd5b8063b460af9414610838578063ba08765214610858578063c63d75b6146105ac57600080fd5b806394bf804d1161016f578063a457c2d711610149578063a457c2d7146107d8578063a9059cbb146107f8578063b1dbfcee14610818578063b3d7f6b9146103fc57600080fd5b806394bf804d1461078357806395d89b41146107a35780639dc29fac146107b857600080fd5b80638da5cb5b116101ab5780638da5cb5b146107065780638f4cef0c146107245780638f50bd1314610744578063925d6ba21461076457600080fd5b80637ecebe001461069e57806384b0196e146106be57806385f2eac0146106e657600080fd5b80633644e515116102ab57806350921b23116102495780636a300529116102235780636a300529146106345780636e553f651461064957806370a0823114610669578063715018a61461068957600080fd5b806350921b23146105df57806352d1902d146105ff5780635f758bef1461061457600080fd5b80633950935111610285578063395093511461058c578063402d267d146105ac5780634cdad506146103fc5780634f1ef286146105cc57600080fd5b80633644e515146105245780633659cfe61461053957806338d52e0f1461055957600080fd5b806312cfca381161031857806323b872dd116102f257806323b872dd1461049f57806327a44ed0146104bf57806330928009146104f3578063313ce5671461050857600080fd5b806312cfca381461044a57806316b535f41461046a57806318160ddd1461048a57600080fd5b806306fdde031161035457806306fdde03146103da57806307a2d13a146103fc578063095ea7b31461041a5780630a28a477146103fc57600080fd5b806301e1d1141461037b578063030d4ed7146103a357806305bfee33146103ba575b600080fd5b34801561038757600080fd5b5061039061099d565b6040519081526020015b60405180910390f35b3480156103af57600080fd5b506103b8610a32565b005b3480156103c657600080fd5b506103b86103d5366004614751565b610a65565b3480156103e657600080fd5b506103ef610b0a565b60405161039a91906147cd565b34801561040857600080fd5b506103906104173660046147e0565b90565b34801561042657600080fd5b5061043a610435366004614751565b610b9c565b604051901515815260200161039a565b34801561045657600080fd5b506103b86104653660046148b3565b610bb6565b34801561047657600080fd5b506103b8610485366004614751565b610e15565b34801561049657600080fd5b5060cb54610390565b3480156104ab57600080fd5b5061043a6104ba366004614962565b610ebd565b3480156104cb57600080fd5b506101625477010000000000000000000000000000000000000000000000900460ff1661043a565b3480156104ff57600080fd5b506103b861124f565b34801561051457600080fd5b506040516012815260200161039a565b34801561053057600080fd5b506103906112a8565b34801561054557600080fd5b506103b86105543660046149a3565b6112b2565b34801561056557600080fd5b50610196546001600160a01b03165b6040516001600160a01b03909116815260200161039a565b34801561059857600080fd5b5061043a6105a7366004614751565b61144f565b3480156105b857600080fd5b506103906105c73660046149a3565b61148e565b6103b86105da3660046149c0565b611523565b3480156105eb57600080fd5b506103906105fa366004614a35565b6116b1565b34801561060b57600080fd5b50610390611944565b34801561062057600080fd5b506103b861062f366004614751565b611a09565b34801561064057600080fd5b506103b8611a1b565b34801561065557600080fd5b50610390610664366004614a8f565b611a60565b34801561067557600080fd5b506103906106843660046149a3565b611c51565b34801561069557600080fd5b506103b8611d20565b3480156106aa57600080fd5b506103906106b93660046149a3565b611d34565b3480156106ca57600080fd5b506106d3611d53565b60405161039a9796959493929190614abf565b3480156106f257600080fd5b5061016254600160b01b900460ff1661043a565b34801561071257600080fd5b506097546001600160a01b0316610574565b34801561073057600080fd5b5061039061073f3660046149a3565b611e15565b34801561075057600080fd5b5061043a61075f3660046149a3565b611e33565b34801561077057600080fd5b50610195546001600160a01b0316610574565b34801561078f57600080fd5b5061039061079e366004614a8f565b611f32565b3480156107af57600080fd5b506103ef612157565b3480156107c457600080fd5b506103b86107d3366004614751565b612166565b3480156107e457600080fd5b5061043a6107f3366004614751565b612178565b34801561080457600080fd5b5061043a610813366004614751565b61222d565b34801561082457600080fd5b5061016254600160a81b900460ff1661043a565b34801561084457600080fd5b50610390610853366004614b71565b612589565b34801561086457600080fd5b50610390610873366004614b71565b612974565b34801561088457600080fd5b506103906108933660046149a3565b612d1a565b3480156108a457600080fd5b506103b86108b3366004614bb3565b612da3565b3480156108c457600080fd5b506103b8612f07565b3480156108d957600080fd5b506103b8612f54565b3480156108ee57600080fd5b506103906108fd366004614c21565b6001600160a01b03918216600090815260ca6020908152604080832093909416825291909152205490565b34801561093457600080fd5b506103b8612f99565b34801561094957600080fd5b506103b8610958366004614c21565b612fde565b34801561096957600080fd5b506103b86109783660046149a3565b613138565b34801561098957600080fd5b5061016254600160a01b900460ff1661043a565b61019654610195546040517f70a082310000000000000000000000000000000000000000000000000000000081526001600160a01b03918216600482015260009291909116906370a0823190602401602060405180830381865afa158015610a09573d6000803e3d6000fd5b505050506040513d601f19601f82011682018060405250810190610a2d9190614c4f565b905090565b610a3a6131c5565b61016280547fffffffffffffffff00000000ffffffffffffffffffffffffffffffffffffffff169055565b610a6d61321f565b61019554610196546040517fd1273d9e000000000000000000000000000000000000000000000000000000008152600160a01b90910460ff1615156004820152602481018390526001600160a01b039091169063d1273d9e90604401600060405180830381600087803b158015610ae357600080fd5b505af1158015610af7573d6000803e3d6000fd5b50505050610b05828261326d565b505050565b606060cc8054610b1990614c68565b80601f0160208091040260200160405190810160405280929190818152602001828054610b4590614c68565b8015610b925780601f10610b6757610100808354040283529160200191610b92565b820191906000526020600020905b815481529060010190602001808311610b7557829003601f168201915b5050505050905090565b600033610baa818585613282565b60019150505b92915050565b600054610100900460ff1615808015610bd65750600054600160ff909116105b80610bf05750303b158015610bf0575060005460ff166001145b610c675760405162461bcd60e51b815260206004820152602e60248201527f496e697469616c697a61626c653a20636f6e747261637420697320616c72656160448201527f647920696e697469616c697a656400000000000000000000000000000000000060648201526084015b60405180910390fd5b600080547fffffffffffffffffffffffffffffffffffffffffffffffffffffffffffffff001660011790558015610ca8576000805461ff0019166101001790555b610cb287876133da565b610cbb8761344f565b610cc4846134f9565b610ccc613594565b610cd582613138565b610cdd613607565b610195805473ffffffffffffffffffffffffffffffffffffffff19166001600160a01b038716908117909155604080517f98acd7a600000000000000000000000000000000000000000000000000000000815290516398acd7a6916004808201926020929091908290030181865afa158015610d5d573d6000803e3d6000fd5b505050506040513d601f19601f82011682018060405250810190610d819190614c9c565b61019680546001600160a01b03929092167fffffffffffffffffffffff00000000000000000000000000000000000000000090921691909117600160a01b851515021790558015610e0c576000805461ff0019169055604051600181527f7f26b83ff96e1f2b6a682f133852f6798a09c465da95921460cefb38474024989060200160405180910390a15b50505050505050565b610e1d61321f565b61019554610196546040517facde9b2a000000000000000000000000000000000000000000000000000000008152600160a01b90910460ff16151560048201526001600160a01b038481166024830152604482018490529091169063acde9b2a90606401600060405180830381600087803b158015610e9b57600080fd5b505af1158015610eaf573d6000803e3d6000fd5b50505050610b058282613672565b61016254600090600160b01b900460ff1615610f05576040517f64c7350800000000000000000000000000000000000000000000000000000000815260040160405180910390fd5b61019560009054906101000a90046001600160a01b03166001600160a01b0316629c185f6040518163ffffffff1660e01b8152600401602060405180830381865afa158015610f58573d6000803e3d6000fd5b505050506040513d601f19601f82011682018060405250810190610f7c9190614cb9565b15610f9a576040516321e3430160e21b815260040160405180910390fd5b6101625460405163df592f7d60e01b81526001600160a01b03808616600483015285921690600090829063df592f7d90602401602060405180830381865afa158015610fea573d6000803e3d6000fd5b505050506040513d601f19601f8201168201806040525081019061100e9190614cb9565b9050801561102f5760405163108a7eb160e21b815260040160405180910390fd5b6101625460405163df592f7d60e01b81526001600160a01b03808a16600483015289921690600090829063df592f7d90602401602060405180830381865afa15801561107f573d6000803e3d6000fd5b505050506040513d601f19601f820116820180604052508101906110a39190614cb9565b905080156110c45760405163108a7eb160e21b815260040160405180910390fd5b6110ce8a8a612fde565b610195546040517fd493e78c0000000000000000000000000000000000000000000000000000000081526001600160a01b038c811660048301528b81166024830152600092169063d493e78c90604401608060405180830381865afa15801561113b573d6000803e3d6000fd5b505050506040513d601f19601f8201168201806040525081019061115f9190614cd6565b9050600061116e8c8c8c61367e565b61019554610196549192506001600160a01b03169063eec0d656908e908e90600160a01b900460ff168e8760006020020151886001602002015189600260200201518a600360200201516040516001600160e01b031960e08b901b1681526001600160a01b03988916600482015297909616602488015293151560448701526064860192909252608485015260a484015260c483015260e482015261010401600060405180830381600087803b15801561122757600080fd5b505af115801561123b573d6000803e3d6000fd5b50929e9d5050505050505050505050505050565b6112576131c5565b61016280547fffffffffffffffff00ffffffffffffffffffffffffffffffffffffffffffffff8116770100000000000000000000000000000000000000000000009182900460ff1615909102179055565b6000610a2d613697565b6001600160a01b037f00000000000000000000000000000000000000000000000000000000000000001630036113505760405162461bcd60e51b815260206004820152602c60248201527f46756e6374696f6e206d7573742062652063616c6c6564207468726f7567682060448201527f64656c656761746563616c6c00000000000000000000000000000000000000006064820152608401610c5e565b7f00000000000000000000000000000000000000000000000000000000000000006001600160a01b03166113ab7f360894a13ba1a3210667c828492db98dca3e2076cc3735a920a3ca505d382bbc546001600160a01b031690565b6001600160a01b0316146114275760405162461bcd60e51b815260206004820152602c60248201527f46756e6374696f6e206d7573742062652063616c6c6564207468726f7567682060448201527f6163746976652070726f787900000000000000000000000000000000000000006064820152608401610c5e565b611430816136a1565b6040805160008082526020820190925261144c918391906136a9565b50565b33600081815260ca602090815260408083206001600160a01b0387168452909152812054909190610baa9082908690611489908790614d6a565b613282565b610195546040517f728bf7330000000000000000000000000000000000000000000000000000000081526001600160a01b038381166004830152600092169063728bf73390602401602060405180830381865afa1580156114f3573d6000803e3d6000fd5b505050506040513d601f19601f820116820180604052508101906115179190614c4f565b610bb090600019614d7d565b6001600160a01b037f00000000000000000000000000000000000000000000000000000000000000001630036115c15760405162461bcd60e51b815260206004820152602c60248201527f46756e6374696f6e206d7573742062652063616c6c6564207468726f7567682060448201527f64656c656761746563616c6c00000000000000000000000000000000000000006064820152608401610c5e565b7f00000000000000000000000000000000000000000000000000000000000000006001600160a01b031661161c7f360894a13ba1a3210667c828492db98dca3e2076cc3735a920a3ca505d382bbc546001600160a01b031690565b6001600160a01b0316146116985760405162461bcd60e51b815260206004820152602c60248201527f46756e6374696f6e206d7573742062652063616c6c6564207468726f7567682060448201527f6163746976652070726f787900000000000000000000000000000000000000006064820152608401610c5e565b6116a1826136a1565b6116ad828260016136a9565b5050565b61016254600090600160a01b900460ff16156116e057604051636822eceb60e11b815260040160405180910390fd5b61019560009054906101000a90046001600160a01b03166001600160a01b0316629c185f6040518163ffffffff1660e01b8152600401602060405180830381865afa158015611733573d6000803e3d6000fd5b505050506040513d601f19601f820116820180604052508101906117579190614cb9565b15611775576040516321e3430160e21b815260040160405180910390fd5b61019554604051634eacc0fd60e01b81526004810189905288916001600160a01b031690634eacc0fd906024016020604051808303816000875af11580156117c1573d6000803e3d6000fd5b505050506040513d601f19601f820116820180604052508101906117e59190614cb9565b156118035760405163b04c001160e01b815260040160405180910390fd5b878761180f8282613849565b60008a610196549091506001600160a01b031663d505accf336101955460405160e084901b6001600160e01b03191681526001600160a01b0392831660048201529116602482015260448101849052606481018c905260ff8b16608482015260a481018a905260c4810189905260e401600060405180830381600087803b15801561189957600080fd5b505af11580156118ad573d6000803e3d6000fd5b5050610195546001600160a01b0316915063c14cfe099050336040516001600160e01b031960e084901b1681526001600160a01b039182166004820152908d166024820152604481018e905260648101849052608401600060405180830381600087803b15801561191d57600080fd5b505af1158015611931573d6000803e3d6000fd5b50929d9c50505050505050505050505050565b6000306001600160a01b037f000000000000000000000000000000000000000000000000000000000000000016146119e45760405162461bcd60e51b815260206004820152603860248201527f555550535570677261646561626c653a206d757374206e6f742062652063616c60448201527f6c6564207468726f7567682064656c656761746563616c6c00000000000000006064820152608401610c5e565b507f360894a13ba1a3210667c828492db98dca3e2076cc3735a920a3ca505d382bbc90565b611a1161321f565b6116ad82826138c5565b611a236131c5565b61016280547fffffffffffffffffff00ffffffffffffffffffffffffffffffffffffffffffff8116600160b01b9182900460ff1615909102179055565b61016254600090600160a01b900460ff1615611a8f57604051636822eceb60e11b815260040160405180910390fd5b61019560009054906101000a90046001600160a01b03166001600160a01b0316629c185f6040518163ffffffff1660e01b8152600401602060405180830381865afa158015611ae2573d6000803e3d6000fd5b505050506040513d601f19601f82011682018060405250810190611b069190614cb9565b15611b24576040516321e3430160e21b815260040160405180910390fd5b61019554604051634eacc0fd60e01b81526004810185905284916001600160a01b031690634eacc0fd906024016020604051808303816000875af1158015611b70573d6000803e3d6000fd5b505050506040513d601f19601f82011682018060405250810190611b949190614cb9565b15611bb25760405163b04c001160e01b815260040160405180910390fd5b8383611bbe8282613849565b600086610195549091506001600160a01b031663c14cfe09336040516001600160e01b031960e084901b1681526001600160a01b0391821660048201529089166024820152604481018a905260648101849052608401600060405180830381600087803b158015611c2e57600080fd5b505af1158015611c42573d6000803e3d6000fd5b50929998505050505050505050565b6000611c5c82611e33565b15611d1257610195546040517fa4d96e170000000000000000000000000000000000000000000000000000000081526001600160a01b038481166004830152600092839291169063a4d96e17906024016040805180830381865afa158015611cc8573d6000803e3d6000fd5b505050506040513d601f19601f82011682018060405250810190611cec9190614d90565b610196549193509150600160a01b900460ff1615611d0b575092915050565b9392505050565b610bb082611e15565b919050565b611d286131c5565b611d326000613986565b565b6001600160a01b038116600090815261012f6020526040812054610bb0565b60006060806000806000606060fb546000801b148015611d73575060fc54155b611dbf5760405162461bcd60e51b815260206004820152601560248201527f4549503731323a20556e696e697469616c697a656400000000000000000000006044820152606401610c5e565b611dc76139e5565b611dcf6139f4565b604080516000808252602082019092527f0f000000000000000000000000000000000000000000000000000000000000009b939a50919850469750309650945092509050565b6001600160a01b038116600090815260c96020526040812054610bb0565b61019554604080517fddca8bfa00000000000000000000000000000000000000000000000000000000815290516000926001600160a01b03169163ddca8bfa9160048083019260209291908290030181865afa158015611e97573d6000803e3d6000fd5b505050506040513d601f19601f82011682018060405250810190611ebb9190614c4f565b610195546040516325ad47ab60e21b81526001600160a01b038581166004830152909116906396b51eac90602401602060405180830381865afa158015611f06573d6000803e3d6000fd5b505050506040513d601f19601f82011682018060405250810190611f2a9190614c4f565b141592915050565b61016254600090600160a01b900460ff1615611f6157604051636822eceb60e11b815260040160405180910390fd5b61019560009054906101000a90046001600160a01b03166001600160a01b0316629c185f6040518163ffffffff1660e01b8152600401602060405180830381865afa158015611fb4573d6000803e3d6000fd5b505050506040513d601f19601f82011682018060405250810190611fd89190614cb9565b15611ff6576040516321e3430160e21b815260040160405180910390fd5b61019554604051634eacc0fd60e01b81526004810185905284916001600160a01b031690634eacc0fd906024016020604051808303816000875af1158015612042573d6000803e3d6000fd5b505050506040513d601f19601f820116820180604052508101906120669190614cb9565b156120845760405163b04c001160e01b815260040160405180910390fd5b61208d8361148e565b8411156120c6576040517f292b120100000000000000000000000000000000000000000000000000000000815260040160405180910390fd5b600084610195549091506001600160a01b031663c14cfe09336040516001600160e01b031960e084901b1681526001600160a01b03918216600482015290871660248201526044810184905260648101889052608401600060405180830381600087803b15801561213657600080fd5b505af115801561214a573d6000803e3d6000fd5b5092979650505050505050565b606060cd8054610b1990614c68565b61216e61321f565b6116ad8282613a03565b33600081815260ca602090815260408083206001600160a01b0387168452909152812054909190838110156122155760405162461bcd60e51b815260206004820152602560248201527f45524332303a2064656372656173656420616c6c6f77616e63652062656c6f7760448201527f207a65726f0000000000000000000000000000000000000000000000000000006064820152608401610c5e565b6122228286868403613282565b506001949350505050565b61016254600090600160b01b900460ff1615612275576040517f64c7350800000000000000000000000000000000000000000000000000000000815260040160405180910390fd5b61019560009054906101000a90046001600160a01b03166001600160a01b0316629c185f6040518163ffffffff1660e01b8152600401602060405180830381865afa1580156122c8573d6000803e3d6000fd5b505050506040513d601f19601f820116820180604052508101906122ec9190614cb9565b1561230a576040516321e3430160e21b815260040160405180910390fd5b6101625460405163df592f7d60e01b81526001600160a01b03808616600483015285921690600090829063df592f7d90602401602060405180830381865afa15801561235a573d6000803e3d6000fd5b505050506040513d601f19601f8201168201806040525081019061237e9190614cb9565b9050801561239f5760405163108a7eb160e21b815260040160405180910390fd5b336101625460405163df592f7d60e01b81526001600160a01b03838116600483015290911690600090829063df592f7d90602401602060405180830381865afa1580156123f0573d6000803e3d6000fd5b505050506040513d601f19601f820116820180604052508101906124149190614cb9565b905080156124355760405163108a7eb160e21b815260040160405180910390fd5b61243f338a612fde565b610195546000906001600160a01b031663d493e78c336040516001600160e01b031960e084901b1681526001600160a01b039182166004820152908d166024820152604401608060405180830381865afa1580156124a1573d6000803e3d6000fd5b505050506040513d601f19601f820116820180604052508101906124c59190614cd6565b905060006124d38b8b613b6e565b610195549091506001600160a01b031663eec0d65633610196548e90600160a01b900460ff168e8760006020020151886001602002015189600260200201518a600360200201516040516001600160e01b031960e08b901b1681526001600160a01b03988916600482015297909616602488015293151560448701526064860192909252608485015260a484015260c483015260e482015261010401600060405180830381600087803b15801561191d57600080fd5b61016254600090600160a81b900460ff16156125d1576040517fc689af6e00000000000000000000000000000000000000000000000000000000815260040160405180910390fd5b61019560009054906101000a90046001600160a01b03166001600160a01b0316629c185f6040518163ffffffff1660e01b8152600401602060405180830381865afa158015612624573d6000803e3d6000fd5b505050506040513d601f19601f820116820180604052508101906126489190614cb9565b15612666576040516321e3430160e21b815260040160405180910390fd5b610195546040517fcf0571d30000000000000000000000000000000000000000000000000000000081526004810186905285916001600160a01b03169063cf0571d3906024016020604051808303816000875af11580156126cb573d6000803e3d6000fd5b505050506040513d601f19601f820116820180604052508101906126ef9190614cb9565b15612726576040517f922c089500000000000000000000000000000000000000000000000000000000815260040160405180910390fd5b8261273081613b7c565b612738613bbe565b61019560009054906101000a90046001600160a01b03166001600160a01b031663ddca8bfa6040518163ffffffff1660e01b8152600401602060405180830381865afa15801561278c573d6000803e3d6000fd5b505050506040513d601f19601f820116820180604052508101906127b09190614c4f565b610195546040516325ad47ab60e21b81526001600160a01b038881166004830152909116906396b51eac90602401602060405180830381865afa1580156127fb573d6000803e3d6000fd5b505050506040513d601f19601f8201168201806040525081019061281f9190614c4f565b14612885576101955460405163242ffe5560e11b81526001600160a01b0387811660048301529091169063485ffcaa90602401600060405180830381600087803b15801561286c57600080fd5b505af1158015612880573d6000803e3d6000fd5b505050505b61288e84612d1a565b8611156128c7576040517f1cf754b800000000000000000000000000000000000000000000000000000000815260040160405180910390fd5b610195546040517f3d82850b0000000000000000000000000000000000000000000000000000000081523360048201526001600160a01b0387811660248301528681166044830152606482018990526084820189905288921690633d82850b9060a4015b600060405180830381600087803b15801561294557600080fd5b505af1158015612959573d6000803e3d6000fd5b5092955050505061296b600161016355565b50509392505050565b61016254600090600160a81b900460ff16156129bc576040517fc689af6e00000000000000000000000000000000000000000000000000000000815260040160405180910390fd5b61019560009054906101000a90046001600160a01b03166001600160a01b0316629c185f6040518163ffffffff1660e01b8152600401602060405180830381865afa158015612a0f573d6000803e3d6000fd5b505050506040513d601f19601f82011682018060405250810190612a339190614cb9565b15612a51576040516321e3430160e21b815260040160405180910390fd5b610195546040517fcf0571d30000000000000000000000000000000000000000000000000000000081526004810186905285916001600160a01b03169063cf0571d3906024016020604051808303816000875af1158015612ab6573d6000803e3d6000fd5b505050506040513d601f19601f82011682018060405250810190612ada9190614cb9565b15612b11576040517f922c089500000000000000000000000000000000000000000000000000000000815260040160405180910390fd5b82612b1b81613b7c565b612b23613bbe565b61019560009054906101000a90046001600160a01b03166001600160a01b031663ddca8bfa6040518163ffffffff1660e01b8152600401602060405180830381865afa158015612b77573d6000803e3d6000fd5b505050506040513d601f19601f82011682018060405250810190612b9b9190614c4f565b610195546040516325ad47ab60e21b81526001600160a01b038881166004830152909116906396b51eac90602401602060405180830381865afa158015612be6573d6000803e3d6000fd5b505050506040513d601f19601f82011682018060405250810190612c0a9190614c4f565b14612c70576101955460405163242ffe5560e11b81526001600160a01b0387811660048301529091169063485ffcaa90602401600060405180830381600087803b158015612c5757600080fd5b505af1158015612c6b573d6000803e3d6000fd5b505050505b612c7984612d1a565b861115612cb2576040517f89e4c16300000000000000000000000000000000000000000000000000000000815260040160405180910390fd5b610195546040517f3d82850b0000000000000000000000000000000000000000000000000000000081523360048201526001600160a01b0387811660248301528681166044830152606482018990526084820189905288921690633d82850b9060a40161292b565b610195546040517fc887e8a00000000000000000000000000000000000000000000000000000000081526001600160a01b038381166004830152600092169063c887e8a090602401602060405180830381865afa158015612d7f573d6000803e3d6000fd5b505050506040513d601f19601f82011682018060405250810190610bb09190614c4f565b83421115612df35760405162461bcd60e51b815260206004820152601d60248201527f45524332305065726d69743a206578706972656420646561646c696e650000006044820152606401610c5e565b60007f6e71edae12b1b97f4d1f60370fef10105fa2faae0126114a169c64845d6126c9888888612e228c613c19565b6040805160208101969096526001600160a01b0394851690860152929091166060840152608083015260a082015260c0810186905260e0016040516020818303038152906040528051906020012090506000612e7d82613c42565b90506000612e8d82878787613c8a565b9050896001600160a01b0316816001600160a01b031614612ef05760405162461bcd60e51b815260206004820152601e60248201527f45524332305065726d69743a20696e76616c6964207369676e617475726500006044820152606401610c5e565b612efb8a8a8a613282565b50505050505050505050565b612f0f6131c5565b61016280547fffffffffffffffff00000000ffffffffffffffffffffffffffffffffffffffff1677010101010000000000000000000000000000000000000000179055565b612f5c6131c5565b61016280547fffffffffffffffffffffff00ffffffffffffffffffffffffffffffffffffffff8116600160a01b9182900460ff1615909102179055565b612fa16131c5565b61016280547fffffffffffffffffffff00ffffffffffffffffffffffffffffffffffffffffff8116600160a81b9182900460ff1615909102179055565b612fe782611e33565b1561304d576101955460405163242ffe5560e11b81526001600160a01b0384811660048301529091169063485ffcaa90602401600060405180830381600087803b15801561303457600080fd5b505af1158015613048573d6000803e3d6000fd5b505050505b610195546040517f5737ed7d0000000000000000000000000000000000000000000000000000000081526001600160a01b03838116600483015290911690635737ed7d90602401600060405180830381600087803b1580156130ae57600080fd5b505af11580156130c2573d6000803e3d6000fd5b505050506130cf81611e33565b156116ad576101955460405163242ffe5560e11b81526001600160a01b0383811660048301529091169063485ffcaa90602401600060405180830381600087803b15801561311c57600080fd5b505af1158015613130573d6000803e3d6000fd5b505050505050565b6131406131c5565b6001600160a01b0381166131bc5760405162461bcd60e51b815260206004820152602660248201527f4f776e61626c653a206e6577206f776e657220697320746865207a65726f206160448201527f64647265737300000000000000000000000000000000000000000000000000006064820152608401610c5e565b61144c81613986565b6097546001600160a01b03163314611d325760405162461bcd60e51b815260206004820181905260248201527f4f776e61626c653a2063616c6c6572206973206e6f7420746865206f776e65726044820152606401610c5e565b610195546001600160a01b0316336001600160a01b031614611d32576040517fe565d9cb00000000000000000000000000000000000000000000000000000000815260040160405180910390fd5b60006132798383613cb4565b50600192915050565b6001600160a01b0383166132fd5760405162461bcd60e51b8152602060048201526024808201527f45524332303a20617070726f76652066726f6d20746865207a65726f2061646460448201527f72657373000000000000000000000000000000000000000000000000000000006064820152608401610c5e565b6001600160a01b0382166133795760405162461bcd60e51b815260206004820152602260248201527f45524332303a20617070726f766520746f20746865207a65726f20616464726560448201527f73730000000000000000000000000000000000000000000000000000000000006064820152608401610c5e565b6001600160a01b03838116600081815260ca602090815260408083209487168084529482529182902085905590518481527f8c5be1e5ebec7d5bd14f71427d1e84f3dd0314c0f7b2291e5b200ac8c7c3b925910160405180910390a3505050565b600054610100900460ff166134455760405162461bcd60e51b815260206004820152602b60248201527f496e697469616c697a61626c653a20636f6e7472616374206973206e6f74206960448201526a6e697469616c697a696e6760a81b6064820152608401610c5e565b6116ad8282613d2c565b600054610100900460ff166134ba5760405162461bcd60e51b815260206004820152602b60248201527f496e697469616c697a61626c653a20636f6e7472616374206973206e6f74206960448201526a6e697469616c697a696e6760a81b6064820152608401610c5e565b61144c816040518060400160405280600181526020017f3100000000000000000000000000000000000000000000000000000000000000815250613db0565b600054610100900460ff166135645760405162461bcd60e51b815260206004820152602b60248201527f496e697469616c697a61626c653a20636f6e7472616374206973206e6f74206960448201526a6e697469616c697a696e6760a81b6064820152608401610c5e565b610162805473ffffffffffffffffffffffffffffffffffffffff19166001600160a01b0392909216919091179055565b600054610100900460ff166135ff5760405162461bcd60e51b815260206004820152602b60248201527f496e697469616c697a61626c653a20636f6e7472616374206973206e6f74206960448201526a6e697469616c697a696e6760a81b6064820152608401610c5e565b611d32613e43565b600054610100900460ff16611d325760405162461bcd60e51b815260206004820152602b60248201527f496e697469616c697a61626c653a20636f6e7472616374206973206e6f74206960448201526a6e697469616c697a696e6760a81b6064820152608401610c5e565b60006132798383613eb7565b60003361368c858285613f29565b612222858585613fbb565b6000610a2d6141af565b61144c6131c5565b7f4910fdfa16fed3260ed0e7147f7cc6da11a60208b5b9406d12a635614ffd91435460ff16156136dc57610b0583614223565b826001600160a01b03166352d1902d6040518163ffffffff1660e01b8152600401602060405180830381865afa925050508015613736575060408051601f3d908101601f1916820190925261373391810190614c4f565b60015b6137a85760405162461bcd60e51b815260206004820152602e60248201527f45524331393637557067726164653a206e657720696d706c656d656e7461746960448201527f6f6e206973206e6f7420555550530000000000000000000000000000000000006064820152608401610c5e565b7f360894a13ba1a3210667c828492db98dca3e2076cc3735a920a3ca505d382bbc811461383d5760405162461bcd60e51b815260206004820152602960248201527f45524331393637557067726164653a20756e737570706f727465642070726f7860448201527f6961626c655555494400000000000000000000000000000000000000000000006064820152608401610c5e565b50610b058383836142ee565b81600003613883576040517f7c7c872000000000000000000000000000000000000000000000000000000000815260040160405180910390fd5b61388c8161148e565b8211156116ad576040517f14a4b53500000000000000000000000000000000000000000000000000000000815260040160405180910390fd5b6001600160a01b03821661391b5760405162461bcd60e51b815260206004820152601f60248201527f45524332303a206d696e7420746f20746865207a65726f2061646472657373006044820152606401610c5e565b8060cb600082825461392d9190614d6a565b90915550506001600160a01b038216600081815260c960209081526040808320805486019055518481527fddf252ad1be2c89b69c2b068fc378daa952ba7f163c4a11628f55a4df523b3ef910160405180910390a35050565b609780546001600160a01b0383811673ffffffffffffffffffffffffffffffffffffffff19831681179093556040519116919082907f8be0079c531659141344cd1fd0a4f28419497f9722a3daafe3b4186f6b6457e090600090a35050565b606060fd8054610b1990614c68565b606060fe8054610b1990614c68565b6001600160a01b038216613a7f5760405162461bcd60e51b815260206004820152602160248201527f45524332303a206275726e2066726f6d20746865207a65726f2061646472657360448201527f73000000000000000000000000000000000000000000000000000000000000006064820152608401610c5e565b6001600160a01b038216600090815260c9602052604090205481811015613b0e5760405162461bcd60e51b815260206004820152602260248201527f45524332303a206275726e20616d6f756e7420657863656564732062616c616e60448201527f63650000000000000000000000000000000000000000000000000000000000006064820152608401610c5e565b6001600160a01b038316600081815260c960209081526040808320868603905560cb80548790039055518581529192917fddf252ad1be2c89b69c2b068fc378daa952ba7f163c4a11628f55a4df523b3ef910160405180910390a3505050565b600033610baa818585613fbb565b6001600160a01b038116331461144c576040517f7a45e68500000000000000000000000000000000000000000000000000000000815260040160405180910390fd5b60026101635403613c115760405162461bcd60e51b815260206004820152601f60248201527f5265656e7472616e637947756172643a207265656e7472616e742063616c6c006044820152606401610c5e565b600261016355565b6001600160a01b038116600090815261012f602052604090208054600181018255905b50919050565b6000610bb0613c4f613697565b836040517f19010000000000000000000000000000000000000000000000000000000000008152600281019290925260228201526042902090565b6000806000613c9b87878787614313565b91509150613ca8816143d7565b5090505b949350505050565b6001600160a01b038216613d0a5760405162461bcd60e51b815260206004820152601c60248201527f54726561737572792063616e6e6f74206265207a65726f2061646472000000006044820152606401610c5e565b6001600160a01b03909116600090815260c96020526040902080549091019055565b600054610100900460ff16613d975760405162461bcd60e51b815260206004820152602b60248201527f496e697469616c697a61626c653a20636f6e7472616374206973206e6f74206960448201526a6e697469616c697a696e6760a81b6064820152608401610c5e565b60cc613da38382614dfa565b5060cd610b058282614dfa565b600054610100900460ff16613e1b5760405162461bcd60e51b815260206004820152602b60248201527f496e697469616c697a61626c653a20636f6e7472616374206973206e6f74206960448201526a6e697469616c697a696e6760a81b6064820152608401610c5e565b60fd613e278382614dfa565b5060fe613e348282614dfa565b5050600060fb81905560fc5550565b600054610100900460ff16613eae5760405162461bcd60e51b815260206004820152602b60248201527f496e697469616c697a61626c653a20636f6e7472616374206973206e6f74206960448201526a6e697469616c697a696e6760a81b6064820152608401610c5e565b611d3233613986565b6001600160a01b038216613f0d5760405162461bcd60e51b815260206004820152601b60248201527f416464726573732063616e6e6f74206265207a65726f206164647200000000006044820152606401610c5e565b6001600160a01b03909116600090815260c96020526040902055565b6001600160a01b03838116600090815260ca60209081526040808320938616835292905220546000198114613fb55781811015613fa85760405162461bcd60e51b815260206004820152601d60248201527f45524332303a20696e73756666696369656e7420616c6c6f77616e63650000006044820152606401610c5e565b613fb58484848403613282565b50505050565b6001600160a01b0383166140375760405162461bcd60e51b815260206004820152602560248201527f45524332303a207472616e736665722066726f6d20746865207a65726f20616460448201527f64726573730000000000000000000000000000000000000000000000000000006064820152608401610c5e565b6001600160a01b0382166140b35760405162461bcd60e51b815260206004820152602360248201527f45524332303a207472616e7366657220746f20746865207a65726f206164647260448201527f65737300000000000000000000000000000000000000000000000000000000006064820152608401610c5e565b6001600160a01b038316600090815260c96020526040902054818110156141425760405162461bcd60e51b815260206004820152602660248201527f45524332303a207472616e7366657220616d6f756e742065786365656473206260448201527f616c616e636500000000000000000000000000000000000000000000000000006064820152608401610c5e565b6001600160a01b03808516600081815260c9602052604080822086860390559286168082529083902080548601905591517fddf252ad1be2c89b69c2b068fc378daa952ba7f163c4a11628f55a4df523b3ef906141a29086815260200190565b60405180910390a3613fb5565b60007f8b73c3c69bb8fe3d512ecc4cf759cc79239f7b179b0ffacaa9a75d522b39400f6141da61453c565b6141e2614595565b60408051602081019490945283019190915260608201524660808201523060a082015260c00160405160208183030381529060405280519060200120905090565b6001600160a01b0381163b6142a05760405162461bcd60e51b815260206004820152602d60248201527f455243313936373a206e657720696d706c656d656e746174696f6e206973206e60448201527f6f74206120636f6e7472616374000000000000000000000000000000000000006064820152608401610c5e565b7f360894a13ba1a3210667c828492db98dca3e2076cc3735a920a3ca505d382bbc805473ffffffffffffffffffffffffffffffffffffffff19166001600160a01b0392909216919091179055565b6142f7836145c6565b6000825111806143045750805b15610b0557613fb58383614606565b6000807f7fffffffffffffffffffffffffffffff5d576e7357a4501ddfe92f46681b20a083111561434a57506000905060036143ce565b6040805160008082526020820180845289905260ff881692820192909252606081018690526080810185905260019060a0016020604051602081039080840390855afa15801561439e573d6000803e3d6000fd5b5050604051601f1901519150506001600160a01b0381166143c7576000600192509250506143ce565b9150600090505b94509492505050565b60008160048111156143eb576143eb614eba565b036143f35750565b600181600481111561440757614407614eba565b036144545760405162461bcd60e51b815260206004820152601860248201527f45434453413a20696e76616c6964207369676e617475726500000000000000006044820152606401610c5e565b600281600481111561446857614468614eba565b036144b55760405162461bcd60e51b815260206004820152601f60248201527f45434453413a20696e76616c6964207369676e6174757265206c656e677468006044820152606401610c5e565b60038160048111156144c9576144c9614eba565b0361144c5760405162461bcd60e51b815260206004820152602260248201527f45434453413a20696e76616c6964207369676e6174757265202773272076616c60448201527f75650000000000000000000000000000000000000000000000000000000000006064820152608401610c5e565b6000806145476139e5565b80519091501561455e578051602090910120919050565b60fb54801561456d5792915050565b7fc5d2460186f7233c927e7db2dcc703c0e500b653ca82273b7bfad8045d85a4709250505090565b6000806145a06139f4565b8051909150156145b7578051602090910120919050565b60fc54801561456d5792915050565b6145cf81614223565b6040516001600160a01b038216907fbc7cd75a20ee27fd9adebab32041f755214dbc6bffa90cc0225b39da2e5c2d3b90600090a250565b6060611d0b8383604051806060016040528060278152602001614eed602791396060600080856001600160a01b0316856040516146439190614ed0565b600060405180830381855af49150503d806000811461467e576040519150601f19603f3d011682016040523d82523d6000602084013e614683565b606091505b50915091506146948683838761469e565b9695505050505050565b6060831561470d578251600003614706576001600160a01b0385163b6147065760405162461bcd60e51b815260206004820152601d60248201527f416464726573733a2063616c6c20746f206e6f6e2d636f6e74726163740000006044820152606401610c5e565b5081613cac565b613cac83838151156147225781518083602001fd5b8060405162461bcd60e51b8152600401610c5e91906147cd565b6001600160a01b038116811461144c57600080fd5b6000806040838503121561476457600080fd5b823561476f8161473c565b946020939093013593505050565b60005b83811015614798578181015183820152602001614780565b50506000910152565b600081518084526147b981602086016020860161477d565b601f01601f19169290920160200192915050565b602081526000611d0b60208301846147a1565b6000602082840312156147f257600080fd5b5035919050565b634e487b7160e01b600052604160045260246000fd5b600067ffffffffffffffff8084111561482a5761482a6147f9565b604051601f8501601f19908116603f01168101908282118183101715614852576148526147f9565b8160405280935085815286868601111561486b57600080fd5b858560208301376000602087830101525050509392505050565b600082601f83011261489657600080fd5b611d0b8383356020850161480f565b801515811461144c57600080fd5b60008060008060008060c087890312156148cc57600080fd5b863567ffffffffffffffff808211156148e457600080fd5b6148f08a838b01614885565b9750602089013591508082111561490657600080fd5b5061491389828a01614885565b95505060408701356149248161473c565b935060608701356149348161473c565b92506080870135614944816148a5565b915060a08701356149548161473c565b809150509295509295509295565b60008060006060848603121561497757600080fd5b83356149828161473c565b925060208401356149928161473c565b929592945050506040919091013590565b6000602082840312156149b557600080fd5b8135611d0b8161473c565b600080604083850312156149d357600080fd5b82356149de8161473c565b9150602083013567ffffffffffffffff8111156149fa57600080fd5b8301601f81018513614a0b57600080fd5b614a1a8582356020840161480f565b9150509250929050565b803560ff81168114611d1b57600080fd5b60008060008060008060c08789031215614a4e57600080fd5b863595506020870135614a608161473c565b945060408701359350614a7560608801614a24565b92506080870135915060a087013590509295509295509295565b60008060408385031215614aa257600080fd5b823591506020830135614ab48161473c565b809150509250929050565b7fff00000000000000000000000000000000000000000000000000000000000000881681526000602060e081840152614afb60e084018a6147a1565b8381036040850152614b0d818a6147a1565b606085018990526001600160a01b038816608086015260a0850187905284810360c0860152855180825283870192509083019060005b81811015614b5f57835183529284019291840191600101614b43565b50909c9b505050505050505050505050565b600080600060608486031215614b8657600080fd5b833592506020840135614b988161473c565b91506040840135614ba88161473c565b809150509250925092565b600080600080600080600060e0888a031215614bce57600080fd5b8735614bd98161473c565b96506020880135614be98161473c565b95506040880135945060608801359350614c0560808901614a24565b925060a0880135915060c0880135905092959891949750929550565b60008060408385031215614c3457600080fd5b8235614c3f8161473c565b91506020830135614ab48161473c565b600060208284031215614c6157600080fd5b5051919050565b600181811c90821680614c7c57607f821691505b602082108103613c3c57634e487b7160e01b600052602260045260246000fd5b600060208284031215614cae57600080fd5b8151611d0b8161473c565b600060208284031215614ccb57600080fd5b8151611d0b816148a5565b600060808284031215614ce857600080fd5b82601f830112614cf757600080fd5b6040516080810181811067ffffffffffffffff82111715614d1a57614d1a6147f9565b604052806080840185811115614d2f57600080fd5b845b81811015614d49578051835260209283019201614d31565b509195945050505050565b634e487b7160e01b600052601160045260246000fd5b80820180821115610bb057610bb0614d54565b81810381811115610bb057610bb0614d54565b60008060408385031215614da357600080fd5b505080516020909101519092909150565b601f821115610b0557600081815260208120601f850160051c81016020861015614ddb5750805b601f850160051c820191505b8181101561313057828155600101614de7565b815167ffffffffffffffff811115614e1457614e146147f9565b614e2881614e228454614c68565b84614db4565b602080601f831160018114614e5d5760008415614e455750858301515b600019600386901b1c1916600185901b178555613130565b600085815260208120601f198616915b82811015614e8c57888601518255948401946001909101908401614e6d565b5085821015614eaa5787850151600019600388901b60f8161c191681555b5050505050600190811b01905550565b634e487b7160e01b600052602160045260246000fd5b60008251614ee281846020870161477d565b919091019291505056fe416464726573733a206c6f772d6c6576656c2064656c65676174652063616c6c206661696c6564a2646970667358221220647c191b5eb0de28d247c47b265f62e2d84e3cfad1055d1e6ba9a93d471aa89a64736f6c63430008110033",
  "linkReferences": {},
  "deployedLinkReferences": {}
}