{
  "_format": "hh-sol-artifact-1",
  "contractName": "SmartToken",
  "sourceName": "contracts/vaults/SmartToken.sol",
  "abi": [
    {
      "inputs": [],
      "stateMutability": "nonpayable",
      "type": "constructor"
    },
    {
      "inputs": [],
      "name": "BaseContract__DepositCircuitBreaker",
      "type": "error"
    },
    {
      "inputs": [],
      "name": "BaseContract__RebalanceCircuitBreaker",
      "type": "error"
    },
    {
      "inputs": [],
      "name": "BaseContract__SanctionedAddress",
      "type": "error"
    },
    {
      "inputs": [],
      "name": "BaseContract__TransferCircuitBreaker",
      "type": "error"
    },
    {
      "inputs": [],
      "name": "BaseContract__WithdrawCircuitBreaker",
      "type": "error"
    },
    {
      "inputs": [],
      "name": "SmartToken__DepositLimitHit",
      "type": "error"
    },
    {
      "inputs": [],
      "name": "SmartToken__DepositMoreThanMax",
      "type": "error"
    },
    {
      "inputs": [],
      "name": "SmartToken__ExpiryDateReached",
      "type": "error"
    },
    {
      "inputs": [],
      "name": "SmartToken__InsufficientUnderlying",
      "type": "error"
    },
    {
      "inputs": [],
      "name": "SmartToken__MethodNotAllowed",
      "type": "error"
    },
    {
      "inputs": [],
      "name": "SmartToken__MintMoreThanMax",
      "type": "error"
    },
    {
      "inputs": [],
      "name": "SmartToken__NotTokenFactory",
      "type": "error"
    },
    {
      "inputs": [],
      "name": "SmartToken__OnlyAssetOwner",
      "type": "error"
    },
    {
      "inputs": [],
      "name": "SmartToken__RedeemMoreThanMax",
      "type": "error"
    },
    {
      "inputs": [],
      "name": "SmartToken__WithdrawLimitHit",
      "type": "error"
    },
    {
      "inputs": [],
      "name": "SmartToken__WithdrawMoreThanMax",
      "type": "error"
    },
    {
      "inputs": [],
      "name": "SmartToken__ZeroDeposit",
      "type": "error"
    },
    {
      "anonymous": false,
      "inputs": [
        {
          "indexed": false,
          "internalType": "address",
          "name": "previousAdmin",
          "type": "address"
        },
        {
          "indexed": false,
          "internalType": "address",
          "name": "newAdmin",
          "type": "address"
        }
      ],
      "name": "AdminChanged",
      "type": "event"
    },
    {
      "anonymous": false,
      "inputs": [
        {
          "indexed": true,
          "internalType": "address",
          "name": "owner",
          "type": "address"
        },
        {
          "indexed": true,
          "internalType": "address",
          "name": "spender",
          "type": "address"
        },
        {
          "indexed": false,
          "internalType": "uint256",
          "name": "value",
          "type": "uint256"
        }
      ],
      "name": "Approval",
      "type": "event"
    },
    {
      "anonymous": false,
      "inputs": [
        {
          "indexed": true,
          "internalType": "address",
          "name": "beacon",
          "type": "address"
        }
      ],
      "name": "BeaconUpgraded",
      "type": "event"
    },
    {
      "anonymous": false,
      "inputs": [
        {
          "indexed": true,
          "internalType": "address",
          "name": "sender",
          "type": "address"
        },
        {
          "indexed": true,
          "internalType": "address",
          "name": "owner",
          "type": "address"
        },
        {
          "indexed": false,
          "internalType": "uint256",
          "name": "assets",
          "type": "uint256"
        },
        {
          "indexed": false,
          "internalType": "uint256",
          "name": "shares",
          "type": "uint256"
        }
      ],
      "name": "Deposit",
      "type": "event"
    },
    {
      "anonymous": false,
      "inputs": [],
      "name": "EIP712DomainChanged",
      "type": "event"
    },
    {
      "anonymous": false,
      "inputs": [
        {
          "indexed": false,
          "internalType": "uint8",
          "name": "version",
          "type": "uint8"
        }
      ],
      "name": "Initialized",
      "type": "event"
    },
    {
      "anonymous": false,
      "inputs": [
        {
          "indexed": true,
          "internalType": "address",
          "name": "previousOwner",
          "type": "address"
        },
        {
          "indexed": true,
          "internalType": "address",
          "name": "newOwner",
          "type": "address"
        }
      ],
      "name": "OwnershipTransferred",
      "type": "event"
    },
    {
      "anonymous": false,
      "inputs": [
        {
          "indexed": true,
          "internalType": "address",
          "name": "from",
          "type": "address"
        },
        {
          "indexed": true,
          "internalType": "address",
          "name": "to",
          "type": "address"
        },
        {
          "indexed": false,
          "internalType": "uint256",
          "name": "value",
          "type": "uint256"
        }
      ],
      "name": "Transfer",
      "type": "event"
    },
    {
      "anonymous": false,
      "inputs": [
        {
          "indexed": true,
          "internalType": "address",
          "name": "implementation",
          "type": "address"
        }
      ],
      "name": "Upgraded",
      "type": "event"
    },
    {
      "anonymous": false,
      "inputs": [
        {
          "indexed": true,
          "internalType": "address",
          "name": "sender",
          "type": "address"
        },
        {
          "indexed": true,
          "internalType": "address",
          "name": "receiver",
          "type": "address"
        },
        {
          "indexed": true,
          "internalType": "address",
          "name": "owner",
          "type": "address"
        },
        {
          "indexed": false,
          "internalType": "uint256",
          "name": "assets",
          "type": "uint256"
        },
        {
          "indexed": false,
          "internalType": "uint256",
          "name": "shares",
          "type": "uint256"
        }
      ],
      "name": "Withdraw",
      "type": "event"
    },
    {
      "inputs": [],
      "name": "DOMAIN_SEPARATOR",
      "outputs": [
        {
          "internalType": "bytes32",
          "name": "",
          "type": "bytes32"
        }
      ],
      "stateMutability": "view",
      "type": "function"
    },
    {
      "inputs": [
        {
          "internalType": "address",
          "name": "owner",
          "type": "address"
        },
        {
          "internalType": "address",
          "name": "spender",
          "type": "address"
        }
      ],
      "name": "allowance",
      "outputs": [
        {
          "internalType": "uint256",
          "name": "",
          "type": "uint256"
        }
      ],
      "stateMutability": "view",
      "type": "function"
    },
    {
      "inputs": [
        {
          "internalType": "address",
          "name": "spender",
          "type": "address"
        },
        {
          "internalType": "uint256",
          "name": "amount",
          "type": "uint256"
        }
      ],
      "name": "approve",
      "outputs": [
        {
          "internalType": "bool",
          "name": "",
          "type": "bool"
        }
      ],
      "stateMutability": "nonpayable",
      "type": "function"
    },
    {
      "inputs": [],
      "name": "asset",
      "outputs": [
        {
          "internalType": "address",
          "name": "",
          "type": "address"
        }
      ],
      "stateMutability": "view",
      "type": "function"
    },
    {
      "inputs": [
        {
          "internalType": "address",
          "name": "account",
          "type": "address"
        }
      ],
      "name": "balanceOf",
      "outputs": [
        {
          "internalType": "uint256",
          "name": "",
          "type": "uint256"
        }
      ],
      "stateMutability": "view",
      "type": "function"
    },
    {
      "inputs": [
        {
          "internalType": "address",
          "name": "account",
          "type": "address"
        },
        {
          "internalType": "uint256",
          "name": "amount",
          "type": "uint256"
        }
      ],
      "name": "burn",
      "outputs": [],
      "stateMutability": "nonpayable",
      "type": "function"
    },
    {
      "inputs": [
        {
          "internalType": "uint256",
          "name": "shares",
          "type": "uint256"
        }
      ],
      "name": "convertToAssets",
      "outputs": [
        {
          "internalType": "uint256",
          "name": "assets",
          "type": "uint256"
        }
      ],
      "stateMutability": "view",
      "type": "function"
    },
    {
      "inputs": [
        {
          "internalType": "uint256",
          "name": "assets",
          "type": "uint256"
        }
      ],
      "name": "convertToShares",
      "outputs": [
        {
          "internalType": "uint256",
          "name": "shares",
          "type": "uint256"
        }
      ],
      "stateMutability": "view",
      "type": "function"
    },
    {
      "inputs": [],
      "name": "decimals",
      "outputs": [
        {
          "internalType": "uint8",
          "name": "",
          "type": "uint8"
        }
      ],
      "stateMutability": "view",
      "type": "function"
    },
    {
      "inputs": [
        {
          "internalType": "address",
          "name": "spender",
          "type": "address"
        },
        {
          "internalType": "uint256",
          "name": "subtractedValue",
          "type": "uint256"
        }
      ],
      "name": "decreaseAllowance",
      "outputs": [
        {
          "internalType": "bool",
          "name": "",
          "type": "bool"
        }
      ],
      "stateMutability": "nonpayable",
      "type": "function"
    },
    {
      "inputs": [
        {
          "internalType": "uint256",
          "name": "assets",
          "type": "uint256"
        },
        {
          "internalType": "address",
          "name": "receiver",
          "type": "address"
        }
      ],
      "name": "deposit",
      "outputs": [
        {
          "internalType": "uint256",
          "name": "",
          "type": "uint256"
        }
      ],
      "stateMutability": "nonpayable",
      "type": "function"
    },
    {
      "inputs": [
        {
          "internalType": "uint256",
          "name": "assets",
          "type": "uint256"
        },
        {
          "internalType": "address",
          "name": "receiver",
          "type": "address"
        },
        {
          "internalType": "uint256",
          "name": "expiryDate",
          "type": "uint256"
        }
      ],
      "name": "depositWithExpiry",
      "outputs": [
        {
          "internalType": "uint256",
          "name": "",
          "type": "uint256"
        }
      ],
      "stateMutability": "nonpayable",
      "type": "function"
    },
    {
      "inputs": [
        {
          "internalType": "uint256",
          "name": "assets",
          "type": "uint256"
        },
        {
          "internalType": "address",
          "name": "receiver",
          "type": "address"
        },
        {
          "internalType": "uint256",
          "name": "deadline",
          "type": "uint256"
        },
        {
          "internalType": "uint8",
          "name": "v",
          "type": "uint8"
        },
        {
          "internalType": "bytes32",
          "name": "r",
          "type": "bytes32"
        },
        {
          "internalType": "bytes32",
          "name": "s",
          "type": "bytes32"
        }
      ],
      "name": "depositWithPermit",
      "outputs": [
        {
          "internalType": "uint256",
          "name": "",
          "type": "uint256"
        }
      ],
      "stateMutability": "nonpayable",
      "type": "function"
    },
    {
      "inputs": [],
      "name": "eip712Domain",
      "outputs": [
        {
          "internalType": "bytes1",
          "name": "fields",
          "type": "bytes1"
        },
        {
          "internalType": "string",
          "name": "name",
          "type": "string"
        },
        {
          "internalType": "string",
          "name": "version",
          "type": "string"
        },
        {
          "internalType": "uint256",
          "name": "chainId",
          "type": "uint256"
        },
        {
          "internalType": "address",
          "name": "verifyingContract",
          "type": "address"
        },
        {
          "internalType": "bytes32",
          "name": "salt",
          "type": "bytes32"
        },
        {
          "internalType": "uint256[]",
          "name": "extensions",
          "type": "uint256[]"
        }
      ],
      "stateMutability": "view",
      "type": "function"
    },
    {
      "inputs": [],
      "name": "getTokenFactory",
      "outputs": [
        {
          "internalType": "address",
          "name": "",
          "type": "address"
        }
      ],
      "stateMutability": "view",
      "type": "function"
    },
    {
      "inputs": [
        {
          "internalType": "address",
          "name": "sender",
          "type": "address"
        },
        {
          "internalType": "address",
          "name": "receiver",
          "type": "address"
        }
      ],
      "name": "handlePendingFF",
      "outputs": [],
      "stateMutability": "nonpayable",
      "type": "function"
    },
    {
      "inputs": [
        {
          "internalType": "address",
          "name": "sender",
          "type": "address"
        },
        {
          "internalType": "address",
          "name": "receiver",
          "type": "address"
        }
      ],
      "name": "handlePendingRebalance",
      "outputs": [],
      "stateMutability": "nonpayable",
      "type": "function"
    },
    {
      "inputs": [
        {
          "internalType": "address",
          "name": "account",
          "type": "address"
        }
      ],
      "name": "hasPendingFF",
      "outputs": [
        {
          "internalType": "bool",
          "name": "",
          "type": "bool"
        }
      ],
      "stateMutability": "view",
      "type": "function"
    },
    {
      "inputs": [
        {
          "internalType": "address",
          "name": "account",
          "type": "address"
        }
      ],
      "name": "hasPendingRebalance",
      "outputs": [
        {
          "internalType": "bool",
          "name": "",
          "type": "bool"
        }
      ],
      "stateMutability": "view",
      "type": "function"
    },
    {
      "inputs": [
        {
          "internalType": "address",
          "name": "spender",
          "type": "address"
        },
        {
          "internalType": "uint256",
          "name": "addedValue",
          "type": "uint256"
        }
      ],
      "name": "increaseAllowance",
      "outputs": [
        {
          "internalType": "bool",
          "name": "",
          "type": "bool"
        }
      ],
      "stateMutability": "nonpayable",
      "type": "function"
    },
    {
      "inputs": [
        {
          "internalType": "string",
          "name": "tokenName",
          "type": "string"
        },
        {
          "internalType": "string",
          "name": "tokenSymbol",
          "type": "string"
        },
        {
          "internalType": "address",
          "name": "factoryAddress",
          "type": "address"
        },
        {
          "internalType": "address",
          "name": "sanctionsContract_",
          "type": "address"
        },
        {
          "internalType": "bool",
          "name": "isX_",
          "type": "bool"
        },
        {
          "internalType": "address",
          "name": "owner_",
          "type": "address"
        }
      ],
      "name": "initialize",
      "outputs": [],
      "stateMutability": "nonpayable",
      "type": "function"
    },
    {
      "inputs": [],
      "name": "isDepositCircuitBreaker",
      "outputs": [
        {
          "internalType": "bool",
          "name": "",
          "type": "bool"
        }
      ],
      "stateMutability": "view",
      "type": "function"
    },
    {
      "inputs": [],
      "name": "isRebalanceCircuitBreaker",
      "outputs": [
        {
          "internalType": "bool",
          "name": "",
          "type": "bool"
        }
      ],
      "stateMutability": "view",
      "type": "function"
    },
    {
      "inputs": [],
      "name": "isTransferCircuitBreaker",
      "outputs": [
        {
          "internalType": "bool",
          "name": "",
          "type": "bool"
        }
      ],
      "stateMutability": "view",
      "type": "function"
    },
    {
      "inputs": [],
      "name": "isWithdrawCircuitBreaker",
      "outputs": [
        {
          "internalType": "bool",
          "name": "",
          "type": "bool"
        }
      ],
      "stateMutability": "view",
      "type": "function"
    },
    {
      "inputs": [
        {
          "internalType": "address",
          "name": "account",
          "type": "address"
        }
      ],
      "name": "maxDeposit",
      "outputs": [
        {
          "internalType": "uint256",
          "name": "",
          "type": "uint256"
        }
      ],
      "stateMutability": "view",
      "type": "function"
    },
    {
      "inputs": [
        {
          "internalType": "address",
          "name": "account",
          "type": "address"
        }
      ],
      "name": "maxMint",
      "outputs": [
        {
          "internalType": "uint256",
          "name": "",
          "type": "uint256"
        }
      ],
      "stateMutability": "view",
      "type": "function"
    },
    {
      "inputs": [
        {
          "internalType": "address",
          "name": "owner_",
          "type": "address"
        }
      ],
      "name": "maxRedeem",
      "outputs": [
        {
          "internalType": "uint256",
          "name": "",
          "type": "uint256"
        }
      ],
      "stateMutability": "view",
      "type": "function"
    },
    {
      "inputs": [
        {
          "internalType": "address",
          "name": "owner_",
          "type": "address"
        }
      ],
      "name": "maxWithdraw",
      "outputs": [
        {
          "internalType": "uint256",
          "name": "",
          "type": "uint256"
        }
      ],
      "stateMutability": "view",
      "type": "function"
    },
    {
      "inputs": [
        {
          "internalType": "uint256",
          "name": "shares",
          "type": "uint256"
        },
        {
          "internalType": "address",
          "name": "receiver",
          "type": "address"
        }
      ],
      "name": "mint",
      "outputs": [
        {
          "internalType": "uint256",
          "name": "",
          "type": "uint256"
        }
      ],
      "stateMutability": "nonpayable",
      "type": "function"
    },
    {
      "inputs": [
        {
          "internalType": "address",
          "name": "receiver",
          "type": "address"
        },
        {
          "internalType": "uint256",
          "name": "amount",
          "type": "uint256"
        }
      ],
      "name": "mintAsset",
      "outputs": [],
      "stateMutability": "nonpayable",
      "type": "function"
    },
    {
      "inputs": [],
      "name": "name",
      "outputs": [
        {
          "internalType": "string",
          "name": "",
          "type": "string"
        }
      ],
      "stateMutability": "view",
      "type": "function"
    },
    {
      "inputs": [
        {
          "internalType": "address",
          "name": "owner",
          "type": "address"
        }
      ],
      "name": "nonces",
      "outputs": [
        {
          "internalType": "uint256",
          "name": "",
          "type": "uint256"
        }
      ],
      "stateMutability": "view",
      "type": "function"
    },
    {
      "inputs": [],
      "name": "owner",
      "outputs": [
        {
          "internalType": "address",
          "name": "",
          "type": "address"
        }
      ],
      "stateMutability": "view",
      "type": "function"
    },
    {
      "inputs": [
        {
          "internalType": "address",
          "name": "owner",
          "type": "address"
        },
        {
          "internalType": "address",
          "name": "spender",
          "type": "address"
        },
        {
          "internalType": "uint256",
          "name": "value",
          "type": "uint256"
        },
        {
          "internalType": "uint256",
          "name": "deadline",
          "type": "uint256"
        },
        {
          "internalType": "uint8",
          "name": "v",
          "type": "uint8"
        },
        {
          "internalType": "bytes32",
          "name": "r",
          "type": "bytes32"
        },
        {
          "internalType": "bytes32",
          "name": "s",
          "type": "bytes32"
        }
      ],
      "name": "permit",
      "outputs": [],
      "stateMutability": "nonpayable",
      "type": "function"
    },
    {
      "inputs": [
        {
          "internalType": "uint256",
          "name": "assets",
          "type": "uint256"
        }
      ],
      "name": "previewDeposit",
      "outputs": [
        {
          "internalType": "uint256",
          "name": "",
          "type": "uint256"
        }
      ],
      "stateMutability": "view",
      "type": "function"
    },
    {
      "inputs": [
        {
          "internalType": "uint256",
          "name": "shares",
          "type": "uint256"
        }
      ],
      "name": "previewMint",
      "outputs": [
        {
          "internalType": "uint256",
          "name": "",
          "type": "uint256"
        }
      ],
      "stateMutability": "view",
      "type": "function"
    },
    {
      "inputs": [
        {
          "internalType": "uint256",
          "name": "shares",
          "type": "uint256"
        }
      ],
      "name": "previewRedeem",
      "outputs": [
        {
          "internalType": "uint256",
          "name": "",
          "type": "uint256"
        }
      ],
      "stateMutability": "view",
      "type": "function"
    },
    {
      "inputs": [
        {
          "internalType": "uint256",
          "name": "assets",
          "type": "uint256"
        }
      ],
      "name": "previewWithdraw",
      "outputs": [
        {
          "internalType": "uint256",
          "name": "",
          "type": "uint256"
        }
      ],
      "stateMutability": "view",
      "type": "function"
    },
    {
      "inputs": [],
      "name": "proxiableUUID",
      "outputs": [
        {
          "internalType": "bytes32",
          "name": "",
          "type": "bytes32"
        }
      ],
      "stateMutability": "view",
      "type": "function"
    },
    {
      "inputs": [
        {
          "internalType": "uint256",
          "name": "shares",
          "type": "uint256"
        },
        {
          "internalType": "address",
          "name": "receiver",
          "type": "address"
        },
        {
          "internalType": "address",
          "name": "owner_",
          "type": "address"
        }
      ],
      "name": "redeem",
      "outputs": [
        {
          "internalType": "uint256",
          "name": "",
          "type": "uint256"
        }
      ],
      "stateMutability": "nonpayable",
      "type": "function"
    },
    {
      "inputs": [],
      "name": "renounceOwnership",
      "outputs": [],
      "stateMutability": "nonpayable",
      "type": "function"
    },
    {
      "inputs": [],
      "name": "resumeAllCircuitBreakers",
      "outputs": [],
      "stateMutability": "nonpayable",
      "type": "function"
    },
    {
      "inputs": [
        {
          "internalType": "address",
          "name": "account",
          "type": "address"
        },
        {
          "internalType": "uint256",
          "name": "amount",
          "type": "uint256"
        }
      ],
      "name": "smartBalanceAdjust",
      "outputs": [],
      "stateMutability": "nonpayable",
      "type": "function"
    },
    {
      "inputs": [
        {
          "internalType": "address",
          "name": "treasuryAddress",
          "type": "address"
        },
        {
          "internalType": "uint256",
          "name": "amount",
          "type": "uint256"
        }
      ],
      "name": "smartTreasuryTransfer",
      "outputs": [],
      "stateMutability": "nonpayable",
      "type": "function"
    },
    {
      "inputs": [],
      "name": "stopAllCircuitBreakers",
      "outputs": [],
      "stateMutability": "nonpayable",
      "type": "function"
    },
    {
      "inputs": [],
      "name": "symbol",
      "outputs": [
        {
          "internalType": "string",
          "name": "",
          "type": "string"
        }
      ],
      "stateMutability": "view",
      "type": "function"
    },
    {
      "inputs": [],
      "name": "toggleDepositCircuitBreaker",
      "outputs": [],
      "stateMutability": "nonpayable",
      "type": "function"
    },
    {
      "inputs": [],
      "name": "toggleRebalanceCircuitBreaker",
      "outputs": [],
      "stateMutability": "nonpayable",
      "type": "function"
    },
    {
      "inputs": [],
      "name": "toggleTransferCircuitBreaker",
      "outputs": [],
      "stateMutability": "nonpayable",
      "type": "function"
    },
    {
      "inputs": [],
      "name": "toggleWithdrawCircuitBreaker",
      "outputs": [],
      "stateMutability": "nonpayable",
      "type": "function"
    },
    {
      "inputs": [],
      "name": "totalAssets",
      "outputs": [
        {
          "internalType": "uint256",
          "name": "",
          "type": "uint256"
        }
      ],
      "stateMutability": "view",
      "type": "function"
    },
    {
      "inputs": [],
      "name": "totalSupply",
      "outputs": [
        {
          "internalType": "uint256",
          "name": "",
          "type": "uint256"
        }
      ],
      "stateMutability": "view",
      "type": "function"
    },
    {
      "inputs": [
        {
          "internalType": "address",
          "name": "recipient",
          "type": "address"
        },
        {
          "internalType": "uint256",
          "name": "amount",
          "type": "uint256"
        }
      ],
      "name": "transfer",
      "outputs": [
        {
          "internalType": "bool",
          "name": "",
          "type": "bool"
        }
      ],
      "stateMutability": "nonpayable",
      "type": "function"
    },
    {
      "inputs": [
        {
          "internalType": "address",
          "name": "sender",
          "type": "address"
        },
        {
          "internalType": "address",
          "name": "recipient",
          "type": "address"
        },
        {
          "internalType": "uint256",
          "name": "amount",
          "type": "uint256"
        }
      ],
      "name": "transferFrom",
      "outputs": [
        {
          "internalType": "bool",
          "name": "",
          "type": "bool"
        }
      ],
      "stateMutability": "nonpayable",
      "type": "function"
    },
    {
      "inputs": [
        {
          "internalType": "address",
          "name": "newOwner",
          "type": "address"
        }
      ],
      "name": "transferOwnership",
      "outputs": [],
      "stateMutability": "nonpayable",
      "type": "function"
    },
    {
      "inputs": [
        {
          "internalType": "address",
          "name": "account",
          "type": "address"
        }
      ],
      "name": "unScaledbalanceOf",
      "outputs": [
        {
          "internalType": "uint256",
          "name": "",
          "type": "uint256"
        }
      ],
      "stateMutability": "view",
      "type": "function"
    },
    {
      "inputs": [
        {
          "internalType": "address",
          "name": "newImplementation",
          "type": "address"
        }
      ],
      "name": "upgradeTo",
      "outputs": [],
      "stateMutability": "nonpayable",
      "type": "function"
    },
    {
      "inputs": [
        {
          "internalType": "address",
          "name": "newImplementation",
          "type": "address"
        },
        {
          "internalType": "bytes",
          "name": "data",
          "type": "bytes"
        }
      ],
      "name": "upgradeToAndCall",
      "outputs": [],
      "stateMutability": "payable",
      "type": "function"
    },
    {
      "inputs": [
        {
          "internalType": "uint256",
          "name": "assets",
          "type": "uint256"
        },
        {
          "internalType": "address",
          "name": "receiver",
          "type": "address"
        },
        {
          "internalType": "address",
          "name": "owner_",
          "type": "address"
        }
      ],
      "name": "withdraw",
      "outputs": [
        {
          "internalType": "uint256",
          "name": "",
          "type": "uint256"
        }
      ],
      "stateMutability": "nonpayable",
      "type": "function"
    },
    {
      "inputs": [
        {
          "internalType": "uint256",
          "name": "assets",
          "type": "uint256"
        },
        {
          "internalType": "address",
          "name": "receiver",
          "type": "address"
        },
        {
          "internalType": "address",
          "name": "owner_",
          "type": "address"
        },
        {
          "internalType": "uint256",
          "name": "expiryDate",
          "type": "uint256"
        }
      ],
      "name": "withdrawWithExpiry",
      "outputs": [
        {
          "internalType": "uint256",
          "name": "",
          "type": "uint256"
        }
      ],
      "stateMutability": "nonpayable",
      "type": "function"
    }
  ],
  "bytecode": "0x60a0604052306080523480156200001557600080fd5b506200002062000030565b6200002a62000030565b620000f1565b600054610100900460ff16156200009d5760405162461bcd60e51b815260206004820152602760248201527f496e697469616c697a61626c653a20636f6e747261637420697320696e697469604482015266616c697a696e6760c81b606482015260840160405180910390fd5b60005460ff90811614620000ef576000805460ff191660ff9081179091556040519081527f7f26b83ff96e1f2b6a682f133852f6798a09c465da95921460cefb38474024989060200160405180910390a15b565b60805161562162000129600039600081816114150152818161149a0152818161164b015281816116d00152611b9b01526156216000f3fe6080604052600436106103a25760003560e01c80637ecebe00116101e7578063ba0876521161010d578063d905777e116100a0578063ef8b30f71161006f578063ef8b30f714610428578063f077fd3c146109d5578063f2fde38b146109f5578063fd6064b314610a1557600080fd5b8063d905777e146108f0578063dd62ed3e1461095a578063e2a3cd0b146109a0578063e5812731146109c057600080fd5b8063ce96cb77116100dc578063ce96cb77146108f0578063d505accf14610910578063d69f62e014610930578063d78f09211461094557600080fd5b8063ba087652146108b0578063c3e4eb0f146108d0578063c63d75b6146105e4578063c6e6f5921461042857600080fd5b806394bf804d11610185578063a9059cbb11610154578063a9059cbb14610850578063b1dbfcee14610870578063b3d7f6b914610428578063b460af941461089057600080fd5b806394bf804d146107db57806395d89b41146107fb5780639dc29fac14610810578063a457c2d71461083057600080fd5b80638da5cb5b116101c15780638da5cb5b1461075e5780638f4cef0c1461077c5780638f50bd131461079c578063925d6ba2146107bc57600080fd5b80637ecebe00146106f657806384b0196e1461071657806385f2eac01461073e57600080fd5b80633644e515116102cc578063501639741161026a5780636a300529116102395780636a3005291461068c5780636e553f65146106a157806370a08231146106c1578063715018a6146106e157600080fd5b8063501639741461061757806350921b231461063757806352d1902d146106575780635f758bef1461066c57600080fd5b806339509351116102a657806339509351146105c4578063402d267d146105e45780634cdad506146104285780634f1ef2861461060457600080fd5b80633644e5151461055c5780633659cfe61461057157806338d52e0f1461059157600080fd5b806312cfca3811610344578063275f0ddd11610313578063275f0ddd146104eb57806327a44ed01461050b578063309280091461052b578063313ce5671461054057600080fd5b806312cfca381461047657806316b535f41461049657806318160ddd146104b657806323b872dd146104cb57600080fd5b806306fdde031161038057806306fdde031461040657806307a2d13a14610428578063095ea7b3146104465780630a28a4771461042857600080fd5b806301e1d114146103a7578063030d4ed7146103cf57806305bfee33146103e6575b600080fd5b3480156103b357600080fd5b506103bc610a35565b6040519081526020015b60405180910390f35b3480156103db57600080fd5b506103e4610ab1565b005b3480156103f257600080fd5b506103e4610401366004614db6565b610acc565b34801561041257600080fd5b5061041b610b58565b6040516103c69190614e32565b34801561043457600080fd5b506103bc610443366004614e45565b90565b34801561045257600080fd5b50610466610461366004614db6565b610bea565b60405190151581526020016103c6565b34801561048257600080fd5b506103e4610491366004614f18565b610c04565b3480156104a257600080fd5b506103e46104b1366004614db6565b610e15565b3480156104c257600080fd5b5060cb546103bc565b3480156104d757600080fd5b506104666104e6366004614fc7565b610ea4565b3480156104f757600080fd5b506103e4610506366004615008565b611279565b34801561051757600080fd5b5061016254600160b81b900460ff16610466565b34801561053757600080fd5b506103e46113bc565b34801561054c57600080fd5b50604051601281526020016103c6565b34801561056857600080fd5b506103bc611401565b34801561057d57600080fd5b506103e461058c366004615041565b61140b565b34801561059d57600080fd5b50610196546001600160a01b03165b6040516001600160a01b0390911681526020016103c6565b3480156105d057600080fd5b506104666105df366004614db6565b611586565b3480156105f057600080fd5b506103bc6105ff366004615041565b6115c5565b6103e461061236600461505e565b611641565b34801561062357600080fd5b50610466610632366004615041565b6117a9565b34801561064357600080fd5b506103bc6106523660046150d3565b611890565b34801561066357600080fd5b506103bc611b8e565b34801561067857600080fd5b506103e4610687366004614db6565b611c53565b34801561069857600080fd5b506103e4611c65565b3480156106ad57600080fd5b506103bc6106bc36600461512d565b611caa565b3480156106cd57600080fd5b506103bc6106dc366004615041565b611f06565b3480156106ed57600080fd5b506103e4611fcb565b34801561070257600080fd5b506103bc610711366004615041565b611fdf565b34801561072257600080fd5b5061072b611ffe565b6040516103c69796959493929190615152565b34801561074a57600080fd5b5061016254600160b01b900460ff16610466565b34801561076a57600080fd5b506097546001600160a01b03166105ac565b34801561078857600080fd5b506103bc610797366004615041565b6120a4565b3480156107a857600080fd5b506104666107b7366004615041565b6120c2565b3480156107c857600080fd5b50610195546001600160a01b03166105ac565b3480156107e757600080fd5b506103bc6107f636600461512d565b612164565b34801561080757600080fd5b5061041b6123db565b34801561081c57600080fd5b506103e461082b366004614db6565b6123ea565b34801561083c57600080fd5b5061046661084b366004614db6565b6123fc565b34801561085c57600080fd5b5061046661086b366004614db6565b612499565b34801561087c57600080fd5b5061016254600160a81b900460ff16610466565b34801561089c57600080fd5b506103bc6108ab3660046151e8565b612855565b3480156108bc57600080fd5b506103bc6108cb3660046151e8565b612c2e565b3480156108dc57600080fd5b506103bc6108eb36600461522a565b612fc2565b3480156108fc57600080fd5b506103bc61090b366004615041565b6133d1565b34801561091c57600080fd5b506103e461092b366004615272565b613441565b34801561093c57600080fd5b506103e46135a5565b34801561095157600080fd5b506103e46135da565b34801561096657600080fd5b506103bc610975366004615008565b6001600160a01b03918216600090815260ca6020908152604080832093909416825291909152205490565b3480156109ac57600080fd5b506103bc6109bb3660046152e0565b613615565b3480156109cc57600080fd5b506103e4613894565b3480156109e157600080fd5b506103e46109f0366004615008565b6138d9565b348015610a0157600080fd5b506103e4610a10366004615041565b6139e9565b348015610a2157600080fd5b5061016254600160a01b900460ff16610466565b61019654610195546040516370a0823160e01b81526001600160a01b03918216600482015260009291909116906370a0823190602401602060405180830381865afa158015610a88573d6000803e3d6000fd5b505050506040513d601f19601f82011682018060405250810190610aac9190615307565b905090565b610ab9613a5f565b610162805463ffffffff60a01b19169055565b610ad4613ab9565b61019554610196546040516368939ecf60e11b8152600160a01b90910460ff1615156004820152602481018390526001600160a01b039091169063d1273d9e90604401600060405180830381600087803b158015610b3157600080fd5b505af1158015610b45573d6000803e3d6000fd5b50505050610b538282613aee565b505050565b606060cc8054610b6790615320565b80601f0160208091040260200160405190810160405280929190818152602001828054610b9390615320565b8015610be05780601f10610bb557610100808354040283529160200191610be0565b820191906000526020600020905b815481529060010190602001808311610bc357829003601f168201915b5050505050905090565b600033610bf8818585613b03565b60019150505b92915050565b600054610100900460ff1615808015610c245750600054600160ff909116105b80610c3e5750303b158015610c3e575060005460ff166001145b610cb55760405162461bcd60e51b815260206004820152602e60248201527f496e697469616c697a61626c653a20636f6e747261637420697320616c72656160448201527f647920696e697469616c697a656400000000000000000000000000000000000060648201526084015b60405180910390fd5b6000805460ff191660011790558015610cd8576000805461ff0019166101001790555b610ce28787613c27565b610ceb87613c8a565b610cf484613d06565b610cfc613d82565b610d05826139e9565b610d0d613de3565b61019580546001600160a01b0319166001600160a01b03871690811790915560408051634c566bd360e11b815290516398acd7a6916004808201926020929091908290030181865afa158015610d67573d6000803e3d6000fd5b505050506040513d601f19601f82011682018060405250810190610d8b9190615354565b61019680546001600160a01b039290921674ffffffffffffffffffffffffffffffffffffffffff1990921691909117600160a01b851515021790558015610e0c576000805461ff0019169055604051600181527f7f26b83ff96e1f2b6a682f133852f6798a09c465da95921460cefb38474024989060200160405180910390a15b50505050505050565b610e1d613ab9565b610195546101965460405163566f4d9560e11b8152600160a01b90910460ff16151560048201526001600160a01b038481166024830152604482018490529091169063acde9b2a90606401600060405180830381600087803b158015610e8257600080fd5b505af1158015610e96573d6000803e3d6000fd5b50505050610b538282613e3c565b61016254600090600160b01b900460ff1615610ed357604051630c98e6a160e31b815260040160405180910390fd5b61019560009054906101000a90046001600160a01b03166001600160a01b0316629c185f6040518163ffffffff1660e01b8152600401602060405180830381865afa158015610f26573d6000803e3d6000fd5b505050506040513d601f19601f82011682018060405250810190610f4a9190615371565b15610f68576040516321e3430160e21b815260040160405180910390fd5b61019560009054906101000a90046001600160a01b03166001600160a01b031663533ae1296040518163ffffffff1660e01b8152600401600060405180830381600087803b158015610fb957600080fd5b505af1158015610fcd573d6000803e3d6000fd5b50506101625460405163df592f7d60e01b81526001600160a01b0380881660048301528794509091169150600090829063df592f7d90602401602060405180830381865afa158015611023573d6000803e3d6000fd5b505050506040513d601f19601f820116820180604052508101906110479190615371565b905080156110685760405163108a7eb160e21b815260040160405180910390fd5b6101625460405163df592f7d60e01b81526001600160a01b03808a16600483015289921690600090829063df592f7d90602401602060405180830381865afa1580156110b8573d6000803e3d6000fd5b505050506040513d601f19601f820116820180604052508101906110dc9190615371565b905080156110fd5760405163108a7eb160e21b815260040160405180910390fd5b6111078a8a611279565b6111118a8a6138d9565b61019554604051633524f9e360e21b81526001600160a01b038c811660048301528b81166024830152600092169063d493e78c90604401608060405180830381865afa158015611165573d6000803e3d6000fd5b505050506040513d601f19601f82011682018060405250810190611189919061538e565b905060006111988c8c8c613e48565b61019554610196549192506001600160a01b03169063eec0d656908e908e90600160a01b900460ff168e8760006020020151886001602002015189600260200201518a600360200201516040516001600160e01b031960e08b901b1681526001600160a01b03988916600482015297909616602488015293151560448701526064860192909252608485015260a484015260c483015260e482015261010401600060405180830381600087803b15801561125157600080fd5b505af1158015611265573d6000803e3d6000fd5b50929e9d5050505050505050505050505050565b611282826117a9565b156112e857610195546040516310e7089f60e11b81526001600160a01b038481166004830152909116906321ce113e90602401600060405180830381600087803b1580156112cf57600080fd5b505af11580156112e3573d6000803e3d6000fd5b505050505b61019554604051631605ed3160e31b81526001600160a01b0383811660048301529091169063b02f698890602401600060405180830381600087803b15801561133057600080fd5b505af1158015611344573d6000803e3d6000fd5b50505050611351816117a9565b156113b857610195546040516310e7089f60e11b81526001600160a01b038381166004830152909116906321ce113e906024015b600060405180830381600087803b15801561139f57600080fd5b505af11580156113b3573d6000803e3d6000fd5b505050505b5050565b6113c4613a5f565b61016280547fffffffffffffffff00ffffffffffffffffffffffffffffffffffffffffffffff8116600160b81b9182900460ff1615909102179055565b6000610aac613e61565b6001600160a01b037f00000000000000000000000000000000000000000000000000000000000000001630036114985760405162461bcd60e51b815260206004820152602c60248201527f46756e6374696f6e206d7573742062652063616c6c6564207468726f7567682060448201526b19195b1959d85d1958d85b1b60a21b6064820152608401610cac565b7f00000000000000000000000000000000000000000000000000000000000000006001600160a01b03166114f37f360894a13ba1a3210667c828492db98dca3e2076cc3735a920a3ca505d382bbc546001600160a01b031690565b6001600160a01b03161461155e5760405162461bcd60e51b815260206004820152602c60248201527f46756e6374696f6e206d7573742062652063616c6c6564207468726f7567682060448201526b6163746976652070726f787960a01b6064820152608401610cac565b61156781613e6b565b6040805160008082526020820190925261158391839190613e73565b50565b33600081815260ca602090815260408083206001600160a01b0387168452909152812054909190610bf890829086906115c0908790615422565b613b03565b6101955460405163728bf73360e01b81526001600160a01b038381166004830152600092169063728bf73390602401602060405180830381865afa158015611611573d6000803e3d6000fd5b505050506040513d601f19601f820116820180604052508101906116359190615307565b610bfe90600019615435565b6001600160a01b037f00000000000000000000000000000000000000000000000000000000000000001630036116ce5760405162461bcd60e51b815260206004820152602c60248201527f46756e6374696f6e206d7573742062652063616c6c6564207468726f7567682060448201526b19195b1959d85d1958d85b1b60a21b6064820152608401610cac565b7f00000000000000000000000000000000000000000000000000000000000000006001600160a01b03166117297f360894a13ba1a3210667c828492db98dca3e2076cc3735a920a3ca505d382bbc546001600160a01b031690565b6001600160a01b0316146117945760405162461bcd60e51b815260206004820152602c60248201527f46756e6374696f6e206d7573742062652063616c6c6564207468726f7567682060448201526b6163746976652070726f787960a01b6064820152608401610cac565b61179d82613e6b565b6113b882826001613e73565b6101955460408051638df4541b60e01b815290516000926001600160a01b031691638df4541b9160048083019260209291908290030181865afa1580156117f4573d6000803e3d6000fd5b505050506040513d601f19601f820116820180604052508101906118189190615307565b6101955460405163a129c84760e01b81526001600160a01b0385811660048301529091169063a129c847906024015b602060405180830381865afa158015611864573d6000803e3d6000fd5b505050506040513d601f19601f820116820180604052508101906118889190615307565b141592915050565b61016254600090600160a01b900460ff16156118bf57604051636822eceb60e11b815260040160405180910390fd5b61019560009054906101000a90046001600160a01b03166001600160a01b0316629c185f6040518163ffffffff1660e01b8152600401602060405180830381865afa158015611912573d6000803e3d6000fd5b505050506040513d601f19601f820116820180604052508101906119369190615371565b15611954576040516321e3430160e21b815260040160405180910390fd5b61019560009054906101000a90046001600160a01b03166001600160a01b031663533ae1296040518163ffffffff1660e01b8152600401600060405180830381600087803b1580156119a557600080fd5b505af11580156119b9573d6000803e3d6000fd5b505061019554604051634eacc0fd60e01b8152600481018b90528a93506001600160a01b039091169150634eacc0fd906024016020604051808303816000875af1158015611a0b573d6000803e3d6000fd5b505050506040513d601f19601f82011682018060405250810190611a2f9190615371565b15611a4d5760405163b04c001160e01b815260040160405180910390fd5b8787611a598282613fff565b60008a610196549091506001600160a01b031663d505accf336101955460405160e084901b6001600160e01b03191681526001600160a01b0392831660048201529116602482015260448101849052606481018c905260ff8b16608482015260a481018a905260c4810189905260e401600060405180830381600087803b158015611ae357600080fd5b505af1158015611af7573d6000803e3d6000fd5b5050610195546001600160a01b0316915063c14cfe099050336040516001600160e01b031960e084901b1681526001600160a01b039182166004820152908d166024820152604481018e905260648101849052608401600060405180830381600087803b158015611b6757600080fd5b505af1158015611b7b573d6000803e3d6000fd5b50929d9c50505050505050505050505050565b6000306001600160a01b037f00000000000000000000000000000000000000000000000000000000000000001614611c2e5760405162461bcd60e51b815260206004820152603860248201527f555550535570677261646561626c653a206d757374206e6f742062652063616c60448201527f6c6564207468726f7567682064656c656761746563616c6c00000000000000006064820152608401610cac565b507f360894a13ba1a3210667c828492db98dca3e2076cc3735a920a3ca505d382bbc90565b611c5b613ab9565b6113b88282614049565b611c6d613a5f565b61016280547fffffffffffffffffff00ffffffffffffffffffffffffffffffffffffffffffff8116600160b01b9182900460ff1615909102179055565b61016254600090600160a01b900460ff1615611cd957604051636822eceb60e11b815260040160405180910390fd5b61019560009054906101000a90046001600160a01b03166001600160a01b0316629c185f6040518163ffffffff1660e01b8152600401602060405180830381865afa158015611d2c573d6000803e3d6000fd5b505050506040513d601f19601f82011682018060405250810190611d509190615371565b15611d6e576040516321e3430160e21b815260040160405180910390fd5b61019560009054906101000a90046001600160a01b03166001600160a01b031663533ae1296040518163ffffffff1660e01b8152600401600060405180830381600087803b158015611dbf57600080fd5b505af1158015611dd3573d6000803e3d6000fd5b505061019554604051634eacc0fd60e01b8152600481018790528693506001600160a01b039091169150634eacc0fd906024016020604051808303816000875af1158015611e25573d6000803e3d6000fd5b505050506040513d601f19601f82011682018060405250810190611e499190615371565b15611e675760405163b04c001160e01b815260040160405180910390fd5b8383611e738282613fff565b600086610195549091506001600160a01b031663c14cfe09336040516001600160e01b031960e084901b1681526001600160a01b0391821660048201529089166024820152604481018a905260648101849052608401600060405180830381600087803b158015611ee357600080fd5b505af1158015611ef7573d6000803e3d6000fd5b50929998505050505050505050565b6000611f11826120c2565b80611f205750611f20826117a9565b15611fbd576101955460405163a4d96e1760e01b81526001600160a01b038481166004830152600092839291169063a4d96e17906024016040805180830381865afa158015611f73573d6000803e3d6000fd5b505050506040513d601f19601f82011682018060405250810190611f979190615448565b610196549193509150600160a01b900460ff1615611fb6575092915050565b9392505050565b610bfe826120a4565b919050565b611fd3613a5f565b611fdd600061410a565b565b6001600160a01b038116600090815261012f6020526040812054610bfe565b60006060806000806000606060fb546000801b14801561201e575060fc54155b61206a5760405162461bcd60e51b815260206004820152601560248201527f4549503731323a20556e696e697469616c697a656400000000000000000000006044820152606401610cac565b61207261415c565b61207a61416b565b60408051600080825260208201909252600f60f81b9b939a50919850469750309650945092509050565b6001600160a01b038116600090815260c96020526040812054610bfe565b6101955460408051636ee545fd60e11b815290516000926001600160a01b03169163ddca8bfa9160048083019260209291908290030181865afa15801561210d573d6000803e3d6000fd5b505050506040513d601f19601f820116820180604052508101906121319190615307565b610195546040516325ad47ab60e21b81526001600160a01b038581166004830152909116906396b51eac90602401611847565b61016254600090600160a01b900460ff161561219357604051636822eceb60e11b815260040160405180910390fd5b61019560009054906101000a90046001600160a01b03166001600160a01b0316629c185f6040518163ffffffff1660e01b8152600401602060405180830381865afa1580156121e6573d6000803e3d6000fd5b505050506040513d601f19601f8201168201806040525081019061220a9190615371565b15612228576040516321e3430160e21b815260040160405180910390fd5b61019560009054906101000a90046001600160a01b03166001600160a01b031663533ae1296040518163ffffffff1660e01b8152600401600060405180830381600087803b15801561227957600080fd5b505af115801561228d573d6000803e3d6000fd5b505061019554604051634eacc0fd60e01b8152600481018790528693506001600160a01b039091169150634eacc0fd906024016020604051808303816000875af11580156122df573d6000803e3d6000fd5b505050506040513d601f19601f820116820180604052508101906123039190615371565b156123215760405163b04c001160e01b815260040160405180910390fd5b61232a836115c5565b84111561234a5760405163292b120160e01b815260040160405180910390fd5b600084610195549091506001600160a01b031663c14cfe09336040516001600160e01b031960e084901b1681526001600160a01b03918216600482015290871660248201526044810184905260648101889052608401600060405180830381600087803b1580156123ba57600080fd5b505af11580156123ce573d6000803e3d6000fd5b5092979650505050505050565b606060cd8054610b6790615320565b6123f2613ab9565b6113b8828261417a565b33600081815260ca602090815260408083206001600160a01b0387168452909152812054909190838110156124815760405162461bcd60e51b815260206004820152602560248201527f45524332303a2064656372656173656420616c6c6f77616e63652062656c6f77604482015264207a65726f60d81b6064820152608401610cac565b61248e8286868403613b03565b506001949350505050565b61016254600090600160b01b900460ff16156124c857604051630c98e6a160e31b815260040160405180910390fd5b61019560009054906101000a90046001600160a01b03166001600160a01b0316629c185f6040518163ffffffff1660e01b8152600401602060405180830381865afa15801561251b573d6000803e3d6000fd5b505050506040513d601f19601f8201168201806040525081019061253f9190615371565b1561255d576040516321e3430160e21b815260040160405180910390fd5b6101625460405163df592f7d60e01b81526001600160a01b03808616600483015285921690600090829063df592f7d90602401602060405180830381865afa1580156125ad573d6000803e3d6000fd5b505050506040513d601f19601f820116820180604052508101906125d19190615371565b905080156125f25760405163108a7eb160e21b815260040160405180910390fd5b336101625460405163df592f7d60e01b81526001600160a01b03838116600483015290911690600090829063df592f7d90602401602060405180830381865afa158015612643573d6000803e3d6000fd5b505050506040513d601f19601f820116820180604052508101906126679190615371565b905080156126885760405163108a7eb160e21b815260040160405180910390fd5b61019560009054906101000a90046001600160a01b03166001600160a01b031663533ae1296040518163ffffffff1660e01b8152600401600060405180830381600087803b1580156126d957600080fd5b505af11580156126ed573d6000803e3d6000fd5b505050506127016126fb3390565b8a611279565b61270b338a6138d9565b610195546000906001600160a01b031663d493e78c336040516001600160e01b031960e084901b1681526001600160a01b039182166004820152908d166024820152604401608060405180830381865afa15801561276d573d6000803e3d6000fd5b505050506040513d601f19601f82011682018060405250810190612791919061538e565b9050600061279f8b8b6142ae565b610195549091506001600160a01b031663eec0d65633610196548e90600160a01b900460ff168e8760006020020151886001602002015189600260200201518a600360200201516040516001600160e01b031960e08b901b1681526001600160a01b03988916600482015297909616602488015293151560448701526064860192909252608485015260a484015260c483015260e482015261010401600060405180830381600087803b158015611b6757600080fd5b61016254600090600160a81b900460ff161561288457604051636344d7b760e11b815260040160405180910390fd5b61019560009054906101000a90046001600160a01b03166001600160a01b0316629c185f6040518163ffffffff1660e01b8152600401602060405180830381865afa1580156128d7573d6000803e3d6000fd5b505050506040513d601f19601f820116820180604052508101906128fb9190615371565b15612919576040516321e3430160e21b815260040160405180910390fd5b61019560009054906101000a90046001600160a01b03166001600160a01b031663533ae1296040518163ffffffff1660e01b8152600401600060405180830381600087803b15801561296a57600080fd5b505af115801561297e573d6000803e3d6000fd5b50506101955460405163cf0571d360e01b8152600481018890528793506001600160a01b03909116915063cf0571d3906024016020604051808303816000875af11580156129d0573d6000803e3d6000fd5b505050506040513d601f19601f820116820180604052508101906129f49190615371565b15612a125760405163922c089560e01b815260040160405180910390fd5b82612a1c816142bc565b612a246142e5565b61019560009054906101000a90046001600160a01b03166001600160a01b031663ddca8bfa6040518163ffffffff1660e01b8152600401602060405180830381865afa158015612a78573d6000803e3d6000fd5b505050506040513d601f19601f82011682018060405250810190612a9c9190615307565b610195546040516325ad47ab60e21b81526001600160a01b038881166004830152909116906396b51eac90602401602060405180830381865afa158015612ae7573d6000803e3d6000fd5b505050506040513d601f19601f82011682018060405250810190612b0b9190615307565b14612b71576101955460405163242ffe5560e11b81526001600160a01b0387811660048301529091169063485ffcaa90602401600060405180830381600087803b158015612b5857600080fd5b505af1158015612b6c573d6000803e3d6000fd5b505050505b612b7a846133d1565b861115612b9a5760405163039eea9760e31b815260040160405180910390fd5b61019554604051633d82850b60e01b81523360048201526001600160a01b0387811660248301528681166044830152606482018990526084820189905288921690633d82850b9060a4015b600060405180830381600087803b158015612bff57600080fd5b505af1158015612c13573d6000803e3d6000fd5b50929550505050612c25600161016355565b50509392505050565b61016254600090600160a81b900460ff1615612c5d57604051636344d7b760e11b815260040160405180910390fd5b61019560009054906101000a90046001600160a01b03166001600160a01b0316629c185f6040518163ffffffff1660e01b8152600401602060405180830381865afa158015612cb0573d6000803e3d6000fd5b505050506040513d601f19601f82011682018060405250810190612cd49190615371565b15612cf2576040516321e3430160e21b815260040160405180910390fd5b61019560009054906101000a90046001600160a01b03166001600160a01b031663533ae1296040518163ffffffff1660e01b8152600401600060405180830381600087803b158015612d4357600080fd5b505af1158015612d57573d6000803e3d6000fd5b50506101955460405163cf0571d360e01b8152600481018890528793506001600160a01b03909116915063cf0571d3906024016020604051808303816000875af1158015612da9573d6000803e3d6000fd5b505050506040513d601f19601f82011682018060405250810190612dcd9190615371565b15612deb5760405163922c089560e01b815260040160405180910390fd5b82612df5816142bc565b612dfd6142e5565b61019560009054906101000a90046001600160a01b03166001600160a01b031663ddca8bfa6040518163ffffffff1660e01b8152600401602060405180830381865afa158015612e51573d6000803e3d6000fd5b505050506040513d601f19601f82011682018060405250810190612e759190615307565b610195546040516325ad47ab60e21b81526001600160a01b038881166004830152909116906396b51eac90602401602060405180830381865afa158015612ec0573d6000803e3d6000fd5b505050506040513d601f19601f82011682018060405250810190612ee49190615307565b14612f4a576101955460405163242ffe5560e11b81526001600160a01b0387811660048301529091169063485ffcaa90602401600060405180830381600087803b158015612f3157600080fd5b505af1158015612f45573d6000803e3d6000fd5b505050505b612f53846133d1565b861115612f73576040516389e4c16360e01b815260040160405180910390fd5b61019554604051633d82850b60e01b81523360048201526001600160a01b0387811660248301528681166044830152606482018990526084820189905288921690633d82850b9060a401612be5565b60008142811015612fe6576040516377a5c22160e11b815260040160405180910390fd5b61016254600160a81b900460ff161561301257604051636344d7b760e11b815260040160405180910390fd5b61019560009054906101000a90046001600160a01b03166001600160a01b0316629c185f6040518163ffffffff1660e01b8152600401602060405180830381865afa158015613065573d6000803e3d6000fd5b505050506040513d601f19601f820116820180604052508101906130899190615371565b156130a7576040516321e3430160e21b815260040160405180910390fd5b61019560009054906101000a90046001600160a01b03166001600160a01b031663533ae1296040518163ffffffff1660e01b8152600401600060405180830381600087803b1580156130f857600080fd5b505af115801561310c573d6000803e3d6000fd5b50506101955460405163cf0571d360e01b8152600481018a90528993506001600160a01b03909116915063cf0571d3906024016020604051808303816000875af115801561315e573d6000803e3d6000fd5b505050506040513d601f19601f820116820180604052508101906131829190615371565b156131a05760405163922c089560e01b815260040160405180910390fd5b846131aa816142bc565b6131b26142e5565b61019560009054906101000a90046001600160a01b03166001600160a01b031663ddca8bfa6040518163ffffffff1660e01b8152600401602060405180830381865afa158015613206573d6000803e3d6000fd5b505050506040513d601f19601f8201168201806040525081019061322a9190615307565b610195546040516325ad47ab60e21b81526001600160a01b038a81166004830152909116906396b51eac90602401602060405180830381865afa158015613275573d6000803e3d6000fd5b505050506040513d601f19601f820116820180604052508101906132999190615307565b146132ff576101955460405163242ffe5560e11b81526001600160a01b0389811660048301529091169063485ffcaa90602401600060405180830381600087803b1580156132e657600080fd5b505af11580156132fa573d6000803e3d6000fd5b505050505b613308866133d1565b8811156133285760405163039eea9760e31b815260040160405180910390fd5b600088610195549091506001600160a01b0316633d82850b336040516001600160e01b031960e084901b1681526001600160a01b039182166004820152818c166024820152908a166044820152606481018c90526084810184905260a401600060405180830381600087803b1580156133a057600080fd5b505af11580156133b4573d6000803e3d6000fd5b509296505050506133c6600161016355565b505050949350505050565b610195546040516306443f4560e51b81526001600160a01b038381166004830152600092169063c887e8a090602401602060405180830381865afa15801561341d573d6000803e3d6000fd5b505050506040513d601f19601f82011682018060405250810190610bfe9190615307565b834211156134915760405162461bcd60e51b815260206004820152601d60248201527f45524332305065726d69743a206578706972656420646561646c696e650000006044820152606401610cac565b60007f6e71edae12b1b97f4d1f60370fef10105fa2faae0126114a169c64845d6126c98888886134c08c614340565b6040805160208101969096526001600160a01b0394851690860152929091166060840152608083015260a082015260c0810186905260e001604051602081830303815290604052805190602001209050600061351b82614369565b9050600061352b82878787614396565b9050896001600160a01b0316816001600160a01b03161461358e5760405162461bcd60e51b815260206004820152601e60248201527f45524332305065726d69743a20696e76616c6964207369676e617475726500006044820152606401610cac565b6135998a8a8a613b03565b50505050505050505050565b6135ad613a5f565b610162805463ffffffff60a01b191677010101010000000000000000000000000000000000000000179055565b6135e2613a5f565b610162805474ff0000000000000000000000000000000000000000198116600160a01b9182900460ff1615909102179055565b60008142811015613639576040516377a5c22160e11b815260040160405180910390fd5b61016254600160a01b900460ff161561366557604051636822eceb60e11b815260040160405180910390fd5b61019560009054906101000a90046001600160a01b03166001600160a01b0316629c185f6040518163ffffffff1660e01b8152600401602060405180830381865afa1580156136b8573d6000803e3d6000fd5b505050506040513d601f19601f820116820180604052508101906136dc9190615371565b156136fa576040516321e3430160e21b815260040160405180910390fd5b61019560009054906101000a90046001600160a01b03166001600160a01b031663533ae1296040518163ffffffff1660e01b8152600401600060405180830381600087803b15801561374b57600080fd5b505af115801561375f573d6000803e3d6000fd5b505061019554604051634eacc0fd60e01b8152600481018990528893506001600160a01b039091169150634eacc0fd906024016020604051808303816000875af11580156137b1573d6000803e3d6000fd5b505050506040513d601f19601f820116820180604052508101906137d59190615371565b156137f35760405163b04c001160e01b815260040160405180910390fd5b85856137ff8282613fff565b600088610195549091506001600160a01b031663c14cfe09336040516001600160e01b031960e084901b1681526001600160a01b039182166004820152908b166024820152604481018c905260648101849052608401600060405180830381600087803b15801561386f57600080fd5b505af1158015613883573d6000803e3d6000fd5b50929b9a5050505050505050505050565b61389c613a5f565b61016280547fffffffffffffffffffff00ffffffffffffffffffffffffffffffffffffffffff8116600160a81b9182900460ff1615909102179055565b6138e2826120c2565b15613948576101955460405163242ffe5560e11b81526001600160a01b0384811660048301529091169063485ffcaa90602401600060405180830381600087803b15801561392f57600080fd5b505af1158015613943573d6000803e3d6000fd5b505050505b61019554604051635737ed7d60e01b81526001600160a01b03838116600483015290911690635737ed7d90602401600060405180830381600087803b15801561399057600080fd5b505af11580156139a4573d6000803e3d6000fd5b505050506139b1816120c2565b156113b8576101955460405163242ffe5560e11b81526001600160a01b0383811660048301529091169063485ffcaa90602401611385565b6139f1613a5f565b6001600160a01b038116613a565760405162461bcd60e51b815260206004820152602660248201527f4f776e61626c653a206e6577206f776e657220697320746865207a65726f206160448201526564647265737360d01b6064820152608401610cac565b6115838161410a565b6097546001600160a01b03163314611fdd5760405162461bcd60e51b815260206004820181905260248201527f4f776e61626c653a2063616c6c6572206973206e6f7420746865206f776e65726044820152606401610cac565b610195546001600160a01b0316336001600160a01b031614611fdd5760405163e565d9cb60e01b815260040160405180910390fd5b6000613afa83836143c0565b50600192915050565b6001600160a01b038316613b655760405162461bcd60e51b8152602060048201526024808201527f45524332303a20617070726f76652066726f6d20746865207a65726f206164646044820152637265737360e01b6064820152608401610cac565b6001600160a01b038216613bc65760405162461bcd60e51b815260206004820152602260248201527f45524332303a20617070726f766520746f20746865207a65726f206164647265604482015261737360f01b6064820152608401610cac565b6001600160a01b03838116600081815260ca602090815260408083209487168084529482529182902085905590518481527f8c5be1e5ebec7d5bd14f71427d1e84f3dd0314c0f7b2291e5b200ac8c7c3b925910160405180910390a3505050565b600054610100900460ff16613c805760405162461bcd60e51b815260206004820152602b60248201526000805160206155a583398151915260448201526a6e697469616c697a696e6760a81b6064820152608401610cac565b6113b88282614438565b600054610100900460ff16613ce35760405162461bcd60e51b815260206004820152602b60248201526000805160206155a583398151915260448201526a6e697469616c697a696e6760a81b6064820152608401610cac565b61158381604051806040016040528060018152602001603160f81b8152506144aa565b600054610100900460ff16613d5f5760405162461bcd60e51b815260206004820152602b60248201526000805160206155a583398151915260448201526a6e697469616c697a696e6760a81b6064820152608401610cac565b61016280546001600160a01b0319166001600160a01b0392909216919091179055565b600054610100900460ff16613ddb5760405162461bcd60e51b815260206004820152602b60248201526000805160206155a583398151915260448201526a6e697469616c697a696e6760a81b6064820152608401610cac565b611fdd61452b565b600054610100900460ff16611fdd5760405162461bcd60e51b815260206004820152602b60248201526000805160206155a583398151915260448201526a6e697469616c697a696e6760a81b6064820152608401610cac565b6000613afa838361458d565b600033613e568582856145ff565b61248e858585614691565b6000610aac61483c565b611583613a5f565b7f4910fdfa16fed3260ed0e7147f7cc6da11a60208b5b9406d12a635614ffd91435460ff1615613ea657610b53836148b0565b826001600160a01b03166352d1902d6040518163ffffffff1660e01b8152600401602060405180830381865afa925050508015613f00575060408051601f3d908101601f19168201909252613efd91810190615307565b60015b613f725760405162461bcd60e51b815260206004820152602e60248201527f45524331393637557067726164653a206e657720696d706c656d656e7461746960448201527f6f6e206973206e6f7420555550530000000000000000000000000000000000006064820152608401610cac565b7f360894a13ba1a3210667c828492db98dca3e2076cc3735a920a3ca505d382bbc8114613ff35760405162461bcd60e51b815260206004820152602960248201527f45524331393637557067726164653a20756e737570706f727465642070726f786044820152681a58589b195555525160ba1b6064820152608401610cac565b50610b5383838361496e565b81600003614020576040516303e3e43960e51b815260040160405180910390fd5b614029816115c5565b8211156113b8576040516314a4b53560e01b815260040160405180910390fd5b6001600160a01b03821661409f5760405162461bcd60e51b815260206004820152601f60248201527f45524332303a206d696e7420746f20746865207a65726f2061646472657373006044820152606401610cac565b8060cb60008282546140b19190615422565b90915550506001600160a01b038216600081815260c960209081526040808320805486019055518481527fddf252ad1be2c89b69c2b068fc378daa952ba7f163c4a11628f55a4df523b3ef910160405180910390a35050565b609780546001600160a01b038381166001600160a01b0319831681179093556040519116919082907f8be0079c531659141344cd1fd0a4f28419497f9722a3daafe3b4186f6b6457e090600090a35050565b606060fd8054610b6790615320565b606060fe8054610b6790615320565b6001600160a01b0382166141da5760405162461bcd60e51b815260206004820152602160248201527f45524332303a206275726e2066726f6d20746865207a65726f206164647265736044820152607360f81b6064820152608401610cac565b6001600160a01b038216600090815260c960205260409020548181101561424e5760405162461bcd60e51b815260206004820152602260248201527f45524332303a206275726e20616d6f756e7420657863656564732062616c616e604482015261636560f01b6064820152608401610cac565b6001600160a01b038316600081815260c960209081526040808320868603905560cb80548790039055518581529192917fddf252ad1be2c89b69c2b068fc378daa952ba7f163c4a11628f55a4df523b3ef910160405180910390a3505050565b600033610bf8818585614691565b6001600160a01b038116331461158357604051637a45e68560e01b815260040160405180910390fd5b600261016354036143385760405162461bcd60e51b815260206004820152601f60248201527f5265656e7472616e637947756172643a207265656e7472616e742063616c6c006044820152606401610cac565b600261016355565b6001600160a01b038116600090815261012f602052604090208054600181018255905b50919050565b6000610bfe614376613e61565b8360405161190160f01b8152600281019290925260228201526042902090565b60008060006143a787878787614993565b915091506143b481614a57565b5090505b949350505050565b6001600160a01b0382166144165760405162461bcd60e51b815260206004820152601c60248201527f54726561737572792063616e6e6f74206265207a65726f2061646472000000006044820152606401610cac565b6001600160a01b03909116600090815260c96020526040902080549091019055565b600054610100900460ff166144915760405162461bcd60e51b815260206004820152602b60248201526000805160206155a583398151915260448201526a6e697469616c697a696e6760a81b6064820152608401610cac565b60cc61449d83826154b2565b5060cd610b5382826154b2565b600054610100900460ff166145035760405162461bcd60e51b815260206004820152602b60248201526000805160206155a583398151915260448201526a6e697469616c697a696e6760a81b6064820152608401610cac565b60fd61450f83826154b2565b5060fe61451c82826154b2565b5050600060fb81905560fc5550565b600054610100900460ff166145845760405162461bcd60e51b815260206004820152602b60248201526000805160206155a583398151915260448201526a6e697469616c697a696e6760a81b6064820152608401610cac565b611fdd3361410a565b6001600160a01b0382166145e35760405162461bcd60e51b815260206004820152601b60248201527f416464726573732063616e6e6f74206265207a65726f206164647200000000006044820152606401610cac565b6001600160a01b03909116600090815260c96020526040902055565b6001600160a01b03838116600090815260ca6020908152604080832093861683529290522054600019811461468b578181101561467e5760405162461bcd60e51b815260206004820152601d60248201527f45524332303a20696e73756666696369656e7420616c6c6f77616e63650000006044820152606401610cac565b61468b8484848403613b03565b50505050565b6001600160a01b0383166146f55760405162461bcd60e51b815260206004820152602560248201527f45524332303a207472616e736665722066726f6d20746865207a65726f206164604482015264647265737360d81b6064820152608401610cac565b6001600160a01b0382166147575760405162461bcd60e51b815260206004820152602360248201527f45524332303a207472616e7366657220746f20746865207a65726f206164647260448201526265737360e81b6064820152608401610cac565b6001600160a01b038316600090815260c96020526040902054818110156147cf5760405162461bcd60e51b815260206004820152602660248201527f45524332303a207472616e7366657220616d6f756e7420657863656564732062604482015265616c616e636560d01b6064820152608401610cac565b6001600160a01b03808516600081815260c9602052604080822086860390559286168082529083902080548601905591517fddf252ad1be2c89b69c2b068fc378daa952ba7f163c4a11628f55a4df523b3ef9061482f9086815260200190565b60405180910390a361468b565b60007f8b73c3c69bb8fe3d512ecc4cf759cc79239f7b179b0ffacaa9a75d522b39400f614867614ba1565b61486f614bfa565b60408051602081019490945283019190915260608201524660808201523060a082015260c00160405160208183030381529060405280519060200120905090565b6001600160a01b0381163b61492d5760405162461bcd60e51b815260206004820152602d60248201527f455243313936373a206e657720696d706c656d656e746174696f6e206973206e60448201527f6f74206120636f6e7472616374000000000000000000000000000000000000006064820152608401610cac565b7f360894a13ba1a3210667c828492db98dca3e2076cc3735a920a3ca505d382bbc80546001600160a01b0319166001600160a01b0392909216919091179055565b61497783614c2b565b6000825111806149845750805b15610b535761468b8383614c6b565b6000807f7fffffffffffffffffffffffffffffff5d576e7357a4501ddfe92f46681b20a08311156149ca5750600090506003614a4e565b6040805160008082526020820180845289905260ff881692820192909252606081018690526080810185905260019060a0016020604051602081039080840390855afa158015614a1e573d6000803e3d6000fd5b5050604051601f1901519150506001600160a01b038116614a4757600060019250925050614a4e565b9150600090505b94509492505050565b6000816004811115614a6b57614a6b615572565b03614a735750565b6001816004811115614a8757614a87615572565b03614ad45760405162461bcd60e51b815260206004820152601860248201527f45434453413a20696e76616c6964207369676e617475726500000000000000006044820152606401610cac565b6002816004811115614ae857614ae8615572565b03614b355760405162461bcd60e51b815260206004820152601f60248201527f45434453413a20696e76616c6964207369676e6174757265206c656e677468006044820152606401610cac565b6003816004811115614b4957614b49615572565b036115835760405162461bcd60e51b815260206004820152602260248201527f45434453413a20696e76616c6964207369676e6174757265202773272076616c604482015261756560f01b6064820152608401610cac565b600080614bac61415c565b805190915015614bc3578051602090910120919050565b60fb548015614bd25792915050565b7fc5d2460186f7233c927e7db2dcc703c0e500b653ca82273b7bfad8045d85a4709250505090565b600080614c0561416b565b805190915015614c1c578051602090910120919050565b60fc548015614bd25792915050565b614c34816148b0565b6040516001600160a01b038216907fbc7cd75a20ee27fd9adebab32041f755214dbc6bffa90cc0225b39da2e5c2d3b90600090a250565b6060611fb683836040518060600160405280602781526020016155c5602791396060600080856001600160a01b031685604051614ca89190615588565b600060405180830381855af49150503d8060008114614ce3576040519150601f19603f3d011682016040523d82523d6000602084013e614ce8565b606091505b5091509150614cf986838387614d03565b9695505050505050565b60608315614d72578251600003614d6b576001600160a01b0385163b614d6b5760405162461bcd60e51b815260206004820152601d60248201527f416464726573733a2063616c6c20746f206e6f6e2d636f6e74726163740000006044820152606401610cac565b50816143b8565b6143b88383815115614d875781518083602001fd5b8060405162461bcd60e51b8152600401610cac9190614e32565b6001600160a01b038116811461158357600080fd5b60008060408385031215614dc957600080fd5b8235614dd481614da1565b946020939093013593505050565b60005b83811015614dfd578181015183820152602001614de5565b50506000910152565b60008151808452614e1e816020860160208601614de2565b601f01601f19169290920160200192915050565b602081526000611fb66020830184614e06565b600060208284031215614e5757600080fd5b5035919050565b634e487b7160e01b600052604160045260246000fd5b600067ffffffffffffffff80841115614e8f57614e8f614e5e565b604051601f8501601f19908116603f01168101908282118183101715614eb757614eb7614e5e565b81604052809350858152868686011115614ed057600080fd5b858560208301376000602087830101525050509392505050565b600082601f830112614efb57600080fd5b611fb683833560208501614e74565b801515811461158357600080fd5b60008060008060008060c08789031215614f3157600080fd5b863567ffffffffffffffff80821115614f4957600080fd5b614f558a838b01614eea565b97506020890135915080821115614f6b57600080fd5b50614f7889828a01614eea565b9550506040870135614f8981614da1565b93506060870135614f9981614da1565b92506080870135614fa981614f0a565b915060a0870135614fb981614da1565b809150509295509295509295565b600080600060608486031215614fdc57600080fd5b8335614fe781614da1565b92506020840135614ff781614da1565b929592945050506040919091013590565b6000806040838503121561501b57600080fd5b823561502681614da1565b9150602083013561503681614da1565b809150509250929050565b60006020828403121561505357600080fd5b8135611fb681614da1565b6000806040838503121561507157600080fd5b823561507c81614da1565b9150602083013567ffffffffffffffff81111561509857600080fd5b8301601f810185136150a957600080fd5b6150b885823560208401614e74565b9150509250929050565b803560ff81168114611fc657600080fd5b60008060008060008060c087890312156150ec57600080fd5b8635955060208701356150fe81614da1565b945060408701359350615113606088016150c2565b92506080870135915060a087013590509295509295509295565b6000806040838503121561514057600080fd5b82359150602083013561503681614da1565b60ff60f81b881681526000602060e08184015261517260e084018a614e06565b8381036040850152615184818a614e06565b606085018990526001600160a01b038816608086015260a0850187905284810360c0860152855180825283870192509083019060005b818110156151d6578351835292840192918401916001016151ba565b50909c9b505050505050505050505050565b6000806000606084860312156151fd57600080fd5b83359250602084013561520f81614da1565b9150604084013561521f81614da1565b809150509250925092565b6000806000806080858703121561524057600080fd5b84359350602085013561525281614da1565b9250604085013561526281614da1565b9396929550929360600135925050565b600080600080600080600060e0888a03121561528d57600080fd5b873561529881614da1565b965060208801356152a881614da1565b955060408801359450606088013593506152c4608089016150c2565b925060a0880135915060c0880135905092959891949750929550565b6000806000606084860312156152f557600080fd5b833592506020840135614ff781614da1565b60006020828403121561531957600080fd5b5051919050565b600181811c9082168061533457607f821691505b60208210810361436357634e487b7160e01b600052602260045260246000fd5b60006020828403121561536657600080fd5b8151611fb681614da1565b60006020828403121561538357600080fd5b8151611fb681614f0a565b6000608082840312156153a057600080fd5b82601f8301126153af57600080fd5b6040516080810181811067ffffffffffffffff821117156153d2576153d2614e5e565b6040528060808401858111156153e757600080fd5b845b818110156154015780518352602092830192016153e9565b509195945050505050565b634e487b7160e01b600052601160045260246000fd5b80820180821115610bfe57610bfe61540c565b81810381811115610bfe57610bfe61540c565b6000806040838503121561545b57600080fd5b505080516020909101519092909150565b601f821115610b5357600081815260208120601f850160051c810160208610156154935750805b601f850160051c820191505b818110156113b35782815560010161549f565b815167ffffffffffffffff8111156154cc576154cc614e5e565b6154e0816154da8454615320565b8461546c565b602080601f83116001811461551557600084156154fd5750858301515b600019600386901b1c1916600185901b1785556113b3565b600085815260208120601f198616915b8281101561554457888601518255948401946001909101908401615525565b50858210156155625787850151600019600388901b60f8161c191681555b5050505050600190811b01905550565b634e487b7160e01b600052602160045260246000fd5b6000825161559a818460208701614de2565b919091019291505056fe496e697469616c697a61626c653a20636f6e7472616374206973206e6f742069416464726573733a206c6f772d6c6576656c2064656c65676174652063616c6c206661696c6564a26469706673582212205bcbc7050f9fba9e153b69839edaa66c31ded7ad6206334ccf3ad4621253236164736f6c63430008110033",
  "linkReferences": {},
  "deployedLinkReferences": {}
}