{
  "_format": "hh-sol-artifact-1",
  "contractName": "SmartToken",
  "sourceName": "contracts/vaults/SmartToken.sol",
  "abi": [
    {
      "inputs": [],
      "stateMutability": "nonpayable",
      "type": "constructor"
    },
    {
      "inputs": [],
      "name": "BaseContract__DepositCircuitBreaker",
      "type": "error"
    },
    {
      "inputs": [],
      "name": "BaseContract__FlashLoanCircuitBreaker",
      "type": "error"
    },
    {
      "inputs": [],
      "name": "BaseContract__RebalanceCircuitBreaker",
      "type": "error"
    },
    {
      "inputs": [],
      "name": "BaseContract__SanctionedAddress",
      "type": "error"
    },
    {
      "inputs": [],
      "name": "BaseContract__TransferCircuitBreaker",
      "type": "error"
    },
    {
      "inputs": [],
      "name": "BaseContract__WithdrawCircuitBreaker",
      "type": "error"
    },
    {
      "inputs": [],
      "name": "FlashLoan__FailedExecOps",
      "type": "error"
    },
    {
      "inputs": [],
      "name": "FlashLoan__FailedRepayments",
      "type": "error"
    },
    {
      "inputs": [],
      "name": "FlashLoan__InsufficientUnderlying",
      "type": "error"
    },
    {
      "inputs": [],
      "name": "FlashLoan__InvalidReceiver",
      "type": "error"
    },
    {
      "inputs": [],
      "name": "SmartToken__DepositLimitHit",
      "type": "error"
    },
    {
      "inputs": [],
      "name": "SmartToken__DepositMoreThanMax",
      "type": "error"
    },
    {
      "inputs": [],
      "name": "SmartToken__ExpiryDateReached",
      "type": "error"
    },
    {
      "inputs": [],
      "name": "SmartToken__InsufficientUnderlying",
      "type": "error"
    },
    {
      "inputs": [],
      "name": "SmartToken__MethodNotAllowed",
      "type": "error"
    },
    {
      "inputs": [],
      "name": "SmartToken__MintMoreThanMax",
      "type": "error"
    },
    {
      "inputs": [],
      "name": "SmartToken__NotTokenFactory",
      "type": "error"
    },
    {
      "inputs": [],
      "name": "SmartToken__OnlyAssetOwner",
      "type": "error"
    },
    {
      "inputs": [],
      "name": "SmartToken__RedeemMoreThanMax",
      "type": "error"
    },
    {
      "inputs": [],
      "name": "SmartToken__WithdrawLimitHit",
      "type": "error"
    },
    {
      "inputs": [],
      "name": "SmartToken__WithdrawMoreThanMax",
      "type": "error"
    },
    {
      "inputs": [],
      "name": "SmartToken__WithdrawNativeFailed",
      "type": "error"
    },
    {
      "inputs": [],
      "name": "SmartToken__ZeroDeposit",
      "type": "error"
    },
    {
      "anonymous": false,
      "inputs": [
        {
          "indexed": false,
          "internalType": "address",
          "name": "previousAdmin",
          "type": "address"
        },
        {
          "indexed": false,
          "internalType": "address",
          "name": "newAdmin",
          "type": "address"
        }
      ],
      "name": "AdminChanged",
      "type": "event"
    },
    {
      "anonymous": false,
      "inputs": [
        {
          "indexed": true,
          "internalType": "address",
          "name": "owner",
          "type": "address"
        },
        {
          "indexed": true,
          "internalType": "address",
          "name": "spender",
          "type": "address"
        },
        {
          "indexed": false,
          "internalType": "uint256",
          "name": "value",
          "type": "uint256"
        }
      ],
      "name": "Approval",
      "type": "event"
    },
    {
      "anonymous": false,
      "inputs": [
        {
          "indexed": true,
          "internalType": "address",
          "name": "beacon",
          "type": "address"
        }
      ],
      "name": "BeaconUpgraded",
      "type": "event"
    },
    {
      "anonymous": false,
      "inputs": [
        {
          "indexed": true,
          "internalType": "address",
          "name": "sender",
          "type": "address"
        },
        {
          "indexed": true,
          "internalType": "address",
          "name": "owner",
          "type": "address"
        },
        {
          "indexed": false,
          "internalType": "uint256",
          "name": "assets",
          "type": "uint256"
        },
        {
          "indexed": false,
          "internalType": "uint256",
          "name": "shares",
          "type": "uint256"
        }
      ],
      "name": "Deposit",
      "type": "event"
    },
    {
      "anonymous": false,
      "inputs": [],
      "name": "EIP712DomainChanged",
      "type": "event"
    },
    {
      "anonymous": false,
      "inputs": [
        {
          "indexed": false,
          "internalType": "address",
          "name": "receiver",
          "type": "address"
        },
        {
          "indexed": false,
          "internalType": "address",
          "name": "initiator",
          "type": "address"
        },
        {
          "indexed": false,
          "internalType": "uint256",
          "name": "amount",
          "type": "uint256"
        },
        {
          "indexed": false,
          "internalType": "uint256",
          "name": "premium",
          "type": "uint256"
        },
        {
          "indexed": false,
          "internalType": "bytes",
          "name": "params",
          "type": "bytes"
        }
      ],
      "name": "FlashLoanExecuted",
      "type": "event"
    },
    {
      "anonymous": false,
      "inputs": [
        {
          "indexed": false,
          "internalType": "uint8",
          "name": "version",
          "type": "uint8"
        }
      ],
      "name": "Initialized",
      "type": "event"
    },
    {
      "anonymous": false,
      "inputs": [
        {
          "indexed": true,
          "internalType": "address",
          "name": "previousOwner",
          "type": "address"
        },
        {
          "indexed": true,
          "internalType": "address",
          "name": "newOwner",
          "type": "address"
        }
      ],
      "name": "OwnershipTransferred",
      "type": "event"
    },
    {
      "anonymous": false,
      "inputs": [
        {
          "indexed": true,
          "internalType": "address",
          "name": "from",
          "type": "address"
        },
        {
          "indexed": true,
          "internalType": "address",
          "name": "to",
          "type": "address"
        },
        {
          "indexed": false,
          "internalType": "uint256",
          "name": "value",
          "type": "uint256"
        }
      ],
      "name": "Transfer",
      "type": "event"
    },
    {
      "anonymous": false,
      "inputs": [
        {
          "indexed": true,
          "internalType": "address",
          "name": "implementation",
          "type": "address"
        }
      ],
      "name": "Upgraded",
      "type": "event"
    },
    {
      "anonymous": false,
      "inputs": [
        {
          "indexed": true,
          "internalType": "address",
          "name": "sender",
          "type": "address"
        },
        {
          "indexed": true,
          "internalType": "address",
          "name": "receiver",
          "type": "address"
        },
        {
          "indexed": true,
          "internalType": "address",
          "name": "owner",
          "type": "address"
        },
        {
          "indexed": false,
          "internalType": "uint256",
          "name": "assets",
          "type": "uint256"
        },
        {
          "indexed": false,
          "internalType": "uint256",
          "name": "shares",
          "type": "uint256"
        }
      ],
      "name": "Withdraw",
      "type": "event"
    },
    {
      "inputs": [],
      "name": "DOMAIN_SEPARATOR",
      "outputs": [
        {
          "internalType": "bytes32",
          "name": "",
          "type": "bytes32"
        }
      ],
      "stateMutability": "view",
      "type": "function"
    },
    {
      "inputs": [
        {
          "internalType": "address",
          "name": "owner",
          "type": "address"
        },
        {
          "internalType": "address",
          "name": "spender",
          "type": "address"
        }
      ],
      "name": "allowance",
      "outputs": [
        {
          "internalType": "uint256",
          "name": "",
          "type": "uint256"
        }
      ],
      "stateMutability": "view",
      "type": "function"
    },
    {
      "inputs": [
        {
          "internalType": "address",
          "name": "spender",
          "type": "address"
        },
        {
          "internalType": "uint256",
          "name": "amount",
          "type": "uint256"
        }
      ],
      "name": "approve",
      "outputs": [
        {
          "internalType": "bool",
          "name": "",
          "type": "bool"
        }
      ],
      "stateMutability": "nonpayable",
      "type": "function"
    },
    {
      "inputs": [],
      "name": "asset",
      "outputs": [
        {
          "internalType": "address",
          "name": "",
          "type": "address"
        }
      ],
      "stateMutability": "view",
      "type": "function"
    },
    {
      "inputs": [
        {
          "internalType": "address",
          "name": "account",
          "type": "address"
        }
      ],
      "name": "balanceOf",
      "outputs": [
        {
          "internalType": "uint256",
          "name": "",
          "type": "uint256"
        }
      ],
      "stateMutability": "view",
      "type": "function"
    },
    {
      "inputs": [
        {
          "internalType": "address",
          "name": "account",
          "type": "address"
        },
        {
          "internalType": "uint256",
          "name": "amount",
          "type": "uint256"
        }
      ],
      "name": "burn",
      "outputs": [],
      "stateMutability": "nonpayable",
      "type": "function"
    },
    {
      "inputs": [
        {
          "internalType": "uint256",
          "name": "shares",
          "type": "uint256"
        }
      ],
      "name": "convertToAssets",
      "outputs": [
        {
          "internalType": "uint256",
          "name": "assets",
          "type": "uint256"
        }
      ],
      "stateMutability": "view",
      "type": "function"
    },
    {
      "inputs": [
        {
          "internalType": "uint256",
          "name": "assets",
          "type": "uint256"
        }
      ],
      "name": "convertToShares",
      "outputs": [
        {
          "internalType": "uint256",
          "name": "shares",
          "type": "uint256"
        }
      ],
      "stateMutability": "view",
      "type": "function"
    },
    {
      "inputs": [],
      "name": "decimals",
      "outputs": [
        {
          "internalType": "uint8",
          "name": "",
          "type": "uint8"
        }
      ],
      "stateMutability": "view",
      "type": "function"
    },
    {
      "inputs": [
        {
          "internalType": "address",
          "name": "spender",
          "type": "address"
        },
        {
          "internalType": "uint256",
          "name": "subtractedValue",
          "type": "uint256"
        }
      ],
      "name": "decreaseAllowance",
      "outputs": [
        {
          "internalType": "bool",
          "name": "",
          "type": "bool"
        }
      ],
      "stateMutability": "nonpayable",
      "type": "function"
    },
    {
      "inputs": [
        {
          "internalType": "uint256",
          "name": "assets",
          "type": "uint256"
        },
        {
          "internalType": "address",
          "name": "receiver",
          "type": "address"
        }
      ],
      "name": "deposit",
      "outputs": [
        {
          "internalType": "uint256",
          "name": "",
          "type": "uint256"
        }
      ],
      "stateMutability": "nonpayable",
      "type": "function"
    },
    {
      "inputs": [
        {
          "internalType": "uint256",
          "name": "assets",
          "type": "uint256"
        },
        {
          "internalType": "address",
          "name": "receiver",
          "type": "address"
        },
        {
          "internalType": "uint256",
          "name": "expiryDate",
          "type": "uint256"
        }
      ],
      "name": "depositWithExpiry",
      "outputs": [
        {
          "internalType": "uint256",
          "name": "",
          "type": "uint256"
        }
      ],
      "stateMutability": "nonpayable",
      "type": "function"
    },
    {
      "inputs": [
        {
          "internalType": "address",
          "name": "receiver",
          "type": "address"
        }
      ],
      "name": "depositWithNative",
      "outputs": [
        {
          "internalType": "uint256",
          "name": "",
          "type": "uint256"
        }
      ],
      "stateMutability": "payable",
      "type": "function"
    },
    {
      "inputs": [
        {
          "internalType": "uint256",
          "name": "assets",
          "type": "uint256"
        },
        {
          "internalType": "address",
          "name": "receiver",
          "type": "address"
        },
        {
          "internalType": "uint256",
          "name": "deadline",
          "type": "uint256"
        },
        {
          "internalType": "uint8",
          "name": "v",
          "type": "uint8"
        },
        {
          "internalType": "bytes32",
          "name": "r",
          "type": "bytes32"
        },
        {
          "internalType": "bytes32",
          "name": "s",
          "type": "bytes32"
        }
      ],
      "name": "depositWithPermit",
      "outputs": [
        {
          "internalType": "uint256",
          "name": "",
          "type": "uint256"
        }
      ],
      "stateMutability": "nonpayable",
      "type": "function"
    },
    {
      "inputs": [
        {
          "internalType": "address",
          "name": "receiver",
          "type": "address"
        }
      ],
      "name": "drain",
      "outputs": [],
      "stateMutability": "nonpayable",
      "type": "function"
    },
    {
      "inputs": [],
      "name": "eip712Domain",
      "outputs": [
        {
          "internalType": "bytes1",
          "name": "fields",
          "type": "bytes1"
        },
        {
          "internalType": "string",
          "name": "name",
          "type": "string"
        },
        {
          "internalType": "string",
          "name": "version",
          "type": "string"
        },
        {
          "internalType": "uint256",
          "name": "chainId",
          "type": "uint256"
        },
        {
          "internalType": "address",
          "name": "verifyingContract",
          "type": "address"
        },
        {
          "internalType": "bytes32",
          "name": "salt",
          "type": "bytes32"
        },
        {
          "internalType": "uint256[]",
          "name": "extensions",
          "type": "uint256[]"
        }
      ],
      "stateMutability": "view",
      "type": "function"
    },
    {
      "inputs": [
        {
          "internalType": "address",
          "name": "receiver",
          "type": "address"
        },
        {
          "internalType": "uint256",
          "name": "amount",
          "type": "uint256"
        },
        {
          "internalType": "bytes",
          "name": "params",
          "type": "bytes"
        }
      ],
      "name": "flashLoan",
      "outputs": [],
      "stateMutability": "nonpayable",
      "type": "function"
    },
    {
      "inputs": [],
      "name": "getFlashLoanPool",
      "outputs": [
        {
          "internalType": "address",
          "name": "",
          "type": "address"
        }
      ],
      "stateMutability": "view",
      "type": "function"
    },
    {
      "inputs": [],
      "name": "getTokenFactory",
      "outputs": [
        {
          "internalType": "address",
          "name": "",
          "type": "address"
        }
      ],
      "stateMutability": "view",
      "type": "function"
    },
    {
      "inputs": [
        {
          "internalType": "address",
          "name": "sender",
          "type": "address"
        },
        {
          "internalType": "address",
          "name": "receiver",
          "type": "address"
        }
      ],
      "name": "handlePendingFF",
      "outputs": [],
      "stateMutability": "nonpayable",
      "type": "function"
    },
    {
      "inputs": [
        {
          "internalType": "address",
          "name": "sender",
          "type": "address"
        },
        {
          "internalType": "address",
          "name": "receiver",
          "type": "address"
        }
      ],
      "name": "handlePendingRebalance",
      "outputs": [],
      "stateMutability": "nonpayable",
      "type": "function"
    },
    {
      "inputs": [
        {
          "internalType": "address",
          "name": "account",
          "type": "address"
        }
      ],
      "name": "hasPendingFF",
      "outputs": [
        {
          "internalType": "bool",
          "name": "",
          "type": "bool"
        }
      ],
      "stateMutability": "view",
      "type": "function"
    },
    {
      "inputs": [
        {
          "internalType": "address",
          "name": "account",
          "type": "address"
        }
      ],
      "name": "hasPendingRebalance",
      "outputs": [
        {
          "internalType": "bool",
          "name": "",
          "type": "bool"
        }
      ],
      "stateMutability": "view",
      "type": "function"
    },
    {
      "inputs": [
        {
          "internalType": "address",
          "name": "spender",
          "type": "address"
        },
        {
          "internalType": "uint256",
          "name": "addedValue",
          "type": "uint256"
        }
      ],
      "name": "increaseAllowance",
      "outputs": [
        {
          "internalType": "bool",
          "name": "",
          "type": "bool"
        }
      ],
      "stateMutability": "nonpayable",
      "type": "function"
    },
    {
      "inputs": [
        {
          "internalType": "string",
          "name": "tokenName",
          "type": "string"
        },
        {
          "internalType": "string",
          "name": "tokenSymbol",
          "type": "string"
        },
        {
          "internalType": "address",
          "name": "factoryAddress",
          "type": "address"
        },
        {
          "internalType": "address",
          "name": "sanctionsContract_",
          "type": "address"
        },
        {
          "internalType": "bool",
          "name": "isX_",
          "type": "bool"
        },
        {
          "internalType": "address",
          "name": "owner_",
          "type": "address"
        }
      ],
      "name": "initialize",
      "outputs": [],
      "stateMutability": "nonpayable",
      "type": "function"
    },
    {
      "inputs": [],
      "name": "isDepositCircuitBreaker",
      "outputs": [
        {
          "internalType": "bool",
          "name": "",
          "type": "bool"
        }
      ],
      "stateMutability": "view",
      "type": "function"
    },
    {
      "inputs": [],
      "name": "isFlashloanCircuitBreaker",
      "outputs": [
        {
          "internalType": "bool",
          "name": "",
          "type": "bool"
        }
      ],
      "stateMutability": "view",
      "type": "function"
    },
    {
      "inputs": [],
      "name": "isRebalanceCircuitBreaker",
      "outputs": [
        {
          "internalType": "bool",
          "name": "",
          "type": "bool"
        }
      ],
      "stateMutability": "view",
      "type": "function"
    },
    {
      "inputs": [],
      "name": "isTransferCircuitBreaker",
      "outputs": [
        {
          "internalType": "bool",
          "name": "",
          "type": "bool"
        }
      ],
      "stateMutability": "view",
      "type": "function"
    },
    {
      "inputs": [],
      "name": "isWithdrawCircuitBreaker",
      "outputs": [
        {
          "internalType": "bool",
          "name": "",
          "type": "bool"
        }
      ],
      "stateMutability": "view",
      "type": "function"
    },
    {
      "inputs": [
        {
          "internalType": "address",
          "name": "account",
          "type": "address"
        }
      ],
      "name": "maxDeposit",
      "outputs": [
        {
          "internalType": "uint256",
          "name": "",
          "type": "uint256"
        }
      ],
      "stateMutability": "view",
      "type": "function"
    },
    {
      "inputs": [
        {
          "internalType": "address",
          "name": "account",
          "type": "address"
        }
      ],
      "name": "maxMint",
      "outputs": [
        {
          "internalType": "uint256",
          "name": "",
          "type": "uint256"
        }
      ],
      "stateMutability": "view",
      "type": "function"
    },
    {
      "inputs": [
        {
          "internalType": "address",
          "name": "owner_",
          "type": "address"
        }
      ],
      "name": "maxRedeem",
      "outputs": [
        {
          "internalType": "uint256",
          "name": "",
          "type": "uint256"
        }
      ],
      "stateMutability": "view",
      "type": "function"
    },
    {
      "inputs": [
        {
          "internalType": "address",
          "name": "owner_",
          "type": "address"
        }
      ],
      "name": "maxWithdraw",
      "outputs": [
        {
          "internalType": "uint256",
          "name": "",
          "type": "uint256"
        }
      ],
      "stateMutability": "view",
      "type": "function"
    },
    {
      "inputs": [
        {
          "internalType": "uint256",
          "name": "shares",
          "type": "uint256"
        },
        {
          "internalType": "address",
          "name": "receiver",
          "type": "address"
        }
      ],
      "name": "mint",
      "outputs": [
        {
          "internalType": "uint256",
          "name": "",
          "type": "uint256"
        }
      ],
      "stateMutability": "nonpayable",
      "type": "function"
    },
    {
      "inputs": [
        {
          "internalType": "address",
          "name": "receiver",
          "type": "address"
        },
        {
          "internalType": "uint256",
          "name": "amount",
          "type": "uint256"
        }
      ],
      "name": "mintAsset",
      "outputs": [],
      "stateMutability": "nonpayable",
      "type": "function"
    },
    {
      "inputs": [],
      "name": "name",
      "outputs": [
        {
          "internalType": "string",
          "name": "",
          "type": "string"
        }
      ],
      "stateMutability": "view",
      "type": "function"
    },
    {
      "inputs": [
        {
          "internalType": "address",
          "name": "owner",
          "type": "address"
        }
      ],
      "name": "nonces",
      "outputs": [
        {
          "internalType": "uint256",
          "name": "",
          "type": "uint256"
        }
      ],
      "stateMutability": "view",
      "type": "function"
    },
    {
      "inputs": [],
      "name": "owner",
      "outputs": [
        {
          "internalType": "address",
          "name": "",
          "type": "address"
        }
      ],
      "stateMutability": "view",
      "type": "function"
    },
    {
      "inputs": [
        {
          "internalType": "address",
          "name": "owner",
          "type": "address"
        },
        {
          "internalType": "address",
          "name": "spender",
          "type": "address"
        },
        {
          "internalType": "uint256",
          "name": "value",
          "type": "uint256"
        },
        {
          "internalType": "uint256",
          "name": "deadline",
          "type": "uint256"
        },
        {
          "internalType": "uint8",
          "name": "v",
          "type": "uint8"
        },
        {
          "internalType": "bytes32",
          "name": "r",
          "type": "bytes32"
        },
        {
          "internalType": "bytes32",
          "name": "s",
          "type": "bytes32"
        }
      ],
      "name": "permit",
      "outputs": [],
      "stateMutability": "nonpayable",
      "type": "function"
    },
    {
      "inputs": [
        {
          "internalType": "uint256",
          "name": "assets",
          "type": "uint256"
        }
      ],
      "name": "previewDeposit",
      "outputs": [
        {
          "internalType": "uint256",
          "name": "",
          "type": "uint256"
        }
      ],
      "stateMutability": "view",
      "type": "function"
    },
    {
      "inputs": [
        {
          "internalType": "uint256",
          "name": "shares",
          "type": "uint256"
        }
      ],
      "name": "previewMint",
      "outputs": [
        {
          "internalType": "uint256",
          "name": "",
          "type": "uint256"
        }
      ],
      "stateMutability": "view",
      "type": "function"
    },
    {
      "inputs": [
        {
          "internalType": "uint256",
          "name": "shares",
          "type": "uint256"
        }
      ],
      "name": "previewRedeem",
      "outputs": [
        {
          "internalType": "uint256",
          "name": "",
          "type": "uint256"
        }
      ],
      "stateMutability": "view",
      "type": "function"
    },
    {
      "inputs": [
        {
          "internalType": "uint256",
          "name": "assets",
          "type": "uint256"
        }
      ],
      "name": "previewWithdraw",
      "outputs": [
        {
          "internalType": "uint256",
          "name": "",
          "type": "uint256"
        }
      ],
      "stateMutability": "view",
      "type": "function"
    },
    {
      "inputs": [],
      "name": "proxiableUUID",
      "outputs": [
        {
          "internalType": "bytes32",
          "name": "",
          "type": "bytes32"
        }
      ],
      "stateMutability": "view",
      "type": "function"
    },
    {
      "inputs": [
        {
          "internalType": "uint256",
          "name": "shares",
          "type": "uint256"
        },
        {
          "internalType": "address",
          "name": "receiver",
          "type": "address"
        },
        {
          "internalType": "address",
          "name": "owner_",
          "type": "address"
        }
      ],
      "name": "redeem",
      "outputs": [
        {
          "internalType": "uint256",
          "name": "",
          "type": "uint256"
        }
      ],
      "stateMutability": "nonpayable",
      "type": "function"
    },
    {
      "inputs": [],
      "name": "renounceOwnership",
      "outputs": [],
      "stateMutability": "nonpayable",
      "type": "function"
    },
    {
      "inputs": [],
      "name": "resumeAllCircuitBreakers",
      "outputs": [],
      "stateMutability": "nonpayable",
      "type": "function"
    },
    {
      "inputs": [
        {
          "internalType": "address",
          "name": "account",
          "type": "address"
        },
        {
          "internalType": "uint256",
          "name": "amount",
          "type": "uint256"
        }
      ],
      "name": "smartBalanceAdjust",
      "outputs": [],
      "stateMutability": "nonpayable",
      "type": "function"
    },
    {
      "inputs": [
        {
          "internalType": "address",
          "name": "treasuryAddress",
          "type": "address"
        },
        {
          "internalType": "uint256",
          "name": "amount",
          "type": "uint256"
        }
      ],
      "name": "smartTreasuryTransfer",
      "outputs": [],
      "stateMutability": "nonpayable",
      "type": "function"
    },
    {
      "inputs": [],
      "name": "stopAllCircuitBreakers",
      "outputs": [],
      "stateMutability": "nonpayable",
      "type": "function"
    },
    {
      "inputs": [],
      "name": "symbol",
      "outputs": [
        {
          "internalType": "string",
          "name": "",
          "type": "string"
        }
      ],
      "stateMutability": "view",
      "type": "function"
    },
    {
      "inputs": [],
      "name": "toggleDepositCircuitBreaker",
      "outputs": [],
      "stateMutability": "nonpayable",
      "type": "function"
    },
    {
      "inputs": [],
      "name": "toggleFlashLoanCircuitBreaker",
      "outputs": [],
      "stateMutability": "nonpayable",
      "type": "function"
    },
    {
      "inputs": [],
      "name": "toggleRebalanceCircuitBreaker",
      "outputs": [],
      "stateMutability": "nonpayable",
      "type": "function"
    },
    {
      "inputs": [],
      "name": "toggleTransferCircuitBreaker",
      "outputs": [],
      "stateMutability": "nonpayable",
      "type": "function"
    },
    {
      "inputs": [],
      "name": "toggleWithdrawCircuitBreaker",
      "outputs": [],
      "stateMutability": "nonpayable",
      "type": "function"
    },
    {
      "inputs": [],
      "name": "totalAssets",
      "outputs": [
        {
          "internalType": "uint256",
          "name": "",
          "type": "uint256"
        }
      ],
      "stateMutability": "view",
      "type": "function"
    },
    {
      "inputs": [],
      "name": "totalSupply",
      "outputs": [
        {
          "internalType": "uint256",
          "name": "",
          "type": "uint256"
        }
      ],
      "stateMutability": "view",
      "type": "function"
    },
    {
      "inputs": [
        {
          "internalType": "address",
          "name": "recipient",
          "type": "address"
        },
        {
          "internalType": "uint256",
          "name": "amount",
          "type": "uint256"
        }
      ],
      "name": "transfer",
      "outputs": [
        {
          "internalType": "bool",
          "name": "",
          "type": "bool"
        }
      ],
      "stateMutability": "nonpayable",
      "type": "function"
    },
    {
      "inputs": [
        {
          "internalType": "address",
          "name": "sender",
          "type": "address"
        },
        {
          "internalType": "address",
          "name": "recipient",
          "type": "address"
        },
        {
          "internalType": "uint256",
          "name": "amount",
          "type": "uint256"
        }
      ],
      "name": "transferFrom",
      "outputs": [
        {
          "internalType": "bool",
          "name": "",
          "type": "bool"
        }
      ],
      "stateMutability": "nonpayable",
      "type": "function"
    },
    {
      "inputs": [
        {
          "internalType": "address",
          "name": "newOwner",
          "type": "address"
        }
      ],
      "name": "transferOwnership",
      "outputs": [],
      "stateMutability": "nonpayable",
      "type": "function"
    },
    {
      "inputs": [
        {
          "internalType": "address",
          "name": "account",
          "type": "address"
        }
      ],
      "name": "unScaledbalanceOf",
      "outputs": [
        {
          "internalType": "uint256",
          "name": "",
          "type": "uint256"
        }
      ],
      "stateMutability": "view",
      "type": "function"
    },
    {
      "inputs": [
        {
          "internalType": "address",
          "name": "newImplementation",
          "type": "address"
        }
      ],
      "name": "upgradeTo",
      "outputs": [],
      "stateMutability": "nonpayable",
      "type": "function"
    },
    {
      "inputs": [
        {
          "internalType": "address",
          "name": "newImplementation",
          "type": "address"
        },
        {
          "internalType": "bytes",
          "name": "data",
          "type": "bytes"
        }
      ],
      "name": "upgradeToAndCall",
      "outputs": [],
      "stateMutability": "payable",
      "type": "function"
    },
    {
      "inputs": [
        {
          "internalType": "uint256",
          "name": "assets",
          "type": "uint256"
        },
        {
          "internalType": "address",
          "name": "receiver",
          "type": "address"
        },
        {
          "internalType": "address",
          "name": "owner_",
          "type": "address"
        }
      ],
      "name": "withdraw",
      "outputs": [
        {
          "internalType": "uint256",
          "name": "",
          "type": "uint256"
        }
      ],
      "stateMutability": "nonpayable",
      "type": "function"
    },
    {
      "inputs": [
        {
          "internalType": "uint256",
          "name": "assets",
          "type": "uint256"
        },
        {
          "internalType": "address",
          "name": "receiver",
          "type": "address"
        },
        {
          "internalType": "address",
          "name": "owner_",
          "type": "address"
        },
        {
          "internalType": "uint256",
          "name": "expiryDate",
          "type": "uint256"
        }
      ],
      "name": "withdrawWithExpiry",
      "outputs": [
        {
          "internalType": "uint256",
          "name": "",
          "type": "uint256"
        }
      ],
      "stateMutability": "nonpayable",
      "type": "function"
    },
    {
      "stateMutability": "payable",
      "type": "receive"
    }
  ],
  "bytecode": "0x60a060405234620000495730608052620000186200004e565b620000226200004e565b6040516158d29081620000f882396080518181816121cb015281816124c301526128420152f35b600080fd5b60005460ff8160081c16620000a25760ff808216036200006b5750565b60ff90811916176000557f7f26b83ff96e1f2b6a682f133852f6798a09c465da95921460cefb3847402498602060405160ff8152a1565b60405162461bcd60e51b815260206004820152602760248201527f496e697469616c697a61626c653a20636f6e747261637420697320696e697469604482015266616c697a696e6760c81b6064820152608490fdfe60808060405260043610156100ba575b50361561001b57600080fd5b600460206001600160a01b036101955416604051928380926384b5843960e01b82525afa9081156100ae57600091610080575b501561005657005b60046040517f4f0e72aa000000000000000000000000000000000000000000000000000000008152fd5b6100a1915060203d81116100a7575b61009981836141e2565b810190614bb7565b3861004e565b503d61008f565b6040513d6000823e3d90fd5b600090813560e01c90816301e1d1141461406b57508063030d4ed71461402657806305bfee3314613f2257806306fdde0314613e7c57806307a2d13a1461049f578063095ea7b314613e555780630a28a4771461049f57806312cfca381461339157806316b535f41461328857806318160ddd1461326a57806318c23d5014612f4f57806323b872dd14612c14578063275f0ddd14612be957806327a44ed014612bc25780633092800914612b56578063313ce56714612b3a5780633644e51514612b1f5780633659cfe61461281c57806338d52e0f146127f457806339509351146127a2578063402d267d1461121b5780634cdad5061461049f5780634f1ef28614612481578063501639741461245d57806350921b231461228557806352d1902d146121b05780635f758bef146120e75780636a3005291461207c5780636e553f6514611fa957806370a0823114611f85578063715018a614611f1c57806379692b4614611eaf5780637ecebe0014611e7657806384b0196e14611d6457806385f2eac014611d3d5780638da5cb5b14611d165780638f4cef0c14611cdd5780638f50bd1314611caf578063925d6ba21461151657806394bf804d14611b4f57806395d89b4114611a695780639dc29fac14611905578063a457c2d71461183d578063a9059cbb14611520578063b015108b14611516578063b1dbfcee146114ef578063b3d7f6b91461049f578063b460af9414611411578063ba08765214611411578063c02ce899146113ea578063c3e4eb0f14611225578063c63d75b61461121b578063c6e6f5921461049f578063ce96cb7714610f74578063d505accf14611047578063d69f62e014610fe7578063d78f092114610f7e578063d905777e14610f74578063dd62ed3e14610f24578063e0232b42146107cd578063e2a3cd0b146105d0578063e581273114610566578063ece53132146104af578063ef8b30f71461049f578063f077fd3c14610474578063f2fde38b146103cd5763fd6064b30361000f57346103ca57806003193601126103ca57602060ff6101625460a01c166040519015158152f35b80fd5b50346103ca5760206003193601126103ca576103e76140f6565b6103ef614342565b6001600160a01b0381161561040a576104079061439a565b80f35b608460405162461bcd60e51b815260206004820152602660248201527f4f776e61626c653a206e6577206f776e657220697320746865207a65726f206160448201527f64647265737300000000000000000000000000000000000000000000000000006064820152fd5b50346103ca5760406003193601126103ca576104076104916140f6565b610499614122565b90615052565b50506104a9614178565b3861000f565b50346103ca5760206003193601126103ca576104c96140f6565b6104d1614342565b6001600160a01b039060046020836101955416604051928380926384b5843960e01b82525afa90811561055b57849161053d575b501561005657828080938193479183918315610533575b1690f1156105275780f35b604051903d90823e3d90fd5b6108fc925061051c565b610555915060203d81116100a75761009981836141e2565b38610505565b6040513d86823e3d90fd5b50346103ca57806003193601126103ca5761057f614342565b61016280547fffffffffffffffffffff00ffffffffffffffffffffffffffffffffffffffffff75ff00000000000000000000000000000000000000000060ff8360a81c161560a81b16911617905580f35b50346103ca5760606003193601126103ca576004356105ed614122565b42604435106107a35760ff6101625460a01c16610779576001600160a01b039261019593808554169460405195629c185f60e01b87526020968781600481855afa90811561076e578591610751575b5061072757803b156107235783809160046040518094819363533ae12960e01b83525af1801561055b57918493918893610703575b505416602460405180948193634eacc0fd60e01b83528960048401525af191821561052757916106e6575b506106bc57816106af826106b49461538c565b6155f2565b604051908152f35b60046040517fb04c0011000000000000000000000000000000000000000000000000000000008152fd5b6106fd9150843d86116100a75761009981836141e2565b3861069c565b610711919350939193614196565b61071f578291869138610671565b8280fd5b8380fd5b60046040517f878d0c04000000000000000000000000000000000000000000000000000000008152fd5b6107689150883d8a116100a75761009981836141e2565b3861063c565b6040513d87823e3d90fd5b60046040517fd045d9d6000000000000000000000000000000000000000000000000000000008152fd5b60046040517fef4b8442000000000000000000000000000000000000000000000000000000008152fd5b50346103ca5760606003193601126103ca576107e76140f6565b60443567ffffffffffffffff811161071f57610807903690600401614221565b61080f615212565b6101625460ff8160c01c16610efa576001600160a01b031660405163df592f7d60e01b908181526001600160a01b0385166004820152602081602481865afa908115610cc9578691610edb575b50610e925760209060246040518094819382523360048301525afa90811561055b578491610ebc575b50610e92576001600160a01b03821615610e68576001600160a01b036101965416602460206001600160a01b03610195541692604051928380926370a0823160e01b82528660048301525afa90811561076e578591610e36575b5060243511610e0c578084913b15610e08576040517f52c22cb20000000000000000000000000000000000000000000000000000000081526001600160a01b038516600482015260248035908201529082908290604490829084905af18015610cec57610df4575b5050600460206001600160a01b036101955416604051928380927f67a1e7230000000000000000000000000000000000000000000000000000000082525afa801561055b578490610db5575b61ffff1690508015610dad57602435808202918115918304141715610d99576127109004915b6040516109c5816141aa565b600181526020810160203682376001600160a01b0361019654166109e8836152ee565b52604051916109f6836141aa565b6001835260203681850137602435610a0d846152ee565b5260405191610a1b836141aa565b600183526020368185013786610a30846152ee565b526040519384927f920f5c8400000000000000000000000000000000000000000000000000000000845260a484019060a060048601525180915260c4840192908a5b818110610d7757505050610aae602094610a9c84610ac6946003198880980301602488015261428c565b9060031985830301604486015261428c565b33606484015260031983820301608484015287614138565b0381886001600160a01b0387165af190811561076e578591610d58575b5015610d2e576024846001600160a01b03610196541660206001600160a01b03610195541691604051948580926370a0823160e01b82528560048301525afa928315610cec578293610cf7575b50610b3d866024356147b8565b90803b1561071f576040517f06c3bce00000000000000000000000000000000000000000000000000000000081526001600160a01b0386166004820152602481019290925282908290604490829084905af18015610cec57610cd4575b50506001600160a01b0361019654169060206001600160a01b0361019554166024604051809581936370a0823160e01b835260048301525afa918215610cc9578692610c8e575b50610bf890610bf2866024356147b8565b906147b8565b03610c6457610c586001600160a01b03927fc7b0eb33d7b19695de5f3ee85a06f640257ca6d4ce03aec1526b2937b3c58e65946040519485941684523360208501526024356040850152606084015260a0608084015260a0830190614138565b0390a160016101635580f35b60046040517ff182bcc8000000000000000000000000000000000000000000000000000000008152fd5b9091506020813d602011610cc1575b81610caa602093836141e2565b81010312610cbc575190610bf8610be1565b600080fd5b3d9150610c9d565b6040513d88823e3d90fd5b610cdd90614196565b610ce8578438610b9a565b8480fd5b6040513d84823e3d90fd5b915091506020813d602011610d26575b81610d14602093836141e2565b81010312610cbc578590519138610b30565b3d9150610d07565b60046040517f0e209933000000000000000000000000000000000000000000000000000000008152fd5b610d71915060203d6020116100a75761009981836141e2565b38610ae3565b82516001600160a01b0316855287955060209485019490920191600101610a72565b602484634e487b7160e01b81526011600452fd5b5082916109b9565b506020813d602011610dec575b81610dcf602093836141e2565b81010312610723575161ffff811681036107235761ffff90610993565b3d9150610dc2565b610dfd90614196565b61071f578238610947565b5080fd5b60046040517f6486d035000000000000000000000000000000000000000000000000000000008152fd5b90506020813d602011610e60575b81610e51602093836141e2565b81010312610cbc5751386108df565b3d9150610e44565b60046040517fef356786000000000000000000000000000000000000000000000000000000008152fd5b60046040517f4229fac4000000000000000000000000000000000000000000000000000000008152fd5b610ed5915060203d6020116100a75761009981836141e2565b38610885565b610ef4915060203d6020116100a75761009981836141e2565b3861085c565b60046040517fda467fd5000000000000000000000000000000000000000000000000000000008152fd5b50346103ca5760406003193601126103ca57610f3e6140f6565b6040610f48614122565b926001600160a01b03809316815260ca6020522091166000526020526020604060002054604051908152f35b50506104a961431e565b50346103ca57806003193601126103ca57610f97614342565b61016280547fffffffffffffffffffffff00ffffffffffffffffffffffffffffffffffffffff74ff000000000000000000000000000000000000000060ff8360a01c161560a01b16911617905580f35b50346103ca57806003193601126103ca57611000614342565b61016278010101010100000000000000000000000000000000000000007fffffffffffffff0000000000ffffffffffffffffffffffffffffffffffffffff82541617905580f35b50346103ca5760e06003193601126103ca576110616140f6565b611069614122565b6044359060843560643560ff82168203610cbc578042116111d7576001600160a01b03908186169283885261012f60205260408820908154916001830190556040519260208401927f6e71edae12b1b97f4d1f60370fef10105fa2faae0126114a169c64845d6126c98452866040860152858816606086015288608086015260a085015260c084015260c0835260e083019183831067ffffffffffffffff8411176111c15761116e9361116693604052519020611124614ad0565b90604051917f190100000000000000000000000000000000000000000000000000000000000083526002830152602282015260c43591604260a4359220614a41565b91909161490f565b160361117d57610407926147db565b606460405162461bcd60e51b815260206004820152601e60248201527f45524332305065726d69743a20696e76616c6964207369676e617475726500006044820152fd5b634e487b7160e01b600052604160045260246000fd5b606460405162461bcd60e51b815260206004820152601d60248201527f45524332305065726d69743a206578706972656420646561646c696e650000006044820152fd5b50506104a9614268565b50346103ca5760806003193601126103ca57600435611242614122565b61124a61410c565b9042606435106107a35760ff6101625460a81c166113c0576001600160a01b039361019594808654169560405196629c185f60e01b88526020978881600481855afa90811561076e5785916113a3575b5061072757803b156107235783809160046040518094819363533ae12960e01b83525af1801561055b57918493918993611387575b5054166024604051809481937fcf0571d30000000000000000000000000000000000000000000000000000000083528a60048401525af1918215610527579161136a575b50611340576113329261132583615350565b61132d615212565b615677565b600161016355604051908152f35b60046040517f922c0895000000000000000000000000000000000000000000000000000000008152fd5b6113819150853d87116100a75761009981836141e2565b38611313565b611395919350939193614196565b61071f5782918791386112cf565b6113ba9150893d8b116100a75761009981836141e2565b3861129a565b60046040517fc689af6e000000000000000000000000000000000000000000000000000000008152fd5b50346103ca57806003193601126103ca57602060ff6101625460c01c166040519015158152f35b50346103ca57611420366142e9565b9060ff6101625460a81c166113c0576001600160a01b039361019594808654169560405196629c185f60e01b88526020978881600481855afa90811561076e5785916113a3575061072757803b156107235783809160046040518094819363533ae12960e01b83525af1801561055b57918493918993611387575054166024604051809481937fcf0571d30000000000000000000000000000000000000000000000000000000083528a60048401525af1918215610527579161136a5750611340576113329261132583615350565b50346103ca57806003193601126103ca57602060ff6101625460a81c166040519015158152f35b50506104a96142c0565b50346103ca5760406003193601126103ca5761153a6140f6565b60243591610162549160ff8360b01c16611813576001600160a01b0393610195948086541660405195629c185f60e01b87526020968781600481865afa9081156118085787916117eb575b5061072757821660405163df592f7d60e01b9081815284871660048201528881602481865afa9081156117e05788916117c3575b50610e9257879060246040518094819382523360048301525afa908115610cc95786916117a6575b50610e9257803b15610ce85784809160046040518094819363533ae12960e01b83525af1801561076e57908591611792575b505061161f833361549e565b6116298333615052565b85546040517fd493e78c0000000000000000000000000000000000000000000000000000000081523360048201526001600160a01b038516602482015296906080908890604490829086165afa96871561076e578597611762575b50611690838533614ca0565b541660ff6101965460a01c1686519386880151976060604082015191015198843b1561175e576040517feec0d6560000000000000000000000000000000000000000000000000000000081523360048201526001600160a01b03909316602484015292151560448301526064820194909452608481019490945260a484015260c483019190915260e482019490945291929091908290829081838161010481015b03925af18015610cec5761174a575b8260405160018152f35b6117548291614196565b6103ca5780611740565b8780fd5b61178491975060803d811161178b575b61177c81836141e2565b810190614c40565b9538611684565b503d611772565b61179b90614196565b610723578338611613565b6117bd9150873d89116100a75761009981836141e2565b386115e1565b6117da9150893d8b116100a75761009981836141e2565b386115b9565b6040513d8a823e3d90fd5b6118029150883d8a116100a75761009981836141e2565b38611585565b6040513d89823e3d90fd5b60046040517f64c73508000000000000000000000000000000000000000000000000000000008152fd5b50346103ca5760406003193601126103ca576118576140f6565b60406024359233815260ca602052206001600160a01b0382166000526020526040600020549180831061189b57611890920390336147db565b602060405160018152f35b608460405162461bcd60e51b815260206004820152602560248201527f45524332303a2064656372656173656420616c6c6f77616e63652062656c6f7760448201527f207a65726f0000000000000000000000000000000000000000000000000000006064820152fd5b50346103ca5760406003193601126103ca5761191f6140f6565b6001600160a01b0360243591611933615311565b1680156119ff5780835260c9602052604083205491808310611995576020817fddf252ad1be2c89b69c2b068fc378daa952ba7f163c4a11628f55a4df523b3ef92869585875260c984520360408620558060cb540360cb55604051908152a380f35b608460405162461bcd60e51b815260206004820152602260248201527f45524332303a206275726e20616d6f756e7420657863656564732062616c616e60448201527f63650000000000000000000000000000000000000000000000000000000000006064820152fd5b608460405162461bcd60e51b815260206004820152602160248201527f45524332303a206275726e2066726f6d20746865207a65726f2061646472657360448201527f73000000000000000000000000000000000000000000000000000000000000006064820152fd5b50346103ca57806003193601126103ca57604051600060cd54611a8b81614627565b80845290600190818116908115611b285750600114611acd575b611ac984611ab5818603826141e2565b604051918291602083526020830190614138565b0390f35b60cd600090815292507f83978b4c69c48dd978ab43fe30f077615294f938fb7f936d9eb340e51ea7db2e5b828410611b10575050508101602001611ab582611aa5565b80546020858701810191909152909301928101611af8565b60ff191660208087019190915292151560051b85019092019250611ab59150839050611aa5565b50346103ca5760406003193601126103ca57600435611b6c614122565b60ff6101625460a01c16610779576001600160a01b039261019593808554169460405195629c185f60e01b87526020968781600481855afa90811561076e578591611c92575b5061072757803b156107235783809160046040518094819363533ae12960e01b83525af1801561055b57918493918893611c76575b505416602460405180948193634eacc0fd60e01b83528960048401525af19182156105275791611c59575b506106bc57611c208161518a565b8211611c2f576106b4916155f2565b60046040517f292b1201000000000000000000000000000000000000000000000000000000008152fd5b611c709150843d86116100a75761009981836141e2565b38611c12565b611c84919350939193614196565b61071f578291869138611be7565b611ca99150883d8a116100a75761009981836141e2565b38611bb2565b50346103ca5760206003193601126103ca576020611cd3611cce6140f6565b614f4f565b6040519015158152f35b50346103ca5760206003193601126103ca5760206106b4611cfc6140f6565b6001600160a01b031660005260c960205260406000205490565b50346103ca57806003193601126103ca5760206001600160a01b0360975416604051908152f35b50346103ca57806003193601126103ca57602060ff6101625460b01c166040519015158152f35b50346103ca57806003193601126103ca5760fb541580611e6c575b15611e2857611d8c614661565b611d9461471f565b60405192602084019380851067ffffffffffffffff8611176111c157611e09611ac993611dfb966040528383526040519687967f0f00000000000000000000000000000000000000000000000000000000000000885260e0602089015260e0880190614138565b908682036040880152614138565b9146606086015230608086015260a085015283820360c085015261428c565b606460405162461bcd60e51b815260206004820152601560248201527f4549503731323a20556e696e697469616c697a656400000000000000000000006044820152fd5b5060fc5415611d7f565b50346103ca5760206003193601126103ca5760406020916001600160a01b03611e9d6140f6565b16815261012f83522054604051908152f35b50346103ca57806003193601126103ca57611ec8614342565b61016280547fffffffffffffff00ffffffffffffffffffffffffffffffffffffffffffffffff78ff00000000000000000000000000000000000000000000000060ff8360c01c161560c01b16911617905580f35b50346103ca57806003193601126103ca57611f35614342565b60006001600160a01b0360975473ffffffffffffffffffffffffffffffffffffffff198116609755167f8be0079c531659141344cd1fd0a4f28419497f9722a3daafe3b4186f6b6457e08280a380f35b50346103ca5760206003193601126103ca5760206106b4611fa46140f6565b614e56565b50346103ca5760406003193601126103ca57600435611fc6614122565b60ff6101625460a01c16610779576001600160a01b039261019593808554169460405195629c185f60e01b87526020968781600481855afa90811561076e578591610751575061072757803b156107235783809160046040518094819363533ae12960e01b83525af1801561055b5791849391889361070357505416602460405180948193634eacc0fd60e01b83528960048401525af191821561052757916106e657506106bc57816106af826106b49461538c565b50346103ca57806003193601126103ca57612095614342565b61016280547fffffffffffffffffff00ffffffffffffffffffffffffffffffffffffffffffff76ff0000000000000000000000000000000000000000000060ff8360b01c161560b01b16911617905580f35b50346103ca5760406003193601126103ca576121016140f6565b6001600160a01b0360243591612115615311565b1690811561216c577fddf252ad1be2c89b69c2b068fc378daa952ba7f163c4a11628f55a4df523b3ef60208261214e869460cb546147b8565b60cb5584845260c9825260408420818154019055604051908152a380f35b606460405162461bcd60e51b815260206004820152601f60248201527f45524332303a206d696e7420746f20746865207a65726f2061646472657373006044820152fd5b50346103ca57806003193601126103ca576001600160a01b037f000000000000000000000000000000000000000000000000000000000000000016300361221b5760206040517f360894a13ba1a3210667c828492db98dca3e2076cc3735a920a3ca505d382bbc8152f35b608460405162461bcd60e51b815260206004820152603860248201527f555550535570677261646561626c653a206d757374206e6f742062652063616c60448201527f6c6564207468726f7567682064656c656761746563616c6c00000000000000006064820152fd5b50346103ca5760c06003193601126103ca576004356122a2614122565b6064359160ff8316809303610cbc5760ff6101625460a01c16610779576001600160a01b0361019590808254169460405195629c185f60e01b87526020968781600481855afa908115612452578991612435575b50610727578088913b15610e085781809160046040518094819363533ae12960e01b83525af18015610cec5761241d575b508683855416602460405180948193634eacc0fd60e01b83528a60048401525af19081156117e0578891612400575b506106bc578691612367868661538c565b806101965416935416833b1561071f5760e4908360405195869485937fd505accf00000000000000000000000000000000000000000000000000000000855233600486015260248501528860448501526044356064850152608484015260843560a484015260a43560c48401525af1801561076e576123ec575b50906106b4916155f2565b6123f68591614196565b61072357836123e1565b6124179150873d89116100a75761009981836141e2565b38612356565b61242690614196565b612431578638612327565b8680fd5b61244c9150883d8a116100a75761009981836141e2565b386122f6565b6040513d8b823e3d90fd5b50346103ca5760206003193601126103ca576020611cd361247c6140f6565b6153cd565b5060406003193601126103ca576124966140f6565b60243567ffffffffffffffff811161071f576124b6903690600401614221565b906001600160a01b0391827f000000000000000000000000000000000000000000000000000000000000000016926124f0843014156143ef565b61251f7f360894a13ba1a3210667c828492db98dca3e2076cc3735a920a3ca505d382bbc948286541614614460565b612527614342565b7f4910fdfa16fed3260ed0e7147f7cc6da11a60208b5b9406d12a635614ffd91435460ff161561255d57505061040791506144d1565b8216604051937f52d1902d0000000000000000000000000000000000000000000000000000000085526020948581600481865afa60009181612773575b50612609576084866040519062461bcd60e51b82526004820152602e60248201527f45524331393637557067726164653a206e657720696d706c656d656e7461746960448201527f6f6e206973206e6f7420555550530000000000000000000000000000000000006064820152fd5b94929394036127095761261b846144d1565b7fbc7cd75a20ee27fd9adebab32041f755214dbc6bffa90cc0225b39da2e5c2d3b600080a2815115801590612701575b612656575b50505080f35b6126ef926000806040519461266a866141c6565b602786527f416464726573733a206c6f772d6c6576656c2064656c65676174652063616c6c858701527f206661696c65640000000000000000000000000000000000000000000000000060408701528481519101845af4903d156126f8573d6126d281614205565b906126e060405192836141e2565b8152600081943d92013e61458b565b50388080612650565b6060925061458b565b50600161264b565b6084826040519062461bcd60e51b82526004820152602960248201527f45524331393637557067726164653a20756e737570706f727465642070726f7860448201527f6961626c655555494400000000000000000000000000000000000000000000006064820152fd5b90918782813d831161279b575b61278a81836141e2565b810103126103ca575051903861259a565b503d612780565b50346103ca5760406003193601126103ca576118909060406127c26140f6565b9133815260ca602052206001600160a01b0382166000526020526127ed6024356040600020546147b8565b90336147db565b50346103ca57806003193601126103ca5760206001600160a01b036101965416604051908152f35b50346103ca57602080600319360112610e08576128376140f6565b6001600160a01b03807f00000000000000000000000000000000000000000000000000000000000000001661286e813014156143ef565b61289d7f360894a13ba1a3210667c828492db98dca3e2076cc3735a920a3ca505d382bbc918383541614614460565b6128a5614342565b604051908482019282841067ffffffffffffffff8511176111c1578360405286835260ff7f4910fdfa16fed3260ed0e7147f7cc6da11a60208b5b9406d12a635614ffd91435416600014612901575050505061040791506144d1565b8492939416906040517f52d1902d0000000000000000000000000000000000000000000000000000000081528681600481865afa60009181612af0575b506129ad576084876040519062461bcd60e51b82526004820152602e60248201527f45524331393637557067726164653a206e657720696d706c656d656e7461746960448201527f6f6e206973206e6f7420555550530000000000000000000000000000000000006064820152fd5b9593949503612a86576129bf826144d1565b7fbc7cd75a20ee27fd9adebab32041f755214dbc6bffa90cc0225b39da2e5c2d3b600080a2825115801590612a7e575b6129fb575b5050505080f35b600080612a749560405195612a0f876141c6565b602787527f416464726573733a206c6f772d6c6576656c2064656c65676174652063616c6c868801527f206661696c65640000000000000000000000000000000000000000000000000060408801525190845af4903d156126f8573d6126d281614205565b50388080806129f4565b5060006129ef565b6084836040519062461bcd60e51b82526004820152602960248201527f45524331393637557067726164653a20756e737570706f727465642070726f7860448201527f6961626c655555494400000000000000000000000000000000000000000000006064820152fd5b90918882813d8311612b18575b612b0781836141e2565b810103126103ca575051903861293e565b503d612afd565b50346103ca57806003193601126103ca5760206106b4614ad0565b50346103ca57806003193601126103ca57602060405160128152f35b50346103ca57806003193601126103ca57612b6f614342565b61016280547fffffffffffffffff00ffffffffffffffffffffffffffffffffffffffffffffff77ff000000000000000000000000000000000000000000000060ff8360b81c161560b81b16911617905580f35b50346103ca57806003193601126103ca57602060ff6101625460b81c166040519015158152f35b50346103ca5760406003193601126103ca57610407612c066140f6565b612c0e614122565b9061549e565b50346103ca5760606003193601126103ca57612c2e6140f6565b90612c37614122565b604435906101629360ff855460b01c16611813576001600160a01b039161019592808454169660405197629c185f60e01b89526020988981600481855afa908115612452578991612f32575b5061072757803b1561175e5787809160046040518094819363533ae12960e01b83525af180156117e0578392918991612f19575b505054169360405163df592f7d60e01b90818152838516600482015289816024818a5afa908115612452578991612efc575b50610e92576040519081528881602481868916998a60048301525afa9081156117e0578891612edf575b50610e9257612d22838561549e565b612d2c8385615052565b80546040517fd493e78c0000000000000000000000000000000000000000000000000000000081526001600160a01b0386811660048301528516602482015295906080908790604490829087165afa9586156117e0578896612ebf575b50875260ca8852604087203360005288526040600020546000198103612e61575b50612db6868486614ca0565b54169160ff6101965460a01c1693805190888101516060604083015192015192863b15612e5d576040517feec0d6560000000000000000000000000000000000000000000000000000000081526001600160a01b03958616600482015295909416602486015295151560448501526064840196909652608483019190915260a482019390935260c481019390935260e4830191909152829082908183816101048101611731565b8980fd5b868110612e7b5786612e75910333866147db565b38612daa565b6064896040519062461bcd60e51b82526004820152601d60248201527f45524332303a20696e73756666696369656e7420616c6c6f77616e63650000006044820152fd5b612ed891965060803d811161178b5761177c81836141e2565b9438612d89565b612ef69150893d8b116100a75761009981836141e2565b38612d13565b612f1391508a3d8c116100a75761009981836141e2565b38612ce9565b612f2591929350614196565b6124315781908738612cb7565b612f4991508a3d8c116100a75761009981836141e2565b38612c83565b50602090816003193601126103ca57612f666140f6565b612f6e615212565b60ff6101625460a01c16610779576001600160a01b0361019581815416604051629c185f60e01b81528681600481855afa908115610cc957869161324d575b5061072757803b15610ce85784809160046040518094819363533ae12960e01b83525af1801561076e57908591613239575b508583835416602460405180948193634eacc0fd60e01b83523460048401525af190811561076e57859161321c575b506106bc5761301d833461538c565b60048583835416604051928380926384b5843960e01b82525afa90811561076e5785916131ff575b50156100565734156131d55761019782815416803b156131d15785600491604051928380927fd0e30db000000000000000000000000000000000000000000000000000000000825234905af18015610cc95784879289926131b8575b506130fb9192935416858554166040519485809481937f095ea7b3000000000000000000000000000000000000000000000000000000008352349060048401602090939291936001600160a01b0360408201951681520152565b03925af1801561076e5761319b575b50541690813b1561071f576040517fc14cfe090000000000000000000000000000000000000000000000000000000081523060048201526001600160a01b03919091166024820152346044820181905260648201529082908290608490829084905af18015610cec57613187575b82600161016355604051348152f35b6131918291614196565b6103ca5780613178565b6131b190863d88116100a75761009981836141e2565b503861310a565b90506131c49150614196565b610ce857848684386130a1565b8580fd5b60046040517f7c7c8720000000000000000000000000000000000000000000000000000000008152fd5b6132169150863d88116100a75761009981836141e2565b38613045565b6132339150863d88116100a75761009981836141e2565b3861300e565b61324290614196565b610723578338612fdf565b6132649150873d89116100a75761009981836141e2565b38612fad565b50346103ca57806003193601126103ca57602060cb54604051908152f35b50346103ca5760406003193601126103ca576132a26140f6565b602435906132ae615311565b826001600160a01b038061019554169260ff6101965460a01c1690843b1561072357606484928360405195869485937facde9b2a0000000000000000000000000000000000000000000000000000000085521515600485015216978860248401528960448401525af18015610cec5761337d575b5050801561333957825260c9602052604082205580f35b606460405162461bcd60e51b815260206004820152601b60248201527f416464726573732063616e6e6f74206265207a65726f206164647200000000006044820152fd5b61338690614196565b61071f578238613322565b50346103ca5760c06003193601126103ca5760043567ffffffffffffffff8111610e08576133c3903690600401614221565b60243567ffffffffffffffff811161071f576133e3903690600401614221565b6133eb61410c565b916064356001600160a01b0381168103610cbc576084359182151583036131d1576001600160a01b0360a4351660a43503610cbc5785549360ff8560081c161594858096613e48575b8015613e31575b15613dc75785600160ff198316178955613d99575b5061346a60ff885460081c1661346581614bcf565b614bcf565b815167ffffffffffffffff8111613b1f5761348660cc54614627565b601f8111613cfc575b50806020601f8211600114613c79578991613c6e575b506000198260011b9260031b1c19161760cc555b80519067ffffffffffffffff8211613b1f5781906134d860cd54614627565b601f8111613bc6575b50602090601f8311600114613b3e578992613b33575b50506000198260011b9260031b1c19161760cd555b60ff865460081c169061351e82614bcf565b61355d6040519261352e846141aa565b600184527f31000000000000000000000000000000000000000000000000000000000000006020850152614bcf565b80519067ffffffffffffffff8211613b1f57819061357c60fd54614627565b601f8111613a77575b50602090601f83116001146139ef5789926139e4575b50506000198260011b9260031b1c19161760fd555b80519067ffffffffffffffff82116139d05781906135cf60fe54614627565b601f8111613928575b50602090601f83116001146138a0578892613895575b50506000198260011b9260031b1c19161760fe555b8460fb558460fc5561365360ff865460081c1661361f81614bcf565b73ffffffffffffffffffffffffffffffffffffffff19926001600160a01b0361016291168482541617905561346581614bcf565b61365c3361439a565b613664614342565b6001600160a01b0360a435161561040a5761368060a43561439a565b6001600160a01b0385549461369a60ff8760081c16614bcf565b1685610195805490838583161790551617916040517f98acd7a6000000000000000000000000000000000000000000000000000000008152602081600481875afa90811561180857879161384d575b506001600160a01b03600491169161019690602074ff0000000000000000000000000000000000000000835492151560a01b169687867fffffffffffffffffffffff000000000000000000000000000000000000000000851617178455604051948580926384b5843960e01b82525afa80156124525760ff938a9161382f575b50151560a81b95847fffffffffffffffffffff0000000000000000000000000000000000000000000075ff0000000000000000000000000000000000000000008916931617171780915560a81c16613819575b5050506137c7575080f35b7fffffffffffffffffffffffffffffffffffffffffffffffffffffffffffff00ff1681557f7f26b83ff96e1f2b6a682f133852f6798a09c465da95921460cefb3847402498602060405160018152a180f35b85610197931617908254161790553880806137bc565b613847915060203d81116100a75761009981836141e2565b38613769565b90506020813d821161388d575b81613867602093836141e2565b8101031261243157516001600160a01b0381168103612431576001600160a01b036136e9565b3d915061385a565b0151905038806135ee565b925060fe88527f54075df80ec1ae6ac9100e1fd0ebf3246c17f5c933137af392011f4c5f61513a9088935b601f198416851061390d576001945083601f198116106138f4575b505050811b0160fe55613603565b015160001960f88460031b161c191690553880806138e6565b818101518355602094850194600190930192909101906138cb565b90915060fe8852601f830160051c7f54075df80ec1ae6ac9100e1fd0ebf3246c17f5c933137af392011f4c5f61513a01602084106139a9575b908392915b601f820160051c7f54075df80ec1ae6ac9100e1fd0ebf3246c17f5c933137af392011f4c5f61513a01811061399b57506135d8565b898155849350600101613966565b507f54075df80ec1ae6ac9100e1fd0ebf3246c17f5c933137af392011f4c5f61513a613961565b602487634e487b7160e01b81526041600452fd5b01519050388061359b565b925060fd89527f9346ac6dd7de6b96975fec380d4d994c4c12e6a8897544f22915316cc6cca2809089935b601f1984168510613a5c576001945083601f19811610613a43575b505050811b0160fd556135b0565b015160001960f88460031b161c19169055388080613a35565b81810151835560209485019460019093019290910190613a1a565b90915060fd8952601f830160051c7f9346ac6dd7de6b96975fec380d4d994c4c12e6a8897544f22915316cc6cca2800160208410613af8575b908392915b601f820160051c7f9346ac6dd7de6b96975fec380d4d994c4c12e6a8897544f22915316cc6cca280018110613aea5750613585565b8a8155849350600101613ab5565b507f9346ac6dd7de6b96975fec380d4d994c4c12e6a8897544f22915316cc6cca280613ab0565b602488634e487b7160e01b81526041600452fd5b0151905038806134f7565b925060cd89527f83978b4c69c48dd978ab43fe30f077615294f938fb7f936d9eb340e51ea7db2e9089935b601f1984168510613bab576001945083601f19811610613b92575b505050811b0160cd5561350c565b015160001960f88460031b161c19169055388080613b84565b81810151835560209485019460019093019290910190613b69565b90915060cd8952601f830160051c7f83978b4c69c48dd978ab43fe30f077615294f938fb7f936d9eb340e51ea7db2e0160208410613c47575b908392915b601f820160051c7f83978b4c69c48dd978ab43fe30f077615294f938fb7f936d9eb340e51ea7db2e018110613c3957506134e1565b8a8155849350600101613c04565b507f83978b4c69c48dd978ab43fe30f077615294f938fb7f936d9eb340e51ea7db2e613bff565b9050830151386134a5565b915060cc89527f47197230e1e4b29fc0bd84d7d78966c0925452aff72a2a121538b102457e9ebe89925b601f1983168410613ce4576001935082601f19811610613ccb575b5050811b0160cc556134b9565b85015160001960f88460031b161c191690553880613cbe565b85810151825560209384019360019092019101613ca3565b60cc8952601f820160051c7f47197230e1e4b29fc0bd84d7d78966c0925452aff72a2a121538b102457e9ebe0160208310613d72575b601f820160051c7f47197230e1e4b29fc0bd84d7d78966c0925452aff72a2a121538b102457e9ebe018110613d67575061348f565b898155600101613d32565b507f47197230e1e4b29fc0bd84d7d78966c0925452aff72a2a121538b102457e9ebe613d32565b7fffffffffffffffffffffffffffffffffffffffffffffffffffffffffffff00001661010117875538613450565b608460405162461bcd60e51b815260206004820152602e60248201527f496e697469616c697a61626c653a20636f6e747261637420697320616c72656160448201527f647920696e697469616c697a65640000000000000000000000000000000000006064820152fd5b50303b15801561343b5750600160ff82161461343b565b50600160ff821610613434565b50346103ca5760406003193601126103ca57611890613e726140f6565b60243590336147db565b50346103ca57806003193601126103ca57604051600060cc54613e9e81614627565b80845290600190818116908115611b285750600114613ec757611ac984611ab5818603826141e2565b60cc600090815292507f47197230e1e4b29fc0bd84d7d78966c0925452aff72a2a121538b102457e9ebe5b828410613f0a575050508101602001611ab582611aa5565b80546020858701810191909152909301928101613ef2565b50346103ca5760406003193601126103ca57613f3c6140f6565b60243590613f48615311565b6001600160a01b03908382610195541660ff6101965460a01c1690803b1561071f576044839260405194859384927fd1273d9e000000000000000000000000000000000000000000000000000000008452151560048401528960248401525af1801561076e57614013575b50168015613fcf57825260c96020526040822090815401905580f35b606460405162461bcd60e51b815260206004820152601c60248201527f54726561737572792063616e6e6f74206265207a65726f2061646472000000006044820152fd5b61401f90949194614196565b9238613fb3565b50346103ca57806003193601126103ca5761403f614342565b6101627fffffffffffffff0000000000ffffffffffffffffffffffffffffffffffffffff815416905580f35b905034610e085781600319360112610e08576020816024816001600160a01b038061019654169061019554166370a0823160e01b835260048301525afa908115610cec5782916140c1575b602082604051908152f35b90506020813d82116140ee575b816140db602093836141e2565b81010312610e08576020915051386140b6565b3d91506140ce565b600435906001600160a01b0382168203610cbc57565b604435906001600160a01b0382168203610cbc57565b602435906001600160a01b0382168203610cbc57565b919082519283825260005b848110614164575050601f19601f8460006020809697860101520116010190565b602081830181015184830182015201614143565b5034610cbc576020600319360112610cbc5760206040516004358152f35b67ffffffffffffffff81116111c157604052565b6040810190811067ffffffffffffffff8211176111c157604052565b6060810190811067ffffffffffffffff8211176111c157604052565b90601f601f19910116810190811067ffffffffffffffff8211176111c157604052565b67ffffffffffffffff81116111c157601f01601f191660200190565b81601f82011215610cbc5780359061423882614205565b9261424660405194856141e2565b82845260208383010111610cbc57816000926020809301838601378301015290565b5034610cbc576020600319360112610cbc5760206106b46142876140f6565b61518a565b90815180825260208080930193019160005b8281106142ac575050505090565b83518552938101939281019260010161429e565b5034610cbc576000600319360112610cbc5760206001600160a01b036101955416604051908152f35b6003196060910112610cbc57600435906001600160a01b03906024358281168103610cbc57916044359081168103610cbc5790565b5034610cbc576020600319360112610cbc5760206106b461433d6140f6565b615268565b6001600160a01b0360975416330361435657565b606460405162461bcd60e51b815260206004820152602060248201527f4f776e61626c653a2063616c6c6572206973206e6f7420746865206f776e65726044820152fd5b609754906001600160a01b03809116918273ffffffffffffffffffffffffffffffffffffffff19821617609755167f8be0079c531659141344cd1fd0a4f28419497f9722a3daafe3b4186f6b6457e0600080a3565b156143f657565b608460405162461bcd60e51b815260206004820152602c60248201527f46756e6374696f6e206d7573742062652063616c6c6564207468726f7567682060448201527f64656c656761746563616c6c00000000000000000000000000000000000000006064820152fd5b1561446757565b608460405162461bcd60e51b815260206004820152602c60248201527f46756e6374696f6e206d7573742062652063616c6c6564207468726f7567682060448201527f6163746976652070726f787900000000000000000000000000000000000000006064820152fd5b803b15614521576001600160a01b037f360894a13ba1a3210667c828492db98dca3e2076cc3735a920a3ca505d382bbc911673ffffffffffffffffffffffffffffffffffffffff19825416179055565b608460405162461bcd60e51b815260206004820152602d60248201527f455243313936373a206e657720696d706c656d656e746174696f6e206973206e60448201527f6f74206120636f6e7472616374000000000000000000000000000000000000006064820152fd5b919290156145ec575081511561459f575090565b3b156145a85790565b606460405162461bcd60e51b815260206004820152601d60248201527f416464726573733a2063616c6c20746f206e6f6e2d636f6e74726163740000006044820152fd5b8251909150156145ff5750805190602001fd5b6146239060405191829162461bcd60e51b8352602060048401526024830190614138565b0390fd5b90600182811c92168015614657575b602083101461464157565b634e487b7160e01b600052602260045260246000fd5b91607f1691614636565b6040519060008260fd549161467583614627565b808352926001908181169081156146fd575060011461469e575b5061469c925003836141e2565b565b60fd600090815291507f9346ac6dd7de6b96975fec380d4d994c4c12e6a8897544f22915316cc6cca2805b8483106146e2575061469c93505081016020013861468f565b81935090816020925483858a010152019101909185926146c9565b6020935061469c95925060ff1991501682840152151560051b8201013861468f565b6040519060008260fe549161473383614627565b808352926001908181169081156146fd5750600114614759575061469c925003836141e2565b60fe600090815291507f54075df80ec1ae6ac9100e1fd0ebf3246c17f5c933137af392011f4c5f61513a5b84831061479d575061469c93505081016020013861468f565b81935090816020925483858a01015201910190918592614784565b919082018092116147c557565b634e487b7160e01b600052601160045260246000fd5b6001600160a01b038091169182156148a6571691821561483c5760207f8c5be1e5ebec7d5bd14f71427d1e84f3dd0314c0f7b2291e5b200ac8c7c3b925918360005260ca8252604060002085600052825280604060002055604051908152a3565b608460405162461bcd60e51b815260206004820152602260248201527f45524332303a20617070726f766520746f20746865207a65726f20616464726560448201527f73730000000000000000000000000000000000000000000000000000000000006064820152fd5b608460405162461bcd60e51b8152602060048201526024808201527f45524332303a20617070726f76652066726f6d20746865207a65726f2061646460448201527f72657373000000000000000000000000000000000000000000000000000000006064820152fd5b6005811015614a2b57806149205750565b6001810361496c57606460405162461bcd60e51b815260206004820152601860248201527f45434453413a20696e76616c6964207369676e617475726500000000000000006044820152fd5b600281036149b857606460405162461bcd60e51b815260206004820152601f60248201527f45434453413a20696e76616c6964207369676e6174757265206c656e677468006044820152fd5b6003146149c157565b608460405162461bcd60e51b815260206004820152602260248201527f45434453413a20696e76616c6964207369676e6174757265202773272076616c60448201527f75650000000000000000000000000000000000000000000000000000000000006064820152fd5b634e487b7160e01b600052602160045260246000fd5b9291907f7fffffffffffffffffffffffffffffff5d576e7357a4501ddfe92f46681b20a08311614ac45791608094939160ff602094604051948552168484015260408301526060820152600093849182805260015afa15614ab75781516001600160a01b03811615614ab1579190565b50600190565b50604051903d90823e3d90fd5b50505050600090600390565b614ad8614b46565b614ae0614b91565b6040519060208201927f8b73c3c69bb8fe3d512ecc4cf759cc79239f7b179b0ffacaa9a75d522b39400f8452604083015260608201524660808201523060a082015260a0815260c0810181811067ffffffffffffffff8211176111c15760405251902090565b614b4e614661565b8051908115614b5e576020012090565b505060fb548015614b6c5790565b507fc5d2460186f7233c927e7db2dcc703c0e500b653ca82273b7bfad8045d85a47090565b614b9961471f565b8051908115614ba9576020012090565b505060fc548015614b6c5790565b90816020910312610cbc57518015158103610cbc5790565b15614bd657565b608460405162461bcd60e51b815260206004820152602b60248201527f496e697469616c697a61626c653a20636f6e7472616374206973206e6f74206960448201527f6e697469616c697a696e670000000000000000000000000000000000000000006064820152fd5b90608082820312610cbc5780601f83011215610cbc57604051916080830183811067ffffffffffffffff8211176111c157604052829060808101928311610cbc57905b828210614c905750505090565b8151815260209182019101614c83565b6001600160a01b03809116918215614dec5716918215614d8257600082815260c9602052604081205491808310614d1857604082827fddf252ad1be2c89b69c2b068fc378daa952ba7f163c4a11628f55a4df523b3ef95876020965260c98652038282205586815220818154019055604051908152a3565b608460405162461bcd60e51b815260206004820152602660248201527f45524332303a207472616e7366657220616d6f756e742065786365656473206260448201527f616c616e636500000000000000000000000000000000000000000000000000006064820152fd5b608460405162461bcd60e51b815260206004820152602360248201527f45524332303a207472616e7366657220746f20746865207a65726f206164647260448201527f65737300000000000000000000000000000000000000000000000000000000006064820152fd5b608460405162461bcd60e51b815260206004820152602560248201527f45524332303a207472616e736665722066726f6d20746865207a65726f20616460448201527f64726573730000000000000000000000000000000000000000000000000000006064820152fd5b614e5f81614f4f565b8015614f40575b15614f1f5760246001600160a01b0391826101955416926040928392835195869384927fa4d96e170000000000000000000000000000000000000000000000000000000084521660048301525afa918215614f14576000918293614ede575b505060ff6101965460a01c16614ed9575090565b905090565b90809350813d8311614f0d575b614ef581836141e2565b810103126103ca575060208151910151903880614ec5565b503d614eeb565b50513d6000823e3d90fd5b614f3d906001600160a01b031660005260c960205260406000205490565b90565b50614f4a816153cd565b614e66565b6001600160a01b0380610195541690604051927f96b51eac0000000000000000000000000000000000000000000000000000000084521660048301526020918281602481855afa9182156100ae57839160009361501f575b5090600491604051928380927fddca8bfa0000000000000000000000000000000000000000000000000000000082525afa9283156100ae57600093614fee575b5050141590565b8181949293943d8311615018575b61500681836141e2565b810103126103ca575051903880614fe7565b503d614ffc565b9182819492943d831161504b575b61503781836141e2565b810103126103ca5750519082906004614fa7565b503d61502d565b61505b81614f4f565b615139575b506101959081546000926001600160a01b0380921692833b15610ce8576040517f5737ed7d000000000000000000000000000000000000000000000000000000008152858160248183888716998a60048401525af18015610cc957615124575b506150ca90614f4f565b6150d5575b50505050565b541690813b1561071f57829160248392604051948593849263242ffe5560e11b845260048401525af18015610cec57615110575b80806150cf565b61511a8291614196565b6103ca5780615109565b946151326150ca9296614196565b94906150c0565b6001600160a01b039081610195541691823b15610cbc57602460009283604051958694859363242ffe5560e11b85521660048401525af180156100ae57156150605761518490614196565b38615060565b60206001600160a01b0360248161019554169360405194859384927f728bf7330000000000000000000000000000000000000000000000000000000084521660048301525afa9081156100ae576000916151e357501990565b906020823d821161520a575b816151fc602093836141e2565b810103126103ca5750511990565b3d91506151ef565b61016360028154146152245760029055565b606460405162461bcd60e51b815260206004820152601f60248201527f5265656e7472616e637947756172643a207265656e7472616e742063616c6c006044820152fd5b60206001600160a01b0360248161019554169360405194859384927fc887e8a00000000000000000000000000000000000000000000000000000000084521660048301525afa9081156100ae576000916152c0575090565b906020823d82116152e6575b816152d9602093836141e2565b810103126103ca57505190565b3d91506152cc565b8051156152fb5760200190565b634e487b7160e01b600052603260045260246000fd5b6001600160a01b036101955416330361532657565b60046040517fe565d9cb000000000000000000000000000000000000000000000000000000008152fd5b6001600160a01b033391160361536257565b60046040517f7a45e685000000000000000000000000000000000000000000000000000000008152fd5b9081156131d55761539c9061518a565b106153a357565b60046040517f14a4b535000000000000000000000000000000000000000000000000000000008152fd5b6001600160a01b0380610195541690604051927fa129c8470000000000000000000000000000000000000000000000000000000084521660048301526020918281602481855afa9182156100ae57839160009361546b575b5090600491604051928380927f8df4541b0000000000000000000000000000000000000000000000000000000082525afa9283156100ae57600093614fee575050141590565b9182819492943d8311615497575b61548381836141e2565b810103126103ca5750519082906004615425565b503d615479565b6154a7816153cd565b615588575b506101959081546000926001600160a01b0380921692833b15610ce8576040517fb02f6988000000000000000000000000000000000000000000000000000000008152858160248183888716998a60048401525af18015610cc957615573575b50615516906153cd565b6155205750505050565b541690813b1561071f5782916024839260405194859384927f21ce113e00000000000000000000000000000000000000000000000000000000845260048401525af18015610cec576151105780806150cf565b946155816155169296614196565b949061550c565b6001600160a01b039081610195541691823b15610cbc5760246000928360405195869485937f21ce113e0000000000000000000000000000000000000000000000000000000085521660048401525af180156100ae57156154ac576155ec90614196565b386154ac565b906001600160a01b036101955416803b15610cbc576040517fc14cfe090000000000000000000000000000000000000000000000000000000081523360048201526001600160a01b0392909216602483015260448201839052606482018390526000908290608490829084905af180156100ae5761566e575090565b614f3d90614196565b916101958054916000936001600160a01b0380941692604093858551937f96b51eac00000000000000000000000000000000000000000000000000000000855216928360048201526020908181602481865afa908115615892578991615865575b5086517fddca8bfa0000000000000000000000000000000000000000000000000000000081528281600481875afa92831561585b578a93615827575b5050036157db575b5061572683615268565b87116157b257548416803b156131d1578592918360a492865197889586947f3d82850b00000000000000000000000000000000000000000000000000000000865233600487015260248601521660448401528960648401528960848401525af19081156157a9575061579757505090565b6157a18291614196565b6103ca575090565b513d84823e3d90fd5b600484517f1cf754b8000000000000000000000000000000000000000000000000000000008152fd5b803b1561243157868091602487518094819363242ffe5560e11b83528860048401525af1801561581d571561571c5761581690969196614196565b943861571c565b85513d89823e3d90fd5b9080929350813d8311615854575b61583f81836141e2565b810103126158505751903880615714565b8880fd5b503d615835565b88513d8c823e3d90fd5b90508181813d831161588b575b61587c81836141e2565b810103126158505751386156d8565b503d615872565b87513d8b823e3d90fdfea264697066735822122061714dd0cc7355c0468099110be2ba46851dd049e17ea1a4378be65df2bfcd9164736f6c63430008110033",
  "linkReferences": {},
  "deployedLinkReferences": {}
}