{
  "_format": "hh-sol-artifact-1",
  "contractName": "SmartToken",
  "sourceName": "contracts/vaults/SmartToken.sol",
  "abi": [
    {
      "inputs": [],
      "stateMutability": "nonpayable",
      "type": "constructor"
    },
    {
      "inputs": [],
      "name": "BaseContract__DepositCircuitBreaker",
      "type": "error"
    },
    {
      "inputs": [],
      "name": "BaseContract__RebalanceCircuitBreaker",
      "type": "error"
    },
    {
      "inputs": [],
      "name": "BaseContract__SanctionedAddress",
      "type": "error"
    },
    {
      "inputs": [],
      "name": "BaseContract__TransferCircuitBreaker",
      "type": "error"
    },
    {
      "inputs": [],
      "name": "BaseContract__WithdrawCircuitBreaker",
      "type": "error"
    },
    {
      "inputs": [],
      "name": "SmartToken__DepositLimitHit",
      "type": "error"
    },
    {
      "inputs": [],
      "name": "SmartToken__DepositMoreThanMax",
      "type": "error"
    },
    {
      "inputs": [],
      "name": "SmartToken__ExpiryDateReached",
      "type": "error"
    },
    {
      "inputs": [],
      "name": "SmartToken__InsufficientUnderlying",
      "type": "error"
    },
    {
      "inputs": [],
      "name": "SmartToken__MethodNotAllowed",
      "type": "error"
    },
    {
      "inputs": [],
      "name": "SmartToken__MintMoreThanMax",
      "type": "error"
    },
    {
      "inputs": [],
      "name": "SmartToken__NotTokenFactory",
      "type": "error"
    },
    {
      "inputs": [],
      "name": "SmartToken__OnlyAssetOwner",
      "type": "error"
    },
    {
      "inputs": [],
      "name": "SmartToken__RedeemMoreThanMax",
      "type": "error"
    },
    {
      "inputs": [],
      "name": "SmartToken__WithdrawLimitHit",
      "type": "error"
    },
    {
      "inputs": [],
      "name": "SmartToken__WithdrawMoreThanMax",
      "type": "error"
    },
    {
      "inputs": [],
      "name": "SmartToken__ZeroDeposit",
      "type": "error"
    },
    {
      "anonymous": false,
      "inputs": [
        {
          "indexed": false,
          "internalType": "address",
          "name": "previousAdmin",
          "type": "address"
        },
        {
          "indexed": false,
          "internalType": "address",
          "name": "newAdmin",
          "type": "address"
        }
      ],
      "name": "AdminChanged",
      "type": "event"
    },
    {
      "anonymous": false,
      "inputs": [
        {
          "indexed": true,
          "internalType": "address",
          "name": "owner",
          "type": "address"
        },
        {
          "indexed": true,
          "internalType": "address",
          "name": "spender",
          "type": "address"
        },
        {
          "indexed": false,
          "internalType": "uint256",
          "name": "value",
          "type": "uint256"
        }
      ],
      "name": "Approval",
      "type": "event"
    },
    {
      "anonymous": false,
      "inputs": [
        {
          "indexed": true,
          "internalType": "address",
          "name": "beacon",
          "type": "address"
        }
      ],
      "name": "BeaconUpgraded",
      "type": "event"
    },
    {
      "anonymous": false,
      "inputs": [
        {
          "indexed": true,
          "internalType": "address",
          "name": "sender",
          "type": "address"
        },
        {
          "indexed": true,
          "internalType": "address",
          "name": "owner",
          "type": "address"
        },
        {
          "indexed": false,
          "internalType": "uint256",
          "name": "assets",
          "type": "uint256"
        },
        {
          "indexed": false,
          "internalType": "uint256",
          "name": "shares",
          "type": "uint256"
        }
      ],
      "name": "Deposit",
      "type": "event"
    },
    {
      "anonymous": false,
      "inputs": [],
      "name": "EIP712DomainChanged",
      "type": "event"
    },
    {
      "anonymous": false,
      "inputs": [
        {
          "indexed": false,
          "internalType": "uint8",
          "name": "version",
          "type": "uint8"
        }
      ],
      "name": "Initialized",
      "type": "event"
    },
    {
      "anonymous": false,
      "inputs": [
        {
          "indexed": true,
          "internalType": "address",
          "name": "previousOwner",
          "type": "address"
        },
        {
          "indexed": true,
          "internalType": "address",
          "name": "newOwner",
          "type": "address"
        }
      ],
      "name": "OwnershipTransferred",
      "type": "event"
    },
    {
      "anonymous": false,
      "inputs": [
        {
          "indexed": true,
          "internalType": "address",
          "name": "from",
          "type": "address"
        },
        {
          "indexed": true,
          "internalType": "address",
          "name": "to",
          "type": "address"
        },
        {
          "indexed": false,
          "internalType": "uint256",
          "name": "value",
          "type": "uint256"
        }
      ],
      "name": "Transfer",
      "type": "event"
    },
    {
      "anonymous": false,
      "inputs": [
        {
          "indexed": true,
          "internalType": "address",
          "name": "implementation",
          "type": "address"
        }
      ],
      "name": "Upgraded",
      "type": "event"
    },
    {
      "anonymous": false,
      "inputs": [
        {
          "indexed": true,
          "internalType": "address",
          "name": "sender",
          "type": "address"
        },
        {
          "indexed": true,
          "internalType": "address",
          "name": "receiver",
          "type": "address"
        },
        {
          "indexed": true,
          "internalType": "address",
          "name": "owner",
          "type": "address"
        },
        {
          "indexed": false,
          "internalType": "uint256",
          "name": "assets",
          "type": "uint256"
        },
        {
          "indexed": false,
          "internalType": "uint256",
          "name": "shares",
          "type": "uint256"
        }
      ],
      "name": "Withdraw",
      "type": "event"
    },
    {
      "inputs": [],
      "name": "DOMAIN_SEPARATOR",
      "outputs": [
        {
          "internalType": "bytes32",
          "name": "",
          "type": "bytes32"
        }
      ],
      "stateMutability": "view",
      "type": "function"
    },
    {
      "inputs": [
        {
          "internalType": "address",
          "name": "owner",
          "type": "address"
        },
        {
          "internalType": "address",
          "name": "spender",
          "type": "address"
        }
      ],
      "name": "allowance",
      "outputs": [
        {
          "internalType": "uint256",
          "name": "",
          "type": "uint256"
        }
      ],
      "stateMutability": "view",
      "type": "function"
    },
    {
      "inputs": [
        {
          "internalType": "address",
          "name": "spender",
          "type": "address"
        },
        {
          "internalType": "uint256",
          "name": "amount",
          "type": "uint256"
        }
      ],
      "name": "approve",
      "outputs": [
        {
          "internalType": "bool",
          "name": "",
          "type": "bool"
        }
      ],
      "stateMutability": "nonpayable",
      "type": "function"
    },
    {
      "inputs": [],
      "name": "asset",
      "outputs": [
        {
          "internalType": "address",
          "name": "",
          "type": "address"
        }
      ],
      "stateMutability": "view",
      "type": "function"
    },
    {
      "inputs": [
        {
          "internalType": "address",
          "name": "account",
          "type": "address"
        }
      ],
      "name": "balanceOf",
      "outputs": [
        {
          "internalType": "uint256",
          "name": "",
          "type": "uint256"
        }
      ],
      "stateMutability": "view",
      "type": "function"
    },
    {
      "inputs": [
        {
          "internalType": "address",
          "name": "account",
          "type": "address"
        },
        {
          "internalType": "uint256",
          "name": "amount",
          "type": "uint256"
        }
      ],
      "name": "burn",
      "outputs": [],
      "stateMutability": "nonpayable",
      "type": "function"
    },
    {
      "inputs": [
        {
          "internalType": "uint256",
          "name": "shares",
          "type": "uint256"
        }
      ],
      "name": "convertToAssets",
      "outputs": [
        {
          "internalType": "uint256",
          "name": "assets",
          "type": "uint256"
        }
      ],
      "stateMutability": "view",
      "type": "function"
    },
    {
      "inputs": [
        {
          "internalType": "uint256",
          "name": "assets",
          "type": "uint256"
        }
      ],
      "name": "convertToShares",
      "outputs": [
        {
          "internalType": "uint256",
          "name": "shares",
          "type": "uint256"
        }
      ],
      "stateMutability": "view",
      "type": "function"
    },
    {
      "inputs": [],
      "name": "decimals",
      "outputs": [
        {
          "internalType": "uint8",
          "name": "",
          "type": "uint8"
        }
      ],
      "stateMutability": "view",
      "type": "function"
    },
    {
      "inputs": [
        {
          "internalType": "address",
          "name": "spender",
          "type": "address"
        },
        {
          "internalType": "uint256",
          "name": "subtractedValue",
          "type": "uint256"
        }
      ],
      "name": "decreaseAllowance",
      "outputs": [
        {
          "internalType": "bool",
          "name": "",
          "type": "bool"
        }
      ],
      "stateMutability": "nonpayable",
      "type": "function"
    },
    {
      "inputs": [
        {
          "internalType": "uint256",
          "name": "assets",
          "type": "uint256"
        },
        {
          "internalType": "address",
          "name": "receiver",
          "type": "address"
        }
      ],
      "name": "deposit",
      "outputs": [
        {
          "internalType": "uint256",
          "name": "",
          "type": "uint256"
        }
      ],
      "stateMutability": "nonpayable",
      "type": "function"
    },
    {
      "inputs": [
        {
          "internalType": "uint256",
          "name": "assets",
          "type": "uint256"
        },
        {
          "internalType": "address",
          "name": "receiver",
          "type": "address"
        },
        {
          "internalType": "uint256",
          "name": "expiryDate",
          "type": "uint256"
        }
      ],
      "name": "depositWithExpiry",
      "outputs": [
        {
          "internalType": "uint256",
          "name": "",
          "type": "uint256"
        }
      ],
      "stateMutability": "nonpayable",
      "type": "function"
    },
    {
      "inputs": [
        {
          "internalType": "uint256",
          "name": "assets",
          "type": "uint256"
        },
        {
          "internalType": "address",
          "name": "receiver",
          "type": "address"
        },
        {
          "internalType": "uint256",
          "name": "deadline",
          "type": "uint256"
        },
        {
          "internalType": "uint8",
          "name": "v",
          "type": "uint8"
        },
        {
          "internalType": "bytes32",
          "name": "r",
          "type": "bytes32"
        },
        {
          "internalType": "bytes32",
          "name": "s",
          "type": "bytes32"
        }
      ],
      "name": "depositWithPermit",
      "outputs": [
        {
          "internalType": "uint256",
          "name": "",
          "type": "uint256"
        }
      ],
      "stateMutability": "nonpayable",
      "type": "function"
    },
    {
      "inputs": [],
      "name": "eip712Domain",
      "outputs": [
        {
          "internalType": "bytes1",
          "name": "fields",
          "type": "bytes1"
        },
        {
          "internalType": "string",
          "name": "name",
          "type": "string"
        },
        {
          "internalType": "string",
          "name": "version",
          "type": "string"
        },
        {
          "internalType": "uint256",
          "name": "chainId",
          "type": "uint256"
        },
        {
          "internalType": "address",
          "name": "verifyingContract",
          "type": "address"
        },
        {
          "internalType": "bytes32",
          "name": "salt",
          "type": "bytes32"
        },
        {
          "internalType": "uint256[]",
          "name": "extensions",
          "type": "uint256[]"
        }
      ],
      "stateMutability": "view",
      "type": "function"
    },
    {
      "inputs": [],
      "name": "getTokenFactory",
      "outputs": [
        {
          "internalType": "address",
          "name": "",
          "type": "address"
        }
      ],
      "stateMutability": "view",
      "type": "function"
    },
    {
      "inputs": [
        {
          "internalType": "address",
          "name": "sender",
          "type": "address"
        },
        {
          "internalType": "address",
          "name": "receiver",
          "type": "address"
        }
      ],
      "name": "handlePendingFF",
      "outputs": [],
      "stateMutability": "nonpayable",
      "type": "function"
    },
    {
      "inputs": [
        {
          "internalType": "address",
          "name": "sender",
          "type": "address"
        },
        {
          "internalType": "address",
          "name": "receiver",
          "type": "address"
        }
      ],
      "name": "handlePendingRebalance",
      "outputs": [],
      "stateMutability": "nonpayable",
      "type": "function"
    },
    {
      "inputs": [
        {
          "internalType": "address",
          "name": "account",
          "type": "address"
        }
      ],
      "name": "hasPendingFF",
      "outputs": [
        {
          "internalType": "bool",
          "name": "",
          "type": "bool"
        }
      ],
      "stateMutability": "view",
      "type": "function"
    },
    {
      "inputs": [
        {
          "internalType": "address",
          "name": "account",
          "type": "address"
        }
      ],
      "name": "hasPendingRebalance",
      "outputs": [
        {
          "internalType": "bool",
          "name": "",
          "type": "bool"
        }
      ],
      "stateMutability": "view",
      "type": "function"
    },
    {
      "inputs": [
        {
          "internalType": "address",
          "name": "spender",
          "type": "address"
        },
        {
          "internalType": "uint256",
          "name": "addedValue",
          "type": "uint256"
        }
      ],
      "name": "increaseAllowance",
      "outputs": [
        {
          "internalType": "bool",
          "name": "",
          "type": "bool"
        }
      ],
      "stateMutability": "nonpayable",
      "type": "function"
    },
    {
      "inputs": [
        {
          "internalType": "string",
          "name": "tokenName",
          "type": "string"
        },
        {
          "internalType": "string",
          "name": "tokenSymbol",
          "type": "string"
        },
        {
          "internalType": "address",
          "name": "factoryAddress",
          "type": "address"
        },
        {
          "internalType": "address",
          "name": "sanctionsContract_",
          "type": "address"
        },
        {
          "internalType": "bool",
          "name": "isX_",
          "type": "bool"
        },
        {
          "internalType": "address",
          "name": "owner_",
          "type": "address"
        }
      ],
      "name": "initialize",
      "outputs": [],
      "stateMutability": "nonpayable",
      "type": "function"
    },
    {
      "inputs": [],
      "name": "isDepositCircuitBreaker",
      "outputs": [
        {
          "internalType": "bool",
          "name": "",
          "type": "bool"
        }
      ],
      "stateMutability": "view",
      "type": "function"
    },
    {
      "inputs": [],
      "name": "isRebalanceCircuitBreaker",
      "outputs": [
        {
          "internalType": "bool",
          "name": "",
          "type": "bool"
        }
      ],
      "stateMutability": "view",
      "type": "function"
    },
    {
      "inputs": [],
      "name": "isTransferCircuitBreaker",
      "outputs": [
        {
          "internalType": "bool",
          "name": "",
          "type": "bool"
        }
      ],
      "stateMutability": "view",
      "type": "function"
    },
    {
      "inputs": [],
      "name": "isWithdrawCircuitBreaker",
      "outputs": [
        {
          "internalType": "bool",
          "name": "",
          "type": "bool"
        }
      ],
      "stateMutability": "view",
      "type": "function"
    },
    {
      "inputs": [
        {
          "internalType": "address",
          "name": "account",
          "type": "address"
        }
      ],
      "name": "maxDeposit",
      "outputs": [
        {
          "internalType": "uint256",
          "name": "",
          "type": "uint256"
        }
      ],
      "stateMutability": "view",
      "type": "function"
    },
    {
      "inputs": [
        {
          "internalType": "address",
          "name": "account",
          "type": "address"
        }
      ],
      "name": "maxMint",
      "outputs": [
        {
          "internalType": "uint256",
          "name": "",
          "type": "uint256"
        }
      ],
      "stateMutability": "view",
      "type": "function"
    },
    {
      "inputs": [
        {
          "internalType": "address",
          "name": "owner_",
          "type": "address"
        }
      ],
      "name": "maxRedeem",
      "outputs": [
        {
          "internalType": "uint256",
          "name": "",
          "type": "uint256"
        }
      ],
      "stateMutability": "view",
      "type": "function"
    },
    {
      "inputs": [
        {
          "internalType": "address",
          "name": "owner_",
          "type": "address"
        }
      ],
      "name": "maxWithdraw",
      "outputs": [
        {
          "internalType": "uint256",
          "name": "",
          "type": "uint256"
        }
      ],
      "stateMutability": "view",
      "type": "function"
    },
    {
      "inputs": [
        {
          "internalType": "uint256",
          "name": "shares",
          "type": "uint256"
        },
        {
          "internalType": "address",
          "name": "receiver",
          "type": "address"
        }
      ],
      "name": "mint",
      "outputs": [
        {
          "internalType": "uint256",
          "name": "",
          "type": "uint256"
        }
      ],
      "stateMutability": "nonpayable",
      "type": "function"
    },
    {
      "inputs": [
        {
          "internalType": "address",
          "name": "receiver",
          "type": "address"
        },
        {
          "internalType": "uint256",
          "name": "amount",
          "type": "uint256"
        }
      ],
      "name": "mintAsset",
      "outputs": [],
      "stateMutability": "nonpayable",
      "type": "function"
    },
    {
      "inputs": [],
      "name": "name",
      "outputs": [
        {
          "internalType": "string",
          "name": "",
          "type": "string"
        }
      ],
      "stateMutability": "view",
      "type": "function"
    },
    {
      "inputs": [
        {
          "internalType": "address",
          "name": "owner",
          "type": "address"
        }
      ],
      "name": "nonces",
      "outputs": [
        {
          "internalType": "uint256",
          "name": "",
          "type": "uint256"
        }
      ],
      "stateMutability": "view",
      "type": "function"
    },
    {
      "inputs": [],
      "name": "owner",
      "outputs": [
        {
          "internalType": "address",
          "name": "",
          "type": "address"
        }
      ],
      "stateMutability": "view",
      "type": "function"
    },
    {
      "inputs": [
        {
          "internalType": "address",
          "name": "owner",
          "type": "address"
        },
        {
          "internalType": "address",
          "name": "spender",
          "type": "address"
        },
        {
          "internalType": "uint256",
          "name": "value",
          "type": "uint256"
        },
        {
          "internalType": "uint256",
          "name": "deadline",
          "type": "uint256"
        },
        {
          "internalType": "uint8",
          "name": "v",
          "type": "uint8"
        },
        {
          "internalType": "bytes32",
          "name": "r",
          "type": "bytes32"
        },
        {
          "internalType": "bytes32",
          "name": "s",
          "type": "bytes32"
        }
      ],
      "name": "permit",
      "outputs": [],
      "stateMutability": "nonpayable",
      "type": "function"
    },
    {
      "inputs": [
        {
          "internalType": "uint256",
          "name": "assets",
          "type": "uint256"
        }
      ],
      "name": "previewDeposit",
      "outputs": [
        {
          "internalType": "uint256",
          "name": "",
          "type": "uint256"
        }
      ],
      "stateMutability": "view",
      "type": "function"
    },
    {
      "inputs": [
        {
          "internalType": "uint256",
          "name": "shares",
          "type": "uint256"
        }
      ],
      "name": "previewMint",
      "outputs": [
        {
          "internalType": "uint256",
          "name": "",
          "type": "uint256"
        }
      ],
      "stateMutability": "view",
      "type": "function"
    },
    {
      "inputs": [
        {
          "internalType": "uint256",
          "name": "shares",
          "type": "uint256"
        }
      ],
      "name": "previewRedeem",
      "outputs": [
        {
          "internalType": "uint256",
          "name": "",
          "type": "uint256"
        }
      ],
      "stateMutability": "view",
      "type": "function"
    },
    {
      "inputs": [
        {
          "internalType": "uint256",
          "name": "assets",
          "type": "uint256"
        }
      ],
      "name": "previewWithdraw",
      "outputs": [
        {
          "internalType": "uint256",
          "name": "",
          "type": "uint256"
        }
      ],
      "stateMutability": "view",
      "type": "function"
    },
    {
      "inputs": [],
      "name": "proxiableUUID",
      "outputs": [
        {
          "internalType": "bytes32",
          "name": "",
          "type": "bytes32"
        }
      ],
      "stateMutability": "view",
      "type": "function"
    },
    {
      "inputs": [
        {
          "internalType": "uint256",
          "name": "shares",
          "type": "uint256"
        },
        {
          "internalType": "address",
          "name": "receiver",
          "type": "address"
        },
        {
          "internalType": "address",
          "name": "owner_",
          "type": "address"
        }
      ],
      "name": "redeem",
      "outputs": [
        {
          "internalType": "uint256",
          "name": "",
          "type": "uint256"
        }
      ],
      "stateMutability": "nonpayable",
      "type": "function"
    },
    {
      "inputs": [],
      "name": "renounceOwnership",
      "outputs": [],
      "stateMutability": "nonpayable",
      "type": "function"
    },
    {
      "inputs": [],
      "name": "resumeAllCircuitBreakers",
      "outputs": [],
      "stateMutability": "nonpayable",
      "type": "function"
    },
    {
      "inputs": [
        {
          "internalType": "address",
          "name": "account",
          "type": "address"
        },
        {
          "internalType": "uint256",
          "name": "amount",
          "type": "uint256"
        }
      ],
      "name": "smartBalanceAdjust",
      "outputs": [],
      "stateMutability": "nonpayable",
      "type": "function"
    },
    {
      "inputs": [
        {
          "internalType": "address",
          "name": "treasuryAddress",
          "type": "address"
        },
        {
          "internalType": "uint256",
          "name": "amount",
          "type": "uint256"
        }
      ],
      "name": "smartTreasuryTransfer",
      "outputs": [],
      "stateMutability": "nonpayable",
      "type": "function"
    },
    {
      "inputs": [],
      "name": "stopAllCircuitBreakers",
      "outputs": [],
      "stateMutability": "nonpayable",
      "type": "function"
    },
    {
      "inputs": [],
      "name": "symbol",
      "outputs": [
        {
          "internalType": "string",
          "name": "",
          "type": "string"
        }
      ],
      "stateMutability": "view",
      "type": "function"
    },
    {
      "inputs": [],
      "name": "toggleDepositCircuitBreaker",
      "outputs": [],
      "stateMutability": "nonpayable",
      "type": "function"
    },
    {
      "inputs": [],
      "name": "toggleRebalanceCircuitBreaker",
      "outputs": [],
      "stateMutability": "nonpayable",
      "type": "function"
    },
    {
      "inputs": [],
      "name": "toggleTransferCircuitBreaker",
      "outputs": [],
      "stateMutability": "nonpayable",
      "type": "function"
    },
    {
      "inputs": [],
      "name": "toggleWithdrawCircuitBreaker",
      "outputs": [],
      "stateMutability": "nonpayable",
      "type": "function"
    },
    {
      "inputs": [],
      "name": "totalAssets",
      "outputs": [
        {
          "internalType": "uint256",
          "name": "",
          "type": "uint256"
        }
      ],
      "stateMutability": "view",
      "type": "function"
    },
    {
      "inputs": [],
      "name": "totalSupply",
      "outputs": [
        {
          "internalType": "uint256",
          "name": "",
          "type": "uint256"
        }
      ],
      "stateMutability": "view",
      "type": "function"
    },
    {
      "inputs": [
        {
          "internalType": "address",
          "name": "recipient",
          "type": "address"
        },
        {
          "internalType": "uint256",
          "name": "amount",
          "type": "uint256"
        }
      ],
      "name": "transfer",
      "outputs": [
        {
          "internalType": "bool",
          "name": "",
          "type": "bool"
        }
      ],
      "stateMutability": "nonpayable",
      "type": "function"
    },
    {
      "inputs": [
        {
          "internalType": "address",
          "name": "sender",
          "type": "address"
        },
        {
          "internalType": "address",
          "name": "recipient",
          "type": "address"
        },
        {
          "internalType": "uint256",
          "name": "amount",
          "type": "uint256"
        }
      ],
      "name": "transferFrom",
      "outputs": [
        {
          "internalType": "bool",
          "name": "",
          "type": "bool"
        }
      ],
      "stateMutability": "nonpayable",
      "type": "function"
    },
    {
      "inputs": [
        {
          "internalType": "address",
          "name": "newOwner",
          "type": "address"
        }
      ],
      "name": "transferOwnership",
      "outputs": [],
      "stateMutability": "nonpayable",
      "type": "function"
    },
    {
      "inputs": [
        {
          "internalType": "address",
          "name": "account",
          "type": "address"
        }
      ],
      "name": "unScaledbalanceOf",
      "outputs": [
        {
          "internalType": "uint256",
          "name": "",
          "type": "uint256"
        }
      ],
      "stateMutability": "view",
      "type": "function"
    },
    {
      "inputs": [
        {
          "internalType": "address",
          "name": "newImplementation",
          "type": "address"
        }
      ],
      "name": "upgradeTo",
      "outputs": [],
      "stateMutability": "nonpayable",
      "type": "function"
    },
    {
      "inputs": [
        {
          "internalType": "address",
          "name": "newImplementation",
          "type": "address"
        },
        {
          "internalType": "bytes",
          "name": "data",
          "type": "bytes"
        }
      ],
      "name": "upgradeToAndCall",
      "outputs": [],
      "stateMutability": "payable",
      "type": "function"
    },
    {
      "inputs": [
        {
          "internalType": "uint256",
          "name": "assets",
          "type": "uint256"
        },
        {
          "internalType": "address",
          "name": "receiver",
          "type": "address"
        },
        {
          "internalType": "address",
          "name": "owner_",
          "type": "address"
        }
      ],
      "name": "withdraw",
      "outputs": [
        {
          "internalType": "uint256",
          "name": "",
          "type": "uint256"
        }
      ],
      "stateMutability": "nonpayable",
      "type": "function"
    },
    {
      "inputs": [
        {
          "internalType": "uint256",
          "name": "assets",
          "type": "uint256"
        },
        {
          "internalType": "address",
          "name": "receiver",
          "type": "address"
        },
        {
          "internalType": "address",
          "name": "owner_",
          "type": "address"
        },
        {
          "internalType": "uint256",
          "name": "expiryDate",
          "type": "uint256"
        }
      ],
      "name": "withdrawWithExpiry",
      "outputs": [
        {
          "internalType": "uint256",
          "name": "",
          "type": "uint256"
        }
      ],
      "stateMutability": "nonpayable",
      "type": "function"
    }
  ],
  "bytecode": "0x60a0604052306080523480156200001557600080fd5b506200002062000030565b6200002a62000030565b620000f1565b600054610100900460ff16156200009d5760405162461bcd60e51b815260206004820152602760248201527f496e697469616c697a61626c653a20636f6e747261637420697320696e697469604482015266616c697a696e6760c81b606482015260840160405180910390fd5b60005460ff90811614620000ef576000805460ff191660ff9081179091556040519081527f7f26b83ff96e1f2b6a682f133852f6798a09c465da95921460cefb38474024989060200160405180910390a15b565b608051614f2a62000129600039600081816113f50152818161147a0152818161162b015281816116b00152611afa0152614f2a6000f3fe6080604052600436106103a25760003560e01c80637ecebe00116101e7578063ba0876521161010d578063d905777e116100a0578063ef8b30f71161006f578063ef8b30f714610428578063f077fd3c146109b5578063f2fde38b146109d5578063fd6064b3146109f557600080fd5b8063d905777e146108d0578063dd62ed3e1461093a578063e2a3cd0b14610980578063e5812731146109a057600080fd5b8063ce96cb77116100dc578063ce96cb77146108d0578063d505accf146108f0578063d69f62e014610910578063d78f09211461092557600080fd5b8063ba08765214610890578063c3e4eb0f146108b0578063c63d75b6146105e4578063c6e6f5921461042857600080fd5b806394bf804d11610185578063a9059cbb11610154578063a9059cbb14610850578063b1dbfcee14610870578063b3d7f6b914610428578063b460af941461089057600080fd5b806394bf804d146107db57806395d89b41146107fb5780639dc29fac14610810578063a457c2d71461083057600080fd5b80638da5cb5b116101c15780638da5cb5b1461075e5780638f4cef0c1461077c5780638f50bd131461079c578063925d6ba2146107bc57600080fd5b80637ecebe00146106f657806384b0196e1461071657806385f2eac01461073e57600080fd5b80633644e515116102cc578063501639741161026a5780636a300529116102395780636a3005291461068c5780636e553f65146106a157806370a08231146106c1578063715018a6146106e157600080fd5b8063501639741461061757806350921b231461063757806352d1902d146106575780635f758bef1461066c57600080fd5b806339509351116102a657806339509351146105c4578063402d267d146105e45780634cdad506146104285780634f1ef2861461060457600080fd5b80633644e5151461055c5780633659cfe61461057157806338d52e0f1461059157600080fd5b806312cfca3811610344578063275f0ddd11610313578063275f0ddd146104eb57806327a44ed01461050b578063309280091461052b578063313ce5671461054057600080fd5b806312cfca381461047657806316b535f41461049657806318160ddd146104b657806323b872dd146104cb57600080fd5b806306fdde031161038057806306fdde031461040657806307a2d13a14610428578063095ea7b3146104465780630a28a4771461042857600080fd5b806301e1d114146103a7578063030d4ed7146103cf57806305bfee33146103e6575b600080fd5b3480156103b357600080fd5b506103bc610a15565b6040519081526020015b60405180910390f35b3480156103db57600080fd5b506103e4610a91565b005b3480156103f257600080fd5b506103e46104013660046146bf565b610aac565b34801561041257600080fd5b5061041b610b38565b6040516103c6919061473b565b34801561043457600080fd5b506103bc61044336600461474e565b90565b34801561045257600080fd5b506104666104613660046146bf565b610bca565b60405190151581526020016103c6565b34801561048257600080fd5b506103e4610491366004614821565b610be4565b3480156104a257600080fd5b506103e46104b13660046146bf565b610df5565b3480156104c257600080fd5b5060cb546103bc565b3480156104d757600080fd5b506104666104e63660046148d0565b610e84565b3480156104f757600080fd5b506103e4610506366004614911565b611259565b34801561051757600080fd5b5061016254600160b81b900460ff16610466565b34801561053757600080fd5b506103e461139c565b34801561054c57600080fd5b50604051601281526020016103c6565b34801561056857600080fd5b506103bc6113e1565b34801561057d57600080fd5b506103e461058c36600461494a565b6113eb565b34801561059d57600080fd5b50610196546001600160a01b03165b6040516001600160a01b0390911681526020016103c6565b3480156105d057600080fd5b506104666105df3660046146bf565b611566565b3480156105f057600080fd5b506103bc6105ff36600461494a565b6115a5565b6103e4610612366004614967565b611621565b34801561062357600080fd5b5061046661063236600461494a565b611789565b34801561064357600080fd5b506103bc6106523660046149dc565b611870565b34801561066357600080fd5b506103bc611aed565b34801561067857600080fd5b506103e46106873660046146bf565b611bb2565b34801561069857600080fd5b506103e4611bc4565b3480156106ad57600080fd5b506103bc6106bc366004614a36565b611c09565b3480156106cd57600080fd5b506103bc6106dc36600461494a565b611de6565b3480156106ed57600080fd5b506103e4611eab565b34801561070257600080fd5b506103bc61071136600461494a565b611ebf565b34801561072257600080fd5b5061072b611ede565b6040516103c69796959493929190614a5b565b34801561074a57600080fd5b5061016254600160b01b900460ff16610466565b34801561076a57600080fd5b506097546001600160a01b03166105ac565b34801561078857600080fd5b506103bc61079736600461494a565b611f84565b3480156107a857600080fd5b506104666107b736600461494a565b611fa2565b3480156107c857600080fd5b50610195546001600160a01b03166105ac565b3480156107e757600080fd5b506103bc6107f6366004614a36565b612044565b34801561080757600080fd5b5061041b61223c565b34801561081c57600080fd5b506103e461082b3660046146bf565b61224b565b34801561083c57600080fd5b5061046661084b3660046146bf565b61225d565b34801561085c57600080fd5b5061046661086b3660046146bf565b6122fa565b34801561087c57600080fd5b5061016254600160a81b900460ff16610466565b34801561089c57600080fd5b506103bc6108ab366004614af1565b6126dd565b3480156108bc57600080fd5b506103bc6108cb366004614b33565b6128cd565b3480156108dc57600080fd5b506103bc6108eb36600461494a565b612ae0565b3480156108fc57600080fd5b506103e461090b366004614b7b565b612b50565b34801561091c57600080fd5b506103e4612cb4565b34801561093157600080fd5b506103e4612ce9565b34801561094657600080fd5b506103bc610955366004614911565b6001600160a01b03918216600090815260ca6020908152604080832093909416825291909152205490565b34801561098c57600080fd5b506103bc61099b366004614be9565b612d24565b3480156109ac57600080fd5b506103e4612f24565b3480156109c157600080fd5b506103e46109d0366004614911565b612f69565b3480156109e157600080fd5b506103e46109f036600461494a565b613079565b348015610a0157600080fd5b5061016254600160a01b900460ff16610466565b61019654610195546040516370a0823160e01b81526001600160a01b03918216600482015260009291909116906370a0823190602401602060405180830381865afa158015610a68573d6000803e3d6000fd5b505050506040513d601f19601f82011682018060405250810190610a8c9190614c10565b905090565b610a996130ef565b610162805463ffffffff60a01b19169055565b610ab4613149565b61019554610196546040516368939ecf60e11b8152600160a01b90910460ff1615156004820152602481018390526001600160a01b039091169063d1273d9e90604401600060405180830381600087803b158015610b1157600080fd5b505af1158015610b25573d6000803e3d6000fd5b50505050610b33828261317e565b505050565b606060cc8054610b4790614c29565b80601f0160208091040260200160405190810160405280929190818152602001828054610b7390614c29565b8015610bc05780601f10610b9557610100808354040283529160200191610bc0565b820191906000526020600020905b815481529060010190602001808311610ba357829003601f168201915b5050505050905090565b600033610bd8818585613193565b60019150505b92915050565b600054610100900460ff1615808015610c045750600054600160ff909116105b80610c1e5750303b158015610c1e575060005460ff166001145b610c955760405162461bcd60e51b815260206004820152602e60248201527f496e697469616c697a61626c653a20636f6e747261637420697320616c72656160448201527f647920696e697469616c697a656400000000000000000000000000000000000060648201526084015b60405180910390fd5b6000805460ff191660011790558015610cb8576000805461ff0019166101001790555b610cc287876132b7565b610ccb8761331a565b610cd484613396565b610cdc613412565b610ce582613079565b610ced613473565b61019580546001600160a01b0319166001600160a01b03871690811790915560408051634c566bd360e11b815290516398acd7a6916004808201926020929091908290030181865afa158015610d47573d6000803e3d6000fd5b505050506040513d601f19601f82011682018060405250810190610d6b9190614c5d565b61019680546001600160a01b039290921674ffffffffffffffffffffffffffffffffffffffffff1990921691909117600160a01b851515021790558015610dec576000805461ff0019169055604051600181527f7f26b83ff96e1f2b6a682f133852f6798a09c465da95921460cefb38474024989060200160405180910390a15b50505050505050565b610dfd613149565b610195546101965460405163566f4d9560e11b8152600160a01b90910460ff16151560048201526001600160a01b038481166024830152604482018490529091169063acde9b2a90606401600060405180830381600087803b158015610e6257600080fd5b505af1158015610e76573d6000803e3d6000fd5b50505050610b3382826134cc565b61016254600090600160b01b900460ff1615610eb357604051630c98e6a160e31b815260040160405180910390fd5b61019560009054906101000a90046001600160a01b03166001600160a01b0316629c185f6040518163ffffffff1660e01b8152600401602060405180830381865afa158015610f06573d6000803e3d6000fd5b505050506040513d601f19601f82011682018060405250810190610f2a9190614c7a565b15610f48576040516321e3430160e21b815260040160405180910390fd5b61019560009054906101000a90046001600160a01b03166001600160a01b031663533ae1296040518163ffffffff1660e01b8152600401600060405180830381600087803b158015610f9957600080fd5b505af1158015610fad573d6000803e3d6000fd5b50506101625460405163df592f7d60e01b81526001600160a01b0380881660048301528794509091169150600090829063df592f7d90602401602060405180830381865afa158015611003573d6000803e3d6000fd5b505050506040513d601f19601f820116820180604052508101906110279190614c7a565b905080156110485760405163108a7eb160e21b815260040160405180910390fd5b6101625460405163df592f7d60e01b81526001600160a01b03808a16600483015289921690600090829063df592f7d90602401602060405180830381865afa158015611098573d6000803e3d6000fd5b505050506040513d601f19601f820116820180604052508101906110bc9190614c7a565b905080156110dd5760405163108a7eb160e21b815260040160405180910390fd5b6110e78a8a611259565b6110f18a8a612f69565b61019554604051633524f9e360e21b81526001600160a01b038c811660048301528b81166024830152600092169063d493e78c90604401608060405180830381865afa158015611145573d6000803e3d6000fd5b505050506040513d601f19601f820116820180604052508101906111699190614c97565b905060006111788c8c8c6134d8565b61019554610196549192506001600160a01b03169063eec0d656908e908e90600160a01b900460ff168e8760006020020151886001602002015189600260200201518a600360200201516040516001600160e01b031960e08b901b1681526001600160a01b03988916600482015297909616602488015293151560448701526064860192909252608485015260a484015260c483015260e482015261010401600060405180830381600087803b15801561123157600080fd5b505af1158015611245573d6000803e3d6000fd5b50929e9d5050505050505050505050505050565b61126282611789565b156112c857610195546040516310e7089f60e11b81526001600160a01b038481166004830152909116906321ce113e90602401600060405180830381600087803b1580156112af57600080fd5b505af11580156112c3573d6000803e3d6000fd5b505050505b61019554604051631605ed3160e31b81526001600160a01b0383811660048301529091169063b02f698890602401600060405180830381600087803b15801561131057600080fd5b505af1158015611324573d6000803e3d6000fd5b5050505061133181611789565b1561139857610195546040516310e7089f60e11b81526001600160a01b038381166004830152909116906321ce113e906024015b600060405180830381600087803b15801561137f57600080fd5b505af1158015611393573d6000803e3d6000fd5b505050505b5050565b6113a46130ef565b61016280547fffffffffffffffff00ffffffffffffffffffffffffffffffffffffffffffffff8116600160b81b9182900460ff1615909102179055565b6000610a8c6134f1565b6001600160a01b037f00000000000000000000000000000000000000000000000000000000000000001630036114785760405162461bcd60e51b815260206004820152602c60248201527f46756e6374696f6e206d7573742062652063616c6c6564207468726f7567682060448201526b19195b1959d85d1958d85b1b60a21b6064820152608401610c8c565b7f00000000000000000000000000000000000000000000000000000000000000006001600160a01b03166114d37f360894a13ba1a3210667c828492db98dca3e2076cc3735a920a3ca505d382bbc546001600160a01b031690565b6001600160a01b03161461153e5760405162461bcd60e51b815260206004820152602c60248201527f46756e6374696f6e206d7573742062652063616c6c6564207468726f7567682060448201526b6163746976652070726f787960a01b6064820152608401610c8c565b611547816134fb565b6040805160008082526020820190925261156391839190613503565b50565b33600081815260ca602090815260408083206001600160a01b0387168452909152812054909190610bd890829086906115a0908790614d2b565b613193565b6101955460405163728bf73360e01b81526001600160a01b038381166004830152600092169063728bf73390602401602060405180830381865afa1580156115f1573d6000803e3d6000fd5b505050506040513d601f19601f820116820180604052508101906116159190614c10565b610bde90600019614d3e565b6001600160a01b037f00000000000000000000000000000000000000000000000000000000000000001630036116ae5760405162461bcd60e51b815260206004820152602c60248201527f46756e6374696f6e206d7573742062652063616c6c6564207468726f7567682060448201526b19195b1959d85d1958d85b1b60a21b6064820152608401610c8c565b7f00000000000000000000000000000000000000000000000000000000000000006001600160a01b03166117097f360894a13ba1a3210667c828492db98dca3e2076cc3735a920a3ca505d382bbc546001600160a01b031690565b6001600160a01b0316146117745760405162461bcd60e51b815260206004820152602c60248201527f46756e6374696f6e206d7573742062652063616c6c6564207468726f7567682060448201526b6163746976652070726f787960a01b6064820152608401610c8c565b61177d826134fb565b61139882826001613503565b6101955460408051638df4541b60e01b815290516000926001600160a01b031691638df4541b9160048083019260209291908290030181865afa1580156117d4573d6000803e3d6000fd5b505050506040513d601f19601f820116820180604052508101906117f89190614c10565b6101955460405163a129c84760e01b81526001600160a01b0385811660048301529091169063a129c847906024015b602060405180830381865afa158015611844573d6000803e3d6000fd5b505050506040513d601f19601f820116820180604052508101906118689190614c10565b141592915050565b61016254600090600160a01b900460ff161561189f57604051636822eceb60e11b815260040160405180910390fd5b61019560009054906101000a90046001600160a01b03166001600160a01b0316629c185f6040518163ffffffff1660e01b8152600401602060405180830381865afa1580156118f2573d6000803e3d6000fd5b505050506040513d601f19601f820116820180604052508101906119169190614c7a565b15611934576040516321e3430160e21b815260040160405180910390fd5b61019560009054906101000a90046001600160a01b03166001600160a01b031663533ae1296040518163ffffffff1660e01b8152600401600060405180830381600087803b15801561198557600080fd5b505af1158015611999573d6000803e3d6000fd5b505061019554604051634eacc0fd60e01b8152600481018b90528a93506001600160a01b039091169150634eacc0fd906024016020604051808303816000875af11580156119eb573d6000803e3d6000fd5b505050506040513d601f19601f82011682018060405250810190611a0f9190614c7a565b15611a2d5760405163b04c001160e01b815260040160405180910390fd5b8787611a39828261368f565b610196546001600160a01b031663d505accf336101955460405160e084901b6001600160e01b03191681526001600160a01b03928316600482015291166024820152604481018d9052606481018b905260ff8a16608482015260a4810189905260c4810188905260e401600060405180830381600087803b158015611abd57600080fd5b505af1158015611ad1573d6000803e3d6000fd5b50505050611adf8a8a6136d9565b9a9950505050505050505050565b6000306001600160a01b037f00000000000000000000000000000000000000000000000000000000000000001614611b8d5760405162461bcd60e51b815260206004820152603860248201527f555550535570677261646561626c653a206d757374206e6f742062652063616c60448201527f6c6564207468726f7567682064656c656761746563616c6c00000000000000006064820152608401610c8c565b507f360894a13ba1a3210667c828492db98dca3e2076cc3735a920a3ca505d382bbc90565b611bba613149565b611398828261375d565b611bcc6130ef565b61016280547fffffffffffffffffff00ffffffffffffffffffffffffffffffffffffffffffff8116600160b01b9182900460ff1615909102179055565b61016254600090600160a01b900460ff1615611c3857604051636822eceb60e11b815260040160405180910390fd5b61019560009054906101000a90046001600160a01b03166001600160a01b0316629c185f6040518163ffffffff1660e01b8152600401602060405180830381865afa158015611c8b573d6000803e3d6000fd5b505050506040513d601f19601f82011682018060405250810190611caf9190614c7a565b15611ccd576040516321e3430160e21b815260040160405180910390fd5b61019560009054906101000a90046001600160a01b03166001600160a01b031663533ae1296040518163ffffffff1660e01b8152600401600060405180830381600087803b158015611d1e57600080fd5b505af1158015611d32573d6000803e3d6000fd5b505061019554604051634eacc0fd60e01b8152600481018790528693506001600160a01b039091169150634eacc0fd906024016020604051808303816000875af1158015611d84573d6000803e3d6000fd5b505050506040513d601f19601f82011682018060405250810190611da89190614c7a565b15611dc65760405163b04c001160e01b815260040160405180910390fd5b8383611dd2828261368f565b611ddc86866136d9565b9695505050505050565b6000611df182611fa2565b80611e005750611e0082611789565b15611e9d576101955460405163a4d96e1760e01b81526001600160a01b038481166004830152600092839291169063a4d96e17906024016040805180830381865afa158015611e53573d6000803e3d6000fd5b505050506040513d601f19601f82011682018060405250810190611e779190614d51565b610196549193509150600160a01b900460ff1615611e96575092915050565b9392505050565b610bde82611f84565b919050565b611eb36130ef565b611ebd600061381e565b565b6001600160a01b038116600090815261012f6020526040812054610bde565b60006060806000806000606060fb546000801b148015611efe575060fc54155b611f4a5760405162461bcd60e51b815260206004820152601560248201527f4549503731323a20556e696e697469616c697a656400000000000000000000006044820152606401610c8c565b611f52613870565b611f5a61387f565b60408051600080825260208201909252600f60f81b9b939a50919850469750309650945092509050565b6001600160a01b038116600090815260c96020526040812054610bde565b6101955460408051636ee545fd60e11b815290516000926001600160a01b03169163ddca8bfa9160048083019260209291908290030181865afa158015611fed573d6000803e3d6000fd5b505050506040513d601f19601f820116820180604052508101906120119190614c10565b610195546040516325ad47ab60e21b81526001600160a01b038581166004830152909116906396b51eac90602401611827565b61016254600090600160a01b900460ff161561207357604051636822eceb60e11b815260040160405180910390fd5b61019560009054906101000a90046001600160a01b03166001600160a01b0316629c185f6040518163ffffffff1660e01b8152600401602060405180830381865afa1580156120c6573d6000803e3d6000fd5b505050506040513d601f19601f820116820180604052508101906120ea9190614c7a565b15612108576040516321e3430160e21b815260040160405180910390fd5b61019560009054906101000a90046001600160a01b03166001600160a01b031663533ae1296040518163ffffffff1660e01b8152600401600060405180830381600087803b15801561215957600080fd5b505af115801561216d573d6000803e3d6000fd5b505061019554604051634eacc0fd60e01b8152600481018790528693506001600160a01b039091169150634eacc0fd906024016020604051808303816000875af11580156121bf573d6000803e3d6000fd5b505050506040513d601f19601f820116820180604052508101906121e39190614c7a565b156122015760405163b04c001160e01b815260040160405180910390fd5b61220a836115a5565b84111561222a5760405163292b120160e01b815260040160405180910390fd5b61223484846136d9565b949350505050565b606060cd8054610b4790614c29565b612253613149565b611398828261388e565b33600081815260ca602090815260408083206001600160a01b0387168452909152812054909190838110156122e25760405162461bcd60e51b815260206004820152602560248201527f45524332303a2064656372656173656420616c6c6f77616e63652062656c6f77604482015264207a65726f60d81b6064820152608401610c8c565b6122ef8286868403613193565b506001949350505050565b61016254600090600160b01b900460ff161561232957604051630c98e6a160e31b815260040160405180910390fd5b61019560009054906101000a90046001600160a01b03166001600160a01b0316629c185f6040518163ffffffff1660e01b8152600401602060405180830381865afa15801561237c573d6000803e3d6000fd5b505050506040513d601f19601f820116820180604052508101906123a09190614c7a565b156123be576040516321e3430160e21b815260040160405180910390fd5b6101625460405163df592f7d60e01b81526001600160a01b03808616600483015285921690600090829063df592f7d90602401602060405180830381865afa15801561240e573d6000803e3d6000fd5b505050506040513d601f19601f820116820180604052508101906124329190614c7a565b905080156124535760405163108a7eb160e21b815260040160405180910390fd5b336101625460405163df592f7d60e01b81526001600160a01b03838116600483015290911690600090829063df592f7d90602401602060405180830381865afa1580156124a4573d6000803e3d6000fd5b505050506040513d601f19601f820116820180604052508101906124c89190614c7a565b905080156124e95760405163108a7eb160e21b815260040160405180910390fd5b61019560009054906101000a90046001600160a01b03166001600160a01b031663533ae1296040518163ffffffff1660e01b8152600401600060405180830381600087803b15801561253a57600080fd5b505af115801561254e573d6000803e3d6000fd5b5050505061256261255c3390565b8a611259565b61256c338a612f69565b610195546000906001600160a01b031663d493e78c336040516001600160e01b031960e084901b1681526001600160a01b039182166004820152908d166024820152604401608060405180830381865afa1580156125ce573d6000803e3d6000fd5b505050506040513d601f19601f820116820180604052508101906125f29190614c97565b905060006126008b8b6139c2565b610195549091506001600160a01b031663eec0d65633610196548e90600160a01b900460ff168e8760006020020151886001602002015189600260200201518a600360200201516040516001600160e01b031960e08b901b1681526001600160a01b03988916600482015297909616602488015293151560448701526064860192909252608485015260a484015260c483015260e482015261010401600060405180830381600087803b1580156126b657600080fd5b505af11580156126ca573d6000803e3d6000fd5b50929d9c50505050505050505050505050565b61016254600090600160a81b900460ff161561270c57604051636344d7b760e11b815260040160405180910390fd5b61019560009054906101000a90046001600160a01b03166001600160a01b0316629c185f6040518163ffffffff1660e01b8152600401602060405180830381865afa15801561275f573d6000803e3d6000fd5b505050506040513d601f19601f820116820180604052508101906127839190614c7a565b156127a1576040516321e3430160e21b815260040160405180910390fd5b61019560009054906101000a90046001600160a01b03166001600160a01b031663533ae1296040518163ffffffff1660e01b8152600401600060405180830381600087803b1580156127f257600080fd5b505af1158015612806573d6000803e3d6000fd5b50506101955460405163cf0571d360e01b8152600481018890528793506001600160a01b03909116915063cf0571d3906024016020604051808303816000875af1158015612858573d6000803e3d6000fd5b505050506040513d601f19601f8201168201806040525081019061287c9190614c7a565b1561289a5760405163922c089560e01b815260040160405180910390fd5b826128a4816139d0565b6128ac6139f9565b6128b7868686613a54565b92506128c4600161016355565b50509392505050565b600081428110156128f1576040516377a5c22160e11b815260040160405180910390fd5b61016254600160a81b900460ff161561291d57604051636344d7b760e11b815260040160405180910390fd5b61019560009054906101000a90046001600160a01b03166001600160a01b0316629c185f6040518163ffffffff1660e01b8152600401602060405180830381865afa158015612970573d6000803e3d6000fd5b505050506040513d601f19601f820116820180604052508101906129949190614c7a565b156129b2576040516321e3430160e21b815260040160405180910390fd5b61019560009054906101000a90046001600160a01b03166001600160a01b031663533ae1296040518163ffffffff1660e01b8152600401600060405180830381600087803b158015612a0357600080fd5b505af1158015612a17573d6000803e3d6000fd5b50506101955460405163cf0571d360e01b8152600481018a90528993506001600160a01b03909116915063cf0571d3906024016020604051808303816000875af1158015612a69573d6000803e3d6000fd5b505050506040513d601f19601f82011682018060405250810190612a8d9190614c7a565b15612aab5760405163922c089560e01b815260040160405180910390fd5b84612ab5816139d0565b612abd6139f9565b612ac8888888613a54565b9350612ad5600161016355565b505050949350505050565b610195546040516306443f4560e51b81526001600160a01b038381166004830152600092169063c887e8a090602401602060405180830381865afa158015612b2c573d6000803e3d6000fd5b505050506040513d601f19601f82011682018060405250810190610bde9190614c10565b83421115612ba05760405162461bcd60e51b815260206004820152601d60248201527f45524332305065726d69743a206578706972656420646561646c696e650000006044820152606401610c8c565b60007f6e71edae12b1b97f4d1f60370fef10105fa2faae0126114a169c64845d6126c9888888612bcf8c613c5a565b6040805160208101969096526001600160a01b0394851690860152929091166060840152608083015260a082015260c0810186905260e0016040516020818303038152906040528051906020012090506000612c2a82613c83565b90506000612c3a82878787613cb0565b9050896001600160a01b0316816001600160a01b031614612c9d5760405162461bcd60e51b815260206004820152601e60248201527f45524332305065726d69743a20696e76616c6964207369676e617475726500006044820152606401610c8c565b612ca88a8a8a613193565b50505050505050505050565b612cbc6130ef565b610162805463ffffffff60a01b191677010101010000000000000000000000000000000000000000179055565b612cf16130ef565b610162805474ff0000000000000000000000000000000000000000198116600160a01b9182900460ff1615909102179055565b60008142811015612d48576040516377a5c22160e11b815260040160405180910390fd5b61016254600160a01b900460ff1615612d7457604051636822eceb60e11b815260040160405180910390fd5b61019560009054906101000a90046001600160a01b03166001600160a01b0316629c185f6040518163ffffffff1660e01b8152600401602060405180830381865afa158015612dc7573d6000803e3d6000fd5b505050506040513d601f19601f82011682018060405250810190612deb9190614c7a565b15612e09576040516321e3430160e21b815260040160405180910390fd5b61019560009054906101000a90046001600160a01b03166001600160a01b031663533ae1296040518163ffffffff1660e01b8152600401600060405180830381600087803b158015612e5a57600080fd5b505af1158015612e6e573d6000803e3d6000fd5b505061019554604051634eacc0fd60e01b8152600481018990528893506001600160a01b039091169150634eacc0fd906024016020604051808303816000875af1158015612ec0573d6000803e3d6000fd5b505050506040513d601f19601f82011682018060405250810190612ee49190614c7a565b15612f025760405163b04c001160e01b815260040160405180910390fd5b8585612f0e828261368f565b612f1888886136d9565b98975050505050505050565b612f2c6130ef565b61016280547fffffffffffffffffffff00ffffffffffffffffffffffffffffffffffffffffff8116600160a81b9182900460ff1615909102179055565b612f7282611fa2565b15612fd8576101955460405163242ffe5560e11b81526001600160a01b0384811660048301529091169063485ffcaa90602401600060405180830381600087803b158015612fbf57600080fd5b505af1158015612fd3573d6000803e3d6000fd5b505050505b61019554604051635737ed7d60e01b81526001600160a01b03838116600483015290911690635737ed7d90602401600060405180830381600087803b15801561302057600080fd5b505af1158015613034573d6000803e3d6000fd5b5050505061304181611fa2565b15611398576101955460405163242ffe5560e11b81526001600160a01b0383811660048301529091169063485ffcaa90602401611365565b6130816130ef565b6001600160a01b0381166130e65760405162461bcd60e51b815260206004820152602660248201527f4f776e61626c653a206e6577206f776e657220697320746865207a65726f206160448201526564647265737360d01b6064820152608401610c8c565b6115638161381e565b6097546001600160a01b03163314611ebd5760405162461bcd60e51b815260206004820181905260248201527f4f776e61626c653a2063616c6c6572206973206e6f7420746865206f776e65726044820152606401610c8c565b610195546001600160a01b0316336001600160a01b031614611ebd5760405163e565d9cb60e01b815260040160405180910390fd5b600061318a8383613cd8565b50600192915050565b6001600160a01b0383166131f55760405162461bcd60e51b8152602060048201526024808201527f45524332303a20617070726f76652066726f6d20746865207a65726f206164646044820152637265737360e01b6064820152608401610c8c565b6001600160a01b0382166132565760405162461bcd60e51b815260206004820152602260248201527f45524332303a20617070726f766520746f20746865207a65726f206164647265604482015261737360f01b6064820152608401610c8c565b6001600160a01b03838116600081815260ca602090815260408083209487168084529482529182902085905590518481527f8c5be1e5ebec7d5bd14f71427d1e84f3dd0314c0f7b2291e5b200ac8c7c3b925910160405180910390a3505050565b600054610100900460ff166133105760405162461bcd60e51b815260206004820152602b6024820152600080516020614eae83398151915260448201526a6e697469616c697a696e6760a81b6064820152608401610c8c565b6113988282613d50565b600054610100900460ff166133735760405162461bcd60e51b815260206004820152602b6024820152600080516020614eae83398151915260448201526a6e697469616c697a696e6760a81b6064820152608401610c8c565b61156381604051806040016040528060018152602001603160f81b815250613dc2565b600054610100900460ff166133ef5760405162461bcd60e51b815260206004820152602b6024820152600080516020614eae83398151915260448201526a6e697469616c697a696e6760a81b6064820152608401610c8c565b61016280546001600160a01b0319166001600160a01b0392909216919091179055565b600054610100900460ff1661346b5760405162461bcd60e51b815260206004820152602b6024820152600080516020614eae83398151915260448201526a6e697469616c697a696e6760a81b6064820152608401610c8c565b611ebd613e43565b600054610100900460ff16611ebd5760405162461bcd60e51b815260206004820152602b6024820152600080516020614eae83398151915260448201526a6e697469616c697a696e6760a81b6064820152608401610c8c565b600061318a8383613ea5565b6000336134e6858285613f17565b6122ef858585613fa9565b6000610a8c614154565b6115636130ef565b7f4910fdfa16fed3260ed0e7147f7cc6da11a60208b5b9406d12a635614ffd91435460ff161561353657610b33836141c8565b826001600160a01b03166352d1902d6040518163ffffffff1660e01b8152600401602060405180830381865afa925050508015613590575060408051601f3d908101601f1916820190925261358d91810190614c10565b60015b6136025760405162461bcd60e51b815260206004820152602e60248201527f45524331393637557067726164653a206e657720696d706c656d656e7461746960448201527f6f6e206973206e6f7420555550530000000000000000000000000000000000006064820152608401610c8c565b7f360894a13ba1a3210667c828492db98dca3e2076cc3735a920a3ca505d382bbc81146136835760405162461bcd60e51b815260206004820152602960248201527f45524331393637557067726164653a20756e737570706f727465642070726f786044820152681a58589b195555525160ba1b6064820152608401610c8c565b50610b33838383614286565b816000036136b0576040516303e3e43960e51b815260040160405180910390fd5b6136b9816115a5565b821115611398576040516314a4b53560e01b815260040160405180910390fd5b610195546040805163c14cfe0960e01b81523360048201526001600160a01b038481166024830152604482018690526064820186905291516000938693169163c14cfe09916084808301928792919082900301818387803b15801561373d57600080fd5b505af1158015613751573d6000803e3d6000fd5b50929695505050505050565b6001600160a01b0382166137b35760405162461bcd60e51b815260206004820152601f60248201527f45524332303a206d696e7420746f20746865207a65726f2061646472657373006044820152606401610c8c565b8060cb60008282546137c59190614d2b565b90915550506001600160a01b038216600081815260c960209081526040808320805486019055518481527fddf252ad1be2c89b69c2b068fc378daa952ba7f163c4a11628f55a4df523b3ef910160405180910390a35050565b609780546001600160a01b038381166001600160a01b0319831681179093556040519116919082907f8be0079c531659141344cd1fd0a4f28419497f9722a3daafe3b4186f6b6457e090600090a35050565b606060fd8054610b4790614c29565b606060fe8054610b4790614c29565b6001600160a01b0382166138ee5760405162461bcd60e51b815260206004820152602160248201527f45524332303a206275726e2066726f6d20746865207a65726f206164647265736044820152607360f81b6064820152608401610c8c565b6001600160a01b038216600090815260c96020526040902054818110156139625760405162461bcd60e51b815260206004820152602260248201527f45524332303a206275726e20616d6f756e7420657863656564732062616c616e604482015261636560f01b6064820152608401610c8c565b6001600160a01b038316600081815260c960209081526040808320868603905560cb80548790039055518581529192917fddf252ad1be2c89b69c2b068fc378daa952ba7f163c4a11628f55a4df523b3ef910160405180910390a3505050565b600033610bd8818585613fa9565b6001600160a01b038116331461156357604051637a45e68560e01b815260040160405180910390fd5b60026101635403613a4c5760405162461bcd60e51b815260206004820152601f60248201527f5265656e7472616e637947756172643a207265656e7472616e742063616c6c006044820152606401610c8c565b600261016355565b6101955460408051636ee545fd60e11b815290516000926001600160a01b03169163ddca8bfa9160048083019260209291908290030181865afa158015613a9f573d6000803e3d6000fd5b505050506040513d601f19601f82011682018060405250810190613ac39190614c10565b610195546040516325ad47ab60e21b81526001600160a01b038681166004830152909116906396b51eac90602401602060405180830381865afa158015613b0e573d6000803e3d6000fd5b505050506040513d601f19601f82011682018060405250810190613b329190614c10565b14613b98576101955460405163242ffe5560e11b81526001600160a01b0385811660048301529091169063485ffcaa90602401600060405180830381600087803b158015613b7f57600080fd5b505af1158015613b93573d6000803e3d6000fd5b505050505b613ba182612ae0565b841115613bc15760405163039eea9760e31b815260040160405180910390fd5b600084610195549091506001600160a01b0316633d82850b336040516001600160e01b031960e084901b1681526001600160a01b03918216600482015281881660248201529086166044820152606481018890526084810184905260a401600060405180830381600087803b158015613c3957600080fd5b505af1158015613c4d573d6000803e3d6000fd5b5092979650505050505050565b6001600160a01b038116600090815261012f602052604090208054600181018255905b50919050565b6000610bde613c906134f1565b8360405161190160f01b8152600281019290925260228201526042902090565b6000806000613cc1878787876142ab565b91509150613cce8161436f565b5095945050505050565b6001600160a01b038216613d2e5760405162461bcd60e51b815260206004820152601c60248201527f54726561737572792063616e6e6f74206265207a65726f2061646472000000006044820152606401610c8c565b6001600160a01b03909116600090815260c96020526040902080549091019055565b600054610100900460ff16613da95760405162461bcd60e51b815260206004820152602b6024820152600080516020614eae83398151915260448201526a6e697469616c697a696e6760a81b6064820152608401610c8c565b60cc613db58382614dbb565b5060cd610b338282614dbb565b600054610100900460ff16613e1b5760405162461bcd60e51b815260206004820152602b6024820152600080516020614eae83398151915260448201526a6e697469616c697a696e6760a81b6064820152608401610c8c565b60fd613e278382614dbb565b5060fe613e348282614dbb565b5050600060fb81905560fc5550565b600054610100900460ff16613e9c5760405162461bcd60e51b815260206004820152602b6024820152600080516020614eae83398151915260448201526a6e697469616c697a696e6760a81b6064820152608401610c8c565b611ebd3361381e565b6001600160a01b038216613efb5760405162461bcd60e51b815260206004820152601b60248201527f416464726573732063616e6e6f74206265207a65726f206164647200000000006044820152606401610c8c565b6001600160a01b03909116600090815260c96020526040902055565b6001600160a01b03838116600090815260ca60209081526040808320938616835292905220546000198114613fa35781811015613f965760405162461bcd60e51b815260206004820152601d60248201527f45524332303a20696e73756666696369656e7420616c6c6f77616e63650000006044820152606401610c8c565b613fa38484848403613193565b50505050565b6001600160a01b03831661400d5760405162461bcd60e51b815260206004820152602560248201527f45524332303a207472616e736665722066726f6d20746865207a65726f206164604482015264647265737360d81b6064820152608401610c8c565b6001600160a01b03821661406f5760405162461bcd60e51b815260206004820152602360248201527f45524332303a207472616e7366657220746f20746865207a65726f206164647260448201526265737360e81b6064820152608401610c8c565b6001600160a01b038316600090815260c96020526040902054818110156140e75760405162461bcd60e51b815260206004820152602660248201527f45524332303a207472616e7366657220616d6f756e7420657863656564732062604482015265616c616e636560d01b6064820152608401610c8c565b6001600160a01b03808516600081815260c9602052604080822086860390559286168082529083902080548601905591517fddf252ad1be2c89b69c2b068fc378daa952ba7f163c4a11628f55a4df523b3ef906141479086815260200190565b60405180910390a3613fa3565b60007f8b73c3c69bb8fe3d512ecc4cf759cc79239f7b179b0ffacaa9a75d522b39400f61417f6144b9565b614187614512565b60408051602081019490945283019190915260608201524660808201523060a082015260c00160405160208183030381529060405280519060200120905090565b6001600160a01b0381163b6142455760405162461bcd60e51b815260206004820152602d60248201527f455243313936373a206e657720696d706c656d656e746174696f6e206973206e60448201527f6f74206120636f6e7472616374000000000000000000000000000000000000006064820152608401610c8c565b7f360894a13ba1a3210667c828492db98dca3e2076cc3735a920a3ca505d382bbc80546001600160a01b0319166001600160a01b0392909216919091179055565b61428f83614543565b60008251118061429c5750805b15610b3357613fa38383614583565b6000807f7fffffffffffffffffffffffffffffff5d576e7357a4501ddfe92f46681b20a08311156142e25750600090506003614366565b6040805160008082526020820180845289905260ff881692820192909252606081018690526080810185905260019060a0016020604051602081039080840390855afa158015614336573d6000803e3d6000fd5b5050604051601f1901519150506001600160a01b03811661435f57600060019250925050614366565b9150600090505b94509492505050565b600081600481111561438357614383614e7b565b0361438b5750565b600181600481111561439f5761439f614e7b565b036143ec5760405162461bcd60e51b815260206004820152601860248201527f45434453413a20696e76616c6964207369676e617475726500000000000000006044820152606401610c8c565b600281600481111561440057614400614e7b565b0361444d5760405162461bcd60e51b815260206004820152601f60248201527f45434453413a20696e76616c6964207369676e6174757265206c656e677468006044820152606401610c8c565b600381600481111561446157614461614e7b565b036115635760405162461bcd60e51b815260206004820152602260248201527f45434453413a20696e76616c6964207369676e6174757265202773272076616c604482015261756560f01b6064820152608401610c8c565b6000806144c4613870565b8051909150156144db578051602090910120919050565b60fb5480156144ea5792915050565b7fc5d2460186f7233c927e7db2dcc703c0e500b653ca82273b7bfad8045d85a4709250505090565b60008061451d61387f565b805190915015614534578051602090910120919050565b60fc5480156144ea5792915050565b61454c816141c8565b6040516001600160a01b038216907fbc7cd75a20ee27fd9adebab32041f755214dbc6bffa90cc0225b39da2e5c2d3b90600090a250565b6060611e968383604051806060016040528060278152602001614ece602791396060600080856001600160a01b0316856040516145c09190614e91565b600060405180830381855af49150503d80600081146145fb576040519150601f19603f3d011682016040523d82523d6000602084013e614600565b606091505b5091509150611ddc868383876060831561467b578251600003614674576001600160a01b0385163b6146745760405162461bcd60e51b815260206004820152601d60248201527f416464726573733a2063616c6c20746f206e6f6e2d636f6e74726163740000006044820152606401610c8c565b5081612234565b61223483838151156146905781518083602001fd5b8060405162461bcd60e51b8152600401610c8c919061473b565b6001600160a01b038116811461156357600080fd5b600080604083850312156146d257600080fd5b82356146dd816146aa565b946020939093013593505050565b60005b838110156147065781810151838201526020016146ee565b50506000910152565b600081518084526147278160208601602086016146eb565b601f01601f19169290920160200192915050565b602081526000611e96602083018461470f565b60006020828403121561476057600080fd5b5035919050565b634e487b7160e01b600052604160045260246000fd5b600067ffffffffffffffff8084111561479857614798614767565b604051601f8501601f19908116603f011681019082821181831017156147c0576147c0614767565b816040528093508581528686860111156147d957600080fd5b858560208301376000602087830101525050509392505050565b600082601f83011261480457600080fd5b611e968383356020850161477d565b801515811461156357600080fd5b60008060008060008060c0878903121561483a57600080fd5b863567ffffffffffffffff8082111561485257600080fd5b61485e8a838b016147f3565b9750602089013591508082111561487457600080fd5b5061488189828a016147f3565b9550506040870135614892816146aa565b935060608701356148a2816146aa565b925060808701356148b281614813565b915060a08701356148c2816146aa565b809150509295509295509295565b6000806000606084860312156148e557600080fd5b83356148f0816146aa565b92506020840135614900816146aa565b929592945050506040919091013590565b6000806040838503121561492457600080fd5b823561492f816146aa565b9150602083013561493f816146aa565b809150509250929050565b60006020828403121561495c57600080fd5b8135611e96816146aa565b6000806040838503121561497a57600080fd5b8235614985816146aa565b9150602083013567ffffffffffffffff8111156149a157600080fd5b8301601f810185136149b257600080fd5b6149c18582356020840161477d565b9150509250929050565b803560ff81168114611ea657600080fd5b60008060008060008060c087890312156149f557600080fd5b863595506020870135614a07816146aa565b945060408701359350614a1c606088016149cb565b92506080870135915060a087013590509295509295509295565b60008060408385031215614a4957600080fd5b82359150602083013561493f816146aa565b60ff60f81b881681526000602060e081840152614a7b60e084018a61470f565b8381036040850152614a8d818a61470f565b606085018990526001600160a01b038816608086015260a0850187905284810360c0860152855180825283870192509083019060005b81811015614adf57835183529284019291840191600101614ac3565b50909c9b505050505050505050505050565b600080600060608486031215614b0657600080fd5b833592506020840135614b18816146aa565b91506040840135614b28816146aa565b809150509250925092565b60008060008060808587031215614b4957600080fd5b843593506020850135614b5b816146aa565b92506040850135614b6b816146aa565b9396929550929360600135925050565b600080600080600080600060e0888a031215614b9657600080fd5b8735614ba1816146aa565b96506020880135614bb1816146aa565b95506040880135945060608801359350614bcd608089016149cb565b925060a0880135915060c0880135905092959891949750929550565b600080600060608486031215614bfe57600080fd5b833592506020840135614900816146aa565b600060208284031215614c2257600080fd5b5051919050565b600181811c90821680614c3d57607f821691505b602082108103613c7d57634e487b7160e01b600052602260045260246000fd5b600060208284031215614c6f57600080fd5b8151611e96816146aa565b600060208284031215614c8c57600080fd5b8151611e9681614813565b600060808284031215614ca957600080fd5b82601f830112614cb857600080fd5b6040516080810181811067ffffffffffffffff82111715614cdb57614cdb614767565b604052806080840185811115614cf057600080fd5b845b81811015614d0a578051835260209283019201614cf2565b509195945050505050565b634e487b7160e01b600052601160045260246000fd5b80820180821115610bde57610bde614d15565b81810381811115610bde57610bde614d15565b60008060408385031215614d6457600080fd5b505080516020909101519092909150565b601f821115610b3357600081815260208120601f850160051c81016020861015614d9c5750805b601f850160051c820191505b8181101561139357828155600101614da8565b815167ffffffffffffffff811115614dd557614dd5614767565b614de981614de38454614c29565b84614d75565b602080601f831160018114614e1e5760008415614e065750858301515b600019600386901b1c1916600185901b178555611393565b600085815260208120601f198616915b82811015614e4d57888601518255948401946001909101908401614e2e565b5085821015614e6b5787850151600019600388901b60f8161c191681555b5050505050600190811b01905550565b634e487b7160e01b600052602160045260246000fd5b60008251614ea38184602087016146eb565b919091019291505056fe496e697469616c697a61626c653a20636f6e7472616374206973206e6f742069416464726573733a206c6f772d6c6576656c2064656c65676174652063616c6c206661696c6564a26469706673582212205950869b2d2c3a7b23b33383a253cd9fb80eea70cd331b9d542ee6689c678dbc64736f6c63430008110033",
  "linkReferences": {},
  "deployedLinkReferences": {}
}