{
  "_format": "hh-sol-artifact-1",
  "contractName": "SmartToken",
  "sourceName": "contracts/vaults/SmartToken.sol",
  "abi": [
    {
      "inputs": [],
      "stateMutability": "nonpayable",
      "type": "constructor"
    },
    {
      "inputs": [],
      "name": "BaseContract__DepositCircuitBreaker",
      "type": "error"
    },
    {
      "inputs": [],
      "name": "BaseContract__RebalanceCircuitBreaker",
      "type": "error"
    },
    {
      "inputs": [],
      "name": "BaseContract__SanctionedAddress",
      "type": "error"
    },
    {
      "inputs": [],
      "name": "BaseContract__TransferCircuitBreaker",
      "type": "error"
    },
    {
      "inputs": [],
      "name": "BaseContract__WithdrawCircuitBreaker",
      "type": "error"
    },
    {
      "inputs": [],
      "name": "SmartToken__DepositLimitHit",
      "type": "error"
    },
    {
      "inputs": [],
      "name": "SmartToken__DepositMoreThanMax",
      "type": "error"
    },
    {
      "inputs": [],
      "name": "SmartToken__InsufficientUnderlying",
      "type": "error"
    },
    {
      "inputs": [],
      "name": "SmartToken__MethodNotAllowed",
      "type": "error"
    },
    {
      "inputs": [],
      "name": "SmartToken__MintMoreThanMax",
      "type": "error"
    },
    {
      "inputs": [],
      "name": "SmartToken__NotTokenFactory",
      "type": "error"
    },
    {
      "inputs": [],
      "name": "SmartToken__OnlyAssetOwner",
      "type": "error"
    },
    {
      "inputs": [],
      "name": "SmartToken__RedeemMoreThanMax",
      "type": "error"
    },
    {
      "inputs": [],
      "name": "SmartToken__WithdrawLimitHit",
      "type": "error"
    },
    {
      "inputs": [],
      "name": "SmartToken__WithdrawMoreThanMax",
      "type": "error"
    },
    {
      "inputs": [],
      "name": "SmartToken__WithdrawNativeFailed",
      "type": "error"
    },
    {
      "inputs": [],
      "name": "SmartToken__ZeroDeposit",
      "type": "error"
    },
    {
      "anonymous": false,
      "inputs": [
        {
          "indexed": false,
          "internalType": "address",
          "name": "previousAdmin",
          "type": "address"
        },
        {
          "indexed": false,
          "internalType": "address",
          "name": "newAdmin",
          "type": "address"
        }
      ],
      "name": "AdminChanged",
      "type": "event"
    },
    {
      "anonymous": false,
      "inputs": [
        {
          "indexed": true,
          "internalType": "address",
          "name": "owner",
          "type": "address"
        },
        {
          "indexed": true,
          "internalType": "address",
          "name": "spender",
          "type": "address"
        },
        {
          "indexed": false,
          "internalType": "uint256",
          "name": "value",
          "type": "uint256"
        }
      ],
      "name": "Approval",
      "type": "event"
    },
    {
      "anonymous": false,
      "inputs": [
        {
          "indexed": true,
          "internalType": "address",
          "name": "beacon",
          "type": "address"
        }
      ],
      "name": "BeaconUpgraded",
      "type": "event"
    },
    {
      "anonymous": false,
      "inputs": [
        {
          "indexed": true,
          "internalType": "address",
          "name": "sender",
          "type": "address"
        },
        {
          "indexed": true,
          "internalType": "address",
          "name": "owner",
          "type": "address"
        },
        {
          "indexed": false,
          "internalType": "uint256",
          "name": "assets",
          "type": "uint256"
        },
        {
          "indexed": false,
          "internalType": "uint256",
          "name": "shares",
          "type": "uint256"
        }
      ],
      "name": "Deposit",
      "type": "event"
    },
    {
      "anonymous": false,
      "inputs": [],
      "name": "EIP712DomainChanged",
      "type": "event"
    },
    {
      "anonymous": false,
      "inputs": [
        {
          "indexed": false,
          "internalType": "uint8",
          "name": "version",
          "type": "uint8"
        }
      ],
      "name": "Initialized",
      "type": "event"
    },
    {
      "anonymous": false,
      "inputs": [
        {
          "indexed": true,
          "internalType": "address",
          "name": "previousOwner",
          "type": "address"
        },
        {
          "indexed": true,
          "internalType": "address",
          "name": "newOwner",
          "type": "address"
        }
      ],
      "name": "OwnershipTransferred",
      "type": "event"
    },
    {
      "anonymous": false,
      "inputs": [
        {
          "indexed": true,
          "internalType": "address",
          "name": "from",
          "type": "address"
        },
        {
          "indexed": true,
          "internalType": "address",
          "name": "to",
          "type": "address"
        },
        {
          "indexed": false,
          "internalType": "uint256",
          "name": "value",
          "type": "uint256"
        }
      ],
      "name": "Transfer",
      "type": "event"
    },
    {
      "anonymous": false,
      "inputs": [
        {
          "indexed": true,
          "internalType": "address",
          "name": "implementation",
          "type": "address"
        }
      ],
      "name": "Upgraded",
      "type": "event"
    },
    {
      "anonymous": false,
      "inputs": [
        {
          "indexed": true,
          "internalType": "address",
          "name": "sender",
          "type": "address"
        },
        {
          "indexed": true,
          "internalType": "address",
          "name": "receiver",
          "type": "address"
        },
        {
          "indexed": true,
          "internalType": "address",
          "name": "owner",
          "type": "address"
        },
        {
          "indexed": false,
          "internalType": "uint256",
          "name": "assets",
          "type": "uint256"
        },
        {
          "indexed": false,
          "internalType": "uint256",
          "name": "shares",
          "type": "uint256"
        }
      ],
      "name": "Withdraw",
      "type": "event"
    },
    {
      "inputs": [],
      "name": "DOMAIN_SEPARATOR",
      "outputs": [
        {
          "internalType": "bytes32",
          "name": "",
          "type": "bytes32"
        }
      ],
      "stateMutability": "view",
      "type": "function"
    },
    {
      "inputs": [
        {
          "internalType": "address",
          "name": "owner",
          "type": "address"
        },
        {
          "internalType": "address",
          "name": "spender",
          "type": "address"
        }
      ],
      "name": "allowance",
      "outputs": [
        {
          "internalType": "uint256",
          "name": "",
          "type": "uint256"
        }
      ],
      "stateMutability": "view",
      "type": "function"
    },
    {
      "inputs": [
        {
          "internalType": "address",
          "name": "spender",
          "type": "address"
        },
        {
          "internalType": "uint256",
          "name": "amount",
          "type": "uint256"
        }
      ],
      "name": "approve",
      "outputs": [
        {
          "internalType": "bool",
          "name": "",
          "type": "bool"
        }
      ],
      "stateMutability": "nonpayable",
      "type": "function"
    },
    {
      "inputs": [],
      "name": "asset",
      "outputs": [
        {
          "internalType": "address",
          "name": "",
          "type": "address"
        }
      ],
      "stateMutability": "view",
      "type": "function"
    },
    {
      "inputs": [
        {
          "internalType": "address",
          "name": "account",
          "type": "address"
        }
      ],
      "name": "balanceOf",
      "outputs": [
        {
          "internalType": "uint256",
          "name": "",
          "type": "uint256"
        }
      ],
      "stateMutability": "view",
      "type": "function"
    },
    {
      "inputs": [
        {
          "internalType": "address",
          "name": "account",
          "type": "address"
        },
        {
          "internalType": "uint256",
          "name": "amount",
          "type": "uint256"
        }
      ],
      "name": "burn",
      "outputs": [],
      "stateMutability": "nonpayable",
      "type": "function"
    },
    {
      "inputs": [
        {
          "internalType": "uint256",
          "name": "shares",
          "type": "uint256"
        }
      ],
      "name": "convertToAssets",
      "outputs": [
        {
          "internalType": "uint256",
          "name": "assets",
          "type": "uint256"
        }
      ],
      "stateMutability": "view",
      "type": "function"
    },
    {
      "inputs": [
        {
          "internalType": "uint256",
          "name": "assets",
          "type": "uint256"
        }
      ],
      "name": "convertToShares",
      "outputs": [
        {
          "internalType": "uint256",
          "name": "shares",
          "type": "uint256"
        }
      ],
      "stateMutability": "view",
      "type": "function"
    },
    {
      "inputs": [],
      "name": "decimals",
      "outputs": [
        {
          "internalType": "uint8",
          "name": "",
          "type": "uint8"
        }
      ],
      "stateMutability": "view",
      "type": "function"
    },
    {
      "inputs": [
        {
          "internalType": "address",
          "name": "spender",
          "type": "address"
        },
        {
          "internalType": "uint256",
          "name": "subtractedValue",
          "type": "uint256"
        }
      ],
      "name": "decreaseAllowance",
      "outputs": [
        {
          "internalType": "bool",
          "name": "",
          "type": "bool"
        }
      ],
      "stateMutability": "nonpayable",
      "type": "function"
    },
    {
      "inputs": [
        {
          "internalType": "uint256",
          "name": "assets",
          "type": "uint256"
        },
        {
          "internalType": "address",
          "name": "receiver",
          "type": "address"
        }
      ],
      "name": "deposit",
      "outputs": [
        {
          "internalType": "uint256",
          "name": "",
          "type": "uint256"
        }
      ],
      "stateMutability": "nonpayable",
      "type": "function"
    },
    {
      "inputs": [
        {
          "internalType": "address",
          "name": "receiver",
          "type": "address"
        }
      ],
      "name": "depositWithNative",
      "outputs": [
        {
          "internalType": "uint256",
          "name": "",
          "type": "uint256"
        }
      ],
      "stateMutability": "payable",
      "type": "function"
    },
    {
      "inputs": [
        {
          "internalType": "uint256",
          "name": "assets",
          "type": "uint256"
        },
        {
          "internalType": "address",
          "name": "receiver",
          "type": "address"
        },
        {
          "internalType": "uint256",
          "name": "deadline",
          "type": "uint256"
        },
        {
          "internalType": "uint8",
          "name": "v",
          "type": "uint8"
        },
        {
          "internalType": "bytes32",
          "name": "r",
          "type": "bytes32"
        },
        {
          "internalType": "bytes32",
          "name": "s",
          "type": "bytes32"
        }
      ],
      "name": "depositWithPermit",
      "outputs": [
        {
          "internalType": "uint256",
          "name": "",
          "type": "uint256"
        }
      ],
      "stateMutability": "nonpayable",
      "type": "function"
    },
    {
      "inputs": [
        {
          "internalType": "address",
          "name": "receiver",
          "type": "address"
        }
      ],
      "name": "drain",
      "outputs": [],
      "stateMutability": "nonpayable",
      "type": "function"
    },
    {
      "inputs": [],
      "name": "eip712Domain",
      "outputs": [
        {
          "internalType": "bytes1",
          "name": "fields",
          "type": "bytes1"
        },
        {
          "internalType": "string",
          "name": "name",
          "type": "string"
        },
        {
          "internalType": "string",
          "name": "version",
          "type": "string"
        },
        {
          "internalType": "uint256",
          "name": "chainId",
          "type": "uint256"
        },
        {
          "internalType": "address",
          "name": "verifyingContract",
          "type": "address"
        },
        {
          "internalType": "bytes32",
          "name": "salt",
          "type": "bytes32"
        },
        {
          "internalType": "uint256[]",
          "name": "extensions",
          "type": "uint256[]"
        }
      ],
      "stateMutability": "view",
      "type": "function"
    },
    {
      "inputs": [],
      "name": "getTokenFactory",
      "outputs": [
        {
          "internalType": "address",
          "name": "",
          "type": "address"
        }
      ],
      "stateMutability": "view",
      "type": "function"
    },
    {
      "inputs": [
        {
          "internalType": "address",
          "name": "sender",
          "type": "address"
        },
        {
          "internalType": "address",
          "name": "receiver",
          "type": "address"
        }
      ],
      "name": "handlePendingFF",
      "outputs": [],
      "stateMutability": "nonpayable",
      "type": "function"
    },
    {
      "inputs": [
        {
          "internalType": "address",
          "name": "sender",
          "type": "address"
        },
        {
          "internalType": "address",
          "name": "receiver",
          "type": "address"
        }
      ],
      "name": "handlePendingRebalance",
      "outputs": [],
      "stateMutability": "nonpayable",
      "type": "function"
    },
    {
      "inputs": [
        {
          "internalType": "address",
          "name": "account",
          "type": "address"
        }
      ],
      "name": "hasPendingFF",
      "outputs": [
        {
          "internalType": "bool",
          "name": "",
          "type": "bool"
        }
      ],
      "stateMutability": "view",
      "type": "function"
    },
    {
      "inputs": [
        {
          "internalType": "address",
          "name": "account",
          "type": "address"
        }
      ],
      "name": "hasPendingRebalance",
      "outputs": [
        {
          "internalType": "bool",
          "name": "",
          "type": "bool"
        }
      ],
      "stateMutability": "view",
      "type": "function"
    },
    {
      "inputs": [
        {
          "internalType": "address",
          "name": "spender",
          "type": "address"
        },
        {
          "internalType": "uint256",
          "name": "addedValue",
          "type": "uint256"
        }
      ],
      "name": "increaseAllowance",
      "outputs": [
        {
          "internalType": "bool",
          "name": "",
          "type": "bool"
        }
      ],
      "stateMutability": "nonpayable",
      "type": "function"
    },
    {
      "inputs": [
        {
          "internalType": "string",
          "name": "tokenName",
          "type": "string"
        },
        {
          "internalType": "string",
          "name": "tokenSymbol",
          "type": "string"
        },
        {
          "internalType": "address",
          "name": "factoryAddress",
          "type": "address"
        },
        {
          "internalType": "address",
          "name": "sanctionsContract_",
          "type": "address"
        },
        {
          "internalType": "bool",
          "name": "isX_",
          "type": "bool"
        },
        {
          "internalType": "address",
          "name": "owner_",
          "type": "address"
        }
      ],
      "name": "initialize",
      "outputs": [],
      "stateMutability": "nonpayable",
      "type": "function"
    },
    {
      "inputs": [],
      "name": "isDepositCircuitBreaker",
      "outputs": [
        {
          "internalType": "bool",
          "name": "",
          "type": "bool"
        }
      ],
      "stateMutability": "view",
      "type": "function"
    },
    {
      "inputs": [],
      "name": "isRebalanceCircuitBreaker",
      "outputs": [
        {
          "internalType": "bool",
          "name": "",
          "type": "bool"
        }
      ],
      "stateMutability": "view",
      "type": "function"
    },
    {
      "inputs": [],
      "name": "isTransferCircuitBreaker",
      "outputs": [
        {
          "internalType": "bool",
          "name": "",
          "type": "bool"
        }
      ],
      "stateMutability": "view",
      "type": "function"
    },
    {
      "inputs": [],
      "name": "isWithdrawCircuitBreaker",
      "outputs": [
        {
          "internalType": "bool",
          "name": "",
          "type": "bool"
        }
      ],
      "stateMutability": "view",
      "type": "function"
    },
    {
      "inputs": [
        {
          "internalType": "address",
          "name": "account",
          "type": "address"
        }
      ],
      "name": "maxDeposit",
      "outputs": [
        {
          "internalType": "uint256",
          "name": "",
          "type": "uint256"
        }
      ],
      "stateMutability": "view",
      "type": "function"
    },
    {
      "inputs": [
        {
          "internalType": "address",
          "name": "account",
          "type": "address"
        }
      ],
      "name": "maxMint",
      "outputs": [
        {
          "internalType": "uint256",
          "name": "",
          "type": "uint256"
        }
      ],
      "stateMutability": "view",
      "type": "function"
    },
    {
      "inputs": [
        {
          "internalType": "address",
          "name": "owner_",
          "type": "address"
        }
      ],
      "name": "maxRedeem",
      "outputs": [
        {
          "internalType": "uint256",
          "name": "",
          "type": "uint256"
        }
      ],
      "stateMutability": "view",
      "type": "function"
    },
    {
      "inputs": [
        {
          "internalType": "address",
          "name": "owner_",
          "type": "address"
        }
      ],
      "name": "maxWithdraw",
      "outputs": [
        {
          "internalType": "uint256",
          "name": "",
          "type": "uint256"
        }
      ],
      "stateMutability": "view",
      "type": "function"
    },
    {
      "inputs": [
        {
          "internalType": "uint256",
          "name": "shares",
          "type": "uint256"
        },
        {
          "internalType": "address",
          "name": "receiver",
          "type": "address"
        }
      ],
      "name": "mint",
      "outputs": [
        {
          "internalType": "uint256",
          "name": "",
          "type": "uint256"
        }
      ],
      "stateMutability": "nonpayable",
      "type": "function"
    },
    {
      "inputs": [
        {
          "internalType": "address",
          "name": "receiver",
          "type": "address"
        },
        {
          "internalType": "uint256",
          "name": "amount",
          "type": "uint256"
        }
      ],
      "name": "mintAsset",
      "outputs": [],
      "stateMutability": "nonpayable",
      "type": "function"
    },
    {
      "inputs": [],
      "name": "name",
      "outputs": [
        {
          "internalType": "string",
          "name": "",
          "type": "string"
        }
      ],
      "stateMutability": "view",
      "type": "function"
    },
    {
      "inputs": [
        {
          "internalType": "address",
          "name": "owner",
          "type": "address"
        }
      ],
      "name": "nonces",
      "outputs": [
        {
          "internalType": "uint256",
          "name": "",
          "type": "uint256"
        }
      ],
      "stateMutability": "view",
      "type": "function"
    },
    {
      "inputs": [],
      "name": "owner",
      "outputs": [
        {
          "internalType": "address",
          "name": "",
          "type": "address"
        }
      ],
      "stateMutability": "view",
      "type": "function"
    },
    {
      "inputs": [
        {
          "internalType": "address",
          "name": "owner",
          "type": "address"
        },
        {
          "internalType": "address",
          "name": "spender",
          "type": "address"
        },
        {
          "internalType": "uint256",
          "name": "value",
          "type": "uint256"
        },
        {
          "internalType": "uint256",
          "name": "deadline",
          "type": "uint256"
        },
        {
          "internalType": "uint8",
          "name": "v",
          "type": "uint8"
        },
        {
          "internalType": "bytes32",
          "name": "r",
          "type": "bytes32"
        },
        {
          "internalType": "bytes32",
          "name": "s",
          "type": "bytes32"
        }
      ],
      "name": "permit",
      "outputs": [],
      "stateMutability": "nonpayable",
      "type": "function"
    },
    {
      "inputs": [
        {
          "internalType": "uint256",
          "name": "assets",
          "type": "uint256"
        }
      ],
      "name": "previewDeposit",
      "outputs": [
        {
          "internalType": "uint256",
          "name": "",
          "type": "uint256"
        }
      ],
      "stateMutability": "view",
      "type": "function"
    },
    {
      "inputs": [
        {
          "internalType": "uint256",
          "name": "shares",
          "type": "uint256"
        }
      ],
      "name": "previewMint",
      "outputs": [
        {
          "internalType": "uint256",
          "name": "",
          "type": "uint256"
        }
      ],
      "stateMutability": "view",
      "type": "function"
    },
    {
      "inputs": [
        {
          "internalType": "uint256",
          "name": "shares",
          "type": "uint256"
        }
      ],
      "name": "previewRedeem",
      "outputs": [
        {
          "internalType": "uint256",
          "name": "",
          "type": "uint256"
        }
      ],
      "stateMutability": "view",
      "type": "function"
    },
    {
      "inputs": [
        {
          "internalType": "uint256",
          "name": "assets",
          "type": "uint256"
        }
      ],
      "name": "previewWithdraw",
      "outputs": [
        {
          "internalType": "uint256",
          "name": "",
          "type": "uint256"
        }
      ],
      "stateMutability": "view",
      "type": "function"
    },
    {
      "inputs": [],
      "name": "proxiableUUID",
      "outputs": [
        {
          "internalType": "bytes32",
          "name": "",
          "type": "bytes32"
        }
      ],
      "stateMutability": "view",
      "type": "function"
    },
    {
      "inputs": [
        {
          "internalType": "uint256",
          "name": "shares",
          "type": "uint256"
        },
        {
          "internalType": "address",
          "name": "receiver",
          "type": "address"
        },
        {
          "internalType": "address",
          "name": "owner_",
          "type": "address"
        }
      ],
      "name": "redeem",
      "outputs": [
        {
          "internalType": "uint256",
          "name": "",
          "type": "uint256"
        }
      ],
      "stateMutability": "nonpayable",
      "type": "function"
    },
    {
      "inputs": [],
      "name": "renounceOwnership",
      "outputs": [],
      "stateMutability": "nonpayable",
      "type": "function"
    },
    {
      "inputs": [],
      "name": "resumeAllCircuitBreakers",
      "outputs": [],
      "stateMutability": "nonpayable",
      "type": "function"
    },
    {
      "inputs": [
        {
          "internalType": "address",
          "name": "account",
          "type": "address"
        },
        {
          "internalType": "uint256",
          "name": "amount",
          "type": "uint256"
        }
      ],
      "name": "smartBalanceAdjust",
      "outputs": [],
      "stateMutability": "nonpayable",
      "type": "function"
    },
    {
      "inputs": [
        {
          "internalType": "address",
          "name": "treasuryAddress",
          "type": "address"
        },
        {
          "internalType": "uint256",
          "name": "amount",
          "type": "uint256"
        }
      ],
      "name": "smartTreasuryTransfer",
      "outputs": [],
      "stateMutability": "nonpayable",
      "type": "function"
    },
    {
      "inputs": [],
      "name": "stopAllCircuitBreakers",
      "outputs": [],
      "stateMutability": "nonpayable",
      "type": "function"
    },
    {
      "inputs": [],
      "name": "symbol",
      "outputs": [
        {
          "internalType": "string",
          "name": "",
          "type": "string"
        }
      ],
      "stateMutability": "view",
      "type": "function"
    },
    {
      "inputs": [],
      "name": "toggleDepositCircuitBreaker",
      "outputs": [],
      "stateMutability": "nonpayable",
      "type": "function"
    },
    {
      "inputs": [],
      "name": "toggleRebalanceCircuitBreaker",
      "outputs": [],
      "stateMutability": "nonpayable",
      "type": "function"
    },
    {
      "inputs": [],
      "name": "toggleTransferCircuitBreaker",
      "outputs": [],
      "stateMutability": "nonpayable",
      "type": "function"
    },
    {
      "inputs": [],
      "name": "toggleWithdrawCircuitBreaker",
      "outputs": [],
      "stateMutability": "nonpayable",
      "type": "function"
    },
    {
      "inputs": [],
      "name": "totalAssets",
      "outputs": [
        {
          "internalType": "uint256",
          "name": "",
          "type": "uint256"
        }
      ],
      "stateMutability": "view",
      "type": "function"
    },
    {
      "inputs": [],
      "name": "totalSupply",
      "outputs": [
        {
          "internalType": "uint256",
          "name": "",
          "type": "uint256"
        }
      ],
      "stateMutability": "view",
      "type": "function"
    },
    {
      "inputs": [
        {
          "internalType": "address",
          "name": "recipient",
          "type": "address"
        },
        {
          "internalType": "uint256",
          "name": "amount",
          "type": "uint256"
        }
      ],
      "name": "transfer",
      "outputs": [
        {
          "internalType": "bool",
          "name": "",
          "type": "bool"
        }
      ],
      "stateMutability": "nonpayable",
      "type": "function"
    },
    {
      "inputs": [
        {
          "internalType": "address",
          "name": "sender",
          "type": "address"
        },
        {
          "internalType": "address",
          "name": "recipient",
          "type": "address"
        },
        {
          "internalType": "uint256",
          "name": "amount",
          "type": "uint256"
        }
      ],
      "name": "transferFrom",
      "outputs": [
        {
          "internalType": "bool",
          "name": "",
          "type": "bool"
        }
      ],
      "stateMutability": "nonpayable",
      "type": "function"
    },
    {
      "inputs": [
        {
          "internalType": "address",
          "name": "newOwner",
          "type": "address"
        }
      ],
      "name": "transferOwnership",
      "outputs": [],
      "stateMutability": "nonpayable",
      "type": "function"
    },
    {
      "inputs": [
        {
          "internalType": "address",
          "name": "account",
          "type": "address"
        }
      ],
      "name": "unScaledbalanceOf",
      "outputs": [
        {
          "internalType": "uint256",
          "name": "",
          "type": "uint256"
        }
      ],
      "stateMutability": "view",
      "type": "function"
    },
    {
      "inputs": [
        {
          "internalType": "address",
          "name": "newImplementation",
          "type": "address"
        }
      ],
      "name": "upgradeTo",
      "outputs": [],
      "stateMutability": "nonpayable",
      "type": "function"
    },
    {
      "inputs": [
        {
          "internalType": "address",
          "name": "newImplementation",
          "type": "address"
        },
        {
          "internalType": "bytes",
          "name": "data",
          "type": "bytes"
        }
      ],
      "name": "upgradeToAndCall",
      "outputs": [],
      "stateMutability": "payable",
      "type": "function"
    },
    {
      "inputs": [
        {
          "internalType": "uint256",
          "name": "assets",
          "type": "uint256"
        },
        {
          "internalType": "address",
          "name": "receiver",
          "type": "address"
        },
        {
          "internalType": "address",
          "name": "owner_",
          "type": "address"
        }
      ],
      "name": "withdraw",
      "outputs": [
        {
          "internalType": "uint256",
          "name": "",
          "type": "uint256"
        }
      ],
      "stateMutability": "nonpayable",
      "type": "function"
    },
    {
      "inputs": [
        {
          "internalType": "uint256",
          "name": "assets",
          "type": "uint256"
        },
        {
          "internalType": "address",
          "name": "receiver",
          "type": "address"
        },
        {
          "internalType": "address",
          "name": "owner_",
          "type": "address"
        }
      ],
      "name": "withdrawNative",
      "outputs": [
        {
          "internalType": "uint256",
          "name": "",
          "type": "uint256"
        }
      ],
      "stateMutability": "nonpayable",
      "type": "function"
    },
    {
      "stateMutability": "payable",
      "type": "receive"
    }
  ],
  "bytecode": "0x60a0604052306080523480156200001557600080fd5b506200002062000030565b6200002a62000030565b620000f1565b600054610100900460ff16156200009d5760405162461bcd60e51b815260206004820152602760248201527f496e697469616c697a61626c653a20636f6e747261637420697320696e697469604482015266616c697a696e6760c81b606482015260840160405180910390fd5b60005460ff90811614620000ef576000805460ff191660ff9081179091556040519081527f7f26b83ff96e1f2b6a682f133852f6798a09c465da95921460cefb38474024989060200160405180910390a15b565b6080516158da6200012960003960008181611ebf01528181611f44015281816120f50152818161217a015261264501526158da6000f3fe6080604052600436106103b15760003560e01c8063715018a6116101e7578063b460af941161010d578063d905777e116100a0578063ef8b30f71161006f578063ef8b30f7146104d6578063f077fd3c14610a96578063f2fde38b14610ab6578063fd6064b314610ad657600080fd5b8063d905777e146109b1578063dd62ed3e14610a1b578063e581273114610a61578063ece5313214610a7657600080fd5b8063ce96cb77116100dc578063ce96cb77146109b1578063d505accf146109d1578063d69f62e0146109f1578063d78f092114610a0657600080fd5b8063b460af9414610971578063ba08765214610991578063c63d75b6146106c5578063c6e6f592146104d657600080fd5b8063925d6ba211610185578063a457c2d711610154578063a457c2d714610911578063a9059cbb14610931578063b1dbfcee14610951578063b3d7f6b9146104d657600080fd5b8063925d6ba21461089d57806394bf804d146108bc57806395d89b41146108dc5780639dc29fac146108f157600080fd5b806385f2eac0116101c157806385f2eac01461081f5780638da5cb5b1461083f5780638f4cef0c1461085d5780638f50bd131461087d57600080fd5b8063715018a6146107c25780637ecebe00146107d757806384b0196e146107f757600080fd5b806330928009116102d75780634f1ef2861161026a5780635f758bef116102395780635f758bef1461074d5780636a3005291461076d5780636e553f651461078257806370a08231146107a257600080fd5b80634f1ef286146106e557806350163974146106f857806350921b231461071857806352d1902d1461073857600080fd5b806338d52e0f116102a657806338d52e0f1461067257806339509351146106a5578063402d267d146106c55780634cdad506146104d657600080fd5b8063309280091461060c578063313ce567146106215780633644e5151461063d5780633659cfe61461065257600080fd5b806312cfca381161034f5780632126e91e1161031e5780632126e91e1461058c57806323b872dd146105ac578063275f0ddd146105cc57806327a44ed0146105ec57600080fd5b806312cfca381461052457806316b535f41461054457806318160ddd1461056457806318c23d501461057957600080fd5b806306fdde031161038b57806306fdde03146104b457806307a2d13a146104d6578063095ea7b3146104f45780630a28a477146104d657600080fd5b806301e1d11414610457578063030d4ed71461047f57806305bfee331461049457600080fd5b366104525761019560009054906101000a90046001600160a01b03166001600160a01b03166384b584396040518163ffffffff1660e01b8152600401602060405180830381865afa15801561040a573d6000803e3d6000fd5b505050506040513d601f19601f8201168201806040525081019061042e91906150ac565b151560000361045057604051632787395560e11b815260040160405180910390fd5b005b600080fd5b34801561046357600080fd5b5061046c610af6565b6040519081526020015b60405180910390f35b34801561048b57600080fd5b50610450610b72565b3480156104a057600080fd5b506104506104af3660046150de565b610b8d565b3480156104c057600080fd5b506104c9610c19565b604051610476919061515a565b3480156104e257600080fd5b5061046c6104f136600461516d565b90565b34801561050057600080fd5b5061051461050f3660046150de565b610cab565b6040519015158152602001610476565b34801561053057600080fd5b5061045061053f366004615232565b610cc5565b34801561055057600080fd5b5061045061055f3660046150de565b610f84565b34801561057057600080fd5b5060cb5461046c565b61046c6105873660046152e1565b611013565b34801561059857600080fd5b5061046c6105a73660046152fe565b611412565b3480156105b857600080fd5b506105146105c7366004615340565b611969565b3480156105d857600080fd5b506104506105e7366004615381565b611d3e565b3480156105f857600080fd5b5061016254600160b81b900460ff16610514565b34801561061857600080fd5b50610450611e81565b34801561062d57600080fd5b5060405160128152602001610476565b34801561064957600080fd5b5061046c611eab565b34801561065e57600080fd5b5061045061066d3660046152e1565b611eb5565b34801561067e57600080fd5b50610196546001600160a01b03165b6040516001600160a01b039091168152602001610476565b3480156106b157600080fd5b506105146106c03660046150de565b612030565b3480156106d157600080fd5b5061046c6106e03660046152e1565b61206f565b6104506106f33660046153ba565b6120eb565b34801561070457600080fd5b506105146107133660046152e1565b612253565b34801561072457600080fd5b5061046c61073336600461542f565b61233a565b34801561074457600080fd5b5061046c612638565b34801561075957600080fd5b506104506107683660046150de565b6126fd565b34801561077957600080fd5b5061045061270f565b34801561078e57600080fd5b5061046c61079d366004615489565b612739565b3480156107ae57600080fd5b5061046c6107bd3660046152e1565b612995565b3480156107ce57600080fd5b50610450612a55565b3480156107e357600080fd5b5061046c6107f23660046152e1565b612a69565b34801561080357600080fd5b5061080c612a88565b60405161047697969594939291906154ae565b34801561082b57600080fd5b5061016254600160b01b900460ff16610514565b34801561084b57600080fd5b506097546001600160a01b031661068d565b34801561086957600080fd5b5061046c6108783660046152e1565b612b2e565b34801561088957600080fd5b506105146108983660046152e1565b612b4c565b3480156108a957600080fd5b50610195546001600160a01b031661068d565b3480156108c857600080fd5b5061046c6108d7366004615489565b612bee565b3480156108e857600080fd5b506104c9612e65565b3480156108fd57600080fd5b5061045061090c3660046150de565b612e74565b34801561091d57600080fd5b5061051461092c3660046150de565b612e86565b34801561093d57600080fd5b5061051461094c3660046150de565b612f23565b34801561095d57600080fd5b5061016254600160a81b900460ff16610514565b34801561097d57600080fd5b5061046c61098c3660046152fe565b6132df565b34801561099d57600080fd5b5061046c6109ac3660046152fe565b6136af565b3480156109bd57600080fd5b5061046c6109cc3660046152e1565b613a43565b3480156109dd57600080fd5b506104506109ec366004615544565b613ab3565b3480156109fd57600080fd5b50610450613c17565b348015610a1257600080fd5b50610450613c3b565b348015610a2757600080fd5b5061046c610a36366004615381565b6001600160a01b03918216600090815260ca6020908152604080832093909416825291909152205490565b348015610a6d57600080fd5b50610450613c65565b348015610a8257600080fd5b50610450610a913660046152e1565b613c8f565b348015610aa257600080fd5b50610450610ab1366004615381565b613d66565b348015610ac257600080fd5b50610450610ad13660046152e1565b613e76565b348015610ae257600080fd5b5061016254600160a01b900460ff16610514565b61019654610195546040516370a0823160e01b81526001600160a01b03918216600482015260009291909116906370a0823190602401602060405180830381865afa158015610b49573d6000803e3d6000fd5b505050506040513d601f19601f82011682018060405250810190610b6d91906155b2565b905090565b610b7a613eec565b610162805463ffffffff60a01b19169055565b610b95613f46565b61019554610196546040516368939ecf60e11b8152600160a01b90910460ff1615156004820152602481018390526001600160a01b039091169063d1273d9e90604401600060405180830381600087803b158015610bf257600080fd5b505af1158015610c06573d6000803e3d6000fd5b50505050610c148282613f7b565b505050565b606060cc8054610c28906155cb565b80601f0160208091040260200160405190810160405280929190818152602001828054610c54906155cb565b8015610ca15780601f10610c7657610100808354040283529160200191610ca1565b820191906000526020600020905b815481529060010190602001808311610c8457829003601f168201915b5050505050905090565b600033610cb9818585613f90565b60019150505b92915050565b600054610100900460ff1615808015610ce55750600054600160ff909116105b80610cff5750303b158015610cff575060005460ff166001145b610d765760405162461bcd60e51b815260206004820152602e60248201527f496e697469616c697a61626c653a20636f6e747261637420697320616c72656160448201527f647920696e697469616c697a656400000000000000000000000000000000000060648201526084015b60405180910390fd5b6000805460ff191660011790558015610d99576000805461ff0019166101001790555b610da387876140b4565b610dac876140e5565b610db58461412f565b610dbd614179565b610dc682613e76565b610dce6141a8565b61019580546001600160a01b0319166001600160a01b03871690811790915560408051634c566bd360e11b815290516398acd7a6916004808201926020929091908290030181865afa158015610e28573d6000803e3d6000fd5b505050506040513d601f19601f82011682018060405250810190610e4c91906155ff565b6101968054851515600160a01b0274ffffffffffffffffffffffffffffffffffffffffff199091166001600160a01b039384161717905561019554604080516384b5843960e01b8152905191909216916384b584399160048083019260209291908290030181865afa158015610ec6573d6000803e3d6000fd5b505050506040513d601f19601f82011682018060405250810190610eea91906150ac565b610196805460ff60a81b1916600160a81b9215158302179081905560ff9190041615610f35576101965461019780546001600160a01b0319166001600160a01b039092169190911790555b8015610f7b576000805461ff0019169055604051600181527f7f26b83ff96e1f2b6a682f133852f6798a09c465da95921460cefb38474024989060200160405180910390a15b50505050505050565b610f8c613f46565b610195546101965460405163566f4d9560e11b8152600160a01b90910460ff16151560048201526001600160a01b038481166024830152604482018490529091169063acde9b2a90606401600060405180830381600087803b158015610ff157600080fd5b505af1158015611005573d6000803e3d6000fd5b50505050610c1482826141cf565b600061101d6141db565b61016254600160a01b900460ff161561104957604051636822eceb60e11b815260040160405180910390fd5b61019560009054906101000a90046001600160a01b03166001600160a01b0316629c185f6040518163ffffffff1660e01b8152600401602060405180830381865afa15801561109c573d6000803e3d6000fd5b505050506040513d601f19601f820116820180604052508101906110c091906150ac565b156110de576040516321e3430160e21b815260040160405180910390fd5b61019560009054906101000a90046001600160a01b03166001600160a01b031663533ae1296040518163ffffffff1660e01b8152600401600060405180830381600087803b15801561112f57600080fd5b505af1158015611143573d6000803e3d6000fd5b505061019554604051634eacc0fd60e01b8152346004820181905293506001600160a01b039091169150634eacc0fd906024016020604051808303816000875af1158015611195573d6000803e3d6000fd5b505050506040513d601f19601f820116820180604052508101906111b991906150ac565b156111d75760405163b04c001160e01b815260040160405180910390fd5b34836111e38282614236565b61019560009054906101000a90046001600160a01b03166001600160a01b03166384b584396040518163ffffffff1660e01b8152600401602060405180830381865afa158015611237573d6000803e3d6000fd5b505050506040513d601f19601f8201168201806040525081019061125b91906150ac565b151560000361127d57604051632787395560e11b815260040160405180910390fd5b3460000361129e576040516303e3e43960e51b815260040160405180910390fd5b6101975460408051630d0e30db60e41b8152905134926001600160a01b03169163d0e30db091849160048082019260009290919082900301818588803b1580156112e757600080fd5b505af11580156112fb573d6000803e3d6000fd5b505050505060006113098290565b610197546101955460405163095ea7b360e01b81526001600160a01b03918216600482015260248101869052929350169063095ea7b3906044016020604051808303816000875af1158015611362573d6000803e3d6000fd5b505050506040513d601f19601f8201168201806040525081019061138691906150ac565b506101955460405163c14cfe0960e01b81523060048201526001600160a01b03898116602483015260448201859052606482018490529091169063c14cfe0990608401600060405180830381600087803b1580156113e357600080fd5b505af11580156113f7573d6000803e3d6000fd5b509297505050505050505061140d600161016355565b919050565b61016254600090600160a81b900460ff161561144157604051636344d7b760e11b815260040160405180910390fd5b61019560009054906101000a90046001600160a01b03166001600160a01b0316629c185f6040518163ffffffff1660e01b8152600401602060405180830381865afa158015611494573d6000803e3d6000fd5b505050506040513d601f19601f820116820180604052508101906114b891906150ac565b156114d6576040516321e3430160e21b815260040160405180910390fd5b61019560009054906101000a90046001600160a01b03166001600160a01b031663533ae1296040518163ffffffff1660e01b8152600401600060405180830381600087803b15801561152757600080fd5b505af115801561153b573d6000803e3d6000fd5b50506101955460405163cf0571d360e01b8152600481018890528793506001600160a01b03909116915063cf0571d3906024016020604051808303816000875af115801561158d573d6000803e3d6000fd5b505050506040513d601f19601f820116820180604052508101906115b191906150ac565b156115cf5760405163922c089560e01b815260040160405180910390fd5b826115d981614280565b6115e16141db565b61019560009054906101000a90046001600160a01b03166001600160a01b03166384b584396040518163ffffffff1660e01b8152600401602060405180830381865afa158015611635573d6000803e3d6000fd5b505050506040513d601f19601f8201168201806040525081019061165991906150ac565b151560000361167b57604051632787395560e11b815260040160405180910390fd5b61019560009054906101000a90046001600160a01b03166001600160a01b031663ddca8bfa6040518163ffffffff1660e01b8152600401602060405180830381865afa1580156116cf573d6000803e3d6000fd5b505050506040513d601f19601f820116820180604052508101906116f391906155b2565b610195546040516325ad47ab60e21b81526001600160a01b038881166004830152909116906396b51eac90602401602060405180830381865afa15801561173e573d6000803e3d6000fd5b505050506040513d601f19601f8201168201806040525081019061176291906155b2565b146117c8576101955460405163242ffe5560e11b81526001600160a01b0387811660048301529091169063485ffcaa90602401600060405180830381600087803b1580156117af57600080fd5b505af11580156117c3573d6000803e3d6000fd5b505050505b6117d184613a43565b8611156117f15760405163039eea9760e31b815260040160405180910390fd5b600086610195549091506001600160a01b0316633d82850b336040516001600160e01b031960e084901b1681526001600160a01b0391821660048201523060248201529088166044820152606481018a90526084810184905260a401600060405180830381600087803b15801561186757600080fd5b505af115801561187b573d6000803e3d6000fd5b505061019754604051632e1a7d4d60e01b8152600481018b90526001600160a01b039091169250632e1a7d4d9150602401600060405180830381600087803b1580156118c657600080fd5b505af11580156118da573d6000803e3d6000fd5b505050506000866001600160a01b03168860405160006040518083038185875af1925050503d806000811461192b576040519150601f19603f3d011682016040523d82523d6000602084013e611930565b606091505b5050905080611952576040516314e4ac9360e11b815260040160405180910390fd5b509250611960600161016355565b50509392505050565b61016254600090600160b01b900460ff161561199857604051630c98e6a160e31b815260040160405180910390fd5b61019560009054906101000a90046001600160a01b03166001600160a01b0316629c185f6040518163ffffffff1660e01b8152600401602060405180830381865afa1580156119eb573d6000803e3d6000fd5b505050506040513d601f19601f82011682018060405250810190611a0f91906150ac565b15611a2d576040516321e3430160e21b815260040160405180910390fd5b61019560009054906101000a90046001600160a01b03166001600160a01b031663533ae1296040518163ffffffff1660e01b8152600401600060405180830381600087803b158015611a7e57600080fd5b505af1158015611a92573d6000803e3d6000fd5b50506101625460405163df592f7d60e01b81526001600160a01b0380881660048301528794509091169150600090829063df592f7d90602401602060405180830381865afa158015611ae8573d6000803e3d6000fd5b505050506040513d601f19601f82011682018060405250810190611b0c91906150ac565b90508015611b2d5760405163108a7eb160e21b815260040160405180910390fd5b6101625460405163df592f7d60e01b81526001600160a01b03808a16600483015289921690600090829063df592f7d90602401602060405180830381865afa158015611b7d573d6000803e3d6000fd5b505050506040513d601f19601f82011682018060405250810190611ba191906150ac565b90508015611bc25760405163108a7eb160e21b815260040160405180910390fd5b611bcc8a8a611d3e565b611bd68a8a613d66565b61019554604051633524f9e360e21b81526001600160a01b038c811660048301528b81166024830152600092169063d493e78c90604401608060405180830381865afa158015611c2a573d6000803e3d6000fd5b505050506040513d601f19601f82011682018060405250810190611c4e919061561c565b90506000611c5d8c8c8c6142a9565b61019554610196549192506001600160a01b03169063eec0d656908e908e90600160a01b900460ff168e8760006020020151886001602002015189600260200201518a600360200201516040516001600160e01b031960e08b901b1681526001600160a01b03988916600482015297909616602488015293151560448701526064860192909252608485015260a484015260c483015260e482015261010401600060405180830381600087803b158015611d1657600080fd5b505af1158015611d2a573d6000803e3d6000fd5b50929e9d5050505050505050505050505050565b611d4782612253565b15611dad57610195546040516310e7089f60e11b81526001600160a01b038481166004830152909116906321ce113e90602401600060405180830381600087803b158015611d9457600080fd5b505af1158015611da8573d6000803e3d6000fd5b505050505b61019554604051631605ed3160e31b81526001600160a01b0383811660048301529091169063b02f698890602401600060405180830381600087803b158015611df557600080fd5b505af1158015611e09573d6000803e3d6000fd5b50505050611e1681612253565b15611e7d57610195546040516310e7089f60e11b81526001600160a01b038381166004830152909116906321ce113e906024015b600060405180830381600087803b158015611e6457600080fd5b505af1158015611e78573d6000803e3d6000fd5b505050505b5050565b611e89613eec565b610162805460ff60b81b198116600160b81b9182900460ff1615909102179055565b6000610b6d6142c2565b6001600160a01b037f0000000000000000000000000000000000000000000000000000000000000000163003611f425760405162461bcd60e51b815260206004820152602c60248201527f46756e6374696f6e206d7573742062652063616c6c6564207468726f7567682060448201526b19195b1959d85d1958d85b1b60a21b6064820152608401610d6d565b7f00000000000000000000000000000000000000000000000000000000000000006001600160a01b0316611f9d7f360894a13ba1a3210667c828492db98dca3e2076cc3735a920a3ca505d382bbc546001600160a01b031690565b6001600160a01b0316146120085760405162461bcd60e51b815260206004820152602c60248201527f46756e6374696f6e206d7573742062652063616c6c6564207468726f7567682060448201526b6163746976652070726f787960a01b6064820152608401610d6d565b612011816142cc565b6040805160008082526020820190925261202d918391906142d4565b50565b33600081815260ca602090815260408083206001600160a01b0387168452909152812054909190610cb9908290869061206a9087906156b0565b613f90565b6101955460405163728bf73360e01b81526001600160a01b038381166004830152600092169063728bf73390602401602060405180830381865afa1580156120bb573d6000803e3d6000fd5b505050506040513d601f19601f820116820180604052508101906120df91906155b2565b610cbf906000196156c3565b6001600160a01b037f00000000000000000000000000000000000000000000000000000000000000001630036121785760405162461bcd60e51b815260206004820152602c60248201527f46756e6374696f6e206d7573742062652063616c6c6564207468726f7567682060448201526b19195b1959d85d1958d85b1b60a21b6064820152608401610d6d565b7f00000000000000000000000000000000000000000000000000000000000000006001600160a01b03166121d37f360894a13ba1a3210667c828492db98dca3e2076cc3735a920a3ca505d382bbc546001600160a01b031690565b6001600160a01b03161461223e5760405162461bcd60e51b815260206004820152602c60248201527f46756e6374696f6e206d7573742062652063616c6c6564207468726f7567682060448201526b6163746976652070726f787960a01b6064820152608401610d6d565b612247826142cc565b611e7d828260016142d4565b6101955460408051638df4541b60e01b815290516000926001600160a01b031691638df4541b9160048083019260209291908290030181865afa15801561229e573d6000803e3d6000fd5b505050506040513d601f19601f820116820180604052508101906122c291906155b2565b6101955460405163a129c84760e01b81526001600160a01b0385811660048301529091169063a129c847906024015b602060405180830381865afa15801561230e573d6000803e3d6000fd5b505050506040513d601f19601f8201168201806040525081019061233291906155b2565b141592915050565b61016254600090600160a01b900460ff161561236957604051636822eceb60e11b815260040160405180910390fd5b61019560009054906101000a90046001600160a01b03166001600160a01b0316629c185f6040518163ffffffff1660e01b8152600401602060405180830381865afa1580156123bc573d6000803e3d6000fd5b505050506040513d601f19601f820116820180604052508101906123e091906150ac565b156123fe576040516321e3430160e21b815260040160405180910390fd5b61019560009054906101000a90046001600160a01b03166001600160a01b031663533ae1296040518163ffffffff1660e01b8152600401600060405180830381600087803b15801561244f57600080fd5b505af1158015612463573d6000803e3d6000fd5b505061019554604051634eacc0fd60e01b8152600481018b90528a93506001600160a01b039091169150634eacc0fd906024016020604051808303816000875af11580156124b5573d6000803e3d6000fd5b505050506040513d601f19601f820116820180604052508101906124d991906150ac565b156124f75760405163b04c001160e01b815260040160405180910390fd5b87876125038282614236565b60008a610196549091506001600160a01b031663d505accf336101955460405160e084901b6001600160e01b03191681526001600160a01b0392831660048201529116602482015260448101849052606481018c905260ff8b16608482015260a481018a905260c4810189905260e401600060405180830381600087803b15801561258d57600080fd5b505af11580156125a1573d6000803e3d6000fd5b5050610195546001600160a01b0316915063c14cfe099050336040516001600160e01b031960e084901b1681526001600160a01b039182166004820152908d166024820152604481018e905260648101849052608401600060405180830381600087803b15801561261157600080fd5b505af1158015612625573d6000803e3d6000fd5b50929d9c50505050505050505050505050565b6000306001600160a01b037f000000000000000000000000000000000000000000000000000000000000000016146126d85760405162461bcd60e51b815260206004820152603860248201527f555550535570677261646561626c653a206d757374206e6f742062652063616c60448201527f6c6564207468726f7567682064656c656761746563616c6c00000000000000006064820152608401610d6d565b507f360894a13ba1a3210667c828492db98dca3e2076cc3735a920a3ca505d382bbc90565b612705613f46565b611e7d8282614460565b612717613eec565b610162805460ff60b01b198116600160b01b9182900460ff1615909102179055565b61016254600090600160a01b900460ff161561276857604051636822eceb60e11b815260040160405180910390fd5b61019560009054906101000a90046001600160a01b03166001600160a01b0316629c185f6040518163ffffffff1660e01b8152600401602060405180830381865afa1580156127bb573d6000803e3d6000fd5b505050506040513d601f19601f820116820180604052508101906127df91906150ac565b156127fd576040516321e3430160e21b815260040160405180910390fd5b61019560009054906101000a90046001600160a01b03166001600160a01b031663533ae1296040518163ffffffff1660e01b8152600401600060405180830381600087803b15801561284e57600080fd5b505af1158015612862573d6000803e3d6000fd5b505061019554604051634eacc0fd60e01b8152600481018790528693506001600160a01b039091169150634eacc0fd906024016020604051808303816000875af11580156128b4573d6000803e3d6000fd5b505050506040513d601f19601f820116820180604052508101906128d891906150ac565b156128f65760405163b04c001160e01b815260040160405180910390fd5b83836129028282614236565b600086610195549091506001600160a01b031663c14cfe09336040516001600160e01b031960e084901b1681526001600160a01b0391821660048201529089166024820152604481018a905260648101849052608401600060405180830381600087803b15801561297257600080fd5b505af1158015612986573d6000803e3d6000fd5b50929998505050505050505050565b60006129a082612b4c565b806129af57506129af82612253565b15612a4c576101955460405163a4d96e1760e01b81526001600160a01b038481166004830152600092839291169063a4d96e17906024016040805180830381865afa158015612a02573d6000803e3d6000fd5b505050506040513d601f19601f82011682018060405250810190612a2691906156d6565b610196549193509150600160a01b900460ff1615612a45575092915050565b9392505050565b610cbf82612b2e565b612a5d613eec565b612a676000614521565b565b6001600160a01b038116600090815261012f6020526040812054610cbf565b60006060806000806000606060fb546000801b148015612aa8575060fc54155b612af45760405162461bcd60e51b815260206004820152601560248201527f4549503731323a20556e696e697469616c697a656400000000000000000000006044820152606401610d6d565b612afc614573565b612b04614582565b60408051600080825260208201909252600f60f81b9b939a50919850469750309650945092509050565b6001600160a01b038116600090815260c96020526040812054610cbf565b6101955460408051636ee545fd60e11b815290516000926001600160a01b03169163ddca8bfa9160048083019260209291908290030181865afa158015612b97573d6000803e3d6000fd5b505050506040513d601f19601f82011682018060405250810190612bbb91906155b2565b610195546040516325ad47ab60e21b81526001600160a01b038581166004830152909116906396b51eac906024016122f1565b61016254600090600160a01b900460ff1615612c1d57604051636822eceb60e11b815260040160405180910390fd5b61019560009054906101000a90046001600160a01b03166001600160a01b0316629c185f6040518163ffffffff1660e01b8152600401602060405180830381865afa158015612c70573d6000803e3d6000fd5b505050506040513d601f19601f82011682018060405250810190612c9491906150ac565b15612cb2576040516321e3430160e21b815260040160405180910390fd5b61019560009054906101000a90046001600160a01b03166001600160a01b031663533ae1296040518163ffffffff1660e01b8152600401600060405180830381600087803b158015612d0357600080fd5b505af1158015612d17573d6000803e3d6000fd5b505061019554604051634eacc0fd60e01b8152600481018790528693506001600160a01b039091169150634eacc0fd906024016020604051808303816000875af1158015612d69573d6000803e3d6000fd5b505050506040513d601f19601f82011682018060405250810190612d8d91906150ac565b15612dab5760405163b04c001160e01b815260040160405180910390fd5b612db48361206f565b841115612dd45760405163292b120160e01b815260040160405180910390fd5b600084610195549091506001600160a01b031663c14cfe09336040516001600160e01b031960e084901b1681526001600160a01b03918216600482015290871660248201526044810184905260648101889052608401600060405180830381600087803b158015612e4457600080fd5b505af1158015612e58573d6000803e3d6000fd5b5092979650505050505050565b606060cd8054610c28906155cb565b612e7c613f46565b611e7d8282614591565b33600081815260ca602090815260408083206001600160a01b038716845290915281205490919083811015612f0b5760405162461bcd60e51b815260206004820152602560248201527f45524332303a2064656372656173656420616c6c6f77616e63652062656c6f77604482015264207a65726f60d81b6064820152608401610d6d565b612f188286868403613f90565b506001949350505050565b61016254600090600160b01b900460ff1615612f5257604051630c98e6a160e31b815260040160405180910390fd5b61019560009054906101000a90046001600160a01b03166001600160a01b0316629c185f6040518163ffffffff1660e01b8152600401602060405180830381865afa158015612fa5573d6000803e3d6000fd5b505050506040513d601f19601f82011682018060405250810190612fc991906150ac565b15612fe7576040516321e3430160e21b815260040160405180910390fd5b6101625460405163df592f7d60e01b81526001600160a01b03808616600483015285921690600090829063df592f7d90602401602060405180830381865afa158015613037573d6000803e3d6000fd5b505050506040513d601f19601f8201168201806040525081019061305b91906150ac565b9050801561307c5760405163108a7eb160e21b815260040160405180910390fd5b336101625460405163df592f7d60e01b81526001600160a01b03838116600483015290911690600090829063df592f7d90602401602060405180830381865afa1580156130cd573d6000803e3d6000fd5b505050506040513d601f19601f820116820180604052508101906130f191906150ac565b905080156131125760405163108a7eb160e21b815260040160405180910390fd5b61019560009054906101000a90046001600160a01b03166001600160a01b031663533ae1296040518163ffffffff1660e01b8152600401600060405180830381600087803b15801561316357600080fd5b505af1158015613177573d6000803e3d6000fd5b5050505061318b6131853390565b8a611d3e565b613195338a613d66565b610195546000906001600160a01b031663d493e78c336040516001600160e01b031960e084901b1681526001600160a01b039182166004820152908d166024820152604401608060405180830381865afa1580156131f7573d6000803e3d6000fd5b505050506040513d601f19601f8201168201806040525081019061321b919061561c565b905060006132298b8b6146c5565b610195549091506001600160a01b031663eec0d65633610196548e90600160a01b900460ff168e8760006020020151886001602002015189600260200201518a600360200201516040516001600160e01b031960e08b901b1681526001600160a01b03988916600482015297909616602488015293151560448701526064860192909252608485015260a484015260c483015260e482015261010401600060405180830381600087803b15801561261157600080fd5b61016254600090600160a81b900460ff161561330e57604051636344d7b760e11b815260040160405180910390fd5b61019560009054906101000a90046001600160a01b03166001600160a01b0316629c185f6040518163ffffffff1660e01b8152600401602060405180830381865afa158015613361573d6000803e3d6000fd5b505050506040513d601f19601f8201168201806040525081019061338591906150ac565b156133a3576040516321e3430160e21b815260040160405180910390fd5b61019560009054906101000a90046001600160a01b03166001600160a01b031663533ae1296040518163ffffffff1660e01b8152600401600060405180830381600087803b1580156133f457600080fd5b505af1158015613408573d6000803e3d6000fd5b50506101955460405163cf0571d360e01b8152600481018890528793506001600160a01b03909116915063cf0571d3906024016020604051808303816000875af115801561345a573d6000803e3d6000fd5b505050506040513d601f19601f8201168201806040525081019061347e91906150ac565b1561349c5760405163922c089560e01b815260040160405180910390fd5b826134a681614280565b6134ae6141db565b61019560009054906101000a90046001600160a01b03166001600160a01b031663ddca8bfa6040518163ffffffff1660e01b8152600401602060405180830381865afa158015613502573d6000803e3d6000fd5b505050506040513d601f19601f8201168201806040525081019061352691906155b2565b610195546040516325ad47ab60e21b81526001600160a01b038881166004830152909116906396b51eac90602401602060405180830381865afa158015613571573d6000803e3d6000fd5b505050506040513d601f19601f8201168201806040525081019061359591906155b2565b146135fb576101955460405163242ffe5560e11b81526001600160a01b0387811660048301529091169063485ffcaa90602401600060405180830381600087803b1580156135e257600080fd5b505af11580156135f6573d6000803e3d6000fd5b505050505b61360484613a43565b8611156136245760405163039eea9760e31b815260040160405180910390fd5b61019554604051633d82850b60e01b81523360048201526001600160a01b0387811660248301528681166044830152606482018990526084820189905288921690633d82850b9060a4015b600060405180830381600087803b15801561368957600080fd5b505af115801561369d573d6000803e3d6000fd5b50929550505050611960600161016355565b61016254600090600160a81b900460ff16156136de57604051636344d7b760e11b815260040160405180910390fd5b61019560009054906101000a90046001600160a01b03166001600160a01b0316629c185f6040518163ffffffff1660e01b8152600401602060405180830381865afa158015613731573d6000803e3d6000fd5b505050506040513d601f19601f8201168201806040525081019061375591906150ac565b15613773576040516321e3430160e21b815260040160405180910390fd5b61019560009054906101000a90046001600160a01b03166001600160a01b031663533ae1296040518163ffffffff1660e01b8152600401600060405180830381600087803b1580156137c457600080fd5b505af11580156137d8573d6000803e3d6000fd5b50506101955460405163cf0571d360e01b8152600481018890528793506001600160a01b03909116915063cf0571d3906024016020604051808303816000875af115801561382a573d6000803e3d6000fd5b505050506040513d601f19601f8201168201806040525081019061384e91906150ac565b1561386c5760405163922c089560e01b815260040160405180910390fd5b8261387681614280565b61387e6141db565b61019560009054906101000a90046001600160a01b03166001600160a01b031663ddca8bfa6040518163ffffffff1660e01b8152600401602060405180830381865afa1580156138d2573d6000803e3d6000fd5b505050506040513d601f19601f820116820180604052508101906138f691906155b2565b610195546040516325ad47ab60e21b81526001600160a01b038881166004830152909116906396b51eac90602401602060405180830381865afa158015613941573d6000803e3d6000fd5b505050506040513d601f19601f8201168201806040525081019061396591906155b2565b146139cb576101955460405163242ffe5560e11b81526001600160a01b0387811660048301529091169063485ffcaa90602401600060405180830381600087803b1580156139b257600080fd5b505af11580156139c6573d6000803e3d6000fd5b505050505b6139d484613a43565b8611156139f4576040516389e4c16360e01b815260040160405180910390fd5b61019554604051633d82850b60e01b81523360048201526001600160a01b0387811660248301528681166044830152606482018990526084820189905288921690633d82850b9060a40161366f565b610195546040516306443f4560e51b81526001600160a01b038381166004830152600092169063c887e8a090602401602060405180830381865afa158015613a8f573d6000803e3d6000fd5b505050506040513d601f19601f82011682018060405250810190610cbf91906155b2565b83421115613b035760405162461bcd60e51b815260206004820152601d60248201527f45524332305065726d69743a206578706972656420646561646c696e650000006044820152606401610d6d565b60007f6e71edae12b1b97f4d1f60370fef10105fa2faae0126114a169c64845d6126c9888888613b328c6146d3565b6040805160208101969096526001600160a01b0394851690860152929091166060840152608083015260a082015260c0810186905260e0016040516020818303038152906040528051906020012090506000613b8d826146fc565b90506000613b9d82878787614729565b9050896001600160a01b0316816001600160a01b031614613c005760405162461bcd60e51b815260206004820152601e60248201527f45524332305065726d69743a20696e76616c6964207369676e617475726500006044820152606401610d6d565b613c0b8a8a8a613f90565b50505050505050505050565b613c1f613eec565b610162805463ffffffff60a01b1916630101010160a01b179055565b613c43613eec565b610162805460ff60a01b198116600160a01b9182900460ff1615909102179055565b613c6d613eec565b610162805460ff60a81b198116600160a81b9182900460ff1615909102179055565b613c97613eec565b61019560009054906101000a90046001600160a01b03166001600160a01b03166384b584396040518163ffffffff1660e01b8152600401602060405180830381865afa158015613ceb573d6000803e3d6000fd5b505050506040513d601f19601f82011682018060405250810190613d0f91906150ac565b1515600003613d3157604051632787395560e11b815260040160405180910390fd5b6040516001600160a01b038216904780156108fc02916000818181858888f19350505050158015611e7d573d6000803e3d6000fd5b613d6f82612b4c565b15613dd5576101955460405163242ffe5560e11b81526001600160a01b0384811660048301529091169063485ffcaa90602401600060405180830381600087803b158015613dbc57600080fd5b505af1158015613dd0573d6000803e3d6000fd5b505050505b61019554604051635737ed7d60e01b81526001600160a01b03838116600483015290911690635737ed7d90602401600060405180830381600087803b158015613e1d57600080fd5b505af1158015613e31573d6000803e3d6000fd5b50505050613e3e81612b4c565b15611e7d576101955460405163242ffe5560e11b81526001600160a01b0383811660048301529091169063485ffcaa90602401611e4a565b613e7e613eec565b6001600160a01b038116613ee35760405162461bcd60e51b815260206004820152602660248201527f4f776e61626c653a206e6577206f776e657220697320746865207a65726f206160448201526564647265737360d01b6064820152608401610d6d565b61202d81614521565b6097546001600160a01b03163314612a675760405162461bcd60e51b815260206004820181905260248201527f4f776e61626c653a2063616c6c6572206973206e6f7420746865206f776e65726044820152606401610d6d565b610195546001600160a01b0316336001600160a01b031614612a675760405163e565d9cb60e01b815260040160405180910390fd5b6000613f878383614753565b50600192915050565b6001600160a01b038316613ff25760405162461bcd60e51b8152602060048201526024808201527f45524332303a20617070726f76652066726f6d20746865207a65726f206164646044820152637265737360e01b6064820152608401610d6d565b6001600160a01b0382166140535760405162461bcd60e51b815260206004820152602260248201527f45524332303a20617070726f766520746f20746865207a65726f206164647265604482015261737360f01b6064820152608401610d6d565b6001600160a01b03838116600081815260ca602090815260408083209487168084529482529182902085905590518481527f8c5be1e5ebec7d5bd14f71427d1e84f3dd0314c0f7b2291e5b200ac8c7c3b925910160405180910390a3505050565b600054610100900460ff166140db5760405162461bcd60e51b8152600401610d6d906156fa565b611e7d82826147cb565b600054610100900460ff1661410c5760405162461bcd60e51b8152600401610d6d906156fa565b61202d81604051806040016040528060018152602001603160f81b81525061480b565b600054610100900460ff166141565760405162461bcd60e51b8152600401610d6d906156fa565b61016280546001600160a01b0319166001600160a01b0392909216919091179055565b600054610100900460ff166141a05760405162461bcd60e51b8152600401610d6d906156fa565b612a6761485a565b600054610100900460ff16612a675760405162461bcd60e51b8152600401610d6d906156fa565b6000613f87838361488a565b6002610163540361422e5760405162461bcd60e51b815260206004820152601f60248201527f5265656e7472616e637947756172643a207265656e7472616e742063616c6c006044820152606401610d6d565b600261016355565b81600003614257576040516303e3e43960e51b815260040160405180910390fd5b6142608161206f565b821115611e7d576040516314a4b53560e01b815260040160405180910390fd5b6001600160a01b038116331461202d57604051637a45e68560e01b815260040160405180910390fd5b6000336142b78582856148fc565b612f1885858561498e565b6000610b6d614b39565b61202d613eec565b7f4910fdfa16fed3260ed0e7147f7cc6da11a60208b5b9406d12a635614ffd91435460ff161561430757610c1483614bad565b826001600160a01b03166352d1902d6040518163ffffffff1660e01b8152600401602060405180830381865afa925050508015614361575060408051601f3d908101601f1916820190925261435e918101906155b2565b60015b6143d35760405162461bcd60e51b815260206004820152602e60248201527f45524331393637557067726164653a206e657720696d706c656d656e7461746960448201527f6f6e206973206e6f7420555550530000000000000000000000000000000000006064820152608401610d6d565b7f360894a13ba1a3210667c828492db98dca3e2076cc3735a920a3ca505d382bbc81146144545760405162461bcd60e51b815260206004820152602960248201527f45524331393637557067726164653a20756e737570706f727465642070726f786044820152681a58589b195555525160ba1b6064820152608401610d6d565b50610c14838383614c6b565b6001600160a01b0382166144b65760405162461bcd60e51b815260206004820152601f60248201527f45524332303a206d696e7420746f20746865207a65726f2061646472657373006044820152606401610d6d565b8060cb60008282546144c891906156b0565b90915550506001600160a01b038216600081815260c960209081526040808320805486019055518481527fddf252ad1be2c89b69c2b068fc378daa952ba7f163c4a11628f55a4df523b3ef910160405180910390a35050565b609780546001600160a01b038381166001600160a01b0319831681179093556040519116919082907f8be0079c531659141344cd1fd0a4f28419497f9722a3daafe3b4186f6b6457e090600090a35050565b606060fd8054610c28906155cb565b606060fe8054610c28906155cb565b6001600160a01b0382166145f15760405162461bcd60e51b815260206004820152602160248201527f45524332303a206275726e2066726f6d20746865207a65726f206164647265736044820152607360f81b6064820152608401610d6d565b6001600160a01b038216600090815260c96020526040902054818110156146655760405162461bcd60e51b815260206004820152602260248201527f45524332303a206275726e20616d6f756e7420657863656564732062616c616e604482015261636560f01b6064820152608401610d6d565b6001600160a01b038316600081815260c960209081526040808320868603905560cb80548790039055518581529192917fddf252ad1be2c89b69c2b068fc378daa952ba7f163c4a11628f55a4df523b3ef910160405180910390a3505050565b600033610cb981858561498e565b6001600160a01b038116600090815261012f602052604090208054600181018255905b50919050565b6000610cbf6147096142c2565b8360405161190160f01b8152600281019290925260228201526042902090565b600080600061473a87878787614c90565b9150915061474781614d54565b5090505b949350505050565b6001600160a01b0382166147a95760405162461bcd60e51b815260206004820152601c60248201527f54726561737572792063616e6e6f74206265207a65726f2061646472000000006044820152606401610d6d565b6001600160a01b03909116600090815260c96020526040902080549091019055565b600054610100900460ff166147f25760405162461bcd60e51b8152600401610d6d906156fa565b60cc6147fe838261578b565b5060cd610c14828261578b565b600054610100900460ff166148325760405162461bcd60e51b8152600401610d6d906156fa565b60fd61483e838261578b565b5060fe61484b828261578b565b5050600060fb81905560fc5550565b600054610100900460ff166148815760405162461bcd60e51b8152600401610d6d906156fa565b612a6733614521565b6001600160a01b0382166148e05760405162461bcd60e51b815260206004820152601b60248201527f416464726573732063616e6e6f74206265207a65726f206164647200000000006044820152606401610d6d565b6001600160a01b03909116600090815260c96020526040902055565b6001600160a01b03838116600090815260ca60209081526040808320938616835292905220546000198114614988578181101561497b5760405162461bcd60e51b815260206004820152601d60248201527f45524332303a20696e73756666696369656e7420616c6c6f77616e63650000006044820152606401610d6d565b6149888484848403613f90565b50505050565b6001600160a01b0383166149f25760405162461bcd60e51b815260206004820152602560248201527f45524332303a207472616e736665722066726f6d20746865207a65726f206164604482015264647265737360d81b6064820152608401610d6d565b6001600160a01b038216614a545760405162461bcd60e51b815260206004820152602360248201527f45524332303a207472616e7366657220746f20746865207a65726f206164647260448201526265737360e81b6064820152608401610d6d565b6001600160a01b038316600090815260c9602052604090205481811015614acc5760405162461bcd60e51b815260206004820152602660248201527f45524332303a207472616e7366657220616d6f756e7420657863656564732062604482015265616c616e636560d01b6064820152608401610d6d565b6001600160a01b03808516600081815260c9602052604080822086860390559286168082529083902080548601905591517fddf252ad1be2c89b69c2b068fc378daa952ba7f163c4a11628f55a4df523b3ef90614b2c9086815260200190565b60405180910390a3614988565b60007f8b73c3c69bb8fe3d512ecc4cf759cc79239f7b179b0ffacaa9a75d522b39400f614b64614e9e565b614b6c614ef7565b60408051602081019490945283019190915260608201524660808201523060a082015260c00160405160208183030381529060405280519060200120905090565b6001600160a01b0381163b614c2a5760405162461bcd60e51b815260206004820152602d60248201527f455243313936373a206e657720696d706c656d656e746174696f6e206973206e60448201527f6f74206120636f6e7472616374000000000000000000000000000000000000006064820152608401610d6d565b7f360894a13ba1a3210667c828492db98dca3e2076cc3735a920a3ca505d382bbc80546001600160a01b0319166001600160a01b0392909216919091179055565b614c7483614f28565b600082511180614c815750805b15610c14576149888383614f68565b6000807f7fffffffffffffffffffffffffffffff5d576e7357a4501ddfe92f46681b20a0831115614cc75750600090506003614d4b565b6040805160008082526020820180845289905260ff881692820192909252606081018690526080810185905260019060a0016020604051602081039080840390855afa158015614d1b573d6000803e3d6000fd5b5050604051601f1901519150506001600160a01b038116614d4457600060019250925050614d4b565b9150600090505b94509492505050565b6000816004811115614d6857614d6861584b565b03614d705750565b6001816004811115614d8457614d8461584b565b03614dd15760405162461bcd60e51b815260206004820152601860248201527f45434453413a20696e76616c6964207369676e617475726500000000000000006044820152606401610d6d565b6002816004811115614de557614de561584b565b03614e325760405162461bcd60e51b815260206004820152601f60248201527f45434453413a20696e76616c6964207369676e6174757265206c656e677468006044820152606401610d6d565b6003816004811115614e4657614e4661584b565b0361202d5760405162461bcd60e51b815260206004820152602260248201527f45434453413a20696e76616c6964207369676e6174757265202773272076616c604482015261756560f01b6064820152608401610d6d565b600080614ea9614573565b805190915015614ec0578051602090910120919050565b60fb548015614ecf5792915050565b7fc5d2460186f7233c927e7db2dcc703c0e500b653ca82273b7bfad8045d85a4709250505090565b600080614f02614582565b805190915015614f19578051602090910120919050565b60fc548015614ecf5792915050565b614f3181614bad565b6040516001600160a01b038216907fbc7cd75a20ee27fd9adebab32041f755214dbc6bffa90cc0225b39da2e5c2d3b90600090a250565b6060612a45838360405180606001604052806027815260200161587e602791396060600080856001600160a01b031685604051614fa59190615861565b600060405180830381855af49150503d8060008114614fe0576040519150601f19603f3d011682016040523d82523d6000602084013e614fe5565b606091505b5091509150614ff686838387615000565b9695505050505050565b6060831561506f578251600003615068576001600160a01b0385163b6150685760405162461bcd60e51b815260206004820152601d60248201527f416464726573733a2063616c6c20746f206e6f6e2d636f6e74726163740000006044820152606401610d6d565b508161474b565b61474b83838151156150845781518083602001fd5b8060405162461bcd60e51b8152600401610d6d919061515a565b801515811461202d57600080fd5b6000602082840312156150be57600080fd5b8151612a458161509e565b6001600160a01b038116811461202d57600080fd5b600080604083850312156150f157600080fd5b82356150fc816150c9565b946020939093013593505050565b60005b8381101561512557818101518382015260200161510d565b50506000910152565b6000815180845261514681602086016020860161510a565b601f01601f19169290920160200192915050565b602081526000612a45602083018461512e565b60006020828403121561517f57600080fd5b5035919050565b634e487b7160e01b600052604160045260246000fd5b600067ffffffffffffffff808411156151b7576151b7615186565b604051601f8501601f19908116603f011681019082821181831017156151df576151df615186565b816040528093508581528686860111156151f857600080fd5b858560208301376000602087830101525050509392505050565b600082601f83011261522357600080fd5b612a458383356020850161519c565b60008060008060008060c0878903121561524b57600080fd5b863567ffffffffffffffff8082111561526357600080fd5b61526f8a838b01615212565b9750602089013591508082111561528557600080fd5b5061529289828a01615212565b95505060408701356152a3816150c9565b935060608701356152b3816150c9565b925060808701356152c38161509e565b915060a08701356152d3816150c9565b809150509295509295509295565b6000602082840312156152f357600080fd5b8135612a45816150c9565b60008060006060848603121561531357600080fd5b833592506020840135615325816150c9565b91506040840135615335816150c9565b809150509250925092565b60008060006060848603121561535557600080fd5b8335615360816150c9565b92506020840135615370816150c9565b929592945050506040919091013590565b6000806040838503121561539457600080fd5b823561539f816150c9565b915060208301356153af816150c9565b809150509250929050565b600080604083850312156153cd57600080fd5b82356153d8816150c9565b9150602083013567ffffffffffffffff8111156153f457600080fd5b8301601f8101851361540557600080fd5b6154148582356020840161519c565b9150509250929050565b803560ff8116811461140d57600080fd5b60008060008060008060c0878903121561544857600080fd5b86359550602087013561545a816150c9565b94506040870135935061546f6060880161541e565b92506080870135915060a087013590509295509295509295565b6000806040838503121561549c57600080fd5b8235915060208301356153af816150c9565b60ff60f81b881681526000602060e0818401526154ce60e084018a61512e565b83810360408501526154e0818a61512e565b606085018990526001600160a01b038816608086015260a0850187905284810360c0860152855180825283870192509083019060005b8181101561553257835183529284019291840191600101615516565b50909c9b505050505050505050505050565b600080600080600080600060e0888a03121561555f57600080fd5b873561556a816150c9565b9650602088013561557a816150c9565b955060408801359450606088013593506155966080890161541e565b925060a0880135915060c0880135905092959891949750929550565b6000602082840312156155c457600080fd5b5051919050565b600181811c908216806155df57607f821691505b6020821081036146f657634e487b7160e01b600052602260045260246000fd5b60006020828403121561561157600080fd5b8151612a45816150c9565b60006080828403121561562e57600080fd5b82601f83011261563d57600080fd5b6040516080810181811067ffffffffffffffff8211171561566057615660615186565b60405280608084018581111561567557600080fd5b845b8181101561568f578051835260209283019201615677565b509195945050505050565b634e487b7160e01b600052601160045260246000fd5b80820180821115610cbf57610cbf61569a565b81810381811115610cbf57610cbf61569a565b600080604083850312156156e957600080fd5b505080516020909101519092909150565b6020808252602b908201527f496e697469616c697a61626c653a20636f6e7472616374206973206e6f74206960408201526a6e697469616c697a696e6760a81b606082015260800190565b601f821115610c1457600081815260208120601f850160051c8101602086101561576c5750805b601f850160051c820191505b81811015611e7857828155600101615778565b815167ffffffffffffffff8111156157a5576157a5615186565b6157b9816157b384546155cb565b84615745565b602080601f8311600181146157ee57600084156157d65750858301515b600019600386901b1c1916600185901b178555611e78565b600085815260208120601f198616915b8281101561581d578886015182559484019460019091019084016157fe565b508582101561583b5787850151600019600388901b60f8161c191681555b5050505050600190811b01905550565b634e487b7160e01b600052602160045260246000fd5b6000825161587381846020870161510a565b919091019291505056fe416464726573733a206c6f772d6c6576656c2064656c65676174652063616c6c206661696c6564a26469706673582212205521aaff9a4ac68f984a83335a6aaf2bd7a533bdc92af76625bbe6652fccba5b64736f6c63430008110033",
  "linkReferences": {},
  "deployedLinkReferences": {}
}