{
  "_format": "hh-sol-artifact-1",
  "contractName": "SmartToken",
  "sourceName": "contracts/vaults/SmartToken.sol",
  "abi": [
    {
      "inputs": [],
      "stateMutability": "nonpayable",
      "type": "constructor"
    },
    {
      "inputs": [],
      "name": "BaseContract__DepositCircuitBreaker",
      "type": "error"
    },
    {
      "inputs": [],
      "name": "BaseContract__RebalanceCircuitBreaker",
      "type": "error"
    },
    {
      "inputs": [],
      "name": "BaseContract__SanctionedAddress",
      "type": "error"
    },
    {
      "inputs": [],
      "name": "BaseContract__TransferCircuitBreaker",
      "type": "error"
    },
    {
      "inputs": [],
      "name": "BaseContract__WithdrawCircuitBreaker",
      "type": "error"
    },
    {
      "inputs": [],
      "name": "SmartToken__DepositMoreThanMax",
      "type": "error"
    },
    {
      "inputs": [],
      "name": "SmartToken__MethodNotAllowed",
      "type": "error"
    },
    {
      "inputs": [],
      "name": "SmartToken__MintMoreThanMax",
      "type": "error"
    },
    {
      "inputs": [],
      "name": "SmartToken__NotTokenFactory",
      "type": "error"
    },
    {
      "inputs": [],
      "name": "SmartToken__OnlyAssetOwner",
      "type": "error"
    },
    {
      "inputs": [],
      "name": "SmartToken__RedeemMoreThanMax",
      "type": "error"
    },
    {
      "inputs": [],
      "name": "SmartToken__WithdrawMoreThanMax",
      "type": "error"
    },
    {
      "inputs": [],
      "name": "SmartToken__ZeroDeposit",
      "type": "error"
    },
    {
      "anonymous": false,
      "inputs": [
        {
          "indexed": false,
          "internalType": "address",
          "name": "previousAdmin",
          "type": "address"
        },
        {
          "indexed": false,
          "internalType": "address",
          "name": "newAdmin",
          "type": "address"
        }
      ],
      "name": "AdminChanged",
      "type": "event"
    },
    {
      "anonymous": false,
      "inputs": [
        {
          "indexed": true,
          "internalType": "address",
          "name": "owner",
          "type": "address"
        },
        {
          "indexed": true,
          "internalType": "address",
          "name": "spender",
          "type": "address"
        },
        {
          "indexed": false,
          "internalType": "uint256",
          "name": "value",
          "type": "uint256"
        }
      ],
      "name": "Approval",
      "type": "event"
    },
    {
      "anonymous": false,
      "inputs": [
        {
          "indexed": true,
          "internalType": "address",
          "name": "beacon",
          "type": "address"
        }
      ],
      "name": "BeaconUpgraded",
      "type": "event"
    },
    {
      "anonymous": false,
      "inputs": [
        {
          "indexed": true,
          "internalType": "address",
          "name": "sender",
          "type": "address"
        },
        {
          "indexed": true,
          "internalType": "address",
          "name": "owner",
          "type": "address"
        },
        {
          "indexed": false,
          "internalType": "uint256",
          "name": "assets",
          "type": "uint256"
        },
        {
          "indexed": false,
          "internalType": "uint256",
          "name": "shares",
          "type": "uint256"
        }
      ],
      "name": "Deposit",
      "type": "event"
    },
    {
      "anonymous": false,
      "inputs": [],
      "name": "EIP712DomainChanged",
      "type": "event"
    },
    {
      "anonymous": false,
      "inputs": [
        {
          "indexed": false,
          "internalType": "uint8",
          "name": "version",
          "type": "uint8"
        }
      ],
      "name": "Initialized",
      "type": "event"
    },
    {
      "anonymous": false,
      "inputs": [
        {
          "indexed": true,
          "internalType": "address",
          "name": "previousOwner",
          "type": "address"
        },
        {
          "indexed": true,
          "internalType": "address",
          "name": "newOwner",
          "type": "address"
        }
      ],
      "name": "OwnershipTransferred",
      "type": "event"
    },
    {
      "anonymous": false,
      "inputs": [
        {
          "indexed": true,
          "internalType": "address",
          "name": "from",
          "type": "address"
        },
        {
          "indexed": true,
          "internalType": "address",
          "name": "to",
          "type": "address"
        },
        {
          "indexed": false,
          "internalType": "uint256",
          "name": "value",
          "type": "uint256"
        }
      ],
      "name": "Transfer",
      "type": "event"
    },
    {
      "anonymous": false,
      "inputs": [
        {
          "indexed": true,
          "internalType": "address",
          "name": "implementation",
          "type": "address"
        }
      ],
      "name": "Upgraded",
      "type": "event"
    },
    {
      "anonymous": false,
      "inputs": [
        {
          "indexed": true,
          "internalType": "address",
          "name": "sender",
          "type": "address"
        },
        {
          "indexed": true,
          "internalType": "address",
          "name": "receiver",
          "type": "address"
        },
        {
          "indexed": true,
          "internalType": "address",
          "name": "owner",
          "type": "address"
        },
        {
          "indexed": false,
          "internalType": "uint256",
          "name": "assets",
          "type": "uint256"
        },
        {
          "indexed": false,
          "internalType": "uint256",
          "name": "shares",
          "type": "uint256"
        }
      ],
      "name": "Withdraw",
      "type": "event"
    },
    {
      "inputs": [],
      "name": "DOMAIN_SEPARATOR",
      "outputs": [
        {
          "internalType": "bytes32",
          "name": "",
          "type": "bytes32"
        }
      ],
      "stateMutability": "view",
      "type": "function"
    },
    {
      "inputs": [
        {
          "internalType": "address",
          "name": "owner",
          "type": "address"
        },
        {
          "internalType": "address",
          "name": "spender",
          "type": "address"
        }
      ],
      "name": "allowance",
      "outputs": [
        {
          "internalType": "uint256",
          "name": "",
          "type": "uint256"
        }
      ],
      "stateMutability": "view",
      "type": "function"
    },
    {
      "inputs": [
        {
          "internalType": "address",
          "name": "spender",
          "type": "address"
        },
        {
          "internalType": "uint256",
          "name": "amount",
          "type": "uint256"
        }
      ],
      "name": "approve",
      "outputs": [
        {
          "internalType": "bool",
          "name": "",
          "type": "bool"
        }
      ],
      "stateMutability": "nonpayable",
      "type": "function"
    },
    {
      "inputs": [],
      "name": "asset",
      "outputs": [
        {
          "internalType": "address",
          "name": "",
          "type": "address"
        }
      ],
      "stateMutability": "view",
      "type": "function"
    },
    {
      "inputs": [
        {
          "internalType": "address",
          "name": "account",
          "type": "address"
        }
      ],
      "name": "balanceOf",
      "outputs": [
        {
          "internalType": "uint256",
          "name": "",
          "type": "uint256"
        }
      ],
      "stateMutability": "view",
      "type": "function"
    },
    {
      "inputs": [
        {
          "internalType": "address",
          "name": "account",
          "type": "address"
        },
        {
          "internalType": "uint256",
          "name": "amount",
          "type": "uint256"
        }
      ],
      "name": "burn",
      "outputs": [],
      "stateMutability": "nonpayable",
      "type": "function"
    },
    {
      "inputs": [
        {
          "internalType": "uint256",
          "name": "shares",
          "type": "uint256"
        }
      ],
      "name": "convertToAssets",
      "outputs": [
        {
          "internalType": "uint256",
          "name": "assets",
          "type": "uint256"
        }
      ],
      "stateMutability": "view",
      "type": "function"
    },
    {
      "inputs": [
        {
          "internalType": "uint256",
          "name": "assets",
          "type": "uint256"
        }
      ],
      "name": "convertToShares",
      "outputs": [
        {
          "internalType": "uint256",
          "name": "shares",
          "type": "uint256"
        }
      ],
      "stateMutability": "view",
      "type": "function"
    },
    {
      "inputs": [],
      "name": "decimals",
      "outputs": [
        {
          "internalType": "uint8",
          "name": "",
          "type": "uint8"
        }
      ],
      "stateMutability": "view",
      "type": "function"
    },
    {
      "inputs": [
        {
          "internalType": "address",
          "name": "spender",
          "type": "address"
        },
        {
          "internalType": "uint256",
          "name": "subtractedValue",
          "type": "uint256"
        }
      ],
      "name": "decreaseAllowance",
      "outputs": [
        {
          "internalType": "bool",
          "name": "",
          "type": "bool"
        }
      ],
      "stateMutability": "nonpayable",
      "type": "function"
    },
    {
      "inputs": [
        {
          "internalType": "uint256",
          "name": "assets",
          "type": "uint256"
        },
        {
          "internalType": "address",
          "name": "receiver",
          "type": "address"
        }
      ],
      "name": "deposit",
      "outputs": [
        {
          "internalType": "uint256",
          "name": "",
          "type": "uint256"
        }
      ],
      "stateMutability": "nonpayable",
      "type": "function"
    },
    {
      "inputs": [
        {
          "internalType": "uint256",
          "name": "assets",
          "type": "uint256"
        },
        {
          "internalType": "address",
          "name": "receiver",
          "type": "address"
        },
        {
          "internalType": "uint256",
          "name": "deadline",
          "type": "uint256"
        },
        {
          "internalType": "uint8",
          "name": "v",
          "type": "uint8"
        },
        {
          "internalType": "bytes32",
          "name": "r",
          "type": "bytes32"
        },
        {
          "internalType": "bytes32",
          "name": "s",
          "type": "bytes32"
        }
      ],
      "name": "depositWithPermit",
      "outputs": [
        {
          "internalType": "uint256",
          "name": "",
          "type": "uint256"
        }
      ],
      "stateMutability": "nonpayable",
      "type": "function"
    },
    {
      "inputs": [],
      "name": "eip712Domain",
      "outputs": [
        {
          "internalType": "bytes1",
          "name": "fields",
          "type": "bytes1"
        },
        {
          "internalType": "string",
          "name": "name",
          "type": "string"
        },
        {
          "internalType": "string",
          "name": "version",
          "type": "string"
        },
        {
          "internalType": "uint256",
          "name": "chainId",
          "type": "uint256"
        },
        {
          "internalType": "address",
          "name": "verifyingContract",
          "type": "address"
        },
        {
          "internalType": "bytes32",
          "name": "salt",
          "type": "bytes32"
        },
        {
          "internalType": "uint256[]",
          "name": "extensions",
          "type": "uint256[]"
        }
      ],
      "stateMutability": "view",
      "type": "function"
    },
    {
      "inputs": [],
      "name": "getTokenFactory",
      "outputs": [
        {
          "internalType": "address",
          "name": "",
          "type": "address"
        }
      ],
      "stateMutability": "view",
      "type": "function"
    },
    {
      "inputs": [
        {
          "internalType": "address",
          "name": "sender",
          "type": "address"
        },
        {
          "internalType": "address",
          "name": "receiver",
          "type": "address"
        }
      ],
      "name": "handlePendingRebalance",
      "outputs": [],
      "stateMutability": "nonpayable",
      "type": "function"
    },
    {
      "inputs": [
        {
          "internalType": "address",
          "name": "account",
          "type": "address"
        }
      ],
      "name": "hasPendingRebalance",
      "outputs": [
        {
          "internalType": "bool",
          "name": "",
          "type": "bool"
        }
      ],
      "stateMutability": "view",
      "type": "function"
    },
    {
      "inputs": [
        {
          "internalType": "address",
          "name": "spender",
          "type": "address"
        },
        {
          "internalType": "uint256",
          "name": "addedValue",
          "type": "uint256"
        }
      ],
      "name": "increaseAllowance",
      "outputs": [
        {
          "internalType": "bool",
          "name": "",
          "type": "bool"
        }
      ],
      "stateMutability": "nonpayable",
      "type": "function"
    },
    {
      "inputs": [
        {
          "internalType": "string",
          "name": "tokenName",
          "type": "string"
        },
        {
          "internalType": "string",
          "name": "tokenSymbol",
          "type": "string"
        },
        {
          "internalType": "address",
          "name": "factoryAddress",
          "type": "address"
        },
        {
          "internalType": "address",
          "name": "sanctionsContract_",
          "type": "address"
        },
        {
          "internalType": "bool",
          "name": "isX_",
          "type": "bool"
        }
      ],
      "name": "initialize",
      "outputs": [],
      "stateMutability": "nonpayable",
      "type": "function"
    },
    {
      "inputs": [],
      "name": "isDepositCircuitBreaker",
      "outputs": [
        {
          "internalType": "bool",
          "name": "",
          "type": "bool"
        }
      ],
      "stateMutability": "view",
      "type": "function"
    },
    {
      "inputs": [],
      "name": "isRebalanceCircuitBreaker",
      "outputs": [
        {
          "internalType": "bool",
          "name": "",
          "type": "bool"
        }
      ],
      "stateMutability": "view",
      "type": "function"
    },
    {
      "inputs": [],
      "name": "isTransferCircuitBreaker",
      "outputs": [
        {
          "internalType": "bool",
          "name": "",
          "type": "bool"
        }
      ],
      "stateMutability": "view",
      "type": "function"
    },
    {
      "inputs": [],
      "name": "isWithdrawCircuitBreaker",
      "outputs": [
        {
          "internalType": "bool",
          "name": "",
          "type": "bool"
        }
      ],
      "stateMutability": "view",
      "type": "function"
    },
    {
      "inputs": [
        {
          "internalType": "address",
          "name": "account",
          "type": "address"
        }
      ],
      "name": "maxDeposit",
      "outputs": [
        {
          "internalType": "uint256",
          "name": "",
          "type": "uint256"
        }
      ],
      "stateMutability": "view",
      "type": "function"
    },
    {
      "inputs": [
        {
          "internalType": "address",
          "name": "account",
          "type": "address"
        }
      ],
      "name": "maxMint",
      "outputs": [
        {
          "internalType": "uint256",
          "name": "",
          "type": "uint256"
        }
      ],
      "stateMutability": "view",
      "type": "function"
    },
    {
      "inputs": [
        {
          "internalType": "address",
          "name": "owner_",
          "type": "address"
        }
      ],
      "name": "maxRedeem",
      "outputs": [
        {
          "internalType": "uint256",
          "name": "",
          "type": "uint256"
        }
      ],
      "stateMutability": "view",
      "type": "function"
    },
    {
      "inputs": [
        {
          "internalType": "address",
          "name": "owner_",
          "type": "address"
        }
      ],
      "name": "maxWithdraw",
      "outputs": [
        {
          "internalType": "uint256",
          "name": "",
          "type": "uint256"
        }
      ],
      "stateMutability": "view",
      "type": "function"
    },
    {
      "inputs": [
        {
          "internalType": "uint256",
          "name": "shares",
          "type": "uint256"
        },
        {
          "internalType": "address",
          "name": "receiver",
          "type": "address"
        }
      ],
      "name": "mint",
      "outputs": [
        {
          "internalType": "uint256",
          "name": "",
          "type": "uint256"
        }
      ],
      "stateMutability": "nonpayable",
      "type": "function"
    },
    {
      "inputs": [
        {
          "internalType": "address",
          "name": "receiver",
          "type": "address"
        },
        {
          "internalType": "uint256",
          "name": "amount",
          "type": "uint256"
        }
      ],
      "name": "mintAsset",
      "outputs": [],
      "stateMutability": "nonpayable",
      "type": "function"
    },
    {
      "inputs": [],
      "name": "name",
      "outputs": [
        {
          "internalType": "string",
          "name": "",
          "type": "string"
        }
      ],
      "stateMutability": "view",
      "type": "function"
    },
    {
      "inputs": [
        {
          "internalType": "address",
          "name": "owner",
          "type": "address"
        }
      ],
      "name": "nonces",
      "outputs": [
        {
          "internalType": "uint256",
          "name": "",
          "type": "uint256"
        }
      ],
      "stateMutability": "view",
      "type": "function"
    },
    {
      "inputs": [],
      "name": "owner",
      "outputs": [
        {
          "internalType": "address",
          "name": "",
          "type": "address"
        }
      ],
      "stateMutability": "view",
      "type": "function"
    },
    {
      "inputs": [
        {
          "internalType": "address",
          "name": "owner",
          "type": "address"
        },
        {
          "internalType": "address",
          "name": "spender",
          "type": "address"
        },
        {
          "internalType": "uint256",
          "name": "value",
          "type": "uint256"
        },
        {
          "internalType": "uint256",
          "name": "deadline",
          "type": "uint256"
        },
        {
          "internalType": "uint8",
          "name": "v",
          "type": "uint8"
        },
        {
          "internalType": "bytes32",
          "name": "r",
          "type": "bytes32"
        },
        {
          "internalType": "bytes32",
          "name": "s",
          "type": "bytes32"
        }
      ],
      "name": "permit",
      "outputs": [],
      "stateMutability": "nonpayable",
      "type": "function"
    },
    {
      "inputs": [
        {
          "internalType": "uint256",
          "name": "assets",
          "type": "uint256"
        }
      ],
      "name": "previewDeposit",
      "outputs": [
        {
          "internalType": "uint256",
          "name": "",
          "type": "uint256"
        }
      ],
      "stateMutability": "view",
      "type": "function"
    },
    {
      "inputs": [
        {
          "internalType": "uint256",
          "name": "shares",
          "type": "uint256"
        }
      ],
      "name": "previewMint",
      "outputs": [
        {
          "internalType": "uint256",
          "name": "",
          "type": "uint256"
        }
      ],
      "stateMutability": "view",
      "type": "function"
    },
    {
      "inputs": [
        {
          "internalType": "uint256",
          "name": "shares",
          "type": "uint256"
        }
      ],
      "name": "previewRedeem",
      "outputs": [
        {
          "internalType": "uint256",
          "name": "",
          "type": "uint256"
        }
      ],
      "stateMutability": "view",
      "type": "function"
    },
    {
      "inputs": [
        {
          "internalType": "uint256",
          "name": "assets",
          "type": "uint256"
        }
      ],
      "name": "previewWithdraw",
      "outputs": [
        {
          "internalType": "uint256",
          "name": "",
          "type": "uint256"
        }
      ],
      "stateMutability": "view",
      "type": "function"
    },
    {
      "inputs": [],
      "name": "proxiableUUID",
      "outputs": [
        {
          "internalType": "bytes32",
          "name": "",
          "type": "bytes32"
        }
      ],
      "stateMutability": "view",
      "type": "function"
    },
    {
      "inputs": [
        {
          "internalType": "uint256",
          "name": "shares",
          "type": "uint256"
        },
        {
          "internalType": "address",
          "name": "receiver",
          "type": "address"
        },
        {
          "internalType": "address",
          "name": "owner_",
          "type": "address"
        }
      ],
      "name": "redeem",
      "outputs": [
        {
          "internalType": "uint256",
          "name": "",
          "type": "uint256"
        }
      ],
      "stateMutability": "nonpayable",
      "type": "function"
    },
    {
      "inputs": [],
      "name": "renounceOwnership",
      "outputs": [],
      "stateMutability": "nonpayable",
      "type": "function"
    },
    {
      "inputs": [],
      "name": "resumeAllCircuitBreakers",
      "outputs": [],
      "stateMutability": "nonpayable",
      "type": "function"
    },
    {
      "inputs": [
        {
          "internalType": "address",
          "name": "account",
          "type": "address"
        },
        {
          "internalType": "uint256",
          "name": "amount",
          "type": "uint256"
        }
      ],
      "name": "smartBalanceAdjust",
      "outputs": [],
      "stateMutability": "nonpayable",
      "type": "function"
    },
    {
      "inputs": [
        {
          "internalType": "address",
          "name": "treasuryAddress",
          "type": "address"
        },
        {
          "internalType": "uint256",
          "name": "amount",
          "type": "uint256"
        }
      ],
      "name": "smartTreasuryTransfer",
      "outputs": [],
      "stateMutability": "nonpayable",
      "type": "function"
    },
    {
      "inputs": [],
      "name": "stopAllCircuitBreakers",
      "outputs": [],
      "stateMutability": "nonpayable",
      "type": "function"
    },
    {
      "inputs": [],
      "name": "symbol",
      "outputs": [
        {
          "internalType": "string",
          "name": "",
          "type": "string"
        }
      ],
      "stateMutability": "view",
      "type": "function"
    },
    {
      "inputs": [],
      "name": "toggleDepositCircuitBreaker",
      "outputs": [],
      "stateMutability": "nonpayable",
      "type": "function"
    },
    {
      "inputs": [],
      "name": "toggleRebalanceCircuitBreaker",
      "outputs": [],
      "stateMutability": "nonpayable",
      "type": "function"
    },
    {
      "inputs": [],
      "name": "toggleTransferCircuitBreaker",
      "outputs": [],
      "stateMutability": "nonpayable",
      "type": "function"
    },
    {
      "inputs": [],
      "name": "toggleWithdrawCircuitBreaker",
      "outputs": [],
      "stateMutability": "nonpayable",
      "type": "function"
    },
    {
      "inputs": [],
      "name": "totalAssets",
      "outputs": [
        {
          "internalType": "uint256",
          "name": "",
          "type": "uint256"
        }
      ],
      "stateMutability": "view",
      "type": "function"
    },
    {
      "inputs": [],
      "name": "totalSupply",
      "outputs": [
        {
          "internalType": "uint256",
          "name": "",
          "type": "uint256"
        }
      ],
      "stateMutability": "view",
      "type": "function"
    },
    {
      "inputs": [
        {
          "internalType": "address",
          "name": "recipient",
          "type": "address"
        },
        {
          "internalType": "uint256",
          "name": "amount",
          "type": "uint256"
        }
      ],
      "name": "transfer",
      "outputs": [
        {
          "internalType": "bool",
          "name": "",
          "type": "bool"
        }
      ],
      "stateMutability": "nonpayable",
      "type": "function"
    },
    {
      "inputs": [
        {
          "internalType": "address",
          "name": "sender",
          "type": "address"
        },
        {
          "internalType": "address",
          "name": "recipient",
          "type": "address"
        },
        {
          "internalType": "uint256",
          "name": "amount",
          "type": "uint256"
        }
      ],
      "name": "transferFrom",
      "outputs": [
        {
          "internalType": "bool",
          "name": "",
          "type": "bool"
        }
      ],
      "stateMutability": "nonpayable",
      "type": "function"
    },
    {
      "inputs": [
        {
          "internalType": "address",
          "name": "newOwner",
          "type": "address"
        }
      ],
      "name": "transferOwnership",
      "outputs": [],
      "stateMutability": "nonpayable",
      "type": "function"
    },
    {
      "inputs": [
        {
          "internalType": "address",
          "name": "account",
          "type": "address"
        }
      ],
      "name": "unScaledbalanceOf",
      "outputs": [
        {
          "internalType": "uint256",
          "name": "",
          "type": "uint256"
        }
      ],
      "stateMutability": "view",
      "type": "function"
    },
    {
      "inputs": [
        {
          "internalType": "address",
          "name": "newImplementation",
          "type": "address"
        }
      ],
      "name": "upgradeTo",
      "outputs": [],
      "stateMutability": "nonpayable",
      "type": "function"
    },
    {
      "inputs": [
        {
          "internalType": "address",
          "name": "newImplementation",
          "type": "address"
        },
        {
          "internalType": "bytes",
          "name": "data",
          "type": "bytes"
        }
      ],
      "name": "upgradeToAndCall",
      "outputs": [],
      "stateMutability": "payable",
      "type": "function"
    },
    {
      "inputs": [
        {
          "internalType": "uint256",
          "name": "assets",
          "type": "uint256"
        },
        {
          "internalType": "address",
          "name": "receiver",
          "type": "address"
        },
        {
          "internalType": "address",
          "name": "owner_",
          "type": "address"
        }
      ],
      "name": "withdraw",
      "outputs": [
        {
          "internalType": "uint256",
          "name": "",
          "type": "uint256"
        }
      ],
      "stateMutability": "nonpayable",
      "type": "function"
    }
  ],
  "bytecode": "0x60a06040523073ffffffffffffffffffffffffffffffffffffffff1660809073ffffffffffffffffffffffffffffffffffffffff168152503480156200004457600080fd5b506200006167a9707600d282857f60c01b6200011360201b60201c565b6200007d6713132f591a46ef8460c01b6200011360201b60201c565b62000099670107cf7af524214660c01b6200011360201b60201c565b620000a96200011660201b60201c565b620000c5676764c5a335f2397e60c01b620001dc60201b60201c565b620000e167ea0e7bef2f72d1c460c01b620001dc60201b60201c565b620000fd6747aee85afc8fcb2e60c01b620001dc60201b60201c565b6200010d6200011660201b60201c565b620002c3565b50565b600060019054906101000a900460ff161562000169576040517f08c379a0000000000000000000000000000000000000000000000000000000008152600401620001609062000266565b60405180910390fd5b60ff801660008054906101000a900460ff1660ff1614620001da5760ff6000806101000a81548160ff021916908360ff1602179055507f7f26b83ff96e1f2b6a682f133852f6798a09c465da95921460cefb384740249860ff604051620001d19190620002a6565b60405180910390a15b565b50565b600082825260208201905092915050565b7f496e697469616c697a61626c653a20636f6e747261637420697320696e69746960008201527f616c697a696e6700000000000000000000000000000000000000000000000000602082015250565b60006200024e602783620001df565b91506200025b82620001f0565b604082019050919050565b6000602082019050818103600083015262000281816200023f565b9050919050565b600060ff82169050919050565b620002a08162000288565b82525050565b6000602082019050620002bd600083018462000295565b92915050565b6080516198af620002fb60003960008181611ce901528181611d7701528181612062015281816120f0015261253e01526198af6000f3fe6080604052600436106103765760003560e01c80637ecebe00116101d1578063b460af9411610102578063d78f0921116100a0578063ef8b30f71161006f578063ef8b30f714610d6f578063f077fd3c14610dac578063f2fde38b14610dd5578063fd6064b314610dfe57610376565b8063d78f092114610cc7578063d905777e14610cde578063dd62ed3e14610d1b578063e581273114610d5857610376565b8063c6e6f592116100dc578063c6e6f59214610c0d578063ce96cb7714610c4a578063d505accf14610c87578063d69f62e014610cb057610376565b8063b460af9414610b56578063ba08765214610b93578063c63d75b614610bd057610376565b806394bf804d1161016f578063a457c2d711610149578063a457c2d714610a74578063a9059cbb14610ab1578063b1dbfcee14610aee578063b3d7f6b914610b1957610376565b806394bf804d146109e357806395d89b4114610a205780639dc29fac14610a4b57610376565b80638da5cb5b116101ab5780638da5cb5b146109135780638f4cef0c1461093e5780638f50bd131461097b578063925d6ba2146109b857610376565b80637ecebe001461087a57806384b0196e146108b757806385f2eac0146108e857610376565b80633659cfe6116102ab57806352d1902d116102495780636e553f65116102235780636e553f65146107c057806370a08231146107fd578063715018a61461083a5780637dbaab621461085157610376565b806352d1902d146107555780635f758bef146107805780636a300529146107a957610376565b8063402d267d11610285578063402d267d146106825780634cdad506146106bf5780634f1ef286146106fc57806350921b231461071857610376565b80633659cfe6146105f157806338d52e0f1461061a578063395093511461064557610376565b806316b535f41161031857806327a44ed0116102f257806327a44ed0146105595780633092800914610584578063313ce5671461059b5780633644e515146105c657610376565b806316b535f4146104c857806318160ddd146104f157806323b872dd1461051c57610376565b806306fdde031161035457806306fdde03146103e657806307a2d13a14610411578063095ea7b31461044e5780630a28a4771461048b57610376565b806301e1d1141461037b578063030d4ed7146103a657806305bfee33146103bd575b600080fd5b34801561038757600080fd5b50610390610e29565b60405161039d9190617511565b60405180910390f35b3480156103b257600080fd5b506103bb610f2c565b005b3480156103c957600080fd5b506103e460048036038101906103df91906175ca565b611032565b005b3480156103f257600080fd5b506103fb6111c5565b604051610408919061769a565b60405180910390f35b34801561041d57600080fd5b50610438600480360381019061043391906176bc565b611257565b6040516104459190617511565b60405180910390f35b34801561045a57600080fd5b50610475600480360381019061047091906175ca565b61129d565b6040516104829190617704565b60405180910390f35b34801561049757600080fd5b506104b260048036038101906104ad91906176bc565b6112c0565b6040516104bf9190617511565b60405180910390f35b3480156104d457600080fd5b506104ef60048036038101906104ea91906175ca565b611306565b005b3480156104fd57600080fd5b5061050661149b565b6040516105139190617511565b60405180910390f35b34801561052857600080fd5b50610543600480360381019061053e919061771f565b6114a5565b6040516105509190617704565b60405180910390f35b34801561056557600080fd5b5061056e611bf5565b60405161057b9190617704565b60405180910390f35b34801561059057600080fd5b50610599611c49565b005b3480156105a757600080fd5b506105b0611ccf565b6040516105bd919061778e565b60405180910390f35b3480156105d257600080fd5b506105db611cd8565b6040516105e891906177c2565b60405180910390f35b3480156105fd57600080fd5b50610618600480360381019061061391906177dd565b611ce7565b005b34801561062657600080fd5b5061062f611e6f565b60405161063c9190617819565b60405180910390f35b34801561065157600080fd5b5061066c600480360381019061066791906175ca565b611ed6565b6040516106799190617704565b60405180910390f35b34801561068e57600080fd5b506106a960048036038101906106a491906177dd565b611f0d565b6040516106b69190617511565b60405180910390f35b3480156106cb57600080fd5b506106e660048036038101906106e191906176bc565b61201a565b6040516106f39190617511565b60405180910390f35b61071660048036038101906107119190617969565b612060565b005b34801561072457600080fd5b5061073f600480360381019061073a9190617a1d565b61219c565b60405161074c9190617511565b60405180910390f35b34801561076157600080fd5b5061076a61253a565b60405161077791906177c2565b60405180910390f35b34801561078c57600080fd5b506107a760048036038101906107a291906175ca565b6125f3565b005b3480156107b557600080fd5b506107be6126bd565b005b3480156107cc57600080fd5b506107e760048036038101906107e29190617aaa565b612743565b6040516107f49190617511565b60405180910390f35b34801561080957600080fd5b50610824600480360381019061081f91906177dd565b6129f1565b6040516108319190617511565b60405180910390f35b34801561084657600080fd5b5061084f612c33565b005b34801561085d57600080fd5b5061087860048036038101906108739190617bb7565b612c47565b005b34801561088657600080fd5b506108a1600480360381019061089c91906177dd565b61301e565b6040516108ae9190617511565b60405180910390f35b3480156108c357600080fd5b506108cc61306f565b6040516108df9796959493929190617d63565b60405180910390f35b3480156108f457600080fd5b506108fd613170565b60405161090a9190617704565b60405180910390f35b34801561091f57600080fd5b506109286131c4565b6040516109359190617819565b60405180910390f35b34801561094a57600080fd5b50610965600480360381019061096091906177dd565b6131ee565b6040516109729190617511565b60405180910390f35b34801561098757600080fd5b506109a2600480360381019061099d91906177dd565b61323c565b6040516109af9190617704565b60405180910390f35b3480156109c457600080fd5b506109cd6133b2565b6040516109da9190617819565b60405180910390f35b3480156109ef57600080fd5b50610a0a6004803603810190610a059190617aaa565b613419565b604051610a179190617511565b60405180910390f35b348015610a2c57600080fd5b50610a356136d3565b604051610a42919061769a565b60405180910390f35b348015610a5757600080fd5b50610a726004803603810190610a6d91906175ca565b613765565b005b348015610a8057600080fd5b50610a9b6004803603810190610a9691906175ca565b61382f565b604051610aa89190617704565b60405180910390f35b348015610abd57600080fd5b50610ad86004803603810190610ad391906175ca565b6138a6565b604051610ae59190617704565b60405180910390f35b348015610afa57600080fd5b50610b03614010565b604051610b109190617704565b60405180910390f35b348015610b2557600080fd5b50610b406004803603810190610b3b91906176bc565b614064565b604051610b4d9190617511565b60405180910390f35b348015610b6257600080fd5b50610b7d6004803603810190610b789190617de7565b6140aa565b604051610b8a9190617511565b60405180910390f35b348015610b9f57600080fd5b50610bba6004803603810190610bb59190617de7565b61468a565b604051610bc79190617511565b60405180910390f35b348015610bdc57600080fd5b50610bf76004803603810190610bf291906177dd565b614c56565b604051610c049190617511565b60405180910390f35b348015610c1957600080fd5b50610c346004803603810190610c2f91906176bc565b614d63565b604051610c419190617511565b60405180910390f35b348015610c5657600080fd5b50610c716004803603810190610c6c91906177dd565b614da9565b604051610c7e9190617511565b60405180910390f35b348015610c9357600080fd5b50610cae6004803603810190610ca99190617e3a565b614e8b565b005b348015610cbc57600080fd5b50610cc5614fcd565b005b348015610cd357600080fd5b50610cdc6150d3565b005b348015610cea57600080fd5b50610d056004803603810190610d0091906177dd565b615159565b604051610d129190617511565b60405180910390f35b348015610d2757600080fd5b50610d426004803603810190610d3d9190617edc565b61523b565b604051610d4f9190617511565b60405180910390f35b348015610d6457600080fd5b50610d6d6152c2565b005b348015610d7b57600080fd5b50610d966004803603810190610d9191906176bc565b615348565b604051610da39190617511565b60405180910390f35b348015610db857600080fd5b50610dd36004803603810190610dce9190617edc565b61538e565b005b348015610de157600080fd5b50610dfc6004803603810190610df791906177dd565b61568f565b005b348015610e0a57600080fd5b50610e13615712565b604051610e209190617704565b60405180910390f35b6000610e3f67391b3ca7af180b4d60c01b615766565b610e536765350ad0e0be8e7d60c01b615766565b610e67671129ffa0abf0f04a60c01b615766565b61019660009054906101000a900473ffffffffffffffffffffffffffffffffffffffff1673ffffffffffffffffffffffffffffffffffffffff166370a0823161019560009054906101000a900473ffffffffffffffffffffffffffffffffffffffff166040518263ffffffff1660e01b8152600401610ee69190617819565b602060405180830381865afa158015610f03573d6000803e3d6000fd5b505050506040513d601f19601f82011682018060405250810190610f279190617f31565b905090565b610f4067becef92e43785b4a60c01b615769565b610f4861576c565b610f5c675c61f6c5068f537260c01b615769565b610f7067b096d224e1c9de5160c01b615769565b610f846722c02165a5e8ded660c01b615769565b600061016260146101000a81548160ff021916908315150217905550610fb467efc1ffe8bcc9842a60c01b615769565b600061016260156101000a81548160ff021916908315150217905550610fe4675429d7d50d5a68fc60c01b615769565b600061016260166101000a81548160ff021916908315150217905550611014676f8693d01162c2b960c01b615769565b600061016260176101000a81548160ff021916908315150217905550565b6110466716d6dc9eebe9775760c01b615766565b61105a67a712a4cddc73b23060c01b615766565b61106e67fb3c73e1a5b1be2860c01b615766565b61108267280e812bf8cac32360c01b615766565b61108a6157ea565b61109e67bf15a322e3bf4c1060c01b615766565b6110b2678731f9414e5eb65060c01b615766565b6110c667ec93ca49ae9f5dca60c01b615766565b6110da675f26af14aac79de660c01b615766565b6110ee67e81cfc6f64e3155460c01b615766565b61019560009054906101000a900473ffffffffffffffffffffffffffffffffffffffff1673ffffffffffffffffffffffffffffffffffffffff1663d1273d9e61019660149054906101000a900460ff16836040518363ffffffff1660e01b815260040161115c929190617f5e565b600060405180830381600087803b15801561117657600080fd5b505af115801561118a573d6000803e3d6000fd5b505050506111a26777f5db6a092fdbb560c01b615766565b6111b667f7da8034263b850c60c01b615766565b6111c082826158f3565b505050565b606060cc80546111d490617fb6565b80601f016020809104026020016040519081016040528092919081815260200182805461120090617fb6565b801561124d5780601f106112225761010080835404028352916020019161124d565b820191906000526020600020905b81548152906001019060200180831161123057829003601f168201915b5050505050905090565b600061126d674c7fcc1c33675ae360c01b615766565b61128167d03fae6fa2aae1f160c01b615766565b6112956729e3cb9486c6c72060c01b615766565b819050919050565b6000806112a8615909565b90506112b5818585615911565b600191505092915050565b60006112d66759e1b9e01b596bd960c01b615766565b6112ea6703bbaedca6b78a4260c01b615766565b6112fe67a430bc983f080b0d60c01b615766565b819050919050565b61131a67fa8dfd1c4f148bee60c01b615766565b61132e67a712a4cddc73b23060c01b615766565b61134267fb3c73e1a5b1be2860c01b615766565b61135667280e812bf8cac32360c01b615766565b61135e6157ea565b61137267bf15a322e3bf4c1060c01b615766565b611386674d8909e3c653967760c01b615766565b61139a672d0922a54d6f423860c01b615766565b6113ae670f1b185ee5341d4160c01b615766565b6113c2678bd215575de9bb2960c01b615766565b61019560009054906101000a900473ffffffffffffffffffffffffffffffffffffffff1673ffffffffffffffffffffffffffffffffffffffff1663acde9b2a61019660149054906101000a900460ff1684846040518463ffffffff1660e01b815260040161143293929190617fe7565b600060405180830381600087803b15801561144c57600080fd5b505af1158015611460573d6000803e3d6000fd5b505050506114786743e18483554931c560c01b615766565b61148c67ffd1b3d3ead0bb7160c01b615766565b6114968282615ada565b505050565b600060cb54905090565b60006114bb677b8ef016dfb7117e60c01b615766565b6114cf67326f93e25313171d60c01b615769565b6114e36714ec8f118f917b9060c01b615769565b6114f7671059378bc748e33460c01b615769565b61016260169054906101000a900460ff16156115675761152167d3d0d27d3350904a60c01b615769565b611535670e885bbe1cc1f1ab60c01b615769565b6040517f64c7350800000000000000000000000000000000000000000000000000000000815260040160405180910390fd5b61157b67de162df5349ee28260c01b615769565b61158f677d0f2c103e2fd7cd60c01b615769565b6115a3672a4d65dd17ca935460c01b615766565b6115b767f01068f830ed6f6960c01b615766565b826115cc67d14ecfb8bad8f38560c01b615769565b6115df665bcf17d7c2947860c01b615769565b6115f367ab46b9cd112cfd8260c01b615769565b600061016260009054906101000a900473ffffffffffffffffffffffffffffffffffffffff16905061162f67718b5152b256aaad60c01b615769565b61164367fe8fc69440d494d360c01b615769565b60008173ffffffffffffffffffffffffffffffffffffffff1663df592f7d846040518263ffffffff1660e01b815260040161167e9190617819565b602060405180830381865afa15801561169b573d6000803e3d6000fd5b505050506040513d601f19601f820116820180604052508101906116bf9190618033565b90506116d56729e4d39f8323a83e60c01b615769565b6116e967bbe3c70dec38d18e60c01b615769565b8015611735576117036737bce2cd8871544060c01b615769565b6040517f4229fac400000000000000000000000000000000000000000000000000000000815260040160405180910390fd5b6117496736207e54287dd2af60c01b615769565b61175d6748a2f874b829664960c01b615769565b6117716703816c724c8f4f2e60c01b615766565b61178567b1a9dcf5e13f5f3160c01b615766565b8661179a67d14ecfb8bad8f38560c01b615769565b6117ad665bcf17d7c2947860c01b615769565b6117c167ab46b9cd112cfd8260c01b615769565b600061016260009054906101000a900473ffffffffffffffffffffffffffffffffffffffff1690506117fd67718b5152b256aaad60c01b615769565b61181167fe8fc69440d494d360c01b615769565b60008173ffffffffffffffffffffffffffffffffffffffff1663df592f7d846040518263ffffffff1660e01b815260040161184c9190617819565b602060405180830381865afa158015611869573d6000803e3d6000fd5b505050506040513d601f19601f8201168201806040525081019061188d9190618033565b90506118a36729e4d39f8323a83e60c01b615769565b6118b767bbe3c70dec38d18e60c01b615769565b8015611903576118d16737bce2cd8871544060c01b615769565b6040517f4229fac400000000000000000000000000000000000000000000000000000000815260040160405180910390fd5b6119176736207e54287dd2af60c01b615769565b61192b6748a2f874b829664960c01b615769565b61193f675874f1b0a7fa235f60c01b615766565b611953671aad0ed69674605160c01b615766565b61196767c2dc3c000d73ad1b60c01b615766565b61197b6775027eb4fae6966a60c01b615766565b6119858a8a61538e565b611999676c33726194c0119660c01b615766565b6119ad677d8a557cdb0c40ce60c01b615766565b600061019560009054906101000a900473ffffffffffffffffffffffffffffffffffffffff1673ffffffffffffffffffffffffffffffffffffffff1663d493e78c8c8c6040518363ffffffff1660e01b8152600401611a0d929190618060565b608060405180830381865afa158015611a2a573d6000803e3d6000fd5b505050506040513d601f19601f82011682018060405250810190611a4e919061813f565b9050611a64671acc28e3048521ae60c01b615766565b611a7867aac783a5abc0e85f60c01b615766565b6000611a858c8c8c615af0565b9050611a9b670e4e2778c083674860c01b615766565b611aaf67056b31c5314bdb5060c01b615766565b61019560009054906101000a900473ffffffffffffffffffffffffffffffffffffffff1673ffffffffffffffffffffffffffffffffffffffff1663eec0d6568d8d61019660149054906101000a900460ff168e87600060048110611b1657611b1561816c565b5b602002015188600160048110611b2f57611b2e61816c565b5b602002015189600260048110611b4857611b4761816c565b5b60200201518a600360048110611b6157611b6061816c565b5b60200201516040518963ffffffff1660e01b8152600401611b8998979695949392919061819b565b600060405180830381600087803b158015611ba357600080fd5b505af1158015611bb7573d6000803e3d6000fd5b50505050611bcf67b1f04c5d254cd0ca60c01b615766565b611be3679cd18ec45fe9d09160c01b615766565b80985050505050505050509392505050565b6000611c0b671e0a134bb051544660c01b615769565b611c1f67356e84623463b02460c01b615769565b611c336756c255cdc170bfd460c01b615769565b61016260179054906101000a900460ff16905090565b611c5d67ec45f77e90232dd960c01b615769565b611c6561576c565b611c7967f210a483a800d61a60c01b615769565b611c8d67b035356142614dc360c01b615769565b611ca167bcb94418cc9e043e60c01b615769565b61016260179054906101000a900460ff161561016260176101000a81548160ff021916908315150217905550565b60006012905090565b6000611ce2615b1f565b905090565b7f000000000000000000000000000000000000000000000000000000000000000073ffffffffffffffffffffffffffffffffffffffff163073ffffffffffffffffffffffffffffffffffffffff1603611d75576040517f08c379a0000000000000000000000000000000000000000000000000000000008152600401611d6c9061828b565b60405180910390fd5b7f000000000000000000000000000000000000000000000000000000000000000073ffffffffffffffffffffffffffffffffffffffff16611db4615b2e565b73ffffffffffffffffffffffffffffffffffffffff1614611e0a576040517f08c379a0000000000000000000000000000000000000000000000000000000008152600401611e019061831d565b60405180910390fd5b611e1381615b85565b611e6c81600067ffffffffffffffff811115611e3257611e3161783e565b5b6040519080825280601f01601f191660200182016040528015611e645781602001600182028036833780820191505090505b506000615bcc565b50565b6000611e856749a0406bbfb859a760c01b615766565b611e9967d07f6bcb9d9cb43460c01b615766565b611ead674752c80c62cd954c60c01b615766565b61019660009054906101000a900473ffffffffffffffffffffffffffffffffffffffff16905090565b600080611ee1615909565b9050611f02818585611ef3858961523b565b611efd919061836c565b615911565b600191505092915050565b6000611f2367baf5ee241474952960c01b615766565b611f37672c7b1e6c7bcfe88a60c01b615766565b611f4b67dd1264a6ad3f4d1060c01b615766565b61019560009054906101000a900473ffffffffffffffffffffffffffffffffffffffff1673ffffffffffffffffffffffffffffffffffffffff1663728bf733836040518263ffffffff1660e01b8152600401611fa79190617819565b602060405180830381865afa158015611fc4573d6000803e3d6000fd5b505050506040513d601f19601f82011682018060405250810190611fe89190617f31565b7fffffffffffffffffffffffffffffffffffffffffffffffffffffffffffffffff61201391906183a0565b9050919050565b600061203067d5c70efc7e4a1d2760c01b615766565b61204467610437e62c9a6e6a60c01b615766565b61205867d02986771bea074260c01b615766565b819050919050565b7f000000000000000000000000000000000000000000000000000000000000000073ffffffffffffffffffffffffffffffffffffffff163073ffffffffffffffffffffffffffffffffffffffff16036120ee576040517f08c379a00000000000000000000000000000000000000000000000000000000081526004016120e59061828b565b60405180910390fd5b7f000000000000000000000000000000000000000000000000000000000000000073ffffffffffffffffffffffffffffffffffffffff1661212d615b2e565b73ffffffffffffffffffffffffffffffffffffffff1614612183576040517f08c379a000000000000000000000000000000000000000000000000000000000815260040161217a9061831d565b60405180910390fd5b61218c82615b85565b61219882826001615bcc565b5050565b60006121b2672ba120bd260eabb960c01b615766565b6121c6676bfa925fe211d7ff60c01b615769565b6121da67f111c4d93d724ae160c01b615769565b6121ee67d02bfa458c63b34260c01b615769565b61016260149054906101000a900460ff161561224a57612218677beb262ec93b6fac60c01b615769565b6040517fd045d9d600000000000000000000000000000000000000000000000000000000815260040160405180910390fd5b61225e671b1d1e1dadae971b60c01b615769565b61227267fd390b6c032a100560c01b615769565b612286673a373574d69649ca60c01b615766565b61229a678b795d914addf06960c01b615766565b86866122b067a52c674a2e506de660c01b615766565b6122c46734a43e35c4b62cca60c01b615766565b6122d8675fb9c788d5e6d8f160c01b615766565b6122e28282615d3a565b6122f66723e1aa1ae7fa367f60c01b615766565b61230a67e4713c49db7ca51b60c01b615766565b61231e67bf7227baf7c95ab160c01b615766565b612332673c8dadcdedef316960c01b615766565b612346675dde5641760480d760c01b615766565b60006123518a615348565b9050612367674e960d3ec0c2905a60c01b615766565b61237b6792d94968557cd90c60c01b615766565b61019660009054906101000a900473ffffffffffffffffffffffffffffffffffffffff1673ffffffffffffffffffffffffffffffffffffffff1663d505accf6123c2615909565b61019560009054906101000a900473ffffffffffffffffffffffffffffffffffffffff16848c8c8c8c6040518863ffffffff1660e01b815260040161240d97969594939291906183d4565b600060405180830381600087803b15801561242757600080fd5b505af115801561243b573d6000803e3d6000fd5b5050505061245367cd36408de58072e760c01b615766565b61246767cd76866b92958dae60c01b615766565b61019560009054906101000a900473ffffffffffffffffffffffffffffffffffffffff1673ffffffffffffffffffffffffffffffffffffffff1663c14cfe096124ae615909565b8b8d856040518563ffffffff1660e01b81526004016124d09493929190618443565b600060405180830381600087803b1580156124ea57600080fd5b505af11580156124fe573d6000803e3d6000fd5b50505050612516671129b564efe8245360c01b615766565b61252a67680975894d8e583160c01b615766565b8093505050509695505050505050565b60007f000000000000000000000000000000000000000000000000000000000000000073ffffffffffffffffffffffffffffffffffffffff163073ffffffffffffffffffffffffffffffffffffffff16146125ca576040517f08c379a00000000000000000000000000000000000000000000000000000000081526004016125c1906184fa565b60405180910390fd5b7f360894a13ba1a3210667c828492db98dca3e2076cc3735a920a3ca505d382bbc60001b905090565b61260767e20167672a0bf8d560c01b615766565b61261b67a712a4cddc73b23060c01b615766565b61262f67fb3c73e1a5b1be2860c01b615766565b61264367280e812bf8cac32360c01b615766565b61264b6157ea565b61265f67bf15a322e3bf4c1060c01b615766565b612673675193c549d75e238d60c01b615766565b612687674c4dea094e0a475c60c01b615766565b61269b67a9b1be1b0afef2f260c01b615766565b6126af67556e679ac42166a960c01b615766565b6126b98282615e82565b5050565b6126d1670eaa8f8956d752cd60c01b615769565b6126d961576c565b6126ed673e4d2da0ea3742cf60c01b615769565b61270167b4b568ef6e1e4e7b60c01b615769565b612715679db0d9afa7bb251b60c01b615769565b61016260169054906101000a900460ff161561016260166101000a81548160ff021916908315150217905550565b60006127596730ba2ed420d06f7260c01b615766565b61276d676bfa925fe211d7ff60c01b615769565b61278167f111c4d93d724ae160c01b615769565b61279567d02bfa458c63b34260c01b615769565b61016260149054906101000a900460ff16156127f1576127bf677beb262ec93b6fac60c01b615769565b6040517fd045d9d600000000000000000000000000000000000000000000000000000000815260040160405180910390fd5b612805671b1d1e1dadae971b60c01b615769565b61281967fd390b6c032a100560c01b615769565b61282d67eebab5822dd9145d60c01b615766565b612841671191c8160dc3c4f860c01b615766565b828261285767a52c674a2e506de660c01b615766565b61286b6734a43e35c4b62cca60c01b615766565b61287f675fb9c788d5e6d8f160c01b615766565b6128898282615d3a565b61289d6723e1aa1ae7fa367f60c01b615766565b6128b16731567cd5a6ac0cce60c01b615766565b6128c5677ebf2af3bcbb25a460c01b615766565b6128d967e167aafc0c74bd8260c01b615766565b6128ed67521ffc3d379d3fcf60c01b615766565b60006128f886615348565b905061290e674c919b5cf0300ba260c01b615766565b6129226772d99d842c4dded460c01b615766565b61019560009054906101000a900473ffffffffffffffffffffffffffffffffffffffff1673ffffffffffffffffffffffffffffffffffffffff1663c14cfe09612969615909565b8789856040518563ffffffff1660e01b815260040161298b9493929190618443565b600060405180830381600087803b1580156129a557600080fd5b505af11580156129b9573d6000803e3d6000fd5b505050506129d1674490af0870e39a3260c01b615766565b6129e5671a33764817ba164860c01b615766565b80935050505092915050565b6000612a0767ae33b8129600203a60c01b615766565b612a1b6701068f99a191dbff60c01b615766565b612a2f6754a27514c8a8f5c060c01b615766565b612a388261323c565b15612be657612a5167fcc786c2feed7fda60c01b615766565b612a65675fe79e59b3fc076c60c01b615766565b612a796745f476475c8aef1560c01b615766565b60008061019560009054906101000a900473ffffffffffffffffffffffffffffffffffffffff1673ffffffffffffffffffffffffffffffffffffffff1663a4d96e17856040518263ffffffff1660e01b8152600401612ad89190617819565b6040805180830381865afa158015612af4573d6000803e3d6000fd5b505050506040513d601f19601f82011682018060405250810190612b18919061851a565b91509150612b3067b6d84f9badf2993660c01b615766565b612b4467e7123da7c3fa296660c01b615766565b61019660149054906101000a900460ff1615612ba057612b6e674e76010d9ecca2db60c01b615766565b612b8267e7b7a98ed28887c060c01b615766565b612b96677cd3b06b0ae88ed160c01b615766565b8192505050612c2e565b612bb467c9847499294322a360c01b615766565b612bc867e34ddb6e31f512c860c01b615766565b612bdc6768fecbbd48f2f9ac60c01b615766565b8092505050612c2e565b612bfa67bb75b4ebc827c8a360c01b615766565b612c0e675862488a1cba7be460c01b615766565b612c226750ad4cc2126ef17260c01b615766565b612c2b826131ee565b90505b919050565b612c3b61576c565b612c456000615fd9565b565b612c5b67921df32bb12d309d60c01b615766565b60008060019054906101000a900460ff16159050808015612c8c5750600160008054906101000a900460ff1660ff16105b80612cb95750612c9b3061609f565b158015612cb85750600160008054906101000a900460ff1660ff16145b5b612cf8576040517f08c379a0000000000000000000000000000000000000000000000000000000008152600401612cef906185cc565b60405180910390fd5b60016000806101000a81548160ff021916908360ff1602179055508015612d35576001600060016101000a81548160ff0219169083151502179055505b612d49676e09c6ed3b79f9e260c01b615766565b612d5d679cb91c4cd923b7dd60c01b615766565b612d71670308d3845b3be3e160c01b615766565b612d8567f60fea58ea76dbcb60c01b615766565b612d8f86866160c2565b612da3674e12343aa5e1411b60c01b615766565b612db7675e72f47f588eace960c01b615766565b612dc08661611f565b612dd4671b35b99311c2a55860c01b615766565b612de867ca4837703551be7f60c01b615766565b612df1836161b0565b612e05679de3b9eb0899566a60c01b615766565b612e19673ebc47d4499e430a60c01b615766565b612e21616294565b612e35671ff00b3fabcb1e6160c01b615766565b612e4967b3ad4dbced68e59960c01b615766565b612e516162ed565b612e656713f333daa47bd08b60c01b615766565b8361019560006101000a81548173ffffffffffffffffffffffffffffffffffffffff021916908373ffffffffffffffffffffffffffffffffffffffff160217905550612ebb67050d876e38869a6a60c01b615766565b61019560009054906101000a900473ffffffffffffffffffffffffffffffffffffffff1673ffffffffffffffffffffffffffffffffffffffff166398acd7a66040518163ffffffff1660e01b8152600401602060405180830381865afa158015612f29573d6000803e3d6000fd5b505050506040513d601f19601f82011682018060405250810190612f4d919061862a565b61019660006101000a81548173ffffffffffffffffffffffffffffffffffffffff021916908373ffffffffffffffffffffffffffffffffffffffff160217905550612fa2672bb085e63b96b48760c01b615766565b8161019660146101000a81548160ff02191690831515021790555080156130165760008060016101000a81548160ff0219169083151502179055507f7f26b83ff96e1f2b6a682f133852f6798a09c465da95921460cefb3847402498600160405161300d919061869c565b60405180910390a15b505050505050565b600061306861012f60008473ffffffffffffffffffffffffffffffffffffffff1673ffffffffffffffffffffffffffffffffffffffff16815260200190815260200160002061633e565b9050919050565b6000606080600080600060606000801b60fb5414801561309357506000801b60fc54145b6130d2576040517f08c379a00000000000000000000000000000000000000000000000000000000081526004016130c990618703565b60405180910390fd5b6130da61634c565b6130e26163de565b46306000801b600067ffffffffffffffff8111156131035761310261783e565b5b6040519080825280602002602001820160405280156131315781602001602082028036833780820191505090505b507f0f00000000000000000000000000000000000000000000000000000000000000959493929190965096509650965096509650965090919293949596565b60006131866759c256d1410dcf1e60c01b615769565b61319a67d9508b2760f8fdd360c01b615769565b6131ae676b296f95e6d3c61860c01b615769565b61016260169054906101000a900460ff16905090565b6000609760009054906101000a900473ffffffffffffffffffffffffffffffffffffffff16905090565b60006132046713fd3e8cd5cfcec860c01b615766565b61321867b4113f2639d04fcf60c01b615766565b61322c67a4cee6c8b0f7610c60c01b615766565b61323582616470565b9050919050565b6000613252679917e353fe74e06c60c01b615766565b613266679dd6792f55e6357f60c01b615766565b61327a67de56c2628998a6ab60c01b615766565b61019560009054906101000a900473ffffffffffffffffffffffffffffffffffffffff1673ffffffffffffffffffffffffffffffffffffffff1663ddca8bfa6040518163ffffffff1660e01b8152600401602060405180830381865afa1580156132e8573d6000803e3d6000fd5b505050506040513d601f19601f8201168201806040525081019061330c9190617f31565b61019560009054906101000a900473ffffffffffffffffffffffffffffffffffffffff1673ffffffffffffffffffffffffffffffffffffffff166396b51eac846040518263ffffffff1660e01b81526004016133689190617819565b602060405180830381865afa158015613385573d6000803e3d6000fd5b505050506040513d601f19601f820116820180604052508101906133a99190617f31565b14159050919050565b60006133c867921c641337d2f6c660c01b615766565b6133dc6798e87d6704cbba4160c01b615766565b6133f067b8e2893e4241f47560c01b615766565b61019560009054906101000a900473ffffffffffffffffffffffffffffffffffffffff16905090565b600061342f67cdd064337e79015460c01b615766565b613443676bfa925fe211d7ff60c01b615769565b61345767f111c4d93d724ae160c01b615769565b61346b67d02bfa458c63b34260c01b615769565b61016260149054906101000a900460ff16156134c757613495677beb262ec93b6fac60c01b615769565b6040517fd045d9d600000000000000000000000000000000000000000000000000000000815260040160405180910390fd5b6134db671b1d1e1dadae971b60c01b615769565b6134ef67fd390b6c032a100560c01b615769565b613503672e49477dc3fa815360c01b615766565b6135176789e53843b7179cd860c01b615766565b61352b67623b5c4e177391d160c01b615766565b61353f67318a1f29b60bf9d160c01b615766565b61354882614c56565b8311156135955761356367bfa15b6abf95eb6b60c01b615766565b6040517f292b120100000000000000000000000000000000000000000000000000000000815260040160405180910390fd5b6135a96742d96b0b0db77fbb60c01b615766565b6135bd678728cc7085d1b22160c01b615766565b6135d16742242f3b7aa5158460c01b615766565b60006135dc84614064565b90506135f267643253407a5af17260c01b615766565b613606679aa6df513f3387a260c01b615766565b61019560009054906101000a900473ffffffffffffffffffffffffffffffffffffffff1673ffffffffffffffffffffffffffffffffffffffff1663c14cfe0961364d615909565b8584886040518563ffffffff1660e01b815260040161366f9493929190618443565b600060405180830381600087803b15801561368957600080fd5b505af115801561369d573d6000803e3d6000fd5b505050506136b5671cc41705d701d7ae60c01b615766565b6136c96751f863af3282052160c01b615766565b8091505092915050565b606060cd80546136e290617fb6565b80601f016020809104026020016040519081016040528092919081815260200182805461370e90617fb6565b801561375b5780601f106137305761010080835404028352916020019161375b565b820191906000526020600020905b81548152906001019060200180831161373e57829003601f168201915b5050505050905090565b61377967030532591d6f966860c01b615766565b61378d67a712a4cddc73b23060c01b615766565b6137a167fb3c73e1a5b1be2860c01b615766565b6137b567280e812bf8cac32360c01b615766565b6137bd6157ea565b6137d167bf15a322e3bf4c1060c01b615766565b6137e567f0624864f06088ce60c01b615766565b6137f967d2cf58507eb210a460c01b615766565b61380d67249100b6f507990c60c01b615766565b613821671df2bd2336b63cf160c01b615766565b61382b82826164b9565b5050565b60008061383a615909565b90506000613848828661523b565b90508381101561388d576040517f08c379a000000000000000000000000000000000000000000000000000000000815260040161388490618795565b60405180910390fd5b61389a8286868403615911565b60019250505092915050565b60006138bc67dccf832e15da222360c01b615766565b6138d067326f93e25313171d60c01b615769565b6138e46714ec8f118f917b9060c01b615769565b6138f8671059378bc748e33460c01b615769565b61016260169054906101000a900460ff16156139685761392267d3d0d27d3350904a60c01b615769565b613936670e885bbe1cc1f1ab60c01b615769565b6040517f64c7350800000000000000000000000000000000000000000000000000000000815260040160405180910390fd5b61397c67de162df5349ee28260c01b615769565b613990677d0f2c103e2fd7cd60c01b615769565b6139a467173292b784e5192860c01b615766565b6139b867a93a5f6844c3c30060c01b615766565b826139cd67d14ecfb8bad8f38560c01b615769565b6139e0665bcf17d7c2947860c01b615769565b6139f467ab46b9cd112cfd8260c01b615769565b600061016260009054906101000a900473ffffffffffffffffffffffffffffffffffffffff169050613a3067718b5152b256aaad60c01b615769565b613a4467fe8fc69440d494d360c01b615769565b60008173ffffffffffffffffffffffffffffffffffffffff1663df592f7d846040518263ffffffff1660e01b8152600401613a7f9190617819565b602060405180830381865afa158015613a9c573d6000803e3d6000fd5b505050506040513d601f19601f82011682018060405250810190613ac09190618033565b9050613ad66729e4d39f8323a83e60c01b615769565b613aea67bbe3c70dec38d18e60c01b615769565b8015613b3657613b046737bce2cd8871544060c01b615769565b6040517f4229fac400000000000000000000000000000000000000000000000000000000815260040160405180910390fd5b613b4a6736207e54287dd2af60c01b615769565b613b5e6748a2f874b829664960c01b615769565b613b72673c27f0241910a77160c01b615766565b613b8667358e984aa2e88b4f60c01b615766565b613b8e615909565b613ba267d14ecfb8bad8f38560c01b615769565b613bb5665bcf17d7c2947860c01b615769565b613bc967ab46b9cd112cfd8260c01b615769565b600061016260009054906101000a900473ffffffffffffffffffffffffffffffffffffffff169050613c0567718b5152b256aaad60c01b615769565b613c1967fe8fc69440d494d360c01b615769565b60008173ffffffffffffffffffffffffffffffffffffffff1663df592f7d846040518263ffffffff1660e01b8152600401613c549190617819565b602060405180830381865afa158015613c71573d6000803e3d6000fd5b505050506040513d601f19601f82011682018060405250810190613c959190618033565b9050613cab6729e4d39f8323a83e60c01b615769565b613cbf67bbe3c70dec38d18e60c01b615769565b8015613d0b57613cd96737bce2cd8871544060c01b615769565b6040517f4229fac400000000000000000000000000000000000000000000000000000000815260040160405180910390fd5b613d1f6736207e54287dd2af60c01b615769565b613d336748a2f874b829664960c01b615769565b613d4767fce1ed6abc48a86b60c01b615766565b613d5b676e33b1af39c9797e60c01b615766565b613d6f67c0cd320d1817c4e360c01b615766565b613d8367e465e3e75bd628a460c01b615766565b613d94613d8e615909565b8a61538e565b613da8672db43d0f69b43d1160c01b615766565b613dbc67314e97060767a50760c01b615766565b600061019560009054906101000a900473ffffffffffffffffffffffffffffffffffffffff1673ffffffffffffffffffffffffffffffffffffffff1663d493e78c613e05615909565b8c6040518363ffffffff1660e01b8152600401613e23929190618060565b608060405180830381865afa158015613e40573d6000803e3d6000fd5b505050506040513d601f19601f82011682018060405250810190613e64919061813f565b9050613e7a67e29ff56cab74ceea60c01b615766565b613e8e673dedd11014b4614160c01b615766565b6000613e9a8b8b616688565b9050613eb067e6bc4ae1982f3a2e60c01b615766565b613ec467f8a95258aea9a90260c01b615766565b61019560009054906101000a900473ffffffffffffffffffffffffffffffffffffffff1673ffffffffffffffffffffffffffffffffffffffff1663eec0d656613f0b615909565b8d61019660149054906101000a900460ff168e87600060048110613f3257613f3161816c565b5b602002015188600160048110613f4b57613f4a61816c565b5b602002015189600260048110613f6457613f6361816c565b5b60200201518a600360048110613f7d57613f7c61816c565b5b60200201516040518963ffffffff1660e01b8152600401613fa598979695949392919061819b565b600060405180830381600087803b158015613fbf57600080fd5b505af1158015613fd3573d6000803e3d6000fd5b50505050613feb67ce4677e645e4b1ff60c01b615766565b613fff67b72bcb1bd0f0c15d60c01b615766565b809850505050505050505092915050565b600061402667096814327f4fb82260c01b615769565b61403a6713551d6d088e374460c01b615769565b61404e672f30ee5d81fb53a160c01b615769565b61016260159054906101000a900460ff16905090565b600061407a67b195b1ad7f69c5d160c01b615766565b61408e673a8275363585e52a60c01b615766565b6140a267f6d109435b4b30f860c01b615766565b819050919050565b60006140c067a02fcdbda7c558b660c01b615766565b6140d467b8fca5f231e91d9e60c01b615769565b6140e867894c15331d2f446c60c01b615769565b6140fc676cc35a461d4c630660c01b615769565b61016260159054906101000a900460ff161561416c5761412667ddd7cac154ad0c7e60c01b615769565b61413a67d19ee7ace5992e6f60c01b615769565b6040517fc689af6e00000000000000000000000000000000000000000000000000000000815260040160405180910390fd5b614180675fa5450a017c0e0a60c01b615769565b614194671818f61059f08a8960c01b615769565b6141a8679d6433dc04f7a26d60c01b615766565b6141bc6713a1e6643c50e23c60c01b615766565b816141d1676e89dfd94686dd1360c01b615766565b6141e567f3829f538ecce71760c01b615766565b6141f9677bd0980ec98ab58660c01b615766565b614202816166ab565b6142166758b2029217336a6a60c01b615766565b61422a67b52e2a4f03ab8d9460c01b615766565b61423e67da9bb4268852bb9f60c01b615766565b61424661677e565b61425a67b42bfed26986af8660c01b615766565b61426e67489ee308a82e47f660c01b615766565b6142826744bfe51c41be94b560c01b615766565b614296673491391ddf816ebb60c01b615766565b61019560009054906101000a900473ffffffffffffffffffffffffffffffffffffffff1673ffffffffffffffffffffffffffffffffffffffff1663ddca8bfa6040518163ffffffff1660e01b8152600401602060405180830381865afa158015614304573d6000803e3d6000fd5b505050506040513d601f19601f820116820180604052508101906143289190617f31565b61019560009054906101000a900473ffffffffffffffffffffffffffffffffffffffff1673ffffffffffffffffffffffffffffffffffffffff166396b51eac866040518263ffffffff1660e01b81526004016143849190617819565b602060405180830381865afa1580156143a1573d6000803e3d6000fd5b505050506040513d601f19601f820116820180604052508101906143c59190617f31565b14614499576143de6747aa3bfc49566be860c01b615766565b6143f26738c847bfd842fa5e60c01b615766565b6144066715fad0e32aa7fec460c01b615766565b61019560009054906101000a900473ffffffffffffffffffffffffffffffffffffffff1673ffffffffffffffffffffffffffffffffffffffff1663485ffcaa856040518263ffffffff1660e01b81526004016144629190617819565b600060405180830381600087803b15801561447c57600080fd5b505af1158015614490573d6000803e3d6000fd5b505050506144ae565b6144ad673dd0c0c134d1469c60c01b615766565b5b6144c26732e87774d17075b560c01b615766565b6144d667a9f973be7086c69060c01b615766565b6144df83614da9565b851115614540576144fa672556cc8fb8c1b12d60c01b615766565b61450e674fa41b6fafdb630a60c01b615766565b6040517f1cf754b800000000000000000000000000000000000000000000000000000000815260040160405180910390fd5b61455467fa9093783b62afff60c01b615766565b61456867d2e74d300a07154060c01b615766565b61457c67b9427b252b23428d60c01b615766565b6000614587866112c0565b905061459d67be76c08c7f882b9e60c01b615766565b6145b16785709ca05ed1e13160c01b615766565b61019560009054906101000a900473ffffffffffffffffffffffffffffffffffffffff1673ffffffffffffffffffffffffffffffffffffffff16633d82850b6145f8615909565b87878a866040518663ffffffff1660e01b815260040161461c9594939291906187b5565b600060405180830381600087803b15801561463657600080fd5b505af115801561464a573d6000803e3d6000fd5b5050505061466267d8263c550a2d593160c01b615766565b6146766748ae07130983e6b160c01b615766565b809250506146826167cf565b509392505050565b60006146a06743e618ffb3eee54160c01b615766565b6146b467b8fca5f231e91d9e60c01b615769565b6146c867894c15331d2f446c60c01b615769565b6146dc676cc35a461d4c630660c01b615769565b61016260159054906101000a900460ff161561474c5761470667ddd7cac154ad0c7e60c01b615769565b61471a67d19ee7ace5992e6f60c01b615769565b6040517fc689af6e00000000000000000000000000000000000000000000000000000000815260040160405180910390fd5b614760675fa5450a017c0e0a60c01b615769565b614774671818f61059f08a8960c01b615769565b6147886794dad5cd9f7179f060c01b615766565b61479c6786606ee0269d303a60c01b615766565b816147b1676e89dfd94686dd1360c01b615766565b6147c567f3829f538ecce71760c01b615766565b6147d9677bd0980ec98ab58660c01b615766565b6147e2816166ab565b6147f66758b2029217336a6a60c01b615766565b61480a67c2707a053dd3a06960c01b615766565b61481e6779bce0ac5a2be40660c01b615766565b61482661677e565b61483a67501051a720bc1fa860c01b615766565b61484e67c5f39b5b0f69fd2460c01b615766565b61486267d404d96c5c9f327060c01b615766565b614876675319fa4814a52a7360c01b615766565b61019560009054906101000a900473ffffffffffffffffffffffffffffffffffffffff1673ffffffffffffffffffffffffffffffffffffffff1663ddca8bfa6040518163ffffffff1660e01b8152600401602060405180830381865afa1580156148e4573d6000803e3d6000fd5b505050506040513d601f19601f820116820180604052508101906149089190617f31565b61019560009054906101000a900473ffffffffffffffffffffffffffffffffffffffff1673ffffffffffffffffffffffffffffffffffffffff166396b51eac866040518263ffffffff1660e01b81526004016149649190617819565b602060405180830381865afa158015614981573d6000803e3d6000fd5b505050506040513d601f19601f820116820180604052508101906149a59190617f31565b14614a79576149be679ce67740714b3aac60c01b615766565b6149d267790499d8b600ccad60c01b615766565b6149e66713461cbde872f5e160c01b615766565b61019560009054906101000a900473ffffffffffffffffffffffffffffffffffffffff1673ffffffffffffffffffffffffffffffffffffffff1663485ffcaa856040518263ffffffff1660e01b8152600401614a429190617819565b600060405180830381600087803b158015614a5c57600080fd5b505af1158015614a70573d6000803e3d6000fd5b50505050614a8e565b614a8d674c06b586f79e5de660c01b615766565b5b614aa2679f0c2d4b59acb7d060c01b615766565b614ab667c6a9edfcd711b25160c01b615766565b614abf83615159565b851115614b0c57614ada67406020e45ec5151060c01b615766565b6040517f89e4c16300000000000000000000000000000000000000000000000000000000815260040160405180910390fd5b614b2067acd96fd6aa2713d160c01b615766565b614b3467d73b2d4e165b0a1260c01b615766565b614b4867ea32a0f7a2f3c4a060c01b615766565b6000614b538661201a565b9050614b696769aed35686b3eeda60c01b615766565b614b7d673fa48ca532b14b8a60c01b615766565b61019560009054906101000a900473ffffffffffffffffffffffffffffffffffffffff1673ffffffffffffffffffffffffffffffffffffffff16633d82850b614bc4615909565b8787858b6040518663ffffffff1660e01b8152600401614be89594939291906187b5565b600060405180830381600087803b158015614c0257600080fd5b505af1158015614c16573d6000803e3d6000fd5b50505050614c2e67297ba582acb94f2160c01b615766565b614c42671e4d8200e4e43b4b60c01b615766565b80925050614c4e6167cf565b509392505050565b6000614c6c67de068cd18cc7244060c01b615766565b614c8067118dd9d1b31d6b5b60c01b615766565b614c94675402cb43b115300860c01b615766565b61019560009054906101000a900473ffffffffffffffffffffffffffffffffffffffff1673ffffffffffffffffffffffffffffffffffffffff1663728bf733836040518263ffffffff1660e01b8152600401614cf09190617819565b602060405180830381865afa158015614d0d573d6000803e3d6000fd5b505050506040513d601f19601f82011682018060405250810190614d319190617f31565b7fffffffffffffffffffffffffffffffffffffffffffffffffffffffffffffffff614d5c91906183a0565b9050919050565b6000614d796738e29fd681bb5e6e60c01b615766565b614d8d67697375b3b49bf77e60c01b615766565b614da16720fe68d06fb92b3160c01b615766565b819050919050565b6000614dbf671a5f994d5a8ddbf660c01b615766565b614dd36757d2fb62ac52591f60c01b615766565b614de7675ee151307bcefc3660c01b615766565b61019560009054906101000a900473ffffffffffffffffffffffffffffffffffffffff1673ffffffffffffffffffffffffffffffffffffffff1663c887e8a0836040518263ffffffff1660e01b8152600401614e439190617819565b602060405180830381865afa158015614e60573d6000803e3d6000fd5b505050506040513d601f19601f82011682018060405250810190614e849190617f31565b9050919050565b83421115614ece576040517f08c379a0000000000000000000000000000000000000000000000000000000008152600401614ec590618854565b60405180910390fd5b60007f6e71edae12b1b97f4d1f60370fef10105fa2faae0126114a169c64845d6126c9888888614efd8c6167da565b89604051602001614f1396959493929190618874565b6040516020818303038152906040528051906020012090506000614f3682616839565b90506000614f4682878787616853565b90508973ffffffffffffffffffffffffffffffffffffffff168173ffffffffffffffffffffffffffffffffffffffff1614614fb6576040517f08c379a0000000000000000000000000000000000000000000000000000000008152600401614fad90618921565b60405180910390fd5b614fc18a8a8a615911565b50505050505050505050565b614fe167e95b4e0718e0463260c01b615769565b614fe961576c565b614ffd67b60f4e3cf976820a60c01b615769565b6150116705d309525565a1c860c01b615769565b615025672aa8ae04acb5ec7460c01b615769565b600161016260146101000a81548160ff0219169083151502179055506150556747b5327730861dfc60c01b615769565b600161016260156101000a81548160ff02191690831515021790555061508567c68ca9541568a80560c01b615769565b600161016260166101000a81548160ff0219169083151502179055506150b56793e7298989128b7060c01b615769565b600161016260176101000a81548160ff021916908315150217905550565b6150e767b008d3927d794c4460c01b615769565b6150ef61576c565b615103672773f7f3b4588e0e60c01b615769565b6151176720a79112ed7cc3a560c01b615769565b61512b67b8d95c720657a16a60c01b615769565b61016260149054906101000a900460ff161561016260146101000a81548160ff021916908315150217905550565b600061516f670d21a2c335135f8e60c01b615766565b6151836703345775c231315560c01b615766565b61519767b1edfce1e939612960c01b615766565b61019560009054906101000a900473ffffffffffffffffffffffffffffffffffffffff1673ffffffffffffffffffffffffffffffffffffffff1663c887e8a0836040518263ffffffff1660e01b81526004016151f39190617819565b602060405180830381865afa158015615210573d6000803e3d6000fd5b505050506040513d601f19601f820116820180604052508101906152349190617f31565b9050919050565b600060ca60008473ffffffffffffffffffffffffffffffffffffffff1673ffffffffffffffffffffffffffffffffffffffff16815260200190815260200160002060008373ffffffffffffffffffffffffffffffffffffffff1673ffffffffffffffffffffffffffffffffffffffff16815260200190815260200160002054905092915050565b6152d6675524440fb016f39160c01b615769565b6152de61576c565b6152f267d17377e1715d93f960c01b615769565b61530667e8fbcf4cd051d72c60c01b615769565b61531a6770df1012585d64cb60c01b615769565b61016260159054906101000a900460ff161561016260156101000a81548160ff021916908315150217905550565b600061535e67ec683d56fa93520460c01b615766565b615372673737a31483f8c50760c01b615766565b61538667fb3bc9a91a0cefff60c01b615766565b819050919050565b6153a166c962e58ce2441360c01b615766565b6153b567c87e8a15385b30f960c01b615766565b6153c9677d0c1b6648ca1bfe60c01b615766565b6153d28261323c565b156154a6576153eb67dff78d5c4f79375b60c01b615766565b6153ff677af9a8cf09888a7760c01b615766565b61541367e0bec77bfa726ecd60c01b615766565b61019560009054906101000a900473ffffffffffffffffffffffffffffffffffffffff1673ffffffffffffffffffffffffffffffffffffffff1663485ffcaa836040518263ffffffff1660e01b815260040161546f9190617819565b600060405180830381600087803b15801561548957600080fd5b505af115801561549d573d6000803e3d6000fd5b505050506154bb565b6154ba679ba5165e8293c0e660c01b615766565b5b6154cf6786c5abf1d4d02d7a60c01b615766565b6154e3679fe077b1d42ad4a460c01b615766565b61019560009054906101000a900473ffffffffffffffffffffffffffffffffffffffff1673ffffffffffffffffffffffffffffffffffffffff16635737ed7d826040518263ffffffff1660e01b815260040161553f9190617819565b600060405180830381600087803b15801561555957600080fd5b505af115801561556d573d6000803e3d6000fd5b5050505061558567adfa289eca1c986b60c01b615766565b61559967e7ea502b084c5d7d60c01b615766565b6155a28161323c565b15615676576155bb67b36b0f4a7711ec5660c01b615766565b6155cf676624aa2cc2eea1f660c01b615766565b6155e367c7dea7e5b7d2915b60c01b615766565b61019560009054906101000a900473ffffffffffffffffffffffffffffffffffffffff1673ffffffffffffffffffffffffffffffffffffffff1663485ffcaa826040518263ffffffff1660e01b815260040161563f9190617819565b600060405180830381600087803b15801561565957600080fd5b505af115801561566d573d6000803e3d6000fd5b5050505061568b565b61568a6791bd6083d111a89e60c01b615766565b5b5050565b61569761576c565b600073ffffffffffffffffffffffffffffffffffffffff168173ffffffffffffffffffffffffffffffffffffffff1603615706576040517f08c379a00000000000000000000000000000000000000000000000000000000081526004016156fd906189b3565b60405180910390fd5b61570f81615fd9565b50565b60006157286720379d2c5803565260c01b615769565b61573c67edd33f43574dd9ed60c01b615769565b61575067fe2ac4febdb0be5560c01b615769565b61016260149054906101000a900460ff16905090565b50565b50565b615774615909565b73ffffffffffffffffffffffffffffffffffffffff166157926131c4565b73ffffffffffffffffffffffffffffffffffffffff16146157e8576040517f08c379a00000000000000000000000000000000000000000000000000000000081526004016157df90618a1f565b60405180910390fd5b565b6157fe678df5f542f68c3c3460c01b615766565b61581267c870a0983a8833ff60c01b615766565b615826670c1aec1d649cf66d60c01b615766565b61019560009054906101000a900473ffffffffffffffffffffffffffffffffffffffff1673ffffffffffffffffffffffffffffffffffffffff16615868615909565b73ffffffffffffffffffffffffffffffffffffffff16146158dd5761589767fe9f6bc3033c5cbb60c01b615766565b6158ab67b30ca5227feaf26e60c01b615766565b6040517fe565d9cb00000000000000000000000000000000000000000000000000000000815260040160405180910390fd5b6158f167fa013b67338853ee60c01b615766565b565b60006158ff838361687e565b6001905092915050565b600033905090565b600073ffffffffffffffffffffffffffffffffffffffff168373ffffffffffffffffffffffffffffffffffffffff1603615980576040517f08c379a000000000000000000000000000000000000000000000000000000000815260040161597790618ab1565b60405180910390fd5b600073ffffffffffffffffffffffffffffffffffffffff168273ffffffffffffffffffffffffffffffffffffffff16036159ef576040517f08c379a00000000000000000000000000000000000000000000000000000000081526004016159e690618b43565b60405180910390fd5b8060ca60008573ffffffffffffffffffffffffffffffffffffffff1673ffffffffffffffffffffffffffffffffffffffff16815260200190815260200160002060008473ffffffffffffffffffffffffffffffffffffffff1673ffffffffffffffffffffffffffffffffffffffff168152602001908152602001600020819055508173ffffffffffffffffffffffffffffffffffffffff168373ffffffffffffffffffffffffffffffffffffffff167f8c5be1e5ebec7d5bd14f71427d1e84f3dd0314c0f7b2291e5b200ac8c7c3b92583604051615acd9190617511565b60405180910390a3505050565b6000615ae6838361693e565b6001905092915050565b600080615afb615909565b9050615b088582856169f5565b615b13858585616a81565b60019150509392505050565b6000615b29616cfa565b905090565b6000615b5c7f360894a13ba1a3210667c828492db98dca3e2076cc3735a920a3ca505d382bbc60001b616d5e565b60000160009054906101000a900473ffffffffffffffffffffffffffffffffffffffff16905090565b615b9967495f6af2150eb1a460c01b615766565b615ba161576c565b615bb5671954f97c313302c660c01b615766565b615bc96769e329596e29433f60c01b615766565b50565b615bf87f4910fdfa16fed3260ed0e7147f7cc6da11a60208b5b9406d12a635614ffd914360001b616d68565b60000160009054906101000a900460ff1615615c1c57615c1783616d72565b615d35565b8273ffffffffffffffffffffffffffffffffffffffff166352d1902d6040518163ffffffff1660e01b8152600401602060405180830381865afa925050508015615c8457506040513d601f19601f82011682018060405250810190615c819190618b78565b60015b615cc3576040517f08c379a0000000000000000000000000000000000000000000000000000000008152600401615cba90618c17565b60405180910390fd5b7f360894a13ba1a3210667c828492db98dca3e2076cc3735a920a3ca505d382bbc60001b8114615d28576040517f08c379a0000000000000000000000000000000000000000000000000000000008152600401615d1f90618ca9565b60405180910390fd5b50615d34838383616e2b565b5b505050565b615d4e6713bd6425c940ef9b60c01b615766565b615d626756914d5e899068f960c01b615766565b615d766713a7e07d52199ecb60c01b615766565b60008203615dc457615d9267b26eb2fe08a289c660c01b615766565b6040517f7c7c872000000000000000000000000000000000000000000000000000000000815260040160405180910390fd5b615dd8678a8192ca0f6cf06b60c01b615766565b615dec676c4eadf8c09469f160c01b615766565b615e00672ff450f02e39db6360c01b615766565b615e0981611f0d565b821115615e6a57615e2467c48bdbf8b2eac22b60c01b615766565b615e38674d28d5cb1efa1eb960c01b615766565b6040517f14a4b53500000000000000000000000000000000000000000000000000000000815260040160405180910390fd5b615e7e67ed71e1dd7b48ca2260c01b615766565b5050565b600073ffffffffffffffffffffffffffffffffffffffff168273ffffffffffffffffffffffffffffffffffffffff1603615ef1576040517f08c379a0000000000000000000000000000000000000000000000000000000008152600401615ee890618d15565b60405180910390fd5b615efd60008383616e57565b8060cb6000828254615f0f919061836c565b925050819055508060c960008473ffffffffffffffffffffffffffffffffffffffff1673ffffffffffffffffffffffffffffffffffffffff168152602001908152602001600020600082825401925050819055508173ffffffffffffffffffffffffffffffffffffffff16600073ffffffffffffffffffffffffffffffffffffffff167fddf252ad1be2c89b69c2b068fc378daa952ba7f163c4a11628f55a4df523b3ef83604051615fc19190617511565b60405180910390a3615fd560008383616e5c565b5050565b6000609760009054906101000a900473ffffffffffffffffffffffffffffffffffffffff16905081609760006101000a81548173ffffffffffffffffffffffffffffffffffffffff021916908373ffffffffffffffffffffffffffffffffffffffff1602179055508173ffffffffffffffffffffffffffffffffffffffff168173ffffffffffffffffffffffffffffffffffffffff167f8be0079c531659141344cd1fd0a4f28419497f9722a3daafe3b4186f6b6457e060405160405180910390a35050565b6000808273ffffffffffffffffffffffffffffffffffffffff163b119050919050565b600060019054906101000a900460ff16616111576040517f08c379a000000000000000000000000000000000000000000000000000000000815260040161610890618da7565b60405180910390fd5b61611b8282616e61565b5050565b600060019054906101000a900460ff1661616e576040517f08c379a000000000000000000000000000000000000000000000000000000000815260040161616590618da7565b60405180910390fd5b6161ad816040518060400160405280600181526020017f3100000000000000000000000000000000000000000000000000000000000000815250616ed4565b50565b6161c467856d2eb69f19a47d60c01b615769565b600060019054906101000a900460ff16616213576040517f08c379a000000000000000000000000000000000000000000000000000000000815260040161620a90618da7565b60405180910390fd5b61622767b11c97703b26b8d760c01b615769565b61623b67055d776a9a54dc0360c01b615769565b61624f67a1df556904dfdd2c60c01b615769565b8061016260006101000a81548173ffffffffffffffffffffffffffffffffffffffff021916908373ffffffffffffffffffffffffffffffffffffffff16021790555050565b600060019054906101000a900460ff166162e3576040517f08c379a00000000000000000000000000000000000000000000000000000000081526004016162da90618da7565b60405180910390fd5b6162eb616f5b565b565b600060019054906101000a900460ff1661633c576040517f08c379a000000000000000000000000000000000000000000000000000000000815260040161633390618da7565b60405180910390fd5b565b600081600001549050919050565b606060fd805461635b90617fb6565b80601f016020809104026020016040519081016040528092919081815260200182805461638790617fb6565b80156163d45780601f106163a9576101008083540402835291602001916163d4565b820191906000526020600020905b8154815290600101906020018083116163b757829003601f168201915b5050505050905090565b606060fe80546163ed90617fb6565b80601f016020809104026020016040519081016040528092919081815260200182805461641990617fb6565b80156164665780601f1061643b57610100808354040283529160200191616466565b820191906000526020600020905b81548152906001019060200180831161644957829003601f168201915b5050505050905090565b600060c960008373ffffffffffffffffffffffffffffffffffffffff1673ffffffffffffffffffffffffffffffffffffffff168152602001908152602001600020549050919050565b600073ffffffffffffffffffffffffffffffffffffffff168273ffffffffffffffffffffffffffffffffffffffff1603616528576040517f08c379a000000000000000000000000000000000000000000000000000000000815260040161651f90618e39565b60405180910390fd5b61653482600083616e57565b600060c960008473ffffffffffffffffffffffffffffffffffffffff1673ffffffffffffffffffffffffffffffffffffffff168152602001908152602001600020549050818110156165bb576040517f08c379a00000000000000000000000000000000000000000000000000000000081526004016165b290618ecb565b60405180910390fd5b81810360c960008573ffffffffffffffffffffffffffffffffffffffff1673ffffffffffffffffffffffffffffffffffffffff168152602001908152602001600020819055508160cb60008282540392505081905550600073ffffffffffffffffffffffffffffffffffffffff168373ffffffffffffffffffffffffffffffffffffffff167fddf252ad1be2c89b69c2b068fc378daa952ba7f163c4a11628f55a4df523b3ef8460405161666f9190617511565b60405180910390a361668383600084616e5c565b505050565b600080616693615909565b90506166a0818585616a81565b600191505092915050565b6166bf67d602ab38454194da60c01b615766565b6166d367bdc90ce111da7b9660c01b615766565b6166e7673b8abdd229beafdb60c01b615766565b6166ef615909565b73ffffffffffffffffffffffffffffffffffffffff168173ffffffffffffffffffffffffffffffffffffffff16146167675761673567bc997f275da2434660c01b615766565b6040517f7a45e68500000000000000000000000000000000000000000000000000000000815260040160405180910390fd5b61677b67a1e668f3e1fd620860c01b615766565b50565b600261016354036167c4576040517f08c379a00000000000000000000000000000000000000000000000000000000081526004016167bb90618f37565b60405180910390fd5b600261016381905550565b600161016381905550565b60008061012f60008473ffffffffffffffffffffffffffffffffffffffff1673ffffffffffffffffffffffffffffffffffffffff16815260200190815260200160002090506168288161633e565b915061683381616fbc565b50919050565b600061684c616846615b1f565b83616fd2565b9050919050565b600080600061686487878787617013565b91509150616871816170f5565b8192505050949350505050565b600073ffffffffffffffffffffffffffffffffffffffff168273ffffffffffffffffffffffffffffffffffffffff16036168ed576040517f08c379a00000000000000000000000000000000000000000000000000000000081526004016168e490618fa3565b60405180910390fd5b8060c960008473ffffffffffffffffffffffffffffffffffffffff1673ffffffffffffffffffffffffffffffffffffffff168152602001908152602001600020600082825401925050819055505050565b600073ffffffffffffffffffffffffffffffffffffffff168273ffffffffffffffffffffffffffffffffffffffff16036169ad576040517f08c379a00000000000000000000000000000000000000000000000000000000081526004016169a49061900f565b60405180910390fd5b8060c960008473ffffffffffffffffffffffffffffffffffffffff1673ffffffffffffffffffffffffffffffffffffffff168152602001908152602001600020819055505050565b6000616a01848461523b565b90507fffffffffffffffffffffffffffffffffffffffffffffffffffffffffffffffff8114616a7b5781811015616a6d576040517f08c379a0000000000000000000000000000000000000000000000000000000008152600401616a649061907b565b60405180910390fd5b616a7a8484848403615911565b5b50505050565b600073ffffffffffffffffffffffffffffffffffffffff168373ffffffffffffffffffffffffffffffffffffffff1603616af0576040517f08c379a0000000000000000000000000000000000000000000000000000000008152600401616ae79061910d565b60405180910390fd5b600073ffffffffffffffffffffffffffffffffffffffff168273ffffffffffffffffffffffffffffffffffffffff1603616b5f576040517f08c379a0000000000000000000000000000000000000000000000000000000008152600401616b569061919f565b60405180910390fd5b616b6a838383616e57565b600060c960008573ffffffffffffffffffffffffffffffffffffffff1673ffffffffffffffffffffffffffffffffffffffff16815260200190815260200160002054905081811015616bf1576040517f08c379a0000000000000000000000000000000000000000000000000000000008152600401616be890619231565b60405180910390fd5b81810360c960008673ffffffffffffffffffffffffffffffffffffffff1673ffffffffffffffffffffffffffffffffffffffff168152602001908152602001600020819055508160c960008573ffffffffffffffffffffffffffffffffffffffff1673ffffffffffffffffffffffffffffffffffffffff168152602001908152602001600020600082825401925050819055508273ffffffffffffffffffffffffffffffffffffffff168473ffffffffffffffffffffffffffffffffffffffff167fddf252ad1be2c89b69c2b068fc378daa952ba7f163c4a11628f55a4df523b3ef84604051616ce19190617511565b60405180910390a3616cf4848484616e5c565b50505050565b60007f8b73c3c69bb8fe3d512ecc4cf759cc79239f7b179b0ffacaa9a75d522b39400f616d2561725b565b616d2d6172c6565b4630604051602001616d43959493929190619251565b60405160208183030381529060405280519060200120905090565b6000819050919050565b6000819050919050565b616d7b8161609f565b616dba576040517f08c379a0000000000000000000000000000000000000000000000000000000008152600401616db190619316565b60405180910390fd5b80616de77f360894a13ba1a3210667c828492db98dca3e2076cc3735a920a3ca505d382bbc60001b616d5e565b60000160006101000a81548173ffffffffffffffffffffffffffffffffffffffff021916908373ffffffffffffffffffffffffffffffffffffffff16021790555050565b616e3483617331565b600082511180616e415750805b15616e5257616e508383617380565b505b505050565b505050565b505050565b600060019054906101000a900460ff16616eb0576040517f08c379a0000000000000000000000000000000000000000000000000000000008152600401616ea790618da7565b60405180910390fd5b8160cc9081616ebf91906194d8565b508060cd9081616ecf91906194d8565b505050565b600060019054906101000a900460ff16616f23576040517f08c379a0000000000000000000000000000000000000000000000000000000008152600401616f1a90618da7565b60405180910390fd5b8160fd9081616f3291906194d8565b508060fe9081616f4291906194d8565b506000801b60fb819055506000801b60fc819055505050565b600060019054906101000a900460ff16616faa576040517f08c379a0000000000000000000000000000000000000000000000000000000008152600401616fa190618da7565b60405180910390fd5b616fba616fb5615909565b615fd9565b565b6001816000016000828254019250508190555050565b60006040517f190100000000000000000000000000000000000000000000000000000000000081528360028201528260228201526042812091505092915050565b6000807f7fffffffffffffffffffffffffffffff5d576e7357a4501ddfe92f46681b20a08360001c111561704e5760006003915091506170ec565b60006001878787876040516000815260200160405260405161707394939291906195aa565b6020604051602081039080840390855afa158015617095573d6000803e3d6000fd5b505050602060405103519050600073ffffffffffffffffffffffffffffffffffffffff168173ffffffffffffffffffffffffffffffffffffffff16036170e3576000600192509250506170ec565b80600092509250505b94509492505050565b60006004811115617109576171086195ef565b5b81600481111561711c5761711b6195ef565b5b03156172585760016004811115617136576171356195ef565b5b816004811115617149576171486195ef565b5b03617189576040517f08c379a00000000000000000000000000000000000000000000000000000000081526004016171809061966a565b60405180910390fd5b6002600481111561719d5761719c6195ef565b5b8160048111156171b0576171af6195ef565b5b036171f0576040517f08c379a00000000000000000000000000000000000000000000000000000000081526004016171e7906196d6565b60405180910390fd5b60036004811115617204576172036195ef565b5b816004811115617217576172166195ef565b5b03617257576040517f08c379a000000000000000000000000000000000000000000000000000000000815260040161724e90619768565b60405180910390fd5b5b50565b60008061726661634c565b90506000815111156172825780805190602001209150506172c3565b600060fb5490506000801b811461729d5780925050506172c3565b7fc5d2460186f7233c927e7db2dcc703c0e500b653ca82273b7bfad8045d85a470925050505b90565b6000806172d16163de565b90506000815111156172ed57808051906020012091505061732e565b600060fc5490506000801b811461730857809250505061732e565b7fc5d2460186f7233c927e7db2dcc703c0e500b653ca82273b7bfad8045d85a470925050505b90565b61733a81616d72565b8073ffffffffffffffffffffffffffffffffffffffff167fbc7cd75a20ee27fd9adebab32041f755214dbc6bffa90cc0225b39da2e5c2d3b60405160405180910390a250565b60606173a58383604051806060016040528060278152602001619853602791396173ad565b905092915050565b60606000808573ffffffffffffffffffffffffffffffffffffffff16856040516173d791906197cf565b600060405180830381855af49150503d8060008114617412576040519150601f19603f3d011682016040523d82523d6000602084013e617417565b606091505b509150915061742886838387617433565b925050509392505050565b6060831561749557600083510361748d5761744d8561609f565b61748c576040517f08c379a000000000000000000000000000000000000000000000000000000000815260040161748390619832565b60405180910390fd5b5b8290506174a0565b61749f83836174a8565b5b949350505050565b6000825111156174bb5781518083602001fd5b806040517f08c379a00000000000000000000000000000000000000000000000000000000081526004016174ef919061769a565b60405180910390fd5b6000819050919050565b61750b816174f8565b82525050565b60006020820190506175266000830184617502565b92915050565b6000604051905090565b600080fd5b600080fd5b600073ffffffffffffffffffffffffffffffffffffffff82169050919050565b600061756b82617540565b9050919050565b61757b81617560565b811461758657600080fd5b50565b60008135905061759881617572565b92915050565b6175a7816174f8565b81146175b257600080fd5b50565b6000813590506175c48161759e565b92915050565b600080604083850312156175e1576175e0617536565b5b60006175ef85828601617589565b9250506020617600858286016175b5565b9150509250929050565b600081519050919050565b600082825260208201905092915050565b60005b83811015617644578082015181840152602081019050617629565b60008484015250505050565b6000601f19601f8301169050919050565b600061766c8261760a565b6176768185617615565b9350617686818560208601617626565b61768f81617650565b840191505092915050565b600060208201905081810360008301526176b48184617661565b905092915050565b6000602082840312156176d2576176d1617536565b5b60006176e0848285016175b5565b91505092915050565b60008115159050919050565b6176fe816176e9565b82525050565b600060208201905061771960008301846176f5565b92915050565b60008060006060848603121561773857617737617536565b5b600061774686828701617589565b935050602061775786828701617589565b9250506040617768868287016175b5565b9150509250925092565b600060ff82169050919050565b61778881617772565b82525050565b60006020820190506177a3600083018461777f565b92915050565b6000819050919050565b6177bc816177a9565b82525050565b60006020820190506177d760008301846177b3565b92915050565b6000602082840312156177f3576177f2617536565b5b600061780184828501617589565b91505092915050565b61781381617560565b82525050565b600060208201905061782e600083018461780a565b92915050565b600080fd5b600080fd5b7f4e487b7100000000000000000000000000000000000000000000000000000000600052604160045260246000fd5b61787682617650565b810181811067ffffffffffffffff821117156178955761789461783e565b5b80604052505050565b60006178a861752c565b90506178b4828261786d565b919050565b600067ffffffffffffffff8211156178d4576178d361783e565b5b6178dd82617650565b9050602081019050919050565b82818337600083830152505050565b600061790c617907846178b9565b61789e565b90508281526020810184848401111561792857617927617839565b5b6179338482856178ea565b509392505050565b600082601f8301126179505761794f617834565b5b81356179608482602086016178f9565b91505092915050565b600080604083850312156179805761797f617536565b5b600061798e85828601617589565b925050602083013567ffffffffffffffff8111156179af576179ae61753b565b5b6179bb8582860161793b565b9150509250929050565b6179ce81617772565b81146179d957600080fd5b50565b6000813590506179eb816179c5565b92915050565b6179fa816177a9565b8114617a0557600080fd5b50565b600081359050617a17816179f1565b92915050565b60008060008060008060c08789031215617a3a57617a39617536565b5b6000617a4889828a016175b5565b9650506020617a5989828a01617589565b9550506040617a6a89828a016175b5565b9450506060617a7b89828a016179dc565b9350506080617a8c89828a01617a08565b92505060a0617a9d89828a01617a08565b9150509295509295509295565b60008060408385031215617ac157617ac0617536565b5b6000617acf858286016175b5565b9250506020617ae085828601617589565b9150509250929050565b600067ffffffffffffffff821115617b0557617b0461783e565b5b617b0e82617650565b9050602081019050919050565b6000617b2e617b2984617aea565b61789e565b905082815260208101848484011115617b4a57617b49617839565b5b617b558482856178ea565b509392505050565b600082601f830112617b7257617b71617834565b5b8135617b82848260208601617b1b565b91505092915050565b617b94816176e9565b8114617b9f57600080fd5b50565b600081359050617bb181617b8b565b92915050565b600080600080600060a08688031215617bd357617bd2617536565b5b600086013567ffffffffffffffff811115617bf157617bf061753b565b5b617bfd88828901617b5d565b955050602086013567ffffffffffffffff811115617c1e57617c1d61753b565b5b617c2a88828901617b5d565b9450506040617c3b88828901617589565b9350506060617c4c88828901617589565b9250506080617c5d88828901617ba2565b9150509295509295909350565b60007fff0000000000000000000000000000000000000000000000000000000000000082169050919050565b617c9f81617c6a565b82525050565b600081519050919050565b600082825260208201905092915050565b6000819050602082019050919050565b617cda816174f8565b82525050565b6000617cec8383617cd1565b60208301905092915050565b6000602082019050919050565b6000617d1082617ca5565b617d1a8185617cb0565b9350617d2583617cc1565b8060005b83811015617d56578151617d3d8882617ce0565b9750617d4883617cf8565b925050600181019050617d29565b5085935050505092915050565b600060e082019050617d78600083018a617c96565b8181036020830152617d8a8189617661565b90508181036040830152617d9e8188617661565b9050617dad6060830187617502565b617dba608083018661780a565b617dc760a08301856177b3565b81810360c0830152617dd98184617d05565b905098975050505050505050565b600080600060608486031215617e0057617dff617536565b5b6000617e0e868287016175b5565b9350506020617e1f86828701617589565b9250506040617e3086828701617589565b9150509250925092565b600080600080600080600060e0888a031215617e5957617e58617536565b5b6000617e678a828b01617589565b9750506020617e788a828b01617589565b9650506040617e898a828b016175b5565b9550506060617e9a8a828b016175b5565b9450506080617eab8a828b016179dc565b93505060a0617ebc8a828b01617a08565b92505060c0617ecd8a828b01617a08565b91505092959891949750929550565b60008060408385031215617ef357617ef2617536565b5b6000617f0185828601617589565b9250506020617f1285828601617589565b9150509250929050565b600081519050617f2b8161759e565b92915050565b600060208284031215617f4757617f46617536565b5b6000617f5584828501617f1c565b91505092915050565b6000604082019050617f7360008301856176f5565b617f806020830184617502565b9392505050565b7f4e487b7100000000000000000000000000000000000000000000000000000000600052602260045260246000fd5b60006002820490506001821680617fce57607f821691505b602082108103617fe157617fe0617f87565b5b50919050565b6000606082019050617ffc60008301866176f5565b618009602083018561780a565b6180166040830184617502565b949350505050565b60008151905061802d81617b8b565b92915050565b60006020828403121561804957618048617536565b5b60006180578482850161801e565b91505092915050565b6000604082019050618075600083018561780a565b618082602083018461780a565b9392505050565b600067ffffffffffffffff8211156180a4576180a361783e565b5b602082029050919050565b600080fd5b60006180c76180c284618089565b61789e565b905080602084028301858111156180e1576180e06180af565b5b835b8181101561810a57806180f68882617f1c565b8452602084019350506020810190506180e3565b5050509392505050565b600082601f83011261812957618128617834565b5b60046181368482856180b4565b91505092915050565b60006080828403121561815557618154617536565b5b600061816384828501618114565b91505092915050565b7f4e487b7100000000000000000000000000000000000000000000000000000000600052603260045260246000fd5b6000610100820190506181b1600083018b61780a565b6181be602083018a61780a565b6181cb60408301896176f5565b6181d86060830188617502565b6181e56080830187617502565b6181f260a0830186617502565b6181ff60c0830185617502565b61820c60e0830184617502565b9998505050505050505050565b7f46756e6374696f6e206d7573742062652063616c6c6564207468726f7567682060008201527f64656c656761746563616c6c0000000000000000000000000000000000000000602082015250565b6000618275602c83617615565b915061828082618219565b604082019050919050565b600060208201905081810360008301526182a481618268565b9050919050565b7f46756e6374696f6e206d7573742062652063616c6c6564207468726f7567682060008201527f6163746976652070726f78790000000000000000000000000000000000000000602082015250565b6000618307602c83617615565b9150618312826182ab565b604082019050919050565b60006020820190508181036000830152618336816182fa565b9050919050565b7f4e487b7100000000000000000000000000000000000000000000000000000000600052601160045260246000fd5b6000618377826174f8565b9150618382836174f8565b925082820190508082111561839a5761839961833d565b5b92915050565b60006183ab826174f8565b91506183b6836174f8565b92508282039050818111156183ce576183cd61833d565b5b92915050565b600060e0820190506183e9600083018a61780a565b6183f6602083018961780a565b6184036040830188617502565b6184106060830187617502565b61841d608083018661777f565b61842a60a08301856177b3565b61843760c08301846177b3565b98975050505050505050565b6000608082019050618458600083018761780a565b618465602083018661780a565b6184726040830185617502565b61847f6060830184617502565b95945050505050565b7f555550535570677261646561626c653a206d757374206e6f742062652063616c60008201527f6c6564207468726f7567682064656c656761746563616c6c0000000000000000602082015250565b60006184e4603883617615565b91506184ef82618488565b604082019050919050565b60006020820190508181036000830152618513816184d7565b9050919050565b6000806040838503121561853157618530617536565b5b600061853f85828601617f1c565b925050602061855085828601617f1c565b9150509250929050565b7f496e697469616c697a61626c653a20636f6e747261637420697320616c72656160008201527f647920696e697469616c697a6564000000000000000000000000000000000000602082015250565b60006185b6602e83617615565b91506185c18261855a565b604082019050919050565b600060208201905081810360008301526185e5816185a9565b9050919050565b60006185f782617560565b9050919050565b618607816185ec565b811461861257600080fd5b50565b600081519050618624816185fe565b92915050565b6000602082840312156186405761863f617536565b5b600061864e84828501618615565b91505092915050565b6000819050919050565b6000819050919050565b600061868661868161867c84618657565b618661565b617772565b9050919050565b6186968161866b565b82525050565b60006020820190506186b1600083018461868d565b92915050565b7f4549503731323a20556e696e697469616c697a65640000000000000000000000600082015250565b60006186ed601583617615565b91506186f8826186b7565b602082019050919050565b6000602082019050818103600083015261871c816186e0565b9050919050565b7f45524332303a2064656372656173656420616c6c6f77616e63652062656c6f7760008201527f207a65726f000000000000000000000000000000000000000000000000000000602082015250565b600061877f602583617615565b915061878a82618723565b604082019050919050565b600060208201905081810360008301526187ae81618772565b9050919050565b600060a0820190506187ca600083018861780a565b6187d7602083018761780a565b6187e4604083018661780a565b6187f16060830185617502565b6187fe6080830184617502565b9695505050505050565b7f45524332305065726d69743a206578706972656420646561646c696e65000000600082015250565b600061883e601d83617615565b915061884982618808565b602082019050919050565b6000602082019050818103600083015261886d81618831565b9050919050565b600060c08201905061888960008301896177b3565b618896602083018861780a565b6188a3604083018761780a565b6188b06060830186617502565b6188bd6080830185617502565b6188ca60a0830184617502565b979650505050505050565b7f45524332305065726d69743a20696e76616c6964207369676e61747572650000600082015250565b600061890b601e83617615565b9150618916826188d5565b602082019050919050565b6000602082019050818103600083015261893a816188fe565b9050919050565b7f4f776e61626c653a206e6577206f776e657220697320746865207a65726f206160008201527f6464726573730000000000000000000000000000000000000000000000000000602082015250565b600061899d602683617615565b91506189a882618941565b604082019050919050565b600060208201905081810360008301526189cc81618990565b9050919050565b7f4f776e61626c653a2063616c6c6572206973206e6f7420746865206f776e6572600082015250565b6000618a09602083617615565b9150618a14826189d3565b602082019050919050565b60006020820190508181036000830152618a38816189fc565b9050919050565b7f45524332303a20617070726f76652066726f6d20746865207a65726f2061646460008201527f7265737300000000000000000000000000000000000000000000000000000000602082015250565b6000618a9b602483617615565b9150618aa682618a3f565b604082019050919050565b60006020820190508181036000830152618aca81618a8e565b9050919050565b7f45524332303a20617070726f766520746f20746865207a65726f20616464726560008201527f7373000000000000000000000000000000000000000000000000000000000000602082015250565b6000618b2d602283617615565b9150618b3882618ad1565b604082019050919050565b60006020820190508181036000830152618b5c81618b20565b9050919050565b600081519050618b72816179f1565b92915050565b600060208284031215618b8e57618b8d617536565b5b6000618b9c84828501618b63565b91505092915050565b7f45524331393637557067726164653a206e657720696d706c656d656e7461746960008201527f6f6e206973206e6f742055555053000000000000000000000000000000000000602082015250565b6000618c01602e83617615565b9150618c0c82618ba5565b604082019050919050565b60006020820190508181036000830152618c3081618bf4565b9050919050565b7f45524331393637557067726164653a20756e737570706f727465642070726f7860008201527f6961626c65555549440000000000000000000000000000000000000000000000602082015250565b6000618c93602983617615565b9150618c9e82618c37565b604082019050919050565b60006020820190508181036000830152618cc281618c86565b9050919050565b7f45524332303a206d696e7420746f20746865207a65726f206164647265737300600082015250565b6000618cff601f83617615565b9150618d0a82618cc9565b602082019050919050565b60006020820190508181036000830152618d2e81618cf2565b9050919050565b7f496e697469616c697a61626c653a20636f6e7472616374206973206e6f74206960008201527f6e697469616c697a696e67000000000000000000000000000000000000000000602082015250565b6000618d91602b83617615565b9150618d9c82618d35565b604082019050919050565b60006020820190508181036000830152618dc081618d84565b9050919050565b7f45524332303a206275726e2066726f6d20746865207a65726f2061646472657360008201527f7300000000000000000000000000000000000000000000000000000000000000602082015250565b6000618e23602183617615565b9150618e2e82618dc7565b604082019050919050565b60006020820190508181036000830152618e5281618e16565b9050919050565b7f45524332303a206275726e20616d6f756e7420657863656564732062616c616e60008201527f6365000000000000000000000000000000000000000000000000000000000000602082015250565b6000618eb5602283617615565b9150618ec082618e59565b604082019050919050565b60006020820190508181036000830152618ee481618ea8565b9050919050565b7f5265656e7472616e637947756172643a207265656e7472616e742063616c6c00600082015250565b6000618f21601f83617615565b9150618f2c82618eeb565b602082019050919050565b60006020820190508181036000830152618f5081618f14565b9050919050565b7f54726561737572792063616e6e6f74206265207a65726f206164647200000000600082015250565b6000618f8d601c83617615565b9150618f9882618f57565b602082019050919050565b60006020820190508181036000830152618fbc81618f80565b9050919050565b7f416464726573732063616e6e6f74206265207a65726f20616464720000000000600082015250565b6000618ff9601b83617615565b915061900482618fc3565b602082019050919050565b6000602082019050818103600083015261902881618fec565b9050919050565b7f45524332303a20696e73756666696369656e7420616c6c6f77616e6365000000600082015250565b6000619065601d83617615565b91506190708261902f565b602082019050919050565b6000602082019050818103600083015261909481619058565b9050919050565b7f45524332303a207472616e736665722066726f6d20746865207a65726f20616460008201527f6472657373000000000000000000000000000000000000000000000000000000602082015250565b60006190f7602583617615565b91506191028261909b565b604082019050919050565b60006020820190508181036000830152619126816190ea565b9050919050565b7f45524332303a207472616e7366657220746f20746865207a65726f206164647260008201527f6573730000000000000000000000000000000000000000000000000000000000602082015250565b6000619189602383617615565b91506191948261912d565b604082019050919050565b600060208201905081810360008301526191b88161917c565b9050919050565b7f45524332303a207472616e7366657220616d6f756e742065786365656473206260008201527f616c616e63650000000000000000000000000000000000000000000000000000602082015250565b600061921b602683617615565b9150619226826191bf565b604082019050919050565b6000602082019050818103600083015261924a8161920e565b9050919050565b600060a08201905061926660008301886177b3565b61927360208301876177b3565b61928060408301866177b3565b61928d6060830185617502565b61929a608083018461780a565b9695505050505050565b7f455243313936373a206e657720696d706c656d656e746174696f6e206973206e60008201527f6f74206120636f6e747261637400000000000000000000000000000000000000602082015250565b6000619300602d83617615565b915061930b826192a4565b604082019050919050565b6000602082019050818103600083015261932f816192f3565b9050919050565b60008190508160005260206000209050919050565b60006020601f8301049050919050565b600082821b905092915050565b6000600883026193987fffffffffffffffffffffffffffffffffffffffffffffffffffffffffffffffff8261935b565b6193a2868361935b565b95508019841693508086168417925050509392505050565b60006193d56193d06193cb846174f8565b618661565b6174f8565b9050919050565b6000819050919050565b6193ef836193ba565b6194036193fb826193dc565b848454619368565b825550505050565b600090565b61941861940b565b6194238184846193e6565b505050565b5b818110156194475761943c600082619410565b600181019050619429565b5050565b601f82111561948c5761945d81619336565b6194668461934b565b81016020851015619475578190505b6194896194818561934b565b830182619428565b50505b505050565b600082821c905092915050565b60006194af60001984600802619491565b1980831691505092915050565b60006194c8838361949e565b9150826002028217905092915050565b6194e18261760a565b67ffffffffffffffff8111156194fa576194f961783e565b5b6195048254617fb6565b61950f82828561944b565b600060209050601f8311600181146195425760008415619530578287015190505b61953a85826194bc565b8655506195a2565b601f19841661955086619336565b60005b8281101561957857848901518255600182019150602085019450602081019050619553565b868310156195955784890151619591601f89168261949e565b8355505b6001600288020188555050505b505050505050565b60006080820190506195bf60008301876177b3565b6195cc602083018661777f565b6195d960408301856177b3565b6195e660608301846177b3565b95945050505050565b7f4e487b7100000000000000000000000000000000000000000000000000000000600052602160045260246000fd5b7f45434453413a20696e76616c6964207369676e61747572650000000000000000600082015250565b6000619654601883617615565b915061965f8261961e565b602082019050919050565b6000602082019050818103600083015261968381619647565b9050919050565b7f45434453413a20696e76616c6964207369676e6174757265206c656e67746800600082015250565b60006196c0601f83617615565b91506196cb8261968a565b602082019050919050565b600060208201905081810360008301526196ef816196b3565b9050919050565b7f45434453413a20696e76616c6964207369676e6174757265202773272076616c60008201527f7565000000000000000000000000000000000000000000000000000000000000602082015250565b6000619752602283617615565b915061975d826196f6565b604082019050919050565b6000602082019050818103600083015261978181619745565b9050919050565b600081519050919050565b600081905092915050565b60006197a982619788565b6197b38185619793565b93506197c3818560208601617626565b80840191505092915050565b60006197db828461979e565b915081905092915050565b7f416464726573733a2063616c6c20746f206e6f6e2d636f6e7472616374000000600082015250565b600061981c601d83617615565b9150619827826197e6565b602082019050919050565b6000602082019050818103600083015261984b8161980f565b905091905056fe416464726573733a206c6f772d6c6576656c2064656c65676174652063616c6c206661696c6564a2646970667358221220b6e9925a2c3f395e17a523a3df153dc7f1129244f668110c63b140c6160bc1f464736f6c63430008110033",
  "linkReferences": {},
  "deployedLinkReferences": {}
}