{
  "_format": "hh-sol-artifact-1",
  "contractName": "SmartToken",
  "sourceName": "contracts/vaults/SmartToken.sol",
  "abi": [
    {
      "inputs": [],
      "stateMutability": "nonpayable",
      "type": "constructor"
    },
    {
      "inputs": [],
      "name": "BaseContract__SanctionedAddress",
      "type": "error"
    },
    {
      "inputs": [],
      "name": "SmartToken__DepositMoreThanMax",
      "type": "error"
    },
    {
      "inputs": [],
      "name": "SmartToken__MintMoreThanMax",
      "type": "error"
    },
    {
      "inputs": [],
      "name": "SmartToken__NotTokenFactory",
      "type": "error"
    },
    {
      "inputs": [],
      "name": "SmartToken__OnlyAssetOwner",
      "type": "error"
    },
    {
      "inputs": [],
      "name": "SmartToken__RedeemMoreThanMax",
      "type": "error"
    },
    {
      "inputs": [],
      "name": "SmartToken__WithdrawMoreThanMax",
      "type": "error"
    },
    {
      "inputs": [],
      "name": "SmartToken__ZeroDeposit",
      "type": "error"
    },
    {
      "anonymous": false,
      "inputs": [
        {
          "indexed": false,
          "internalType": "address",
          "name": "previousAdmin",
          "type": "address"
        },
        {
          "indexed": false,
          "internalType": "address",
          "name": "newAdmin",
          "type": "address"
        }
      ],
      "name": "AdminChanged",
      "type": "event"
    },
    {
      "anonymous": false,
      "inputs": [
        {
          "indexed": true,
          "internalType": "address",
          "name": "owner",
          "type": "address"
        },
        {
          "indexed": true,
          "internalType": "address",
          "name": "spender",
          "type": "address"
        },
        {
          "indexed": false,
          "internalType": "uint256",
          "name": "value",
          "type": "uint256"
        }
      ],
      "name": "Approval",
      "type": "event"
    },
    {
      "anonymous": false,
      "inputs": [
        {
          "indexed": true,
          "internalType": "address",
          "name": "beacon",
          "type": "address"
        }
      ],
      "name": "BeaconUpgraded",
      "type": "event"
    },
    {
      "anonymous": false,
      "inputs": [
        {
          "indexed": true,
          "internalType": "address",
          "name": "sender",
          "type": "address"
        },
        {
          "indexed": true,
          "internalType": "address",
          "name": "owner",
          "type": "address"
        },
        {
          "indexed": false,
          "internalType": "uint256",
          "name": "assets",
          "type": "uint256"
        },
        {
          "indexed": false,
          "internalType": "uint256",
          "name": "shares",
          "type": "uint256"
        }
      ],
      "name": "Deposit",
      "type": "event"
    },
    {
      "anonymous": false,
      "inputs": [],
      "name": "EIP712DomainChanged",
      "type": "event"
    },
    {
      "anonymous": false,
      "inputs": [
        {
          "indexed": false,
          "internalType": "uint8",
          "name": "version",
          "type": "uint8"
        }
      ],
      "name": "Initialized",
      "type": "event"
    },
    {
      "anonymous": false,
      "inputs": [
        {
          "indexed": true,
          "internalType": "address",
          "name": "previousOwner",
          "type": "address"
        },
        {
          "indexed": true,
          "internalType": "address",
          "name": "newOwner",
          "type": "address"
        }
      ],
      "name": "OwnershipTransferred",
      "type": "event"
    },
    {
      "anonymous": false,
      "inputs": [
        {
          "indexed": true,
          "internalType": "address",
          "name": "from",
          "type": "address"
        },
        {
          "indexed": true,
          "internalType": "address",
          "name": "to",
          "type": "address"
        },
        {
          "indexed": false,
          "internalType": "uint256",
          "name": "value",
          "type": "uint256"
        }
      ],
      "name": "Transfer",
      "type": "event"
    },
    {
      "anonymous": false,
      "inputs": [
        {
          "indexed": true,
          "internalType": "address",
          "name": "implementation",
          "type": "address"
        }
      ],
      "name": "Upgraded",
      "type": "event"
    },
    {
      "anonymous": false,
      "inputs": [
        {
          "indexed": true,
          "internalType": "address",
          "name": "sender",
          "type": "address"
        },
        {
          "indexed": true,
          "internalType": "address",
          "name": "receiver",
          "type": "address"
        },
        {
          "indexed": true,
          "internalType": "address",
          "name": "owner",
          "type": "address"
        },
        {
          "indexed": false,
          "internalType": "uint256",
          "name": "assets",
          "type": "uint256"
        },
        {
          "indexed": false,
          "internalType": "uint256",
          "name": "shares",
          "type": "uint256"
        }
      ],
      "name": "Withdraw",
      "type": "event"
    },
    {
      "inputs": [],
      "name": "DOMAIN_SEPARATOR",
      "outputs": [
        {
          "internalType": "bytes32",
          "name": "",
          "type": "bytes32"
        }
      ],
      "stateMutability": "view",
      "type": "function"
    },
    {
      "inputs": [
        {
          "internalType": "address",
          "name": "owner",
          "type": "address"
        },
        {
          "internalType": "address",
          "name": "spender",
          "type": "address"
        }
      ],
      "name": "allowance",
      "outputs": [
        {
          "internalType": "uint256",
          "name": "",
          "type": "uint256"
        }
      ],
      "stateMutability": "view",
      "type": "function"
    },
    {
      "inputs": [
        {
          "internalType": "address",
          "name": "spender",
          "type": "address"
        },
        {
          "internalType": "uint256",
          "name": "amount",
          "type": "uint256"
        }
      ],
      "name": "approve",
      "outputs": [
        {
          "internalType": "bool",
          "name": "",
          "type": "bool"
        }
      ],
      "stateMutability": "nonpayable",
      "type": "function"
    },
    {
      "inputs": [],
      "name": "asset",
      "outputs": [
        {
          "internalType": "address",
          "name": "",
          "type": "address"
        }
      ],
      "stateMutability": "view",
      "type": "function"
    },
    {
      "inputs": [
        {
          "internalType": "address",
          "name": "account",
          "type": "address"
        }
      ],
      "name": "balanceOf",
      "outputs": [
        {
          "internalType": "uint256",
          "name": "",
          "type": "uint256"
        }
      ],
      "stateMutability": "view",
      "type": "function"
    },
    {
      "inputs": [
        {
          "internalType": "address",
          "name": "account",
          "type": "address"
        },
        {
          "internalType": "uint256",
          "name": "amount",
          "type": "uint256"
        }
      ],
      "name": "burn",
      "outputs": [],
      "stateMutability": "nonpayable",
      "type": "function"
    },
    {
      "inputs": [
        {
          "internalType": "uint256",
          "name": "shares",
          "type": "uint256"
        }
      ],
      "name": "convertToAssets",
      "outputs": [
        {
          "internalType": "uint256",
          "name": "assets",
          "type": "uint256"
        }
      ],
      "stateMutability": "view",
      "type": "function"
    },
    {
      "inputs": [
        {
          "internalType": "uint256",
          "name": "assets",
          "type": "uint256"
        }
      ],
      "name": "convertToShares",
      "outputs": [
        {
          "internalType": "uint256",
          "name": "shares",
          "type": "uint256"
        }
      ],
      "stateMutability": "view",
      "type": "function"
    },
    {
      "inputs": [],
      "name": "decimals",
      "outputs": [
        {
          "internalType": "uint8",
          "name": "",
          "type": "uint8"
        }
      ],
      "stateMutability": "view",
      "type": "function"
    },
    {
      "inputs": [
        {
          "internalType": "address",
          "name": "spender",
          "type": "address"
        },
        {
          "internalType": "uint256",
          "name": "subtractedValue",
          "type": "uint256"
        }
      ],
      "name": "decreaseAllowance",
      "outputs": [
        {
          "internalType": "bool",
          "name": "",
          "type": "bool"
        }
      ],
      "stateMutability": "nonpayable",
      "type": "function"
    },
    {
      "inputs": [
        {
          "internalType": "uint256",
          "name": "assets",
          "type": "uint256"
        },
        {
          "internalType": "address",
          "name": "receiver",
          "type": "address"
        }
      ],
      "name": "deposit",
      "outputs": [
        {
          "internalType": "uint256",
          "name": "",
          "type": "uint256"
        }
      ],
      "stateMutability": "nonpayable",
      "type": "function"
    },
    {
      "inputs": [
        {
          "internalType": "uint256",
          "name": "assets",
          "type": "uint256"
        },
        {
          "internalType": "address",
          "name": "receiver",
          "type": "address"
        },
        {
          "internalType": "uint256",
          "name": "deadline",
          "type": "uint256"
        },
        {
          "internalType": "uint8",
          "name": "v",
          "type": "uint8"
        },
        {
          "internalType": "bytes32",
          "name": "r",
          "type": "bytes32"
        },
        {
          "internalType": "bytes32",
          "name": "s",
          "type": "bytes32"
        }
      ],
      "name": "depositWithPermit",
      "outputs": [
        {
          "internalType": "uint256",
          "name": "",
          "type": "uint256"
        }
      ],
      "stateMutability": "nonpayable",
      "type": "function"
    },
    {
      "inputs": [],
      "name": "eip712Domain",
      "outputs": [
        {
          "internalType": "bytes1",
          "name": "fields",
          "type": "bytes1"
        },
        {
          "internalType": "string",
          "name": "name",
          "type": "string"
        },
        {
          "internalType": "string",
          "name": "version",
          "type": "string"
        },
        {
          "internalType": "uint256",
          "name": "chainId",
          "type": "uint256"
        },
        {
          "internalType": "address",
          "name": "verifyingContract",
          "type": "address"
        },
        {
          "internalType": "bytes32",
          "name": "salt",
          "type": "bytes32"
        },
        {
          "internalType": "uint256[]",
          "name": "extensions",
          "type": "uint256[]"
        }
      ],
      "stateMutability": "view",
      "type": "function"
    },
    {
      "inputs": [],
      "name": "getTokenFactory",
      "outputs": [
        {
          "internalType": "address",
          "name": "",
          "type": "address"
        }
      ],
      "stateMutability": "view",
      "type": "function"
    },
    {
      "inputs": [
        {
          "internalType": "address",
          "name": "sender",
          "type": "address"
        },
        {
          "internalType": "address",
          "name": "receiver",
          "type": "address"
        }
      ],
      "name": "handlePendingRebase",
      "outputs": [],
      "stateMutability": "nonpayable",
      "type": "function"
    },
    {
      "inputs": [
        {
          "internalType": "address",
          "name": "account",
          "type": "address"
        }
      ],
      "name": "hasPendingRebase",
      "outputs": [
        {
          "internalType": "bool",
          "name": "",
          "type": "bool"
        }
      ],
      "stateMutability": "view",
      "type": "function"
    },
    {
      "inputs": [
        {
          "internalType": "address",
          "name": "spender",
          "type": "address"
        },
        {
          "internalType": "uint256",
          "name": "addedValue",
          "type": "uint256"
        }
      ],
      "name": "increaseAllowance",
      "outputs": [
        {
          "internalType": "bool",
          "name": "",
          "type": "bool"
        }
      ],
      "stateMutability": "nonpayable",
      "type": "function"
    },
    {
      "inputs": [
        {
          "internalType": "string",
          "name": "tokenName",
          "type": "string"
        },
        {
          "internalType": "string",
          "name": "tokenSymbol",
          "type": "string"
        },
        {
          "internalType": "address",
          "name": "factoryAddress",
          "type": "address"
        },
        {
          "internalType": "address",
          "name": "sanctionsContract_",
          "type": "address"
        }
      ],
      "name": "initialize",
      "outputs": [],
      "stateMutability": "nonpayable",
      "type": "function"
    },
    {
      "inputs": [
        {
          "internalType": "address",
          "name": "account",
          "type": "address"
        }
      ],
      "name": "maxDeposit",
      "outputs": [
        {
          "internalType": "uint256",
          "name": "",
          "type": "uint256"
        }
      ],
      "stateMutability": "view",
      "type": "function"
    },
    {
      "inputs": [
        {
          "internalType": "address",
          "name": "account",
          "type": "address"
        }
      ],
      "name": "maxMint",
      "outputs": [
        {
          "internalType": "uint256",
          "name": "",
          "type": "uint256"
        }
      ],
      "stateMutability": "view",
      "type": "function"
    },
    {
      "inputs": [
        {
          "internalType": "address",
          "name": "owner_",
          "type": "address"
        }
      ],
      "name": "maxRedeem",
      "outputs": [
        {
          "internalType": "uint256",
          "name": "",
          "type": "uint256"
        }
      ],
      "stateMutability": "view",
      "type": "function"
    },
    {
      "inputs": [
        {
          "internalType": "address",
          "name": "owner_",
          "type": "address"
        }
      ],
      "name": "maxWithdraw",
      "outputs": [
        {
          "internalType": "uint256",
          "name": "",
          "type": "uint256"
        }
      ],
      "stateMutability": "view",
      "type": "function"
    },
    {
      "inputs": [
        {
          "internalType": "uint256",
          "name": "shares",
          "type": "uint256"
        },
        {
          "internalType": "address",
          "name": "receiver",
          "type": "address"
        }
      ],
      "name": "mint",
      "outputs": [
        {
          "internalType": "uint256",
          "name": "",
          "type": "uint256"
        }
      ],
      "stateMutability": "nonpayable",
      "type": "function"
    },
    {
      "inputs": [
        {
          "internalType": "address",
          "name": "receiver",
          "type": "address"
        },
        {
          "internalType": "uint256",
          "name": "amount",
          "type": "uint256"
        }
      ],
      "name": "mintAsset",
      "outputs": [],
      "stateMutability": "nonpayable",
      "type": "function"
    },
    {
      "inputs": [],
      "name": "name",
      "outputs": [
        {
          "internalType": "string",
          "name": "",
          "type": "string"
        }
      ],
      "stateMutability": "view",
      "type": "function"
    },
    {
      "inputs": [
        {
          "internalType": "address",
          "name": "owner",
          "type": "address"
        }
      ],
      "name": "nonces",
      "outputs": [
        {
          "internalType": "uint256",
          "name": "",
          "type": "uint256"
        }
      ],
      "stateMutability": "view",
      "type": "function"
    },
    {
      "inputs": [],
      "name": "owner",
      "outputs": [
        {
          "internalType": "address",
          "name": "",
          "type": "address"
        }
      ],
      "stateMutability": "view",
      "type": "function"
    },
    {
      "inputs": [
        {
          "internalType": "address",
          "name": "owner",
          "type": "address"
        },
        {
          "internalType": "address",
          "name": "spender",
          "type": "address"
        },
        {
          "internalType": "uint256",
          "name": "value",
          "type": "uint256"
        },
        {
          "internalType": "uint256",
          "name": "deadline",
          "type": "uint256"
        },
        {
          "internalType": "uint8",
          "name": "v",
          "type": "uint8"
        },
        {
          "internalType": "bytes32",
          "name": "r",
          "type": "bytes32"
        },
        {
          "internalType": "bytes32",
          "name": "s",
          "type": "bytes32"
        }
      ],
      "name": "permit",
      "outputs": [],
      "stateMutability": "nonpayable",
      "type": "function"
    },
    {
      "inputs": [
        {
          "internalType": "uint256",
          "name": "assets",
          "type": "uint256"
        }
      ],
      "name": "previewDeposit",
      "outputs": [
        {
          "internalType": "uint256",
          "name": "",
          "type": "uint256"
        }
      ],
      "stateMutability": "view",
      "type": "function"
    },
    {
      "inputs": [
        {
          "internalType": "uint256",
          "name": "shares",
          "type": "uint256"
        }
      ],
      "name": "previewMint",
      "outputs": [
        {
          "internalType": "uint256",
          "name": "",
          "type": "uint256"
        }
      ],
      "stateMutability": "view",
      "type": "function"
    },
    {
      "inputs": [
        {
          "internalType": "uint256",
          "name": "shares",
          "type": "uint256"
        }
      ],
      "name": "previewRedeem",
      "outputs": [
        {
          "internalType": "uint256",
          "name": "",
          "type": "uint256"
        }
      ],
      "stateMutability": "view",
      "type": "function"
    },
    {
      "inputs": [
        {
          "internalType": "uint256",
          "name": "assets",
          "type": "uint256"
        }
      ],
      "name": "previewWithdraw",
      "outputs": [
        {
          "internalType": "uint256",
          "name": "",
          "type": "uint256"
        }
      ],
      "stateMutability": "view",
      "type": "function"
    },
    {
      "inputs": [],
      "name": "proxiableUUID",
      "outputs": [
        {
          "internalType": "bytes32",
          "name": "",
          "type": "bytes32"
        }
      ],
      "stateMutability": "view",
      "type": "function"
    },
    {
      "inputs": [
        {
          "internalType": "uint256",
          "name": "shares",
          "type": "uint256"
        },
        {
          "internalType": "address",
          "name": "receiver",
          "type": "address"
        },
        {
          "internalType": "address",
          "name": "owner_",
          "type": "address"
        }
      ],
      "name": "redeem",
      "outputs": [
        {
          "internalType": "uint256",
          "name": "",
          "type": "uint256"
        }
      ],
      "stateMutability": "nonpayable",
      "type": "function"
    },
    {
      "inputs": [],
      "name": "renounceOwnership",
      "outputs": [],
      "stateMutability": "nonpayable",
      "type": "function"
    },
    {
      "inputs": [
        {
          "internalType": "address",
          "name": "recipient",
          "type": "address"
        },
        {
          "internalType": "uint256",
          "name": "amount",
          "type": "uint256"
        }
      ],
      "name": "smartTransfer",
      "outputs": [],
      "stateMutability": "nonpayable",
      "type": "function"
    },
    {
      "inputs": [],
      "name": "symbol",
      "outputs": [
        {
          "internalType": "string",
          "name": "",
          "type": "string"
        }
      ],
      "stateMutability": "view",
      "type": "function"
    },
    {
      "inputs": [],
      "name": "totalAssets",
      "outputs": [
        {
          "internalType": "uint256",
          "name": "",
          "type": "uint256"
        }
      ],
      "stateMutability": "view",
      "type": "function"
    },
    {
      "inputs": [],
      "name": "totalSupply",
      "outputs": [
        {
          "internalType": "uint256",
          "name": "",
          "type": "uint256"
        }
      ],
      "stateMutability": "view",
      "type": "function"
    },
    {
      "inputs": [
        {
          "internalType": "address",
          "name": "recipient",
          "type": "address"
        },
        {
          "internalType": "uint256",
          "name": "amount",
          "type": "uint256"
        }
      ],
      "name": "transfer",
      "outputs": [
        {
          "internalType": "bool",
          "name": "",
          "type": "bool"
        }
      ],
      "stateMutability": "nonpayable",
      "type": "function"
    },
    {
      "inputs": [
        {
          "internalType": "address",
          "name": "sender",
          "type": "address"
        },
        {
          "internalType": "address",
          "name": "recipient",
          "type": "address"
        },
        {
          "internalType": "uint256",
          "name": "amount",
          "type": "uint256"
        }
      ],
      "name": "transferFrom",
      "outputs": [
        {
          "internalType": "bool",
          "name": "",
          "type": "bool"
        }
      ],
      "stateMutability": "nonpayable",
      "type": "function"
    },
    {
      "inputs": [
        {
          "internalType": "address",
          "name": "newOwner",
          "type": "address"
        }
      ],
      "name": "transferOwnership",
      "outputs": [],
      "stateMutability": "nonpayable",
      "type": "function"
    },
    {
      "inputs": [
        {
          "internalType": "address",
          "name": "account",
          "type": "address"
        }
      ],
      "name": "unScaledbalanceOf",
      "outputs": [
        {
          "internalType": "uint256",
          "name": "",
          "type": "uint256"
        }
      ],
      "stateMutability": "view",
      "type": "function"
    },
    {
      "inputs": [
        {
          "internalType": "address",
          "name": "newImplementation",
          "type": "address"
        }
      ],
      "name": "upgradeTo",
      "outputs": [],
      "stateMutability": "nonpayable",
      "type": "function"
    },
    {
      "inputs": [
        {
          "internalType": "address",
          "name": "newImplementation",
          "type": "address"
        },
        {
          "internalType": "bytes",
          "name": "data",
          "type": "bytes"
        }
      ],
      "name": "upgradeToAndCall",
      "outputs": [],
      "stateMutability": "payable",
      "type": "function"
    },
    {
      "inputs": [
        {
          "internalType": "uint256",
          "name": "assets",
          "type": "uint256"
        },
        {
          "internalType": "address",
          "name": "receiver",
          "type": "address"
        },
        {
          "internalType": "address",
          "name": "owner_",
          "type": "address"
        }
      ],
      "name": "withdraw",
      "outputs": [
        {
          "internalType": "uint256",
          "name": "",
          "type": "uint256"
        }
      ],
      "stateMutability": "nonpayable",
      "type": "function"
    }
  ],
  "bytecode": "0x60a0604052306080523480156200001557600080fd5b506200002062000030565b6200002a62000030565b620000f1565b600054610100900460ff16156200009d5760405162461bcd60e51b815260206004820152602760248201527f496e697469616c697a61626c653a20636f6e747261637420697320696e697469604482015266616c697a696e6760c81b606482015260840160405180910390fd5b60005460ff90811614620000ef576000805460ff191660ff9081179091556040519081527f7f26b83ff96e1f2b6a682f133852f6798a09c465da95921460cefb38474024989060200160405180910390a15b565b608051614e31620001296000396000818161130c015281816113a7015281816115a00152818161163601526118f60152614e316000f3fe6080604052600436106103765760003560e01c80637dbaab62116101d1578063b460af9411610102578063d69f62e0116100a0578063e58127311161006f578063e58127311461096d578063ef8b30f7146103fc578063f2fde38b14610982578063fd6064b3146109a257600080fd5b8063d69f62e0146108fd578063d78f092114610912578063d905777e146108bd578063dd62ed3e1461092757600080fd5b8063c6e6f592116100dc578063c6e6f592146103fc578063c876a5c4146108a8578063ce96cb77146108bd578063d505accf146108dd57600080fd5b8063b460af9414610868578063ba08765214610888578063c63d75b6146105b757600080fd5b806394bf804d1161016f578063a457c2d711610149578063a457c2d7146107f6578063a9059cbb14610816578063b1dbfcee14610836578063b3d7f6b9146103fc57600080fd5b806394bf804d146107a157806395d89b41146107c15780639dc29fac146107d657600080fd5b806385f2eac0116101ab57806385f2eac0146107115780638da5cb5b146107445780638f4cef0c14610762578063925d6ba21461078257600080fd5b80637dbaab62146106a95780637ecebe00146106c957806384b0196e146106e957600080fd5b80633644e515116102ab57806350921b23116102495780636a300529116102235780636a3005291461063f5780636e553f651461065457806370a0823114610674578063715018a61461069457600080fd5b806350921b23146105ea57806352d1902d1461060a5780635f758bef1461061f57600080fd5b806339509351116102855780633950935114610597578063402d267d146105b75780634cdad506146103fc5780634f1ef286146105d757600080fd5b80633644e5151461052f5780633659cfe61461054457806338d52e0f1461056457600080fd5b806316b535f41161031857806323b872dd116102f257806323b872dd146104b35780632ec34d38146104d3578063313ce567146104f357806334e495311461050f57600080fd5b806316b535f41461044a57806318160ddd1461046a5780631fc44f021461047f57600080fd5b806306fdde031161035457806306fdde03146103da57806307a2d13a146103fc578063095ea7b31461041a5780630a28a477146103fc57600080fd5b806301e1d1141461037b578063030d4ed7146103a357806305bfee33146103ba575b600080fd5b34801561038757600080fd5b506103906109d3565b6040519081526020015b60405180910390f35b3480156103af57600080fd5b506103b8610a68565b005b3480156103c657600080fd5b506103b86103d5366004614550565b610a9b565b3480156103e657600080fd5b506103ef610b51565b60405161039a91906145ea565b34801561040857600080fd5b506103906104173660046145fd565b90565b34801561042657600080fd5b5061043a610435366004614550565b610be3565b604051901515815260200161039a565b34801561045657600080fd5b506103b8610465366004614550565b610bfd565b34801561047657600080fd5b5060cb54610390565b34801561048b57600080fd5b506101625477010000000000000000000000000000000000000000000000900460ff1661043a565b3480156104bf57600080fd5b5061043a6104ce366004614616565b610cb6565b3480156104df57600080fd5b5061043a6104ee366004614657565b611053565b3480156104ff57600080fd5b506040516012815260200161039a565b34801561051b57600080fd5b506103b861052a366004614674565b61116b565b34801561053b57600080fd5b506103906112f8565b34801561055057600080fd5b506103b861055f366004614657565b611302565b34801561057057600080fd5b50610196546001600160a01b03165b6040516001600160a01b03909116815260200161039a565b3480156105a357600080fd5b5061043a6105b2366004614550565b6114a4565b3480156105c357600080fd5b506103906105d2366004614657565b6114e3565b6103b86105e5366004614770565b611596565b3480156105f657600080fd5b506103906106053660046147e5565b611720565b34801561061657600080fd5b506103906118e9565b34801561062b57600080fd5b506103b861063a366004614550565b6119ae565b34801561064b57600080fd5b506103b86119c0565b34801561066057600080fd5b5061039061066f36600461483f565b611a18565b34801561068057600080fd5b5061039061068f366004614657565b611b27565b3480156106a057600080fd5b506103b8611c07565b3480156106b557600080fd5b506103b86106c4366004614892565b611c1b565b3480156106d557600080fd5b506103906106e4366004614657565b611ec0565b3480156106f557600080fd5b506106fe611edf565b60405161039a9796959493929190614930565b34801561071d57600080fd5b5061016254760100000000000000000000000000000000000000000000900460ff1661043a565b34801561075057600080fd5b506097546001600160a01b031661057f565b34801561076e57600080fd5b5061039061077d366004614657565b611fa1565b34801561078e57600080fd5b50610195546001600160a01b031661057f565b3480156107ad57600080fd5b506103906107bc36600461483f565b611fbf565b3480156107cd57600080fd5b506103ef612102565b3480156107e257600080fd5b506103b86107f1366004614550565b612111565b34801561080257600080fd5b5061043a610811366004614550565b612123565b34801561082257600080fd5b5061043a610831366004614550565b6121d8565b34801561084257600080fd5b50610162547501000000000000000000000000000000000000000000900460ff1661043a565b34801561087457600080fd5b506103906108833660046149e2565b61257e565b34801561089457600080fd5b506103906108a33660046149e2565b612857565b3480156108b457600080fd5b506103b8612aec565b3480156108c957600080fd5b506103906108d8366004614657565b612b45565b3480156108e957600080fd5b506103b86108f8366004614a24565b612bce565b34801561090957600080fd5b506103b8612d32565b34801561091e57600080fd5b506103b8612d7f565b34801561093357600080fd5b50610390610942366004614674565b6001600160a01b03918216600090815260ca6020908152604080832093909416825291909152205490565b34801561097957600080fd5b506103b8612dd5565b34801561098e57600080fd5b506103b861099d366004614657565b612e2c565b3480156109ae57600080fd5b506101625474010000000000000000000000000000000000000000900460ff1661043a565b61019654610195546040517f70a082310000000000000000000000000000000000000000000000000000000081526001600160a01b03918216600482015260009291909116906370a0823190602401602060405180830381865afa158015610a3f573d6000803e3d6000fd5b505050506040513d601f19601f82011682018060405250810190610a639190614a92565b905090565b610a70612eb9565b61016280547fffffffffffffffff00000000ffffffffffffffffffffffffffffffffffffffff169055565b610aa3612f13565b61019554610196546040517fd1273d9e0000000000000000000000000000000000000000000000000000000081527401000000000000000000000000000000000000000090910460ff1615156004820152602481018390526001600160a01b039091169063d1273d9e90604401600060405180830381600087803b158015610b2a57600080fd5b505af1158015610b3e573d6000803e3d6000fd5b50505050610b4c8282612f61565b505050565b606060cc8054610b6090614aab565b80601f0160208091040260200160405190810160405280929190818152602001828054610b8c90614aab565b8015610bd95780601f10610bae57610100808354040283529160200191610bd9565b820191906000526020600020905b815481529060010190602001808311610bbc57829003601f168201915b5050505050905090565b600033610bf1818585612f76565b60019150505b92915050565b610c05612f13565b61019554610196546040517facde9b2a0000000000000000000000000000000000000000000000000000000081527401000000000000000000000000000000000000000090910460ff16151560048201526001600160a01b038481166024830152604482018490529091169063acde9b2a90606401600060405180830381600087803b158015610c9457600080fd5b505af1158015610ca8573d6000803e3d6000fd5b50505050610b4c82826130ce565b61016254600090760100000000000000000000000000000000000000000000900460ff1615610d11576040517f64c7350800000000000000000000000000000000000000000000000000000000815260040160405180910390fd5b610162546040517fdf592f7d0000000000000000000000000000000000000000000000000000000081526001600160a01b03808616600483015285921690600090829063df592f7d90602401602060405180830381865afa158015610d7a573d6000803e3d6000fd5b505050506040513d601f19601f82011682018060405250810190610d9e9190614af8565b90508015610dd8576040517f4229fac400000000000000000000000000000000000000000000000000000000815260040160405180910390fd5b610162546040517fdf592f7d0000000000000000000000000000000000000000000000000000000081526001600160a01b03808a16600483015289921690600090829063df592f7d90602401602060405180830381865afa158015610e41573d6000803e3d6000fd5b505050506040513d601f19601f82011682018060405250810190610e659190614af8565b90508015610e9f576040517f4229fac400000000000000000000000000000000000000000000000000000000815260040160405180910390fd5b610ea98a8a61116b565b610195546040517fd493e78c0000000000000000000000000000000000000000000000000000000081526001600160a01b038c811660048301528b81166024830152600092169063d493e78c90604401608060405180830381865afa158015610f16573d6000803e3d6000fd5b505050506040513d601f19601f82011682018060405250810190610f3a9190614b15565b90506000610f498c8c8c6130da565b61019554610196549192506001600160a01b03169063eec0d656908e908e9074010000000000000000000000000000000000000000900460ff168e8760006020020151886001602002015189600260200201518a600360200201516040517fffffffff0000000000000000000000000000000000000000000000000000000060e08b901b1681526001600160a01b03988916600482015297909616602488015293151560448701526064860192909252608485015260a484015260c483015260e482015261010401600060405180830381600087803b15801561102b57600080fd5b505af115801561103f573d6000803e3d6000fd5b50929e9d5050505050505050505050505050565b61019554604080517f6a41407600000000000000000000000000000000000000000000000000000000815290516000926001600160a01b031691636a4140769160048083019260209291908290030181865afa1580156110b7573d6000803e3d6000fd5b505050506040513d601f19601f820116820180604052508101906110db9190614a92565b610195546040517f7b69ce2f0000000000000000000000000000000000000000000000000000000081526001600160a01b03858116600483015290911690637b69ce2f90602401602060405180830381865afa15801561113f573d6000803e3d6000fd5b505050506040513d601f19601f820116820180604052508101906111639190614a92565b141592915050565b61117482611053565b156111f357610195546040517f26720aa60000000000000000000000000000000000000000000000000000000081526001600160a01b038481166004830152909116906326720aa690602401600060405180830381600087803b1580156111da57600080fd5b505af11580156111ee573d6000803e3d6000fd5b505050505b610195546040517fb722d6a40000000000000000000000000000000000000000000000000000000081526001600160a01b0383811660048301529091169063b722d6a490602401600060405180830381600087803b15801561125457600080fd5b505af1158015611268573d6000803e3d6000fd5b5050505061127581611053565b156112f457610195546040517f26720aa60000000000000000000000000000000000000000000000000000000081526001600160a01b038381166004830152909116906326720aa690602401600060405180830381600087803b1580156112db57600080fd5b505af11580156112ef573d6000803e3d6000fd5b505050505b5050565b6000610a636130f3565b6001600160a01b037f00000000000000000000000000000000000000000000000000000000000000001630036113a55760405162461bcd60e51b815260206004820152602c60248201527f46756e6374696f6e206d7573742062652063616c6c6564207468726f7567682060448201527f64656c656761746563616c6c000000000000000000000000000000000000000060648201526084015b60405180910390fd5b7f00000000000000000000000000000000000000000000000000000000000000006001600160a01b03166114007f360894a13ba1a3210667c828492db98dca3e2076cc3735a920a3ca505d382bbc546001600160a01b031690565b6001600160a01b03161461147c5760405162461bcd60e51b815260206004820152602c60248201527f46756e6374696f6e206d7573742062652063616c6c6564207468726f7567682060448201527f6163746976652070726f78790000000000000000000000000000000000000000606482015260840161139c565b611485816130fd565b604080516000808252602082019092526114a191839190613105565b50565b33600081815260ca602090815260408083206001600160a01b0387168452909152812054909190610bf190829086906114de908790614bc2565b612f76565b610195546040517f728bf7330000000000000000000000000000000000000000000000000000000081526001600160a01b038381166004830152600092169063728bf73390602401602060405180830381865afa158015611548573d6000803e3d6000fd5b505050506040513d601f19601f8201168201806040525081019061156c9190614a92565b610bf7907fffffffffffffffffffffffffffffffffffffffffffffffffffffffffffffffff614bd5565b6001600160a01b037f00000000000000000000000000000000000000000000000000000000000000001630036116345760405162461bcd60e51b815260206004820152602c60248201527f46756e6374696f6e206d7573742062652063616c6c6564207468726f7567682060448201527f64656c656761746563616c6c0000000000000000000000000000000000000000606482015260840161139c565b7f00000000000000000000000000000000000000000000000000000000000000006001600160a01b031661168f7f360894a13ba1a3210667c828492db98dca3e2076cc3735a920a3ca505d382bbc546001600160a01b031690565b6001600160a01b03161461170b5760405162461bcd60e51b815260206004820152602c60248201527f46756e6374696f6e206d7573742062652063616c6c6564207468726f7567682060448201527f6163746976652070726f78790000000000000000000000000000000000000000606482015260840161139c565b611714826130fd565b6112f482826001613105565b6101625460009074010000000000000000000000000000000000000000900460ff1615611779576040517fd045d9d600000000000000000000000000000000000000000000000000000000815260040160405180910390fd5b868661178582826132c3565b600089610196549091506001600160a01b031663d505accf336101955460405160e084901b7fffffffff000000000000000000000000000000000000000000000000000000001681526001600160a01b0392831660048201529116602482015260448101849052606481018b905260ff8a16608482015260a4810189905260c4810188905260e401600060405180830381600087803b15801561182757600080fd5b505af115801561183b573d6000803e3d6000fd5b5050610195546001600160a01b0316915063c14cfe099050336040517fffffffff0000000000000000000000000000000000000000000000000000000060e084901b1681526001600160a01b039182166004820152908c166024820152604481018d905260648101849052608401600060405180830381600087803b1580156118c357600080fd5b505af11580156118d7573d6000803e3d6000fd5b50929c9b505050505050505050505050565b6000306001600160a01b037f000000000000000000000000000000000000000000000000000000000000000016146119895760405162461bcd60e51b815260206004820152603860248201527f555550535570677261646561626c653a206d757374206e6f742062652063616c60448201527f6c6564207468726f7567682064656c656761746563616c6c0000000000000000606482015260840161139c565b507f360894a13ba1a3210667c828492db98dca3e2076cc3735a920a3ca505d382bbc90565b6119b6612f13565b6112f4828261333f565b6119c8612eb9565b61016280547fffffffffffffffffff00ffffffffffffffffffffffffffffffffffffffffffff81167601000000000000000000000000000000000000000000009182900460ff1615909102179055565b6101625460009074010000000000000000000000000000000000000000900460ff1615611a71576040517fd045d9d600000000000000000000000000000000000000000000000000000000815260040160405180910390fd5b8282611a7d82826132c3565b600085610195549091506001600160a01b031663c14cfe09336040517fffffffff0000000000000000000000000000000000000000000000000000000060e084901b1681526001600160a01b03918216600482015290881660248201526044810189905260648101849052608401600060405180830381600087803b158015611b0557600080fd5b505af1158015611b19573d6000803e3d6000fd5b509298975050505050505050565b6000611b3282611053565b15611bf957610195546040517fa4d96e170000000000000000000000000000000000000000000000000000000081526001600160a01b038481166004830152600092839291169063a4d96e17906024016040805180830381865afa158015611b9e573d6000803e3d6000fd5b505050506040513d601f19601f82011682018060405250810190611bc29190614be8565b61019654919350915074010000000000000000000000000000000000000000900460ff1615611bf2575092915050565b9392505050565b610bf782611fa1565b919050565b611c0f612eb9565b611c196000613400565b565b600054610100900460ff1615808015611c3b5750600054600160ff909116105b80611c555750303b158015611c55575060005460ff166001145b611cc75760405162461bcd60e51b815260206004820152602e60248201527f496e697469616c697a61626c653a20636f6e747261637420697320616c72656160448201527f647920696e697469616c697a6564000000000000000000000000000000000000606482015260840161139c565b600080547fffffffffffffffffffffffffffffffffffffffffffffffffffffffffffffff001660011790558015611d2557600080547fffffffffffffffffffffffffffffffffffffffffffffffffffffffffffff00ff166101001790555b611d2f868661346a565b611d38866134f1565b611d41836135ad565b611d49613665565b611d516136ea565b61019580547fffffffffffffffffffffffff0000000000000000000000000000000000000000166001600160a01b038616908117909155604080517f98acd7a600000000000000000000000000000000000000000000000000000000815290516398acd7a6916004808201926020929091908290030181865afa158015611ddc573d6000803e3d6000fd5b505050506040513d601f19601f82011682018060405250810190611e009190614c0c565b61019680546001600160a01b03929092167fffffffffffffffffffffff00000000000000000000000000000000000000000090921691909117740100000000000000000000000000000000000000008415150217905580156112ef57600080547fffffffffffffffffffffffffffffffffffffffffffffffffffffffffffff00ff169055604051600181527f7f26b83ff96e1f2b6a682f133852f6798a09c465da95921460cefb38474024989060200160405180910390a1505050505050565b6001600160a01b038116600090815261012f6020526040812054610bf7565b60006060806000806000606060fb546000801b148015611eff575060fc54155b611f4b5760405162461bcd60e51b815260206004820152601560248201527f4549503731323a20556e696e697469616c697a65640000000000000000000000604482015260640161139c565b611f53613767565b611f5b613776565b604080516000808252602082019092527f0f000000000000000000000000000000000000000000000000000000000000009b939a50919850469750309650945092509050565b6001600160a01b038116600090815260c96020526040812054610bf7565b6101625460009074010000000000000000000000000000000000000000900460ff1615612018576040517fd045d9d600000000000000000000000000000000000000000000000000000000815260040160405180910390fd5b612021826114e3565b83111561205a576040517f292b120100000000000000000000000000000000000000000000000000000000815260040160405180910390fd5b600083610195549091506001600160a01b031663c14cfe09336040517fffffffff0000000000000000000000000000000000000000000000000000000060e084901b1681526001600160a01b03918216600482015290861660248201526044810184905260648101879052608401600060405180830381600087803b1580156120e257600080fd5b505af11580156120f6573d6000803e3d6000fd5b50929695505050505050565b606060cd8054610b6090614aab565b612119612f13565b6112f48282613785565b33600081815260ca602090815260408083206001600160a01b0387168452909152812054909190838110156121c05760405162461bcd60e51b815260206004820152602560248201527f45524332303a2064656372656173656420616c6c6f77616e63652062656c6f7760448201527f207a65726f000000000000000000000000000000000000000000000000000000606482015260840161139c565b6121cd8286868403612f76565b506001949350505050565b61016254600090760100000000000000000000000000000000000000000000900460ff1615612233576040517f64c7350800000000000000000000000000000000000000000000000000000000815260040160405180910390fd5b610162546040517fdf592f7d0000000000000000000000000000000000000000000000000000000081526001600160a01b03808616600483015285921690600090829063df592f7d90602401602060405180830381865afa15801561229c573d6000803e3d6000fd5b505050506040513d601f19601f820116820180604052508101906122c09190614af8565b905080156122fa576040517f4229fac400000000000000000000000000000000000000000000000000000000815260040160405180910390fd5b33610162546040517fdf592f7d0000000000000000000000000000000000000000000000000000000081526001600160a01b03838116600483015290911690600090829063df592f7d90602401602060405180830381865afa158015612364573d6000803e3d6000fd5b505050506040513d601f19601f820116820180604052508101906123889190614af8565b905080156123c2576040517f4229fac400000000000000000000000000000000000000000000000000000000815260040160405180910390fd5b6123cc338a61116b565b610195546000906001600160a01b031663d493e78c336040517fffffffff0000000000000000000000000000000000000000000000000000000060e084901b1681526001600160a01b039182166004820152908d166024820152604401608060405180830381865afa158015612446573d6000803e3d6000fd5b505050506040513d601f19601f8201168201806040525081019061246a9190614b15565b905060006124788b8b6138f0565b610195549091506001600160a01b031663eec0d65633610196548e9074010000000000000000000000000000000000000000900460ff168e8760006020020151886001602002015189600260200201518a600360200201516040517fffffffff0000000000000000000000000000000000000000000000000000000060e08b901b1681526001600160a01b03988916600482015297909616602488015293151560448701526064860192909252608485015260a484015260c483015260e482015261010401600060405180830381600087803b15801561255757600080fd5b505af115801561256b573d6000803e3d6000fd5b50929d9c50505050505050505050505050565b610162546000907501000000000000000000000000000000000000000000900460ff16156125d8576040517fc689af6e00000000000000000000000000000000000000000000000000000000815260040160405180910390fd5b816125e2816138fe565b6125ea613940565b61019560009054906101000a90046001600160a01b03166001600160a01b0316636a4140766040518163ffffffff1660e01b8152600401602060405180830381865afa15801561263e573d6000803e3d6000fd5b505050506040513d601f19601f820116820180604052508101906126629190614a92565b610195546040517f7b69ce2f0000000000000000000000000000000000000000000000000000000081526001600160a01b03878116600483015290911690637b69ce2f90602401602060405180830381865afa1580156126c6573d6000803e3d6000fd5b505050506040513d601f19601f820116820180604052508101906126ea9190614a92565b1461276957610195546040517f26720aa60000000000000000000000000000000000000000000000000000000081526001600160a01b038681166004830152909116906326720aa690602401600060405180830381600087803b15801561275057600080fd5b505af1158015612764573d6000803e3d6000fd5b505050505b61277283612b45565b8511156127ab576040517f1cf754b800000000000000000000000000000000000000000000000000000000815260040160405180910390fd5b610195546040517f3d82850b0000000000000000000000000000000000000000000000000000000081523360048201526001600160a01b0386811660248301528581166044830152606482018890526084820188905287921690633d82850b9060a4015b600060405180830381600087803b15801561282957600080fd5b505af115801561283d573d6000803e3d6000fd5b5092945050505061284f600161016355565b509392505050565b610162546000907501000000000000000000000000000000000000000000900460ff16156128b1576040517fc689af6e00000000000000000000000000000000000000000000000000000000815260040160405180910390fd5b816128bb816138fe565b6128c3613940565b61019560009054906101000a90046001600160a01b03166001600160a01b0316636a4140766040518163ffffffff1660e01b8152600401602060405180830381865afa158015612917573d6000803e3d6000fd5b505050506040513d601f19601f8201168201806040525081019061293b9190614a92565b610195546040517f7b69ce2f0000000000000000000000000000000000000000000000000000000081526001600160a01b03878116600483015290911690637b69ce2f90602401602060405180830381865afa15801561299f573d6000803e3d6000fd5b505050506040513d601f19601f820116820180604052508101906129c39190614a92565b14612a4257610195546040517f26720aa60000000000000000000000000000000000000000000000000000000081526001600160a01b038681166004830152909116906326720aa690602401600060405180830381600087803b158015612a2957600080fd5b505af1158015612a3d573d6000803e3d6000fd5b505050505b612a4b83612b45565b851115612a84576040517f89e4c16300000000000000000000000000000000000000000000000000000000815260040160405180910390fd5b610195546040517f3d82850b0000000000000000000000000000000000000000000000000000000081523360048201526001600160a01b0386811660248301528581166044830152606482018890526084820188905287921690633d82850b9060a40161280f565b612af4612eb9565b61016280547fffffffffffffffff00ffffffffffffffffffffffffffffffffffffffffffffff8116770100000000000000000000000000000000000000000000009182900460ff1615909102179055565b610195546040517fc887e8a00000000000000000000000000000000000000000000000000000000081526001600160a01b038381166004830152600092169063c887e8a090602401602060405180830381865afa158015612baa573d6000803e3d6000fd5b505050506040513d601f19601f82011682018060405250810190610bf79190614a92565b83421115612c1e5760405162461bcd60e51b815260206004820152601d60248201527f45524332305065726d69743a206578706972656420646561646c696e65000000604482015260640161139c565b60007f6e71edae12b1b97f4d1f60370fef10105fa2faae0126114a169c64845d6126c9888888612c4d8c61399b565b6040805160208101969096526001600160a01b0394851690860152929091166060840152608083015260a082015260c0810186905260e0016040516020818303038152906040528051906020012090506000612ca8826139c4565b90506000612cb882878787613a0c565b9050896001600160a01b0316816001600160a01b031614612d1b5760405162461bcd60e51b815260206004820152601e60248201527f45524332305065726d69743a20696e76616c6964207369676e61747572650000604482015260640161139c565b612d268a8a8a612f76565b50505050505050505050565b612d3a612eb9565b61016280547fffffffffffffffff00000000ffffffffffffffffffffffffffffffffffffffff1677010101010000000000000000000000000000000000000000179055565b612d87612eb9565b61016280547fffffffffffffffffffffff00ffffffffffffffffffffffffffffffffffffffff8116740100000000000000000000000000000000000000009182900460ff1615909102179055565b612ddd612eb9565b61016280547fffffffffffffffffffff00ffffffffffffffffffffffffffffffffffffffffff811675010000000000000000000000000000000000000000009182900460ff1615909102179055565b612e34612eb9565b6001600160a01b038116612eb05760405162461bcd60e51b815260206004820152602660248201527f4f776e61626c653a206e6577206f776e657220697320746865207a65726f206160448201527f6464726573730000000000000000000000000000000000000000000000000000606482015260840161139c565b6114a181613400565b6097546001600160a01b03163314611c195760405162461bcd60e51b815260206004820181905260248201527f4f776e61626c653a2063616c6c6572206973206e6f7420746865206f776e6572604482015260640161139c565b610195546001600160a01b0316336001600160a01b031614611c19576040517fe565d9cb00000000000000000000000000000000000000000000000000000000815260040160405180910390fd5b6000612f6d8383613a36565b50600192915050565b6001600160a01b038316612ff15760405162461bcd60e51b8152602060048201526024808201527f45524332303a20617070726f76652066726f6d20746865207a65726f2061646460448201527f7265737300000000000000000000000000000000000000000000000000000000606482015260840161139c565b6001600160a01b03821661306d5760405162461bcd60e51b815260206004820152602260248201527f45524332303a20617070726f766520746f20746865207a65726f20616464726560448201527f7373000000000000000000000000000000000000000000000000000000000000606482015260840161139c565b6001600160a01b03838116600081815260ca602090815260408083209487168084529482529182902085905590518481527f8c5be1e5ebec7d5bd14f71427d1e84f3dd0314c0f7b2291e5b200ac8c7c3b925910160405180910390a3505050565b6000612f6d8383613aae565b6000336130e8858285613b20565b6121cd858585613bd0565b6000610a63613dc4565b6114a1612eb9565b7f4910fdfa16fed3260ed0e7147f7cc6da11a60208b5b9406d12a635614ffd91435460ff161561313857610b4c83613e38565b826001600160a01b03166352d1902d6040518163ffffffff1660e01b8152600401602060405180830381865afa9250505080156131b0575060408051601f3d9081017fffffffffffffffffffffffffffffffffffffffffffffffffffffffffffffffe01682019092526131ad91810190614a92565b60015b6132225760405162461bcd60e51b815260206004820152602e60248201527f45524331393637557067726164653a206e657720696d706c656d656e7461746960448201527f6f6e206973206e6f742055555053000000000000000000000000000000000000606482015260840161139c565b7f360894a13ba1a3210667c828492db98dca3e2076cc3735a920a3ca505d382bbc81146132b75760405162461bcd60e51b815260206004820152602960248201527f45524331393637557067726164653a20756e737570706f727465642070726f7860448201527f6961626c65555549440000000000000000000000000000000000000000000000606482015260840161139c565b50610b4c838383613f0e565b816000036132fd576040517f7c7c872000000000000000000000000000000000000000000000000000000000815260040160405180910390fd5b613306816114e3565b8211156112f4576040517f14a4b53500000000000000000000000000000000000000000000000000000000815260040160405180910390fd5b6001600160a01b0382166133955760405162461bcd60e51b815260206004820152601f60248201527f45524332303a206d696e7420746f20746865207a65726f206164647265737300604482015260640161139c565b8060cb60008282546133a79190614bc2565b90915550506001600160a01b038216600081815260c960209081526040808320805486019055518481527fddf252ad1be2c89b69c2b068fc378daa952ba7f163c4a11628f55a4df523b3ef910160405180910390a35050565b609780546001600160a01b038381167fffffffffffffffffffffffff0000000000000000000000000000000000000000831681179093556040519116919082907f8be0079c531659141344cd1fd0a4f28419497f9722a3daafe3b4186f6b6457e090600090a35050565b600054610100900460ff166134e75760405162461bcd60e51b815260206004820152602b60248201527f496e697469616c697a61626c653a20636f6e7472616374206973206e6f74206960448201527f6e697469616c697a696e67000000000000000000000000000000000000000000606482015260840161139c565b6112f48282613f33565b600054610100900460ff1661356e5760405162461bcd60e51b815260206004820152602b60248201527f496e697469616c697a61626c653a20636f6e7472616374206973206e6f74206960448201527f6e697469616c697a696e67000000000000000000000000000000000000000000606482015260840161139c565b6114a1816040518060400160405280600181526020017f3100000000000000000000000000000000000000000000000000000000000000815250613fc9565b600054610100900460ff1661362a5760405162461bcd60e51b815260206004820152602b60248201527f496e697469616c697a61626c653a20636f6e7472616374206973206e6f74206960448201527f6e697469616c697a696e67000000000000000000000000000000000000000000606482015260840161139c565b61016280547fffffffffffffffffffffffff0000000000000000000000000000000000000000166001600160a01b0392909216919091179055565b600054610100900460ff166136e25760405162461bcd60e51b815260206004820152602b60248201527f496e697469616c697a61626c653a20636f6e7472616374206973206e6f74206960448201527f6e697469616c697a696e67000000000000000000000000000000000000000000606482015260840161139c565b611c1961406e565b600054610100900460ff16611c195760405162461bcd60e51b815260206004820152602b60248201527f496e697469616c697a61626c653a20636f6e7472616374206973206e6f74206960448201527f6e697469616c697a696e67000000000000000000000000000000000000000000606482015260840161139c565b606060fd8054610b6090614aab565b606060fe8054610b6090614aab565b6001600160a01b0382166138015760405162461bcd60e51b815260206004820152602160248201527f45524332303a206275726e2066726f6d20746865207a65726f2061646472657360448201527f7300000000000000000000000000000000000000000000000000000000000000606482015260840161139c565b6001600160a01b038216600090815260c96020526040902054818110156138905760405162461bcd60e51b815260206004820152602260248201527f45524332303a206275726e20616d6f756e7420657863656564732062616c616e60448201527f6365000000000000000000000000000000000000000000000000000000000000606482015260840161139c565b6001600160a01b038316600081815260c960209081526040808320868603905560cb80548790039055518581529192917fddf252ad1be2c89b69c2b068fc378daa952ba7f163c4a11628f55a4df523b3ef910160405180910390a3505050565b600033610bf1818585613bd0565b6001600160a01b03811633146114a1576040517f7a45e68500000000000000000000000000000000000000000000000000000000815260040160405180910390fd5b600261016354036139935760405162461bcd60e51b815260206004820152601f60248201527f5265656e7472616e637947756172643a207265656e7472616e742063616c6c00604482015260640161139c565b600261016355565b6001600160a01b038116600090815261012f602052604090208054600181018255905b50919050565b6000610bf76139d16130f3565b836040517f19010000000000000000000000000000000000000000000000000000000000008152600281019290925260228201526042902090565b6000806000613a1d878787876140f4565b91509150613a2a816141d6565b5090505b949350505050565b6001600160a01b038216613a8c5760405162461bcd60e51b815260206004820152601c60248201527f54726561737572792063616e6e6f74206265207a65726f206164647200000000604482015260640161139c565b6001600160a01b03909116600090815260c96020526040902080549091019055565b6001600160a01b038216613b045760405162461bcd60e51b815260206004820152601b60248201527f416464726573732063616e6e6f74206265207a65726f20616464720000000000604482015260640161139c565b6001600160a01b03909116600090815260c96020526040902055565b6001600160a01b03838116600090815260ca60209081526040808320938616835292905220547fffffffffffffffffffffffffffffffffffffffffffffffffffffffffffffffff8114613bca5781811015613bbd5760405162461bcd60e51b815260206004820152601d60248201527f45524332303a20696e73756666696369656e7420616c6c6f77616e6365000000604482015260640161139c565b613bca8484848403612f76565b50505050565b6001600160a01b038316613c4c5760405162461bcd60e51b815260206004820152602560248201527f45524332303a207472616e736665722066726f6d20746865207a65726f20616460448201527f6472657373000000000000000000000000000000000000000000000000000000606482015260840161139c565b6001600160a01b038216613cc85760405162461bcd60e51b815260206004820152602360248201527f45524332303a207472616e7366657220746f20746865207a65726f206164647260448201527f6573730000000000000000000000000000000000000000000000000000000000606482015260840161139c565b6001600160a01b038316600090815260c9602052604090205481811015613d575760405162461bcd60e51b815260206004820152602660248201527f45524332303a207472616e7366657220616d6f756e742065786365656473206260448201527f616c616e63650000000000000000000000000000000000000000000000000000606482015260840161139c565b6001600160a01b03808516600081815260c9602052604080822086860390559286168082529083902080548601905591517fddf252ad1be2c89b69c2b068fc378daa952ba7f163c4a11628f55a4df523b3ef90613db79086815260200190565b60405180910390a3613bca565b60007f8b73c3c69bb8fe3d512ecc4cf759cc79239f7b179b0ffacaa9a75d522b39400f613def61433b565b613df7614394565b60408051602081019490945283019190915260608201524660808201523060a082015260c00160405160208183030381529060405280519060200120905090565b6001600160a01b0381163b613eb55760405162461bcd60e51b815260206004820152602d60248201527f455243313936373a206e657720696d706c656d656e746174696f6e206973206e60448201527f6f74206120636f6e747261637400000000000000000000000000000000000000606482015260840161139c565b7f360894a13ba1a3210667c828492db98dca3e2076cc3735a920a3ca505d382bbc80547fffffffffffffffffffffffff0000000000000000000000000000000000000000166001600160a01b0392909216919091179055565b613f17836143c5565b600082511180613f245750805b15610b4c57613bca8383614405565b600054610100900460ff16613fb05760405162461bcd60e51b815260206004820152602b60248201527f496e697469616c697a61626c653a20636f6e7472616374206973206e6f74206960448201527f6e697469616c697a696e67000000000000000000000000000000000000000000606482015260840161139c565b60cc613fbc8382614c6f565b5060cd610b4c8282614c6f565b600054610100900460ff166140465760405162461bcd60e51b815260206004820152602b60248201527f496e697469616c697a61626c653a20636f6e7472616374206973206e6f74206960448201527f6e697469616c697a696e67000000000000000000000000000000000000000000606482015260840161139c565b60fd6140528382614c6f565b5060fe61405f8282614c6f565b5050600060fb81905560fc5550565b600054610100900460ff166140eb5760405162461bcd60e51b815260206004820152602b60248201527f496e697469616c697a61626c653a20636f6e7472616374206973206e6f74206960448201527f6e697469616c697a696e67000000000000000000000000000000000000000000606482015260840161139c565b611c1933613400565b6000807f7fffffffffffffffffffffffffffffff5d576e7357a4501ddfe92f46681b20a083111561412b57506000905060036141cd565b6040805160008082526020820180845289905260ff881692820192909252606081018690526080810185905260019060a0016020604051602081039080840390855afa15801561417f573d6000803e3d6000fd5b50506040517fffffffffffffffffffffffffffffffffffffffffffffffffffffffffffffffe001519150506001600160a01b0381166141c6576000600192509250506141cd565b9150600090505b94509492505050565b60008160048111156141ea576141ea614d89565b036141f25750565b600181600481111561420657614206614d89565b036142535760405162461bcd60e51b815260206004820152601860248201527f45434453413a20696e76616c6964207369676e61747572650000000000000000604482015260640161139c565b600281600481111561426757614267614d89565b036142b45760405162461bcd60e51b815260206004820152601f60248201527f45434453413a20696e76616c6964207369676e6174757265206c656e67746800604482015260640161139c565b60038160048111156142c8576142c8614d89565b036114a15760405162461bcd60e51b815260206004820152602260248201527f45434453413a20696e76616c6964207369676e6174757265202773272076616c60448201527f7565000000000000000000000000000000000000000000000000000000000000606482015260840161139c565b600080614346613767565b80519091501561435d578051602090910120919050565b60fb54801561436c5792915050565b7fc5d2460186f7233c927e7db2dcc703c0e500b653ca82273b7bfad8045d85a4709250505090565b60008061439f613776565b8051909150156143b6578051602090910120919050565b60fc54801561436c5792915050565b6143ce81613e38565b6040516001600160a01b038216907fbc7cd75a20ee27fd9adebab32041f755214dbc6bffa90cc0225b39da2e5c2d3b90600090a250565b6060611bf28383604051806060016040528060278152602001614dd5602791396060600080856001600160a01b0316856040516144429190614db8565b600060405180830381855af49150503d806000811461447d576040519150601f19603f3d011682016040523d82523d6000602084013e614482565b606091505b50915091506144938683838761449d565b9695505050505050565b6060831561450c578251600003614505576001600160a01b0385163b6145055760405162461bcd60e51b815260206004820152601d60248201527f416464726573733a2063616c6c20746f206e6f6e2d636f6e7472616374000000604482015260640161139c565b5081613a2e565b613a2e83838151156145215781518083602001fd5b8060405162461bcd60e51b815260040161139c91906145ea565b6001600160a01b03811681146114a157600080fd5b6000806040838503121561456357600080fd5b823561456e8161453b565b946020939093013593505050565b60005b8381101561459757818101518382015260200161457f565b50506000910152565b600081518084526145b881602086016020860161457c565b601f017fffffffffffffffffffffffffffffffffffffffffffffffffffffffffffffffe0169290920160200192915050565b602081526000611bf260208301846145a0565b60006020828403121561460f57600080fd5b5035919050565b60008060006060848603121561462b57600080fd5b83356146368161453b565b925060208401356146468161453b565b929592945050506040919091013590565b60006020828403121561466957600080fd5b8135611bf28161453b565b6000806040838503121561468757600080fd5b82356146928161453b565b915060208301356146a28161453b565b809150509250929050565b7f4e487b7100000000000000000000000000000000000000000000000000000000600052604160045260246000fd5b600067ffffffffffffffff808411156146f7576146f76146ad565b604051601f85017fffffffffffffffffffffffffffffffffffffffffffffffffffffffffffffffe0908116603f0116810190828211818310171561473d5761473d6146ad565b8160405280935085815286868601111561475657600080fd5b858560208301376000602087830101525050509392505050565b6000806040838503121561478357600080fd5b823561478e8161453b565b9150602083013567ffffffffffffffff8111156147aa57600080fd5b8301601f810185136147bb57600080fd5b6147ca858235602084016146dc565b9150509250929050565b803560ff81168114611c0257600080fd5b60008060008060008060c087890312156147fe57600080fd5b8635955060208701356148108161453b565b945060408701359350614825606088016147d4565b92506080870135915060a087013590509295509295509295565b6000806040838503121561485257600080fd5b8235915060208301356146a28161453b565b600082601f83011261487557600080fd5b611bf2838335602085016146dc565b80151581146114a157600080fd5b600080600080600060a086880312156148aa57600080fd5b853567ffffffffffffffff808211156148c257600080fd5b6148ce89838a01614864565b965060208801359150808211156148e457600080fd5b506148f188828901614864565b94505060408601356149028161453b565b925060608601356149128161453b565b9150608086013561492281614884565b809150509295509295909350565b7fff00000000000000000000000000000000000000000000000000000000000000881681526000602060e08184015261496c60e084018a6145a0565b838103604085015261497e818a6145a0565b606085018990526001600160a01b038816608086015260a0850187905284810360c0860152855180825283870192509083019060005b818110156149d0578351835292840192918401916001016149b4565b50909c9b505050505050505050505050565b6000806000606084860312156149f757600080fd5b833592506020840135614a098161453b565b91506040840135614a198161453b565b809150509250925092565b600080600080600080600060e0888a031215614a3f57600080fd5b8735614a4a8161453b565b96506020880135614a5a8161453b565b95506040880135945060608801359350614a76608089016147d4565b925060a0880135915060c0880135905092959891949750929550565b600060208284031215614aa457600080fd5b5051919050565b600181811c90821680614abf57607f821691505b6020821081036139be577f4e487b7100000000000000000000000000000000000000000000000000000000600052602260045260246000fd5b600060208284031215614b0a57600080fd5b8151611bf281614884565b600060808284031215614b2757600080fd5b82601f830112614b3657600080fd5b6040516080810181811067ffffffffffffffff82111715614b5957614b596146ad565b604052806080840185811115614b6e57600080fd5b845b81811015614b88578051835260209283019201614b70565b509195945050505050565b7f4e487b7100000000000000000000000000000000000000000000000000000000600052601160045260246000fd5b80820180821115610bf757610bf7614b93565b81810381811115610bf757610bf7614b93565b60008060408385031215614bfb57600080fd5b505080516020909101519092909150565b600060208284031215614c1e57600080fd5b8151611bf28161453b565b601f821115610b4c57600081815260208120601f850160051c81016020861015614c505750805b601f850160051c820191505b818110156112ef57828155600101614c5c565b815167ffffffffffffffff811115614c8957614c896146ad565b614c9d81614c978454614aab565b84614c29565b602080601f831160018114614cf05760008415614cba5750858301515b7fffffffffffffffffffffffffffffffffffffffffffffffffffffffffffffffff600386901b1c1916600185901b1785556112ef565b6000858152602081207fffffffffffffffffffffffffffffffffffffffffffffffffffffffffffffffe08616915b82811015614d3d57888601518255948401946001909101908401614d1e565b5085821015614d7957878501517fffffffffffffffffffffffffffffffffffffffffffffffffffffffffffffffff600388901b60f8161c191681555b5050505050600190811b01905550565b7f4e487b7100000000000000000000000000000000000000000000000000000000600052602160045260246000fd5b60008251614dca81846020870161457c565b919091019291505056fe416464726573733a206c6f772d6c6576656c2064656c65676174652063616c6c206661696c6564a2646970667358221220795c788b4ae51543931bfff260135842135b4552bbef6f05f4063a9b409cf5df64736f6c63430008110033",
  "linkReferences": {},
  "deployedLinkReferences": {}
}