{
  "_format": "hh-sol-artifact-1",
  "contractName": "SmartToken",
  "sourceName": "contracts/vaults/SmartToken.sol",
  "abi": [
    {
      "inputs": [],
      "stateMutability": "nonpayable",
      "type": "constructor"
    },
    {
      "inputs": [],
      "name": "BaseContract__DepositCircuitBreaker",
      "type": "error"
    },
    {
      "inputs": [],
      "name": "BaseContract__RebalanceCircuitBreaker",
      "type": "error"
    },
    {
      "inputs": [],
      "name": "BaseContract__SanctionedAddress",
      "type": "error"
    },
    {
      "inputs": [],
      "name": "BaseContract__TransferCircuitBreaker",
      "type": "error"
    },
    {
      "inputs": [],
      "name": "BaseContract__WithdrawCircuitBreaker",
      "type": "error"
    },
    {
      "inputs": [],
      "name": "SmartToken__DepositLimitHit",
      "type": "error"
    },
    {
      "inputs": [],
      "name": "SmartToken__DepositMoreThanMax",
      "type": "error"
    },
    {
      "inputs": [],
      "name": "SmartToken__InsufficientUnderlying",
      "type": "error"
    },
    {
      "inputs": [],
      "name": "SmartToken__MethodNotAllowed",
      "type": "error"
    },
    {
      "inputs": [],
      "name": "SmartToken__MintMoreThanMax",
      "type": "error"
    },
    {
      "inputs": [],
      "name": "SmartToken__NotTokenFactory",
      "type": "error"
    },
    {
      "inputs": [],
      "name": "SmartToken__OnlyAssetOwner",
      "type": "error"
    },
    {
      "inputs": [],
      "name": "SmartToken__RedeemMoreThanMax",
      "type": "error"
    },
    {
      "inputs": [],
      "name": "SmartToken__WithdrawLimitHit",
      "type": "error"
    },
    {
      "inputs": [],
      "name": "SmartToken__WithdrawMoreThanMax",
      "type": "error"
    },
    {
      "inputs": [],
      "name": "SmartToken__ZeroDeposit",
      "type": "error"
    },
    {
      "anonymous": false,
      "inputs": [
        {
          "indexed": false,
          "internalType": "address",
          "name": "previousAdmin",
          "type": "address"
        },
        {
          "indexed": false,
          "internalType": "address",
          "name": "newAdmin",
          "type": "address"
        }
      ],
      "name": "AdminChanged",
      "type": "event"
    },
    {
      "anonymous": false,
      "inputs": [
        {
          "indexed": true,
          "internalType": "address",
          "name": "owner",
          "type": "address"
        },
        {
          "indexed": true,
          "internalType": "address",
          "name": "spender",
          "type": "address"
        },
        {
          "indexed": false,
          "internalType": "uint256",
          "name": "value",
          "type": "uint256"
        }
      ],
      "name": "Approval",
      "type": "event"
    },
    {
      "anonymous": false,
      "inputs": [
        {
          "indexed": true,
          "internalType": "address",
          "name": "beacon",
          "type": "address"
        }
      ],
      "name": "BeaconUpgraded",
      "type": "event"
    },
    {
      "anonymous": false,
      "inputs": [
        {
          "indexed": true,
          "internalType": "address",
          "name": "sender",
          "type": "address"
        },
        {
          "indexed": true,
          "internalType": "address",
          "name": "owner",
          "type": "address"
        },
        {
          "indexed": false,
          "internalType": "uint256",
          "name": "assets",
          "type": "uint256"
        },
        {
          "indexed": false,
          "internalType": "uint256",
          "name": "shares",
          "type": "uint256"
        }
      ],
      "name": "Deposit",
      "type": "event"
    },
    {
      "anonymous": false,
      "inputs": [],
      "name": "EIP712DomainChanged",
      "type": "event"
    },
    {
      "anonymous": false,
      "inputs": [
        {
          "indexed": false,
          "internalType": "uint8",
          "name": "version",
          "type": "uint8"
        }
      ],
      "name": "Initialized",
      "type": "event"
    },
    {
      "anonymous": false,
      "inputs": [
        {
          "indexed": true,
          "internalType": "address",
          "name": "previousOwner",
          "type": "address"
        },
        {
          "indexed": true,
          "internalType": "address",
          "name": "newOwner",
          "type": "address"
        }
      ],
      "name": "OwnershipTransferred",
      "type": "event"
    },
    {
      "anonymous": false,
      "inputs": [
        {
          "indexed": true,
          "internalType": "address",
          "name": "from",
          "type": "address"
        },
        {
          "indexed": true,
          "internalType": "address",
          "name": "to",
          "type": "address"
        },
        {
          "indexed": false,
          "internalType": "uint256",
          "name": "value",
          "type": "uint256"
        }
      ],
      "name": "Transfer",
      "type": "event"
    },
    {
      "anonymous": false,
      "inputs": [
        {
          "indexed": true,
          "internalType": "address",
          "name": "implementation",
          "type": "address"
        }
      ],
      "name": "Upgraded",
      "type": "event"
    },
    {
      "anonymous": false,
      "inputs": [
        {
          "indexed": true,
          "internalType": "address",
          "name": "sender",
          "type": "address"
        },
        {
          "indexed": true,
          "internalType": "address",
          "name": "receiver",
          "type": "address"
        },
        {
          "indexed": true,
          "internalType": "address",
          "name": "owner",
          "type": "address"
        },
        {
          "indexed": false,
          "internalType": "uint256",
          "name": "assets",
          "type": "uint256"
        },
        {
          "indexed": false,
          "internalType": "uint256",
          "name": "shares",
          "type": "uint256"
        }
      ],
      "name": "Withdraw",
      "type": "event"
    },
    {
      "inputs": [],
      "name": "DOMAIN_SEPARATOR",
      "outputs": [
        {
          "internalType": "bytes32",
          "name": "",
          "type": "bytes32"
        }
      ],
      "stateMutability": "view",
      "type": "function"
    },
    {
      "inputs": [
        {
          "internalType": "address",
          "name": "owner",
          "type": "address"
        },
        {
          "internalType": "address",
          "name": "spender",
          "type": "address"
        }
      ],
      "name": "allowance",
      "outputs": [
        {
          "internalType": "uint256",
          "name": "",
          "type": "uint256"
        }
      ],
      "stateMutability": "view",
      "type": "function"
    },
    {
      "inputs": [
        {
          "internalType": "address",
          "name": "spender",
          "type": "address"
        },
        {
          "internalType": "uint256",
          "name": "amount",
          "type": "uint256"
        }
      ],
      "name": "approve",
      "outputs": [
        {
          "internalType": "bool",
          "name": "",
          "type": "bool"
        }
      ],
      "stateMutability": "nonpayable",
      "type": "function"
    },
    {
      "inputs": [],
      "name": "asset",
      "outputs": [
        {
          "internalType": "address",
          "name": "",
          "type": "address"
        }
      ],
      "stateMutability": "view",
      "type": "function"
    },
    {
      "inputs": [
        {
          "internalType": "address",
          "name": "account",
          "type": "address"
        }
      ],
      "name": "balanceOf",
      "outputs": [
        {
          "internalType": "uint256",
          "name": "",
          "type": "uint256"
        }
      ],
      "stateMutability": "view",
      "type": "function"
    },
    {
      "inputs": [
        {
          "internalType": "address",
          "name": "account",
          "type": "address"
        },
        {
          "internalType": "uint256",
          "name": "amount",
          "type": "uint256"
        }
      ],
      "name": "burn",
      "outputs": [],
      "stateMutability": "nonpayable",
      "type": "function"
    },
    {
      "inputs": [
        {
          "internalType": "uint256",
          "name": "shares",
          "type": "uint256"
        }
      ],
      "name": "convertToAssets",
      "outputs": [
        {
          "internalType": "uint256",
          "name": "assets",
          "type": "uint256"
        }
      ],
      "stateMutability": "view",
      "type": "function"
    },
    {
      "inputs": [
        {
          "internalType": "uint256",
          "name": "assets",
          "type": "uint256"
        }
      ],
      "name": "convertToShares",
      "outputs": [
        {
          "internalType": "uint256",
          "name": "shares",
          "type": "uint256"
        }
      ],
      "stateMutability": "view",
      "type": "function"
    },
    {
      "inputs": [],
      "name": "decimals",
      "outputs": [
        {
          "internalType": "uint8",
          "name": "",
          "type": "uint8"
        }
      ],
      "stateMutability": "view",
      "type": "function"
    },
    {
      "inputs": [
        {
          "internalType": "address",
          "name": "spender",
          "type": "address"
        },
        {
          "internalType": "uint256",
          "name": "subtractedValue",
          "type": "uint256"
        }
      ],
      "name": "decreaseAllowance",
      "outputs": [
        {
          "internalType": "bool",
          "name": "",
          "type": "bool"
        }
      ],
      "stateMutability": "nonpayable",
      "type": "function"
    },
    {
      "inputs": [
        {
          "internalType": "uint256",
          "name": "assets",
          "type": "uint256"
        },
        {
          "internalType": "address",
          "name": "receiver",
          "type": "address"
        }
      ],
      "name": "deposit",
      "outputs": [
        {
          "internalType": "uint256",
          "name": "",
          "type": "uint256"
        }
      ],
      "stateMutability": "nonpayable",
      "type": "function"
    },
    {
      "inputs": [
        {
          "internalType": "uint256",
          "name": "assets",
          "type": "uint256"
        },
        {
          "internalType": "address",
          "name": "receiver",
          "type": "address"
        },
        {
          "internalType": "uint256",
          "name": "deadline",
          "type": "uint256"
        },
        {
          "internalType": "uint8",
          "name": "v",
          "type": "uint8"
        },
        {
          "internalType": "bytes32",
          "name": "r",
          "type": "bytes32"
        },
        {
          "internalType": "bytes32",
          "name": "s",
          "type": "bytes32"
        }
      ],
      "name": "depositWithPermit",
      "outputs": [
        {
          "internalType": "uint256",
          "name": "",
          "type": "uint256"
        }
      ],
      "stateMutability": "nonpayable",
      "type": "function"
    },
    {
      "inputs": [],
      "name": "eip712Domain",
      "outputs": [
        {
          "internalType": "bytes1",
          "name": "fields",
          "type": "bytes1"
        },
        {
          "internalType": "string",
          "name": "name",
          "type": "string"
        },
        {
          "internalType": "string",
          "name": "version",
          "type": "string"
        },
        {
          "internalType": "uint256",
          "name": "chainId",
          "type": "uint256"
        },
        {
          "internalType": "address",
          "name": "verifyingContract",
          "type": "address"
        },
        {
          "internalType": "bytes32",
          "name": "salt",
          "type": "bytes32"
        },
        {
          "internalType": "uint256[]",
          "name": "extensions",
          "type": "uint256[]"
        }
      ],
      "stateMutability": "view",
      "type": "function"
    },
    {
      "inputs": [],
      "name": "getTokenFactory",
      "outputs": [
        {
          "internalType": "address",
          "name": "",
          "type": "address"
        }
      ],
      "stateMutability": "view",
      "type": "function"
    },
    {
      "inputs": [
        {
          "internalType": "address",
          "name": "sender",
          "type": "address"
        },
        {
          "internalType": "address",
          "name": "receiver",
          "type": "address"
        }
      ],
      "name": "handlePendingRebalance",
      "outputs": [],
      "stateMutability": "nonpayable",
      "type": "function"
    },
    {
      "inputs": [
        {
          "internalType": "address",
          "name": "account",
          "type": "address"
        }
      ],
      "name": "hasPendingRebalance",
      "outputs": [
        {
          "internalType": "bool",
          "name": "",
          "type": "bool"
        }
      ],
      "stateMutability": "view",
      "type": "function"
    },
    {
      "inputs": [
        {
          "internalType": "address",
          "name": "spender",
          "type": "address"
        },
        {
          "internalType": "uint256",
          "name": "addedValue",
          "type": "uint256"
        }
      ],
      "name": "increaseAllowance",
      "outputs": [
        {
          "internalType": "bool",
          "name": "",
          "type": "bool"
        }
      ],
      "stateMutability": "nonpayable",
      "type": "function"
    },
    {
      "inputs": [
        {
          "internalType": "string",
          "name": "tokenName",
          "type": "string"
        },
        {
          "internalType": "string",
          "name": "tokenSymbol",
          "type": "string"
        },
        {
          "internalType": "address",
          "name": "factoryAddress",
          "type": "address"
        },
        {
          "internalType": "address",
          "name": "sanctionsContract_",
          "type": "address"
        },
        {
          "internalType": "bool",
          "name": "isX_",
          "type": "bool"
        }
      ],
      "name": "initialize",
      "outputs": [],
      "stateMutability": "nonpayable",
      "type": "function"
    },
    {
      "inputs": [],
      "name": "isDepositCircuitBreaker",
      "outputs": [
        {
          "internalType": "bool",
          "name": "",
          "type": "bool"
        }
      ],
      "stateMutability": "view",
      "type": "function"
    },
    {
      "inputs": [],
      "name": "isRebalanceCircuitBreaker",
      "outputs": [
        {
          "internalType": "bool",
          "name": "",
          "type": "bool"
        }
      ],
      "stateMutability": "view",
      "type": "function"
    },
    {
      "inputs": [],
      "name": "isTransferCircuitBreaker",
      "outputs": [
        {
          "internalType": "bool",
          "name": "",
          "type": "bool"
        }
      ],
      "stateMutability": "view",
      "type": "function"
    },
    {
      "inputs": [],
      "name": "isWithdrawCircuitBreaker",
      "outputs": [
        {
          "internalType": "bool",
          "name": "",
          "type": "bool"
        }
      ],
      "stateMutability": "view",
      "type": "function"
    },
    {
      "inputs": [
        {
          "internalType": "address",
          "name": "account",
          "type": "address"
        }
      ],
      "name": "maxDeposit",
      "outputs": [
        {
          "internalType": "uint256",
          "name": "",
          "type": "uint256"
        }
      ],
      "stateMutability": "view",
      "type": "function"
    },
    {
      "inputs": [
        {
          "internalType": "address",
          "name": "account",
          "type": "address"
        }
      ],
      "name": "maxMint",
      "outputs": [
        {
          "internalType": "uint256",
          "name": "",
          "type": "uint256"
        }
      ],
      "stateMutability": "view",
      "type": "function"
    },
    {
      "inputs": [
        {
          "internalType": "address",
          "name": "owner_",
          "type": "address"
        }
      ],
      "name": "maxRedeem",
      "outputs": [
        {
          "internalType": "uint256",
          "name": "",
          "type": "uint256"
        }
      ],
      "stateMutability": "view",
      "type": "function"
    },
    {
      "inputs": [
        {
          "internalType": "address",
          "name": "owner_",
          "type": "address"
        }
      ],
      "name": "maxWithdraw",
      "outputs": [
        {
          "internalType": "uint256",
          "name": "",
          "type": "uint256"
        }
      ],
      "stateMutability": "view",
      "type": "function"
    },
    {
      "inputs": [
        {
          "internalType": "uint256",
          "name": "shares",
          "type": "uint256"
        },
        {
          "internalType": "address",
          "name": "receiver",
          "type": "address"
        }
      ],
      "name": "mint",
      "outputs": [
        {
          "internalType": "uint256",
          "name": "",
          "type": "uint256"
        }
      ],
      "stateMutability": "nonpayable",
      "type": "function"
    },
    {
      "inputs": [
        {
          "internalType": "address",
          "name": "receiver",
          "type": "address"
        },
        {
          "internalType": "uint256",
          "name": "amount",
          "type": "uint256"
        }
      ],
      "name": "mintAsset",
      "outputs": [],
      "stateMutability": "nonpayable",
      "type": "function"
    },
    {
      "inputs": [],
      "name": "name",
      "outputs": [
        {
          "internalType": "string",
          "name": "",
          "type": "string"
        }
      ],
      "stateMutability": "view",
      "type": "function"
    },
    {
      "inputs": [
        {
          "internalType": "address",
          "name": "owner",
          "type": "address"
        }
      ],
      "name": "nonces",
      "outputs": [
        {
          "internalType": "uint256",
          "name": "",
          "type": "uint256"
        }
      ],
      "stateMutability": "view",
      "type": "function"
    },
    {
      "inputs": [],
      "name": "owner",
      "outputs": [
        {
          "internalType": "address",
          "name": "",
          "type": "address"
        }
      ],
      "stateMutability": "view",
      "type": "function"
    },
    {
      "inputs": [
        {
          "internalType": "address",
          "name": "owner",
          "type": "address"
        },
        {
          "internalType": "address",
          "name": "spender",
          "type": "address"
        },
        {
          "internalType": "uint256",
          "name": "value",
          "type": "uint256"
        },
        {
          "internalType": "uint256",
          "name": "deadline",
          "type": "uint256"
        },
        {
          "internalType": "uint8",
          "name": "v",
          "type": "uint8"
        },
        {
          "internalType": "bytes32",
          "name": "r",
          "type": "bytes32"
        },
        {
          "internalType": "bytes32",
          "name": "s",
          "type": "bytes32"
        }
      ],
      "name": "permit",
      "outputs": [],
      "stateMutability": "nonpayable",
      "type": "function"
    },
    {
      "inputs": [
        {
          "internalType": "uint256",
          "name": "assets",
          "type": "uint256"
        }
      ],
      "name": "previewDeposit",
      "outputs": [
        {
          "internalType": "uint256",
          "name": "",
          "type": "uint256"
        }
      ],
      "stateMutability": "view",
      "type": "function"
    },
    {
      "inputs": [
        {
          "internalType": "uint256",
          "name": "shares",
          "type": "uint256"
        }
      ],
      "name": "previewMint",
      "outputs": [
        {
          "internalType": "uint256",
          "name": "",
          "type": "uint256"
        }
      ],
      "stateMutability": "view",
      "type": "function"
    },
    {
      "inputs": [
        {
          "internalType": "uint256",
          "name": "shares",
          "type": "uint256"
        }
      ],
      "name": "previewRedeem",
      "outputs": [
        {
          "internalType": "uint256",
          "name": "",
          "type": "uint256"
        }
      ],
      "stateMutability": "view",
      "type": "function"
    },
    {
      "inputs": [
        {
          "internalType": "uint256",
          "name": "assets",
          "type": "uint256"
        }
      ],
      "name": "previewWithdraw",
      "outputs": [
        {
          "internalType": "uint256",
          "name": "",
          "type": "uint256"
        }
      ],
      "stateMutability": "view",
      "type": "function"
    },
    {
      "inputs": [],
      "name": "proxiableUUID",
      "outputs": [
        {
          "internalType": "bytes32",
          "name": "",
          "type": "bytes32"
        }
      ],
      "stateMutability": "view",
      "type": "function"
    },
    {
      "inputs": [
        {
          "internalType": "uint256",
          "name": "shares",
          "type": "uint256"
        },
        {
          "internalType": "address",
          "name": "receiver",
          "type": "address"
        },
        {
          "internalType": "address",
          "name": "owner_",
          "type": "address"
        }
      ],
      "name": "redeem",
      "outputs": [
        {
          "internalType": "uint256",
          "name": "",
          "type": "uint256"
        }
      ],
      "stateMutability": "nonpayable",
      "type": "function"
    },
    {
      "inputs": [],
      "name": "renounceOwnership",
      "outputs": [],
      "stateMutability": "nonpayable",
      "type": "function"
    },
    {
      "inputs": [],
      "name": "resumeAllCircuitBreakers",
      "outputs": [],
      "stateMutability": "nonpayable",
      "type": "function"
    },
    {
      "inputs": [
        {
          "internalType": "address",
          "name": "account",
          "type": "address"
        },
        {
          "internalType": "uint256",
          "name": "amount",
          "type": "uint256"
        }
      ],
      "name": "smartBalanceAdjust",
      "outputs": [],
      "stateMutability": "nonpayable",
      "type": "function"
    },
    {
      "inputs": [
        {
          "internalType": "address",
          "name": "treasuryAddress",
          "type": "address"
        },
        {
          "internalType": "uint256",
          "name": "amount",
          "type": "uint256"
        }
      ],
      "name": "smartTreasuryTransfer",
      "outputs": [],
      "stateMutability": "nonpayable",
      "type": "function"
    },
    {
      "inputs": [],
      "name": "stopAllCircuitBreakers",
      "outputs": [],
      "stateMutability": "nonpayable",
      "type": "function"
    },
    {
      "inputs": [],
      "name": "symbol",
      "outputs": [
        {
          "internalType": "string",
          "name": "",
          "type": "string"
        }
      ],
      "stateMutability": "view",
      "type": "function"
    },
    {
      "inputs": [],
      "name": "toggleDepositCircuitBreaker",
      "outputs": [],
      "stateMutability": "nonpayable",
      "type": "function"
    },
    {
      "inputs": [],
      "name": "toggleRebalanceCircuitBreaker",
      "outputs": [],
      "stateMutability": "nonpayable",
      "type": "function"
    },
    {
      "inputs": [],
      "name": "toggleTransferCircuitBreaker",
      "outputs": [],
      "stateMutability": "nonpayable",
      "type": "function"
    },
    {
      "inputs": [],
      "name": "toggleWithdrawCircuitBreaker",
      "outputs": [],
      "stateMutability": "nonpayable",
      "type": "function"
    },
    {
      "inputs": [],
      "name": "totalAssets",
      "outputs": [
        {
          "internalType": "uint256",
          "name": "",
          "type": "uint256"
        }
      ],
      "stateMutability": "view",
      "type": "function"
    },
    {
      "inputs": [],
      "name": "totalSupply",
      "outputs": [
        {
          "internalType": "uint256",
          "name": "",
          "type": "uint256"
        }
      ],
      "stateMutability": "view",
      "type": "function"
    },
    {
      "inputs": [
        {
          "internalType": "address",
          "name": "recipient",
          "type": "address"
        },
        {
          "internalType": "uint256",
          "name": "amount",
          "type": "uint256"
        }
      ],
      "name": "transfer",
      "outputs": [
        {
          "internalType": "bool",
          "name": "",
          "type": "bool"
        }
      ],
      "stateMutability": "nonpayable",
      "type": "function"
    },
    {
      "inputs": [
        {
          "internalType": "address",
          "name": "sender",
          "type": "address"
        },
        {
          "internalType": "address",
          "name": "recipient",
          "type": "address"
        },
        {
          "internalType": "uint256",
          "name": "amount",
          "type": "uint256"
        }
      ],
      "name": "transferFrom",
      "outputs": [
        {
          "internalType": "bool",
          "name": "",
          "type": "bool"
        }
      ],
      "stateMutability": "nonpayable",
      "type": "function"
    },
    {
      "inputs": [
        {
          "internalType": "address",
          "name": "newOwner",
          "type": "address"
        }
      ],
      "name": "transferOwnership",
      "outputs": [],
      "stateMutability": "nonpayable",
      "type": "function"
    },
    {
      "inputs": [
        {
          "internalType": "address",
          "name": "account",
          "type": "address"
        }
      ],
      "name": "unScaledbalanceOf",
      "outputs": [
        {
          "internalType": "uint256",
          "name": "",
          "type": "uint256"
        }
      ],
      "stateMutability": "view",
      "type": "function"
    },
    {
      "inputs": [
        {
          "internalType": "address",
          "name": "newImplementation",
          "type": "address"
        }
      ],
      "name": "upgradeTo",
      "outputs": [],
      "stateMutability": "nonpayable",
      "type": "function"
    },
    {
      "inputs": [
        {
          "internalType": "address",
          "name": "newImplementation",
          "type": "address"
        },
        {
          "internalType": "bytes",
          "name": "data",
          "type": "bytes"
        }
      ],
      "name": "upgradeToAndCall",
      "outputs": [],
      "stateMutability": "payable",
      "type": "function"
    },
    {
      "inputs": [
        {
          "internalType": "uint256",
          "name": "assets",
          "type": "uint256"
        },
        {
          "internalType": "address",
          "name": "receiver",
          "type": "address"
        },
        {
          "internalType": "address",
          "name": "owner_",
          "type": "address"
        }
      ],
      "name": "withdraw",
      "outputs": [
        {
          "internalType": "uint256",
          "name": "",
          "type": "uint256"
        }
      ],
      "stateMutability": "nonpayable",
      "type": "function"
    }
  ],
  "bytecode": "0x60a0604052306080523480156200001557600080fd5b506200002062000030565b6200002a62000030565b620000f1565b600054610100900460ff16156200009d5760405162461bcd60e51b815260206004820152602760248201527f496e697469616c697a61626c653a20636f6e747261637420697320696e697469604482015266616c697a696e6760c81b606482015260840160405180910390fd5b60005460ff90811614620000ef576000805460ff191660ff9081179091556040519081527f7f26b83ff96e1f2b6a682f133852f6798a09c465da95921460cefb38474024989060200160405180910390a15b565b608051614f26620001296000396000818161105d015281816110f8015281816112d30152818161136901526116f70152614f266000f3fe6080604052600436106103765760003560e01c80637ecebe00116101d1578063b460af9411610102578063d78f0921116100a0578063ef8b30f71161006f578063ef8b30f7146103fc578063f077fd3c1461093d578063f2fde38b1461095d578063fd6064b31461097d57600080fd5b8063d78f0921146108cd578063d905777e14610878578063dd62ed3e146108e2578063e58127311461092857600080fd5b8063c6e6f592116100dc578063c6e6f592146103fc578063ce96cb7714610878578063d505accf14610898578063d69f62e0146108b857600080fd5b8063b460af9414610838578063ba08765214610858578063c63d75b61461058c57600080fd5b806394bf804d1161016f578063a457c2d711610149578063a457c2d7146107d8578063a9059cbb146107f8578063b1dbfcee14610818578063b3d7f6b9146103fc57600080fd5b806394bf804d1461078357806395d89b41146107a35780639dc29fac146107b857600080fd5b80638da5cb5b116101ab5780638da5cb5b146107065780638f4cef0c146107245780638f50bd1314610744578063925d6ba21461076457600080fd5b80637ecebe001461069e57806384b0196e146106be57806385f2eac0146106e657600080fd5b80633659cfe6116102ab57806352d1902d116102495780636e553f65116102235780636e553f651461062957806370a0823114610649578063715018a6146106695780637dbaab621461067e57600080fd5b806352d1902d146105df5780635f758bef146105f45780636a3005291461061457600080fd5b8063402d267d11610285578063402d267d1461058c5780634cdad506146103fc5780634f1ef286146105ac57806350921b23146105bf57600080fd5b80633659cfe61461051957806338d52e0f14610539578063395093511461056c57600080fd5b806316b535f41161031857806327a44ed0116102f257806327a44ed01461049f57806330928009146104d3578063313ce567146104e85780633644e5151461050457600080fd5b806316b535f41461044a57806318160ddd1461046a57806323b872dd1461047f57600080fd5b806306fdde031161035457806306fdde03146103da57806307a2d13a146103fc578063095ea7b31461041a5780630a28a477146103fc57600080fd5b806301e1d1141461037b578063030d4ed7146103a357806305bfee33146103ba575b600080fd5b34801561038757600080fd5b5061039061099d565b6040519081526020015b60405180910390f35b3480156103af57600080fd5b506103b8610a32565b005b3480156103c657600080fd5b506103b86103d536600461473f565b610a65565b3480156103e657600080fd5b506103ef610b0a565b60405161039a91906147bb565b34801561040857600080fd5b506103906104173660046147ce565b90565b34801561042657600080fd5b5061043a61043536600461473f565b610b9c565b604051901515815260200161039a565b34801561045657600080fd5b506103b861046536600461473f565b610bb6565b34801561047657600080fd5b5060cb54610390565b34801561048b57600080fd5b5061043a61049a3660046147e7565b610c5e565b3480156104ab57600080fd5b506101625477010000000000000000000000000000000000000000000000900460ff1661043a565b3480156104df57600080fd5b506103b8610ff0565b3480156104f457600080fd5b506040516012815260200161039a565b34801561051057600080fd5b50610390611049565b34801561052557600080fd5b506103b8610534366004614828565b611053565b34801561054557600080fd5b50610196546001600160a01b03165b6040516001600160a01b03909116815260200161039a565b34801561057857600080fd5b5061043a61058736600461473f565b6111f5565b34801561059857600080fd5b506103906105a7366004614828565b611234565b6103b86105ba3660046148d1565b6112c9565b3480156105cb57600080fd5b506103906105da366004614946565b611457565b3480156105eb57600080fd5b506103906116ea565b34801561060057600080fd5b506103b861060f36600461473f565b6117af565b34801561062057600080fd5b506103b86117c1565b34801561063557600080fd5b506103906106443660046149a0565b611806565b34801561065557600080fd5b50610390610664366004614828565b6119f7565b34801561067557600080fd5b506103b8611ac6565b34801561068a57600080fd5b506103b86106993660046149fe565b611ada565b3480156106aa57600080fd5b506103906106b9366004614828565b611d2a565b3480156106ca57600080fd5b506106d3611d49565b60405161039a9796959493929190614a9c565b3480156106f257600080fd5b5061016254600160b01b900460ff1661043a565b34801561071257600080fd5b506097546001600160a01b0316610554565b34801561073057600080fd5b5061039061073f366004614828565b611e0b565b34801561075057600080fd5b5061043a61075f366004614828565b611e29565b34801561077057600080fd5b50610195546001600160a01b0316610554565b34801561078f57600080fd5b5061039061079e3660046149a0565b611f28565b3480156107af57600080fd5b506103ef61214d565b3480156107c457600080fd5b506103b86107d336600461473f565b61215c565b3480156107e457600080fd5b5061043a6107f336600461473f565b61216e565b34801561080457600080fd5b5061043a61081336600461473f565b612223565b34801561082457600080fd5b5061016254600160a81b900460ff1661043a565b34801561084457600080fd5b50610390610853366004614b4e565b61257f565b34801561086457600080fd5b50610390610873366004614b4e565b61296a565b34801561088457600080fd5b50610390610893366004614828565b612d10565b3480156108a457600080fd5b506103b86108b3366004614b90565b612d99565b3480156108c457600080fd5b506103b8612efd565b3480156108d957600080fd5b506103b8612f4a565b3480156108ee57600080fd5b506103906108fd366004614bfe565b6001600160a01b03918216600090815260ca6020908152604080832093909416825291909152205490565b34801561093457600080fd5b506103b8612f8f565b34801561094957600080fd5b506103b8610958366004614bfe565b612fd4565b34801561096957600080fd5b506103b8610978366004614828565b613126565b34801561098957600080fd5b5061016254600160a01b900460ff1661043a565b61019654610195546040517f70a082310000000000000000000000000000000000000000000000000000000081526001600160a01b03918216600482015260009291909116906370a0823190602401602060405180830381865afa158015610a09573d6000803e3d6000fd5b505050506040513d601f19601f82011682018060405250810190610a2d9190614c2c565b905090565b610a3a6131b3565b61016280547fffffffffffffffff00000000ffffffffffffffffffffffffffffffffffffffff169055565b610a6d61320d565b61019554610196546040517fd1273d9e000000000000000000000000000000000000000000000000000000008152600160a01b90910460ff1615156004820152602481018390526001600160a01b039091169063d1273d9e90604401600060405180830381600087803b158015610ae357600080fd5b505af1158015610af7573d6000803e3d6000fd5b50505050610b05828261325b565b505050565b606060cc8054610b1990614c45565b80601f0160208091040260200160405190810160405280929190818152602001828054610b4590614c45565b8015610b925780601f10610b6757610100808354040283529160200191610b92565b820191906000526020600020905b815481529060010190602001808311610b7557829003601f168201915b5050505050905090565b600033610baa818585613270565b60019150505b92915050565b610bbe61320d565b61019554610196546040517facde9b2a000000000000000000000000000000000000000000000000000000008152600160a01b90910460ff16151560048201526001600160a01b038481166024830152604482018490529091169063acde9b2a90606401600060405180830381600087803b158015610c3c57600080fd5b505af1158015610c50573d6000803e3d6000fd5b50505050610b0582826133c8565b61016254600090600160b01b900460ff1615610ca6576040517f64c7350800000000000000000000000000000000000000000000000000000000815260040160405180910390fd5b61019560009054906101000a90046001600160a01b03166001600160a01b0316629c185f6040518163ffffffff1660e01b8152600401602060405180830381865afa158015610cf9573d6000803e3d6000fd5b505050506040513d601f19601f82011682018060405250810190610d1d9190614c79565b15610d3b576040516321e3430160e21b815260040160405180910390fd5b6101625460405163df592f7d60e01b81526001600160a01b03808616600483015285921690600090829063df592f7d90602401602060405180830381865afa158015610d8b573d6000803e3d6000fd5b505050506040513d601f19601f82011682018060405250810190610daf9190614c79565b90508015610dd05760405163108a7eb160e21b815260040160405180910390fd5b6101625460405163df592f7d60e01b81526001600160a01b03808a16600483015289921690600090829063df592f7d90602401602060405180830381865afa158015610e20573d6000803e3d6000fd5b505050506040513d601f19601f82011682018060405250810190610e449190614c79565b90508015610e655760405163108a7eb160e21b815260040160405180910390fd5b610e6f8a8a612fd4565b610195546040517fd493e78c0000000000000000000000000000000000000000000000000000000081526001600160a01b038c811660048301528b81166024830152600092169063d493e78c90604401608060405180830381865afa158015610edc573d6000803e3d6000fd5b505050506040513d601f19601f82011682018060405250810190610f009190614c96565b90506000610f0f8c8c8c6133d4565b61019554610196549192506001600160a01b03169063eec0d656908e908e90600160a01b900460ff168e8760006020020151886001602002015189600260200201518a600360200201516040516001600160e01b031960e08b901b1681526001600160a01b03988916600482015297909616602488015293151560448701526064860192909252608485015260a484015260c483015260e482015261010401600060405180830381600087803b158015610fc857600080fd5b505af1158015610fdc573d6000803e3d6000fd5b50929e9d5050505050505050505050505050565b610ff86131b3565b61016280547fffffffffffffffff00ffffffffffffffffffffffffffffffffffffffffffffff8116770100000000000000000000000000000000000000000000009182900460ff1615909102179055565b6000610a2d6133ed565b6001600160a01b037f00000000000000000000000000000000000000000000000000000000000000001630036110f65760405162461bcd60e51b815260206004820152602c60248201527f46756e6374696f6e206d7573742062652063616c6c6564207468726f7567682060448201527f64656c656761746563616c6c000000000000000000000000000000000000000060648201526084015b60405180910390fd5b7f00000000000000000000000000000000000000000000000000000000000000006001600160a01b03166111517f360894a13ba1a3210667c828492db98dca3e2076cc3735a920a3ca505d382bbc546001600160a01b031690565b6001600160a01b0316146111cd5760405162461bcd60e51b815260206004820152602c60248201527f46756e6374696f6e206d7573742062652063616c6c6564207468726f7567682060448201527f6163746976652070726f7879000000000000000000000000000000000000000060648201526084016110ed565b6111d6816133f7565b604080516000808252602082019092526111f2918391906133ff565b50565b33600081815260ca602090815260408083206001600160a01b0387168452909152812054909190610baa908290869061122f908790614d2a565b613270565b610195546040517f728bf7330000000000000000000000000000000000000000000000000000000081526001600160a01b038381166004830152600092169063728bf73390602401602060405180830381865afa158015611299573d6000803e3d6000fd5b505050506040513d601f19601f820116820180604052508101906112bd9190614c2c565b610bb090600019614d3d565b6001600160a01b037f00000000000000000000000000000000000000000000000000000000000000001630036113675760405162461bcd60e51b815260206004820152602c60248201527f46756e6374696f6e206d7573742062652063616c6c6564207468726f7567682060448201527f64656c656761746563616c6c000000000000000000000000000000000000000060648201526084016110ed565b7f00000000000000000000000000000000000000000000000000000000000000006001600160a01b03166113c27f360894a13ba1a3210667c828492db98dca3e2076cc3735a920a3ca505d382bbc546001600160a01b031690565b6001600160a01b03161461143e5760405162461bcd60e51b815260206004820152602c60248201527f46756e6374696f6e206d7573742062652063616c6c6564207468726f7567682060448201527f6163746976652070726f7879000000000000000000000000000000000000000060648201526084016110ed565b611447826133f7565b611453828260016133ff565b5050565b61016254600090600160a01b900460ff161561148657604051636822eceb60e11b815260040160405180910390fd5b61019560009054906101000a90046001600160a01b03166001600160a01b0316629c185f6040518163ffffffff1660e01b8152600401602060405180830381865afa1580156114d9573d6000803e3d6000fd5b505050506040513d601f19601f820116820180604052508101906114fd9190614c79565b1561151b576040516321e3430160e21b815260040160405180910390fd5b61019554604051634eacc0fd60e01b81526004810189905288916001600160a01b031690634eacc0fd906024016020604051808303816000875af1158015611567573d6000803e3d6000fd5b505050506040513d601f19601f8201168201806040525081019061158b9190614c79565b156115a95760405163b04c001160e01b815260040160405180910390fd5b87876115b5828261359f565b60008a610196549091506001600160a01b031663d505accf336101955460405160e084901b6001600160e01b03191681526001600160a01b0392831660048201529116602482015260448101849052606481018c905260ff8b16608482015260a481018a905260c4810189905260e401600060405180830381600087803b15801561163f57600080fd5b505af1158015611653573d6000803e3d6000fd5b5050610195546001600160a01b0316915063c14cfe099050336040516001600160e01b031960e084901b1681526001600160a01b039182166004820152908d166024820152604481018e905260648101849052608401600060405180830381600087803b1580156116c357600080fd5b505af11580156116d7573d6000803e3d6000fd5b50929d9c50505050505050505050505050565b6000306001600160a01b037f0000000000000000000000000000000000000000000000000000000000000000161461178a5760405162461bcd60e51b815260206004820152603860248201527f555550535570677261646561626c653a206d757374206e6f742062652063616c60448201527f6c6564207468726f7567682064656c656761746563616c6c000000000000000060648201526084016110ed565b507f360894a13ba1a3210667c828492db98dca3e2076cc3735a920a3ca505d382bbc90565b6117b761320d565b611453828261361b565b6117c96131b3565b61016280547fffffffffffffffffff00ffffffffffffffffffffffffffffffffffffffffffff8116600160b01b9182900460ff1615909102179055565b61016254600090600160a01b900460ff161561183557604051636822eceb60e11b815260040160405180910390fd5b61019560009054906101000a90046001600160a01b03166001600160a01b0316629c185f6040518163ffffffff1660e01b8152600401602060405180830381865afa158015611888573d6000803e3d6000fd5b505050506040513d601f19601f820116820180604052508101906118ac9190614c79565b156118ca576040516321e3430160e21b815260040160405180910390fd5b61019554604051634eacc0fd60e01b81526004810185905284916001600160a01b031690634eacc0fd906024016020604051808303816000875af1158015611916573d6000803e3d6000fd5b505050506040513d601f19601f8201168201806040525081019061193a9190614c79565b156119585760405163b04c001160e01b815260040160405180910390fd5b8383611964828261359f565b600086610195549091506001600160a01b031663c14cfe09336040516001600160e01b031960e084901b1681526001600160a01b0391821660048201529089166024820152604481018a905260648101849052608401600060405180830381600087803b1580156119d457600080fd5b505af11580156119e8573d6000803e3d6000fd5b50929998505050505050505050565b6000611a0282611e29565b15611ab857610195546040517fa4d96e170000000000000000000000000000000000000000000000000000000081526001600160a01b038481166004830152600092839291169063a4d96e17906024016040805180830381865afa158015611a6e573d6000803e3d6000fd5b505050506040513d601f19601f82011682018060405250810190611a929190614d50565b610196549193509150600160a01b900460ff1615611ab1575092915050565b9392505050565b610bb082611e0b565b919050565b611ace6131b3565b611ad860006136dc565b565b600054610100900460ff1615808015611afa5750600054600160ff909116105b80611b145750303b158015611b14575060005460ff166001145b611b865760405162461bcd60e51b815260206004820152602e60248201527f496e697469616c697a61626c653a20636f6e747261637420697320616c72656160448201527f647920696e697469616c697a656400000000000000000000000000000000000060648201526084016110ed565b600080547fffffffffffffffffffffffffffffffffffffffffffffffffffffffffffffff001660011790558015611bc7576000805461ff0019166101001790555b611bd1868661373b565b611bda866137b0565b611be38361385a565b611beb6138f5565b611bf3613968565b610195805473ffffffffffffffffffffffffffffffffffffffff19166001600160a01b038616908117909155604080517f98acd7a600000000000000000000000000000000000000000000000000000000815290516398acd7a6916004808201926020929091908290030181865afa158015611c73573d6000803e3d6000fd5b505050506040513d601f19601f82011682018060405250810190611c979190614d74565b61019680546001600160a01b03929092167fffffffffffffffffffffff00000000000000000000000000000000000000000090921691909117600160a01b841515021790558015611d22576000805461ff0019169055604051600181527f7f26b83ff96e1f2b6a682f133852f6798a09c465da95921460cefb38474024989060200160405180910390a15b505050505050565b6001600160a01b038116600090815261012f6020526040812054610bb0565b60006060806000806000606060fb546000801b148015611d69575060fc54155b611db55760405162461bcd60e51b815260206004820152601560248201527f4549503731323a20556e696e697469616c697a6564000000000000000000000060448201526064016110ed565b611dbd6139d3565b611dc56139e2565b604080516000808252602082019092527f0f000000000000000000000000000000000000000000000000000000000000009b939a50919850469750309650945092509050565b6001600160a01b038116600090815260c96020526040812054610bb0565b61019554604080517fddca8bfa00000000000000000000000000000000000000000000000000000000815290516000926001600160a01b03169163ddca8bfa9160048083019260209291908290030181865afa158015611e8d573d6000803e3d6000fd5b505050506040513d601f19601f82011682018060405250810190611eb19190614c2c565b610195546040516325ad47ab60e21b81526001600160a01b038581166004830152909116906396b51eac90602401602060405180830381865afa158015611efc573d6000803e3d6000fd5b505050506040513d601f19601f82011682018060405250810190611f209190614c2c565b141592915050565b61016254600090600160a01b900460ff1615611f5757604051636822eceb60e11b815260040160405180910390fd5b61019560009054906101000a90046001600160a01b03166001600160a01b0316629c185f6040518163ffffffff1660e01b8152600401602060405180830381865afa158015611faa573d6000803e3d6000fd5b505050506040513d601f19601f82011682018060405250810190611fce9190614c79565b15611fec576040516321e3430160e21b815260040160405180910390fd5b61019554604051634eacc0fd60e01b81526004810185905284916001600160a01b031690634eacc0fd906024016020604051808303816000875af1158015612038573d6000803e3d6000fd5b505050506040513d601f19601f8201168201806040525081019061205c9190614c79565b1561207a5760405163b04c001160e01b815260040160405180910390fd5b61208383611234565b8411156120bc576040517f292b120100000000000000000000000000000000000000000000000000000000815260040160405180910390fd5b600084610195549091506001600160a01b031663c14cfe09336040516001600160e01b031960e084901b1681526001600160a01b03918216600482015290871660248201526044810184905260648101889052608401600060405180830381600087803b15801561212c57600080fd5b505af1158015612140573d6000803e3d6000fd5b5092979650505050505050565b606060cd8054610b1990614c45565b61216461320d565b61145382826139f1565b33600081815260ca602090815260408083206001600160a01b03871684529091528120549091908381101561220b5760405162461bcd60e51b815260206004820152602560248201527f45524332303a2064656372656173656420616c6c6f77616e63652062656c6f7760448201527f207a65726f00000000000000000000000000000000000000000000000000000060648201526084016110ed565b6122188286868403613270565b506001949350505050565b61016254600090600160b01b900460ff161561226b576040517f64c7350800000000000000000000000000000000000000000000000000000000815260040160405180910390fd5b61019560009054906101000a90046001600160a01b03166001600160a01b0316629c185f6040518163ffffffff1660e01b8152600401602060405180830381865afa1580156122be573d6000803e3d6000fd5b505050506040513d601f19601f820116820180604052508101906122e29190614c79565b15612300576040516321e3430160e21b815260040160405180910390fd5b6101625460405163df592f7d60e01b81526001600160a01b03808616600483015285921690600090829063df592f7d90602401602060405180830381865afa158015612350573d6000803e3d6000fd5b505050506040513d601f19601f820116820180604052508101906123749190614c79565b905080156123955760405163108a7eb160e21b815260040160405180910390fd5b336101625460405163df592f7d60e01b81526001600160a01b03838116600483015290911690600090829063df592f7d90602401602060405180830381865afa1580156123e6573d6000803e3d6000fd5b505050506040513d601f19601f8201168201806040525081019061240a9190614c79565b9050801561242b5760405163108a7eb160e21b815260040160405180910390fd5b612435338a612fd4565b610195546000906001600160a01b031663d493e78c336040516001600160e01b031960e084901b1681526001600160a01b039182166004820152908d166024820152604401608060405180830381865afa158015612497573d6000803e3d6000fd5b505050506040513d601f19601f820116820180604052508101906124bb9190614c96565b905060006124c98b8b613b5c565b610195549091506001600160a01b031663eec0d65633610196548e90600160a01b900460ff168e8760006020020151886001602002015189600260200201518a600360200201516040516001600160e01b031960e08b901b1681526001600160a01b03988916600482015297909616602488015293151560448701526064860192909252608485015260a484015260c483015260e482015261010401600060405180830381600087803b1580156116c357600080fd5b61016254600090600160a81b900460ff16156125c7576040517fc689af6e00000000000000000000000000000000000000000000000000000000815260040160405180910390fd5b61019560009054906101000a90046001600160a01b03166001600160a01b0316629c185f6040518163ffffffff1660e01b8152600401602060405180830381865afa15801561261a573d6000803e3d6000fd5b505050506040513d601f19601f8201168201806040525081019061263e9190614c79565b1561265c576040516321e3430160e21b815260040160405180910390fd5b610195546040517fcf0571d30000000000000000000000000000000000000000000000000000000081526004810186905285916001600160a01b03169063cf0571d3906024016020604051808303816000875af11580156126c1573d6000803e3d6000fd5b505050506040513d601f19601f820116820180604052508101906126e59190614c79565b1561271c576040517f922c089500000000000000000000000000000000000000000000000000000000815260040160405180910390fd5b8261272681613b6a565b61272e613bac565b61019560009054906101000a90046001600160a01b03166001600160a01b031663ddca8bfa6040518163ffffffff1660e01b8152600401602060405180830381865afa158015612782573d6000803e3d6000fd5b505050506040513d601f19601f820116820180604052508101906127a69190614c2c565b610195546040516325ad47ab60e21b81526001600160a01b038881166004830152909116906396b51eac90602401602060405180830381865afa1580156127f1573d6000803e3d6000fd5b505050506040513d601f19601f820116820180604052508101906128159190614c2c565b1461287b576101955460405163242ffe5560e11b81526001600160a01b0387811660048301529091169063485ffcaa90602401600060405180830381600087803b15801561286257600080fd5b505af1158015612876573d6000803e3d6000fd5b505050505b61288484612d10565b8611156128bd576040517f1cf754b800000000000000000000000000000000000000000000000000000000815260040160405180910390fd5b610195546040517f3d82850b0000000000000000000000000000000000000000000000000000000081523360048201526001600160a01b0387811660248301528681166044830152606482018990526084820189905288921690633d82850b9060a4015b600060405180830381600087803b15801561293b57600080fd5b505af115801561294f573d6000803e3d6000fd5b50929550505050612961600161016355565b50509392505050565b61016254600090600160a81b900460ff16156129b2576040517fc689af6e00000000000000000000000000000000000000000000000000000000815260040160405180910390fd5b61019560009054906101000a90046001600160a01b03166001600160a01b0316629c185f6040518163ffffffff1660e01b8152600401602060405180830381865afa158015612a05573d6000803e3d6000fd5b505050506040513d601f19601f82011682018060405250810190612a299190614c79565b15612a47576040516321e3430160e21b815260040160405180910390fd5b610195546040517fcf0571d30000000000000000000000000000000000000000000000000000000081526004810186905285916001600160a01b03169063cf0571d3906024016020604051808303816000875af1158015612aac573d6000803e3d6000fd5b505050506040513d601f19601f82011682018060405250810190612ad09190614c79565b15612b07576040517f922c089500000000000000000000000000000000000000000000000000000000815260040160405180910390fd5b82612b1181613b6a565b612b19613bac565b61019560009054906101000a90046001600160a01b03166001600160a01b031663ddca8bfa6040518163ffffffff1660e01b8152600401602060405180830381865afa158015612b6d573d6000803e3d6000fd5b505050506040513d601f19601f82011682018060405250810190612b919190614c2c565b610195546040516325ad47ab60e21b81526001600160a01b038881166004830152909116906396b51eac90602401602060405180830381865afa158015612bdc573d6000803e3d6000fd5b505050506040513d601f19601f82011682018060405250810190612c009190614c2c565b14612c66576101955460405163242ffe5560e11b81526001600160a01b0387811660048301529091169063485ffcaa90602401600060405180830381600087803b158015612c4d57600080fd5b505af1158015612c61573d6000803e3d6000fd5b505050505b612c6f84612d10565b861115612ca8576040517f89e4c16300000000000000000000000000000000000000000000000000000000815260040160405180910390fd5b610195546040517f3d82850b0000000000000000000000000000000000000000000000000000000081523360048201526001600160a01b0387811660248301528681166044830152606482018990526084820189905288921690633d82850b9060a401612921565b610195546040517fc887e8a00000000000000000000000000000000000000000000000000000000081526001600160a01b038381166004830152600092169063c887e8a090602401602060405180830381865afa158015612d75573d6000803e3d6000fd5b505050506040513d601f19601f82011682018060405250810190610bb09190614c2c565b83421115612de95760405162461bcd60e51b815260206004820152601d60248201527f45524332305065726d69743a206578706972656420646561646c696e6500000060448201526064016110ed565b60007f6e71edae12b1b97f4d1f60370fef10105fa2faae0126114a169c64845d6126c9888888612e188c613c07565b6040805160208101969096526001600160a01b0394851690860152929091166060840152608083015260a082015260c0810186905260e0016040516020818303038152906040528051906020012090506000612e7382613c30565b90506000612e8382878787613c78565b9050896001600160a01b0316816001600160a01b031614612ee65760405162461bcd60e51b815260206004820152601e60248201527f45524332305065726d69743a20696e76616c6964207369676e6174757265000060448201526064016110ed565b612ef18a8a8a613270565b50505050505050505050565b612f056131b3565b61016280547fffffffffffffffff00000000ffffffffffffffffffffffffffffffffffffffff1677010101010000000000000000000000000000000000000000179055565b612f526131b3565b61016280547fffffffffffffffffffffff00ffffffffffffffffffffffffffffffffffffffff8116600160a01b9182900460ff1615909102179055565b612f976131b3565b61016280547fffffffffffffffffffff00ffffffffffffffffffffffffffffffffffffffffff8116600160a81b9182900460ff1615909102179055565b612fdd82611e29565b15613043576101955460405163242ffe5560e11b81526001600160a01b0384811660048301529091169063485ffcaa90602401600060405180830381600087803b15801561302a57600080fd5b505af115801561303e573d6000803e3d6000fd5b505050505b610195546040517f5737ed7d0000000000000000000000000000000000000000000000000000000081526001600160a01b03838116600483015290911690635737ed7d90602401600060405180830381600087803b1580156130a457600080fd5b505af11580156130b8573d6000803e3d6000fd5b505050506130c581611e29565b15611453576101955460405163242ffe5560e11b81526001600160a01b0383811660048301529091169063485ffcaa90602401600060405180830381600087803b15801561311257600080fd5b505af1158015611d22573d6000803e3d6000fd5b61312e6131b3565b6001600160a01b0381166131aa5760405162461bcd60e51b815260206004820152602660248201527f4f776e61626c653a206e6577206f776e657220697320746865207a65726f206160448201527f646472657373000000000000000000000000000000000000000000000000000060648201526084016110ed565b6111f2816136dc565b6097546001600160a01b03163314611ad85760405162461bcd60e51b815260206004820181905260248201527f4f776e61626c653a2063616c6c6572206973206e6f7420746865206f776e657260448201526064016110ed565b610195546001600160a01b0316336001600160a01b031614611ad8576040517fe565d9cb00000000000000000000000000000000000000000000000000000000815260040160405180910390fd5b60006132678383613ca2565b50600192915050565b6001600160a01b0383166132eb5760405162461bcd60e51b8152602060048201526024808201527f45524332303a20617070726f76652066726f6d20746865207a65726f2061646460448201527f726573730000000000000000000000000000000000000000000000000000000060648201526084016110ed565b6001600160a01b0382166133675760405162461bcd60e51b815260206004820152602260248201527f45524332303a20617070726f766520746f20746865207a65726f20616464726560448201527f737300000000000000000000000000000000000000000000000000000000000060648201526084016110ed565b6001600160a01b03838116600081815260ca602090815260408083209487168084529482529182902085905590518481527f8c5be1e5ebec7d5bd14f71427d1e84f3dd0314c0f7b2291e5b200ac8c7c3b925910160405180910390a3505050565b60006132678383613d1a565b6000336133e2858285613d8c565b612218858585613e1e565b6000610a2d614012565b6111f26131b3565b7f4910fdfa16fed3260ed0e7147f7cc6da11a60208b5b9406d12a635614ffd91435460ff161561343257610b0583614086565b826001600160a01b03166352d1902d6040518163ffffffff1660e01b8152600401602060405180830381865afa92505050801561348c575060408051601f3d908101601f1916820190925261348991810190614c2c565b60015b6134fe5760405162461bcd60e51b815260206004820152602e60248201527f45524331393637557067726164653a206e657720696d706c656d656e7461746960448201527f6f6e206973206e6f74205555505300000000000000000000000000000000000060648201526084016110ed565b7f360894a13ba1a3210667c828492db98dca3e2076cc3735a920a3ca505d382bbc81146135935760405162461bcd60e51b815260206004820152602960248201527f45524331393637557067726164653a20756e737570706f727465642070726f7860448201527f6961626c6555554944000000000000000000000000000000000000000000000060648201526084016110ed565b50610b05838383614151565b816000036135d9576040517f7c7c872000000000000000000000000000000000000000000000000000000000815260040160405180910390fd5b6135e281611234565b821115611453576040517f14a4b53500000000000000000000000000000000000000000000000000000000815260040160405180910390fd5b6001600160a01b0382166136715760405162461bcd60e51b815260206004820152601f60248201527f45524332303a206d696e7420746f20746865207a65726f20616464726573730060448201526064016110ed565b8060cb60008282546136839190614d2a565b90915550506001600160a01b038216600081815260c960209081526040808320805486019055518481527fddf252ad1be2c89b69c2b068fc378daa952ba7f163c4a11628f55a4df523b3ef910160405180910390a35050565b609780546001600160a01b0383811673ffffffffffffffffffffffffffffffffffffffff19831681179093556040519116919082907f8be0079c531659141344cd1fd0a4f28419497f9722a3daafe3b4186f6b6457e090600090a35050565b600054610100900460ff166137a65760405162461bcd60e51b815260206004820152602b60248201527f496e697469616c697a61626c653a20636f6e7472616374206973206e6f74206960448201526a6e697469616c697a696e6760a81b60648201526084016110ed565b6114538282614176565b600054610100900460ff1661381b5760405162461bcd60e51b815260206004820152602b60248201527f496e697469616c697a61626c653a20636f6e7472616374206973206e6f74206960448201526a6e697469616c697a696e6760a81b60648201526084016110ed565b6111f2816040518060400160405280600181526020017f31000000000000000000000000000000000000000000000000000000000000008152506141fa565b600054610100900460ff166138c55760405162461bcd60e51b815260206004820152602b60248201527f496e697469616c697a61626c653a20636f6e7472616374206973206e6f74206960448201526a6e697469616c697a696e6760a81b60648201526084016110ed565b610162805473ffffffffffffffffffffffffffffffffffffffff19166001600160a01b0392909216919091179055565b600054610100900460ff166139605760405162461bcd60e51b815260206004820152602b60248201527f496e697469616c697a61626c653a20636f6e7472616374206973206e6f74206960448201526a6e697469616c697a696e6760a81b60648201526084016110ed565b611ad861428d565b600054610100900460ff16611ad85760405162461bcd60e51b815260206004820152602b60248201527f496e697469616c697a61626c653a20636f6e7472616374206973206e6f74206960448201526a6e697469616c697a696e6760a81b60648201526084016110ed565b606060fd8054610b1990614c45565b606060fe8054610b1990614c45565b6001600160a01b038216613a6d5760405162461bcd60e51b815260206004820152602160248201527f45524332303a206275726e2066726f6d20746865207a65726f2061646472657360448201527f730000000000000000000000000000000000000000000000000000000000000060648201526084016110ed565b6001600160a01b038216600090815260c9602052604090205481811015613afc5760405162461bcd60e51b815260206004820152602260248201527f45524332303a206275726e20616d6f756e7420657863656564732062616c616e60448201527f636500000000000000000000000000000000000000000000000000000000000060648201526084016110ed565b6001600160a01b038316600081815260c960209081526040808320868603905560cb80548790039055518581529192917fddf252ad1be2c89b69c2b068fc378daa952ba7f163c4a11628f55a4df523b3ef910160405180910390a3505050565b600033610baa818585613e1e565b6001600160a01b03811633146111f2576040517f7a45e68500000000000000000000000000000000000000000000000000000000815260040160405180910390fd5b60026101635403613bff5760405162461bcd60e51b815260206004820152601f60248201527f5265656e7472616e637947756172643a207265656e7472616e742063616c6c0060448201526064016110ed565b600261016355565b6001600160a01b038116600090815261012f602052604090208054600181018255905b50919050565b6000610bb0613c3d6133ed565b836040517f19010000000000000000000000000000000000000000000000000000000000008152600281019290925260228201526042902090565b6000806000613c8987878787614301565b91509150613c96816143c5565b5090505b949350505050565b6001600160a01b038216613cf85760405162461bcd60e51b815260206004820152601c60248201527f54726561737572792063616e6e6f74206265207a65726f20616464720000000060448201526064016110ed565b6001600160a01b03909116600090815260c96020526040902080549091019055565b6001600160a01b038216613d705760405162461bcd60e51b815260206004820152601b60248201527f416464726573732063616e6e6f74206265207a65726f2061646472000000000060448201526064016110ed565b6001600160a01b03909116600090815260c96020526040902055565b6001600160a01b03838116600090815260ca60209081526040808320938616835292905220546000198114613e185781811015613e0b5760405162461bcd60e51b815260206004820152601d60248201527f45524332303a20696e73756666696369656e7420616c6c6f77616e636500000060448201526064016110ed565b613e188484848403613270565b50505050565b6001600160a01b038316613e9a5760405162461bcd60e51b815260206004820152602560248201527f45524332303a207472616e736665722066726f6d20746865207a65726f20616460448201527f647265737300000000000000000000000000000000000000000000000000000060648201526084016110ed565b6001600160a01b038216613f165760405162461bcd60e51b815260206004820152602360248201527f45524332303a207472616e7366657220746f20746865207a65726f206164647260448201527f657373000000000000000000000000000000000000000000000000000000000060648201526084016110ed565b6001600160a01b038316600090815260c9602052604090205481811015613fa55760405162461bcd60e51b815260206004820152602660248201527f45524332303a207472616e7366657220616d6f756e742065786365656473206260448201527f616c616e6365000000000000000000000000000000000000000000000000000060648201526084016110ed565b6001600160a01b03808516600081815260c9602052604080822086860390559286168082529083902080548601905591517fddf252ad1be2c89b69c2b068fc378daa952ba7f163c4a11628f55a4df523b3ef906140059086815260200190565b60405180910390a3613e18565b60007f8b73c3c69bb8fe3d512ecc4cf759cc79239f7b179b0ffacaa9a75d522b39400f61403d61452a565b614045614583565b60408051602081019490945283019190915260608201524660808201523060a082015260c00160405160208183030381529060405280519060200120905090565b6001600160a01b0381163b6141035760405162461bcd60e51b815260206004820152602d60248201527f455243313936373a206e657720696d706c656d656e746174696f6e206973206e60448201527f6f74206120636f6e74726163740000000000000000000000000000000000000060648201526084016110ed565b7f360894a13ba1a3210667c828492db98dca3e2076cc3735a920a3ca505d382bbc805473ffffffffffffffffffffffffffffffffffffffff19166001600160a01b0392909216919091179055565b61415a836145b4565b6000825111806141675750805b15610b0557613e1883836145f4565b600054610100900460ff166141e15760405162461bcd60e51b815260206004820152602b60248201527f496e697469616c697a61626c653a20636f6e7472616374206973206e6f74206960448201526a6e697469616c697a696e6760a81b60648201526084016110ed565b60cc6141ed8382614dd7565b5060cd610b058282614dd7565b600054610100900460ff166142655760405162461bcd60e51b815260206004820152602b60248201527f496e697469616c697a61626c653a20636f6e7472616374206973206e6f74206960448201526a6e697469616c697a696e6760a81b60648201526084016110ed565b60fd6142718382614dd7565b5060fe61427e8282614dd7565b5050600060fb81905560fc5550565b600054610100900460ff166142f85760405162461bcd60e51b815260206004820152602b60248201527f496e697469616c697a61626c653a20636f6e7472616374206973206e6f74206960448201526a6e697469616c697a696e6760a81b60648201526084016110ed565b611ad8336136dc565b6000807f7fffffffffffffffffffffffffffffff5d576e7357a4501ddfe92f46681b20a083111561433857506000905060036143bc565b6040805160008082526020820180845289905260ff881692820192909252606081018690526080810185905260019060a0016020604051602081039080840390855afa15801561438c573d6000803e3d6000fd5b5050604051601f1901519150506001600160a01b0381166143b5576000600192509250506143bc565b9150600090505b94509492505050565b60008160048111156143d9576143d9614e97565b036143e15750565b60018160048111156143f5576143f5614e97565b036144425760405162461bcd60e51b815260206004820152601860248201527f45434453413a20696e76616c6964207369676e6174757265000000000000000060448201526064016110ed565b600281600481111561445657614456614e97565b036144a35760405162461bcd60e51b815260206004820152601f60248201527f45434453413a20696e76616c6964207369676e6174757265206c656e6774680060448201526064016110ed565b60038160048111156144b7576144b7614e97565b036111f25760405162461bcd60e51b815260206004820152602260248201527f45434453413a20696e76616c6964207369676e6174757265202773272076616c60448201527f756500000000000000000000000000000000000000000000000000000000000060648201526084016110ed565b6000806145356139d3565b80519091501561454c578051602090910120919050565b60fb54801561455b5792915050565b7fc5d2460186f7233c927e7db2dcc703c0e500b653ca82273b7bfad8045d85a4709250505090565b60008061458e6139e2565b8051909150156145a5578051602090910120919050565b60fc54801561455b5792915050565b6145bd81614086565b6040516001600160a01b038216907fbc7cd75a20ee27fd9adebab32041f755214dbc6bffa90cc0225b39da2e5c2d3b90600090a250565b6060611ab18383604051806060016040528060278152602001614eca602791396060600080856001600160a01b0316856040516146319190614ead565b600060405180830381855af49150503d806000811461466c576040519150601f19603f3d011682016040523d82523d6000602084013e614671565b606091505b50915091506146828683838761468c565b9695505050505050565b606083156146fb5782516000036146f4576001600160a01b0385163b6146f45760405162461bcd60e51b815260206004820152601d60248201527f416464726573733a2063616c6c20746f206e6f6e2d636f6e747261637400000060448201526064016110ed565b5081613c9a565b613c9a83838151156147105781518083602001fd5b8060405162461bcd60e51b81526004016110ed91906147bb565b6001600160a01b03811681146111f257600080fd5b6000806040838503121561475257600080fd5b823561475d8161472a565b946020939093013593505050565b60005b8381101561478657818101518382015260200161476e565b50506000910152565b600081518084526147a781602086016020860161476b565b601f01601f19169290920160200192915050565b602081526000611ab1602083018461478f565b6000602082840312156147e057600080fd5b5035919050565b6000806000606084860312156147fc57600080fd5b83356148078161472a565b925060208401356148178161472a565b929592945050506040919091013590565b60006020828403121561483a57600080fd5b8135611ab18161472a565b634e487b7160e01b600052604160045260246000fd5b600067ffffffffffffffff8084111561487657614876614845565b604051601f8501601f19908116603f0116810190828211818310171561489e5761489e614845565b816040528093508581528686860111156148b757600080fd5b858560208301376000602087830101525050509392505050565b600080604083850312156148e457600080fd5b82356148ef8161472a565b9150602083013567ffffffffffffffff81111561490b57600080fd5b8301601f8101851361491c57600080fd5b61492b8582356020840161485b565b9150509250929050565b803560ff81168114611ac157600080fd5b60008060008060008060c0878903121561495f57600080fd5b8635955060208701356149718161472a565b94506040870135935061498660608801614935565b92506080870135915060a087013590509295509295509295565b600080604083850312156149b357600080fd5b8235915060208301356149c58161472a565b809150509250929050565b600082601f8301126149e157600080fd5b611ab18383356020850161485b565b80151581146111f257600080fd5b600080600080600060a08688031215614a1657600080fd5b853567ffffffffffffffff80821115614a2e57600080fd5b614a3a89838a016149d0565b96506020880135915080821115614a5057600080fd5b50614a5d888289016149d0565b9450506040860135614a6e8161472a565b92506060860135614a7e8161472a565b91506080860135614a8e816149f0565b809150509295509295909350565b7fff00000000000000000000000000000000000000000000000000000000000000881681526000602060e081840152614ad860e084018a61478f565b8381036040850152614aea818a61478f565b606085018990526001600160a01b038816608086015260a0850187905284810360c0860152855180825283870192509083019060005b81811015614b3c57835183529284019291840191600101614b20565b50909c9b505050505050505050505050565b600080600060608486031215614b6357600080fd5b833592506020840135614b758161472a565b91506040840135614b858161472a565b809150509250925092565b600080600080600080600060e0888a031215614bab57600080fd5b8735614bb68161472a565b96506020880135614bc68161472a565b95506040880135945060608801359350614be260808901614935565b925060a0880135915060c0880135905092959891949750929550565b60008060408385031215614c1157600080fd5b8235614c1c8161472a565b915060208301356149c58161472a565b600060208284031215614c3e57600080fd5b5051919050565b600181811c90821680614c5957607f821691505b602082108103613c2a57634e487b7160e01b600052602260045260246000fd5b600060208284031215614c8b57600080fd5b8151611ab1816149f0565b600060808284031215614ca857600080fd5b82601f830112614cb757600080fd5b6040516080810181811067ffffffffffffffff82111715614cda57614cda614845565b604052806080840185811115614cef57600080fd5b845b81811015614d09578051835260209283019201614cf1565b509195945050505050565b634e487b7160e01b600052601160045260246000fd5b80820180821115610bb057610bb0614d14565b81810381811115610bb057610bb0614d14565b60008060408385031215614d6357600080fd5b505080516020909101519092909150565b600060208284031215614d8657600080fd5b8151611ab18161472a565b601f821115610b0557600081815260208120601f850160051c81016020861015614db85750805b601f850160051c820191505b81811015611d2257828155600101614dc4565b815167ffffffffffffffff811115614df157614df1614845565b614e0581614dff8454614c45565b84614d91565b602080601f831160018114614e3a5760008415614e225750858301515b600019600386901b1c1916600185901b178555611d22565b600085815260208120601f198616915b82811015614e6957888601518255948401946001909101908401614e4a565b5085821015614e875787850151600019600388901b60f8161c191681555b5050505050600190811b01905550565b634e487b7160e01b600052602160045260246000fd5b60008251614ebf81846020870161476b565b919091019291505056fe416464726573733a206c6f772d6c6576656c2064656c65676174652063616c6c206661696c6564a2646970667358221220c17b022574921f01def01764d49ed026a78459c5af5120c92be0d20bcc62af7c64736f6c63430008110033",
  "linkReferences": {},
  "deployedLinkReferences": {}
}