{
  "_format": "hh-sol-artifact-1",
  "contractName": "SmartToken",
  "sourceName": "contracts/vaults/SmartToken.sol",
  "abi": [
    {
      "inputs": [],
      "stateMutability": "nonpayable",
      "type": "constructor"
    },
    {
      "inputs": [],
      "name": "BaseContract__DepositCircuitBreaker",
      "type": "error"
    },
    {
      "inputs": [],
      "name": "BaseContract__RebalanceCircuitBreaker",
      "type": "error"
    },
    {
      "inputs": [],
      "name": "BaseContract__SanctionedAddress",
      "type": "error"
    },
    {
      "inputs": [],
      "name": "BaseContract__TransferCircuitBreaker",
      "type": "error"
    },
    {
      "inputs": [],
      "name": "BaseContract__WithdrawCircuitBreaker",
      "type": "error"
    },
    {
      "inputs": [],
      "name": "SmartToken__DepositLimitHit",
      "type": "error"
    },
    {
      "inputs": [],
      "name": "SmartToken__DepositMoreThanMax",
      "type": "error"
    },
    {
      "inputs": [],
      "name": "SmartToken__InsufficientUnderlying",
      "type": "error"
    },
    {
      "inputs": [],
      "name": "SmartToken__MethodNotAllowed",
      "type": "error"
    },
    {
      "inputs": [],
      "name": "SmartToken__MintMoreThanMax",
      "type": "error"
    },
    {
      "inputs": [],
      "name": "SmartToken__NotTokenFactory",
      "type": "error"
    },
    {
      "inputs": [],
      "name": "SmartToken__OnlyAssetOwner",
      "type": "error"
    },
    {
      "inputs": [],
      "name": "SmartToken__RedeemMoreThanMax",
      "type": "error"
    },
    {
      "inputs": [],
      "name": "SmartToken__WithdrawLimitHit",
      "type": "error"
    },
    {
      "inputs": [],
      "name": "SmartToken__WithdrawMoreThanMax",
      "type": "error"
    },
    {
      "inputs": [],
      "name": "SmartToken__ZeroDeposit",
      "type": "error"
    },
    {
      "anonymous": false,
      "inputs": [
        {
          "indexed": false,
          "internalType": "address",
          "name": "previousAdmin",
          "type": "address"
        },
        {
          "indexed": false,
          "internalType": "address",
          "name": "newAdmin",
          "type": "address"
        }
      ],
      "name": "AdminChanged",
      "type": "event"
    },
    {
      "anonymous": false,
      "inputs": [
        {
          "indexed": true,
          "internalType": "address",
          "name": "owner",
          "type": "address"
        },
        {
          "indexed": true,
          "internalType": "address",
          "name": "spender",
          "type": "address"
        },
        {
          "indexed": false,
          "internalType": "uint256",
          "name": "value",
          "type": "uint256"
        }
      ],
      "name": "Approval",
      "type": "event"
    },
    {
      "anonymous": false,
      "inputs": [
        {
          "indexed": true,
          "internalType": "address",
          "name": "beacon",
          "type": "address"
        }
      ],
      "name": "BeaconUpgraded",
      "type": "event"
    },
    {
      "anonymous": false,
      "inputs": [
        {
          "indexed": true,
          "internalType": "address",
          "name": "sender",
          "type": "address"
        },
        {
          "indexed": true,
          "internalType": "address",
          "name": "owner",
          "type": "address"
        },
        {
          "indexed": false,
          "internalType": "uint256",
          "name": "assets",
          "type": "uint256"
        },
        {
          "indexed": false,
          "internalType": "uint256",
          "name": "shares",
          "type": "uint256"
        }
      ],
      "name": "Deposit",
      "type": "event"
    },
    {
      "anonymous": false,
      "inputs": [],
      "name": "EIP712DomainChanged",
      "type": "event"
    },
    {
      "anonymous": false,
      "inputs": [
        {
          "indexed": false,
          "internalType": "uint8",
          "name": "version",
          "type": "uint8"
        }
      ],
      "name": "Initialized",
      "type": "event"
    },
    {
      "anonymous": false,
      "inputs": [
        {
          "indexed": true,
          "internalType": "address",
          "name": "previousOwner",
          "type": "address"
        },
        {
          "indexed": true,
          "internalType": "address",
          "name": "newOwner",
          "type": "address"
        }
      ],
      "name": "OwnershipTransferred",
      "type": "event"
    },
    {
      "anonymous": false,
      "inputs": [
        {
          "indexed": true,
          "internalType": "address",
          "name": "from",
          "type": "address"
        },
        {
          "indexed": true,
          "internalType": "address",
          "name": "to",
          "type": "address"
        },
        {
          "indexed": false,
          "internalType": "uint256",
          "name": "value",
          "type": "uint256"
        }
      ],
      "name": "Transfer",
      "type": "event"
    },
    {
      "anonymous": false,
      "inputs": [
        {
          "indexed": true,
          "internalType": "address",
          "name": "implementation",
          "type": "address"
        }
      ],
      "name": "Upgraded",
      "type": "event"
    },
    {
      "anonymous": false,
      "inputs": [
        {
          "indexed": true,
          "internalType": "address",
          "name": "sender",
          "type": "address"
        },
        {
          "indexed": true,
          "internalType": "address",
          "name": "receiver",
          "type": "address"
        },
        {
          "indexed": true,
          "internalType": "address",
          "name": "owner",
          "type": "address"
        },
        {
          "indexed": false,
          "internalType": "uint256",
          "name": "assets",
          "type": "uint256"
        },
        {
          "indexed": false,
          "internalType": "uint256",
          "name": "shares",
          "type": "uint256"
        }
      ],
      "name": "Withdraw",
      "type": "event"
    },
    {
      "inputs": [],
      "name": "DOMAIN_SEPARATOR",
      "outputs": [
        {
          "internalType": "bytes32",
          "name": "",
          "type": "bytes32"
        }
      ],
      "stateMutability": "view",
      "type": "function"
    },
    {
      "inputs": [
        {
          "internalType": "address",
          "name": "owner",
          "type": "address"
        },
        {
          "internalType": "address",
          "name": "spender",
          "type": "address"
        }
      ],
      "name": "allowance",
      "outputs": [
        {
          "internalType": "uint256",
          "name": "",
          "type": "uint256"
        }
      ],
      "stateMutability": "view",
      "type": "function"
    },
    {
      "inputs": [
        {
          "internalType": "address",
          "name": "spender",
          "type": "address"
        },
        {
          "internalType": "uint256",
          "name": "amount",
          "type": "uint256"
        }
      ],
      "name": "approve",
      "outputs": [
        {
          "internalType": "bool",
          "name": "",
          "type": "bool"
        }
      ],
      "stateMutability": "nonpayable",
      "type": "function"
    },
    {
      "inputs": [],
      "name": "asset",
      "outputs": [
        {
          "internalType": "address",
          "name": "",
          "type": "address"
        }
      ],
      "stateMutability": "view",
      "type": "function"
    },
    {
      "inputs": [
        {
          "internalType": "address",
          "name": "account",
          "type": "address"
        }
      ],
      "name": "balanceOf",
      "outputs": [
        {
          "internalType": "uint256",
          "name": "",
          "type": "uint256"
        }
      ],
      "stateMutability": "view",
      "type": "function"
    },
    {
      "inputs": [
        {
          "internalType": "address",
          "name": "account",
          "type": "address"
        },
        {
          "internalType": "uint256",
          "name": "amount",
          "type": "uint256"
        }
      ],
      "name": "burn",
      "outputs": [],
      "stateMutability": "nonpayable",
      "type": "function"
    },
    {
      "inputs": [
        {
          "internalType": "uint256",
          "name": "shares",
          "type": "uint256"
        }
      ],
      "name": "convertToAssets",
      "outputs": [
        {
          "internalType": "uint256",
          "name": "assets",
          "type": "uint256"
        }
      ],
      "stateMutability": "view",
      "type": "function"
    },
    {
      "inputs": [
        {
          "internalType": "uint256",
          "name": "assets",
          "type": "uint256"
        }
      ],
      "name": "convertToShares",
      "outputs": [
        {
          "internalType": "uint256",
          "name": "shares",
          "type": "uint256"
        }
      ],
      "stateMutability": "view",
      "type": "function"
    },
    {
      "inputs": [],
      "name": "decimals",
      "outputs": [
        {
          "internalType": "uint8",
          "name": "",
          "type": "uint8"
        }
      ],
      "stateMutability": "view",
      "type": "function"
    },
    {
      "inputs": [
        {
          "internalType": "address",
          "name": "spender",
          "type": "address"
        },
        {
          "internalType": "uint256",
          "name": "subtractedValue",
          "type": "uint256"
        }
      ],
      "name": "decreaseAllowance",
      "outputs": [
        {
          "internalType": "bool",
          "name": "",
          "type": "bool"
        }
      ],
      "stateMutability": "nonpayable",
      "type": "function"
    },
    {
      "inputs": [
        {
          "internalType": "uint256",
          "name": "assets",
          "type": "uint256"
        },
        {
          "internalType": "address",
          "name": "receiver",
          "type": "address"
        }
      ],
      "name": "deposit",
      "outputs": [
        {
          "internalType": "uint256",
          "name": "",
          "type": "uint256"
        }
      ],
      "stateMutability": "nonpayable",
      "type": "function"
    },
    {
      "inputs": [
        {
          "internalType": "uint256",
          "name": "assets",
          "type": "uint256"
        },
        {
          "internalType": "address",
          "name": "receiver",
          "type": "address"
        },
        {
          "internalType": "uint256",
          "name": "deadline",
          "type": "uint256"
        },
        {
          "internalType": "uint8",
          "name": "v",
          "type": "uint8"
        },
        {
          "internalType": "bytes32",
          "name": "r",
          "type": "bytes32"
        },
        {
          "internalType": "bytes32",
          "name": "s",
          "type": "bytes32"
        }
      ],
      "name": "depositWithPermit",
      "outputs": [
        {
          "internalType": "uint256",
          "name": "",
          "type": "uint256"
        }
      ],
      "stateMutability": "nonpayable",
      "type": "function"
    },
    {
      "inputs": [],
      "name": "eip712Domain",
      "outputs": [
        {
          "internalType": "bytes1",
          "name": "fields",
          "type": "bytes1"
        },
        {
          "internalType": "string",
          "name": "name",
          "type": "string"
        },
        {
          "internalType": "string",
          "name": "version",
          "type": "string"
        },
        {
          "internalType": "uint256",
          "name": "chainId",
          "type": "uint256"
        },
        {
          "internalType": "address",
          "name": "verifyingContract",
          "type": "address"
        },
        {
          "internalType": "bytes32",
          "name": "salt",
          "type": "bytes32"
        },
        {
          "internalType": "uint256[]",
          "name": "extensions",
          "type": "uint256[]"
        }
      ],
      "stateMutability": "view",
      "type": "function"
    },
    {
      "inputs": [],
      "name": "getTokenFactory",
      "outputs": [
        {
          "internalType": "address",
          "name": "",
          "type": "address"
        }
      ],
      "stateMutability": "view",
      "type": "function"
    },
    {
      "inputs": [
        {
          "internalType": "address",
          "name": "sender",
          "type": "address"
        },
        {
          "internalType": "address",
          "name": "receiver",
          "type": "address"
        }
      ],
      "name": "handlePendingFF",
      "outputs": [],
      "stateMutability": "nonpayable",
      "type": "function"
    },
    {
      "inputs": [
        {
          "internalType": "address",
          "name": "sender",
          "type": "address"
        },
        {
          "internalType": "address",
          "name": "receiver",
          "type": "address"
        }
      ],
      "name": "handlePendingRebalance",
      "outputs": [],
      "stateMutability": "nonpayable",
      "type": "function"
    },
    {
      "inputs": [
        {
          "internalType": "address",
          "name": "account",
          "type": "address"
        }
      ],
      "name": "hasPendingFF",
      "outputs": [
        {
          "internalType": "bool",
          "name": "",
          "type": "bool"
        }
      ],
      "stateMutability": "view",
      "type": "function"
    },
    {
      "inputs": [
        {
          "internalType": "address",
          "name": "account",
          "type": "address"
        }
      ],
      "name": "hasPendingRebalance",
      "outputs": [
        {
          "internalType": "bool",
          "name": "",
          "type": "bool"
        }
      ],
      "stateMutability": "view",
      "type": "function"
    },
    {
      "inputs": [
        {
          "internalType": "address",
          "name": "spender",
          "type": "address"
        },
        {
          "internalType": "uint256",
          "name": "addedValue",
          "type": "uint256"
        }
      ],
      "name": "increaseAllowance",
      "outputs": [
        {
          "internalType": "bool",
          "name": "",
          "type": "bool"
        }
      ],
      "stateMutability": "nonpayable",
      "type": "function"
    },
    {
      "inputs": [
        {
          "internalType": "string",
          "name": "tokenName",
          "type": "string"
        },
        {
          "internalType": "string",
          "name": "tokenSymbol",
          "type": "string"
        },
        {
          "internalType": "address",
          "name": "factoryAddress",
          "type": "address"
        },
        {
          "internalType": "address",
          "name": "sanctionsContract_",
          "type": "address"
        },
        {
          "internalType": "bool",
          "name": "isX_",
          "type": "bool"
        }
      ],
      "name": "initialize",
      "outputs": [],
      "stateMutability": "nonpayable",
      "type": "function"
    },
    {
      "inputs": [],
      "name": "isDepositCircuitBreaker",
      "outputs": [
        {
          "internalType": "bool",
          "name": "",
          "type": "bool"
        }
      ],
      "stateMutability": "view",
      "type": "function"
    },
    {
      "inputs": [],
      "name": "isRebalanceCircuitBreaker",
      "outputs": [
        {
          "internalType": "bool",
          "name": "",
          "type": "bool"
        }
      ],
      "stateMutability": "view",
      "type": "function"
    },
    {
      "inputs": [],
      "name": "isTransferCircuitBreaker",
      "outputs": [
        {
          "internalType": "bool",
          "name": "",
          "type": "bool"
        }
      ],
      "stateMutability": "view",
      "type": "function"
    },
    {
      "inputs": [],
      "name": "isWithdrawCircuitBreaker",
      "outputs": [
        {
          "internalType": "bool",
          "name": "",
          "type": "bool"
        }
      ],
      "stateMutability": "view",
      "type": "function"
    },
    {
      "inputs": [
        {
          "internalType": "address",
          "name": "account",
          "type": "address"
        }
      ],
      "name": "maxDeposit",
      "outputs": [
        {
          "internalType": "uint256",
          "name": "",
          "type": "uint256"
        }
      ],
      "stateMutability": "view",
      "type": "function"
    },
    {
      "inputs": [
        {
          "internalType": "address",
          "name": "account",
          "type": "address"
        }
      ],
      "name": "maxMint",
      "outputs": [
        {
          "internalType": "uint256",
          "name": "",
          "type": "uint256"
        }
      ],
      "stateMutability": "view",
      "type": "function"
    },
    {
      "inputs": [
        {
          "internalType": "address",
          "name": "owner_",
          "type": "address"
        }
      ],
      "name": "maxRedeem",
      "outputs": [
        {
          "internalType": "uint256",
          "name": "",
          "type": "uint256"
        }
      ],
      "stateMutability": "view",
      "type": "function"
    },
    {
      "inputs": [
        {
          "internalType": "address",
          "name": "owner_",
          "type": "address"
        }
      ],
      "name": "maxWithdraw",
      "outputs": [
        {
          "internalType": "uint256",
          "name": "",
          "type": "uint256"
        }
      ],
      "stateMutability": "view",
      "type": "function"
    },
    {
      "inputs": [
        {
          "internalType": "uint256",
          "name": "shares",
          "type": "uint256"
        },
        {
          "internalType": "address",
          "name": "receiver",
          "type": "address"
        }
      ],
      "name": "mint",
      "outputs": [
        {
          "internalType": "uint256",
          "name": "",
          "type": "uint256"
        }
      ],
      "stateMutability": "nonpayable",
      "type": "function"
    },
    {
      "inputs": [
        {
          "internalType": "address",
          "name": "receiver",
          "type": "address"
        },
        {
          "internalType": "uint256",
          "name": "amount",
          "type": "uint256"
        }
      ],
      "name": "mintAsset",
      "outputs": [],
      "stateMutability": "nonpayable",
      "type": "function"
    },
    {
      "inputs": [],
      "name": "name",
      "outputs": [
        {
          "internalType": "string",
          "name": "",
          "type": "string"
        }
      ],
      "stateMutability": "view",
      "type": "function"
    },
    {
      "inputs": [
        {
          "internalType": "address",
          "name": "owner",
          "type": "address"
        }
      ],
      "name": "nonces",
      "outputs": [
        {
          "internalType": "uint256",
          "name": "",
          "type": "uint256"
        }
      ],
      "stateMutability": "view",
      "type": "function"
    },
    {
      "inputs": [],
      "name": "owner",
      "outputs": [
        {
          "internalType": "address",
          "name": "",
          "type": "address"
        }
      ],
      "stateMutability": "view",
      "type": "function"
    },
    {
      "inputs": [
        {
          "internalType": "address",
          "name": "owner",
          "type": "address"
        },
        {
          "internalType": "address",
          "name": "spender",
          "type": "address"
        },
        {
          "internalType": "uint256",
          "name": "value",
          "type": "uint256"
        },
        {
          "internalType": "uint256",
          "name": "deadline",
          "type": "uint256"
        },
        {
          "internalType": "uint8",
          "name": "v",
          "type": "uint8"
        },
        {
          "internalType": "bytes32",
          "name": "r",
          "type": "bytes32"
        },
        {
          "internalType": "bytes32",
          "name": "s",
          "type": "bytes32"
        }
      ],
      "name": "permit",
      "outputs": [],
      "stateMutability": "nonpayable",
      "type": "function"
    },
    {
      "inputs": [
        {
          "internalType": "uint256",
          "name": "assets",
          "type": "uint256"
        }
      ],
      "name": "previewDeposit",
      "outputs": [
        {
          "internalType": "uint256",
          "name": "",
          "type": "uint256"
        }
      ],
      "stateMutability": "view",
      "type": "function"
    },
    {
      "inputs": [
        {
          "internalType": "uint256",
          "name": "shares",
          "type": "uint256"
        }
      ],
      "name": "previewMint",
      "outputs": [
        {
          "internalType": "uint256",
          "name": "",
          "type": "uint256"
        }
      ],
      "stateMutability": "view",
      "type": "function"
    },
    {
      "inputs": [
        {
          "internalType": "uint256",
          "name": "shares",
          "type": "uint256"
        }
      ],
      "name": "previewRedeem",
      "outputs": [
        {
          "internalType": "uint256",
          "name": "",
          "type": "uint256"
        }
      ],
      "stateMutability": "view",
      "type": "function"
    },
    {
      "inputs": [
        {
          "internalType": "uint256",
          "name": "assets",
          "type": "uint256"
        }
      ],
      "name": "previewWithdraw",
      "outputs": [
        {
          "internalType": "uint256",
          "name": "",
          "type": "uint256"
        }
      ],
      "stateMutability": "view",
      "type": "function"
    },
    {
      "inputs": [],
      "name": "proxiableUUID",
      "outputs": [
        {
          "internalType": "bytes32",
          "name": "",
          "type": "bytes32"
        }
      ],
      "stateMutability": "view",
      "type": "function"
    },
    {
      "inputs": [
        {
          "internalType": "uint256",
          "name": "shares",
          "type": "uint256"
        },
        {
          "internalType": "address",
          "name": "receiver",
          "type": "address"
        },
        {
          "internalType": "address",
          "name": "owner_",
          "type": "address"
        }
      ],
      "name": "redeem",
      "outputs": [
        {
          "internalType": "uint256",
          "name": "",
          "type": "uint256"
        }
      ],
      "stateMutability": "nonpayable",
      "type": "function"
    },
    {
      "inputs": [],
      "name": "renounceOwnership",
      "outputs": [],
      "stateMutability": "nonpayable",
      "type": "function"
    },
    {
      "inputs": [],
      "name": "resumeAllCircuitBreakers",
      "outputs": [],
      "stateMutability": "nonpayable",
      "type": "function"
    },
    {
      "inputs": [
        {
          "internalType": "address",
          "name": "account",
          "type": "address"
        },
        {
          "internalType": "uint256",
          "name": "amount",
          "type": "uint256"
        }
      ],
      "name": "smartBalanceAdjust",
      "outputs": [],
      "stateMutability": "nonpayable",
      "type": "function"
    },
    {
      "inputs": [
        {
          "internalType": "address",
          "name": "treasuryAddress",
          "type": "address"
        },
        {
          "internalType": "uint256",
          "name": "amount",
          "type": "uint256"
        }
      ],
      "name": "smartTreasuryTransfer",
      "outputs": [],
      "stateMutability": "nonpayable",
      "type": "function"
    },
    {
      "inputs": [],
      "name": "stopAllCircuitBreakers",
      "outputs": [],
      "stateMutability": "nonpayable",
      "type": "function"
    },
    {
      "inputs": [],
      "name": "symbol",
      "outputs": [
        {
          "internalType": "string",
          "name": "",
          "type": "string"
        }
      ],
      "stateMutability": "view",
      "type": "function"
    },
    {
      "inputs": [],
      "name": "toggleDepositCircuitBreaker",
      "outputs": [],
      "stateMutability": "nonpayable",
      "type": "function"
    },
    {
      "inputs": [],
      "name": "toggleRebalanceCircuitBreaker",
      "outputs": [],
      "stateMutability": "nonpayable",
      "type": "function"
    },
    {
      "inputs": [],
      "name": "toggleTransferCircuitBreaker",
      "outputs": [],
      "stateMutability": "nonpayable",
      "type": "function"
    },
    {
      "inputs": [],
      "name": "toggleWithdrawCircuitBreaker",
      "outputs": [],
      "stateMutability": "nonpayable",
      "type": "function"
    },
    {
      "inputs": [],
      "name": "totalAssets",
      "outputs": [
        {
          "internalType": "uint256",
          "name": "",
          "type": "uint256"
        }
      ],
      "stateMutability": "view",
      "type": "function"
    },
    {
      "inputs": [],
      "name": "totalSupply",
      "outputs": [
        {
          "internalType": "uint256",
          "name": "",
          "type": "uint256"
        }
      ],
      "stateMutability": "view",
      "type": "function"
    },
    {
      "inputs": [
        {
          "internalType": "address",
          "name": "recipient",
          "type": "address"
        },
        {
          "internalType": "uint256",
          "name": "amount",
          "type": "uint256"
        }
      ],
      "name": "transfer",
      "outputs": [
        {
          "internalType": "bool",
          "name": "",
          "type": "bool"
        }
      ],
      "stateMutability": "nonpayable",
      "type": "function"
    },
    {
      "inputs": [
        {
          "internalType": "address",
          "name": "sender",
          "type": "address"
        },
        {
          "internalType": "address",
          "name": "recipient",
          "type": "address"
        },
        {
          "internalType": "uint256",
          "name": "amount",
          "type": "uint256"
        }
      ],
      "name": "transferFrom",
      "outputs": [
        {
          "internalType": "bool",
          "name": "",
          "type": "bool"
        }
      ],
      "stateMutability": "nonpayable",
      "type": "function"
    },
    {
      "inputs": [
        {
          "internalType": "address",
          "name": "newOwner",
          "type": "address"
        }
      ],
      "name": "transferOwnership",
      "outputs": [],
      "stateMutability": "nonpayable",
      "type": "function"
    },
    {
      "inputs": [
        {
          "internalType": "address",
          "name": "account",
          "type": "address"
        }
      ],
      "name": "unScaledbalanceOf",
      "outputs": [
        {
          "internalType": "uint256",
          "name": "",
          "type": "uint256"
        }
      ],
      "stateMutability": "view",
      "type": "function"
    },
    {
      "inputs": [
        {
          "internalType": "address",
          "name": "newImplementation",
          "type": "address"
        }
      ],
      "name": "upgradeTo",
      "outputs": [],
      "stateMutability": "nonpayable",
      "type": "function"
    },
    {
      "inputs": [
        {
          "internalType": "address",
          "name": "newImplementation",
          "type": "address"
        },
        {
          "internalType": "bytes",
          "name": "data",
          "type": "bytes"
        }
      ],
      "name": "upgradeToAndCall",
      "outputs": [],
      "stateMutability": "payable",
      "type": "function"
    },
    {
      "inputs": [
        {
          "internalType": "uint256",
          "name": "assets",
          "type": "uint256"
        },
        {
          "internalType": "address",
          "name": "receiver",
          "type": "address"
        },
        {
          "internalType": "address",
          "name": "owner_",
          "type": "address"
        }
      ],
      "name": "withdraw",
      "outputs": [
        {
          "internalType": "uint256",
          "name": "",
          "type": "uint256"
        }
      ],
      "stateMutability": "nonpayable",
      "type": "function"
    }
  ],
  "bytecode": "0x60a0604052306080523480156200001557600080fd5b506200002062000030565b6200002a62000030565b620000f1565b600054610100900460ff16156200009d5760405162461bcd60e51b815260206004820152602760248201527f496e697469616c697a61626c653a20636f6e747261637420697320696e697469604482015266616c697a696e6760c81b606482015260840160405180910390fd5b60005460ff90811614620000ef576000805460ff191660ff9081179091556040519081527f7f26b83ff96e1f2b6a682f133852f6798a09c465da95921460cefb38474024989060200160405180910390a15b565b608051614aed62000129600039600081816111310152818161117a015281816112b7015281816112f701526117460152614aed6000f3fe60806040526004361061038c5760003560e01c80637dbaab62116101dc578063b460af9411610102578063d78f0921116100a0578063ef8b30f71161006f578063ef8b30f714610412578063f077fd3c14610959578063f2fde38b14610979578063fd6064b31461099957600080fd5b8063d78f09211461090f578063d905777e146108ba578063dd62ed3e14610924578063e58127311461094457600080fd5b8063c6e6f592116100dc578063c6e6f59214610412578063ce96cb77146108ba578063d505accf146108da578063d69f62e0146108fa57600080fd5b8063b460af941461087a578063ba0876521461089a578063c63d75b6146105ae57600080fd5b8063925d6ba21161017a578063a457c2d711610149578063a457c2d71461081a578063a9059cbb1461083a578063b1dbfcee1461085a578063b3d7f6b91461041257600080fd5b8063925d6ba2146107a657806394bf804d146107c557806395d89b41146107e55780639dc29fac146107fa57600080fd5b806385f2eac0116101b657806385f2eac0146107285780638da5cb5b146107485780638f4cef0c146107665780638f50bd131461078657600080fd5b80637dbaab62146106c05780637ecebe00146106e057806384b0196e1461070057600080fd5b80633644e515116102c1578063501639741161025f5780636a3005291161022e5780636a300529146106565780636e553f651461066b57806370a082311461068b578063715018a6146106ab57600080fd5b806350163974146105e157806350921b231461060157806352d1902d146106215780635f758bef1461063657600080fd5b8063395093511161029b578063395093511461058e578063402d267d146105ae5780634cdad506146104125780634f1ef286146105ce57600080fd5b80633644e515146105265780633659cfe61461053b57806338d52e0f1461055b57600080fd5b806316b535f41161032e578063275f0ddd11610308578063275f0ddd146104b557806327a44ed0146104d557806330928009146104f5578063313ce5671461050a57600080fd5b806316b535f41461046057806318160ddd1461048057806323b872dd1461049557600080fd5b806306fdde031161036a57806306fdde03146103f057806307a2d13a14610412578063095ea7b3146104305780630a28a4771461041257600080fd5b806301e1d11414610391578063030d4ed7146103b957806305bfee33146103d0575b600080fd5b34801561039d57600080fd5b506103a66109b9565b6040519081526020015b60405180910390f35b3480156103c557600080fd5b506103ce610a35565b005b3480156103dc57600080fd5b506103ce6103eb3660046141b2565b610a50565b3480156103fc57600080fd5b50610405610adc565b6040516103b0919061422e565b34801561041e57600080fd5b506103a661042d366004614241565b90565b34801561043c57600080fd5b5061045061044b3660046141b2565b610b6e565b60405190151581526020016103b0565b34801561046c57600080fd5b506103ce61047b3660046141b2565b610b88565b34801561048c57600080fd5b5060cb546103a6565b3480156104a157600080fd5b506104506104b036600461425a565b610c17565b3480156104c157600080fd5b506103ce6104d036600461429b565b610fb0565b3480156104e157600080fd5b5061016254600160b81b900460ff16610450565b34801561050157600080fd5b506103ce6110f3565b34801561051657600080fd5b50604051601281526020016103b0565b34801561053257600080fd5b506103a661111d565b34801561054757600080fd5b506103ce6105563660046142d4565b611127565b34801561056757600080fd5b50610196546001600160a01b03165b6040516001600160a01b0390911681526020016103b0565b34801561059a57600080fd5b506104506105a93660046141b2565b61120f565b3480156105ba57600080fd5b506103a66105c93660046142d4565b611231565b6103ce6105dc36600461437d565b6112ad565b3480156105ed57600080fd5b506104506105fc3660046142d4565b611379565b34801561060d57600080fd5b506103a661061c3660046143f2565b611460565b34801561062d57600080fd5b506103a6611739565b34801561064257600080fd5b506103ce6106513660046141b2565b6117ec565b34801561066257600080fd5b506103ce6117fe565b34801561067757600080fd5b506103a661068636600461444c565b611828565b34801561069757600080fd5b506103a66106a63660046142d4565b611a5b565b3480156106b757600080fd5b506103ce611b20565b3480156106cc57600080fd5b506103ce6106db36600461449f565b611b34565b3480156106ec57600080fd5b506103a66106fb3660046142d4565b611d18565b34801561070c57600080fd5b50610715611d37565b6040516103b0979695949392919061453d565b34801561073457600080fd5b5061016254600160b01b900460ff16610450565b34801561075457600080fd5b506097546001600160a01b0316610576565b34801561077257600080fd5b506103a66107813660046142d4565b611dd5565b34801561079257600080fd5b506104506107a13660046142d4565b611df3565b3480156107b257600080fd5b50610195546001600160a01b0316610576565b3480156107d157600080fd5b506103a66107e036600461444c565b611e95565b3480156107f157600080fd5b506104056120e3565b34801561080657600080fd5b506103ce6108153660046141b2565b6120f2565b34801561082657600080fd5b506104506108353660046141b2565b612104565b34801561084657600080fd5b506104506108553660046141b2565b61218a565b34801561086657600080fd5b5061016254600160a81b900460ff16610450565b34801561088657600080fd5b506103a66108953660046145d3565b6124f0565b3480156108a657600080fd5b506103a66108b53660046145d3565b6128bf565b3480156108c657600080fd5b506103a66108d53660046142d4565b612c49565b3480156108e657600080fd5b506103ce6108f5366004614615565b612cb9565b34801561090657600080fd5b506103ce612e1d565b34801561091b57600080fd5b506103ce612e41565b34801561093057600080fd5b506103a661093f36600461429b565b612e6b565b34801561095057600080fd5b506103ce612e96565b34801561096557600080fd5b506103ce61097436600461429b565b612ec0565b34801561098557600080fd5b506103ce6109943660046142d4565b612fd0565b3480156109a557600080fd5b5061016254600160a01b900460ff16610450565b61019654610195546040516370a0823160e01b81526001600160a01b03918216600482015260009291909116906370a0823190602401602060405180830381865afa158015610a0c573d6000803e3d6000fd5b505050506040513d601f19601f82011682018060405250810190610a309190614683565b905090565b610a3d613046565b610162805463ffffffff60a01b19169055565b610a586130a0565b61019554610196546040516368939ecf60e11b8152600160a01b90910460ff1615156004820152602481018390526001600160a01b039091169063d1273d9e90604401600060405180830381600087803b158015610ab557600080fd5b505af1158015610ac9573d6000803e3d6000fd5b50505050610ad782826130d5565b505050565b606060cc8054610aeb9061469c565b80601f0160208091040260200160405190810160405280929190818152602001828054610b179061469c565b8015610b645780601f10610b3957610100808354040283529160200191610b64565b820191906000526020600020905b815481529060010190602001808311610b4757829003601f168201915b5050505050905090565b600033610b7c8185856130ea565b60019150505b92915050565b610b906130a0565b610195546101965460405163566f4d9560e11b8152600160a01b90910460ff16151560048201526001600160a01b038481166024830152604482018490529091169063acde9b2a90606401600060405180830381600087803b158015610bf557600080fd5b505af1158015610c09573d6000803e3d6000fd5b50505050610ad7828261320e565b61016254600090600160b01b900460ff1615610c4657604051630c98e6a160e31b815260040160405180910390fd5b61019560009054906101000a90046001600160a01b03166001600160a01b0316629c185f6040518163ffffffff1660e01b8152600401602060405180830381865afa158015610c99573d6000803e3d6000fd5b505050506040513d601f19601f82011682018060405250810190610cbd91906146d0565b15610cdb576040516321e3430160e21b815260040160405180910390fd5b6101955460405163ed04c17f60e01b8152600060048201526001600160a01b039091169063ed04c17f90602401600060405180830381600087803b158015610d2257600080fd5b505af1158015610d36573d6000803e3d6000fd5b50506101625460405163df592f7d60e01b81526001600160a01b0380881660048301528794509091169150600090829063df592f7d90602401602060405180830381865afa158015610d8c573d6000803e3d6000fd5b505050506040513d601f19601f82011682018060405250810190610db091906146d0565b90508015610dd15760405163108a7eb160e21b815260040160405180910390fd5b6101625460405163df592f7d60e01b81526001600160a01b03808a16600483015289921690600090829063df592f7d90602401602060405180830381865afa158015610e21573d6000803e3d6000fd5b505050506040513d601f19601f82011682018060405250810190610e4591906146d0565b90508015610e665760405163108a7eb160e21b815260040160405180910390fd5b610e708a8a610fb0565b610e7a8a8a612ec0565b61019554604051633524f9e360e21b81526001600160a01b038c811660048301528b81166024830152600092169063d493e78c90604401608060405180830381865afa158015610ece573d6000803e3d6000fd5b505050506040513d601f19601f82011682018060405250810190610ef291906146ed565b90506000610f018c8c8c61321a565b61019554610196549192506001600160a01b03169063eec0d656908e908e90600160a01b900460ff168e8760006020020151886001602002015189600260200201518a600360200201516040518963ffffffff1660e01b8152600401610f6e98979695949392919061476b565b600060405180830381600087803b158015610f8857600080fd5b505af1158015610f9c573d6000803e3d6000fd5b50929e9d5050505050505050505050505050565b610fb982611379565b1561101f57610195546040516310e7089f60e11b81526001600160a01b038481166004830152909116906321ce113e90602401600060405180830381600087803b15801561100657600080fd5b505af115801561101a573d6000803e3d6000fd5b505050505b61019554604051631605ed3160e31b81526001600160a01b0383811660048301529091169063b02f698890602401600060405180830381600087803b15801561106757600080fd5b505af115801561107b573d6000803e3d6000fd5b5050505061108881611379565b156110ef57610195546040516310e7089f60e11b81526001600160a01b038381166004830152909116906321ce113e906024015b600060405180830381600087803b1580156110d657600080fd5b505af11580156110ea573d6000803e3d6000fd5b505050505b5050565b6110fb613046565b610162805460ff60b81b198116600160b81b9182900460ff1615909102179055565b6000610a30613233565b6001600160a01b037f00000000000000000000000000000000000000000000000000000000000000001630036111785760405162461bcd60e51b815260040161116f906147af565b60405180910390fd5b7f00000000000000000000000000000000000000000000000000000000000000006001600160a01b03166111c1600080516020614a71833981519152546001600160a01b031690565b6001600160a01b0316146111e75760405162461bcd60e51b815260040161116f906147fb565b6111f08161323d565b6040805160008082526020820190925261120c91839190613245565b50565b600033610b7c8185856112228383612e6b565b61122c919061485d565b6130ea565b6101955460405163728bf73360e01b81526001600160a01b038381166004830152600092169063728bf73390602401602060405180830381865afa15801561127d573d6000803e3d6000fd5b505050506040513d601f19601f820116820180604052508101906112a19190614683565b610b8290600019614870565b6001600160a01b037f00000000000000000000000000000000000000000000000000000000000000001630036112f55760405162461bcd60e51b815260040161116f906147af565b7f00000000000000000000000000000000000000000000000000000000000000006001600160a01b031661133e600080516020614a71833981519152546001600160a01b031690565b6001600160a01b0316146113645760405162461bcd60e51b815260040161116f906147fb565b61136d8261323d565b6110ef82826001613245565b6101955460408051638df4541b60e01b815290516000926001600160a01b031691638df4541b9160048083019260209291908290030181865afa1580156113c4573d6000803e3d6000fd5b505050506040513d601f19601f820116820180604052508101906113e89190614683565b6101955460405163a129c84760e01b81526001600160a01b0385811660048301529091169063a129c847906024015b602060405180830381865afa158015611434573d6000803e3d6000fd5b505050506040513d601f19601f820116820180604052508101906114589190614683565b141592915050565b61016254600090600160a01b900460ff161561148f57604051636822eceb60e11b815260040160405180910390fd5b61019560009054906101000a90046001600160a01b03166001600160a01b0316629c185f6040518163ffffffff1660e01b8152600401602060405180830381865afa1580156114e2573d6000803e3d6000fd5b505050506040513d601f19601f8201168201806040525081019061150691906146d0565b15611524576040516321e3430160e21b815260040160405180910390fd5b6101955460405163ed04c17f60e01b8152600060048201526001600160a01b039091169063ed04c17f90602401600060405180830381600087803b15801561156b57600080fd5b505af115801561157f573d6000803e3d6000fd5b505061019554604051634eacc0fd60e01b8152600481018b90528a93506001600160a01b039091169150634eacc0fd906024016020604051808303816000875af11580156115d1573d6000803e3d6000fd5b505050506040513d601f19601f820116820180604052508101906115f591906146d0565b156116135760405163b04c001160e01b815260040160405180910390fd5b878761161f82826133b0565b60008a610196549091506001600160a01b031663d505accf336101955460405160e084901b6001600160e01b03191681526001600160a01b0392831660048201529116602482015260448101849052606481018c905260ff8b16608482015260a481018a905260c4810189905260e401600060405180830381600087803b1580156116a957600080fd5b505af11580156116bd573d6000803e3d6000fd5b5050610195546001600160a01b0316915063c14cfe099050338c8e856040518563ffffffff1660e01b81526004016116f89493929190614883565b600060405180830381600087803b15801561171257600080fd5b505af1158015611726573d6000803e3d6000fd5b50929d9c50505050505050505050505050565b6000306001600160a01b037f000000000000000000000000000000000000000000000000000000000000000016146117d95760405162461bcd60e51b815260206004820152603860248201527f555550535570677261646561626c653a206d757374206e6f742062652063616c60448201527f6c6564207468726f7567682064656c656761746563616c6c0000000000000000606482015260840161116f565b50600080516020614a7183398151915290565b6117f46130a0565b6110ef82826133fa565b611806613046565b610162805460ff60b01b198116600160b01b9182900460ff1615909102179055565b61016254600090600160a01b900460ff161561185757604051636822eceb60e11b815260040160405180910390fd5b61019560009054906101000a90046001600160a01b03166001600160a01b0316629c185f6040518163ffffffff1660e01b8152600401602060405180830381865afa1580156118aa573d6000803e3d6000fd5b505050506040513d601f19601f820116820180604052508101906118ce91906146d0565b156118ec576040516321e3430160e21b815260040160405180910390fd5b6101955460405163ed04c17f60e01b8152600060048201526001600160a01b039091169063ed04c17f90602401600060405180830381600087803b15801561193357600080fd5b505af1158015611947573d6000803e3d6000fd5b505061019554604051634eacc0fd60e01b8152600481018790528693506001600160a01b039091169150634eacc0fd906024016020604051808303816000875af1158015611999573d6000803e3d6000fd5b505050506040513d601f19601f820116820180604052508101906119bd91906146d0565b156119db5760405163b04c001160e01b815260040160405180910390fd5b83836119e782826133b0565b6101955460405163c14cfe0960e01b815287916001600160a01b03169063c14cfe0990611a1e9033908a9086908190600401614883565b600060405180830381600087803b158015611a3857600080fd5b505af1158015611a4c573d6000803e3d6000fd5b50929998505050505050505050565b6000611a6682611df3565b80611a755750611a7582611379565b15611b12576101955460405163a4d96e1760e01b81526001600160a01b038481166004830152600092839291169063a4d96e17906024016040805180830381865afa158015611ac8573d6000803e3d6000fd5b505050506040513d601f19601f82011682018060405250810190611aec91906148ac565b610196549193509150600160a01b900460ff1615611b0b575092915050565b9392505050565b610b8282611dd5565b919050565b611b28613046565b611b3260006134bb565b565b600054610100900460ff1615808015611b545750600054600160ff909116105b80611b6e5750303b158015611b6e575060005460ff166001145b611bd15760405162461bcd60e51b815260206004820152602e60248201527f496e697469616c697a61626c653a20636f6e747261637420697320616c72656160448201526d191e481a5b9a5d1a585b1a5e995960921b606482015260840161116f565b6000805460ff191660011790558015611bf4576000805461ff0019166101001790555b611bfe868661350d565b611c078661353e565b611c1083613588565b611c186135d2565b611c20613601565b61019580546001600160a01b0319166001600160a01b03861690811790915560408051634c566bd360e11b815290516398acd7a6916004808201926020929091908290030181865afa158015611c7a573d6000803e3d6000fd5b505050506040513d601f19601f82011682018060405250810190611c9e91906148d0565b61019680546001600160a01b03929092166001600160a81b031990921691909117600160a01b8415150217905580156110ea576000805461ff0019169055604051600181527f7f26b83ff96e1f2b6a682f133852f6798a09c465da95921460cefb38474024989060200160405180910390a1505050505050565b6001600160a01b038116600090815261012f6020526040812054610b82565b60006060806000806000606060fb546000801b148015611d57575060fc54155b611d9b5760405162461bcd60e51b81526020600482015260156024820152741152540dcc4c8e88155b9a5b9a5d1a585b1a5e9959605a1b604482015260640161116f565b611da3613628565b611dab613637565b60408051600080825260208201909252600f60f81b9b939a50919850469750309650945092509050565b6001600160a01b038116600090815260c96020526040812054610b82565b6101955460408051636ee545fd60e11b815290516000926001600160a01b03169163ddca8bfa9160048083019260209291908290030181865afa158015611e3e573d6000803e3d6000fd5b505050506040513d601f19601f82011682018060405250810190611e629190614683565b610195546040516325ad47ab60e21b81526001600160a01b038581166004830152909116906396b51eac90602401611417565b61016254600090600160a01b900460ff1615611ec457604051636822eceb60e11b815260040160405180910390fd5b61019560009054906101000a90046001600160a01b03166001600160a01b0316629c185f6040518163ffffffff1660e01b8152600401602060405180830381865afa158015611f17573d6000803e3d6000fd5b505050506040513d601f19601f82011682018060405250810190611f3b91906146d0565b15611f59576040516321e3430160e21b815260040160405180910390fd5b6101955460405163ed04c17f60e01b8152600060048201526001600160a01b039091169063ed04c17f90602401600060405180830381600087803b158015611fa057600080fd5b505af1158015611fb4573d6000803e3d6000fd5b505061019554604051634eacc0fd60e01b8152600481018790528693506001600160a01b039091169150634eacc0fd906024016020604051808303816000875af1158015612006573d6000803e3d6000fd5b505050506040513d601f19601f8201168201806040525081019061202a91906146d0565b156120485760405163b04c001160e01b815260040160405180910390fd5b61205183611231565b8411156120715760405163292b120160e01b815260040160405180910390fd5b6101955460405163c14cfe0960e01b815285916001600160a01b03169063c14cfe09906120a8903390889086908190600401614883565b600060405180830381600087803b1580156120c257600080fd5b505af11580156120d6573d6000803e3d6000fd5b5092979650505050505050565b606060cd8054610aeb9061469c565b6120fa6130a0565b6110ef8282613646565b600033816121128286612e6b565b9050838110156121725760405162461bcd60e51b815260206004820152602560248201527f45524332303a2064656372656173656420616c6c6f77616e63652062656c6f77604482015264207a65726f60d81b606482015260840161116f565b61217f82868684036130ea565b506001949350505050565b61016254600090600160b01b900460ff16156121b957604051630c98e6a160e31b815260040160405180910390fd5b61019560009054906101000a90046001600160a01b03166001600160a01b0316629c185f6040518163ffffffff1660e01b8152600401602060405180830381865afa15801561220c573d6000803e3d6000fd5b505050506040513d601f19601f8201168201806040525081019061223091906146d0565b1561224e576040516321e3430160e21b815260040160405180910390fd5b6101625460405163df592f7d60e01b81526001600160a01b03808616600483015285921690600090829063df592f7d90602401602060405180830381865afa15801561229e573d6000803e3d6000fd5b505050506040513d601f19601f820116820180604052508101906122c291906146d0565b905080156122e35760405163108a7eb160e21b815260040160405180910390fd5b336101625460405163df592f7d60e01b81526001600160a01b03838116600483015290911690600090829063df592f7d90602401602060405180830381865afa158015612334573d6000803e3d6000fd5b505050506040513d601f19601f8201168201806040525081019061235891906146d0565b905080156123795760405163108a7eb160e21b815260040160405180910390fd5b6101955460405163ed04c17f60e01b8152600060048201526001600160a01b039091169063ed04c17f90602401600060405180830381600087803b1580156123c057600080fd5b505af11580156123d4573d6000803e3d6000fd5b505050506123e86123e23390565b8a610fb0565b6123f2338a612ec0565b610195546000906001600160a01b031663d493e78c336040516001600160e01b031960e084901b1681526001600160a01b039182166004820152908d166024820152604401608060405180830381865afa158015612454573d6000803e3d6000fd5b505050506040513d601f19601f8201168201806040525081019061247891906146ed565b905060006124868b8b61377a565b610195549091506001600160a01b031663eec0d65633610196548e90600160a01b900460ff168e8760006020020151886001602002015189600260200201518a600360200201516040518963ffffffff1660e01b81526004016116f898979695949392919061476b565b61016254600090600160a81b900460ff161561251f57604051636344d7b760e11b815260040160405180910390fd5b61019560009054906101000a90046001600160a01b03166001600160a01b0316629c185f6040518163ffffffff1660e01b8152600401602060405180830381865afa158015612572573d6000803e3d6000fd5b505050506040513d601f19601f8201168201806040525081019061259691906146d0565b156125b4576040516321e3430160e21b815260040160405180910390fd5b6101955460405163ed04c17f60e01b8152600060048201526001600160a01b039091169063ed04c17f90602401600060405180830381600087803b1580156125fb57600080fd5b505af115801561260f573d6000803e3d6000fd5b50506101955460405163cf0571d360e01b8152600481018890528793506001600160a01b03909116915063cf0571d3906024016020604051808303816000875af1158015612661573d6000803e3d6000fd5b505050506040513d601f19601f8201168201806040525081019061268591906146d0565b156126a35760405163922c089560e01b815260040160405180910390fd5b826126ad81613788565b6126b56137b1565b61019560009054906101000a90046001600160a01b03166001600160a01b031663ddca8bfa6040518163ffffffff1660e01b8152600401602060405180830381865afa158015612709573d6000803e3d6000fd5b505050506040513d601f19601f8201168201806040525081019061272d9190614683565b610195546040516325ad47ab60e21b81526001600160a01b038881166004830152909116906396b51eac90602401602060405180830381865afa158015612778573d6000803e3d6000fd5b505050506040513d601f19601f8201168201806040525081019061279c9190614683565b14612802576101955460405163242ffe5560e11b81526001600160a01b0387811660048301529091169063485ffcaa90602401600060405180830381600087803b1580156127e957600080fd5b505af11580156127fd573d6000803e3d6000fd5b505050505b61280b84612c49565b86111561282b5760405163039eea9760e31b815260040160405180910390fd5b61019554604051633d82850b60e01b81523360048201526001600160a01b0387811660248301528681166044830152606482018990526084820189905288921690633d82850b9060a4015b600060405180830381600087803b15801561289057600080fd5b505af11580156128a4573d6000803e3d6000fd5b509295505050506128b6600161016355565b50509392505050565b61016254600090600160a81b900460ff16156128ee57604051636344d7b760e11b815260040160405180910390fd5b61019560009054906101000a90046001600160a01b03166001600160a01b0316629c185f6040518163ffffffff1660e01b8152600401602060405180830381865afa158015612941573d6000803e3d6000fd5b505050506040513d601f19601f8201168201806040525081019061296591906146d0565b15612983576040516321e3430160e21b815260040160405180910390fd5b6101955460405163ed04c17f60e01b8152600060048201526001600160a01b039091169063ed04c17f90602401600060405180830381600087803b1580156129ca57600080fd5b505af11580156129de573d6000803e3d6000fd5b50506101955460405163cf0571d360e01b8152600481018890528793506001600160a01b03909116915063cf0571d3906024016020604051808303816000875af1158015612a30573d6000803e3d6000fd5b505050506040513d601f19601f82011682018060405250810190612a5491906146d0565b15612a725760405163922c089560e01b815260040160405180910390fd5b82612a7c81613788565b612a846137b1565b61019560009054906101000a90046001600160a01b03166001600160a01b031663ddca8bfa6040518163ffffffff1660e01b8152600401602060405180830381865afa158015612ad8573d6000803e3d6000fd5b505050506040513d601f19601f82011682018060405250810190612afc9190614683565b610195546040516325ad47ab60e21b81526001600160a01b038881166004830152909116906396b51eac90602401602060405180830381865afa158015612b47573d6000803e3d6000fd5b505050506040513d601f19601f82011682018060405250810190612b6b9190614683565b14612bd1576101955460405163242ffe5560e11b81526001600160a01b0387811660048301529091169063485ffcaa90602401600060405180830381600087803b158015612bb857600080fd5b505af1158015612bcc573d6000803e3d6000fd5b505050505b612bda84612c49565b861115612bfa576040516389e4c16360e01b815260040160405180910390fd5b61019554604051633d82850b60e01b81523360048201526001600160a01b0387811660248301528681166044830152606482018990526084820189905288921690633d82850b9060a401612876565b610195546040516306443f4560e51b81526001600160a01b038381166004830152600092169063c887e8a090602401602060405180830381865afa158015612c95573d6000803e3d6000fd5b505050506040513d601f19601f82011682018060405250810190610b829190614683565b83421115612d095760405162461bcd60e51b815260206004820152601d60248201527f45524332305065726d69743a206578706972656420646561646c696e65000000604482015260640161116f565b60007f6e71edae12b1b97f4d1f60370fef10105fa2faae0126114a169c64845d6126c9888888612d388c61380c565b6040805160208101969096526001600160a01b0394851690860152929091166060840152608083015260a082015260c0810186905260e0016040516020818303038152906040528051906020012090506000612d9382613835565b90506000612da382878787613862565b9050896001600160a01b0316816001600160a01b031614612e065760405162461bcd60e51b815260206004820152601e60248201527f45524332305065726d69743a20696e76616c6964207369676e61747572650000604482015260640161116f565b612e118a8a8a6130ea565b50505050505050505050565b612e25613046565b610162805463ffffffff60a01b1916630101010160a01b179055565b612e49613046565b610162805460ff60a01b198116600160a01b9182900460ff1615909102179055565b6001600160a01b03918216600090815260ca6020908152604080832093909416825291909152205490565b612e9e613046565b610162805460ff60a81b198116600160a81b9182900460ff1615909102179055565b612ec982611df3565b15612f2f576101955460405163242ffe5560e11b81526001600160a01b0384811660048301529091169063485ffcaa90602401600060405180830381600087803b158015612f1657600080fd5b505af1158015612f2a573d6000803e3d6000fd5b505050505b61019554604051635737ed7d60e01b81526001600160a01b03838116600483015290911690635737ed7d90602401600060405180830381600087803b158015612f7757600080fd5b505af1158015612f8b573d6000803e3d6000fd5b50505050612f9881611df3565b156110ef576101955460405163242ffe5560e11b81526001600160a01b0383811660048301529091169063485ffcaa906024016110bc565b612fd8613046565b6001600160a01b03811661303d5760405162461bcd60e51b815260206004820152602660248201527f4f776e61626c653a206e6577206f776e657220697320746865207a65726f206160448201526564647265737360d01b606482015260840161116f565b61120c816134bb565b6097546001600160a01b03163314611b325760405162461bcd60e51b815260206004820181905260248201527f4f776e61626c653a2063616c6c6572206973206e6f7420746865206f776e6572604482015260640161116f565b610195546001600160a01b0316336001600160a01b031614611b325760405163e565d9cb60e01b815260040160405180910390fd5b60006130e1838361388c565b50600192915050565b6001600160a01b03831661314c5760405162461bcd60e51b8152602060048201526024808201527f45524332303a20617070726f76652066726f6d20746865207a65726f206164646044820152637265737360e01b606482015260840161116f565b6001600160a01b0382166131ad5760405162461bcd60e51b815260206004820152602260248201527f45524332303a20617070726f766520746f20746865207a65726f206164647265604482015261737360f01b606482015260840161116f565b6001600160a01b03838116600081815260ca602090815260408083209487168084529482529182902085905590518481527f8c5be1e5ebec7d5bd14f71427d1e84f3dd0314c0f7b2291e5b200ac8c7c3b925910160405180910390a3505050565b60006130e18383613904565b600033613228858285613976565b61217f8585856139f0565b6000610a30613b9b565b61120c613046565b7f4910fdfa16fed3260ed0e7147f7cc6da11a60208b5b9406d12a635614ffd91435460ff161561327857610ad783613c0f565b826001600160a01b03166352d1902d6040518163ffffffff1660e01b8152600401602060405180830381865afa9250505080156132d2575060408051601f3d908101601f191682019092526132cf91810190614683565b60015b6133355760405162461bcd60e51b815260206004820152602e60248201527f45524331393637557067726164653a206e657720696d706c656d656e7461746960448201526d6f6e206973206e6f74205555505360901b606482015260840161116f565b600080516020614a7183398151915281146133a45760405162461bcd60e51b815260206004820152602960248201527f45524331393637557067726164653a20756e737570706f727465642070726f786044820152681a58589b195555525160ba1b606482015260840161116f565b50610ad7838383613cab565b816000036133d1576040516303e3e43960e51b815260040160405180910390fd5b6133da81611231565b8211156110ef576040516314a4b53560e01b815260040160405180910390fd5b6001600160a01b0382166134505760405162461bcd60e51b815260206004820152601f60248201527f45524332303a206d696e7420746f20746865207a65726f206164647265737300604482015260640161116f565b8060cb6000828254613462919061485d565b90915550506001600160a01b038216600081815260c960209081526040808320805486019055518481527fddf252ad1be2c89b69c2b068fc378daa952ba7f163c4a11628f55a4df523b3ef910160405180910390a35050565b609780546001600160a01b038381166001600160a01b0319831681179093556040519116919082907f8be0079c531659141344cd1fd0a4f28419497f9722a3daafe3b4186f6b6457e090600090a35050565b600054610100900460ff166135345760405162461bcd60e51b815260040161116f906148ed565b6110ef8282613cd0565b600054610100900460ff166135655760405162461bcd60e51b815260040161116f906148ed565b61120c81604051806040016040528060018152602001603160f81b815250613d10565b600054610100900460ff166135af5760405162461bcd60e51b815260040161116f906148ed565b61016280546001600160a01b0319166001600160a01b0392909216919091179055565b600054610100900460ff166135f95760405162461bcd60e51b815260040161116f906148ed565b611b32613d5f565b600054610100900460ff16611b325760405162461bcd60e51b815260040161116f906148ed565b606060fd8054610aeb9061469c565b606060fe8054610aeb9061469c565b6001600160a01b0382166136a65760405162461bcd60e51b815260206004820152602160248201527f45524332303a206275726e2066726f6d20746865207a65726f206164647265736044820152607360f81b606482015260840161116f565b6001600160a01b038216600090815260c960205260409020548181101561371a5760405162461bcd60e51b815260206004820152602260248201527f45524332303a206275726e20616d6f756e7420657863656564732062616c616e604482015261636560f01b606482015260840161116f565b6001600160a01b038316600081815260c960209081526040808320868603905560cb80548790039055518581529192917fddf252ad1be2c89b69c2b068fc378daa952ba7f163c4a11628f55a4df523b3ef910160405180910390a3505050565b600033610b7c8185856139f0565b6001600160a01b038116331461120c57604051637a45e68560e01b815260040160405180910390fd5b600261016354036138045760405162461bcd60e51b815260206004820152601f60248201527f5265656e7472616e637947756172643a207265656e7472616e742063616c6c00604482015260640161116f565b600261016355565b6001600160a01b038116600090815261012f602052604090208054600181018255905b50919050565b6000610b82613842613233565b8360405161190160f01b8152600281019290925260228201526042902090565b600080600061387387878787613d8f565b9150915061388081613e53565b5090505b949350505050565b6001600160a01b0382166138e25760405162461bcd60e51b815260206004820152601c60248201527f54726561737572792063616e6e6f74206265207a65726f206164647200000000604482015260640161116f565b6001600160a01b03909116600090815260c96020526040902080549091019055565b6001600160a01b03821661395a5760405162461bcd60e51b815260206004820152601b60248201527f416464726573732063616e6e6f74206265207a65726f20616464720000000000604482015260640161116f565b6001600160a01b03909116600090815260c96020526040902055565b60006139828484612e6b565b905060001981146139ea57818110156139dd5760405162461bcd60e51b815260206004820152601d60248201527f45524332303a20696e73756666696369656e7420616c6c6f77616e6365000000604482015260640161116f565b6139ea84848484036130ea565b50505050565b6001600160a01b038316613a545760405162461bcd60e51b815260206004820152602560248201527f45524332303a207472616e736665722066726f6d20746865207a65726f206164604482015264647265737360d81b606482015260840161116f565b6001600160a01b038216613ab65760405162461bcd60e51b815260206004820152602360248201527f45524332303a207472616e7366657220746f20746865207a65726f206164647260448201526265737360e81b606482015260840161116f565b6001600160a01b038316600090815260c9602052604090205481811015613b2e5760405162461bcd60e51b815260206004820152602660248201527f45524332303a207472616e7366657220616d6f756e7420657863656564732062604482015265616c616e636560d01b606482015260840161116f565b6001600160a01b03808516600081815260c9602052604080822086860390559286168082529083902080548601905591517fddf252ad1be2c89b69c2b068fc378daa952ba7f163c4a11628f55a4df523b3ef90613b8e9086815260200190565b60405180910390a36139ea565b60007f8b73c3c69bb8fe3d512ecc4cf759cc79239f7b179b0ffacaa9a75d522b39400f613bc6613f9d565b613bce613ff6565b60408051602081019490945283019190915260608201524660808201523060a082015260c00160405160208183030381529060405280519060200120905090565b6001600160a01b0381163b613c7c5760405162461bcd60e51b815260206004820152602d60248201527f455243313936373a206e657720696d706c656d656e746174696f6e206973206e60448201526c1bdd08184818dbdb9d1c9858dd609a1b606482015260840161116f565b600080516020614a7183398151915280546001600160a01b0319166001600160a01b0392909216919091179055565b613cb483614027565b600082511180613cc15750805b15610ad7576139ea8383614067565b600054610100900460ff16613cf75760405162461bcd60e51b815260040161116f906148ed565b60cc613d03838261497e565b5060cd610ad7828261497e565b600054610100900460ff16613d375760405162461bcd60e51b815260040161116f906148ed565b60fd613d43838261497e565b5060fe613d50828261497e565b5050600060fb81905560fc5550565b600054610100900460ff16613d865760405162461bcd60e51b815260040161116f906148ed565b611b32336134bb565b6000807f7fffffffffffffffffffffffffffffff5d576e7357a4501ddfe92f46681b20a0831115613dc65750600090506003613e4a565b6040805160008082526020820180845289905260ff881692820192909252606081018690526080810185905260019060a0016020604051602081039080840390855afa158015613e1a573d6000803e3d6000fd5b5050604051601f1901519150506001600160a01b038116613e4357600060019250925050613e4a565b9150600090505b94509492505050565b6000816004811115613e6757613e67614a3e565b03613e6f5750565b6001816004811115613e8357613e83614a3e565b03613ed05760405162461bcd60e51b815260206004820152601860248201527f45434453413a20696e76616c6964207369676e61747572650000000000000000604482015260640161116f565b6002816004811115613ee457613ee4614a3e565b03613f315760405162461bcd60e51b815260206004820152601f60248201527f45434453413a20696e76616c6964207369676e6174757265206c656e67746800604482015260640161116f565b6003816004811115613f4557613f45614a3e565b0361120c5760405162461bcd60e51b815260206004820152602260248201527f45434453413a20696e76616c6964207369676e6174757265202773272076616c604482015261756560f01b606482015260840161116f565b600080613fa8613628565b805190915015613fbf578051602090910120919050565b60fb548015613fce5792915050565b7fc5d2460186f7233c927e7db2dcc703c0e500b653ca82273b7bfad8045d85a4709250505090565b600080614001613637565b805190915015614018578051602090910120919050565b60fc548015613fce5792915050565b61403081613c0f565b6040516001600160a01b038216907fbc7cd75a20ee27fd9adebab32041f755214dbc6bffa90cc0225b39da2e5c2d3b90600090a250565b6060611b0b8383604051806060016040528060278152602001614a91602791396060600080856001600160a01b0316856040516140a49190614a54565b600060405180830381855af49150503d80600081146140df576040519150601f19603f3d011682016040523d82523d6000602084013e6140e4565b606091505b50915091506140f5868383876140ff565b9695505050505050565b6060831561416e578251600003614167576001600160a01b0385163b6141675760405162461bcd60e51b815260206004820152601d60248201527f416464726573733a2063616c6c20746f206e6f6e2d636f6e7472616374000000604482015260640161116f565b5081613884565b61388483838151156141835781518083602001fd5b8060405162461bcd60e51b815260040161116f919061422e565b6001600160a01b038116811461120c57600080fd5b600080604083850312156141c557600080fd5b82356141d08161419d565b946020939093013593505050565b60005b838110156141f95781810151838201526020016141e1565b50506000910152565b6000815180845261421a8160208601602086016141de565b601f01601f19169290920160200192915050565b602081526000611b0b6020830184614202565b60006020828403121561425357600080fd5b5035919050565b60008060006060848603121561426f57600080fd5b833561427a8161419d565b9250602084013561428a8161419d565b929592945050506040919091013590565b600080604083850312156142ae57600080fd5b82356142b98161419d565b915060208301356142c98161419d565b809150509250929050565b6000602082840312156142e657600080fd5b8135611b0b8161419d565b634e487b7160e01b600052604160045260246000fd5b600067ffffffffffffffff80841115614322576143226142f1565b604051601f8501601f19908116603f0116810190828211818310171561434a5761434a6142f1565b8160405280935085815286868601111561436357600080fd5b858560208301376000602087830101525050509392505050565b6000806040838503121561439057600080fd5b823561439b8161419d565b9150602083013567ffffffffffffffff8111156143b757600080fd5b8301601f810185136143c857600080fd5b6143d785823560208401614307565b9150509250929050565b803560ff81168114611b1b57600080fd5b60008060008060008060c0878903121561440b57600080fd5b86359550602087013561441d8161419d565b945060408701359350614432606088016143e1565b92506080870135915060a087013590509295509295509295565b6000806040838503121561445f57600080fd5b8235915060208301356142c98161419d565b600082601f83011261448257600080fd5b611b0b83833560208501614307565b801515811461120c57600080fd5b600080600080600060a086880312156144b757600080fd5b853567ffffffffffffffff808211156144cf57600080fd5b6144db89838a01614471565b965060208801359150808211156144f157600080fd5b506144fe88828901614471565b945050604086013561450f8161419d565b9250606086013561451f8161419d565b9150608086013561452f81614491565b809150509295509295909350565b60ff60f81b881681526000602060e08184015261455d60e084018a614202565b838103604085015261456f818a614202565b606085018990526001600160a01b038816608086015260a0850187905284810360c0860152855180825283870192509083019060005b818110156145c1578351835292840192918401916001016145a5565b50909c9b505050505050505050505050565b6000806000606084860312156145e857600080fd5b8335925060208401356145fa8161419d565b9150604084013561460a8161419d565b809150509250925092565b600080600080600080600060e0888a03121561463057600080fd5b873561463b8161419d565b9650602088013561464b8161419d565b95506040880135945060608801359350614667608089016143e1565b925060a0880135915060c0880135905092959891949750929550565b60006020828403121561469557600080fd5b5051919050565b600181811c908216806146b057607f821691505b60208210810361382f57634e487b7160e01b600052602260045260246000fd5b6000602082840312156146e257600080fd5b8151611b0b81614491565b6000608082840312156146ff57600080fd5b82601f83011261470e57600080fd5b6040516080810181811067ffffffffffffffff82111715614731576147316142f1565b60405280608084018581111561474657600080fd5b845b81811015614760578051835260209283019201614748565b509195945050505050565b6001600160a01b03988916815296909716602087015293151560408601526060850192909252608084015260a083015260c082015260e08101919091526101000190565b6020808252602c908201527f46756e6374696f6e206d7573742062652063616c6c6564207468726f7567682060408201526b19195b1959d85d1958d85b1b60a21b606082015260800190565b6020808252602c908201527f46756e6374696f6e206d7573742062652063616c6c6564207468726f7567682060408201526b6163746976652070726f787960a01b606082015260800190565b634e487b7160e01b600052601160045260246000fd5b80820180821115610b8257610b82614847565b81810381811115610b8257610b82614847565b6001600160a01b0394851681529290931660208301526040820152606081019190915260800190565b600080604083850312156148bf57600080fd5b505080516020909101519092909150565b6000602082840312156148e257600080fd5b8151611b0b8161419d565b6020808252602b908201527f496e697469616c697a61626c653a20636f6e7472616374206973206e6f74206960408201526a6e697469616c697a696e6760a81b606082015260800190565b601f821115610ad757600081815260208120601f850160051c8101602086101561495f5750805b601f850160051c820191505b818110156110ea5782815560010161496b565b815167ffffffffffffffff811115614998576149986142f1565b6149ac816149a6845461469c565b84614938565b602080601f8311600181146149e157600084156149c95750858301515b600019600386901b1c1916600185901b1785556110ea565b600085815260208120601f198616915b82811015614a10578886015182559484019460019091019084016149f1565b5085821015614a2e5787850151600019600388901b60f8161c191681555b5050505050600190811b01905550565b634e487b7160e01b600052602160045260246000fd5b60008251614a668184602087016141de565b919091019291505056fe360894a13ba1a3210667c828492db98dca3e2076cc3735a920a3ca505d382bbc416464726573733a206c6f772d6c6576656c2064656c65676174652063616c6c206661696c6564a2646970667358221220c0722ae657415594452802b233764e4d64d5d37e4d196e0f7b55bf88ccec922364736f6c63430008110033",
  "linkReferences": {},
  "deployedLinkReferences": {}
}