{
  "_format": "hh-sol-artifact-1",
  "contractName": "SmartToken",
  "sourceName": "contracts/vaults/SmartToken.sol",
  "abi": [
    {
      "inputs": [],
      "stateMutability": "nonpayable",
      "type": "constructor"
    },
    {
      "inputs": [],
      "name": "BaseContract__DepositCircuitBreaker",
      "type": "error"
    },
    {
      "inputs": [],
      "name": "BaseContract__RebalanceCircuitBreaker",
      "type": "error"
    },
    {
      "inputs": [],
      "name": "BaseContract__SanctionedAddress",
      "type": "error"
    },
    {
      "inputs": [],
      "name": "BaseContract__TransferCircuitBreaker",
      "type": "error"
    },
    {
      "inputs": [],
      "name": "BaseContract__WithdrawCircuitBreaker",
      "type": "error"
    },
    {
      "inputs": [],
      "name": "SmartToken__DepositLimitHit",
      "type": "error"
    },
    {
      "inputs": [],
      "name": "SmartToken__DepositMoreThanMax",
      "type": "error"
    },
    {
      "inputs": [],
      "name": "SmartToken__InsufficientUnderlying",
      "type": "error"
    },
    {
      "inputs": [],
      "name": "SmartToken__MethodNotAllowed",
      "type": "error"
    },
    {
      "inputs": [],
      "name": "SmartToken__MintMoreThanMax",
      "type": "error"
    },
    {
      "inputs": [],
      "name": "SmartToken__NotTokenFactory",
      "type": "error"
    },
    {
      "inputs": [],
      "name": "SmartToken__OnlyAssetOwner",
      "type": "error"
    },
    {
      "inputs": [],
      "name": "SmartToken__RedeemMoreThanMax",
      "type": "error"
    },
    {
      "inputs": [],
      "name": "SmartToken__WithdrawLimitHit",
      "type": "error"
    },
    {
      "inputs": [],
      "name": "SmartToken__WithdrawMoreThanMax",
      "type": "error"
    },
    {
      "inputs": [],
      "name": "SmartToken__ZeroDeposit",
      "type": "error"
    },
    {
      "anonymous": false,
      "inputs": [
        {
          "indexed": false,
          "internalType": "address",
          "name": "previousAdmin",
          "type": "address"
        },
        {
          "indexed": false,
          "internalType": "address",
          "name": "newAdmin",
          "type": "address"
        }
      ],
      "name": "AdminChanged",
      "type": "event"
    },
    {
      "anonymous": false,
      "inputs": [
        {
          "indexed": true,
          "internalType": "address",
          "name": "owner",
          "type": "address"
        },
        {
          "indexed": true,
          "internalType": "address",
          "name": "spender",
          "type": "address"
        },
        {
          "indexed": false,
          "internalType": "uint256",
          "name": "value",
          "type": "uint256"
        }
      ],
      "name": "Approval",
      "type": "event"
    },
    {
      "anonymous": false,
      "inputs": [
        {
          "indexed": true,
          "internalType": "address",
          "name": "beacon",
          "type": "address"
        }
      ],
      "name": "BeaconUpgraded",
      "type": "event"
    },
    {
      "anonymous": false,
      "inputs": [
        {
          "indexed": true,
          "internalType": "address",
          "name": "sender",
          "type": "address"
        },
        {
          "indexed": true,
          "internalType": "address",
          "name": "owner",
          "type": "address"
        },
        {
          "indexed": false,
          "internalType": "uint256",
          "name": "assets",
          "type": "uint256"
        },
        {
          "indexed": false,
          "internalType": "uint256",
          "name": "shares",
          "type": "uint256"
        }
      ],
      "name": "Deposit",
      "type": "event"
    },
    {
      "anonymous": false,
      "inputs": [],
      "name": "EIP712DomainChanged",
      "type": "event"
    },
    {
      "anonymous": false,
      "inputs": [
        {
          "indexed": false,
          "internalType": "uint8",
          "name": "version",
          "type": "uint8"
        }
      ],
      "name": "Initialized",
      "type": "event"
    },
    {
      "anonymous": false,
      "inputs": [
        {
          "indexed": true,
          "internalType": "address",
          "name": "previousOwner",
          "type": "address"
        },
        {
          "indexed": true,
          "internalType": "address",
          "name": "newOwner",
          "type": "address"
        }
      ],
      "name": "OwnershipTransferred",
      "type": "event"
    },
    {
      "anonymous": false,
      "inputs": [
        {
          "indexed": true,
          "internalType": "address",
          "name": "from",
          "type": "address"
        },
        {
          "indexed": true,
          "internalType": "address",
          "name": "to",
          "type": "address"
        },
        {
          "indexed": false,
          "internalType": "uint256",
          "name": "value",
          "type": "uint256"
        }
      ],
      "name": "Transfer",
      "type": "event"
    },
    {
      "anonymous": false,
      "inputs": [
        {
          "indexed": true,
          "internalType": "address",
          "name": "implementation",
          "type": "address"
        }
      ],
      "name": "Upgraded",
      "type": "event"
    },
    {
      "anonymous": false,
      "inputs": [
        {
          "indexed": true,
          "internalType": "address",
          "name": "sender",
          "type": "address"
        },
        {
          "indexed": true,
          "internalType": "address",
          "name": "receiver",
          "type": "address"
        },
        {
          "indexed": true,
          "internalType": "address",
          "name": "owner",
          "type": "address"
        },
        {
          "indexed": false,
          "internalType": "uint256",
          "name": "assets",
          "type": "uint256"
        },
        {
          "indexed": false,
          "internalType": "uint256",
          "name": "shares",
          "type": "uint256"
        }
      ],
      "name": "Withdraw",
      "type": "event"
    },
    {
      "inputs": [],
      "name": "DOMAIN_SEPARATOR",
      "outputs": [
        {
          "internalType": "bytes32",
          "name": "",
          "type": "bytes32"
        }
      ],
      "stateMutability": "view",
      "type": "function"
    },
    {
      "inputs": [
        {
          "internalType": "address",
          "name": "owner",
          "type": "address"
        },
        {
          "internalType": "address",
          "name": "spender",
          "type": "address"
        }
      ],
      "name": "allowance",
      "outputs": [
        {
          "internalType": "uint256",
          "name": "",
          "type": "uint256"
        }
      ],
      "stateMutability": "view",
      "type": "function"
    },
    {
      "inputs": [
        {
          "internalType": "address",
          "name": "spender",
          "type": "address"
        },
        {
          "internalType": "uint256",
          "name": "amount",
          "type": "uint256"
        }
      ],
      "name": "approve",
      "outputs": [
        {
          "internalType": "bool",
          "name": "",
          "type": "bool"
        }
      ],
      "stateMutability": "nonpayable",
      "type": "function"
    },
    {
      "inputs": [],
      "name": "asset",
      "outputs": [
        {
          "internalType": "address",
          "name": "",
          "type": "address"
        }
      ],
      "stateMutability": "view",
      "type": "function"
    },
    {
      "inputs": [
        {
          "internalType": "address",
          "name": "account",
          "type": "address"
        }
      ],
      "name": "balanceOf",
      "outputs": [
        {
          "internalType": "uint256",
          "name": "",
          "type": "uint256"
        }
      ],
      "stateMutability": "view",
      "type": "function"
    },
    {
      "inputs": [
        {
          "internalType": "address",
          "name": "account",
          "type": "address"
        },
        {
          "internalType": "uint256",
          "name": "amount",
          "type": "uint256"
        }
      ],
      "name": "burn",
      "outputs": [],
      "stateMutability": "nonpayable",
      "type": "function"
    },
    {
      "inputs": [
        {
          "internalType": "uint256",
          "name": "shares",
          "type": "uint256"
        }
      ],
      "name": "convertToAssets",
      "outputs": [
        {
          "internalType": "uint256",
          "name": "assets",
          "type": "uint256"
        }
      ],
      "stateMutability": "view",
      "type": "function"
    },
    {
      "inputs": [
        {
          "internalType": "uint256",
          "name": "assets",
          "type": "uint256"
        }
      ],
      "name": "convertToShares",
      "outputs": [
        {
          "internalType": "uint256",
          "name": "shares",
          "type": "uint256"
        }
      ],
      "stateMutability": "view",
      "type": "function"
    },
    {
      "inputs": [],
      "name": "decimals",
      "outputs": [
        {
          "internalType": "uint8",
          "name": "",
          "type": "uint8"
        }
      ],
      "stateMutability": "view",
      "type": "function"
    },
    {
      "inputs": [
        {
          "internalType": "address",
          "name": "spender",
          "type": "address"
        },
        {
          "internalType": "uint256",
          "name": "subtractedValue",
          "type": "uint256"
        }
      ],
      "name": "decreaseAllowance",
      "outputs": [
        {
          "internalType": "bool",
          "name": "",
          "type": "bool"
        }
      ],
      "stateMutability": "nonpayable",
      "type": "function"
    },
    {
      "inputs": [
        {
          "internalType": "uint256",
          "name": "assets",
          "type": "uint256"
        },
        {
          "internalType": "address",
          "name": "receiver",
          "type": "address"
        }
      ],
      "name": "deposit",
      "outputs": [
        {
          "internalType": "uint256",
          "name": "",
          "type": "uint256"
        }
      ],
      "stateMutability": "nonpayable",
      "type": "function"
    },
    {
      "inputs": [
        {
          "internalType": "uint256",
          "name": "assets",
          "type": "uint256"
        },
        {
          "internalType": "address",
          "name": "receiver",
          "type": "address"
        },
        {
          "internalType": "uint256",
          "name": "deadline",
          "type": "uint256"
        },
        {
          "internalType": "uint8",
          "name": "v",
          "type": "uint8"
        },
        {
          "internalType": "bytes32",
          "name": "r",
          "type": "bytes32"
        },
        {
          "internalType": "bytes32",
          "name": "s",
          "type": "bytes32"
        }
      ],
      "name": "depositWithPermit",
      "outputs": [
        {
          "internalType": "uint256",
          "name": "",
          "type": "uint256"
        }
      ],
      "stateMutability": "nonpayable",
      "type": "function"
    },
    {
      "inputs": [],
      "name": "eip712Domain",
      "outputs": [
        {
          "internalType": "bytes1",
          "name": "fields",
          "type": "bytes1"
        },
        {
          "internalType": "string",
          "name": "name",
          "type": "string"
        },
        {
          "internalType": "string",
          "name": "version",
          "type": "string"
        },
        {
          "internalType": "uint256",
          "name": "chainId",
          "type": "uint256"
        },
        {
          "internalType": "address",
          "name": "verifyingContract",
          "type": "address"
        },
        {
          "internalType": "bytes32",
          "name": "salt",
          "type": "bytes32"
        },
        {
          "internalType": "uint256[]",
          "name": "extensions",
          "type": "uint256[]"
        }
      ],
      "stateMutability": "view",
      "type": "function"
    },
    {
      "inputs": [],
      "name": "getTokenFactory",
      "outputs": [
        {
          "internalType": "address",
          "name": "",
          "type": "address"
        }
      ],
      "stateMutability": "view",
      "type": "function"
    },
    {
      "inputs": [
        {
          "internalType": "address",
          "name": "sender",
          "type": "address"
        },
        {
          "internalType": "address",
          "name": "receiver",
          "type": "address"
        }
      ],
      "name": "handlePendingFF",
      "outputs": [],
      "stateMutability": "nonpayable",
      "type": "function"
    },
    {
      "inputs": [
        {
          "internalType": "address",
          "name": "sender",
          "type": "address"
        },
        {
          "internalType": "address",
          "name": "receiver",
          "type": "address"
        }
      ],
      "name": "handlePendingRebalance",
      "outputs": [],
      "stateMutability": "nonpayable",
      "type": "function"
    },
    {
      "inputs": [
        {
          "internalType": "address",
          "name": "account",
          "type": "address"
        }
      ],
      "name": "hasPendingFF",
      "outputs": [
        {
          "internalType": "bool",
          "name": "",
          "type": "bool"
        }
      ],
      "stateMutability": "view",
      "type": "function"
    },
    {
      "inputs": [
        {
          "internalType": "address",
          "name": "account",
          "type": "address"
        }
      ],
      "name": "hasPendingRebalance",
      "outputs": [
        {
          "internalType": "bool",
          "name": "",
          "type": "bool"
        }
      ],
      "stateMutability": "view",
      "type": "function"
    },
    {
      "inputs": [
        {
          "internalType": "address",
          "name": "spender",
          "type": "address"
        },
        {
          "internalType": "uint256",
          "name": "addedValue",
          "type": "uint256"
        }
      ],
      "name": "increaseAllowance",
      "outputs": [
        {
          "internalType": "bool",
          "name": "",
          "type": "bool"
        }
      ],
      "stateMutability": "nonpayable",
      "type": "function"
    },
    {
      "inputs": [
        {
          "internalType": "string",
          "name": "tokenName",
          "type": "string"
        },
        {
          "internalType": "string",
          "name": "tokenSymbol",
          "type": "string"
        },
        {
          "internalType": "address",
          "name": "factoryAddress",
          "type": "address"
        },
        {
          "internalType": "address",
          "name": "sanctionsContract_",
          "type": "address"
        },
        {
          "internalType": "bool",
          "name": "isX_",
          "type": "bool"
        },
        {
          "internalType": "address",
          "name": "owner_",
          "type": "address"
        }
      ],
      "name": "initialize",
      "outputs": [],
      "stateMutability": "nonpayable",
      "type": "function"
    },
    {
      "inputs": [],
      "name": "isDepositCircuitBreaker",
      "outputs": [
        {
          "internalType": "bool",
          "name": "",
          "type": "bool"
        }
      ],
      "stateMutability": "view",
      "type": "function"
    },
    {
      "inputs": [],
      "name": "isRebalanceCircuitBreaker",
      "outputs": [
        {
          "internalType": "bool",
          "name": "",
          "type": "bool"
        }
      ],
      "stateMutability": "view",
      "type": "function"
    },
    {
      "inputs": [],
      "name": "isTransferCircuitBreaker",
      "outputs": [
        {
          "internalType": "bool",
          "name": "",
          "type": "bool"
        }
      ],
      "stateMutability": "view",
      "type": "function"
    },
    {
      "inputs": [],
      "name": "isWithdrawCircuitBreaker",
      "outputs": [
        {
          "internalType": "bool",
          "name": "",
          "type": "bool"
        }
      ],
      "stateMutability": "view",
      "type": "function"
    },
    {
      "inputs": [
        {
          "internalType": "address",
          "name": "account",
          "type": "address"
        }
      ],
      "name": "maxDeposit",
      "outputs": [
        {
          "internalType": "uint256",
          "name": "",
          "type": "uint256"
        }
      ],
      "stateMutability": "view",
      "type": "function"
    },
    {
      "inputs": [
        {
          "internalType": "address",
          "name": "account",
          "type": "address"
        }
      ],
      "name": "maxMint",
      "outputs": [
        {
          "internalType": "uint256",
          "name": "",
          "type": "uint256"
        }
      ],
      "stateMutability": "view",
      "type": "function"
    },
    {
      "inputs": [
        {
          "internalType": "address",
          "name": "owner_",
          "type": "address"
        }
      ],
      "name": "maxRedeem",
      "outputs": [
        {
          "internalType": "uint256",
          "name": "",
          "type": "uint256"
        }
      ],
      "stateMutability": "view",
      "type": "function"
    },
    {
      "inputs": [
        {
          "internalType": "address",
          "name": "owner_",
          "type": "address"
        }
      ],
      "name": "maxWithdraw",
      "outputs": [
        {
          "internalType": "uint256",
          "name": "",
          "type": "uint256"
        }
      ],
      "stateMutability": "view",
      "type": "function"
    },
    {
      "inputs": [
        {
          "internalType": "uint256",
          "name": "shares",
          "type": "uint256"
        },
        {
          "internalType": "address",
          "name": "receiver",
          "type": "address"
        }
      ],
      "name": "mint",
      "outputs": [
        {
          "internalType": "uint256",
          "name": "",
          "type": "uint256"
        }
      ],
      "stateMutability": "nonpayable",
      "type": "function"
    },
    {
      "inputs": [
        {
          "internalType": "address",
          "name": "receiver",
          "type": "address"
        },
        {
          "internalType": "uint256",
          "name": "amount",
          "type": "uint256"
        }
      ],
      "name": "mintAsset",
      "outputs": [],
      "stateMutability": "nonpayable",
      "type": "function"
    },
    {
      "inputs": [],
      "name": "name",
      "outputs": [
        {
          "internalType": "string",
          "name": "",
          "type": "string"
        }
      ],
      "stateMutability": "view",
      "type": "function"
    },
    {
      "inputs": [
        {
          "internalType": "address",
          "name": "owner",
          "type": "address"
        }
      ],
      "name": "nonces",
      "outputs": [
        {
          "internalType": "uint256",
          "name": "",
          "type": "uint256"
        }
      ],
      "stateMutability": "view",
      "type": "function"
    },
    {
      "inputs": [],
      "name": "owner",
      "outputs": [
        {
          "internalType": "address",
          "name": "",
          "type": "address"
        }
      ],
      "stateMutability": "view",
      "type": "function"
    },
    {
      "inputs": [
        {
          "internalType": "address",
          "name": "owner",
          "type": "address"
        },
        {
          "internalType": "address",
          "name": "spender",
          "type": "address"
        },
        {
          "internalType": "uint256",
          "name": "value",
          "type": "uint256"
        },
        {
          "internalType": "uint256",
          "name": "deadline",
          "type": "uint256"
        },
        {
          "internalType": "uint8",
          "name": "v",
          "type": "uint8"
        },
        {
          "internalType": "bytes32",
          "name": "r",
          "type": "bytes32"
        },
        {
          "internalType": "bytes32",
          "name": "s",
          "type": "bytes32"
        }
      ],
      "name": "permit",
      "outputs": [],
      "stateMutability": "nonpayable",
      "type": "function"
    },
    {
      "inputs": [
        {
          "internalType": "uint256",
          "name": "assets",
          "type": "uint256"
        }
      ],
      "name": "previewDeposit",
      "outputs": [
        {
          "internalType": "uint256",
          "name": "",
          "type": "uint256"
        }
      ],
      "stateMutability": "view",
      "type": "function"
    },
    {
      "inputs": [
        {
          "internalType": "uint256",
          "name": "shares",
          "type": "uint256"
        }
      ],
      "name": "previewMint",
      "outputs": [
        {
          "internalType": "uint256",
          "name": "",
          "type": "uint256"
        }
      ],
      "stateMutability": "view",
      "type": "function"
    },
    {
      "inputs": [
        {
          "internalType": "uint256",
          "name": "shares",
          "type": "uint256"
        }
      ],
      "name": "previewRedeem",
      "outputs": [
        {
          "internalType": "uint256",
          "name": "",
          "type": "uint256"
        }
      ],
      "stateMutability": "view",
      "type": "function"
    },
    {
      "inputs": [
        {
          "internalType": "uint256",
          "name": "assets",
          "type": "uint256"
        }
      ],
      "name": "previewWithdraw",
      "outputs": [
        {
          "internalType": "uint256",
          "name": "",
          "type": "uint256"
        }
      ],
      "stateMutability": "view",
      "type": "function"
    },
    {
      "inputs": [],
      "name": "proxiableUUID",
      "outputs": [
        {
          "internalType": "bytes32",
          "name": "",
          "type": "bytes32"
        }
      ],
      "stateMutability": "view",
      "type": "function"
    },
    {
      "inputs": [
        {
          "internalType": "uint256",
          "name": "shares",
          "type": "uint256"
        },
        {
          "internalType": "address",
          "name": "receiver",
          "type": "address"
        },
        {
          "internalType": "address",
          "name": "owner_",
          "type": "address"
        }
      ],
      "name": "redeem",
      "outputs": [
        {
          "internalType": "uint256",
          "name": "",
          "type": "uint256"
        }
      ],
      "stateMutability": "nonpayable",
      "type": "function"
    },
    {
      "inputs": [],
      "name": "renounceOwnership",
      "outputs": [],
      "stateMutability": "nonpayable",
      "type": "function"
    },
    {
      "inputs": [],
      "name": "resumeAllCircuitBreakers",
      "outputs": [],
      "stateMutability": "nonpayable",
      "type": "function"
    },
    {
      "inputs": [
        {
          "internalType": "address",
          "name": "account",
          "type": "address"
        },
        {
          "internalType": "uint256",
          "name": "amount",
          "type": "uint256"
        }
      ],
      "name": "smartBalanceAdjust",
      "outputs": [],
      "stateMutability": "nonpayable",
      "type": "function"
    },
    {
      "inputs": [
        {
          "internalType": "address",
          "name": "treasuryAddress",
          "type": "address"
        },
        {
          "internalType": "uint256",
          "name": "amount",
          "type": "uint256"
        }
      ],
      "name": "smartTreasuryTransfer",
      "outputs": [],
      "stateMutability": "nonpayable",
      "type": "function"
    },
    {
      "inputs": [],
      "name": "stopAllCircuitBreakers",
      "outputs": [],
      "stateMutability": "nonpayable",
      "type": "function"
    },
    {
      "inputs": [],
      "name": "symbol",
      "outputs": [
        {
          "internalType": "string",
          "name": "",
          "type": "string"
        }
      ],
      "stateMutability": "view",
      "type": "function"
    },
    {
      "inputs": [],
      "name": "toggleDepositCircuitBreaker",
      "outputs": [],
      "stateMutability": "nonpayable",
      "type": "function"
    },
    {
      "inputs": [],
      "name": "toggleRebalanceCircuitBreaker",
      "outputs": [],
      "stateMutability": "nonpayable",
      "type": "function"
    },
    {
      "inputs": [],
      "name": "toggleTransferCircuitBreaker",
      "outputs": [],
      "stateMutability": "nonpayable",
      "type": "function"
    },
    {
      "inputs": [],
      "name": "toggleWithdrawCircuitBreaker",
      "outputs": [],
      "stateMutability": "nonpayable",
      "type": "function"
    },
    {
      "inputs": [],
      "name": "totalAssets",
      "outputs": [
        {
          "internalType": "uint256",
          "name": "",
          "type": "uint256"
        }
      ],
      "stateMutability": "view",
      "type": "function"
    },
    {
      "inputs": [],
      "name": "totalSupply",
      "outputs": [
        {
          "internalType": "uint256",
          "name": "",
          "type": "uint256"
        }
      ],
      "stateMutability": "view",
      "type": "function"
    },
    {
      "inputs": [
        {
          "internalType": "address",
          "name": "recipient",
          "type": "address"
        },
        {
          "internalType": "uint256",
          "name": "amount",
          "type": "uint256"
        }
      ],
      "name": "transfer",
      "outputs": [
        {
          "internalType": "bool",
          "name": "",
          "type": "bool"
        }
      ],
      "stateMutability": "nonpayable",
      "type": "function"
    },
    {
      "inputs": [
        {
          "internalType": "address",
          "name": "sender",
          "type": "address"
        },
        {
          "internalType": "address",
          "name": "recipient",
          "type": "address"
        },
        {
          "internalType": "uint256",
          "name": "amount",
          "type": "uint256"
        }
      ],
      "name": "transferFrom",
      "outputs": [
        {
          "internalType": "bool",
          "name": "",
          "type": "bool"
        }
      ],
      "stateMutability": "nonpayable",
      "type": "function"
    },
    {
      "inputs": [
        {
          "internalType": "address",
          "name": "newOwner",
          "type": "address"
        }
      ],
      "name": "transferOwnership",
      "outputs": [],
      "stateMutability": "nonpayable",
      "type": "function"
    },
    {
      "inputs": [
        {
          "internalType": "address",
          "name": "account",
          "type": "address"
        }
      ],
      "name": "unScaledbalanceOf",
      "outputs": [
        {
          "internalType": "uint256",
          "name": "",
          "type": "uint256"
        }
      ],
      "stateMutability": "view",
      "type": "function"
    },
    {
      "inputs": [
        {
          "internalType": "address",
          "name": "newImplementation",
          "type": "address"
        }
      ],
      "name": "upgradeTo",
      "outputs": [],
      "stateMutability": "nonpayable",
      "type": "function"
    },
    {
      "inputs": [
        {
          "internalType": "address",
          "name": "newImplementation",
          "type": "address"
        },
        {
          "internalType": "bytes",
          "name": "data",
          "type": "bytes"
        }
      ],
      "name": "upgradeToAndCall",
      "outputs": [],
      "stateMutability": "payable",
      "type": "function"
    },
    {
      "inputs": [
        {
          "internalType": "uint256",
          "name": "assets",
          "type": "uint256"
        },
        {
          "internalType": "address",
          "name": "receiver",
          "type": "address"
        },
        {
          "internalType": "address",
          "name": "owner_",
          "type": "address"
        }
      ],
      "name": "withdraw",
      "outputs": [
        {
          "internalType": "uint256",
          "name": "",
          "type": "uint256"
        }
      ],
      "stateMutability": "nonpayable",
      "type": "function"
    }
  ],
  "bytecode": "0x60a0604052306080523480156200001557600080fd5b506200002062000030565b6200002a62000030565b620000f1565b600054610100900460ff16156200009d5760405162461bcd60e51b815260206004820152602760248201527f496e697469616c697a61626c653a20636f6e747261637420697320696e697469604482015266616c697a696e6760c81b606482015260840160405180910390fd5b60005460ff90811614620000ef576000805460ff191660ff9081179091556040519081527f7f26b83ff96e1f2b6a682f133852f6798a09c465da95921460cefb38474024989060200160405180910390a15b565b608051614cf662000129600039600081816113a401528181611429015281816115da0152818161165f0152611b2a0152614cf66000f3fe60806040526004361061038c5760003560e01c8063715018a6116101dc578063b460af9411610102578063d78f0921116100a0578063ef8b30f71161006f578063ef8b30f714610412578063f077fd3c1461097f578063f2fde38b1461099f578063fd6064b3146109bf57600080fd5b8063d78f09211461090f578063d905777e146108ba578063dd62ed3e14610924578063e58127311461096a57600080fd5b8063c6e6f592116100dc578063c6e6f59214610412578063ce96cb77146108ba578063d505accf146108da578063d69f62e0146108fa57600080fd5b8063b460af941461087a578063ba0876521461089a578063c63d75b6146105ce57600080fd5b8063925d6ba21161017a578063a457c2d711610149578063a457c2d71461081a578063a9059cbb1461083a578063b1dbfcee1461085a578063b3d7f6b91461041257600080fd5b8063925d6ba2146107a657806394bf804d146107c557806395d89b41146107e55780639dc29fac146107fa57600080fd5b806385f2eac0116101b657806385f2eac0146107285780638da5cb5b146107485780638f4cef0c146107665780638f50bd131461078657600080fd5b8063715018a6146106cb5780637ecebe00146106e057806384b0196e1461070057600080fd5b8063313ce567116102c15780634f1ef2861161025f5780635f758bef1161022e5780635f758bef146106565780636a300529146106765780636e553f651461068b57806370a08231146106ab57600080fd5b80634f1ef286146105ee578063501639741461060157806350921b231461062157806352d1902d1461064157600080fd5b806338d52e0f1161029b57806338d52e0f1461057b57806339509351146105ae578063402d267d146105ce5780634cdad5061461041257600080fd5b8063313ce5671461052a5780633644e515146105465780633659cfe61461055b57600080fd5b806312cfca381161032e57806323b872dd1161030857806323b872dd146104b5578063275f0ddd146104d557806327a44ed0146104f5578063309280091461051557600080fd5b806312cfca381461046057806316b535f41461048057806318160ddd146104a057600080fd5b806306fdde031161036a57806306fdde03146103f057806307a2d13a14610412578063095ea7b3146104305780630a28a4771461041257600080fd5b806301e1d11414610391578063030d4ed7146103b957806305bfee33146103d0575b600080fd5b34801561039d57600080fd5b506103a66109df565b6040519081526020015b60405180910390f35b3480156103c557600080fd5b506103ce610a5b565b005b3480156103dc57600080fd5b506103ce6103eb3660046144cf565b610a76565b3480156103fc57600080fd5b50610405610b02565b6040516103b0919061454b565b34801561041e57600080fd5b506103a661042d36600461455e565b90565b34801561043c57600080fd5b5061045061044b3660046144cf565b610b94565b60405190151581526020016103b0565b34801561046c57600080fd5b506103ce61047b366004614631565b610bae565b34801561048c57600080fd5b506103ce61049b3660046144cf565b610dbf565b3480156104ac57600080fd5b5060cb546103a6565b3480156104c157600080fd5b506104506104d03660046146e0565b610e4e565b3480156104e157600080fd5b506103ce6104f0366004614721565b611223565b34801561050157600080fd5b5061016254600160b81b900460ff16610450565b34801561052157600080fd5b506103ce611366565b34801561053657600080fd5b50604051601281526020016103b0565b34801561055257600080fd5b506103a6611390565b34801561056757600080fd5b506103ce61057636600461475a565b61139a565b34801561058757600080fd5b50610196546001600160a01b03165b6040516001600160a01b0390911681526020016103b0565b3480156105ba57600080fd5b506104506105c93660046144cf565b611515565b3480156105da57600080fd5b506103a66105e936600461475a565b611554565b6103ce6105fc366004614777565b6115d0565b34801561060d57600080fd5b5061045061061c36600461475a565b611738565b34801561062d57600080fd5b506103a661063c3660046147ec565b61181f565b34801561064d57600080fd5b506103a6611b1d565b34801561066257600080fd5b506103ce6106713660046144cf565b611be2565b34801561068257600080fd5b506103ce611bf4565b34801561069757600080fd5b506103a66106a6366004614846565b611c1e565b3480156106b757600080fd5b506103a66106c636600461475a565b611e7a565b3480156106d757600080fd5b506103ce611f3f565b3480156106ec57600080fd5b506103a66106fb36600461475a565b611f53565b34801561070c57600080fd5b50610715611f72565b6040516103b0979695949392919061486b565b34801561073457600080fd5b5061016254600160b01b900460ff16610450565b34801561075457600080fd5b506097546001600160a01b0316610596565b34801561077257600080fd5b506103a661078136600461475a565b612018565b34801561079257600080fd5b506104506107a136600461475a565b612036565b3480156107b257600080fd5b50610195546001600160a01b0316610596565b3480156107d157600080fd5b506103a66107e0366004614846565b6120d8565b3480156107f157600080fd5b5061040561234f565b34801561080657600080fd5b506103ce6108153660046144cf565b61235e565b34801561082657600080fd5b506104506108353660046144cf565b612370565b34801561084657600080fd5b506104506108553660046144cf565b61240d565b34801561086657600080fd5b5061016254600160a81b900460ff16610450565b34801561088657600080fd5b506103a6610895366004614901565b6127c9565b3480156108a657600080fd5b506103a66108b5366004614901565b612ba2565b3480156108c657600080fd5b506103a66108d536600461475a565b612f36565b3480156108e657600080fd5b506103ce6108f5366004614943565b612fa6565b34801561090657600080fd5b506103ce61310a565b34801561091b57600080fd5b506103ce61312e565b34801561093057600080fd5b506103a661093f366004614721565b6001600160a01b03918216600090815260ca6020908152604080832093909416825291909152205490565b34801561097657600080fd5b506103ce613158565b34801561098b57600080fd5b506103ce61099a366004614721565b613182565b3480156109ab57600080fd5b506103ce6109ba36600461475a565b613292565b3480156109cb57600080fd5b5061016254600160a01b900460ff16610450565b61019654610195546040516370a0823160e01b81526001600160a01b03918216600482015260009291909116906370a0823190602401602060405180830381865afa158015610a32573d6000803e3d6000fd5b505050506040513d601f19601f82011682018060405250810190610a5691906149b1565b905090565b610a63613308565b610162805463ffffffff60a01b19169055565b610a7e613362565b61019554610196546040516368939ecf60e11b8152600160a01b90910460ff1615156004820152602481018390526001600160a01b039091169063d1273d9e90604401600060405180830381600087803b158015610adb57600080fd5b505af1158015610aef573d6000803e3d6000fd5b50505050610afd8282613397565b505050565b606060cc8054610b11906149ca565b80601f0160208091040260200160405190810160405280929190818152602001828054610b3d906149ca565b8015610b8a5780601f10610b5f57610100808354040283529160200191610b8a565b820191906000526020600020905b815481529060010190602001808311610b6d57829003601f168201915b5050505050905090565b600033610ba28185856133ac565b60019150505b92915050565b600054610100900460ff1615808015610bce5750600054600160ff909116105b80610be85750303b158015610be8575060005460ff166001145b610c5f5760405162461bcd60e51b815260206004820152602e60248201527f496e697469616c697a61626c653a20636f6e747261637420697320616c72656160448201527f647920696e697469616c697a656400000000000000000000000000000000000060648201526084015b60405180910390fd5b6000805460ff191660011790558015610c82576000805461ff0019166101001790555b610c8c87876134d0565b610c9587613501565b610c9e8461354b565b610ca6613595565b610caf82613292565b610cb76135c4565b61019580546001600160a01b0319166001600160a01b03871690811790915560408051634c566bd360e11b815290516398acd7a6916004808201926020929091908290030181865afa158015610d11573d6000803e3d6000fd5b505050506040513d601f19601f82011682018060405250810190610d3591906149fe565b61019680546001600160a01b039290921674ffffffffffffffffffffffffffffffffffffffffff1990921691909117600160a01b851515021790558015610db6576000805461ff0019169055604051600181527f7f26b83ff96e1f2b6a682f133852f6798a09c465da95921460cefb38474024989060200160405180910390a15b50505050505050565b610dc7613362565b610195546101965460405163566f4d9560e11b8152600160a01b90910460ff16151560048201526001600160a01b038481166024830152604482018490529091169063acde9b2a90606401600060405180830381600087803b158015610e2c57600080fd5b505af1158015610e40573d6000803e3d6000fd5b50505050610afd82826135eb565b61016254600090600160b01b900460ff1615610e7d57604051630c98e6a160e31b815260040160405180910390fd5b61019560009054906101000a90046001600160a01b03166001600160a01b0316629c185f6040518163ffffffff1660e01b8152600401602060405180830381865afa158015610ed0573d6000803e3d6000fd5b505050506040513d601f19601f82011682018060405250810190610ef49190614a1b565b15610f12576040516321e3430160e21b815260040160405180910390fd5b61019560009054906101000a90046001600160a01b03166001600160a01b031663533ae1296040518163ffffffff1660e01b8152600401600060405180830381600087803b158015610f6357600080fd5b505af1158015610f77573d6000803e3d6000fd5b50506101625460405163df592f7d60e01b81526001600160a01b0380881660048301528794509091169150600090829063df592f7d90602401602060405180830381865afa158015610fcd573d6000803e3d6000fd5b505050506040513d601f19601f82011682018060405250810190610ff19190614a1b565b905080156110125760405163108a7eb160e21b815260040160405180910390fd5b6101625460405163df592f7d60e01b81526001600160a01b03808a16600483015289921690600090829063df592f7d90602401602060405180830381865afa158015611062573d6000803e3d6000fd5b505050506040513d601f19601f820116820180604052508101906110869190614a1b565b905080156110a75760405163108a7eb160e21b815260040160405180910390fd5b6110b18a8a611223565b6110bb8a8a613182565b61019554604051633524f9e360e21b81526001600160a01b038c811660048301528b81166024830152600092169063d493e78c90604401608060405180830381865afa15801561110f573d6000803e3d6000fd5b505050506040513d601f19601f820116820180604052508101906111339190614a38565b905060006111428c8c8c6135f7565b61019554610196549192506001600160a01b03169063eec0d656908e908e90600160a01b900460ff168e8760006020020151886001602002015189600260200201518a600360200201516040516001600160e01b031960e08b901b1681526001600160a01b03988916600482015297909616602488015293151560448701526064860192909252608485015260a484015260c483015260e482015261010401600060405180830381600087803b1580156111fb57600080fd5b505af115801561120f573d6000803e3d6000fd5b50929e9d5050505050505050505050505050565b61122c82611738565b1561129257610195546040516310e7089f60e11b81526001600160a01b038481166004830152909116906321ce113e90602401600060405180830381600087803b15801561127957600080fd5b505af115801561128d573d6000803e3d6000fd5b505050505b61019554604051631605ed3160e31b81526001600160a01b0383811660048301529091169063b02f698890602401600060405180830381600087803b1580156112da57600080fd5b505af11580156112ee573d6000803e3d6000fd5b505050506112fb81611738565b1561136257610195546040516310e7089f60e11b81526001600160a01b038381166004830152909116906321ce113e906024015b600060405180830381600087803b15801561134957600080fd5b505af115801561135d573d6000803e3d6000fd5b505050505b5050565b61136e613308565b610162805460ff60b81b198116600160b81b9182900460ff1615909102179055565b6000610a56613610565b6001600160a01b037f00000000000000000000000000000000000000000000000000000000000000001630036114275760405162461bcd60e51b815260206004820152602c60248201527f46756e6374696f6e206d7573742062652063616c6c6564207468726f7567682060448201526b19195b1959d85d1958d85b1b60a21b6064820152608401610c56565b7f00000000000000000000000000000000000000000000000000000000000000006001600160a01b03166114827f360894a13ba1a3210667c828492db98dca3e2076cc3735a920a3ca505d382bbc546001600160a01b031690565b6001600160a01b0316146114ed5760405162461bcd60e51b815260206004820152602c60248201527f46756e6374696f6e206d7573742062652063616c6c6564207468726f7567682060448201526b6163746976652070726f787960a01b6064820152608401610c56565b6114f68161361a565b6040805160008082526020820190925261151291839190613622565b50565b33600081815260ca602090815260408083206001600160a01b0387168452909152812054909190610ba2908290869061154f908790614acc565b6133ac565b6101955460405163728bf73360e01b81526001600160a01b038381166004830152600092169063728bf73390602401602060405180830381865afa1580156115a0573d6000803e3d6000fd5b505050506040513d601f19601f820116820180604052508101906115c491906149b1565b610ba890600019614adf565b6001600160a01b037f000000000000000000000000000000000000000000000000000000000000000016300361165d5760405162461bcd60e51b815260206004820152602c60248201527f46756e6374696f6e206d7573742062652063616c6c6564207468726f7567682060448201526b19195b1959d85d1958d85b1b60a21b6064820152608401610c56565b7f00000000000000000000000000000000000000000000000000000000000000006001600160a01b03166116b87f360894a13ba1a3210667c828492db98dca3e2076cc3735a920a3ca505d382bbc546001600160a01b031690565b6001600160a01b0316146117235760405162461bcd60e51b815260206004820152602c60248201527f46756e6374696f6e206d7573742062652063616c6c6564207468726f7567682060448201526b6163746976652070726f787960a01b6064820152608401610c56565b61172c8261361a565b61136282826001613622565b6101955460408051638df4541b60e01b815290516000926001600160a01b031691638df4541b9160048083019260209291908290030181865afa158015611783573d6000803e3d6000fd5b505050506040513d601f19601f820116820180604052508101906117a791906149b1565b6101955460405163a129c84760e01b81526001600160a01b0385811660048301529091169063a129c847906024015b602060405180830381865afa1580156117f3573d6000803e3d6000fd5b505050506040513d601f19601f8201168201806040525081019061181791906149b1565b141592915050565b61016254600090600160a01b900460ff161561184e57604051636822eceb60e11b815260040160405180910390fd5b61019560009054906101000a90046001600160a01b03166001600160a01b0316629c185f6040518163ffffffff1660e01b8152600401602060405180830381865afa1580156118a1573d6000803e3d6000fd5b505050506040513d601f19601f820116820180604052508101906118c59190614a1b565b156118e3576040516321e3430160e21b815260040160405180910390fd5b61019560009054906101000a90046001600160a01b03166001600160a01b031663533ae1296040518163ffffffff1660e01b8152600401600060405180830381600087803b15801561193457600080fd5b505af1158015611948573d6000803e3d6000fd5b505061019554604051634eacc0fd60e01b8152600481018b90528a93506001600160a01b039091169150634eacc0fd906024016020604051808303816000875af115801561199a573d6000803e3d6000fd5b505050506040513d601f19601f820116820180604052508101906119be9190614a1b565b156119dc5760405163b04c001160e01b815260040160405180910390fd5b87876119e882826137ae565b60008a610196549091506001600160a01b031663d505accf336101955460405160e084901b6001600160e01b03191681526001600160a01b0392831660048201529116602482015260448101849052606481018c905260ff8b16608482015260a481018a905260c4810189905260e401600060405180830381600087803b158015611a7257600080fd5b505af1158015611a86573d6000803e3d6000fd5b5050610195546001600160a01b0316915063c14cfe099050336040516001600160e01b031960e084901b1681526001600160a01b039182166004820152908d166024820152604481018e905260648101849052608401600060405180830381600087803b158015611af657600080fd5b505af1158015611b0a573d6000803e3d6000fd5b50929d9c50505050505050505050505050565b6000306001600160a01b037f00000000000000000000000000000000000000000000000000000000000000001614611bbd5760405162461bcd60e51b815260206004820152603860248201527f555550535570677261646561626c653a206d757374206e6f742062652063616c60448201527f6c6564207468726f7567682064656c656761746563616c6c00000000000000006064820152608401610c56565b507f360894a13ba1a3210667c828492db98dca3e2076cc3735a920a3ca505d382bbc90565b611bea613362565b61136282826137f8565b611bfc613308565b610162805460ff60b01b198116600160b01b9182900460ff1615909102179055565b61016254600090600160a01b900460ff1615611c4d57604051636822eceb60e11b815260040160405180910390fd5b61019560009054906101000a90046001600160a01b03166001600160a01b0316629c185f6040518163ffffffff1660e01b8152600401602060405180830381865afa158015611ca0573d6000803e3d6000fd5b505050506040513d601f19601f82011682018060405250810190611cc49190614a1b565b15611ce2576040516321e3430160e21b815260040160405180910390fd5b61019560009054906101000a90046001600160a01b03166001600160a01b031663533ae1296040518163ffffffff1660e01b8152600401600060405180830381600087803b158015611d3357600080fd5b505af1158015611d47573d6000803e3d6000fd5b505061019554604051634eacc0fd60e01b8152600481018790528693506001600160a01b039091169150634eacc0fd906024016020604051808303816000875af1158015611d99573d6000803e3d6000fd5b505050506040513d601f19601f82011682018060405250810190611dbd9190614a1b565b15611ddb5760405163b04c001160e01b815260040160405180910390fd5b8383611de782826137ae565b600086610195549091506001600160a01b031663c14cfe09336040516001600160e01b031960e084901b1681526001600160a01b0391821660048201529089166024820152604481018a905260648101849052608401600060405180830381600087803b158015611e5757600080fd5b505af1158015611e6b573d6000803e3d6000fd5b50929998505050505050505050565b6000611e8582612036565b80611e945750611e9482611738565b15611f31576101955460405163a4d96e1760e01b81526001600160a01b038481166004830152600092839291169063a4d96e17906024016040805180830381865afa158015611ee7573d6000803e3d6000fd5b505050506040513d601f19601f82011682018060405250810190611f0b9190614af2565b610196549193509150600160a01b900460ff1615611f2a575092915050565b9392505050565b610ba882612018565b919050565b611f47613308565b611f5160006138b9565b565b6001600160a01b038116600090815261012f6020526040812054610ba8565b60006060806000806000606060fb546000801b148015611f92575060fc54155b611fde5760405162461bcd60e51b815260206004820152601560248201527f4549503731323a20556e696e697469616c697a656400000000000000000000006044820152606401610c56565b611fe661390b565b611fee61391a565b60408051600080825260208201909252600f60f81b9b939a50919850469750309650945092509050565b6001600160a01b038116600090815260c96020526040812054610ba8565b6101955460408051636ee545fd60e11b815290516000926001600160a01b03169163ddca8bfa9160048083019260209291908290030181865afa158015612081573d6000803e3d6000fd5b505050506040513d601f19601f820116820180604052508101906120a591906149b1565b610195546040516325ad47ab60e21b81526001600160a01b038581166004830152909116906396b51eac906024016117d6565b61016254600090600160a01b900460ff161561210757604051636822eceb60e11b815260040160405180910390fd5b61019560009054906101000a90046001600160a01b03166001600160a01b0316629c185f6040518163ffffffff1660e01b8152600401602060405180830381865afa15801561215a573d6000803e3d6000fd5b505050506040513d601f19601f8201168201806040525081019061217e9190614a1b565b1561219c576040516321e3430160e21b815260040160405180910390fd5b61019560009054906101000a90046001600160a01b03166001600160a01b031663533ae1296040518163ffffffff1660e01b8152600401600060405180830381600087803b1580156121ed57600080fd5b505af1158015612201573d6000803e3d6000fd5b505061019554604051634eacc0fd60e01b8152600481018790528693506001600160a01b039091169150634eacc0fd906024016020604051808303816000875af1158015612253573d6000803e3d6000fd5b505050506040513d601f19601f820116820180604052508101906122779190614a1b565b156122955760405163b04c001160e01b815260040160405180910390fd5b61229e83611554565b8411156122be5760405163292b120160e01b815260040160405180910390fd5b600084610195549091506001600160a01b031663c14cfe09336040516001600160e01b031960e084901b1681526001600160a01b03918216600482015290871660248201526044810184905260648101889052608401600060405180830381600087803b15801561232e57600080fd5b505af1158015612342573d6000803e3d6000fd5b5092979650505050505050565b606060cd8054610b11906149ca565b612366613362565b6113628282613929565b33600081815260ca602090815260408083206001600160a01b0387168452909152812054909190838110156123f55760405162461bcd60e51b815260206004820152602560248201527f45524332303a2064656372656173656420616c6c6f77616e63652062656c6f77604482015264207a65726f60d81b6064820152608401610c56565b61240282868684036133ac565b506001949350505050565b61016254600090600160b01b900460ff161561243c57604051630c98e6a160e31b815260040160405180910390fd5b61019560009054906101000a90046001600160a01b03166001600160a01b0316629c185f6040518163ffffffff1660e01b8152600401602060405180830381865afa15801561248f573d6000803e3d6000fd5b505050506040513d601f19601f820116820180604052508101906124b39190614a1b565b156124d1576040516321e3430160e21b815260040160405180910390fd5b6101625460405163df592f7d60e01b81526001600160a01b03808616600483015285921690600090829063df592f7d90602401602060405180830381865afa158015612521573d6000803e3d6000fd5b505050506040513d601f19601f820116820180604052508101906125459190614a1b565b905080156125665760405163108a7eb160e21b815260040160405180910390fd5b336101625460405163df592f7d60e01b81526001600160a01b03838116600483015290911690600090829063df592f7d90602401602060405180830381865afa1580156125b7573d6000803e3d6000fd5b505050506040513d601f19601f820116820180604052508101906125db9190614a1b565b905080156125fc5760405163108a7eb160e21b815260040160405180910390fd5b61019560009054906101000a90046001600160a01b03166001600160a01b031663533ae1296040518163ffffffff1660e01b8152600401600060405180830381600087803b15801561264d57600080fd5b505af1158015612661573d6000803e3d6000fd5b5050505061267561266f3390565b8a611223565b61267f338a613182565b610195546000906001600160a01b031663d493e78c336040516001600160e01b031960e084901b1681526001600160a01b039182166004820152908d166024820152604401608060405180830381865afa1580156126e1573d6000803e3d6000fd5b505050506040513d601f19601f820116820180604052508101906127059190614a38565b905060006127138b8b613a5d565b610195549091506001600160a01b031663eec0d65633610196548e90600160a01b900460ff168e8760006020020151886001602002015189600260200201518a600360200201516040516001600160e01b031960e08b901b1681526001600160a01b03988916600482015297909616602488015293151560448701526064860192909252608485015260a484015260c483015260e482015261010401600060405180830381600087803b158015611af657600080fd5b61016254600090600160a81b900460ff16156127f857604051636344d7b760e11b815260040160405180910390fd5b61019560009054906101000a90046001600160a01b03166001600160a01b0316629c185f6040518163ffffffff1660e01b8152600401602060405180830381865afa15801561284b573d6000803e3d6000fd5b505050506040513d601f19601f8201168201806040525081019061286f9190614a1b565b1561288d576040516321e3430160e21b815260040160405180910390fd5b61019560009054906101000a90046001600160a01b03166001600160a01b031663533ae1296040518163ffffffff1660e01b8152600401600060405180830381600087803b1580156128de57600080fd5b505af11580156128f2573d6000803e3d6000fd5b50506101955460405163cf0571d360e01b8152600481018890528793506001600160a01b03909116915063cf0571d3906024016020604051808303816000875af1158015612944573d6000803e3d6000fd5b505050506040513d601f19601f820116820180604052508101906129689190614a1b565b156129865760405163922c089560e01b815260040160405180910390fd5b8261299081613a6b565b612998613a94565b61019560009054906101000a90046001600160a01b03166001600160a01b031663ddca8bfa6040518163ffffffff1660e01b8152600401602060405180830381865afa1580156129ec573d6000803e3d6000fd5b505050506040513d601f19601f82011682018060405250810190612a1091906149b1565b610195546040516325ad47ab60e21b81526001600160a01b038881166004830152909116906396b51eac90602401602060405180830381865afa158015612a5b573d6000803e3d6000fd5b505050506040513d601f19601f82011682018060405250810190612a7f91906149b1565b14612ae5576101955460405163242ffe5560e11b81526001600160a01b0387811660048301529091169063485ffcaa90602401600060405180830381600087803b158015612acc57600080fd5b505af1158015612ae0573d6000803e3d6000fd5b505050505b612aee84612f36565b861115612b0e5760405163039eea9760e31b815260040160405180910390fd5b61019554604051633d82850b60e01b81523360048201526001600160a01b0387811660248301528681166044830152606482018990526084820189905288921690633d82850b9060a4015b600060405180830381600087803b158015612b7357600080fd5b505af1158015612b87573d6000803e3d6000fd5b50929550505050612b99600161016355565b50509392505050565b61016254600090600160a81b900460ff1615612bd157604051636344d7b760e11b815260040160405180910390fd5b61019560009054906101000a90046001600160a01b03166001600160a01b0316629c185f6040518163ffffffff1660e01b8152600401602060405180830381865afa158015612c24573d6000803e3d6000fd5b505050506040513d601f19601f82011682018060405250810190612c489190614a1b565b15612c66576040516321e3430160e21b815260040160405180910390fd5b61019560009054906101000a90046001600160a01b03166001600160a01b031663533ae1296040518163ffffffff1660e01b8152600401600060405180830381600087803b158015612cb757600080fd5b505af1158015612ccb573d6000803e3d6000fd5b50506101955460405163cf0571d360e01b8152600481018890528793506001600160a01b03909116915063cf0571d3906024016020604051808303816000875af1158015612d1d573d6000803e3d6000fd5b505050506040513d601f19601f82011682018060405250810190612d419190614a1b565b15612d5f5760405163922c089560e01b815260040160405180910390fd5b82612d6981613a6b565b612d71613a94565b61019560009054906101000a90046001600160a01b03166001600160a01b031663ddca8bfa6040518163ffffffff1660e01b8152600401602060405180830381865afa158015612dc5573d6000803e3d6000fd5b505050506040513d601f19601f82011682018060405250810190612de991906149b1565b610195546040516325ad47ab60e21b81526001600160a01b038881166004830152909116906396b51eac90602401602060405180830381865afa158015612e34573d6000803e3d6000fd5b505050506040513d601f19601f82011682018060405250810190612e5891906149b1565b14612ebe576101955460405163242ffe5560e11b81526001600160a01b0387811660048301529091169063485ffcaa90602401600060405180830381600087803b158015612ea557600080fd5b505af1158015612eb9573d6000803e3d6000fd5b505050505b612ec784612f36565b861115612ee7576040516389e4c16360e01b815260040160405180910390fd5b61019554604051633d82850b60e01b81523360048201526001600160a01b0387811660248301528681166044830152606482018990526084820189905288921690633d82850b9060a401612b59565b610195546040516306443f4560e51b81526001600160a01b038381166004830152600092169063c887e8a090602401602060405180830381865afa158015612f82573d6000803e3d6000fd5b505050506040513d601f19601f82011682018060405250810190610ba891906149b1565b83421115612ff65760405162461bcd60e51b815260206004820152601d60248201527f45524332305065726d69743a206578706972656420646561646c696e650000006044820152606401610c56565b60007f6e71edae12b1b97f4d1f60370fef10105fa2faae0126114a169c64845d6126c98888886130258c613aef565b6040805160208101969096526001600160a01b0394851690860152929091166060840152608083015260a082015260c0810186905260e001604051602081830303815290604052805190602001209050600061308082613b18565b9050600061309082878787613b45565b9050896001600160a01b0316816001600160a01b0316146130f35760405162461bcd60e51b815260206004820152601e60248201527f45524332305065726d69743a20696e76616c6964207369676e617475726500006044820152606401610c56565b6130fe8a8a8a6133ac565b50505050505050505050565b613112613308565b610162805463ffffffff60a01b1916630101010160a01b179055565b613136613308565b610162805460ff60a01b198116600160a01b9182900460ff1615909102179055565b613160613308565b610162805460ff60a81b198116600160a81b9182900460ff1615909102179055565b61318b82612036565b156131f1576101955460405163242ffe5560e11b81526001600160a01b0384811660048301529091169063485ffcaa90602401600060405180830381600087803b1580156131d857600080fd5b505af11580156131ec573d6000803e3d6000fd5b505050505b61019554604051635737ed7d60e01b81526001600160a01b03838116600483015290911690635737ed7d90602401600060405180830381600087803b15801561323957600080fd5b505af115801561324d573d6000803e3d6000fd5b5050505061325a81612036565b15611362576101955460405163242ffe5560e11b81526001600160a01b0383811660048301529091169063485ffcaa9060240161132f565b61329a613308565b6001600160a01b0381166132ff5760405162461bcd60e51b815260206004820152602660248201527f4f776e61626c653a206e6577206f776e657220697320746865207a65726f206160448201526564647265737360d01b6064820152608401610c56565b611512816138b9565b6097546001600160a01b03163314611f515760405162461bcd60e51b815260206004820181905260248201527f4f776e61626c653a2063616c6c6572206973206e6f7420746865206f776e65726044820152606401610c56565b610195546001600160a01b0316336001600160a01b031614611f515760405163e565d9cb60e01b815260040160405180910390fd5b60006133a38383613b6f565b50600192915050565b6001600160a01b03831661340e5760405162461bcd60e51b8152602060048201526024808201527f45524332303a20617070726f76652066726f6d20746865207a65726f206164646044820152637265737360e01b6064820152608401610c56565b6001600160a01b03821661346f5760405162461bcd60e51b815260206004820152602260248201527f45524332303a20617070726f766520746f20746865207a65726f206164647265604482015261737360f01b6064820152608401610c56565b6001600160a01b03838116600081815260ca602090815260408083209487168084529482529182902085905590518481527f8c5be1e5ebec7d5bd14f71427d1e84f3dd0314c0f7b2291e5b200ac8c7c3b925910160405180910390a3505050565b600054610100900460ff166134f75760405162461bcd60e51b8152600401610c5690614b16565b6113628282613be7565b600054610100900460ff166135285760405162461bcd60e51b8152600401610c5690614b16565b61151281604051806040016040528060018152602001603160f81b815250613c27565b600054610100900460ff166135725760405162461bcd60e51b8152600401610c5690614b16565b61016280546001600160a01b0319166001600160a01b0392909216919091179055565b600054610100900460ff166135bc5760405162461bcd60e51b8152600401610c5690614b16565b611f51613c76565b600054610100900460ff16611f515760405162461bcd60e51b8152600401610c5690614b16565b60006133a38383613ca6565b600033613605858285613d18565b612402858585613daa565b6000610a56613f55565b611512613308565b7f4910fdfa16fed3260ed0e7147f7cc6da11a60208b5b9406d12a635614ffd91435460ff161561365557610afd83613fc9565b826001600160a01b03166352d1902d6040518163ffffffff1660e01b8152600401602060405180830381865afa9250505080156136af575060408051601f3d908101601f191682019092526136ac918101906149b1565b60015b6137215760405162461bcd60e51b815260206004820152602e60248201527f45524331393637557067726164653a206e657720696d706c656d656e7461746960448201527f6f6e206973206e6f7420555550530000000000000000000000000000000000006064820152608401610c56565b7f360894a13ba1a3210667c828492db98dca3e2076cc3735a920a3ca505d382bbc81146137a25760405162461bcd60e51b815260206004820152602960248201527f45524331393637557067726164653a20756e737570706f727465642070726f786044820152681a58589b195555525160ba1b6064820152608401610c56565b50610afd838383614087565b816000036137cf576040516303e3e43960e51b815260040160405180910390fd5b6137d881611554565b821115611362576040516314a4b53560e01b815260040160405180910390fd5b6001600160a01b03821661384e5760405162461bcd60e51b815260206004820152601f60248201527f45524332303a206d696e7420746f20746865207a65726f2061646472657373006044820152606401610c56565b8060cb60008282546138609190614acc565b90915550506001600160a01b038216600081815260c960209081526040808320805486019055518481527fddf252ad1be2c89b69c2b068fc378daa952ba7f163c4a11628f55a4df523b3ef910160405180910390a35050565b609780546001600160a01b038381166001600160a01b0319831681179093556040519116919082907f8be0079c531659141344cd1fd0a4f28419497f9722a3daafe3b4186f6b6457e090600090a35050565b606060fd8054610b11906149ca565b606060fe8054610b11906149ca565b6001600160a01b0382166139895760405162461bcd60e51b815260206004820152602160248201527f45524332303a206275726e2066726f6d20746865207a65726f206164647265736044820152607360f81b6064820152608401610c56565b6001600160a01b038216600090815260c96020526040902054818110156139fd5760405162461bcd60e51b815260206004820152602260248201527f45524332303a206275726e20616d6f756e7420657863656564732062616c616e604482015261636560f01b6064820152608401610c56565b6001600160a01b038316600081815260c960209081526040808320868603905560cb80548790039055518581529192917fddf252ad1be2c89b69c2b068fc378daa952ba7f163c4a11628f55a4df523b3ef910160405180910390a3505050565b600033610ba2818585613daa565b6001600160a01b038116331461151257604051637a45e68560e01b815260040160405180910390fd5b60026101635403613ae75760405162461bcd60e51b815260206004820152601f60248201527f5265656e7472616e637947756172643a207265656e7472616e742063616c6c006044820152606401610c56565b600261016355565b6001600160a01b038116600090815261012f602052604090208054600181018255905b50919050565b6000610ba8613b25613610565b8360405161190160f01b8152600281019290925260228201526042902090565b6000806000613b56878787876140ac565b91509150613b6381614170565b5090505b949350505050565b6001600160a01b038216613bc55760405162461bcd60e51b815260206004820152601c60248201527f54726561737572792063616e6e6f74206265207a65726f2061646472000000006044820152606401610c56565b6001600160a01b03909116600090815260c96020526040902080549091019055565b600054610100900460ff16613c0e5760405162461bcd60e51b8152600401610c5690614b16565b60cc613c1a8382614ba7565b5060cd610afd8282614ba7565b600054610100900460ff16613c4e5760405162461bcd60e51b8152600401610c5690614b16565b60fd613c5a8382614ba7565b5060fe613c678282614ba7565b5050600060fb81905560fc5550565b600054610100900460ff16613c9d5760405162461bcd60e51b8152600401610c5690614b16565b611f51336138b9565b6001600160a01b038216613cfc5760405162461bcd60e51b815260206004820152601b60248201527f416464726573732063616e6e6f74206265207a65726f206164647200000000006044820152606401610c56565b6001600160a01b03909116600090815260c96020526040902055565b6001600160a01b03838116600090815260ca60209081526040808320938616835292905220546000198114613da45781811015613d975760405162461bcd60e51b815260206004820152601d60248201527f45524332303a20696e73756666696369656e7420616c6c6f77616e63650000006044820152606401610c56565b613da484848484036133ac565b50505050565b6001600160a01b038316613e0e5760405162461bcd60e51b815260206004820152602560248201527f45524332303a207472616e736665722066726f6d20746865207a65726f206164604482015264647265737360d81b6064820152608401610c56565b6001600160a01b038216613e705760405162461bcd60e51b815260206004820152602360248201527f45524332303a207472616e7366657220746f20746865207a65726f206164647260448201526265737360e81b6064820152608401610c56565b6001600160a01b038316600090815260c9602052604090205481811015613ee85760405162461bcd60e51b815260206004820152602660248201527f45524332303a207472616e7366657220616d6f756e7420657863656564732062604482015265616c616e636560d01b6064820152608401610c56565b6001600160a01b03808516600081815260c9602052604080822086860390559286168082529083902080548601905591517fddf252ad1be2c89b69c2b068fc378daa952ba7f163c4a11628f55a4df523b3ef90613f489086815260200190565b60405180910390a3613da4565b60007f8b73c3c69bb8fe3d512ecc4cf759cc79239f7b179b0ffacaa9a75d522b39400f613f806142ba565b613f88614313565b60408051602081019490945283019190915260608201524660808201523060a082015260c00160405160208183030381529060405280519060200120905090565b6001600160a01b0381163b6140465760405162461bcd60e51b815260206004820152602d60248201527f455243313936373a206e657720696d706c656d656e746174696f6e206973206e60448201527f6f74206120636f6e7472616374000000000000000000000000000000000000006064820152608401610c56565b7f360894a13ba1a3210667c828492db98dca3e2076cc3735a920a3ca505d382bbc80546001600160a01b0319166001600160a01b0392909216919091179055565b61409083614344565b60008251118061409d5750805b15610afd57613da48383614384565b6000807f7fffffffffffffffffffffffffffffff5d576e7357a4501ddfe92f46681b20a08311156140e35750600090506003614167565b6040805160008082526020820180845289905260ff881692820192909252606081018690526080810185905260019060a0016020604051602081039080840390855afa158015614137573d6000803e3d6000fd5b5050604051601f1901519150506001600160a01b03811661416057600060019250925050614167565b9150600090505b94509492505050565b600081600481111561418457614184614c67565b0361418c5750565b60018160048111156141a0576141a0614c67565b036141ed5760405162461bcd60e51b815260206004820152601860248201527f45434453413a20696e76616c6964207369676e617475726500000000000000006044820152606401610c56565b600281600481111561420157614201614c67565b0361424e5760405162461bcd60e51b815260206004820152601f60248201527f45434453413a20696e76616c6964207369676e6174757265206c656e677468006044820152606401610c56565b600381600481111561426257614262614c67565b036115125760405162461bcd60e51b815260206004820152602260248201527f45434453413a20696e76616c6964207369676e6174757265202773272076616c604482015261756560f01b6064820152608401610c56565b6000806142c561390b565b8051909150156142dc578051602090910120919050565b60fb5480156142eb5792915050565b7fc5d2460186f7233c927e7db2dcc703c0e500b653ca82273b7bfad8045d85a4709250505090565b60008061431e61391a565b805190915015614335578051602090910120919050565b60fc5480156142eb5792915050565b61434d81613fc9565b6040516001600160a01b038216907fbc7cd75a20ee27fd9adebab32041f755214dbc6bffa90cc0225b39da2e5c2d3b90600090a250565b6060611f2a8383604051806060016040528060278152602001614c9a602791396060600080856001600160a01b0316856040516143c19190614c7d565b600060405180830381855af49150503d80600081146143fc576040519150601f19603f3d011682016040523d82523d6000602084013e614401565b606091505b50915091506144128683838761441c565b9695505050505050565b6060831561448b578251600003614484576001600160a01b0385163b6144845760405162461bcd60e51b815260206004820152601d60248201527f416464726573733a2063616c6c20746f206e6f6e2d636f6e74726163740000006044820152606401610c56565b5081613b67565b613b6783838151156144a05781518083602001fd5b8060405162461bcd60e51b8152600401610c56919061454b565b6001600160a01b038116811461151257600080fd5b600080604083850312156144e257600080fd5b82356144ed816144ba565b946020939093013593505050565b60005b838110156145165781810151838201526020016144fe565b50506000910152565b600081518084526145378160208601602086016144fb565b601f01601f19169290920160200192915050565b602081526000611f2a602083018461451f565b60006020828403121561457057600080fd5b5035919050565b634e487b7160e01b600052604160045260246000fd5b600067ffffffffffffffff808411156145a8576145a8614577565b604051601f8501601f19908116603f011681019082821181831017156145d0576145d0614577565b816040528093508581528686860111156145e957600080fd5b858560208301376000602087830101525050509392505050565b600082601f83011261461457600080fd5b611f2a8383356020850161458d565b801515811461151257600080fd5b60008060008060008060c0878903121561464a57600080fd5b863567ffffffffffffffff8082111561466257600080fd5b61466e8a838b01614603565b9750602089013591508082111561468457600080fd5b5061469189828a01614603565b95505060408701356146a2816144ba565b935060608701356146b2816144ba565b925060808701356146c281614623565b915060a08701356146d2816144ba565b809150509295509295509295565b6000806000606084860312156146f557600080fd5b8335614700816144ba565b92506020840135614710816144ba565b929592945050506040919091013590565b6000806040838503121561473457600080fd5b823561473f816144ba565b9150602083013561474f816144ba565b809150509250929050565b60006020828403121561476c57600080fd5b8135611f2a816144ba565b6000806040838503121561478a57600080fd5b8235614795816144ba565b9150602083013567ffffffffffffffff8111156147b157600080fd5b8301601f810185136147c257600080fd5b6147d18582356020840161458d565b9150509250929050565b803560ff81168114611f3a57600080fd5b60008060008060008060c0878903121561480557600080fd5b863595506020870135614817816144ba565b94506040870135935061482c606088016147db565b92506080870135915060a087013590509295509295509295565b6000806040838503121561485957600080fd5b82359150602083013561474f816144ba565b60ff60f81b881681526000602060e08184015261488b60e084018a61451f565b838103604085015261489d818a61451f565b606085018990526001600160a01b038816608086015260a0850187905284810360c0860152855180825283870192509083019060005b818110156148ef578351835292840192918401916001016148d3565b50909c9b505050505050505050505050565b60008060006060848603121561491657600080fd5b833592506020840135614928816144ba565b91506040840135614938816144ba565b809150509250925092565b600080600080600080600060e0888a03121561495e57600080fd5b8735614969816144ba565b96506020880135614979816144ba565b95506040880135945060608801359350614995608089016147db565b925060a0880135915060c0880135905092959891949750929550565b6000602082840312156149c357600080fd5b5051919050565b600181811c908216806149de57607f821691505b602082108103613b1257634e487b7160e01b600052602260045260246000fd5b600060208284031215614a1057600080fd5b8151611f2a816144ba565b600060208284031215614a2d57600080fd5b8151611f2a81614623565b600060808284031215614a4a57600080fd5b82601f830112614a5957600080fd5b6040516080810181811067ffffffffffffffff82111715614a7c57614a7c614577565b604052806080840185811115614a9157600080fd5b845b81811015614aab578051835260209283019201614a93565b509195945050505050565b634e487b7160e01b600052601160045260246000fd5b80820180821115610ba857610ba8614ab6565b81810381811115610ba857610ba8614ab6565b60008060408385031215614b0557600080fd5b505080516020909101519092909150565b6020808252602b908201527f496e697469616c697a61626c653a20636f6e7472616374206973206e6f74206960408201526a6e697469616c697a696e6760a81b606082015260800190565b601f821115610afd57600081815260208120601f850160051c81016020861015614b885750805b601f850160051c820191505b8181101561135d57828155600101614b94565b815167ffffffffffffffff811115614bc157614bc1614577565b614bd581614bcf84546149ca565b84614b61565b602080601f831160018114614c0a5760008415614bf25750858301515b600019600386901b1c1916600185901b17855561135d565b600085815260208120601f198616915b82811015614c3957888601518255948401946001909101908401614c1a565b5085821015614c575787850151600019600388901b60f8161c191681555b5050505050600190811b01905550565b634e487b7160e01b600052602160045260246000fd5b60008251614c8f8184602087016144fb565b919091019291505056fe416464726573733a206c6f772d6c6576656c2064656c65676174652063616c6c206661696c6564a264697066735822122004ca87dd5bfb73d77092f7ac6e14812e8dd3f2c1ac02577c8411edb154d6e45e64736f6c63430008110033",
  "linkReferences": {},
  "deployedLinkReferences": {}
}