{
  "_format": "hh-sol-artifact-1",
  "contractName": "SmartToken",
  "sourceName": "contracts/vaults/SmartToken.sol",
  "abi": [
    {
      "inputs": [],
      "stateMutability": "nonpayable",
      "type": "constructor"
    },
    {
      "inputs": [],
      "name": "BaseContract__DepositCircuitBreaker",
      "type": "error"
    },
    {
      "inputs": [],
      "name": "BaseContract__RebalanceCircuitBreaker",
      "type": "error"
    },
    {
      "inputs": [],
      "name": "BaseContract__SanctionedAddress",
      "type": "error"
    },
    {
      "inputs": [],
      "name": "BaseContract__TransferCircuitBreaker",
      "type": "error"
    },
    {
      "inputs": [],
      "name": "BaseContract__WithdrawCircuitBreaker",
      "type": "error"
    },
    {
      "inputs": [],
      "name": "SmartToken__DepositLimitHit",
      "type": "error"
    },
    {
      "inputs": [],
      "name": "SmartToken__DepositMoreThanMax",
      "type": "error"
    },
    {
      "inputs": [],
      "name": "SmartToken__InsufficientUnderlying",
      "type": "error"
    },
    {
      "inputs": [],
      "name": "SmartToken__MethodNotAllowed",
      "type": "error"
    },
    {
      "inputs": [],
      "name": "SmartToken__MintMoreThanMax",
      "type": "error"
    },
    {
      "inputs": [],
      "name": "SmartToken__NotTokenFactory",
      "type": "error"
    },
    {
      "inputs": [],
      "name": "SmartToken__OnlyAssetOwner",
      "type": "error"
    },
    {
      "inputs": [],
      "name": "SmartToken__RedeemMoreThanMax",
      "type": "error"
    },
    {
      "inputs": [],
      "name": "SmartToken__WithdrawLimitHit",
      "type": "error"
    },
    {
      "inputs": [],
      "name": "SmartToken__WithdrawMoreThanMax",
      "type": "error"
    },
    {
      "inputs": [],
      "name": "SmartToken__WithdrawNativeFailed",
      "type": "error"
    },
    {
      "inputs": [],
      "name": "SmartToken__ZeroDeposit",
      "type": "error"
    },
    {
      "anonymous": false,
      "inputs": [
        {
          "indexed": false,
          "internalType": "address",
          "name": "previousAdmin",
          "type": "address"
        },
        {
          "indexed": false,
          "internalType": "address",
          "name": "newAdmin",
          "type": "address"
        }
      ],
      "name": "AdminChanged",
      "type": "event"
    },
    {
      "anonymous": false,
      "inputs": [
        {
          "indexed": true,
          "internalType": "address",
          "name": "owner",
          "type": "address"
        },
        {
          "indexed": true,
          "internalType": "address",
          "name": "spender",
          "type": "address"
        },
        {
          "indexed": false,
          "internalType": "uint256",
          "name": "value",
          "type": "uint256"
        }
      ],
      "name": "Approval",
      "type": "event"
    },
    {
      "anonymous": false,
      "inputs": [
        {
          "indexed": true,
          "internalType": "address",
          "name": "beacon",
          "type": "address"
        }
      ],
      "name": "BeaconUpgraded",
      "type": "event"
    },
    {
      "anonymous": false,
      "inputs": [
        {
          "indexed": true,
          "internalType": "address",
          "name": "sender",
          "type": "address"
        },
        {
          "indexed": true,
          "internalType": "address",
          "name": "owner",
          "type": "address"
        },
        {
          "indexed": false,
          "internalType": "uint256",
          "name": "assets",
          "type": "uint256"
        },
        {
          "indexed": false,
          "internalType": "uint256",
          "name": "shares",
          "type": "uint256"
        }
      ],
      "name": "Deposit",
      "type": "event"
    },
    {
      "anonymous": false,
      "inputs": [],
      "name": "EIP712DomainChanged",
      "type": "event"
    },
    {
      "anonymous": false,
      "inputs": [
        {
          "indexed": false,
          "internalType": "uint8",
          "name": "version",
          "type": "uint8"
        }
      ],
      "name": "Initialized",
      "type": "event"
    },
    {
      "anonymous": false,
      "inputs": [
        {
          "indexed": true,
          "internalType": "address",
          "name": "previousOwner",
          "type": "address"
        },
        {
          "indexed": true,
          "internalType": "address",
          "name": "newOwner",
          "type": "address"
        }
      ],
      "name": "OwnershipTransferred",
      "type": "event"
    },
    {
      "anonymous": false,
      "inputs": [
        {
          "indexed": true,
          "internalType": "address",
          "name": "from",
          "type": "address"
        },
        {
          "indexed": true,
          "internalType": "address",
          "name": "to",
          "type": "address"
        },
        {
          "indexed": false,
          "internalType": "uint256",
          "name": "value",
          "type": "uint256"
        }
      ],
      "name": "Transfer",
      "type": "event"
    },
    {
      "anonymous": false,
      "inputs": [
        {
          "indexed": true,
          "internalType": "address",
          "name": "implementation",
          "type": "address"
        }
      ],
      "name": "Upgraded",
      "type": "event"
    },
    {
      "anonymous": false,
      "inputs": [
        {
          "indexed": true,
          "internalType": "address",
          "name": "sender",
          "type": "address"
        },
        {
          "indexed": true,
          "internalType": "address",
          "name": "receiver",
          "type": "address"
        },
        {
          "indexed": true,
          "internalType": "address",
          "name": "owner",
          "type": "address"
        },
        {
          "indexed": false,
          "internalType": "uint256",
          "name": "assets",
          "type": "uint256"
        },
        {
          "indexed": false,
          "internalType": "uint256",
          "name": "shares",
          "type": "uint256"
        }
      ],
      "name": "Withdraw",
      "type": "event"
    },
    {
      "inputs": [],
      "name": "DOMAIN_SEPARATOR",
      "outputs": [
        {
          "internalType": "bytes32",
          "name": "",
          "type": "bytes32"
        }
      ],
      "stateMutability": "view",
      "type": "function"
    },
    {
      "inputs": [
        {
          "internalType": "address",
          "name": "owner",
          "type": "address"
        },
        {
          "internalType": "address",
          "name": "spender",
          "type": "address"
        }
      ],
      "name": "allowance",
      "outputs": [
        {
          "internalType": "uint256",
          "name": "",
          "type": "uint256"
        }
      ],
      "stateMutability": "view",
      "type": "function"
    },
    {
      "inputs": [
        {
          "internalType": "address",
          "name": "spender",
          "type": "address"
        },
        {
          "internalType": "uint256",
          "name": "amount",
          "type": "uint256"
        }
      ],
      "name": "approve",
      "outputs": [
        {
          "internalType": "bool",
          "name": "",
          "type": "bool"
        }
      ],
      "stateMutability": "nonpayable",
      "type": "function"
    },
    {
      "inputs": [],
      "name": "asset",
      "outputs": [
        {
          "internalType": "address",
          "name": "",
          "type": "address"
        }
      ],
      "stateMutability": "view",
      "type": "function"
    },
    {
      "inputs": [
        {
          "internalType": "address",
          "name": "account",
          "type": "address"
        }
      ],
      "name": "balanceOf",
      "outputs": [
        {
          "internalType": "uint256",
          "name": "",
          "type": "uint256"
        }
      ],
      "stateMutability": "view",
      "type": "function"
    },
    {
      "inputs": [
        {
          "internalType": "address",
          "name": "account",
          "type": "address"
        },
        {
          "internalType": "uint256",
          "name": "amount",
          "type": "uint256"
        }
      ],
      "name": "burn",
      "outputs": [],
      "stateMutability": "nonpayable",
      "type": "function"
    },
    {
      "inputs": [
        {
          "internalType": "uint256",
          "name": "shares",
          "type": "uint256"
        }
      ],
      "name": "convertToAssets",
      "outputs": [
        {
          "internalType": "uint256",
          "name": "assets",
          "type": "uint256"
        }
      ],
      "stateMutability": "view",
      "type": "function"
    },
    {
      "inputs": [
        {
          "internalType": "uint256",
          "name": "assets",
          "type": "uint256"
        }
      ],
      "name": "convertToShares",
      "outputs": [
        {
          "internalType": "uint256",
          "name": "shares",
          "type": "uint256"
        }
      ],
      "stateMutability": "view",
      "type": "function"
    },
    {
      "inputs": [],
      "name": "decimals",
      "outputs": [
        {
          "internalType": "uint8",
          "name": "",
          "type": "uint8"
        }
      ],
      "stateMutability": "view",
      "type": "function"
    },
    {
      "inputs": [
        {
          "internalType": "address",
          "name": "spender",
          "type": "address"
        },
        {
          "internalType": "uint256",
          "name": "subtractedValue",
          "type": "uint256"
        }
      ],
      "name": "decreaseAllowance",
      "outputs": [
        {
          "internalType": "bool",
          "name": "",
          "type": "bool"
        }
      ],
      "stateMutability": "nonpayable",
      "type": "function"
    },
    {
      "inputs": [
        {
          "internalType": "uint256",
          "name": "assets",
          "type": "uint256"
        },
        {
          "internalType": "address",
          "name": "receiver",
          "type": "address"
        }
      ],
      "name": "deposit",
      "outputs": [
        {
          "internalType": "uint256",
          "name": "",
          "type": "uint256"
        }
      ],
      "stateMutability": "nonpayable",
      "type": "function"
    },
    {
      "inputs": [
        {
          "internalType": "address",
          "name": "receiver",
          "type": "address"
        }
      ],
      "name": "depositWithNative",
      "outputs": [
        {
          "internalType": "uint256",
          "name": "",
          "type": "uint256"
        }
      ],
      "stateMutability": "payable",
      "type": "function"
    },
    {
      "inputs": [
        {
          "internalType": "uint256",
          "name": "assets",
          "type": "uint256"
        },
        {
          "internalType": "address",
          "name": "receiver",
          "type": "address"
        },
        {
          "internalType": "uint256",
          "name": "deadline",
          "type": "uint256"
        },
        {
          "internalType": "uint8",
          "name": "v",
          "type": "uint8"
        },
        {
          "internalType": "bytes32",
          "name": "r",
          "type": "bytes32"
        },
        {
          "internalType": "bytes32",
          "name": "s",
          "type": "bytes32"
        }
      ],
      "name": "depositWithPermit",
      "outputs": [
        {
          "internalType": "uint256",
          "name": "",
          "type": "uint256"
        }
      ],
      "stateMutability": "nonpayable",
      "type": "function"
    },
    {
      "inputs": [
        {
          "internalType": "address",
          "name": "receiver",
          "type": "address"
        }
      ],
      "name": "drain",
      "outputs": [],
      "stateMutability": "nonpayable",
      "type": "function"
    },
    {
      "inputs": [],
      "name": "eip712Domain",
      "outputs": [
        {
          "internalType": "bytes1",
          "name": "fields",
          "type": "bytes1"
        },
        {
          "internalType": "string",
          "name": "name",
          "type": "string"
        },
        {
          "internalType": "string",
          "name": "version",
          "type": "string"
        },
        {
          "internalType": "uint256",
          "name": "chainId",
          "type": "uint256"
        },
        {
          "internalType": "address",
          "name": "verifyingContract",
          "type": "address"
        },
        {
          "internalType": "bytes32",
          "name": "salt",
          "type": "bytes32"
        },
        {
          "internalType": "uint256[]",
          "name": "extensions",
          "type": "uint256[]"
        }
      ],
      "stateMutability": "view",
      "type": "function"
    },
    {
      "inputs": [],
      "name": "getTokenFactory",
      "outputs": [
        {
          "internalType": "address",
          "name": "",
          "type": "address"
        }
      ],
      "stateMutability": "view",
      "type": "function"
    },
    {
      "inputs": [
        {
          "internalType": "address",
          "name": "sender",
          "type": "address"
        },
        {
          "internalType": "address",
          "name": "receiver",
          "type": "address"
        }
      ],
      "name": "handlePendingFF",
      "outputs": [],
      "stateMutability": "nonpayable",
      "type": "function"
    },
    {
      "inputs": [
        {
          "internalType": "address",
          "name": "sender",
          "type": "address"
        },
        {
          "internalType": "address",
          "name": "receiver",
          "type": "address"
        }
      ],
      "name": "handlePendingRebalance",
      "outputs": [],
      "stateMutability": "nonpayable",
      "type": "function"
    },
    {
      "inputs": [
        {
          "internalType": "address",
          "name": "account",
          "type": "address"
        }
      ],
      "name": "hasPendingFF",
      "outputs": [
        {
          "internalType": "bool",
          "name": "",
          "type": "bool"
        }
      ],
      "stateMutability": "view",
      "type": "function"
    },
    {
      "inputs": [
        {
          "internalType": "address",
          "name": "account",
          "type": "address"
        }
      ],
      "name": "hasPendingRebalance",
      "outputs": [
        {
          "internalType": "bool",
          "name": "",
          "type": "bool"
        }
      ],
      "stateMutability": "view",
      "type": "function"
    },
    {
      "inputs": [
        {
          "internalType": "address",
          "name": "spender",
          "type": "address"
        },
        {
          "internalType": "uint256",
          "name": "addedValue",
          "type": "uint256"
        }
      ],
      "name": "increaseAllowance",
      "outputs": [
        {
          "internalType": "bool",
          "name": "",
          "type": "bool"
        }
      ],
      "stateMutability": "nonpayable",
      "type": "function"
    },
    {
      "inputs": [
        {
          "internalType": "string",
          "name": "tokenName",
          "type": "string"
        },
        {
          "internalType": "string",
          "name": "tokenSymbol",
          "type": "string"
        },
        {
          "internalType": "address",
          "name": "factoryAddress",
          "type": "address"
        },
        {
          "internalType": "address",
          "name": "sanctionsContract_",
          "type": "address"
        },
        {
          "internalType": "bool",
          "name": "isX_",
          "type": "bool"
        },
        {
          "internalType": "address",
          "name": "owner_",
          "type": "address"
        }
      ],
      "name": "initialize",
      "outputs": [],
      "stateMutability": "nonpayable",
      "type": "function"
    },
    {
      "inputs": [],
      "name": "isDepositCircuitBreaker",
      "outputs": [
        {
          "internalType": "bool",
          "name": "",
          "type": "bool"
        }
      ],
      "stateMutability": "view",
      "type": "function"
    },
    {
      "inputs": [],
      "name": "isRebalanceCircuitBreaker",
      "outputs": [
        {
          "internalType": "bool",
          "name": "",
          "type": "bool"
        }
      ],
      "stateMutability": "view",
      "type": "function"
    },
    {
      "inputs": [],
      "name": "isTransferCircuitBreaker",
      "outputs": [
        {
          "internalType": "bool",
          "name": "",
          "type": "bool"
        }
      ],
      "stateMutability": "view",
      "type": "function"
    },
    {
      "inputs": [],
      "name": "isWithdrawCircuitBreaker",
      "outputs": [
        {
          "internalType": "bool",
          "name": "",
          "type": "bool"
        }
      ],
      "stateMutability": "view",
      "type": "function"
    },
    {
      "inputs": [
        {
          "internalType": "address",
          "name": "account",
          "type": "address"
        }
      ],
      "name": "maxDeposit",
      "outputs": [
        {
          "internalType": "uint256",
          "name": "",
          "type": "uint256"
        }
      ],
      "stateMutability": "view",
      "type": "function"
    },
    {
      "inputs": [
        {
          "internalType": "address",
          "name": "account",
          "type": "address"
        }
      ],
      "name": "maxMint",
      "outputs": [
        {
          "internalType": "uint256",
          "name": "",
          "type": "uint256"
        }
      ],
      "stateMutability": "view",
      "type": "function"
    },
    {
      "inputs": [
        {
          "internalType": "address",
          "name": "owner_",
          "type": "address"
        }
      ],
      "name": "maxRedeem",
      "outputs": [
        {
          "internalType": "uint256",
          "name": "",
          "type": "uint256"
        }
      ],
      "stateMutability": "view",
      "type": "function"
    },
    {
      "inputs": [
        {
          "internalType": "address",
          "name": "owner_",
          "type": "address"
        }
      ],
      "name": "maxWithdraw",
      "outputs": [
        {
          "internalType": "uint256",
          "name": "",
          "type": "uint256"
        }
      ],
      "stateMutability": "view",
      "type": "function"
    },
    {
      "inputs": [
        {
          "internalType": "uint256",
          "name": "shares",
          "type": "uint256"
        },
        {
          "internalType": "address",
          "name": "receiver",
          "type": "address"
        }
      ],
      "name": "mint",
      "outputs": [
        {
          "internalType": "uint256",
          "name": "",
          "type": "uint256"
        }
      ],
      "stateMutability": "nonpayable",
      "type": "function"
    },
    {
      "inputs": [
        {
          "internalType": "address",
          "name": "receiver",
          "type": "address"
        },
        {
          "internalType": "uint256",
          "name": "amount",
          "type": "uint256"
        }
      ],
      "name": "mintAsset",
      "outputs": [],
      "stateMutability": "nonpayable",
      "type": "function"
    },
    {
      "inputs": [],
      "name": "name",
      "outputs": [
        {
          "internalType": "string",
          "name": "",
          "type": "string"
        }
      ],
      "stateMutability": "view",
      "type": "function"
    },
    {
      "inputs": [
        {
          "internalType": "address",
          "name": "owner",
          "type": "address"
        }
      ],
      "name": "nonces",
      "outputs": [
        {
          "internalType": "uint256",
          "name": "",
          "type": "uint256"
        }
      ],
      "stateMutability": "view",
      "type": "function"
    },
    {
      "inputs": [],
      "name": "owner",
      "outputs": [
        {
          "internalType": "address",
          "name": "",
          "type": "address"
        }
      ],
      "stateMutability": "view",
      "type": "function"
    },
    {
      "inputs": [
        {
          "internalType": "address",
          "name": "owner",
          "type": "address"
        },
        {
          "internalType": "address",
          "name": "spender",
          "type": "address"
        },
        {
          "internalType": "uint256",
          "name": "value",
          "type": "uint256"
        },
        {
          "internalType": "uint256",
          "name": "deadline",
          "type": "uint256"
        },
        {
          "internalType": "uint8",
          "name": "v",
          "type": "uint8"
        },
        {
          "internalType": "bytes32",
          "name": "r",
          "type": "bytes32"
        },
        {
          "internalType": "bytes32",
          "name": "s",
          "type": "bytes32"
        }
      ],
      "name": "permit",
      "outputs": [],
      "stateMutability": "nonpayable",
      "type": "function"
    },
    {
      "inputs": [
        {
          "internalType": "uint256",
          "name": "assets",
          "type": "uint256"
        }
      ],
      "name": "previewDeposit",
      "outputs": [
        {
          "internalType": "uint256",
          "name": "",
          "type": "uint256"
        }
      ],
      "stateMutability": "view",
      "type": "function"
    },
    {
      "inputs": [
        {
          "internalType": "uint256",
          "name": "shares",
          "type": "uint256"
        }
      ],
      "name": "previewMint",
      "outputs": [
        {
          "internalType": "uint256",
          "name": "",
          "type": "uint256"
        }
      ],
      "stateMutability": "view",
      "type": "function"
    },
    {
      "inputs": [
        {
          "internalType": "uint256",
          "name": "shares",
          "type": "uint256"
        }
      ],
      "name": "previewRedeem",
      "outputs": [
        {
          "internalType": "uint256",
          "name": "",
          "type": "uint256"
        }
      ],
      "stateMutability": "view",
      "type": "function"
    },
    {
      "inputs": [
        {
          "internalType": "uint256",
          "name": "assets",
          "type": "uint256"
        }
      ],
      "name": "previewWithdraw",
      "outputs": [
        {
          "internalType": "uint256",
          "name": "",
          "type": "uint256"
        }
      ],
      "stateMutability": "view",
      "type": "function"
    },
    {
      "inputs": [],
      "name": "proxiableUUID",
      "outputs": [
        {
          "internalType": "bytes32",
          "name": "",
          "type": "bytes32"
        }
      ],
      "stateMutability": "view",
      "type": "function"
    },
    {
      "inputs": [
        {
          "internalType": "uint256",
          "name": "shares",
          "type": "uint256"
        },
        {
          "internalType": "address",
          "name": "receiver",
          "type": "address"
        },
        {
          "internalType": "address",
          "name": "owner_",
          "type": "address"
        }
      ],
      "name": "redeem",
      "outputs": [
        {
          "internalType": "uint256",
          "name": "",
          "type": "uint256"
        }
      ],
      "stateMutability": "nonpayable",
      "type": "function"
    },
    {
      "inputs": [],
      "name": "renounceOwnership",
      "outputs": [],
      "stateMutability": "nonpayable",
      "type": "function"
    },
    {
      "inputs": [],
      "name": "resumeAllCircuitBreakers",
      "outputs": [],
      "stateMutability": "nonpayable",
      "type": "function"
    },
    {
      "inputs": [
        {
          "internalType": "address",
          "name": "account",
          "type": "address"
        },
        {
          "internalType": "uint256",
          "name": "amount",
          "type": "uint256"
        }
      ],
      "name": "smartBalanceAdjust",
      "outputs": [],
      "stateMutability": "nonpayable",
      "type": "function"
    },
    {
      "inputs": [
        {
          "internalType": "address",
          "name": "treasuryAddress",
          "type": "address"
        },
        {
          "internalType": "uint256",
          "name": "amount",
          "type": "uint256"
        }
      ],
      "name": "smartTreasuryTransfer",
      "outputs": [],
      "stateMutability": "nonpayable",
      "type": "function"
    },
    {
      "inputs": [],
      "name": "stopAllCircuitBreakers",
      "outputs": [],
      "stateMutability": "nonpayable",
      "type": "function"
    },
    {
      "inputs": [],
      "name": "symbol",
      "outputs": [
        {
          "internalType": "string",
          "name": "",
          "type": "string"
        }
      ],
      "stateMutability": "view",
      "type": "function"
    },
    {
      "inputs": [],
      "name": "toggleDepositCircuitBreaker",
      "outputs": [],
      "stateMutability": "nonpayable",
      "type": "function"
    },
    {
      "inputs": [],
      "name": "toggleRebalanceCircuitBreaker",
      "outputs": [],
      "stateMutability": "nonpayable",
      "type": "function"
    },
    {
      "inputs": [],
      "name": "toggleTransferCircuitBreaker",
      "outputs": [],
      "stateMutability": "nonpayable",
      "type": "function"
    },
    {
      "inputs": [],
      "name": "toggleWithdrawCircuitBreaker",
      "outputs": [],
      "stateMutability": "nonpayable",
      "type": "function"
    },
    {
      "inputs": [],
      "name": "totalAssets",
      "outputs": [
        {
          "internalType": "uint256",
          "name": "",
          "type": "uint256"
        }
      ],
      "stateMutability": "view",
      "type": "function"
    },
    {
      "inputs": [],
      "name": "totalSupply",
      "outputs": [
        {
          "internalType": "uint256",
          "name": "",
          "type": "uint256"
        }
      ],
      "stateMutability": "view",
      "type": "function"
    },
    {
      "inputs": [
        {
          "internalType": "address",
          "name": "recipient",
          "type": "address"
        },
        {
          "internalType": "uint256",
          "name": "amount",
          "type": "uint256"
        }
      ],
      "name": "transfer",
      "outputs": [
        {
          "internalType": "bool",
          "name": "",
          "type": "bool"
        }
      ],
      "stateMutability": "nonpayable",
      "type": "function"
    },
    {
      "inputs": [
        {
          "internalType": "address",
          "name": "sender",
          "type": "address"
        },
        {
          "internalType": "address",
          "name": "recipient",
          "type": "address"
        },
        {
          "internalType": "uint256",
          "name": "amount",
          "type": "uint256"
        }
      ],
      "name": "transferFrom",
      "outputs": [
        {
          "internalType": "bool",
          "name": "",
          "type": "bool"
        }
      ],
      "stateMutability": "nonpayable",
      "type": "function"
    },
    {
      "inputs": [
        {
          "internalType": "address",
          "name": "newOwner",
          "type": "address"
        }
      ],
      "name": "transferOwnership",
      "outputs": [],
      "stateMutability": "nonpayable",
      "type": "function"
    },
    {
      "inputs": [
        {
          "internalType": "address",
          "name": "account",
          "type": "address"
        }
      ],
      "name": "unScaledbalanceOf",
      "outputs": [
        {
          "internalType": "uint256",
          "name": "",
          "type": "uint256"
        }
      ],
      "stateMutability": "view",
      "type": "function"
    },
    {
      "inputs": [
        {
          "internalType": "address",
          "name": "newImplementation",
          "type": "address"
        }
      ],
      "name": "upgradeTo",
      "outputs": [],
      "stateMutability": "nonpayable",
      "type": "function"
    },
    {
      "inputs": [
        {
          "internalType": "address",
          "name": "newImplementation",
          "type": "address"
        },
        {
          "internalType": "bytes",
          "name": "data",
          "type": "bytes"
        }
      ],
      "name": "upgradeToAndCall",
      "outputs": [],
      "stateMutability": "payable",
      "type": "function"
    },
    {
      "inputs": [
        {
          "internalType": "uint256",
          "name": "assets",
          "type": "uint256"
        },
        {
          "internalType": "address",
          "name": "receiver",
          "type": "address"
        },
        {
          "internalType": "address",
          "name": "owner_",
          "type": "address"
        }
      ],
      "name": "withdraw",
      "outputs": [
        {
          "internalType": "uint256",
          "name": "",
          "type": "uint256"
        }
      ],
      "stateMutability": "nonpayable",
      "type": "function"
    },
    {
      "stateMutability": "payable",
      "type": "receive"
    }
  ],
  "bytecode": "0x60a0604052306080523480156200001557600080fd5b506200002062000030565b6200002a62000030565b620000f1565b600054610100900460ff16156200009d5760405162461bcd60e51b815260206004820152602760248201527f496e697469616c697a61626c653a20636f6e747261637420697320696e697469604482015266616c697a696e6760c81b606482015260840160405180910390fd5b60005460ff90811614620000ef576000805460ff191660ff9081179091556040519081527f7f26b83ff96e1f2b6a682f133852f6798a09c465da95921460cefb38474024989060200160405180910390a15b565b6080516153666200012960003960008181611942015281816119c701528181611b7801528181611bfd01526120c801526153666000f3fe6080604052600436106103a65760003560e01c8063715018a6116101e7578063b460af941161010d578063d905777e116100a0578063ef8b30f71161006f578063ef8b30f7146104cb578063f077fd3c14610a6b578063f2fde38b14610a8b578063fd6064b314610aab57600080fd5b8063d905777e14610986578063dd62ed3e146109f0578063e581273114610a36578063ece5313214610a4b57600080fd5b8063ce96cb77116100dc578063ce96cb7714610986578063d505accf146109a6578063d69f62e0146109c6578063d78f0921146109db57600080fd5b8063b460af9414610946578063ba08765214610966578063c63d75b61461069a578063c6e6f592146104cb57600080fd5b8063925d6ba211610185578063a457c2d711610154578063a457c2d7146108e6578063a9059cbb14610906578063b1dbfcee14610926578063b3d7f6b9146104cb57600080fd5b8063925d6ba21461087257806394bf804d1461089157806395d89b41146108b15780639dc29fac146108c657600080fd5b806385f2eac0116101c157806385f2eac0146107f45780638da5cb5b146108145780638f4cef0c146108325780638f50bd131461085257600080fd5b8063715018a6146107975780637ecebe00146107ac57806384b0196e146107cc57600080fd5b8063313ce567116102cc5780634f1ef2861161026a5780635f758bef116102395780635f758bef146107225780636a300529146107425780636e553f651461075757806370a082311461077757600080fd5b80634f1ef286146106ba57806350163974146106cd57806350921b23146106ed57806352d1902d1461070d57600080fd5b806338d52e0f116102a657806338d52e0f14610647578063395093511461067a578063402d267d1461069a5780634cdad506146104cb57600080fd5b8063313ce567146105f65780633644e515146106125780633659cfe61461062757600080fd5b806312cfca381161034457806323b872dd1161031357806323b872dd14610581578063275f0ddd146105a157806327a44ed0146105c157806330928009146105e157600080fd5b806312cfca381461051957806316b535f41461053957806318160ddd1461055957806318c23d501461056e57600080fd5b806306fdde031161038057806306fdde03146104a957806307a2d13a146104cb578063095ea7b3146104e95780630a28a477146104cb57600080fd5b806301e1d1141461044c578063030d4ed71461047457806305bfee331461048957600080fd5b366104475761019560009054906101000a90046001600160a01b03166001600160a01b03166384b584396040518163ffffffff1660e01b8152600401602060405180830381865afa1580156103ff573d6000803e3d6000fd5b505050506040513d601f19601f820116820180604052508101906104239190614b38565b151560000361044557604051632787395560e11b815260040160405180910390fd5b005b600080fd5b34801561045857600080fd5b50610461610acb565b6040519081526020015b60405180910390f35b34801561048057600080fd5b50610445610b47565b34801561049557600080fd5b506104456104a4366004614b6a565b610b62565b3480156104b557600080fd5b506104be610bee565b60405161046b9190614be6565b3480156104d757600080fd5b506104616104e6366004614bf9565b90565b3480156104f557600080fd5b50610509610504366004614b6a565b610c80565b604051901515815260200161046b565b34801561052557600080fd5b50610445610534366004614cbe565b610c9a565b34801561054557600080fd5b50610445610554366004614b6a565b610f59565b34801561056557600080fd5b5060cb54610461565b61046161057c366004614d6d565b610fe8565b34801561058d57600080fd5b5061050961059c366004614d8a565b6113ec565b3480156105ad57600080fd5b506104456105bc366004614dcb565b6117c1565b3480156105cd57600080fd5b5061016254600160b81b900460ff16610509565b3480156105ed57600080fd5b50610445611904565b34801561060257600080fd5b506040516012815260200161046b565b34801561061e57600080fd5b5061046161192e565b34801561063357600080fd5b50610445610642366004614d6d565b611938565b34801561065357600080fd5b50610196546001600160a01b03165b6040516001600160a01b03909116815260200161046b565b34801561068657600080fd5b50610509610695366004614b6a565b611ab3565b3480156106a657600080fd5b506104616106b5366004614d6d565b611af2565b6104456106c8366004614e04565b611b6e565b3480156106d957600080fd5b506105096106e8366004614d6d565b611cd6565b3480156106f957600080fd5b50610461610708366004614e79565b611dbd565b34801561071957600080fd5b506104616120bb565b34801561072e57600080fd5b5061044561073d366004614b6a565b612180565b34801561074e57600080fd5b50610445612192565b34801561076357600080fd5b50610461610772366004614ed3565b6121bc565b34801561078357600080fd5b50610461610792366004614d6d565b612418565b3480156107a357600080fd5b506104456124d8565b3480156107b857600080fd5b506104616107c7366004614d6d565b6124ec565b3480156107d857600080fd5b506107e161250b565b60405161046b9796959493929190614ef8565b34801561080057600080fd5b5061016254600160b01b900460ff16610509565b34801561082057600080fd5b506097546001600160a01b0316610662565b34801561083e57600080fd5b5061046161084d366004614d6d565b6125b1565b34801561085e57600080fd5b5061050961086d366004614d6d565b6125cf565b34801561087e57600080fd5b50610195546001600160a01b0316610662565b34801561089d57600080fd5b506104616108ac366004614ed3565b612671565b3480156108bd57600080fd5b506104be6128e8565b3480156108d257600080fd5b506104456108e1366004614b6a565b6128f7565b3480156108f257600080fd5b50610509610901366004614b6a565b612909565b34801561091257600080fd5b50610509610921366004614b6a565b6129a6565b34801561093257600080fd5b5061016254600160a81b900460ff16610509565b34801561095257600080fd5b50610461610961366004614f8e565b612d62565b34801561097257600080fd5b50610461610981366004614f8e565b61313b565b34801561099257600080fd5b506104616109a1366004614d6d565b6134cf565b3480156109b257600080fd5b506104456109c1366004614fd0565b61353f565b3480156109d257600080fd5b506104456136a3565b3480156109e757600080fd5b506104456136c7565b3480156109fc57600080fd5b50610461610a0b366004614dcb565b6001600160a01b03918216600090815260ca6020908152604080832093909416825291909152205490565b348015610a4257600080fd5b506104456136f1565b348015610a5757600080fd5b50610445610a66366004614d6d565b61371b565b348015610a7757600080fd5b50610445610a86366004614dcb565b6137f2565b348015610a9757600080fd5b50610445610aa6366004614d6d565b613902565b348015610ab757600080fd5b5061016254600160a01b900460ff16610509565b61019654610195546040516370a0823160e01b81526001600160a01b03918216600482015260009291909116906370a0823190602401602060405180830381865afa158015610b1e573d6000803e3d6000fd5b505050506040513d601f19601f82011682018060405250810190610b42919061503e565b905090565b610b4f613978565b610162805463ffffffff60a01b19169055565b610b6a6139d2565b61019554610196546040516368939ecf60e11b8152600160a01b90910460ff1615156004820152602481018390526001600160a01b039091169063d1273d9e90604401600060405180830381600087803b158015610bc757600080fd5b505af1158015610bdb573d6000803e3d6000fd5b50505050610be98282613a07565b505050565b606060cc8054610bfd90615057565b80601f0160208091040260200160405190810160405280929190818152602001828054610c2990615057565b8015610c765780601f10610c4b57610100808354040283529160200191610c76565b820191906000526020600020905b815481529060010190602001808311610c5957829003601f168201915b5050505050905090565b600033610c8e818585613a1c565b60019150505b92915050565b600054610100900460ff1615808015610cba5750600054600160ff909116105b80610cd45750303b158015610cd4575060005460ff166001145b610d4b5760405162461bcd60e51b815260206004820152602e60248201527f496e697469616c697a61626c653a20636f6e747261637420697320616c72656160448201527f647920696e697469616c697a656400000000000000000000000000000000000060648201526084015b60405180910390fd5b6000805460ff191660011790558015610d6e576000805461ff0019166101001790555b610d788787613b40565b610d8187613b71565b610d8a84613bbb565b610d92613c05565b610d9b82613902565b610da3613c34565b61019580546001600160a01b0319166001600160a01b03871690811790915560408051634c566bd360e11b815290516398acd7a6916004808201926020929091908290030181865afa158015610dfd573d6000803e3d6000fd5b505050506040513d601f19601f82011682018060405250810190610e21919061508b565b6101968054851515600160a01b0274ffffffffffffffffffffffffffffffffffffffffff199091166001600160a01b039384161717905561019554604080516384b5843960e01b8152905191909216916384b584399160048083019260209291908290030181865afa158015610e9b573d6000803e3d6000fd5b505050506040513d601f19601f82011682018060405250810190610ebf9190614b38565b610196805460ff60a81b1916600160a81b9215158302179081905560ff9190041615610f0a576101965461019780546001600160a01b0319166001600160a01b039092169190911790555b8015610f50576000805461ff0019169055604051600181527f7f26b83ff96e1f2b6a682f133852f6798a09c465da95921460cefb38474024989060200160405180910390a15b50505050505050565b610f616139d2565b610195546101965460405163566f4d9560e11b8152600160a01b90910460ff16151560048201526001600160a01b038481166024830152604482018490529091169063acde9b2a90606401600060405180830381600087803b158015610fc657600080fd5b505af1158015610fda573d6000803e3d6000fd5b50505050610be98282613c5b565b6000610ff2613c67565b61016254600160a01b900460ff161561101e57604051636822eceb60e11b815260040160405180910390fd5b61019560009054906101000a90046001600160a01b03166001600160a01b0316629c185f6040518163ffffffff1660e01b8152600401602060405180830381865afa158015611071573d6000803e3d6000fd5b505050506040513d601f19601f820116820180604052508101906110959190614b38565b156110b3576040516321e3430160e21b815260040160405180910390fd5b61019560009054906101000a90046001600160a01b03166001600160a01b031663533ae1296040518163ffffffff1660e01b8152600401600060405180830381600087803b15801561110457600080fd5b505af1158015611118573d6000803e3d6000fd5b505061019554604051634eacc0fd60e01b8152346004820181905293506001600160a01b039091169150634eacc0fd906024016020604051808303816000875af115801561116a573d6000803e3d6000fd5b505050506040513d601f19601f8201168201806040525081019061118e9190614b38565b156111ac5760405163b04c001160e01b815260040160405180910390fd5b34836111b88282613cc2565b61019560009054906101000a90046001600160a01b03166001600160a01b03166384b584396040518163ffffffff1660e01b8152600401602060405180830381865afa15801561120c573d6000803e3d6000fd5b505050506040513d601f19601f820116820180604052508101906112309190614b38565b151560000361125257604051632787395560e11b815260040160405180910390fd5b34600003611273576040516303e3e43960e51b815260040160405180910390fd5b61019760009054906101000a90046001600160a01b03166001600160a01b031663d0e30db0346040518263ffffffff1660e01b81526004016000604051808303818588803b1580156112c457600080fd5b505af11580156112d8573d6000803e3d6000fd5b505050505060006112e63490565b610197546101955460405163095ea7b360e01b81526001600160a01b039182166004820152346024820152929350169063095ea7b3906044016020604051808303816000875af115801561133e573d6000803e3d6000fd5b505050506040513d601f19601f820116820180604052508101906113629190614b38565b506101955460405163c14cfe0960e01b81523060048201526001600160a01b038881166024830152346044830152606482018490529091169063c14cfe0990608401600060405180830381600087803b1580156113be57600080fd5b505af11580156113d2573d6000803e3d6000fd5b509296505050505050506113e7600161016355565b919050565b61016254600090600160b01b900460ff161561141b57604051630c98e6a160e31b815260040160405180910390fd5b61019560009054906101000a90046001600160a01b03166001600160a01b0316629c185f6040518163ffffffff1660e01b8152600401602060405180830381865afa15801561146e573d6000803e3d6000fd5b505050506040513d601f19601f820116820180604052508101906114929190614b38565b156114b0576040516321e3430160e21b815260040160405180910390fd5b61019560009054906101000a90046001600160a01b03166001600160a01b031663533ae1296040518163ffffffff1660e01b8152600401600060405180830381600087803b15801561150157600080fd5b505af1158015611515573d6000803e3d6000fd5b50506101625460405163df592f7d60e01b81526001600160a01b0380881660048301528794509091169150600090829063df592f7d90602401602060405180830381865afa15801561156b573d6000803e3d6000fd5b505050506040513d601f19601f8201168201806040525081019061158f9190614b38565b905080156115b05760405163108a7eb160e21b815260040160405180910390fd5b6101625460405163df592f7d60e01b81526001600160a01b03808a16600483015289921690600090829063df592f7d90602401602060405180830381865afa158015611600573d6000803e3d6000fd5b505050506040513d601f19601f820116820180604052508101906116249190614b38565b905080156116455760405163108a7eb160e21b815260040160405180910390fd5b61164f8a8a6117c1565b6116598a8a6137f2565b61019554604051633524f9e360e21b81526001600160a01b038c811660048301528b81166024830152600092169063d493e78c90604401608060405180830381865afa1580156116ad573d6000803e3d6000fd5b505050506040513d601f19601f820116820180604052508101906116d191906150a8565b905060006116e08c8c8c613d0c565b61019554610196549192506001600160a01b03169063eec0d656908e908e90600160a01b900460ff168e8760006020020151886001602002015189600260200201518a600360200201516040516001600160e01b031960e08b901b1681526001600160a01b03988916600482015297909616602488015293151560448701526064860192909252608485015260a484015260c483015260e482015261010401600060405180830381600087803b15801561179957600080fd5b505af11580156117ad573d6000803e3d6000fd5b50929e9d5050505050505050505050505050565b6117ca82611cd6565b1561183057610195546040516310e7089f60e11b81526001600160a01b038481166004830152909116906321ce113e90602401600060405180830381600087803b15801561181757600080fd5b505af115801561182b573d6000803e3d6000fd5b505050505b61019554604051631605ed3160e31b81526001600160a01b0383811660048301529091169063b02f698890602401600060405180830381600087803b15801561187857600080fd5b505af115801561188c573d6000803e3d6000fd5b5050505061189981611cd6565b1561190057610195546040516310e7089f60e11b81526001600160a01b038381166004830152909116906321ce113e906024015b600060405180830381600087803b1580156118e757600080fd5b505af11580156118fb573d6000803e3d6000fd5b505050505b5050565b61190c613978565b610162805460ff60b81b198116600160b81b9182900460ff1615909102179055565b6000610b42613d25565b6001600160a01b037f00000000000000000000000000000000000000000000000000000000000000001630036119c55760405162461bcd60e51b815260206004820152602c60248201527f46756e6374696f6e206d7573742062652063616c6c6564207468726f7567682060448201526b19195b1959d85d1958d85b1b60a21b6064820152608401610d42565b7f00000000000000000000000000000000000000000000000000000000000000006001600160a01b0316611a207f360894a13ba1a3210667c828492db98dca3e2076cc3735a920a3ca505d382bbc546001600160a01b031690565b6001600160a01b031614611a8b5760405162461bcd60e51b815260206004820152602c60248201527f46756e6374696f6e206d7573742062652063616c6c6564207468726f7567682060448201526b6163746976652070726f787960a01b6064820152608401610d42565b611a9481613d2f565b60408051600080825260208201909252611ab091839190613d37565b50565b33600081815260ca602090815260408083206001600160a01b0387168452909152812054909190610c8e9082908690611aed90879061513c565b613a1c565b6101955460405163728bf73360e01b81526001600160a01b038381166004830152600092169063728bf73390602401602060405180830381865afa158015611b3e573d6000803e3d6000fd5b505050506040513d601f19601f82011682018060405250810190611b62919061503e565b610c949060001961514f565b6001600160a01b037f0000000000000000000000000000000000000000000000000000000000000000163003611bfb5760405162461bcd60e51b815260206004820152602c60248201527f46756e6374696f6e206d7573742062652063616c6c6564207468726f7567682060448201526b19195b1959d85d1958d85b1b60a21b6064820152608401610d42565b7f00000000000000000000000000000000000000000000000000000000000000006001600160a01b0316611c567f360894a13ba1a3210667c828492db98dca3e2076cc3735a920a3ca505d382bbc546001600160a01b031690565b6001600160a01b031614611cc15760405162461bcd60e51b815260206004820152602c60248201527f46756e6374696f6e206d7573742062652063616c6c6564207468726f7567682060448201526b6163746976652070726f787960a01b6064820152608401610d42565b611cca82613d2f565b61190082826001613d37565b6101955460408051638df4541b60e01b815290516000926001600160a01b031691638df4541b9160048083019260209291908290030181865afa158015611d21573d6000803e3d6000fd5b505050506040513d601f19601f82011682018060405250810190611d45919061503e565b6101955460405163a129c84760e01b81526001600160a01b0385811660048301529091169063a129c847906024015b602060405180830381865afa158015611d91573d6000803e3d6000fd5b505050506040513d601f19601f82011682018060405250810190611db5919061503e565b141592915050565b61016254600090600160a01b900460ff1615611dec57604051636822eceb60e11b815260040160405180910390fd5b61019560009054906101000a90046001600160a01b03166001600160a01b0316629c185f6040518163ffffffff1660e01b8152600401602060405180830381865afa158015611e3f573d6000803e3d6000fd5b505050506040513d601f19601f82011682018060405250810190611e639190614b38565b15611e81576040516321e3430160e21b815260040160405180910390fd5b61019560009054906101000a90046001600160a01b03166001600160a01b031663533ae1296040518163ffffffff1660e01b8152600401600060405180830381600087803b158015611ed257600080fd5b505af1158015611ee6573d6000803e3d6000fd5b505061019554604051634eacc0fd60e01b8152600481018b90528a93506001600160a01b039091169150634eacc0fd906024016020604051808303816000875af1158015611f38573d6000803e3d6000fd5b505050506040513d601f19601f82011682018060405250810190611f5c9190614b38565b15611f7a5760405163b04c001160e01b815260040160405180910390fd5b8787611f868282613cc2565b60008a610196549091506001600160a01b031663d505accf336101955460405160e084901b6001600160e01b03191681526001600160a01b0392831660048201529116602482015260448101849052606481018c905260ff8b16608482015260a481018a905260c4810189905260e401600060405180830381600087803b15801561201057600080fd5b505af1158015612024573d6000803e3d6000fd5b5050610195546001600160a01b0316915063c14cfe099050336040516001600160e01b031960e084901b1681526001600160a01b039182166004820152908d166024820152604481018e905260648101849052608401600060405180830381600087803b15801561209457600080fd5b505af11580156120a8573d6000803e3d6000fd5b50929d9c50505050505050505050505050565b6000306001600160a01b037f0000000000000000000000000000000000000000000000000000000000000000161461215b5760405162461bcd60e51b815260206004820152603860248201527f555550535570677261646561626c653a206d757374206e6f742062652063616c60448201527f6c6564207468726f7567682064656c656761746563616c6c00000000000000006064820152608401610d42565b507f360894a13ba1a3210667c828492db98dca3e2076cc3735a920a3ca505d382bbc90565b6121886139d2565b6119008282613ec3565b61219a613978565b610162805460ff60b01b198116600160b01b9182900460ff1615909102179055565b61016254600090600160a01b900460ff16156121eb57604051636822eceb60e11b815260040160405180910390fd5b61019560009054906101000a90046001600160a01b03166001600160a01b0316629c185f6040518163ffffffff1660e01b8152600401602060405180830381865afa15801561223e573d6000803e3d6000fd5b505050506040513d601f19601f820116820180604052508101906122629190614b38565b15612280576040516321e3430160e21b815260040160405180910390fd5b61019560009054906101000a90046001600160a01b03166001600160a01b031663533ae1296040518163ffffffff1660e01b8152600401600060405180830381600087803b1580156122d157600080fd5b505af11580156122e5573d6000803e3d6000fd5b505061019554604051634eacc0fd60e01b8152600481018790528693506001600160a01b039091169150634eacc0fd906024016020604051808303816000875af1158015612337573d6000803e3d6000fd5b505050506040513d601f19601f8201168201806040525081019061235b9190614b38565b156123795760405163b04c001160e01b815260040160405180910390fd5b83836123858282613cc2565b600086610195549091506001600160a01b031663c14cfe09336040516001600160e01b031960e084901b1681526001600160a01b0391821660048201529089166024820152604481018a905260648101849052608401600060405180830381600087803b1580156123f557600080fd5b505af1158015612409573d6000803e3d6000fd5b50929998505050505050505050565b6000612423826125cf565b80612432575061243282611cd6565b156124cf576101955460405163a4d96e1760e01b81526001600160a01b038481166004830152600092839291169063a4d96e17906024016040805180830381865afa158015612485573d6000803e3d6000fd5b505050506040513d601f19601f820116820180604052508101906124a99190615162565b610196549193509150600160a01b900460ff16156124c8575092915050565b9392505050565b610c94826125b1565b6124e0613978565b6124ea6000613f84565b565b6001600160a01b038116600090815261012f6020526040812054610c94565b60006060806000806000606060fb546000801b14801561252b575060fc54155b6125775760405162461bcd60e51b815260206004820152601560248201527f4549503731323a20556e696e697469616c697a656400000000000000000000006044820152606401610d42565b61257f613fd6565b612587613fe5565b60408051600080825260208201909252600f60f81b9b939a50919850469750309650945092509050565b6001600160a01b038116600090815260c96020526040812054610c94565b6101955460408051636ee545fd60e11b815290516000926001600160a01b03169163ddca8bfa9160048083019260209291908290030181865afa15801561261a573d6000803e3d6000fd5b505050506040513d601f19601f8201168201806040525081019061263e919061503e565b610195546040516325ad47ab60e21b81526001600160a01b038581166004830152909116906396b51eac90602401611d74565b61016254600090600160a01b900460ff16156126a057604051636822eceb60e11b815260040160405180910390fd5b61019560009054906101000a90046001600160a01b03166001600160a01b0316629c185f6040518163ffffffff1660e01b8152600401602060405180830381865afa1580156126f3573d6000803e3d6000fd5b505050506040513d601f19601f820116820180604052508101906127179190614b38565b15612735576040516321e3430160e21b815260040160405180910390fd5b61019560009054906101000a90046001600160a01b03166001600160a01b031663533ae1296040518163ffffffff1660e01b8152600401600060405180830381600087803b15801561278657600080fd5b505af115801561279a573d6000803e3d6000fd5b505061019554604051634eacc0fd60e01b8152600481018790528693506001600160a01b039091169150634eacc0fd906024016020604051808303816000875af11580156127ec573d6000803e3d6000fd5b505050506040513d601f19601f820116820180604052508101906128109190614b38565b1561282e5760405163b04c001160e01b815260040160405180910390fd5b61283783611af2565b8411156128575760405163292b120160e01b815260040160405180910390fd5b600084610195549091506001600160a01b031663c14cfe09336040516001600160e01b031960e084901b1681526001600160a01b03918216600482015290871660248201526044810184905260648101889052608401600060405180830381600087803b1580156128c757600080fd5b505af11580156128db573d6000803e3d6000fd5b5092979650505050505050565b606060cd8054610bfd90615057565b6128ff6139d2565b6119008282613ff4565b33600081815260ca602090815260408083206001600160a01b03871684529091528120549091908381101561298e5760405162461bcd60e51b815260206004820152602560248201527f45524332303a2064656372656173656420616c6c6f77616e63652062656c6f77604482015264207a65726f60d81b6064820152608401610d42565b61299b8286868403613a1c565b506001949350505050565b61016254600090600160b01b900460ff16156129d557604051630c98e6a160e31b815260040160405180910390fd5b61019560009054906101000a90046001600160a01b03166001600160a01b0316629c185f6040518163ffffffff1660e01b8152600401602060405180830381865afa158015612a28573d6000803e3d6000fd5b505050506040513d601f19601f82011682018060405250810190612a4c9190614b38565b15612a6a576040516321e3430160e21b815260040160405180910390fd5b6101625460405163df592f7d60e01b81526001600160a01b03808616600483015285921690600090829063df592f7d90602401602060405180830381865afa158015612aba573d6000803e3d6000fd5b505050506040513d601f19601f82011682018060405250810190612ade9190614b38565b90508015612aff5760405163108a7eb160e21b815260040160405180910390fd5b336101625460405163df592f7d60e01b81526001600160a01b03838116600483015290911690600090829063df592f7d90602401602060405180830381865afa158015612b50573d6000803e3d6000fd5b505050506040513d601f19601f82011682018060405250810190612b749190614b38565b90508015612b955760405163108a7eb160e21b815260040160405180910390fd5b61019560009054906101000a90046001600160a01b03166001600160a01b031663533ae1296040518163ffffffff1660e01b8152600401600060405180830381600087803b158015612be657600080fd5b505af1158015612bfa573d6000803e3d6000fd5b50505050612c0e612c083390565b8a6117c1565b612c18338a6137f2565b610195546000906001600160a01b031663d493e78c336040516001600160e01b031960e084901b1681526001600160a01b039182166004820152908d166024820152604401608060405180830381865afa158015612c7a573d6000803e3d6000fd5b505050506040513d601f19601f82011682018060405250810190612c9e91906150a8565b90506000612cac8b8b614128565b610195549091506001600160a01b031663eec0d65633610196548e90600160a01b900460ff168e8760006020020151886001602002015189600260200201518a600360200201516040516001600160e01b031960e08b901b1681526001600160a01b03988916600482015297909616602488015293151560448701526064860192909252608485015260a484015260c483015260e482015261010401600060405180830381600087803b15801561209457600080fd5b61016254600090600160a81b900460ff1615612d9157604051636344d7b760e11b815260040160405180910390fd5b61019560009054906101000a90046001600160a01b03166001600160a01b0316629c185f6040518163ffffffff1660e01b8152600401602060405180830381865afa158015612de4573d6000803e3d6000fd5b505050506040513d601f19601f82011682018060405250810190612e089190614b38565b15612e26576040516321e3430160e21b815260040160405180910390fd5b61019560009054906101000a90046001600160a01b03166001600160a01b031663533ae1296040518163ffffffff1660e01b8152600401600060405180830381600087803b158015612e7757600080fd5b505af1158015612e8b573d6000803e3d6000fd5b50506101955460405163cf0571d360e01b8152600481018890528793506001600160a01b03909116915063cf0571d3906024016020604051808303816000875af1158015612edd573d6000803e3d6000fd5b505050506040513d601f19601f82011682018060405250810190612f019190614b38565b15612f1f5760405163922c089560e01b815260040160405180910390fd5b82612f2981614136565b612f31613c67565b61019560009054906101000a90046001600160a01b03166001600160a01b031663ddca8bfa6040518163ffffffff1660e01b8152600401602060405180830381865afa158015612f85573d6000803e3d6000fd5b505050506040513d601f19601f82011682018060405250810190612fa9919061503e565b610195546040516325ad47ab60e21b81526001600160a01b038881166004830152909116906396b51eac90602401602060405180830381865afa158015612ff4573d6000803e3d6000fd5b505050506040513d601f19601f82011682018060405250810190613018919061503e565b1461307e576101955460405163242ffe5560e11b81526001600160a01b0387811660048301529091169063485ffcaa90602401600060405180830381600087803b15801561306557600080fd5b505af1158015613079573d6000803e3d6000fd5b505050505b613087846134cf565b8611156130a75760405163039eea9760e31b815260040160405180910390fd5b61019554604051633d82850b60e01b81523360048201526001600160a01b0387811660248301528681166044830152606482018990526084820189905288921690633d82850b9060a4015b600060405180830381600087803b15801561310c57600080fd5b505af1158015613120573d6000803e3d6000fd5b50929550505050613132600161016355565b50509392505050565b61016254600090600160a81b900460ff161561316a57604051636344d7b760e11b815260040160405180910390fd5b61019560009054906101000a90046001600160a01b03166001600160a01b0316629c185f6040518163ffffffff1660e01b8152600401602060405180830381865afa1580156131bd573d6000803e3d6000fd5b505050506040513d601f19601f820116820180604052508101906131e19190614b38565b156131ff576040516321e3430160e21b815260040160405180910390fd5b61019560009054906101000a90046001600160a01b03166001600160a01b031663533ae1296040518163ffffffff1660e01b8152600401600060405180830381600087803b15801561325057600080fd5b505af1158015613264573d6000803e3d6000fd5b50506101955460405163cf0571d360e01b8152600481018890528793506001600160a01b03909116915063cf0571d3906024016020604051808303816000875af11580156132b6573d6000803e3d6000fd5b505050506040513d601f19601f820116820180604052508101906132da9190614b38565b156132f85760405163922c089560e01b815260040160405180910390fd5b8261330281614136565b61330a613c67565b61019560009054906101000a90046001600160a01b03166001600160a01b031663ddca8bfa6040518163ffffffff1660e01b8152600401602060405180830381865afa15801561335e573d6000803e3d6000fd5b505050506040513d601f19601f82011682018060405250810190613382919061503e565b610195546040516325ad47ab60e21b81526001600160a01b038881166004830152909116906396b51eac90602401602060405180830381865afa1580156133cd573d6000803e3d6000fd5b505050506040513d601f19601f820116820180604052508101906133f1919061503e565b14613457576101955460405163242ffe5560e11b81526001600160a01b0387811660048301529091169063485ffcaa90602401600060405180830381600087803b15801561343e57600080fd5b505af1158015613452573d6000803e3d6000fd5b505050505b613460846134cf565b861115613480576040516389e4c16360e01b815260040160405180910390fd5b61019554604051633d82850b60e01b81523360048201526001600160a01b0387811660248301528681166044830152606482018990526084820189905288921690633d82850b9060a4016130f2565b610195546040516306443f4560e51b81526001600160a01b038381166004830152600092169063c887e8a090602401602060405180830381865afa15801561351b573d6000803e3d6000fd5b505050506040513d601f19601f82011682018060405250810190610c94919061503e565b8342111561358f5760405162461bcd60e51b815260206004820152601d60248201527f45524332305065726d69743a206578706972656420646561646c696e650000006044820152606401610d42565b60007f6e71edae12b1b97f4d1f60370fef10105fa2faae0126114a169c64845d6126c98888886135be8c61415f565b6040805160208101969096526001600160a01b0394851690860152929091166060840152608083015260a082015260c0810186905260e001604051602081830303815290604052805190602001209050600061361982614188565b90506000613629828787876141b5565b9050896001600160a01b0316816001600160a01b03161461368c5760405162461bcd60e51b815260206004820152601e60248201527f45524332305065726d69743a20696e76616c6964207369676e617475726500006044820152606401610d42565b6136978a8a8a613a1c565b50505050505050505050565b6136ab613978565b610162805463ffffffff60a01b1916630101010160a01b179055565b6136cf613978565b610162805460ff60a01b198116600160a01b9182900460ff1615909102179055565b6136f9613978565b610162805460ff60a81b198116600160a81b9182900460ff1615909102179055565b613723613978565b61019560009054906101000a90046001600160a01b03166001600160a01b03166384b584396040518163ffffffff1660e01b8152600401602060405180830381865afa158015613777573d6000803e3d6000fd5b505050506040513d601f19601f8201168201806040525081019061379b9190614b38565b15156000036137bd57604051632787395560e11b815260040160405180910390fd5b6040516001600160a01b038216904780156108fc02916000818181858888f19350505050158015611900573d6000803e3d6000fd5b6137fb826125cf565b15613861576101955460405163242ffe5560e11b81526001600160a01b0384811660048301529091169063485ffcaa90602401600060405180830381600087803b15801561384857600080fd5b505af115801561385c573d6000803e3d6000fd5b505050505b61019554604051635737ed7d60e01b81526001600160a01b03838116600483015290911690635737ed7d90602401600060405180830381600087803b1580156138a957600080fd5b505af11580156138bd573d6000803e3d6000fd5b505050506138ca816125cf565b15611900576101955460405163242ffe5560e11b81526001600160a01b0383811660048301529091169063485ffcaa906024016118cd565b61390a613978565b6001600160a01b03811661396f5760405162461bcd60e51b815260206004820152602660248201527f4f776e61626c653a206e6577206f776e657220697320746865207a65726f206160448201526564647265737360d01b6064820152608401610d42565b611ab081613f84565b6097546001600160a01b031633146124ea5760405162461bcd60e51b815260206004820181905260248201527f4f776e61626c653a2063616c6c6572206973206e6f7420746865206f776e65726044820152606401610d42565b610195546001600160a01b0316336001600160a01b0316146124ea5760405163e565d9cb60e01b815260040160405180910390fd5b6000613a1383836141df565b50600192915050565b6001600160a01b038316613a7e5760405162461bcd60e51b8152602060048201526024808201527f45524332303a20617070726f76652066726f6d20746865207a65726f206164646044820152637265737360e01b6064820152608401610d42565b6001600160a01b038216613adf5760405162461bcd60e51b815260206004820152602260248201527f45524332303a20617070726f766520746f20746865207a65726f206164647265604482015261737360f01b6064820152608401610d42565b6001600160a01b03838116600081815260ca602090815260408083209487168084529482529182902085905590518481527f8c5be1e5ebec7d5bd14f71427d1e84f3dd0314c0f7b2291e5b200ac8c7c3b925910160405180910390a3505050565b600054610100900460ff16613b675760405162461bcd60e51b8152600401610d4290615186565b6119008282614257565b600054610100900460ff16613b985760405162461bcd60e51b8152600401610d4290615186565b611ab081604051806040016040528060018152602001603160f81b815250614297565b600054610100900460ff16613be25760405162461bcd60e51b8152600401610d4290615186565b61016280546001600160a01b0319166001600160a01b0392909216919091179055565b600054610100900460ff16613c2c5760405162461bcd60e51b8152600401610d4290615186565b6124ea6142e6565b600054610100900460ff166124ea5760405162461bcd60e51b8152600401610d4290615186565b6000613a138383614316565b60026101635403613cba5760405162461bcd60e51b815260206004820152601f60248201527f5265656e7472616e637947756172643a207265656e7472616e742063616c6c006044820152606401610d42565b600261016355565b81600003613ce3576040516303e3e43960e51b815260040160405180910390fd5b613cec81611af2565b821115611900576040516314a4b53560e01b815260040160405180910390fd5b600033613d1a858285614388565b61299b85858561441a565b6000610b426145c5565b611ab0613978565b7f4910fdfa16fed3260ed0e7147f7cc6da11a60208b5b9406d12a635614ffd91435460ff1615613d6a57610be983614639565b826001600160a01b03166352d1902d6040518163ffffffff1660e01b8152600401602060405180830381865afa925050508015613dc4575060408051601f3d908101601f19168201909252613dc19181019061503e565b60015b613e365760405162461bcd60e51b815260206004820152602e60248201527f45524331393637557067726164653a206e657720696d706c656d656e7461746960448201527f6f6e206973206e6f7420555550530000000000000000000000000000000000006064820152608401610d42565b7f360894a13ba1a3210667c828492db98dca3e2076cc3735a920a3ca505d382bbc8114613eb75760405162461bcd60e51b815260206004820152602960248201527f45524331393637557067726164653a20756e737570706f727465642070726f786044820152681a58589b195555525160ba1b6064820152608401610d42565b50610be98383836146f7565b6001600160a01b038216613f195760405162461bcd60e51b815260206004820152601f60248201527f45524332303a206d696e7420746f20746865207a65726f2061646472657373006044820152606401610d42565b8060cb6000828254613f2b919061513c565b90915550506001600160a01b038216600081815260c960209081526040808320805486019055518481527fddf252ad1be2c89b69c2b068fc378daa952ba7f163c4a11628f55a4df523b3ef910160405180910390a35050565b609780546001600160a01b038381166001600160a01b0319831681179093556040519116919082907f8be0079c531659141344cd1fd0a4f28419497f9722a3daafe3b4186f6b6457e090600090a35050565b606060fd8054610bfd90615057565b606060fe8054610bfd90615057565b6001600160a01b0382166140545760405162461bcd60e51b815260206004820152602160248201527f45524332303a206275726e2066726f6d20746865207a65726f206164647265736044820152607360f81b6064820152608401610d42565b6001600160a01b038216600090815260c96020526040902054818110156140c85760405162461bcd60e51b815260206004820152602260248201527f45524332303a206275726e20616d6f756e7420657863656564732062616c616e604482015261636560f01b6064820152608401610d42565b6001600160a01b038316600081815260c960209081526040808320868603905560cb80548790039055518581529192917fddf252ad1be2c89b69c2b068fc378daa952ba7f163c4a11628f55a4df523b3ef910160405180910390a3505050565b600033610c8e81858561441a565b6001600160a01b0381163314611ab057604051637a45e68560e01b815260040160405180910390fd5b6001600160a01b038116600090815261012f602052604090208054600181018255905b50919050565b6000610c94614195613d25565b8360405161190160f01b8152600281019290925260228201526042902090565b60008060006141c68787878761471c565b915091506141d3816147e0565b5090505b949350505050565b6001600160a01b0382166142355760405162461bcd60e51b815260206004820152601c60248201527f54726561737572792063616e6e6f74206265207a65726f2061646472000000006044820152606401610d42565b6001600160a01b03909116600090815260c96020526040902080549091019055565b600054610100900460ff1661427e5760405162461bcd60e51b8152600401610d4290615186565b60cc61428a8382615217565b5060cd610be98282615217565b600054610100900460ff166142be5760405162461bcd60e51b8152600401610d4290615186565b60fd6142ca8382615217565b5060fe6142d78282615217565b5050600060fb81905560fc5550565b600054610100900460ff1661430d5760405162461bcd60e51b8152600401610d4290615186565b6124ea33613f84565b6001600160a01b03821661436c5760405162461bcd60e51b815260206004820152601b60248201527f416464726573732063616e6e6f74206265207a65726f206164647200000000006044820152606401610d42565b6001600160a01b03909116600090815260c96020526040902055565b6001600160a01b03838116600090815260ca6020908152604080832093861683529290522054600019811461441457818110156144075760405162461bcd60e51b815260206004820152601d60248201527f45524332303a20696e73756666696369656e7420616c6c6f77616e63650000006044820152606401610d42565b6144148484848403613a1c565b50505050565b6001600160a01b03831661447e5760405162461bcd60e51b815260206004820152602560248201527f45524332303a207472616e736665722066726f6d20746865207a65726f206164604482015264647265737360d81b6064820152608401610d42565b6001600160a01b0382166144e05760405162461bcd60e51b815260206004820152602360248201527f45524332303a207472616e7366657220746f20746865207a65726f206164647260448201526265737360e81b6064820152608401610d42565b6001600160a01b038316600090815260c96020526040902054818110156145585760405162461bcd60e51b815260206004820152602660248201527f45524332303a207472616e7366657220616d6f756e7420657863656564732062604482015265616c616e636560d01b6064820152608401610d42565b6001600160a01b03808516600081815260c9602052604080822086860390559286168082529083902080548601905591517fddf252ad1be2c89b69c2b068fc378daa952ba7f163c4a11628f55a4df523b3ef906145b89086815260200190565b60405180910390a3614414565b60007f8b73c3c69bb8fe3d512ecc4cf759cc79239f7b179b0ffacaa9a75d522b39400f6145f061492a565b6145f8614983565b60408051602081019490945283019190915260608201524660808201523060a082015260c00160405160208183030381529060405280519060200120905090565b6001600160a01b0381163b6146b65760405162461bcd60e51b815260206004820152602d60248201527f455243313936373a206e657720696d706c656d656e746174696f6e206973206e60448201527f6f74206120636f6e7472616374000000000000000000000000000000000000006064820152608401610d42565b7f360894a13ba1a3210667c828492db98dca3e2076cc3735a920a3ca505d382bbc80546001600160a01b0319166001600160a01b0392909216919091179055565b614700836149b4565b60008251118061470d5750805b15610be95761441483836149f4565b6000807f7fffffffffffffffffffffffffffffff5d576e7357a4501ddfe92f46681b20a083111561475357506000905060036147d7565b6040805160008082526020820180845289905260ff881692820192909252606081018690526080810185905260019060a0016020604051602081039080840390855afa1580156147a7573d6000803e3d6000fd5b5050604051601f1901519150506001600160a01b0381166147d0576000600192509250506147d7565b9150600090505b94509492505050565b60008160048111156147f4576147f46152d7565b036147fc5750565b6001816004811115614810576148106152d7565b0361485d5760405162461bcd60e51b815260206004820152601860248201527f45434453413a20696e76616c6964207369676e617475726500000000000000006044820152606401610d42565b6002816004811115614871576148716152d7565b036148be5760405162461bcd60e51b815260206004820152601f60248201527f45434453413a20696e76616c6964207369676e6174757265206c656e677468006044820152606401610d42565b60038160048111156148d2576148d26152d7565b03611ab05760405162461bcd60e51b815260206004820152602260248201527f45434453413a20696e76616c6964207369676e6174757265202773272076616c604482015261756560f01b6064820152608401610d42565b600080614935613fd6565b80519091501561494c578051602090910120919050565b60fb54801561495b5792915050565b7fc5d2460186f7233c927e7db2dcc703c0e500b653ca82273b7bfad8045d85a4709250505090565b60008061498e613fe5565b8051909150156149a5578051602090910120919050565b60fc54801561495b5792915050565b6149bd81614639565b6040516001600160a01b038216907fbc7cd75a20ee27fd9adebab32041f755214dbc6bffa90cc0225b39da2e5c2d3b90600090a250565b60606124c8838360405180606001604052806027815260200161530a602791396060600080856001600160a01b031685604051614a3191906152ed565b600060405180830381855af49150503d8060008114614a6c576040519150601f19603f3d011682016040523d82523d6000602084013e614a71565b606091505b5091509150614a8286838387614a8c565b9695505050505050565b60608315614afb578251600003614af4576001600160a01b0385163b614af45760405162461bcd60e51b815260206004820152601d60248201527f416464726573733a2063616c6c20746f206e6f6e2d636f6e74726163740000006044820152606401610d42565b50816141d7565b6141d78383815115614b105781518083602001fd5b8060405162461bcd60e51b8152600401610d429190614be6565b8015158114611ab057600080fd5b600060208284031215614b4a57600080fd5b81516124c881614b2a565b6001600160a01b0381168114611ab057600080fd5b60008060408385031215614b7d57600080fd5b8235614b8881614b55565b946020939093013593505050565b60005b83811015614bb1578181015183820152602001614b99565b50506000910152565b60008151808452614bd2816020860160208601614b96565b601f01601f19169290920160200192915050565b6020815260006124c86020830184614bba565b600060208284031215614c0b57600080fd5b5035919050565b634e487b7160e01b600052604160045260246000fd5b600067ffffffffffffffff80841115614c4357614c43614c12565b604051601f8501601f19908116603f01168101908282118183101715614c6b57614c6b614c12565b81604052809350858152868686011115614c8457600080fd5b858560208301376000602087830101525050509392505050565b600082601f830112614caf57600080fd5b6124c883833560208501614c28565b60008060008060008060c08789031215614cd757600080fd5b863567ffffffffffffffff80821115614cef57600080fd5b614cfb8a838b01614c9e565b97506020890135915080821115614d1157600080fd5b50614d1e89828a01614c9e565b9550506040870135614d2f81614b55565b93506060870135614d3f81614b55565b92506080870135614d4f81614b2a565b915060a0870135614d5f81614b55565b809150509295509295509295565b600060208284031215614d7f57600080fd5b81356124c881614b55565b600080600060608486031215614d9f57600080fd5b8335614daa81614b55565b92506020840135614dba81614b55565b929592945050506040919091013590565b60008060408385031215614dde57600080fd5b8235614de981614b55565b91506020830135614df981614b55565b809150509250929050565b60008060408385031215614e1757600080fd5b8235614e2281614b55565b9150602083013567ffffffffffffffff811115614e3e57600080fd5b8301601f81018513614e4f57600080fd5b614e5e85823560208401614c28565b9150509250929050565b803560ff811681146113e757600080fd5b60008060008060008060c08789031215614e9257600080fd5b863595506020870135614ea481614b55565b945060408701359350614eb960608801614e68565b92506080870135915060a087013590509295509295509295565b60008060408385031215614ee657600080fd5b823591506020830135614df981614b55565b60ff60f81b881681526000602060e081840152614f1860e084018a614bba565b8381036040850152614f2a818a614bba565b606085018990526001600160a01b038816608086015260a0850187905284810360c0860152855180825283870192509083019060005b81811015614f7c57835183529284019291840191600101614f60565b50909c9b505050505050505050505050565b600080600060608486031215614fa357600080fd5b833592506020840135614fb581614b55565b91506040840135614fc581614b55565b809150509250925092565b600080600080600080600060e0888a031215614feb57600080fd5b8735614ff681614b55565b9650602088013561500681614b55565b9550604088013594506060880135935061502260808901614e68565b925060a0880135915060c0880135905092959891949750929550565b60006020828403121561505057600080fd5b5051919050565b600181811c9082168061506b57607f821691505b60208210810361418257634e487b7160e01b600052602260045260246000fd5b60006020828403121561509d57600080fd5b81516124c881614b55565b6000608082840312156150ba57600080fd5b82601f8301126150c957600080fd5b6040516080810181811067ffffffffffffffff821117156150ec576150ec614c12565b60405280608084018581111561510157600080fd5b845b8181101561511b578051835260209283019201615103565b509195945050505050565b634e487b7160e01b600052601160045260246000fd5b80820180821115610c9457610c94615126565b81810381811115610c9457610c94615126565b6000806040838503121561517557600080fd5b505080516020909101519092909150565b6020808252602b908201527f496e697469616c697a61626c653a20636f6e7472616374206973206e6f74206960408201526a6e697469616c697a696e6760a81b606082015260800190565b601f821115610be957600081815260208120601f850160051c810160208610156151f85750805b601f850160051c820191505b818110156118fb57828155600101615204565b815167ffffffffffffffff81111561523157615231614c12565b6152458161523f8454615057565b846151d1565b602080601f83116001811461527a57600084156152625750858301515b600019600386901b1c1916600185901b1785556118fb565b600085815260208120601f198616915b828110156152a95788860151825594840194600190910190840161528a565b50858210156152c75787850151600019600388901b60f8161c191681555b5050505050600190811b01905550565b634e487b7160e01b600052602160045260246000fd5b600082516152ff818460208701614b96565b919091019291505056fe416464726573733a206c6f772d6c6576656c2064656c65676174652063616c6c206661696c6564a26469706673582212201ba36a61e3e62e97c2ab787c8ebdd1b95590417e00cf333965592f68ddf1a3a764736f6c63430008110033",
  "linkReferences": {},
  "deployedLinkReferences": {}
}