{
  "_format": "hh-sol-artifact-1",
  "contractName": "SmartToken",
  "sourceName": "contracts/vaults/SmartToken.sol",
  "abi": [
    {
      "inputs": [],
      "stateMutability": "nonpayable",
      "type": "constructor"
    },
    {
      "inputs": [],
      "name": "BaseContract__DepositCircuitBreaker",
      "type": "error"
    },
    {
      "inputs": [],
      "name": "BaseContract__RebalanceCircuitBreaker",
      "type": "error"
    },
    {
      "inputs": [],
      "name": "BaseContract__SanctionedAddress",
      "type": "error"
    },
    {
      "inputs": [],
      "name": "BaseContract__TransferCircuitBreaker",
      "type": "error"
    },
    {
      "inputs": [],
      "name": "BaseContract__WithdrawCircuitBreaker",
      "type": "error"
    },
    {
      "inputs": [],
      "name": "SmartToken__DepositLimitHit",
      "type": "error"
    },
    {
      "inputs": [],
      "name": "SmartToken__DepositMoreThanMax",
      "type": "error"
    },
    {
      "inputs": [],
      "name": "SmartToken__ExpiryDateReached",
      "type": "error"
    },
    {
      "inputs": [],
      "name": "SmartToken__InsufficientUnderlying",
      "type": "error"
    },
    {
      "inputs": [],
      "name": "SmartToken__MethodNotAllowed",
      "type": "error"
    },
    {
      "inputs": [],
      "name": "SmartToken__MintMoreThanMax",
      "type": "error"
    },
    {
      "inputs": [],
      "name": "SmartToken__NotTokenFactory",
      "type": "error"
    },
    {
      "inputs": [],
      "name": "SmartToken__OnlyAssetOwner",
      "type": "error"
    },
    {
      "inputs": [],
      "name": "SmartToken__RedeemMoreThanMax",
      "type": "error"
    },
    {
      "inputs": [],
      "name": "SmartToken__WithdrawLimitHit",
      "type": "error"
    },
    {
      "inputs": [],
      "name": "SmartToken__WithdrawMoreThanMax",
      "type": "error"
    },
    {
      "inputs": [],
      "name": "SmartToken__WithdrawNativeFailed",
      "type": "error"
    },
    {
      "inputs": [],
      "name": "SmartToken__ZeroDeposit",
      "type": "error"
    },
    {
      "anonymous": false,
      "inputs": [
        {
          "indexed": false,
          "internalType": "address",
          "name": "previousAdmin",
          "type": "address"
        },
        {
          "indexed": false,
          "internalType": "address",
          "name": "newAdmin",
          "type": "address"
        }
      ],
      "name": "AdminChanged",
      "type": "event"
    },
    {
      "anonymous": false,
      "inputs": [
        {
          "indexed": true,
          "internalType": "address",
          "name": "owner",
          "type": "address"
        },
        {
          "indexed": true,
          "internalType": "address",
          "name": "spender",
          "type": "address"
        },
        {
          "indexed": false,
          "internalType": "uint256",
          "name": "value",
          "type": "uint256"
        }
      ],
      "name": "Approval",
      "type": "event"
    },
    {
      "anonymous": false,
      "inputs": [
        {
          "indexed": true,
          "internalType": "address",
          "name": "beacon",
          "type": "address"
        }
      ],
      "name": "BeaconUpgraded",
      "type": "event"
    },
    {
      "anonymous": false,
      "inputs": [
        {
          "indexed": true,
          "internalType": "address",
          "name": "sender",
          "type": "address"
        },
        {
          "indexed": true,
          "internalType": "address",
          "name": "owner",
          "type": "address"
        },
        {
          "indexed": false,
          "internalType": "uint256",
          "name": "assets",
          "type": "uint256"
        },
        {
          "indexed": false,
          "internalType": "uint256",
          "name": "shares",
          "type": "uint256"
        }
      ],
      "name": "Deposit",
      "type": "event"
    },
    {
      "anonymous": false,
      "inputs": [],
      "name": "EIP712DomainChanged",
      "type": "event"
    },
    {
      "anonymous": false,
      "inputs": [
        {
          "indexed": false,
          "internalType": "uint8",
          "name": "version",
          "type": "uint8"
        }
      ],
      "name": "Initialized",
      "type": "event"
    },
    {
      "anonymous": false,
      "inputs": [
        {
          "indexed": true,
          "internalType": "address",
          "name": "previousOwner",
          "type": "address"
        },
        {
          "indexed": true,
          "internalType": "address",
          "name": "newOwner",
          "type": "address"
        }
      ],
      "name": "OwnershipTransferred",
      "type": "event"
    },
    {
      "anonymous": false,
      "inputs": [
        {
          "indexed": true,
          "internalType": "address",
          "name": "from",
          "type": "address"
        },
        {
          "indexed": true,
          "internalType": "address",
          "name": "to",
          "type": "address"
        },
        {
          "indexed": false,
          "internalType": "uint256",
          "name": "value",
          "type": "uint256"
        }
      ],
      "name": "Transfer",
      "type": "event"
    },
    {
      "anonymous": false,
      "inputs": [
        {
          "indexed": true,
          "internalType": "address",
          "name": "implementation",
          "type": "address"
        }
      ],
      "name": "Upgraded",
      "type": "event"
    },
    {
      "anonymous": false,
      "inputs": [
        {
          "indexed": true,
          "internalType": "address",
          "name": "sender",
          "type": "address"
        },
        {
          "indexed": true,
          "internalType": "address",
          "name": "receiver",
          "type": "address"
        },
        {
          "indexed": true,
          "internalType": "address",
          "name": "owner",
          "type": "address"
        },
        {
          "indexed": false,
          "internalType": "uint256",
          "name": "assets",
          "type": "uint256"
        },
        {
          "indexed": false,
          "internalType": "uint256",
          "name": "shares",
          "type": "uint256"
        }
      ],
      "name": "Withdraw",
      "type": "event"
    },
    {
      "inputs": [],
      "name": "DOMAIN_SEPARATOR",
      "outputs": [
        {
          "internalType": "bytes32",
          "name": "",
          "type": "bytes32"
        }
      ],
      "stateMutability": "view",
      "type": "function"
    },
    {
      "inputs": [
        {
          "internalType": "address",
          "name": "owner",
          "type": "address"
        },
        {
          "internalType": "address",
          "name": "spender",
          "type": "address"
        }
      ],
      "name": "allowance",
      "outputs": [
        {
          "internalType": "uint256",
          "name": "",
          "type": "uint256"
        }
      ],
      "stateMutability": "view",
      "type": "function"
    },
    {
      "inputs": [
        {
          "internalType": "address",
          "name": "spender",
          "type": "address"
        },
        {
          "internalType": "uint256",
          "name": "amount",
          "type": "uint256"
        }
      ],
      "name": "approve",
      "outputs": [
        {
          "internalType": "bool",
          "name": "",
          "type": "bool"
        }
      ],
      "stateMutability": "nonpayable",
      "type": "function"
    },
    {
      "inputs": [],
      "name": "asset",
      "outputs": [
        {
          "internalType": "address",
          "name": "",
          "type": "address"
        }
      ],
      "stateMutability": "view",
      "type": "function"
    },
    {
      "inputs": [
        {
          "internalType": "address",
          "name": "account",
          "type": "address"
        }
      ],
      "name": "balanceOf",
      "outputs": [
        {
          "internalType": "uint256",
          "name": "",
          "type": "uint256"
        }
      ],
      "stateMutability": "view",
      "type": "function"
    },
    {
      "inputs": [
        {
          "internalType": "address",
          "name": "account",
          "type": "address"
        },
        {
          "internalType": "uint256",
          "name": "amount",
          "type": "uint256"
        }
      ],
      "name": "burn",
      "outputs": [],
      "stateMutability": "nonpayable",
      "type": "function"
    },
    {
      "inputs": [
        {
          "internalType": "uint256",
          "name": "shares",
          "type": "uint256"
        }
      ],
      "name": "convertToAssets",
      "outputs": [
        {
          "internalType": "uint256",
          "name": "assets",
          "type": "uint256"
        }
      ],
      "stateMutability": "view",
      "type": "function"
    },
    {
      "inputs": [
        {
          "internalType": "uint256",
          "name": "assets",
          "type": "uint256"
        }
      ],
      "name": "convertToShares",
      "outputs": [
        {
          "internalType": "uint256",
          "name": "shares",
          "type": "uint256"
        }
      ],
      "stateMutability": "view",
      "type": "function"
    },
    {
      "inputs": [],
      "name": "decimals",
      "outputs": [
        {
          "internalType": "uint8",
          "name": "",
          "type": "uint8"
        }
      ],
      "stateMutability": "view",
      "type": "function"
    },
    {
      "inputs": [
        {
          "internalType": "address",
          "name": "spender",
          "type": "address"
        },
        {
          "internalType": "uint256",
          "name": "subtractedValue",
          "type": "uint256"
        }
      ],
      "name": "decreaseAllowance",
      "outputs": [
        {
          "internalType": "bool",
          "name": "",
          "type": "bool"
        }
      ],
      "stateMutability": "nonpayable",
      "type": "function"
    },
    {
      "inputs": [
        {
          "internalType": "uint256",
          "name": "assets",
          "type": "uint256"
        },
        {
          "internalType": "address",
          "name": "receiver",
          "type": "address"
        }
      ],
      "name": "deposit",
      "outputs": [
        {
          "internalType": "uint256",
          "name": "",
          "type": "uint256"
        }
      ],
      "stateMutability": "nonpayable",
      "type": "function"
    },
    {
      "inputs": [
        {
          "internalType": "uint256",
          "name": "assets",
          "type": "uint256"
        },
        {
          "internalType": "address",
          "name": "receiver",
          "type": "address"
        },
        {
          "internalType": "uint256",
          "name": "expiryDate",
          "type": "uint256"
        }
      ],
      "name": "depositWithExpiry",
      "outputs": [
        {
          "internalType": "uint256",
          "name": "",
          "type": "uint256"
        }
      ],
      "stateMutability": "nonpayable",
      "type": "function"
    },
    {
      "inputs": [
        {
          "internalType": "address",
          "name": "receiver",
          "type": "address"
        }
      ],
      "name": "depositWithNative",
      "outputs": [
        {
          "internalType": "uint256",
          "name": "",
          "type": "uint256"
        }
      ],
      "stateMutability": "payable",
      "type": "function"
    },
    {
      "inputs": [
        {
          "internalType": "uint256",
          "name": "assets",
          "type": "uint256"
        },
        {
          "internalType": "address",
          "name": "receiver",
          "type": "address"
        },
        {
          "internalType": "uint256",
          "name": "deadline",
          "type": "uint256"
        },
        {
          "internalType": "uint8",
          "name": "v",
          "type": "uint8"
        },
        {
          "internalType": "bytes32",
          "name": "r",
          "type": "bytes32"
        },
        {
          "internalType": "bytes32",
          "name": "s",
          "type": "bytes32"
        }
      ],
      "name": "depositWithPermit",
      "outputs": [
        {
          "internalType": "uint256",
          "name": "",
          "type": "uint256"
        }
      ],
      "stateMutability": "nonpayable",
      "type": "function"
    },
    {
      "inputs": [
        {
          "internalType": "address",
          "name": "receiver",
          "type": "address"
        }
      ],
      "name": "drain",
      "outputs": [],
      "stateMutability": "nonpayable",
      "type": "function"
    },
    {
      "inputs": [],
      "name": "eip712Domain",
      "outputs": [
        {
          "internalType": "bytes1",
          "name": "fields",
          "type": "bytes1"
        },
        {
          "internalType": "string",
          "name": "name",
          "type": "string"
        },
        {
          "internalType": "string",
          "name": "version",
          "type": "string"
        },
        {
          "internalType": "uint256",
          "name": "chainId",
          "type": "uint256"
        },
        {
          "internalType": "address",
          "name": "verifyingContract",
          "type": "address"
        },
        {
          "internalType": "bytes32",
          "name": "salt",
          "type": "bytes32"
        },
        {
          "internalType": "uint256[]",
          "name": "extensions",
          "type": "uint256[]"
        }
      ],
      "stateMutability": "view",
      "type": "function"
    },
    {
      "inputs": [],
      "name": "getTokenFactory",
      "outputs": [
        {
          "internalType": "address",
          "name": "",
          "type": "address"
        }
      ],
      "stateMutability": "view",
      "type": "function"
    },
    {
      "inputs": [
        {
          "internalType": "address",
          "name": "sender",
          "type": "address"
        },
        {
          "internalType": "address",
          "name": "receiver",
          "type": "address"
        }
      ],
      "name": "handlePendingFF",
      "outputs": [],
      "stateMutability": "nonpayable",
      "type": "function"
    },
    {
      "inputs": [
        {
          "internalType": "address",
          "name": "sender",
          "type": "address"
        },
        {
          "internalType": "address",
          "name": "receiver",
          "type": "address"
        }
      ],
      "name": "handlePendingRebalance",
      "outputs": [],
      "stateMutability": "nonpayable",
      "type": "function"
    },
    {
      "inputs": [
        {
          "internalType": "address",
          "name": "account",
          "type": "address"
        }
      ],
      "name": "hasPendingFF",
      "outputs": [
        {
          "internalType": "bool",
          "name": "",
          "type": "bool"
        }
      ],
      "stateMutability": "view",
      "type": "function"
    },
    {
      "inputs": [
        {
          "internalType": "address",
          "name": "account",
          "type": "address"
        }
      ],
      "name": "hasPendingRebalance",
      "outputs": [
        {
          "internalType": "bool",
          "name": "",
          "type": "bool"
        }
      ],
      "stateMutability": "view",
      "type": "function"
    },
    {
      "inputs": [
        {
          "internalType": "address",
          "name": "spender",
          "type": "address"
        },
        {
          "internalType": "uint256",
          "name": "addedValue",
          "type": "uint256"
        }
      ],
      "name": "increaseAllowance",
      "outputs": [
        {
          "internalType": "bool",
          "name": "",
          "type": "bool"
        }
      ],
      "stateMutability": "nonpayable",
      "type": "function"
    },
    {
      "inputs": [
        {
          "internalType": "string",
          "name": "tokenName",
          "type": "string"
        },
        {
          "internalType": "string",
          "name": "tokenSymbol",
          "type": "string"
        },
        {
          "internalType": "address",
          "name": "factoryAddress",
          "type": "address"
        },
        {
          "internalType": "address",
          "name": "sanctionsContract_",
          "type": "address"
        },
        {
          "internalType": "bool",
          "name": "isX_",
          "type": "bool"
        },
        {
          "internalType": "address",
          "name": "owner_",
          "type": "address"
        }
      ],
      "name": "initialize",
      "outputs": [],
      "stateMutability": "nonpayable",
      "type": "function"
    },
    {
      "inputs": [],
      "name": "isDepositCircuitBreaker",
      "outputs": [
        {
          "internalType": "bool",
          "name": "",
          "type": "bool"
        }
      ],
      "stateMutability": "view",
      "type": "function"
    },
    {
      "inputs": [],
      "name": "isRebalanceCircuitBreaker",
      "outputs": [
        {
          "internalType": "bool",
          "name": "",
          "type": "bool"
        }
      ],
      "stateMutability": "view",
      "type": "function"
    },
    {
      "inputs": [],
      "name": "isTransferCircuitBreaker",
      "outputs": [
        {
          "internalType": "bool",
          "name": "",
          "type": "bool"
        }
      ],
      "stateMutability": "view",
      "type": "function"
    },
    {
      "inputs": [],
      "name": "isWithdrawCircuitBreaker",
      "outputs": [
        {
          "internalType": "bool",
          "name": "",
          "type": "bool"
        }
      ],
      "stateMutability": "view",
      "type": "function"
    },
    {
      "inputs": [
        {
          "internalType": "address",
          "name": "account",
          "type": "address"
        }
      ],
      "name": "maxDeposit",
      "outputs": [
        {
          "internalType": "uint256",
          "name": "",
          "type": "uint256"
        }
      ],
      "stateMutability": "view",
      "type": "function"
    },
    {
      "inputs": [
        {
          "internalType": "address",
          "name": "account",
          "type": "address"
        }
      ],
      "name": "maxMint",
      "outputs": [
        {
          "internalType": "uint256",
          "name": "",
          "type": "uint256"
        }
      ],
      "stateMutability": "view",
      "type": "function"
    },
    {
      "inputs": [
        {
          "internalType": "address",
          "name": "owner_",
          "type": "address"
        }
      ],
      "name": "maxRedeem",
      "outputs": [
        {
          "internalType": "uint256",
          "name": "",
          "type": "uint256"
        }
      ],
      "stateMutability": "view",
      "type": "function"
    },
    {
      "inputs": [
        {
          "internalType": "address",
          "name": "owner_",
          "type": "address"
        }
      ],
      "name": "maxWithdraw",
      "outputs": [
        {
          "internalType": "uint256",
          "name": "",
          "type": "uint256"
        }
      ],
      "stateMutability": "view",
      "type": "function"
    },
    {
      "inputs": [
        {
          "internalType": "uint256",
          "name": "shares",
          "type": "uint256"
        },
        {
          "internalType": "address",
          "name": "receiver",
          "type": "address"
        }
      ],
      "name": "mint",
      "outputs": [
        {
          "internalType": "uint256",
          "name": "",
          "type": "uint256"
        }
      ],
      "stateMutability": "nonpayable",
      "type": "function"
    },
    {
      "inputs": [
        {
          "internalType": "address",
          "name": "receiver",
          "type": "address"
        },
        {
          "internalType": "uint256",
          "name": "amount",
          "type": "uint256"
        }
      ],
      "name": "mintAsset",
      "outputs": [],
      "stateMutability": "nonpayable",
      "type": "function"
    },
    {
      "inputs": [],
      "name": "name",
      "outputs": [
        {
          "internalType": "string",
          "name": "",
          "type": "string"
        }
      ],
      "stateMutability": "view",
      "type": "function"
    },
    {
      "inputs": [
        {
          "internalType": "address",
          "name": "owner",
          "type": "address"
        }
      ],
      "name": "nonces",
      "outputs": [
        {
          "internalType": "uint256",
          "name": "",
          "type": "uint256"
        }
      ],
      "stateMutability": "view",
      "type": "function"
    },
    {
      "inputs": [],
      "name": "owner",
      "outputs": [
        {
          "internalType": "address",
          "name": "",
          "type": "address"
        }
      ],
      "stateMutability": "view",
      "type": "function"
    },
    {
      "inputs": [
        {
          "internalType": "address",
          "name": "owner",
          "type": "address"
        },
        {
          "internalType": "address",
          "name": "spender",
          "type": "address"
        },
        {
          "internalType": "uint256",
          "name": "value",
          "type": "uint256"
        },
        {
          "internalType": "uint256",
          "name": "deadline",
          "type": "uint256"
        },
        {
          "internalType": "uint8",
          "name": "v",
          "type": "uint8"
        },
        {
          "internalType": "bytes32",
          "name": "r",
          "type": "bytes32"
        },
        {
          "internalType": "bytes32",
          "name": "s",
          "type": "bytes32"
        }
      ],
      "name": "permit",
      "outputs": [],
      "stateMutability": "nonpayable",
      "type": "function"
    },
    {
      "inputs": [
        {
          "internalType": "uint256",
          "name": "assets",
          "type": "uint256"
        }
      ],
      "name": "previewDeposit",
      "outputs": [
        {
          "internalType": "uint256",
          "name": "",
          "type": "uint256"
        }
      ],
      "stateMutability": "view",
      "type": "function"
    },
    {
      "inputs": [
        {
          "internalType": "uint256",
          "name": "shares",
          "type": "uint256"
        }
      ],
      "name": "previewMint",
      "outputs": [
        {
          "internalType": "uint256",
          "name": "",
          "type": "uint256"
        }
      ],
      "stateMutability": "view",
      "type": "function"
    },
    {
      "inputs": [
        {
          "internalType": "uint256",
          "name": "shares",
          "type": "uint256"
        }
      ],
      "name": "previewRedeem",
      "outputs": [
        {
          "internalType": "uint256",
          "name": "",
          "type": "uint256"
        }
      ],
      "stateMutability": "view",
      "type": "function"
    },
    {
      "inputs": [
        {
          "internalType": "uint256",
          "name": "assets",
          "type": "uint256"
        }
      ],
      "name": "previewWithdraw",
      "outputs": [
        {
          "internalType": "uint256",
          "name": "",
          "type": "uint256"
        }
      ],
      "stateMutability": "view",
      "type": "function"
    },
    {
      "inputs": [],
      "name": "proxiableUUID",
      "outputs": [
        {
          "internalType": "bytes32",
          "name": "",
          "type": "bytes32"
        }
      ],
      "stateMutability": "view",
      "type": "function"
    },
    {
      "inputs": [
        {
          "internalType": "uint256",
          "name": "shares",
          "type": "uint256"
        },
        {
          "internalType": "address",
          "name": "receiver",
          "type": "address"
        },
        {
          "internalType": "address",
          "name": "owner_",
          "type": "address"
        }
      ],
      "name": "redeem",
      "outputs": [
        {
          "internalType": "uint256",
          "name": "",
          "type": "uint256"
        }
      ],
      "stateMutability": "nonpayable",
      "type": "function"
    },
    {
      "inputs": [],
      "name": "renounceOwnership",
      "outputs": [],
      "stateMutability": "nonpayable",
      "type": "function"
    },
    {
      "inputs": [],
      "name": "resumeAllCircuitBreakers",
      "outputs": [],
      "stateMutability": "nonpayable",
      "type": "function"
    },
    {
      "inputs": [
        {
          "internalType": "address",
          "name": "account",
          "type": "address"
        },
        {
          "internalType": "uint256",
          "name": "amount",
          "type": "uint256"
        }
      ],
      "name": "smartBalanceAdjust",
      "outputs": [],
      "stateMutability": "nonpayable",
      "type": "function"
    },
    {
      "inputs": [
        {
          "internalType": "address",
          "name": "treasuryAddress",
          "type": "address"
        },
        {
          "internalType": "uint256",
          "name": "amount",
          "type": "uint256"
        }
      ],
      "name": "smartTreasuryTransfer",
      "outputs": [],
      "stateMutability": "nonpayable",
      "type": "function"
    },
    {
      "inputs": [],
      "name": "stopAllCircuitBreakers",
      "outputs": [],
      "stateMutability": "nonpayable",
      "type": "function"
    },
    {
      "inputs": [],
      "name": "symbol",
      "outputs": [
        {
          "internalType": "string",
          "name": "",
          "type": "string"
        }
      ],
      "stateMutability": "view",
      "type": "function"
    },
    {
      "inputs": [],
      "name": "toggleDepositCircuitBreaker",
      "outputs": [],
      "stateMutability": "nonpayable",
      "type": "function"
    },
    {
      "inputs": [],
      "name": "toggleRebalanceCircuitBreaker",
      "outputs": [],
      "stateMutability": "nonpayable",
      "type": "function"
    },
    {
      "inputs": [],
      "name": "toggleTransferCircuitBreaker",
      "outputs": [],
      "stateMutability": "nonpayable",
      "type": "function"
    },
    {
      "inputs": [],
      "name": "toggleWithdrawCircuitBreaker",
      "outputs": [],
      "stateMutability": "nonpayable",
      "type": "function"
    },
    {
      "inputs": [],
      "name": "totalAssets",
      "outputs": [
        {
          "internalType": "uint256",
          "name": "",
          "type": "uint256"
        }
      ],
      "stateMutability": "view",
      "type": "function"
    },
    {
      "inputs": [],
      "name": "totalSupply",
      "outputs": [
        {
          "internalType": "uint256",
          "name": "",
          "type": "uint256"
        }
      ],
      "stateMutability": "view",
      "type": "function"
    },
    {
      "inputs": [
        {
          "internalType": "address",
          "name": "recipient",
          "type": "address"
        },
        {
          "internalType": "uint256",
          "name": "amount",
          "type": "uint256"
        }
      ],
      "name": "transfer",
      "outputs": [
        {
          "internalType": "bool",
          "name": "",
          "type": "bool"
        }
      ],
      "stateMutability": "nonpayable",
      "type": "function"
    },
    {
      "inputs": [
        {
          "internalType": "address",
          "name": "sender",
          "type": "address"
        },
        {
          "internalType": "address",
          "name": "recipient",
          "type": "address"
        },
        {
          "internalType": "uint256",
          "name": "amount",
          "type": "uint256"
        }
      ],
      "name": "transferFrom",
      "outputs": [
        {
          "internalType": "bool",
          "name": "",
          "type": "bool"
        }
      ],
      "stateMutability": "nonpayable",
      "type": "function"
    },
    {
      "inputs": [
        {
          "internalType": "address",
          "name": "newOwner",
          "type": "address"
        }
      ],
      "name": "transferOwnership",
      "outputs": [],
      "stateMutability": "nonpayable",
      "type": "function"
    },
    {
      "inputs": [
        {
          "internalType": "address",
          "name": "account",
          "type": "address"
        }
      ],
      "name": "unScaledbalanceOf",
      "outputs": [
        {
          "internalType": "uint256",
          "name": "",
          "type": "uint256"
        }
      ],
      "stateMutability": "view",
      "type": "function"
    },
    {
      "inputs": [
        {
          "internalType": "address",
          "name": "newImplementation",
          "type": "address"
        }
      ],
      "name": "upgradeTo",
      "outputs": [],
      "stateMutability": "nonpayable",
      "type": "function"
    },
    {
      "inputs": [
        {
          "internalType": "address",
          "name": "newImplementation",
          "type": "address"
        },
        {
          "internalType": "bytes",
          "name": "data",
          "type": "bytes"
        }
      ],
      "name": "upgradeToAndCall",
      "outputs": [],
      "stateMutability": "payable",
      "type": "function"
    },
    {
      "inputs": [
        {
          "internalType": "uint256",
          "name": "assets",
          "type": "uint256"
        },
        {
          "internalType": "address",
          "name": "receiver",
          "type": "address"
        },
        {
          "internalType": "address",
          "name": "owner_",
          "type": "address"
        }
      ],
      "name": "withdraw",
      "outputs": [
        {
          "internalType": "uint256",
          "name": "",
          "type": "uint256"
        }
      ],
      "stateMutability": "nonpayable",
      "type": "function"
    },
    {
      "inputs": [
        {
          "internalType": "uint256",
          "name": "assets",
          "type": "uint256"
        },
        {
          "internalType": "address",
          "name": "receiver",
          "type": "address"
        },
        {
          "internalType": "address",
          "name": "owner_",
          "type": "address"
        },
        {
          "internalType": "uint256",
          "name": "expiryDate",
          "type": "uint256"
        }
      ],
      "name": "withdrawWithExpiry",
      "outputs": [
        {
          "internalType": "uint256",
          "name": "",
          "type": "uint256"
        }
      ],
      "stateMutability": "nonpayable",
      "type": "function"
    },
    {
      "stateMutability": "payable",
      "type": "receive"
    }
  ],
  "bytecode": "0x60a0604052306080523480156200001557600080fd5b506200002062000030565b6200002a62000030565b620000f1565b600054610100900460ff16156200009d5760405162461bcd60e51b815260206004820152602760248201527f496e697469616c697a61626c653a20636f6e747261637420697320696e697469604482015266616c697a696e6760c81b606482015260840160405180910390fd5b60005460ff90811614620000ef576000805460ff191660ff9081179091556040519081527f7f26b83ff96e1f2b6a682f133852f6798a09c465da95921460cefb38474024989060200160405180910390a15b565b6080516153c26200012960003960008181611978015281816119fd01528181611bae01528181611c33015261207d01526153c26000f3fe6080604052600436106103bc5760003560e01c80637ecebe00116101f2578063c3e4eb0f1161010d578063dd62ed3e116100a0578063ef8b30f71161006f578063ef8b30f7146104e1578063f077fd3c14610aa1578063f2fde38b14610ac1578063fd6064b314610ae157600080fd5b8063dd62ed3e14610a06578063e2a3cd0b14610a4c578063e581273114610a6c578063ece5313214610a8157600080fd5b8063d505accf116100dc578063d505accf146109bc578063d69f62e0146109dc578063d78f0921146109f1578063d905777e1461099c57600080fd5b8063c3e4eb0f1461097c578063c63d75b6146106b0578063c6e6f592146104e1578063ce96cb771461099c57600080fd5b806395d89b4111610185578063b1dbfcee11610154578063b1dbfcee1461093c578063b3d7f6b9146104e1578063b460af941461095c578063ba0876521461095c57600080fd5b806395d89b41146108c75780639dc29fac146108dc578063a457c2d7146108fc578063a9059cbb1461091c57600080fd5b80638f4cef0c116101c15780638f4cef0c146108485780638f50bd1314610868578063925d6ba21461088857806394bf804d146108a757600080fd5b80637ecebe00146107c257806384b0196e146107e257806385f2eac01461080a5780638da5cb5b1461082a57600080fd5b8063313ce567116102e257806350163974116102755780636a300529116102445780636a300529146107585780636e553f651461076d57806370a082311461078d578063715018a6146107ad57600080fd5b806350163974146106e357806350921b231461070357806352d1902d146107235780635f758bef1461073857600080fd5b806339509351116102b15780633950935114610690578063402d267d146106b05780634cdad506146104e15780634f1ef286146106d057600080fd5b8063313ce5671461060c5780633644e515146106285780633659cfe61461063d57806338d52e0f1461065d57600080fd5b806312cfca381161035a57806323b872dd1161032957806323b872dd14610597578063275f0ddd146105b757806327a44ed0146105d757806330928009146105f757600080fd5b806312cfca381461052f57806316b535f41461054f57806318160ddd1461056f57806318c23d501461058457600080fd5b806306fdde031161039657806306fdde03146104bf57806307a2d13a146104e1578063095ea7b3146104ff5780630a28a477146104e157600080fd5b806301e1d11414610462578063030d4ed71461048a57806305bfee331461049f57600080fd5b3661045d5761019560009054906101000a90046001600160a01b03166001600160a01b03166384b584396040518163ffffffff1660e01b8152600401602060405180830381865afa158015610415573d6000803e3d6000fd5b505050506040513d601f19601f820116820180604052508101906104399190614b25565b151560000361045b57604051632787395560e11b815260040160405180910390fd5b005b600080fd5b34801561046e57600080fd5b50610477610b01565b6040519081526020015b60405180910390f35b34801561049657600080fd5b5061045b610b7d565b3480156104ab57600080fd5b5061045b6104ba366004614b57565b610b98565b3480156104cb57600080fd5b506104d4610c24565b6040516104819190614bd3565b3480156104ed57600080fd5b506104776104fc366004614be6565b90565b34801561050b57600080fd5b5061051f61051a366004614b57565b610cb6565b6040519015158152602001610481565b34801561053b57600080fd5b5061045b61054a366004614cab565b610cd0565b34801561055b57600080fd5b5061045b61056a366004614b57565b610f8f565b34801561057b57600080fd5b5060cb54610477565b610477610592366004614d5a565b61101e565b3480156105a357600080fd5b5061051f6105b2366004614d77565b611422565b3480156105c357600080fd5b5061045b6105d2366004614db8565b6117f7565b3480156105e357600080fd5b5061016254600160b81b900460ff1661051f565b34801561060357600080fd5b5061045b61193a565b34801561061857600080fd5b5060405160128152602001610481565b34801561063457600080fd5b50610477611964565b34801561064957600080fd5b5061045b610658366004614d5a565b61196e565b34801561066957600080fd5b50610196546001600160a01b03165b6040516001600160a01b039091168152602001610481565b34801561069c57600080fd5b5061051f6106ab366004614b57565b611ae9565b3480156106bc57600080fd5b506104776106cb366004614d5a565b611b28565b61045b6106de366004614df1565b611ba4565b3480156106ef57600080fd5b5061051f6106fe366004614d5a565b611d0c565b34801561070f57600080fd5b5061047761071e366004614e66565b611df3565b34801561072f57600080fd5b50610477612070565b34801561074457600080fd5b5061045b610753366004614b57565b612135565b34801561076457600080fd5b5061045b612147565b34801561077957600080fd5b50610477610788366004614ec0565b612171565b34801561079957600080fd5b506104776107a8366004614d5a565b61234e565b3480156107b957600080fd5b5061045b61240e565b3480156107ce57600080fd5b506104776107dd366004614d5a565b612422565b3480156107ee57600080fd5b506107f7612441565b6040516104819796959493929190614ee5565b34801561081657600080fd5b5061016254600160b01b900460ff1661051f565b34801561083657600080fd5b506097546001600160a01b0316610678565b34801561085457600080fd5b50610477610863366004614d5a565b6124e7565b34801561087457600080fd5b5061051f610883366004614d5a565b612505565b34801561089457600080fd5b50610195546001600160a01b0316610678565b3480156108b357600080fd5b506104776108c2366004614ec0565b6125a7565b3480156108d357600080fd5b506104d461279f565b3480156108e857600080fd5b5061045b6108f7366004614b57565b6127ae565b34801561090857600080fd5b5061051f610917366004614b57565b6127c0565b34801561092857600080fd5b5061051f610937366004614b57565b61285d565b34801561094857600080fd5b5061016254600160a81b900460ff1661051f565b34801561096857600080fd5b50610477610977366004614f7b565b612c40565b34801561098857600080fd5b50610477610997366004614fbd565b612e30565b3480156109a857600080fd5b506104776109b7366004614d5a565b613043565b3480156109c857600080fd5b5061045b6109d7366004615005565b6130b3565b3480156109e857600080fd5b5061045b613217565b3480156109fd57600080fd5b5061045b61323b565b348015610a1257600080fd5b50610477610a21366004614db8565b6001600160a01b03918216600090815260ca6020908152604080832093909416825291909152205490565b348015610a5857600080fd5b50610477610a67366004615073565b613265565b348015610a7857600080fd5b5061045b613465565b348015610a8d57600080fd5b5061045b610a9c366004614d5a565b61348f565b348015610aad57600080fd5b5061045b610abc366004614db8565b613566565b348015610acd57600080fd5b5061045b610adc366004614d5a565b613676565b348015610aed57600080fd5b5061016254600160a01b900460ff1661051f565b61019654610195546040516370a0823160e01b81526001600160a01b03918216600482015260009291909116906370a0823190602401602060405180830381865afa158015610b54573d6000803e3d6000fd5b505050506040513d601f19601f82011682018060405250810190610b78919061509a565b905090565b610b856136ec565b610162805463ffffffff60a01b19169055565b610ba0613746565b61019554610196546040516368939ecf60e11b8152600160a01b90910460ff1615156004820152602481018390526001600160a01b039091169063d1273d9e90604401600060405180830381600087803b158015610bfd57600080fd5b505af1158015610c11573d6000803e3d6000fd5b50505050610c1f828261377b565b505050565b606060cc8054610c33906150b3565b80601f0160208091040260200160405190810160405280929190818152602001828054610c5f906150b3565b8015610cac5780601f10610c8157610100808354040283529160200191610cac565b820191906000526020600020905b815481529060010190602001808311610c8f57829003601f168201915b5050505050905090565b600033610cc4818585613790565b60019150505b92915050565b600054610100900460ff1615808015610cf05750600054600160ff909116105b80610d0a5750303b158015610d0a575060005460ff166001145b610d815760405162461bcd60e51b815260206004820152602e60248201527f496e697469616c697a61626c653a20636f6e747261637420697320616c72656160448201527f647920696e697469616c697a656400000000000000000000000000000000000060648201526084015b60405180910390fd5b6000805460ff191660011790558015610da4576000805461ff0019166101001790555b610dae87876138b4565b610db7876138e5565b610dc08461392f565b610dc8613979565b610dd182613676565b610dd96139a8565b61019580546001600160a01b0319166001600160a01b03871690811790915560408051634c566bd360e11b815290516398acd7a6916004808201926020929091908290030181865afa158015610e33573d6000803e3d6000fd5b505050506040513d601f19601f82011682018060405250810190610e5791906150e7565b6101968054851515600160a01b0274ffffffffffffffffffffffffffffffffffffffffff199091166001600160a01b039384161717905561019554604080516384b5843960e01b8152905191909216916384b584399160048083019260209291908290030181865afa158015610ed1573d6000803e3d6000fd5b505050506040513d601f19601f82011682018060405250810190610ef59190614b25565b610196805460ff60a81b1916600160a81b9215158302179081905560ff9190041615610f40576101965461019780546001600160a01b0319166001600160a01b039092169190911790555b8015610f86576000805461ff0019169055604051600181527f7f26b83ff96e1f2b6a682f133852f6798a09c465da95921460cefb38474024989060200160405180910390a15b50505050505050565b610f97613746565b610195546101965460405163566f4d9560e11b8152600160a01b90910460ff16151560048201526001600160a01b038481166024830152604482018490529091169063acde9b2a90606401600060405180830381600087803b158015610ffc57600080fd5b505af1158015611010573d6000803e3d6000fd5b50505050610c1f82826139cf565b60006110286139db565b61016254600160a01b900460ff161561105457604051636822eceb60e11b815260040160405180910390fd5b61019560009054906101000a90046001600160a01b03166001600160a01b0316629c185f6040518163ffffffff1660e01b8152600401602060405180830381865afa1580156110a7573d6000803e3d6000fd5b505050506040513d601f19601f820116820180604052508101906110cb9190614b25565b156110e9576040516321e3430160e21b815260040160405180910390fd5b61019560009054906101000a90046001600160a01b03166001600160a01b031663533ae1296040518163ffffffff1660e01b8152600401600060405180830381600087803b15801561113a57600080fd5b505af115801561114e573d6000803e3d6000fd5b505061019554604051634eacc0fd60e01b8152346004820181905293506001600160a01b039091169150634eacc0fd906024016020604051808303816000875af11580156111a0573d6000803e3d6000fd5b505050506040513d601f19601f820116820180604052508101906111c49190614b25565b156111e25760405163b04c001160e01b815260040160405180910390fd5b34836111ee8282613a36565b61019560009054906101000a90046001600160a01b03166001600160a01b03166384b584396040518163ffffffff1660e01b8152600401602060405180830381865afa158015611242573d6000803e3d6000fd5b505050506040513d601f19601f820116820180604052508101906112669190614b25565b151560000361128857604051632787395560e11b815260040160405180910390fd5b346000036112a9576040516303e3e43960e51b815260040160405180910390fd5b61019760009054906101000a90046001600160a01b03166001600160a01b031663d0e30db0346040518263ffffffff1660e01b81526004016000604051808303818588803b1580156112fa57600080fd5b505af115801561130e573d6000803e3d6000fd5b5050505050600061131c3490565b610197546101955460405163095ea7b360e01b81526001600160a01b039182166004820152346024820152929350169063095ea7b3906044016020604051808303816000875af1158015611374573d6000803e3d6000fd5b505050506040513d601f19601f820116820180604052508101906113989190614b25565b506101955460405163c14cfe0960e01b81523060048201526001600160a01b038881166024830152346044830152606482018490529091169063c14cfe0990608401600060405180830381600087803b1580156113f457600080fd5b505af1158015611408573d6000803e3d6000fd5b5092965050505050505061141d600161016355565b919050565b61016254600090600160b01b900460ff161561145157604051630c98e6a160e31b815260040160405180910390fd5b61019560009054906101000a90046001600160a01b03166001600160a01b0316629c185f6040518163ffffffff1660e01b8152600401602060405180830381865afa1580156114a4573d6000803e3d6000fd5b505050506040513d601f19601f820116820180604052508101906114c89190614b25565b156114e6576040516321e3430160e21b815260040160405180910390fd5b61019560009054906101000a90046001600160a01b03166001600160a01b031663533ae1296040518163ffffffff1660e01b8152600401600060405180830381600087803b15801561153757600080fd5b505af115801561154b573d6000803e3d6000fd5b50506101625460405163df592f7d60e01b81526001600160a01b0380881660048301528794509091169150600090829063df592f7d90602401602060405180830381865afa1580156115a1573d6000803e3d6000fd5b505050506040513d601f19601f820116820180604052508101906115c59190614b25565b905080156115e65760405163108a7eb160e21b815260040160405180910390fd5b6101625460405163df592f7d60e01b81526001600160a01b03808a16600483015289921690600090829063df592f7d90602401602060405180830381865afa158015611636573d6000803e3d6000fd5b505050506040513d601f19601f8201168201806040525081019061165a9190614b25565b9050801561167b5760405163108a7eb160e21b815260040160405180910390fd5b6116858a8a6117f7565b61168f8a8a613566565b61019554604051633524f9e360e21b81526001600160a01b038c811660048301528b81166024830152600092169063d493e78c90604401608060405180830381865afa1580156116e3573d6000803e3d6000fd5b505050506040513d601f19601f820116820180604052508101906117079190615104565b905060006117168c8c8c613a80565b61019554610196549192506001600160a01b03169063eec0d656908e908e90600160a01b900460ff168e8760006020020151886001602002015189600260200201518a600360200201516040516001600160e01b031960e08b901b1681526001600160a01b03988916600482015297909616602488015293151560448701526064860192909252608485015260a484015260c483015260e482015261010401600060405180830381600087803b1580156117cf57600080fd5b505af11580156117e3573d6000803e3d6000fd5b50929e9d5050505050505050505050505050565b61180082611d0c565b1561186657610195546040516310e7089f60e11b81526001600160a01b038481166004830152909116906321ce113e90602401600060405180830381600087803b15801561184d57600080fd5b505af1158015611861573d6000803e3d6000fd5b505050505b61019554604051631605ed3160e31b81526001600160a01b0383811660048301529091169063b02f698890602401600060405180830381600087803b1580156118ae57600080fd5b505af11580156118c2573d6000803e3d6000fd5b505050506118cf81611d0c565b1561193657610195546040516310e7089f60e11b81526001600160a01b038381166004830152909116906321ce113e906024015b600060405180830381600087803b15801561191d57600080fd5b505af1158015611931573d6000803e3d6000fd5b505050505b5050565b6119426136ec565b610162805460ff60b81b198116600160b81b9182900460ff1615909102179055565b6000610b78613a99565b6001600160a01b037f00000000000000000000000000000000000000000000000000000000000000001630036119fb5760405162461bcd60e51b815260206004820152602c60248201527f46756e6374696f6e206d7573742062652063616c6c6564207468726f7567682060448201526b19195b1959d85d1958d85b1b60a21b6064820152608401610d78565b7f00000000000000000000000000000000000000000000000000000000000000006001600160a01b0316611a567f360894a13ba1a3210667c828492db98dca3e2076cc3735a920a3ca505d382bbc546001600160a01b031690565b6001600160a01b031614611ac15760405162461bcd60e51b815260206004820152602c60248201527f46756e6374696f6e206d7573742062652063616c6c6564207468726f7567682060448201526b6163746976652070726f787960a01b6064820152608401610d78565b611aca81613aa3565b60408051600080825260208201909252611ae691839190613aab565b50565b33600081815260ca602090815260408083206001600160a01b0387168452909152812054909190610cc49082908690611b23908790615198565b613790565b6101955460405163728bf73360e01b81526001600160a01b038381166004830152600092169063728bf73390602401602060405180830381865afa158015611b74573d6000803e3d6000fd5b505050506040513d601f19601f82011682018060405250810190611b98919061509a565b610cca906000196151ab565b6001600160a01b037f0000000000000000000000000000000000000000000000000000000000000000163003611c315760405162461bcd60e51b815260206004820152602c60248201527f46756e6374696f6e206d7573742062652063616c6c6564207468726f7567682060448201526b19195b1959d85d1958d85b1b60a21b6064820152608401610d78565b7f00000000000000000000000000000000000000000000000000000000000000006001600160a01b0316611c8c7f360894a13ba1a3210667c828492db98dca3e2076cc3735a920a3ca505d382bbc546001600160a01b031690565b6001600160a01b031614611cf75760405162461bcd60e51b815260206004820152602c60248201527f46756e6374696f6e206d7573742062652063616c6c6564207468726f7567682060448201526b6163746976652070726f787960a01b6064820152608401610d78565b611d0082613aa3565b61193682826001613aab565b6101955460408051638df4541b60e01b815290516000926001600160a01b031691638df4541b9160048083019260209291908290030181865afa158015611d57573d6000803e3d6000fd5b505050506040513d601f19601f82011682018060405250810190611d7b919061509a565b6101955460405163a129c84760e01b81526001600160a01b0385811660048301529091169063a129c847906024015b602060405180830381865afa158015611dc7573d6000803e3d6000fd5b505050506040513d601f19601f82011682018060405250810190611deb919061509a565b141592915050565b61016254600090600160a01b900460ff1615611e2257604051636822eceb60e11b815260040160405180910390fd5b61019560009054906101000a90046001600160a01b03166001600160a01b0316629c185f6040518163ffffffff1660e01b8152600401602060405180830381865afa158015611e75573d6000803e3d6000fd5b505050506040513d601f19601f82011682018060405250810190611e999190614b25565b15611eb7576040516321e3430160e21b815260040160405180910390fd5b61019560009054906101000a90046001600160a01b03166001600160a01b031663533ae1296040518163ffffffff1660e01b8152600401600060405180830381600087803b158015611f0857600080fd5b505af1158015611f1c573d6000803e3d6000fd5b505061019554604051634eacc0fd60e01b8152600481018b90528a93506001600160a01b039091169150634eacc0fd906024016020604051808303816000875af1158015611f6e573d6000803e3d6000fd5b505050506040513d601f19601f82011682018060405250810190611f929190614b25565b15611fb05760405163b04c001160e01b815260040160405180910390fd5b8787611fbc8282613a36565b610196546001600160a01b031663d505accf336101955460405160e084901b6001600160e01b03191681526001600160a01b03928316600482015291166024820152604481018d9052606481018b905260ff8a16608482015260a4810189905260c4810188905260e401600060405180830381600087803b15801561204057600080fd5b505af1158015612054573d6000803e3d6000fd5b505050506120628a8a613c37565b9a9950505050505050505050565b6000306001600160a01b037f000000000000000000000000000000000000000000000000000000000000000016146121105760405162461bcd60e51b815260206004820152603860248201527f555550535570677261646561626c653a206d757374206e6f742062652063616c60448201527f6c6564207468726f7567682064656c656761746563616c6c00000000000000006064820152608401610d78565b507f360894a13ba1a3210667c828492db98dca3e2076cc3735a920a3ca505d382bbc90565b61213d613746565b6119368282613cbb565b61214f6136ec565b610162805460ff60b01b198116600160b01b9182900460ff1615909102179055565b61016254600090600160a01b900460ff16156121a057604051636822eceb60e11b815260040160405180910390fd5b61019560009054906101000a90046001600160a01b03166001600160a01b0316629c185f6040518163ffffffff1660e01b8152600401602060405180830381865afa1580156121f3573d6000803e3d6000fd5b505050506040513d601f19601f820116820180604052508101906122179190614b25565b15612235576040516321e3430160e21b815260040160405180910390fd5b61019560009054906101000a90046001600160a01b03166001600160a01b031663533ae1296040518163ffffffff1660e01b8152600401600060405180830381600087803b15801561228657600080fd5b505af115801561229a573d6000803e3d6000fd5b505061019554604051634eacc0fd60e01b8152600481018790528693506001600160a01b039091169150634eacc0fd906024016020604051808303816000875af11580156122ec573d6000803e3d6000fd5b505050506040513d601f19601f820116820180604052508101906123109190614b25565b1561232e5760405163b04c001160e01b815260040160405180910390fd5b838361233a8282613a36565b6123448686613c37565b9695505050505050565b600061235982612505565b80612368575061236882611d0c565b15612405576101955460405163a4d96e1760e01b81526001600160a01b038481166004830152600092839291169063a4d96e17906024016040805180830381865afa1580156123bb573d6000803e3d6000fd5b505050506040513d601f19601f820116820180604052508101906123df91906151be565b610196549193509150600160a01b900460ff16156123fe575092915050565b9392505050565b610cca826124e7565b6124166136ec565b6124206000613d7c565b565b6001600160a01b038116600090815261012f6020526040812054610cca565b60006060806000806000606060fb546000801b148015612461575060fc54155b6124ad5760405162461bcd60e51b815260206004820152601560248201527f4549503731323a20556e696e697469616c697a656400000000000000000000006044820152606401610d78565b6124b5613dce565b6124bd613ddd565b60408051600080825260208201909252600f60f81b9b939a50919850469750309650945092509050565b6001600160a01b038116600090815260c96020526040812054610cca565b6101955460408051636ee545fd60e11b815290516000926001600160a01b03169163ddca8bfa9160048083019260209291908290030181865afa158015612550573d6000803e3d6000fd5b505050506040513d601f19601f82011682018060405250810190612574919061509a565b610195546040516325ad47ab60e21b81526001600160a01b038581166004830152909116906396b51eac90602401611daa565b61016254600090600160a01b900460ff16156125d657604051636822eceb60e11b815260040160405180910390fd5b61019560009054906101000a90046001600160a01b03166001600160a01b0316629c185f6040518163ffffffff1660e01b8152600401602060405180830381865afa158015612629573d6000803e3d6000fd5b505050506040513d601f19601f8201168201806040525081019061264d9190614b25565b1561266b576040516321e3430160e21b815260040160405180910390fd5b61019560009054906101000a90046001600160a01b03166001600160a01b031663533ae1296040518163ffffffff1660e01b8152600401600060405180830381600087803b1580156126bc57600080fd5b505af11580156126d0573d6000803e3d6000fd5b505061019554604051634eacc0fd60e01b8152600481018790528693506001600160a01b039091169150634eacc0fd906024016020604051808303816000875af1158015612722573d6000803e3d6000fd5b505050506040513d601f19601f820116820180604052508101906127469190614b25565b156127645760405163b04c001160e01b815260040160405180910390fd5b61276d83611b28565b84111561278d5760405163292b120160e01b815260040160405180910390fd5b6127978484613c37565b949350505050565b606060cd8054610c33906150b3565b6127b6613746565b6119368282613dec565b33600081815260ca602090815260408083206001600160a01b0387168452909152812054909190838110156128455760405162461bcd60e51b815260206004820152602560248201527f45524332303a2064656372656173656420616c6c6f77616e63652062656c6f77604482015264207a65726f60d81b6064820152608401610d78565b6128528286868403613790565b506001949350505050565b61016254600090600160b01b900460ff161561288c57604051630c98e6a160e31b815260040160405180910390fd5b61019560009054906101000a90046001600160a01b03166001600160a01b0316629c185f6040518163ffffffff1660e01b8152600401602060405180830381865afa1580156128df573d6000803e3d6000fd5b505050506040513d601f19601f820116820180604052508101906129039190614b25565b15612921576040516321e3430160e21b815260040160405180910390fd5b6101625460405163df592f7d60e01b81526001600160a01b03808616600483015285921690600090829063df592f7d90602401602060405180830381865afa158015612971573d6000803e3d6000fd5b505050506040513d601f19601f820116820180604052508101906129959190614b25565b905080156129b65760405163108a7eb160e21b815260040160405180910390fd5b336101625460405163df592f7d60e01b81526001600160a01b03838116600483015290911690600090829063df592f7d90602401602060405180830381865afa158015612a07573d6000803e3d6000fd5b505050506040513d601f19601f82011682018060405250810190612a2b9190614b25565b90508015612a4c5760405163108a7eb160e21b815260040160405180910390fd5b61019560009054906101000a90046001600160a01b03166001600160a01b031663533ae1296040518163ffffffff1660e01b8152600401600060405180830381600087803b158015612a9d57600080fd5b505af1158015612ab1573d6000803e3d6000fd5b50505050612ac5612abf3390565b8a6117f7565b612acf338a613566565b610195546000906001600160a01b031663d493e78c336040516001600160e01b031960e084901b1681526001600160a01b039182166004820152908d166024820152604401608060405180830381865afa158015612b31573d6000803e3d6000fd5b505050506040513d601f19601f82011682018060405250810190612b559190615104565b90506000612b638b8b613f20565b610195549091506001600160a01b031663eec0d65633610196548e90600160a01b900460ff168e8760006020020151886001602002015189600260200201518a600360200201516040516001600160e01b031960e08b901b1681526001600160a01b03988916600482015297909616602488015293151560448701526064860192909252608485015260a484015260c483015260e482015261010401600060405180830381600087803b158015612c1957600080fd5b505af1158015612c2d573d6000803e3d6000fd5b50929d9c50505050505050505050505050565b61016254600090600160a81b900460ff1615612c6f57604051636344d7b760e11b815260040160405180910390fd5b61019560009054906101000a90046001600160a01b03166001600160a01b0316629c185f6040518163ffffffff1660e01b8152600401602060405180830381865afa158015612cc2573d6000803e3d6000fd5b505050506040513d601f19601f82011682018060405250810190612ce69190614b25565b15612d04576040516321e3430160e21b815260040160405180910390fd5b61019560009054906101000a90046001600160a01b03166001600160a01b031663533ae1296040518163ffffffff1660e01b8152600401600060405180830381600087803b158015612d5557600080fd5b505af1158015612d69573d6000803e3d6000fd5b50506101955460405163cf0571d360e01b8152600481018890528793506001600160a01b03909116915063cf0571d3906024016020604051808303816000875af1158015612dbb573d6000803e3d6000fd5b505050506040513d601f19601f82011682018060405250810190612ddf9190614b25565b15612dfd5760405163922c089560e01b815260040160405180910390fd5b82612e0781613f2e565b612e0f6139db565b612e1a868686613f57565b9250612e27600161016355565b50509392505050565b60008142811015612e54576040516377a5c22160e11b815260040160405180910390fd5b61016254600160a81b900460ff1615612e8057604051636344d7b760e11b815260040160405180910390fd5b61019560009054906101000a90046001600160a01b03166001600160a01b0316629c185f6040518163ffffffff1660e01b8152600401602060405180830381865afa158015612ed3573d6000803e3d6000fd5b505050506040513d601f19601f82011682018060405250810190612ef79190614b25565b15612f15576040516321e3430160e21b815260040160405180910390fd5b61019560009054906101000a90046001600160a01b03166001600160a01b031663533ae1296040518163ffffffff1660e01b8152600401600060405180830381600087803b158015612f6657600080fd5b505af1158015612f7a573d6000803e3d6000fd5b50506101955460405163cf0571d360e01b8152600481018a90528993506001600160a01b03909116915063cf0571d3906024016020604051808303816000875af1158015612fcc573d6000803e3d6000fd5b505050506040513d601f19601f82011682018060405250810190612ff09190614b25565b1561300e5760405163922c089560e01b815260040160405180910390fd5b8461301881613f2e565b6130206139db565b61302b888888613f57565b9350613038600161016355565b505050949350505050565b610195546040516306443f4560e51b81526001600160a01b038381166004830152600092169063c887e8a090602401602060405180830381865afa15801561308f573d6000803e3d6000fd5b505050506040513d601f19601f82011682018060405250810190610cca919061509a565b834211156131035760405162461bcd60e51b815260206004820152601d60248201527f45524332305065726d69743a206578706972656420646561646c696e650000006044820152606401610d78565b60007f6e71edae12b1b97f4d1f60370fef10105fa2faae0126114a169c64845d6126c98888886131328c61415d565b6040805160208101969096526001600160a01b0394851690860152929091166060840152608083015260a082015260c0810186905260e001604051602081830303815290604052805190602001209050600061318d82614186565b9050600061319d828787876141b3565b9050896001600160a01b0316816001600160a01b0316146132005760405162461bcd60e51b815260206004820152601e60248201527f45524332305065726d69743a20696e76616c6964207369676e617475726500006044820152606401610d78565b61320b8a8a8a613790565b50505050505050505050565b61321f6136ec565b610162805463ffffffff60a01b1916630101010160a01b179055565b6132436136ec565b610162805460ff60a01b198116600160a01b9182900460ff1615909102179055565b60008142811015613289576040516377a5c22160e11b815260040160405180910390fd5b61016254600160a01b900460ff16156132b557604051636822eceb60e11b815260040160405180910390fd5b61019560009054906101000a90046001600160a01b03166001600160a01b0316629c185f6040518163ffffffff1660e01b8152600401602060405180830381865afa158015613308573d6000803e3d6000fd5b505050506040513d601f19601f8201168201806040525081019061332c9190614b25565b1561334a576040516321e3430160e21b815260040160405180910390fd5b61019560009054906101000a90046001600160a01b03166001600160a01b031663533ae1296040518163ffffffff1660e01b8152600401600060405180830381600087803b15801561339b57600080fd5b505af11580156133af573d6000803e3d6000fd5b505061019554604051634eacc0fd60e01b8152600481018990528893506001600160a01b039091169150634eacc0fd906024016020604051808303816000875af1158015613401573d6000803e3d6000fd5b505050506040513d601f19601f820116820180604052508101906134259190614b25565b156134435760405163b04c001160e01b815260040160405180910390fd5b858561344f8282613a36565b6134598888613c37565b98975050505050505050565b61346d6136ec565b610162805460ff60a81b198116600160a81b9182900460ff1615909102179055565b6134976136ec565b61019560009054906101000a90046001600160a01b03166001600160a01b03166384b584396040518163ffffffff1660e01b8152600401602060405180830381865afa1580156134eb573d6000803e3d6000fd5b505050506040513d601f19601f8201168201806040525081019061350f9190614b25565b151560000361353157604051632787395560e11b815260040160405180910390fd5b6040516001600160a01b038216904780156108fc02916000818181858888f19350505050158015611936573d6000803e3d6000fd5b61356f82612505565b156135d5576101955460405163242ffe5560e11b81526001600160a01b0384811660048301529091169063485ffcaa90602401600060405180830381600087803b1580156135bc57600080fd5b505af11580156135d0573d6000803e3d6000fd5b505050505b61019554604051635737ed7d60e01b81526001600160a01b03838116600483015290911690635737ed7d90602401600060405180830381600087803b15801561361d57600080fd5b505af1158015613631573d6000803e3d6000fd5b5050505061363e81612505565b15611936576101955460405163242ffe5560e11b81526001600160a01b0383811660048301529091169063485ffcaa90602401611903565b61367e6136ec565b6001600160a01b0381166136e35760405162461bcd60e51b815260206004820152602660248201527f4f776e61626c653a206e6577206f776e657220697320746865207a65726f206160448201526564647265737360d01b6064820152608401610d78565b611ae681613d7c565b6097546001600160a01b031633146124205760405162461bcd60e51b815260206004820181905260248201527f4f776e61626c653a2063616c6c6572206973206e6f7420746865206f776e65726044820152606401610d78565b610195546001600160a01b0316336001600160a01b0316146124205760405163e565d9cb60e01b815260040160405180910390fd5b600061378783836141db565b50600192915050565b6001600160a01b0383166137f25760405162461bcd60e51b8152602060048201526024808201527f45524332303a20617070726f76652066726f6d20746865207a65726f206164646044820152637265737360e01b6064820152608401610d78565b6001600160a01b0382166138535760405162461bcd60e51b815260206004820152602260248201527f45524332303a20617070726f766520746f20746865207a65726f206164647265604482015261737360f01b6064820152608401610d78565b6001600160a01b03838116600081815260ca602090815260408083209487168084529482529182902085905590518481527f8c5be1e5ebec7d5bd14f71427d1e84f3dd0314c0f7b2291e5b200ac8c7c3b925910160405180910390a3505050565b600054610100900460ff166138db5760405162461bcd60e51b8152600401610d78906151e2565b6119368282614253565b600054610100900460ff1661390c5760405162461bcd60e51b8152600401610d78906151e2565b611ae681604051806040016040528060018152602001603160f81b815250614293565b600054610100900460ff166139565760405162461bcd60e51b8152600401610d78906151e2565b61016280546001600160a01b0319166001600160a01b0392909216919091179055565b600054610100900460ff166139a05760405162461bcd60e51b8152600401610d78906151e2565b6124206142e2565b600054610100900460ff166124205760405162461bcd60e51b8152600401610d78906151e2565b60006137878383614312565b60026101635403613a2e5760405162461bcd60e51b815260206004820152601f60248201527f5265656e7472616e637947756172643a207265656e7472616e742063616c6c006044820152606401610d78565b600261016355565b81600003613a57576040516303e3e43960e51b815260040160405180910390fd5b613a6081611b28565b821115611936576040516314a4b53560e01b815260040160405180910390fd5b600033613a8e858285614384565b612852858585614416565b6000610b786145c1565b611ae66136ec565b7f4910fdfa16fed3260ed0e7147f7cc6da11a60208b5b9406d12a635614ffd91435460ff1615613ade57610c1f83614635565b826001600160a01b03166352d1902d6040518163ffffffff1660e01b8152600401602060405180830381865afa925050508015613b38575060408051601f3d908101601f19168201909252613b359181019061509a565b60015b613baa5760405162461bcd60e51b815260206004820152602e60248201527f45524331393637557067726164653a206e657720696d706c656d656e7461746960448201527f6f6e206973206e6f7420555550530000000000000000000000000000000000006064820152608401610d78565b7f360894a13ba1a3210667c828492db98dca3e2076cc3735a920a3ca505d382bbc8114613c2b5760405162461bcd60e51b815260206004820152602960248201527f45524331393637557067726164653a20756e737570706f727465642070726f786044820152681a58589b195555525160ba1b6064820152608401610d78565b50610c1f8383836146f3565b610195546040805163c14cfe0960e01b81523360048201526001600160a01b038481166024830152604482018690526064820186905291516000938693169163c14cfe09916084808301928792919082900301818387803b158015613c9b57600080fd5b505af1158015613caf573d6000803e3d6000fd5b50929695505050505050565b6001600160a01b038216613d115760405162461bcd60e51b815260206004820152601f60248201527f45524332303a206d696e7420746f20746865207a65726f2061646472657373006044820152606401610d78565b8060cb6000828254613d239190615198565b90915550506001600160a01b038216600081815260c960209081526040808320805486019055518481527fddf252ad1be2c89b69c2b068fc378daa952ba7f163c4a11628f55a4df523b3ef910160405180910390a35050565b609780546001600160a01b038381166001600160a01b0319831681179093556040519116919082907f8be0079c531659141344cd1fd0a4f28419497f9722a3daafe3b4186f6b6457e090600090a35050565b606060fd8054610c33906150b3565b606060fe8054610c33906150b3565b6001600160a01b038216613e4c5760405162461bcd60e51b815260206004820152602160248201527f45524332303a206275726e2066726f6d20746865207a65726f206164647265736044820152607360f81b6064820152608401610d78565b6001600160a01b038216600090815260c9602052604090205481811015613ec05760405162461bcd60e51b815260206004820152602260248201527f45524332303a206275726e20616d6f756e7420657863656564732062616c616e604482015261636560f01b6064820152608401610d78565b6001600160a01b038316600081815260c960209081526040808320868603905560cb80548790039055518581529192917fddf252ad1be2c89b69c2b068fc378daa952ba7f163c4a11628f55a4df523b3ef910160405180910390a3505050565b600033610cc4818585614416565b6001600160a01b0381163314611ae657604051637a45e68560e01b815260040160405180910390fd5b6101955460408051636ee545fd60e11b815290516000926001600160a01b03169163ddca8bfa9160048083019260209291908290030181865afa158015613fa2573d6000803e3d6000fd5b505050506040513d601f19601f82011682018060405250810190613fc6919061509a565b610195546040516325ad47ab60e21b81526001600160a01b038681166004830152909116906396b51eac90602401602060405180830381865afa158015614011573d6000803e3d6000fd5b505050506040513d601f19601f82011682018060405250810190614035919061509a565b1461409b576101955460405163242ffe5560e11b81526001600160a01b0385811660048301529091169063485ffcaa90602401600060405180830381600087803b15801561408257600080fd5b505af1158015614096573d6000803e3d6000fd5b505050505b6140a482613043565b8411156140c45760405163039eea9760e31b815260040160405180910390fd5b600084610195549091506001600160a01b0316633d82850b336040516001600160e01b031960e084901b1681526001600160a01b03918216600482015281881660248201529086166044820152606481018890526084810184905260a401600060405180830381600087803b15801561413c57600080fd5b505af1158015614150573d6000803e3d6000fd5b5092979650505050505050565b6001600160a01b038116600090815261012f602052604090208054600181018255905b50919050565b6000610cca614193613a99565b8360405161190160f01b8152600281019290925260228201526042902090565b60008060006141c487878787614718565b915091506141d1816147dc565b5095945050505050565b6001600160a01b0382166142315760405162461bcd60e51b815260206004820152601c60248201527f54726561737572792063616e6e6f74206265207a65726f2061646472000000006044820152606401610d78565b6001600160a01b03909116600090815260c96020526040902080549091019055565b600054610100900460ff1661427a5760405162461bcd60e51b8152600401610d78906151e2565b60cc6142868382615273565b5060cd610c1f8282615273565b600054610100900460ff166142ba5760405162461bcd60e51b8152600401610d78906151e2565b60fd6142c68382615273565b5060fe6142d38282615273565b5050600060fb81905560fc5550565b600054610100900460ff166143095760405162461bcd60e51b8152600401610d78906151e2565b61242033613d7c565b6001600160a01b0382166143685760405162461bcd60e51b815260206004820152601b60248201527f416464726573732063616e6e6f74206265207a65726f206164647200000000006044820152606401610d78565b6001600160a01b03909116600090815260c96020526040902055565b6001600160a01b03838116600090815260ca6020908152604080832093861683529290522054600019811461441057818110156144035760405162461bcd60e51b815260206004820152601d60248201527f45524332303a20696e73756666696369656e7420616c6c6f77616e63650000006044820152606401610d78565b6144108484848403613790565b50505050565b6001600160a01b03831661447a5760405162461bcd60e51b815260206004820152602560248201527f45524332303a207472616e736665722066726f6d20746865207a65726f206164604482015264647265737360d81b6064820152608401610d78565b6001600160a01b0382166144dc5760405162461bcd60e51b815260206004820152602360248201527f45524332303a207472616e7366657220746f20746865207a65726f206164647260448201526265737360e81b6064820152608401610d78565b6001600160a01b038316600090815260c96020526040902054818110156145545760405162461bcd60e51b815260206004820152602660248201527f45524332303a207472616e7366657220616d6f756e7420657863656564732062604482015265616c616e636560d01b6064820152608401610d78565b6001600160a01b03808516600081815260c9602052604080822086860390559286168082529083902080548601905591517fddf252ad1be2c89b69c2b068fc378daa952ba7f163c4a11628f55a4df523b3ef906145b49086815260200190565b60405180910390a3614410565b60007f8b73c3c69bb8fe3d512ecc4cf759cc79239f7b179b0ffacaa9a75d522b39400f6145ec614926565b6145f461497f565b60408051602081019490945283019190915260608201524660808201523060a082015260c00160405160208183030381529060405280519060200120905090565b6001600160a01b0381163b6146b25760405162461bcd60e51b815260206004820152602d60248201527f455243313936373a206e657720696d706c656d656e746174696f6e206973206e60448201527f6f74206120636f6e7472616374000000000000000000000000000000000000006064820152608401610d78565b7f360894a13ba1a3210667c828492db98dca3e2076cc3735a920a3ca505d382bbc80546001600160a01b0319166001600160a01b0392909216919091179055565b6146fc836149b0565b6000825111806147095750805b15610c1f5761441083836149f0565b6000807f7fffffffffffffffffffffffffffffff5d576e7357a4501ddfe92f46681b20a083111561474f57506000905060036147d3565b6040805160008082526020820180845289905260ff881692820192909252606081018690526080810185905260019060a0016020604051602081039080840390855afa1580156147a3573d6000803e3d6000fd5b5050604051601f1901519150506001600160a01b0381166147cc576000600192509250506147d3565b9150600090505b94509492505050565b60008160048111156147f0576147f0615333565b036147f85750565b600181600481111561480c5761480c615333565b036148595760405162461bcd60e51b815260206004820152601860248201527f45434453413a20696e76616c6964207369676e617475726500000000000000006044820152606401610d78565b600281600481111561486d5761486d615333565b036148ba5760405162461bcd60e51b815260206004820152601f60248201527f45434453413a20696e76616c6964207369676e6174757265206c656e677468006044820152606401610d78565b60038160048111156148ce576148ce615333565b03611ae65760405162461bcd60e51b815260206004820152602260248201527f45434453413a20696e76616c6964207369676e6174757265202773272076616c604482015261756560f01b6064820152608401610d78565b600080614931613dce565b805190915015614948578051602090910120919050565b60fb5480156149575792915050565b7fc5d2460186f7233c927e7db2dcc703c0e500b653ca82273b7bfad8045d85a4709250505090565b60008061498a613ddd565b8051909150156149a1578051602090910120919050565b60fc5480156149575792915050565b6149b981614635565b6040516001600160a01b038216907fbc7cd75a20ee27fd9adebab32041f755214dbc6bffa90cc0225b39da2e5c2d3b90600090a250565b60606123fe8383604051806060016040528060278152602001615366602791396060600080856001600160a01b031685604051614a2d9190615349565b600060405180830381855af49150503d8060008114614a68576040519150601f19603f3d011682016040523d82523d6000602084013e614a6d565b606091505b50915091506123448683838760608315614ae8578251600003614ae1576001600160a01b0385163b614ae15760405162461bcd60e51b815260206004820152601d60248201527f416464726573733a2063616c6c20746f206e6f6e2d636f6e74726163740000006044820152606401610d78565b5081612797565b6127978383815115614afd5781518083602001fd5b8060405162461bcd60e51b8152600401610d789190614bd3565b8015158114611ae657600080fd5b600060208284031215614b3757600080fd5b81516123fe81614b17565b6001600160a01b0381168114611ae657600080fd5b60008060408385031215614b6a57600080fd5b8235614b7581614b42565b946020939093013593505050565b60005b83811015614b9e578181015183820152602001614b86565b50506000910152565b60008151808452614bbf816020860160208601614b83565b601f01601f19169290920160200192915050565b6020815260006123fe6020830184614ba7565b600060208284031215614bf857600080fd5b5035919050565b634e487b7160e01b600052604160045260246000fd5b600067ffffffffffffffff80841115614c3057614c30614bff565b604051601f8501601f19908116603f01168101908282118183101715614c5857614c58614bff565b81604052809350858152868686011115614c7157600080fd5b858560208301376000602087830101525050509392505050565b600082601f830112614c9c57600080fd5b6123fe83833560208501614c15565b60008060008060008060c08789031215614cc457600080fd5b863567ffffffffffffffff80821115614cdc57600080fd5b614ce88a838b01614c8b565b97506020890135915080821115614cfe57600080fd5b50614d0b89828a01614c8b565b9550506040870135614d1c81614b42565b93506060870135614d2c81614b42565b92506080870135614d3c81614b17565b915060a0870135614d4c81614b42565b809150509295509295509295565b600060208284031215614d6c57600080fd5b81356123fe81614b42565b600080600060608486031215614d8c57600080fd5b8335614d9781614b42565b92506020840135614da781614b42565b929592945050506040919091013590565b60008060408385031215614dcb57600080fd5b8235614dd681614b42565b91506020830135614de681614b42565b809150509250929050565b60008060408385031215614e0457600080fd5b8235614e0f81614b42565b9150602083013567ffffffffffffffff811115614e2b57600080fd5b8301601f81018513614e3c57600080fd5b614e4b85823560208401614c15565b9150509250929050565b803560ff8116811461141d57600080fd5b60008060008060008060c08789031215614e7f57600080fd5b863595506020870135614e9181614b42565b945060408701359350614ea660608801614e55565b92506080870135915060a087013590509295509295509295565b60008060408385031215614ed357600080fd5b823591506020830135614de681614b42565b60ff60f81b881681526000602060e081840152614f0560e084018a614ba7565b8381036040850152614f17818a614ba7565b606085018990526001600160a01b038816608086015260a0850187905284810360c0860152855180825283870192509083019060005b81811015614f6957835183529284019291840191600101614f4d565b50909c9b505050505050505050505050565b600080600060608486031215614f9057600080fd5b833592506020840135614fa281614b42565b91506040840135614fb281614b42565b809150509250925092565b60008060008060808587031215614fd357600080fd5b843593506020850135614fe581614b42565b92506040850135614ff581614b42565b9396929550929360600135925050565b600080600080600080600060e0888a03121561502057600080fd5b873561502b81614b42565b9650602088013561503b81614b42565b9550604088013594506060880135935061505760808901614e55565b925060a0880135915060c0880135905092959891949750929550565b60008060006060848603121561508857600080fd5b833592506020840135614da781614b42565b6000602082840312156150ac57600080fd5b5051919050565b600181811c908216806150c757607f821691505b60208210810361418057634e487b7160e01b600052602260045260246000fd5b6000602082840312156150f957600080fd5b81516123fe81614b42565b60006080828403121561511657600080fd5b82601f83011261512557600080fd5b6040516080810181811067ffffffffffffffff8211171561514857615148614bff565b60405280608084018581111561515d57600080fd5b845b8181101561517757805183526020928301920161515f565b509195945050505050565b634e487b7160e01b600052601160045260246000fd5b80820180821115610cca57610cca615182565b81810381811115610cca57610cca615182565b600080604083850312156151d157600080fd5b505080516020909101519092909150565b6020808252602b908201527f496e697469616c697a61626c653a20636f6e7472616374206973206e6f74206960408201526a6e697469616c697a696e6760a81b606082015260800190565b601f821115610c1f57600081815260208120601f850160051c810160208610156152545750805b601f850160051c820191505b8181101561193157828155600101615260565b815167ffffffffffffffff81111561528d5761528d614bff565b6152a18161529b84546150b3565b8461522d565b602080601f8311600181146152d657600084156152be5750858301515b600019600386901b1c1916600185901b178555611931565b600085815260208120601f198616915b82811015615305578886015182559484019460019091019084016152e6565b50858210156153235787850151600019600388901b60f8161c191681555b5050505050600190811b01905550565b634e487b7160e01b600052602160045260246000fd5b6000825161535b818460208701614b83565b919091019291505056fe416464726573733a206c6f772d6c6576656c2064656c65676174652063616c6c206661696c6564a26469706673582212206272b2caebb592f732313db08aba90cf1e7d01a8248ebe984553e6a3b1b70cca64736f6c63430008110033",
  "linkReferences": {},
  "deployedLinkReferences": {}
}