{
  "_format": "hh-sol-artifact-1",
  "contractName": "SmartToken",
  "sourceName": "contracts/vaults/SmartToken.sol",
  "abi": [
    {
      "inputs": [],
      "stateMutability": "nonpayable",
      "type": "constructor"
    },
    {
      "inputs": [],
      "name": "BaseContract__DepositCircuitBreaker",
      "type": "error"
    },
    {
      "inputs": [],
      "name": "BaseContract__RebalanceCircuitBreaker",
      "type": "error"
    },
    {
      "inputs": [],
      "name": "BaseContract__SanctionedAddress",
      "type": "error"
    },
    {
      "inputs": [],
      "name": "BaseContract__TransferCircuitBreaker",
      "type": "error"
    },
    {
      "inputs": [],
      "name": "BaseContract__WithdrawCircuitBreaker",
      "type": "error"
    },
    {
      "inputs": [],
      "name": "SmartToken__DepositMoreThanMax",
      "type": "error"
    },
    {
      "inputs": [],
      "name": "SmartToken__InsufficientUnderlying",
      "type": "error"
    },
    {
      "inputs": [],
      "name": "SmartToken__MethodNotAllowed",
      "type": "error"
    },
    {
      "inputs": [],
      "name": "SmartToken__MintMoreThanMax",
      "type": "error"
    },
    {
      "inputs": [],
      "name": "SmartToken__NotTokenFactory",
      "type": "error"
    },
    {
      "inputs": [],
      "name": "SmartToken__OnlyAssetOwner",
      "type": "error"
    },
    {
      "inputs": [],
      "name": "SmartToken__RedeemMoreThanMax",
      "type": "error"
    },
    {
      "inputs": [],
      "name": "SmartToken__WithdrawMoreThanMax",
      "type": "error"
    },
    {
      "inputs": [],
      "name": "SmartToken__ZeroDeposit",
      "type": "error"
    },
    {
      "anonymous": false,
      "inputs": [
        {
          "indexed": false,
          "internalType": "address",
          "name": "previousAdmin",
          "type": "address"
        },
        {
          "indexed": false,
          "internalType": "address",
          "name": "newAdmin",
          "type": "address"
        }
      ],
      "name": "AdminChanged",
      "type": "event"
    },
    {
      "anonymous": false,
      "inputs": [
        {
          "indexed": true,
          "internalType": "address",
          "name": "owner",
          "type": "address"
        },
        {
          "indexed": true,
          "internalType": "address",
          "name": "spender",
          "type": "address"
        },
        {
          "indexed": false,
          "internalType": "uint256",
          "name": "value",
          "type": "uint256"
        }
      ],
      "name": "Approval",
      "type": "event"
    },
    {
      "anonymous": false,
      "inputs": [
        {
          "indexed": true,
          "internalType": "address",
          "name": "beacon",
          "type": "address"
        }
      ],
      "name": "BeaconUpgraded",
      "type": "event"
    },
    {
      "anonymous": false,
      "inputs": [
        {
          "indexed": true,
          "internalType": "address",
          "name": "sender",
          "type": "address"
        },
        {
          "indexed": true,
          "internalType": "address",
          "name": "owner",
          "type": "address"
        },
        {
          "indexed": false,
          "internalType": "uint256",
          "name": "assets",
          "type": "uint256"
        },
        {
          "indexed": false,
          "internalType": "uint256",
          "name": "shares",
          "type": "uint256"
        }
      ],
      "name": "Deposit",
      "type": "event"
    },
    {
      "anonymous": false,
      "inputs": [],
      "name": "EIP712DomainChanged",
      "type": "event"
    },
    {
      "anonymous": false,
      "inputs": [
        {
          "indexed": false,
          "internalType": "uint8",
          "name": "version",
          "type": "uint8"
        }
      ],
      "name": "Initialized",
      "type": "event"
    },
    {
      "anonymous": false,
      "inputs": [
        {
          "indexed": true,
          "internalType": "address",
          "name": "previousOwner",
          "type": "address"
        },
        {
          "indexed": true,
          "internalType": "address",
          "name": "newOwner",
          "type": "address"
        }
      ],
      "name": "OwnershipTransferred",
      "type": "event"
    },
    {
      "anonymous": false,
      "inputs": [
        {
          "indexed": true,
          "internalType": "address",
          "name": "from",
          "type": "address"
        },
        {
          "indexed": true,
          "internalType": "address",
          "name": "to",
          "type": "address"
        },
        {
          "indexed": false,
          "internalType": "uint256",
          "name": "value",
          "type": "uint256"
        }
      ],
      "name": "Transfer",
      "type": "event"
    },
    {
      "anonymous": false,
      "inputs": [
        {
          "indexed": true,
          "internalType": "address",
          "name": "implementation",
          "type": "address"
        }
      ],
      "name": "Upgraded",
      "type": "event"
    },
    {
      "anonymous": false,
      "inputs": [
        {
          "indexed": true,
          "internalType": "address",
          "name": "sender",
          "type": "address"
        },
        {
          "indexed": true,
          "internalType": "address",
          "name": "receiver",
          "type": "address"
        },
        {
          "indexed": true,
          "internalType": "address",
          "name": "owner",
          "type": "address"
        },
        {
          "indexed": false,
          "internalType": "uint256",
          "name": "assets",
          "type": "uint256"
        },
        {
          "indexed": false,
          "internalType": "uint256",
          "name": "shares",
          "type": "uint256"
        }
      ],
      "name": "Withdraw",
      "type": "event"
    },
    {
      "inputs": [],
      "name": "DOMAIN_SEPARATOR",
      "outputs": [
        {
          "internalType": "bytes32",
          "name": "",
          "type": "bytes32"
        }
      ],
      "stateMutability": "view",
      "type": "function"
    },
    {
      "inputs": [
        {
          "internalType": "address",
          "name": "owner",
          "type": "address"
        },
        {
          "internalType": "address",
          "name": "spender",
          "type": "address"
        }
      ],
      "name": "allowance",
      "outputs": [
        {
          "internalType": "uint256",
          "name": "",
          "type": "uint256"
        }
      ],
      "stateMutability": "view",
      "type": "function"
    },
    {
      "inputs": [
        {
          "internalType": "address",
          "name": "spender",
          "type": "address"
        },
        {
          "internalType": "uint256",
          "name": "amount",
          "type": "uint256"
        }
      ],
      "name": "approve",
      "outputs": [
        {
          "internalType": "bool",
          "name": "",
          "type": "bool"
        }
      ],
      "stateMutability": "nonpayable",
      "type": "function"
    },
    {
      "inputs": [],
      "name": "asset",
      "outputs": [
        {
          "internalType": "address",
          "name": "",
          "type": "address"
        }
      ],
      "stateMutability": "view",
      "type": "function"
    },
    {
      "inputs": [
        {
          "internalType": "address",
          "name": "account",
          "type": "address"
        }
      ],
      "name": "balanceOf",
      "outputs": [
        {
          "internalType": "uint256",
          "name": "",
          "type": "uint256"
        }
      ],
      "stateMutability": "view",
      "type": "function"
    },
    {
      "inputs": [
        {
          "internalType": "address",
          "name": "account",
          "type": "address"
        },
        {
          "internalType": "uint256",
          "name": "amount",
          "type": "uint256"
        }
      ],
      "name": "burn",
      "outputs": [],
      "stateMutability": "nonpayable",
      "type": "function"
    },
    {
      "inputs": [
        {
          "internalType": "uint256",
          "name": "shares",
          "type": "uint256"
        }
      ],
      "name": "convertToAssets",
      "outputs": [
        {
          "internalType": "uint256",
          "name": "assets",
          "type": "uint256"
        }
      ],
      "stateMutability": "view",
      "type": "function"
    },
    {
      "inputs": [
        {
          "internalType": "uint256",
          "name": "assets",
          "type": "uint256"
        }
      ],
      "name": "convertToShares",
      "outputs": [
        {
          "internalType": "uint256",
          "name": "shares",
          "type": "uint256"
        }
      ],
      "stateMutability": "view",
      "type": "function"
    },
    {
      "inputs": [],
      "name": "decimals",
      "outputs": [
        {
          "internalType": "uint8",
          "name": "",
          "type": "uint8"
        }
      ],
      "stateMutability": "view",
      "type": "function"
    },
    {
      "inputs": [
        {
          "internalType": "address",
          "name": "spender",
          "type": "address"
        },
        {
          "internalType": "uint256",
          "name": "subtractedValue",
          "type": "uint256"
        }
      ],
      "name": "decreaseAllowance",
      "outputs": [
        {
          "internalType": "bool",
          "name": "",
          "type": "bool"
        }
      ],
      "stateMutability": "nonpayable",
      "type": "function"
    },
    {
      "inputs": [
        {
          "internalType": "uint256",
          "name": "assets",
          "type": "uint256"
        },
        {
          "internalType": "address",
          "name": "receiver",
          "type": "address"
        }
      ],
      "name": "deposit",
      "outputs": [
        {
          "internalType": "uint256",
          "name": "",
          "type": "uint256"
        }
      ],
      "stateMutability": "nonpayable",
      "type": "function"
    },
    {
      "inputs": [
        {
          "internalType": "uint256",
          "name": "assets",
          "type": "uint256"
        },
        {
          "internalType": "address",
          "name": "receiver",
          "type": "address"
        },
        {
          "internalType": "uint256",
          "name": "deadline",
          "type": "uint256"
        },
        {
          "internalType": "uint8",
          "name": "v",
          "type": "uint8"
        },
        {
          "internalType": "bytes32",
          "name": "r",
          "type": "bytes32"
        },
        {
          "internalType": "bytes32",
          "name": "s",
          "type": "bytes32"
        }
      ],
      "name": "depositWithPermit",
      "outputs": [
        {
          "internalType": "uint256",
          "name": "",
          "type": "uint256"
        }
      ],
      "stateMutability": "nonpayable",
      "type": "function"
    },
    {
      "inputs": [],
      "name": "eip712Domain",
      "outputs": [
        {
          "internalType": "bytes1",
          "name": "fields",
          "type": "bytes1"
        },
        {
          "internalType": "string",
          "name": "name",
          "type": "string"
        },
        {
          "internalType": "string",
          "name": "version",
          "type": "string"
        },
        {
          "internalType": "uint256",
          "name": "chainId",
          "type": "uint256"
        },
        {
          "internalType": "address",
          "name": "verifyingContract",
          "type": "address"
        },
        {
          "internalType": "bytes32",
          "name": "salt",
          "type": "bytes32"
        },
        {
          "internalType": "uint256[]",
          "name": "extensions",
          "type": "uint256[]"
        }
      ],
      "stateMutability": "view",
      "type": "function"
    },
    {
      "inputs": [],
      "name": "getTokenFactory",
      "outputs": [
        {
          "internalType": "address",
          "name": "",
          "type": "address"
        }
      ],
      "stateMutability": "view",
      "type": "function"
    },
    {
      "inputs": [
        {
          "internalType": "address",
          "name": "sender",
          "type": "address"
        },
        {
          "internalType": "address",
          "name": "receiver",
          "type": "address"
        }
      ],
      "name": "handlePendingRebalance",
      "outputs": [],
      "stateMutability": "nonpayable",
      "type": "function"
    },
    {
      "inputs": [
        {
          "internalType": "address",
          "name": "account",
          "type": "address"
        }
      ],
      "name": "hasPendingRebalance",
      "outputs": [
        {
          "internalType": "bool",
          "name": "",
          "type": "bool"
        }
      ],
      "stateMutability": "view",
      "type": "function"
    },
    {
      "inputs": [
        {
          "internalType": "address",
          "name": "spender",
          "type": "address"
        },
        {
          "internalType": "uint256",
          "name": "addedValue",
          "type": "uint256"
        }
      ],
      "name": "increaseAllowance",
      "outputs": [
        {
          "internalType": "bool",
          "name": "",
          "type": "bool"
        }
      ],
      "stateMutability": "nonpayable",
      "type": "function"
    },
    {
      "inputs": [
        {
          "internalType": "string",
          "name": "tokenName",
          "type": "string"
        },
        {
          "internalType": "string",
          "name": "tokenSymbol",
          "type": "string"
        },
        {
          "internalType": "address",
          "name": "factoryAddress",
          "type": "address"
        },
        {
          "internalType": "address",
          "name": "sanctionsContract_",
          "type": "address"
        },
        {
          "internalType": "bool",
          "name": "isX_",
          "type": "bool"
        },
        {
          "internalType": "address",
          "name": "owner_",
          "type": "address"
        }
      ],
      "name": "initialize",
      "outputs": [],
      "stateMutability": "nonpayable",
      "type": "function"
    },
    {
      "inputs": [],
      "name": "isDepositCircuitBreaker",
      "outputs": [
        {
          "internalType": "bool",
          "name": "",
          "type": "bool"
        }
      ],
      "stateMutability": "view",
      "type": "function"
    },
    {
      "inputs": [],
      "name": "isRebalanceCircuitBreaker",
      "outputs": [
        {
          "internalType": "bool",
          "name": "",
          "type": "bool"
        }
      ],
      "stateMutability": "view",
      "type": "function"
    },
    {
      "inputs": [],
      "name": "isTransferCircuitBreaker",
      "outputs": [
        {
          "internalType": "bool",
          "name": "",
          "type": "bool"
        }
      ],
      "stateMutability": "view",
      "type": "function"
    },
    {
      "inputs": [],
      "name": "isWithdrawCircuitBreaker",
      "outputs": [
        {
          "internalType": "bool",
          "name": "",
          "type": "bool"
        }
      ],
      "stateMutability": "view",
      "type": "function"
    },
    {
      "inputs": [
        {
          "internalType": "address",
          "name": "account",
          "type": "address"
        }
      ],
      "name": "maxDeposit",
      "outputs": [
        {
          "internalType": "uint256",
          "name": "",
          "type": "uint256"
        }
      ],
      "stateMutability": "view",
      "type": "function"
    },
    {
      "inputs": [
        {
          "internalType": "address",
          "name": "account",
          "type": "address"
        }
      ],
      "name": "maxMint",
      "outputs": [
        {
          "internalType": "uint256",
          "name": "",
          "type": "uint256"
        }
      ],
      "stateMutability": "view",
      "type": "function"
    },
    {
      "inputs": [
        {
          "internalType": "address",
          "name": "owner_",
          "type": "address"
        }
      ],
      "name": "maxRedeem",
      "outputs": [
        {
          "internalType": "uint256",
          "name": "",
          "type": "uint256"
        }
      ],
      "stateMutability": "view",
      "type": "function"
    },
    {
      "inputs": [
        {
          "internalType": "address",
          "name": "owner_",
          "type": "address"
        }
      ],
      "name": "maxWithdraw",
      "outputs": [
        {
          "internalType": "uint256",
          "name": "",
          "type": "uint256"
        }
      ],
      "stateMutability": "view",
      "type": "function"
    },
    {
      "inputs": [
        {
          "internalType": "uint256",
          "name": "shares",
          "type": "uint256"
        },
        {
          "internalType": "address",
          "name": "receiver",
          "type": "address"
        }
      ],
      "name": "mint",
      "outputs": [
        {
          "internalType": "uint256",
          "name": "",
          "type": "uint256"
        }
      ],
      "stateMutability": "nonpayable",
      "type": "function"
    },
    {
      "inputs": [
        {
          "internalType": "address",
          "name": "receiver",
          "type": "address"
        },
        {
          "internalType": "uint256",
          "name": "amount",
          "type": "uint256"
        }
      ],
      "name": "mintAsset",
      "outputs": [],
      "stateMutability": "nonpayable",
      "type": "function"
    },
    {
      "inputs": [],
      "name": "name",
      "outputs": [
        {
          "internalType": "string",
          "name": "",
          "type": "string"
        }
      ],
      "stateMutability": "view",
      "type": "function"
    },
    {
      "inputs": [
        {
          "internalType": "address",
          "name": "owner",
          "type": "address"
        }
      ],
      "name": "nonces",
      "outputs": [
        {
          "internalType": "uint256",
          "name": "",
          "type": "uint256"
        }
      ],
      "stateMutability": "view",
      "type": "function"
    },
    {
      "inputs": [],
      "name": "owner",
      "outputs": [
        {
          "internalType": "address",
          "name": "",
          "type": "address"
        }
      ],
      "stateMutability": "view",
      "type": "function"
    },
    {
      "inputs": [
        {
          "internalType": "address",
          "name": "owner",
          "type": "address"
        },
        {
          "internalType": "address",
          "name": "spender",
          "type": "address"
        },
        {
          "internalType": "uint256",
          "name": "value",
          "type": "uint256"
        },
        {
          "internalType": "uint256",
          "name": "deadline",
          "type": "uint256"
        },
        {
          "internalType": "uint8",
          "name": "v",
          "type": "uint8"
        },
        {
          "internalType": "bytes32",
          "name": "r",
          "type": "bytes32"
        },
        {
          "internalType": "bytes32",
          "name": "s",
          "type": "bytes32"
        }
      ],
      "name": "permit",
      "outputs": [],
      "stateMutability": "nonpayable",
      "type": "function"
    },
    {
      "inputs": [
        {
          "internalType": "uint256",
          "name": "assets",
          "type": "uint256"
        }
      ],
      "name": "previewDeposit",
      "outputs": [
        {
          "internalType": "uint256",
          "name": "",
          "type": "uint256"
        }
      ],
      "stateMutability": "view",
      "type": "function"
    },
    {
      "inputs": [
        {
          "internalType": "uint256",
          "name": "shares",
          "type": "uint256"
        }
      ],
      "name": "previewMint",
      "outputs": [
        {
          "internalType": "uint256",
          "name": "",
          "type": "uint256"
        }
      ],
      "stateMutability": "view",
      "type": "function"
    },
    {
      "inputs": [
        {
          "internalType": "uint256",
          "name": "shares",
          "type": "uint256"
        }
      ],
      "name": "previewRedeem",
      "outputs": [
        {
          "internalType": "uint256",
          "name": "",
          "type": "uint256"
        }
      ],
      "stateMutability": "view",
      "type": "function"
    },
    {
      "inputs": [
        {
          "internalType": "uint256",
          "name": "assets",
          "type": "uint256"
        }
      ],
      "name": "previewWithdraw",
      "outputs": [
        {
          "internalType": "uint256",
          "name": "",
          "type": "uint256"
        }
      ],
      "stateMutability": "view",
      "type": "function"
    },
    {
      "inputs": [],
      "name": "proxiableUUID",
      "outputs": [
        {
          "internalType": "bytes32",
          "name": "",
          "type": "bytes32"
        }
      ],
      "stateMutability": "view",
      "type": "function"
    },
    {
      "inputs": [
        {
          "internalType": "uint256",
          "name": "shares",
          "type": "uint256"
        },
        {
          "internalType": "address",
          "name": "receiver",
          "type": "address"
        },
        {
          "internalType": "address",
          "name": "owner_",
          "type": "address"
        }
      ],
      "name": "redeem",
      "outputs": [
        {
          "internalType": "uint256",
          "name": "",
          "type": "uint256"
        }
      ],
      "stateMutability": "nonpayable",
      "type": "function"
    },
    {
      "inputs": [],
      "name": "renounceOwnership",
      "outputs": [],
      "stateMutability": "nonpayable",
      "type": "function"
    },
    {
      "inputs": [],
      "name": "resumeAllCircuitBreakers",
      "outputs": [],
      "stateMutability": "nonpayable",
      "type": "function"
    },
    {
      "inputs": [
        {
          "internalType": "address",
          "name": "account",
          "type": "address"
        },
        {
          "internalType": "uint256",
          "name": "amount",
          "type": "uint256"
        }
      ],
      "name": "smartBalanceAdjust",
      "outputs": [],
      "stateMutability": "nonpayable",
      "type": "function"
    },
    {
      "inputs": [
        {
          "internalType": "address",
          "name": "treasuryAddress",
          "type": "address"
        },
        {
          "internalType": "uint256",
          "name": "amount",
          "type": "uint256"
        }
      ],
      "name": "smartTreasuryTransfer",
      "outputs": [],
      "stateMutability": "nonpayable",
      "type": "function"
    },
    {
      "inputs": [],
      "name": "stopAllCircuitBreakers",
      "outputs": [],
      "stateMutability": "nonpayable",
      "type": "function"
    },
    {
      "inputs": [],
      "name": "symbol",
      "outputs": [
        {
          "internalType": "string",
          "name": "",
          "type": "string"
        }
      ],
      "stateMutability": "view",
      "type": "function"
    },
    {
      "inputs": [],
      "name": "toggleDepositCircuitBreaker",
      "outputs": [],
      "stateMutability": "nonpayable",
      "type": "function"
    },
    {
      "inputs": [],
      "name": "toggleRebalanceCircuitBreaker",
      "outputs": [],
      "stateMutability": "nonpayable",
      "type": "function"
    },
    {
      "inputs": [],
      "name": "toggleTransferCircuitBreaker",
      "outputs": [],
      "stateMutability": "nonpayable",
      "type": "function"
    },
    {
      "inputs": [],
      "name": "toggleWithdrawCircuitBreaker",
      "outputs": [],
      "stateMutability": "nonpayable",
      "type": "function"
    },
    {
      "inputs": [],
      "name": "totalAssets",
      "outputs": [
        {
          "internalType": "uint256",
          "name": "",
          "type": "uint256"
        }
      ],
      "stateMutability": "view",
      "type": "function"
    },
    {
      "inputs": [],
      "name": "totalSupply",
      "outputs": [
        {
          "internalType": "uint256",
          "name": "",
          "type": "uint256"
        }
      ],
      "stateMutability": "view",
      "type": "function"
    },
    {
      "inputs": [
        {
          "internalType": "address",
          "name": "recipient",
          "type": "address"
        },
        {
          "internalType": "uint256",
          "name": "amount",
          "type": "uint256"
        }
      ],
      "name": "transfer",
      "outputs": [
        {
          "internalType": "bool",
          "name": "",
          "type": "bool"
        }
      ],
      "stateMutability": "nonpayable",
      "type": "function"
    },
    {
      "inputs": [
        {
          "internalType": "address",
          "name": "sender",
          "type": "address"
        },
        {
          "internalType": "address",
          "name": "recipient",
          "type": "address"
        },
        {
          "internalType": "uint256",
          "name": "amount",
          "type": "uint256"
        }
      ],
      "name": "transferFrom",
      "outputs": [
        {
          "internalType": "bool",
          "name": "",
          "type": "bool"
        }
      ],
      "stateMutability": "nonpayable",
      "type": "function"
    },
    {
      "inputs": [
        {
          "internalType": "address",
          "name": "newOwner",
          "type": "address"
        }
      ],
      "name": "transferOwnership",
      "outputs": [],
      "stateMutability": "nonpayable",
      "type": "function"
    },
    {
      "inputs": [
        {
          "internalType": "address",
          "name": "account",
          "type": "address"
        }
      ],
      "name": "unScaledbalanceOf",
      "outputs": [
        {
          "internalType": "uint256",
          "name": "",
          "type": "uint256"
        }
      ],
      "stateMutability": "view",
      "type": "function"
    },
    {
      "inputs": [
        {
          "internalType": "address",
          "name": "newImplementation",
          "type": "address"
        }
      ],
      "name": "upgradeTo",
      "outputs": [],
      "stateMutability": "nonpayable",
      "type": "function"
    },
    {
      "inputs": [
        {
          "internalType": "address",
          "name": "newImplementation",
          "type": "address"
        },
        {
          "internalType": "bytes",
          "name": "data",
          "type": "bytes"
        }
      ],
      "name": "upgradeToAndCall",
      "outputs": [],
      "stateMutability": "payable",
      "type": "function"
    },
    {
      "inputs": [
        {
          "internalType": "uint256",
          "name": "assets",
          "type": "uint256"
        },
        {
          "internalType": "address",
          "name": "receiver",
          "type": "address"
        },
        {
          "internalType": "address",
          "name": "owner_",
          "type": "address"
        }
      ],
      "name": "withdraw",
      "outputs": [
        {
          "internalType": "uint256",
          "name": "",
          "type": "uint256"
        }
      ],
      "stateMutability": "nonpayable",
      "type": "function"
    }
  ],
  "bytecode": "0x60a0604052306080523480156200001557600080fd5b506200002062000030565b6200002a62000030565b620000f1565b600054610100900460ff16156200009d5760405162461bcd60e51b815260206004820152602760248201527f496e697469616c697a61626c653a20636f6e747261637420697320696e697469604482015266616c697a696e6760c81b606482015260840160405180910390fd5b60005460ff90811614620000ef576000805460ff191660ff9081179091556040519081527f7f26b83ff96e1f2b6a682f133852f6798a09c465da95921460cefb38474024989060200160405180910390a15b565b6080516153126200012960003960008181611423015281816114b9015281816116b2015281816117480152611aba01526153126000f3fe6080604052600436106103765760003560e01c80637ecebe00116101d1578063b460af9411610102578063d78f0921116100a0578063ef8b30f71161006f578063ef8b30f7146103fc578063f077fd3c14610962578063f2fde38b14610982578063fd6064b3146109a257600080fd5b8063d78f0921146108f2578063d905777e1461089d578063dd62ed3e14610907578063e58127311461094d57600080fd5b8063c6e6f592116100dc578063c6e6f592146103fc578063ce96cb771461089d578063d505accf146108bd578063d69f62e0146108dd57600080fd5b8063b460af941461085d578063ba0876521461087d578063c63d75b6146105ac57600080fd5b806394bf804d1161016f578063a457c2d711610149578063a457c2d7146107eb578063a9059cbb1461080b578063b1dbfcee1461082b578063b3d7f6b9146103fc57600080fd5b806394bf804d1461079657806395d89b41146107b65780639dc29fac146107cb57600080fd5b80638da5cb5b116101ab5780638da5cb5b146107195780638f4cef0c146107375780638f50bd1314610757578063925d6ba21461077757600080fd5b80637ecebe001461069e57806384b0196e146106be57806385f2eac0146106e657600080fd5b80633644e515116102ab57806350921b23116102495780636a300529116102235780636a300529146106345780636e553f651461064957806370a0823114610669578063715018a61461068957600080fd5b806350921b23146105df57806352d1902d146105ff5780635f758bef1461061457600080fd5b80633950935111610285578063395093511461058c578063402d267d146105ac5780634cdad506146103fc5780634f1ef286146105cc57600080fd5b80633644e515146105245780633659cfe61461053957806338d52e0f1461055957600080fd5b806312cfca381161031857806323b872dd116102f257806323b872dd1461049f57806327a44ed0146104bf57806330928009146104f3578063313ce5671461050857600080fd5b806312cfca381461044a57806316b535f41461046a57806318160ddd1461048a57600080fd5b806306fdde031161035457806306fdde03146103da57806307a2d13a146103fc578063095ea7b31461041a5780630a28a477146103fc57600080fd5b806301e1d1141461037b578063030d4ed7146103a357806305bfee33146103ba575b600080fd5b34801561038757600080fd5b506103906109d3565b6040519081526020015b60405180910390f35b3480156103af57600080fd5b506103b8610a68565b005b3480156103c657600080fd5b506103b86103d5366004614a20565b610a9b565b3480156103e657600080fd5b506103ef610b51565b60405161039a9190614aba565b34801561040857600080fd5b50610390610417366004614acd565b90565b34801561042657600080fd5b5061043a610435366004614a20565b610be3565b604051901515815260200161039a565b34801561045657600080fd5b506103b8610465366004614bd7565b610bfd565b34801561047657600080fd5b506103b8610485366004614a20565b610eb2565b34801561049657600080fd5b5060cb54610390565b3480156104ab57600080fd5b5061043a6104ba366004614c86565b610f6b565b3480156104cb57600080fd5b506101625477010000000000000000000000000000000000000000000000900460ff1661043a565b3480156104ff57600080fd5b506103b86113b6565b34801561051457600080fd5b506040516012815260200161039a565b34801561053057600080fd5b5061039061140f565b34801561054557600080fd5b506103b8610554366004614cc7565b611419565b34801561056557600080fd5b50610196546001600160a01b03165b6040516001600160a01b03909116815260200161039a565b34801561059857600080fd5b5061043a6105a7366004614a20565b6115b6565b3480156105b857600080fd5b506103906105c7366004614cc7565b6115f5565b6103b86105da366004614ce4565b6116a8565b3480156105eb57600080fd5b506103906105fa366004614d59565b611836565b34801561060b57600080fd5b50610390611aad565b34801561062057600080fd5b506103b861062f366004614a20565b611b72565b34801561064057600080fd5b506103b8611b84565b34801561065557600080fd5b50610390610664366004614db3565b611bdc565b34801561067557600080fd5b50610390610684366004614cc7565b611d99565b34801561069557600080fd5b506103b8611e79565b3480156106aa57600080fd5b506103906106b9366004614cc7565b611e8d565b3480156106ca57600080fd5b506106d3611eac565b60405161039a9796959493929190614de3565b3480156106f257600080fd5b5061016254760100000000000000000000000000000000000000000000900460ff1661043a565b34801561072557600080fd5b506097546001600160a01b0316610574565b34801561074357600080fd5b50610390610752366004614cc7565b611f6e565b34801561076357600080fd5b5061043a610772366004614cc7565b611f8c565b34801561078357600080fd5b50610195546001600160a01b0316610574565b3480156107a257600080fd5b506103906107b1366004614db3565b6120a4565b3480156107c257600080fd5b506103ef612295565b3480156107d757600080fd5b506103b86107e6366004614a20565b6122a4565b3480156107f757600080fd5b5061043a610806366004614a20565b6122b6565b34801561081757600080fd5b5061043a610826366004614a20565b61236b565b34801561083757600080fd5b50610162547501000000000000000000000000000000000000000000900460ff1661043a565b34801561086957600080fd5b50610390610878366004614e95565b6127bf565b34801561088957600080fd5b50610390610898366004614e95565b612b46565b3480156108a957600080fd5b506103906108b8366004614cc7565b612e89565b3480156108c957600080fd5b506103b86108d8366004614ed7565b612f12565b3480156108e957600080fd5b506103b8613076565b3480156108fe57600080fd5b506103b86130c3565b34801561091357600080fd5b50610390610922366004614f45565b6001600160a01b03918216600090815260ca6020908152604080832093909416825291909152205490565b34801561095957600080fd5b506103b8613119565b34801561096e57600080fd5b506103b861097d366004614f45565b613170565b34801561098e57600080fd5b506103b861099d366004614cc7565b6132fc565b3480156109ae57600080fd5b506101625474010000000000000000000000000000000000000000900460ff1661043a565b61019654610195546040517f70a082310000000000000000000000000000000000000000000000000000000081526001600160a01b03918216600482015260009291909116906370a0823190602401602060405180830381865afa158015610a3f573d6000803e3d6000fd5b505050506040513d601f19601f82011682018060405250810190610a639190614f73565b905090565b610a70613389565b61016280547fffffffffffffffff00000000ffffffffffffffffffffffffffffffffffffffff169055565b610aa36133e3565b61019554610196546040517fd1273d9e0000000000000000000000000000000000000000000000000000000081527401000000000000000000000000000000000000000090910460ff1615156004820152602481018390526001600160a01b039091169063d1273d9e90604401600060405180830381600087803b158015610b2a57600080fd5b505af1158015610b3e573d6000803e3d6000fd5b50505050610b4c8282613431565b505050565b606060cc8054610b6090614f8c565b80601f0160208091040260200160405190810160405280929190818152602001828054610b8c90614f8c565b8015610bd95780601f10610bae57610100808354040283529160200191610bd9565b820191906000526020600020905b815481529060010190602001808311610bbc57829003601f168201915b5050505050905090565b600033610bf1818585613446565b60019150505b92915050565b600054610100900460ff1615808015610c1d5750600054600160ff909116105b80610c375750303b158015610c37575060005460ff166001145b610cae5760405162461bcd60e51b815260206004820152602e60248201527f496e697469616c697a61626c653a20636f6e747261637420697320616c72656160448201527f647920696e697469616c697a656400000000000000000000000000000000000060648201526084015b60405180910390fd5b600080547fffffffffffffffffffffffffffffffffffffffffffffffffffffffffffffff001660011790558015610d0c57600080547fffffffffffffffffffffffffffffffffffffffffffffffffffffffffffff00ff166101001790555b610d16878761359e565b610d1f87613625565b610d28846136e1565b610d30613799565b610d39826132fc565b610d4161381e565b61019580547fffffffffffffffffffffffff0000000000000000000000000000000000000000166001600160a01b038716908117909155604080517f98acd7a600000000000000000000000000000000000000000000000000000000815290516398acd7a6916004808201926020929091908290030181865afa158015610dcc573d6000803e3d6000fd5b505050506040513d601f19601f82011682018060405250810190610df09190614fd9565b61019680546001600160a01b03929092167fffffffffffffffffffffff0000000000000000000000000000000000000000009092169190911774010000000000000000000000000000000000000000851515021790558015610ea957600080547fffffffffffffffffffffffffffffffffffffffffffffffffffffffffffff00ff169055604051600181527f7f26b83ff96e1f2b6a682f133852f6798a09c465da95921460cefb38474024989060200160405180910390a15b50505050505050565b610eba6133e3565b61019554610196546040517facde9b2a0000000000000000000000000000000000000000000000000000000081527401000000000000000000000000000000000000000090910460ff16151560048201526001600160a01b038481166024830152604482018490529091169063acde9b2a90606401600060405180830381600087803b158015610f4957600080fd5b505af1158015610f5d573d6000803e3d6000fd5b50505050610b4c828261389b565b61016254600090760100000000000000000000000000000000000000000000900460ff1615610fc6576040517f64c7350800000000000000000000000000000000000000000000000000000000815260040160405180910390fd5b61019560009054906101000a90046001600160a01b03166001600160a01b0316629c185f6040518163ffffffff1660e01b8152600401602060405180830381865afa158015611019573d6000803e3d6000fd5b505050506040513d601f19601f8201168201806040525081019061103d9190614ff6565b15611074576040517f878d0c0400000000000000000000000000000000000000000000000000000000815260040160405180910390fd5b610162546040517fdf592f7d0000000000000000000000000000000000000000000000000000000081526001600160a01b03808616600483015285921690600090829063df592f7d90602401602060405180830381865afa1580156110dd573d6000803e3d6000fd5b505050506040513d601f19601f820116820180604052508101906111019190614ff6565b9050801561113b576040517f4229fac400000000000000000000000000000000000000000000000000000000815260040160405180910390fd5b610162546040517fdf592f7d0000000000000000000000000000000000000000000000000000000081526001600160a01b03808a16600483015289921690600090829063df592f7d90602401602060405180830381865afa1580156111a4573d6000803e3d6000fd5b505050506040513d601f19601f820116820180604052508101906111c89190614ff6565b90508015611202576040517f4229fac400000000000000000000000000000000000000000000000000000000815260040160405180910390fd5b61120c8a8a613170565b610195546040517fd493e78c0000000000000000000000000000000000000000000000000000000081526001600160a01b038c811660048301528b81166024830152600092169063d493e78c90604401608060405180830381865afa158015611279573d6000803e3d6000fd5b505050506040513d601f19601f8201168201806040525081019061129d9190615013565b905060006112ac8c8c8c6138a7565b61019554610196549192506001600160a01b03169063eec0d656908e908e9074010000000000000000000000000000000000000000900460ff168e8760006020020151886001602002015189600260200201518a600360200201516040517fffffffff0000000000000000000000000000000000000000000000000000000060e08b901b1681526001600160a01b03988916600482015297909616602488015293151560448701526064860192909252608485015260a484015260c483015260e482015261010401600060405180830381600087803b15801561138e57600080fd5b505af11580156113a2573d6000803e3d6000fd5b50929e9d5050505050505050505050505050565b6113be613389565b61016280547fffffffffffffffff00ffffffffffffffffffffffffffffffffffffffffffffff8116770100000000000000000000000000000000000000000000009182900460ff1615909102179055565b6000610a636138c0565b6001600160a01b037f00000000000000000000000000000000000000000000000000000000000000001630036114b75760405162461bcd60e51b815260206004820152602c60248201527f46756e6374696f6e206d7573742062652063616c6c6564207468726f7567682060448201527f64656c656761746563616c6c00000000000000000000000000000000000000006064820152608401610ca5565b7f00000000000000000000000000000000000000000000000000000000000000006001600160a01b03166115127f360894a13ba1a3210667c828492db98dca3e2076cc3735a920a3ca505d382bbc546001600160a01b031690565b6001600160a01b03161461158e5760405162461bcd60e51b815260206004820152602c60248201527f46756e6374696f6e206d7573742062652063616c6c6564207468726f7567682060448201527f6163746976652070726f787900000000000000000000000000000000000000006064820152608401610ca5565b611597816138ca565b604080516000808252602082019092526115b3918391906138d2565b50565b33600081815260ca602090815260408083206001600160a01b0387168452909152812054909190610bf190829086906115f09087906150c0565b613446565b610195546040517f728bf7330000000000000000000000000000000000000000000000000000000081526001600160a01b038381166004830152600092169063728bf73390602401602060405180830381865afa15801561165a573d6000803e3d6000fd5b505050506040513d601f19601f8201168201806040525081019061167e9190614f73565b610bf7907fffffffffffffffffffffffffffffffffffffffffffffffffffffffffffffffff6150d3565b6001600160a01b037f00000000000000000000000000000000000000000000000000000000000000001630036117465760405162461bcd60e51b815260206004820152602c60248201527f46756e6374696f6e206d7573742062652063616c6c6564207468726f7567682060448201527f64656c656761746563616c6c00000000000000000000000000000000000000006064820152608401610ca5565b7f00000000000000000000000000000000000000000000000000000000000000006001600160a01b03166117a17f360894a13ba1a3210667c828492db98dca3e2076cc3735a920a3ca505d382bbc546001600160a01b031690565b6001600160a01b03161461181d5760405162461bcd60e51b815260206004820152602c60248201527f46756e6374696f6e206d7573742062652063616c6c6564207468726f7567682060448201527f6163746976652070726f787900000000000000000000000000000000000000006064820152608401610ca5565b611826826138ca565b611832828260016138d2565b5050565b6101625460009074010000000000000000000000000000000000000000900460ff161561188f576040517fd045d9d600000000000000000000000000000000000000000000000000000000815260040160405180910390fd5b61019560009054906101000a90046001600160a01b03166001600160a01b0316629c185f6040518163ffffffff1660e01b8152600401602060405180830381865afa1580156118e2573d6000803e3d6000fd5b505050506040513d601f19601f820116820180604052508101906119069190614ff6565b1561193d576040517f878d0c0400000000000000000000000000000000000000000000000000000000815260040160405180910390fd5b86866119498282613a90565b600089610196549091506001600160a01b031663d505accf336101955460405160e084901b7fffffffff000000000000000000000000000000000000000000000000000000001681526001600160a01b0392831660048201529116602482015260448101849052606481018b905260ff8a16608482015260a4810189905260c4810188905260e401600060405180830381600087803b1580156119eb57600080fd5b505af11580156119ff573d6000803e3d6000fd5b5050610195546001600160a01b0316915063c14cfe099050336040517fffffffff0000000000000000000000000000000000000000000000000000000060e084901b1681526001600160a01b039182166004820152908c166024820152604481018d905260648101849052608401600060405180830381600087803b158015611a8757600080fd5b505af1158015611a9b573d6000803e3d6000fd5b50929c9b505050505050505050505050565b6000306001600160a01b037f00000000000000000000000000000000000000000000000000000000000000001614611b4d5760405162461bcd60e51b815260206004820152603860248201527f555550535570677261646561626c653a206d757374206e6f742062652063616c60448201527f6c6564207468726f7567682064656c656761746563616c6c00000000000000006064820152608401610ca5565b507f360894a13ba1a3210667c828492db98dca3e2076cc3735a920a3ca505d382bbc90565b611b7a6133e3565b6118328282613b0c565b611b8c613389565b61016280547fffffffffffffffffff00ffffffffffffffffffffffffffffffffffffffffffff81167601000000000000000000000000000000000000000000009182900460ff1615909102179055565b6101625460009074010000000000000000000000000000000000000000900460ff1615611c35576040517fd045d9d600000000000000000000000000000000000000000000000000000000815260040160405180910390fd5b61019560009054906101000a90046001600160a01b03166001600160a01b0316629c185f6040518163ffffffff1660e01b8152600401602060405180830381865afa158015611c88573d6000803e3d6000fd5b505050506040513d601f19601f82011682018060405250810190611cac9190614ff6565b15611ce3576040517f878d0c0400000000000000000000000000000000000000000000000000000000815260040160405180910390fd5b8282611cef8282613a90565b600085610195549091506001600160a01b031663c14cfe09336040517fffffffff0000000000000000000000000000000000000000000000000000000060e084901b1681526001600160a01b03918216600482015290881660248201526044810189905260648101849052608401600060405180830381600087803b158015611d7757600080fd5b505af1158015611d8b573d6000803e3d6000fd5b509298975050505050505050565b6000611da482611f8c565b15611e6b57610195546040517fa4d96e170000000000000000000000000000000000000000000000000000000081526001600160a01b038481166004830152600092839291169063a4d96e17906024016040805180830381865afa158015611e10573d6000803e3d6000fd5b505050506040513d601f19601f82011682018060405250810190611e3491906150e6565b61019654919350915074010000000000000000000000000000000000000000900460ff1615611e64575092915050565b9392505050565b610bf782611f6e565b919050565b611e81613389565b611e8b6000613bcd565b565b6001600160a01b038116600090815261012f6020526040812054610bf7565b60006060806000806000606060fb546000801b148015611ecc575060fc54155b611f185760405162461bcd60e51b815260206004820152601560248201527f4549503731323a20556e696e697469616c697a656400000000000000000000006044820152606401610ca5565b611f20613c37565b611f28613c46565b604080516000808252602082019092527f0f000000000000000000000000000000000000000000000000000000000000009b939a50919850469750309650945092509050565b6001600160a01b038116600090815260c96020526040812054610bf7565b61019554604080517fddca8bfa00000000000000000000000000000000000000000000000000000000815290516000926001600160a01b03169163ddca8bfa9160048083019260209291908290030181865afa158015611ff0573d6000803e3d6000fd5b505050506040513d601f19601f820116820180604052508101906120149190614f73565b610195546040517f96b51eac0000000000000000000000000000000000000000000000000000000081526001600160a01b038581166004830152909116906396b51eac90602401602060405180830381865afa158015612078573d6000803e3d6000fd5b505050506040513d601f19601f8201168201806040525081019061209c9190614f73565b141592915050565b6101625460009074010000000000000000000000000000000000000000900460ff16156120fd576040517fd045d9d600000000000000000000000000000000000000000000000000000000815260040160405180910390fd5b61019560009054906101000a90046001600160a01b03166001600160a01b0316629c185f6040518163ffffffff1660e01b8152600401602060405180830381865afa158015612150573d6000803e3d6000fd5b505050506040513d601f19601f820116820180604052508101906121749190614ff6565b156121ab576040517f878d0c0400000000000000000000000000000000000000000000000000000000815260040160405180910390fd5b6121b4826115f5565b8311156121ed576040517f292b120100000000000000000000000000000000000000000000000000000000815260040160405180910390fd5b600083610195549091506001600160a01b031663c14cfe09336040517fffffffff0000000000000000000000000000000000000000000000000000000060e084901b1681526001600160a01b03918216600482015290861660248201526044810184905260648101879052608401600060405180830381600087803b15801561227557600080fd5b505af1158015612289573d6000803e3d6000fd5b50929695505050505050565b606060cd8054610b6090614f8c565b6122ac6133e3565b6118328282613c55565b33600081815260ca602090815260408083206001600160a01b0387168452909152812054909190838110156123535760405162461bcd60e51b815260206004820152602560248201527f45524332303a2064656372656173656420616c6c6f77616e63652062656c6f7760448201527f207a65726f0000000000000000000000000000000000000000000000000000006064820152608401610ca5565b6123608286868403613446565b506001949350505050565b61016254600090760100000000000000000000000000000000000000000000900460ff16156123c6576040517f64c7350800000000000000000000000000000000000000000000000000000000815260040160405180910390fd5b61019560009054906101000a90046001600160a01b03166001600160a01b0316629c185f6040518163ffffffff1660e01b8152600401602060405180830381865afa158015612419573d6000803e3d6000fd5b505050506040513d601f19601f8201168201806040525081019061243d9190614ff6565b15612474576040517f878d0c0400000000000000000000000000000000000000000000000000000000815260040160405180910390fd5b610162546040517fdf592f7d0000000000000000000000000000000000000000000000000000000081526001600160a01b03808616600483015285921690600090829063df592f7d90602401602060405180830381865afa1580156124dd573d6000803e3d6000fd5b505050506040513d601f19601f820116820180604052508101906125019190614ff6565b9050801561253b576040517f4229fac400000000000000000000000000000000000000000000000000000000815260040160405180910390fd5b33610162546040517fdf592f7d0000000000000000000000000000000000000000000000000000000081526001600160a01b03838116600483015290911690600090829063df592f7d90602401602060405180830381865afa1580156125a5573d6000803e3d6000fd5b505050506040513d601f19601f820116820180604052508101906125c99190614ff6565b90508015612603576040517f4229fac400000000000000000000000000000000000000000000000000000000815260040160405180910390fd5b61260d338a613170565b610195546000906001600160a01b031663d493e78c336040517fffffffff0000000000000000000000000000000000000000000000000000000060e084901b1681526001600160a01b039182166004820152908d166024820152604401608060405180830381865afa158015612687573d6000803e3d6000fd5b505050506040513d601f19601f820116820180604052508101906126ab9190615013565b905060006126b98b8b613dc0565b610195549091506001600160a01b031663eec0d65633610196548e9074010000000000000000000000000000000000000000900460ff168e8760006020020151886001602002015189600260200201518a600360200201516040517fffffffff0000000000000000000000000000000000000000000000000000000060e08b901b1681526001600160a01b03988916600482015297909616602488015293151560448701526064860192909252608485015260a484015260c483015260e482015261010401600060405180830381600087803b15801561279857600080fd5b505af11580156127ac573d6000803e3d6000fd5b50929d9c50505050505050505050505050565b610162546000907501000000000000000000000000000000000000000000900460ff1615612819576040517fc689af6e00000000000000000000000000000000000000000000000000000000815260040160405180910390fd5b61019560009054906101000a90046001600160a01b03166001600160a01b0316629c185f6040518163ffffffff1660e01b8152600401602060405180830381865afa15801561286c573d6000803e3d6000fd5b505050506040513d601f19601f820116820180604052508101906128909190614ff6565b156128c7576040517f878d0c0400000000000000000000000000000000000000000000000000000000815260040160405180910390fd5b816128d181613dce565b6128d9613e10565b61019560009054906101000a90046001600160a01b03166001600160a01b031663ddca8bfa6040518163ffffffff1660e01b8152600401602060405180830381865afa15801561292d573d6000803e3d6000fd5b505050506040513d601f19601f820116820180604052508101906129519190614f73565b610195546040517f96b51eac0000000000000000000000000000000000000000000000000000000081526001600160a01b038781166004830152909116906396b51eac90602401602060405180830381865afa1580156129b5573d6000803e3d6000fd5b505050506040513d601f19601f820116820180604052508101906129d99190614f73565b14612a5857610195546040517f485ffcaa0000000000000000000000000000000000000000000000000000000081526001600160a01b0386811660048301529091169063485ffcaa90602401600060405180830381600087803b158015612a3f57600080fd5b505af1158015612a53573d6000803e3d6000fd5b505050505b612a6183612e89565b851115612a9a576040517f1cf754b800000000000000000000000000000000000000000000000000000000815260040160405180910390fd5b610195546040517f3d82850b0000000000000000000000000000000000000000000000000000000081523360048201526001600160a01b0386811660248301528581166044830152606482018890526084820188905287921690633d82850b9060a4015b600060405180830381600087803b158015612b1857600080fd5b505af1158015612b2c573d6000803e3d6000fd5b50929450505050612b3e600161016355565b509392505050565b610162546000907501000000000000000000000000000000000000000000900460ff1615612ba0576040517fc689af6e00000000000000000000000000000000000000000000000000000000815260040160405180910390fd5b61019560009054906101000a90046001600160a01b03166001600160a01b0316629c185f6040518163ffffffff1660e01b8152600401602060405180830381865afa158015612bf3573d6000803e3d6000fd5b505050506040513d601f19601f82011682018060405250810190612c179190614ff6565b15612c4e576040517f878d0c0400000000000000000000000000000000000000000000000000000000815260040160405180910390fd5b81612c5881613dce565b612c60613e10565b61019560009054906101000a90046001600160a01b03166001600160a01b031663ddca8bfa6040518163ffffffff1660e01b8152600401602060405180830381865afa158015612cb4573d6000803e3d6000fd5b505050506040513d601f19601f82011682018060405250810190612cd89190614f73565b610195546040517f96b51eac0000000000000000000000000000000000000000000000000000000081526001600160a01b038781166004830152909116906396b51eac90602401602060405180830381865afa158015612d3c573d6000803e3d6000fd5b505050506040513d601f19601f82011682018060405250810190612d609190614f73565b14612ddf57610195546040517f485ffcaa0000000000000000000000000000000000000000000000000000000081526001600160a01b0386811660048301529091169063485ffcaa90602401600060405180830381600087803b158015612dc657600080fd5b505af1158015612dda573d6000803e3d6000fd5b505050505b612de883612e89565b851115612e21576040517f89e4c16300000000000000000000000000000000000000000000000000000000815260040160405180910390fd5b610195546040517f3d82850b0000000000000000000000000000000000000000000000000000000081523360048201526001600160a01b0386811660248301528581166044830152606482018890526084820188905287921690633d82850b9060a401612afe565b610195546040517fc887e8a00000000000000000000000000000000000000000000000000000000081526001600160a01b038381166004830152600092169063c887e8a090602401602060405180830381865afa158015612eee573d6000803e3d6000fd5b505050506040513d601f19601f82011682018060405250810190610bf79190614f73565b83421115612f625760405162461bcd60e51b815260206004820152601d60248201527f45524332305065726d69743a206578706972656420646561646c696e650000006044820152606401610ca5565b60007f6e71edae12b1b97f4d1f60370fef10105fa2faae0126114a169c64845d6126c9888888612f918c613e6b565b6040805160208101969096526001600160a01b0394851690860152929091166060840152608083015260a082015260c0810186905260e0016040516020818303038152906040528051906020012090506000612fec82613e94565b90506000612ffc82878787613edc565b9050896001600160a01b0316816001600160a01b03161461305f5760405162461bcd60e51b815260206004820152601e60248201527f45524332305065726d69743a20696e76616c6964207369676e617475726500006044820152606401610ca5565b61306a8a8a8a613446565b50505050505050505050565b61307e613389565b61016280547fffffffffffffffff00000000ffffffffffffffffffffffffffffffffffffffff1677010101010000000000000000000000000000000000000000179055565b6130cb613389565b61016280547fffffffffffffffffffffff00ffffffffffffffffffffffffffffffffffffffff8116740100000000000000000000000000000000000000009182900460ff1615909102179055565b613121613389565b61016280547fffffffffffffffffffff00ffffffffffffffffffffffffffffffffffffffffff811675010000000000000000000000000000000000000000009182900460ff1615909102179055565b61317982611f8c565b156131f857610195546040517f485ffcaa0000000000000000000000000000000000000000000000000000000081526001600160a01b0384811660048301529091169063485ffcaa90602401600060405180830381600087803b1580156131df57600080fd5b505af11580156131f3573d6000803e3d6000fd5b505050505b610195546040517f5737ed7d0000000000000000000000000000000000000000000000000000000081526001600160a01b03838116600483015290911690635737ed7d90602401600060405180830381600087803b15801561325957600080fd5b505af115801561326d573d6000803e3d6000fd5b5050505061327a81611f8c565b1561183257610195546040517f485ffcaa0000000000000000000000000000000000000000000000000000000081526001600160a01b0383811660048301529091169063485ffcaa90602401600060405180830381600087803b1580156132e057600080fd5b505af11580156132f4573d6000803e3d6000fd5b505050505050565b613304613389565b6001600160a01b0381166133805760405162461bcd60e51b815260206004820152602660248201527f4f776e61626c653a206e6577206f776e657220697320746865207a65726f206160448201527f64647265737300000000000000000000000000000000000000000000000000006064820152608401610ca5565b6115b381613bcd565b6097546001600160a01b03163314611e8b5760405162461bcd60e51b815260206004820181905260248201527f4f776e61626c653a2063616c6c6572206973206e6f7420746865206f776e65726044820152606401610ca5565b610195546001600160a01b0316336001600160a01b031614611e8b576040517fe565d9cb00000000000000000000000000000000000000000000000000000000815260040160405180910390fd5b600061343d8383613f06565b50600192915050565b6001600160a01b0383166134c15760405162461bcd60e51b8152602060048201526024808201527f45524332303a20617070726f76652066726f6d20746865207a65726f2061646460448201527f72657373000000000000000000000000000000000000000000000000000000006064820152608401610ca5565b6001600160a01b03821661353d5760405162461bcd60e51b815260206004820152602260248201527f45524332303a20617070726f766520746f20746865207a65726f20616464726560448201527f73730000000000000000000000000000000000000000000000000000000000006064820152608401610ca5565b6001600160a01b03838116600081815260ca602090815260408083209487168084529482529182902085905590518481527f8c5be1e5ebec7d5bd14f71427d1e84f3dd0314c0f7b2291e5b200ac8c7c3b925910160405180910390a3505050565b600054610100900460ff1661361b5760405162461bcd60e51b815260206004820152602b60248201527f496e697469616c697a61626c653a20636f6e7472616374206973206e6f74206960448201527f6e697469616c697a696e670000000000000000000000000000000000000000006064820152608401610ca5565b6118328282613f7e565b600054610100900460ff166136a25760405162461bcd60e51b815260206004820152602b60248201527f496e697469616c697a61626c653a20636f6e7472616374206973206e6f74206960448201527f6e697469616c697a696e670000000000000000000000000000000000000000006064820152608401610ca5565b6115b3816040518060400160405280600181526020017f3100000000000000000000000000000000000000000000000000000000000000815250614014565b600054610100900460ff1661375e5760405162461bcd60e51b815260206004820152602b60248201527f496e697469616c697a61626c653a20636f6e7472616374206973206e6f74206960448201527f6e697469616c697a696e670000000000000000000000000000000000000000006064820152608401610ca5565b61016280547fffffffffffffffffffffffff0000000000000000000000000000000000000000166001600160a01b0392909216919091179055565b600054610100900460ff166138165760405162461bcd60e51b815260206004820152602b60248201527f496e697469616c697a61626c653a20636f6e7472616374206973206e6f74206960448201527f6e697469616c697a696e670000000000000000000000000000000000000000006064820152608401610ca5565b611e8b6140b9565b600054610100900460ff16611e8b5760405162461bcd60e51b815260206004820152602b60248201527f496e697469616c697a61626c653a20636f6e7472616374206973206e6f74206960448201527f6e697469616c697a696e670000000000000000000000000000000000000000006064820152608401610ca5565b600061343d838361413f565b6000336138b58582856141b1565b612360858585614261565b6000610a63614455565b6115b3613389565b7f4910fdfa16fed3260ed0e7147f7cc6da11a60208b5b9406d12a635614ffd91435460ff161561390557610b4c836144c9565b826001600160a01b03166352d1902d6040518163ffffffff1660e01b8152600401602060405180830381865afa92505050801561397d575060408051601f3d9081017fffffffffffffffffffffffffffffffffffffffffffffffffffffffffffffffe016820190925261397a91810190614f73565b60015b6139ef5760405162461bcd60e51b815260206004820152602e60248201527f45524331393637557067726164653a206e657720696d706c656d656e7461746960448201527f6f6e206973206e6f7420555550530000000000000000000000000000000000006064820152608401610ca5565b7f360894a13ba1a3210667c828492db98dca3e2076cc3735a920a3ca505d382bbc8114613a845760405162461bcd60e51b815260206004820152602960248201527f45524331393637557067726164653a20756e737570706f727465642070726f7860448201527f6961626c655555494400000000000000000000000000000000000000000000006064820152608401610ca5565b50610b4c83838361459f565b81600003613aca576040517f7c7c872000000000000000000000000000000000000000000000000000000000815260040160405180910390fd5b613ad3816115f5565b821115611832576040517f14a4b53500000000000000000000000000000000000000000000000000000000815260040160405180910390fd5b6001600160a01b038216613b625760405162461bcd60e51b815260206004820152601f60248201527f45524332303a206d696e7420746f20746865207a65726f2061646472657373006044820152606401610ca5565b8060cb6000828254613b7491906150c0565b90915550506001600160a01b038216600081815260c960209081526040808320805486019055518481527fddf252ad1be2c89b69c2b068fc378daa952ba7f163c4a11628f55a4df523b3ef910160405180910390a35050565b609780546001600160a01b038381167fffffffffffffffffffffffff0000000000000000000000000000000000000000831681179093556040519116919082907f8be0079c531659141344cd1fd0a4f28419497f9722a3daafe3b4186f6b6457e090600090a35050565b606060fd8054610b6090614f8c565b606060fe8054610b6090614f8c565b6001600160a01b038216613cd15760405162461bcd60e51b815260206004820152602160248201527f45524332303a206275726e2066726f6d20746865207a65726f2061646472657360448201527f73000000000000000000000000000000000000000000000000000000000000006064820152608401610ca5565b6001600160a01b038216600090815260c9602052604090205481811015613d605760405162461bcd60e51b815260206004820152602260248201527f45524332303a206275726e20616d6f756e7420657863656564732062616c616e60448201527f63650000000000000000000000000000000000000000000000000000000000006064820152608401610ca5565b6001600160a01b038316600081815260c960209081526040808320868603905560cb80548790039055518581529192917fddf252ad1be2c89b69c2b068fc378daa952ba7f163c4a11628f55a4df523b3ef910160405180910390a3505050565b600033610bf1818585614261565b6001600160a01b03811633146115b3576040517f7a45e68500000000000000000000000000000000000000000000000000000000815260040160405180910390fd5b60026101635403613e635760405162461bcd60e51b815260206004820152601f60248201527f5265656e7472616e637947756172643a207265656e7472616e742063616c6c006044820152606401610ca5565b600261016355565b6001600160a01b038116600090815261012f602052604090208054600181018255905b50919050565b6000610bf7613ea16138c0565b836040517f19010000000000000000000000000000000000000000000000000000000000008152600281019290925260228201526042902090565b6000806000613eed878787876145c4565b91509150613efa816146a6565b5090505b949350505050565b6001600160a01b038216613f5c5760405162461bcd60e51b815260206004820152601c60248201527f54726561737572792063616e6e6f74206265207a65726f2061646472000000006044820152606401610ca5565b6001600160a01b03909116600090815260c96020526040902080549091019055565b600054610100900460ff16613ffb5760405162461bcd60e51b815260206004820152602b60248201527f496e697469616c697a61626c653a20636f6e7472616374206973206e6f74206960448201527f6e697469616c697a696e670000000000000000000000000000000000000000006064820152608401610ca5565b60cc6140078382615150565b5060cd610b4c8282615150565b600054610100900460ff166140915760405162461bcd60e51b815260206004820152602b60248201527f496e697469616c697a61626c653a20636f6e7472616374206973206e6f74206960448201527f6e697469616c697a696e670000000000000000000000000000000000000000006064820152608401610ca5565b60fd61409d8382615150565b5060fe6140aa8282615150565b5050600060fb81905560fc5550565b600054610100900460ff166141365760405162461bcd60e51b815260206004820152602b60248201527f496e697469616c697a61626c653a20636f6e7472616374206973206e6f74206960448201527f6e697469616c697a696e670000000000000000000000000000000000000000006064820152608401610ca5565b611e8b33613bcd565b6001600160a01b0382166141955760405162461bcd60e51b815260206004820152601b60248201527f416464726573732063616e6e6f74206265207a65726f206164647200000000006044820152606401610ca5565b6001600160a01b03909116600090815260c96020526040902055565b6001600160a01b03838116600090815260ca60209081526040808320938616835292905220547fffffffffffffffffffffffffffffffffffffffffffffffffffffffffffffffff811461425b578181101561424e5760405162461bcd60e51b815260206004820152601d60248201527f45524332303a20696e73756666696369656e7420616c6c6f77616e63650000006044820152606401610ca5565b61425b8484848403613446565b50505050565b6001600160a01b0383166142dd5760405162461bcd60e51b815260206004820152602560248201527f45524332303a207472616e736665722066726f6d20746865207a65726f20616460448201527f64726573730000000000000000000000000000000000000000000000000000006064820152608401610ca5565b6001600160a01b0382166143595760405162461bcd60e51b815260206004820152602360248201527f45524332303a207472616e7366657220746f20746865207a65726f206164647260448201527f65737300000000000000000000000000000000000000000000000000000000006064820152608401610ca5565b6001600160a01b038316600090815260c96020526040902054818110156143e85760405162461bcd60e51b815260206004820152602660248201527f45524332303a207472616e7366657220616d6f756e742065786365656473206260448201527f616c616e636500000000000000000000000000000000000000000000000000006064820152608401610ca5565b6001600160a01b03808516600081815260c9602052604080822086860390559286168082529083902080548601905591517fddf252ad1be2c89b69c2b068fc378daa952ba7f163c4a11628f55a4df523b3ef906144489086815260200190565b60405180910390a361425b565b60007f8b73c3c69bb8fe3d512ecc4cf759cc79239f7b179b0ffacaa9a75d522b39400f61448061480b565b614488614864565b60408051602081019490945283019190915260608201524660808201523060a082015260c00160405160208183030381529060405280519060200120905090565b6001600160a01b0381163b6145465760405162461bcd60e51b815260206004820152602d60248201527f455243313936373a206e657720696d706c656d656e746174696f6e206973206e60448201527f6f74206120636f6e7472616374000000000000000000000000000000000000006064820152608401610ca5565b7f360894a13ba1a3210667c828492db98dca3e2076cc3735a920a3ca505d382bbc80547fffffffffffffffffffffffff0000000000000000000000000000000000000000166001600160a01b0392909216919091179055565b6145a883614895565b6000825111806145b55750805b15610b4c5761425b83836148d5565b6000807f7fffffffffffffffffffffffffffffff5d576e7357a4501ddfe92f46681b20a08311156145fb575060009050600361469d565b6040805160008082526020820180845289905260ff881692820192909252606081018690526080810185905260019060a0016020604051602081039080840390855afa15801561464f573d6000803e3d6000fd5b50506040517fffffffffffffffffffffffffffffffffffffffffffffffffffffffffffffffe001519150506001600160a01b0381166146965760006001925092505061469d565b9150600090505b94509492505050565b60008160048111156146ba576146ba61526a565b036146c25750565b60018160048111156146d6576146d661526a565b036147235760405162461bcd60e51b815260206004820152601860248201527f45434453413a20696e76616c6964207369676e617475726500000000000000006044820152606401610ca5565b60028160048111156147375761473761526a565b036147845760405162461bcd60e51b815260206004820152601f60248201527f45434453413a20696e76616c6964207369676e6174757265206c656e677468006044820152606401610ca5565b60038160048111156147985761479861526a565b036115b35760405162461bcd60e51b815260206004820152602260248201527f45434453413a20696e76616c6964207369676e6174757265202773272076616c60448201527f75650000000000000000000000000000000000000000000000000000000000006064820152608401610ca5565b600080614816613c37565b80519091501561482d578051602090910120919050565b60fb54801561483c5792915050565b7fc5d2460186f7233c927e7db2dcc703c0e500b653ca82273b7bfad8045d85a4709250505090565b60008061486f613c46565b805190915015614886578051602090910120919050565b60fc54801561483c5792915050565b61489e816144c9565b6040516001600160a01b038216907fbc7cd75a20ee27fd9adebab32041f755214dbc6bffa90cc0225b39da2e5c2d3b90600090a250565b6060611e6483836040518060600160405280602781526020016152b6602791396060600080856001600160a01b0316856040516149129190615299565b600060405180830381855af49150503d806000811461494d576040519150601f19603f3d011682016040523d82523d6000602084013e614952565b606091505b50915091506149638683838761496d565b9695505050505050565b606083156149dc5782516000036149d5576001600160a01b0385163b6149d55760405162461bcd60e51b815260206004820152601d60248201527f416464726573733a2063616c6c20746f206e6f6e2d636f6e74726163740000006044820152606401610ca5565b5081613efe565b613efe83838151156149f15781518083602001fd5b8060405162461bcd60e51b8152600401610ca59190614aba565b6001600160a01b03811681146115b357600080fd5b60008060408385031215614a3357600080fd5b8235614a3e81614a0b565b946020939093013593505050565b60005b83811015614a67578181015183820152602001614a4f565b50506000910152565b60008151808452614a88816020860160208601614a4c565b601f017fffffffffffffffffffffffffffffffffffffffffffffffffffffffffffffffe0169290920160200192915050565b602081526000611e646020830184614a70565b600060208284031215614adf57600080fd5b5035919050565b7f4e487b7100000000000000000000000000000000000000000000000000000000600052604160045260246000fd5b600067ffffffffffffffff80841115614b3057614b30614ae6565b604051601f85017fffffffffffffffffffffffffffffffffffffffffffffffffffffffffffffffe0908116603f01168101908282118183101715614b7657614b76614ae6565b81604052809350858152868686011115614b8f57600080fd5b858560208301376000602087830101525050509392505050565b600082601f830112614bba57600080fd5b611e6483833560208501614b15565b80151581146115b357600080fd5b60008060008060008060c08789031215614bf057600080fd5b863567ffffffffffffffff80821115614c0857600080fd5b614c148a838b01614ba9565b97506020890135915080821115614c2a57600080fd5b50614c3789828a01614ba9565b9550506040870135614c4881614a0b565b93506060870135614c5881614a0b565b92506080870135614c6881614bc9565b915060a0870135614c7881614a0b565b809150509295509295509295565b600080600060608486031215614c9b57600080fd5b8335614ca681614a0b565b92506020840135614cb681614a0b565b929592945050506040919091013590565b600060208284031215614cd957600080fd5b8135611e6481614a0b565b60008060408385031215614cf757600080fd5b8235614d0281614a0b565b9150602083013567ffffffffffffffff811115614d1e57600080fd5b8301601f81018513614d2f57600080fd5b614d3e85823560208401614b15565b9150509250929050565b803560ff81168114611e7457600080fd5b60008060008060008060c08789031215614d7257600080fd5b863595506020870135614d8481614a0b565b945060408701359350614d9960608801614d48565b92506080870135915060a087013590509295509295509295565b60008060408385031215614dc657600080fd5b823591506020830135614dd881614a0b565b809150509250929050565b7fff00000000000000000000000000000000000000000000000000000000000000881681526000602060e081840152614e1f60e084018a614a70565b8381036040850152614e31818a614a70565b606085018990526001600160a01b038816608086015260a0850187905284810360c0860152855180825283870192509083019060005b81811015614e8357835183529284019291840191600101614e67565b50909c9b505050505050505050505050565b600080600060608486031215614eaa57600080fd5b833592506020840135614ebc81614a0b565b91506040840135614ecc81614a0b565b809150509250925092565b600080600080600080600060e0888a031215614ef257600080fd5b8735614efd81614a0b565b96506020880135614f0d81614a0b565b95506040880135945060608801359350614f2960808901614d48565b925060a0880135915060c0880135905092959891949750929550565b60008060408385031215614f5857600080fd5b8235614f6381614a0b565b91506020830135614dd881614a0b565b600060208284031215614f8557600080fd5b5051919050565b600181811c90821680614fa057607f821691505b602082108103613e8e577f4e487b7100000000000000000000000000000000000000000000000000000000600052602260045260246000fd5b600060208284031215614feb57600080fd5b8151611e6481614a0b565b60006020828403121561500857600080fd5b8151611e6481614bc9565b60006080828403121561502557600080fd5b82601f83011261503457600080fd5b6040516080810181811067ffffffffffffffff8211171561505757615057614ae6565b60405280608084018581111561506c57600080fd5b845b8181101561508657805183526020928301920161506e565b509195945050505050565b7f4e487b7100000000000000000000000000000000000000000000000000000000600052601160045260246000fd5b80820180821115610bf757610bf7615091565b81810381811115610bf757610bf7615091565b600080604083850312156150f957600080fd5b505080516020909101519092909150565b601f821115610b4c57600081815260208120601f850160051c810160208610156151315750805b601f850160051c820191505b818110156132f45782815560010161513d565b815167ffffffffffffffff81111561516a5761516a614ae6565b61517e816151788454614f8c565b8461510a565b602080601f8311600181146151d1576000841561519b5750858301515b7fffffffffffffffffffffffffffffffffffffffffffffffffffffffffffffffff600386901b1c1916600185901b1785556132f4565b6000858152602081207fffffffffffffffffffffffffffffffffffffffffffffffffffffffffffffffe08616915b8281101561521e578886015182559484019460019091019084016151ff565b508582101561525a57878501517fffffffffffffffffffffffffffffffffffffffffffffffffffffffffffffffff600388901b60f8161c191681555b5050505050600190811b01905550565b7f4e487b7100000000000000000000000000000000000000000000000000000000600052602160045260246000fd5b600082516152ab818460208701614a4c565b919091019291505056fe416464726573733a206c6f772d6c6576656c2064656c65676174652063616c6c206661696c6564a264697066735822122049da4c289469e27753f031f25edd830d20b4975910a50bcb274bfe1a9ef8114164736f6c63430008110033",
  "linkReferences": {},
  "deployedLinkReferences": {}
}