{
  "_format": "hh-sol-artifact-1",
  "contractName": "SmartToken",
  "sourceName": "contracts/vaults/SmartToken.sol",
  "abi": [
    {
      "inputs": [],
      "stateMutability": "nonpayable",
      "type": "constructor"
    },
    {
      "inputs": [],
      "name": "BaseContract__DepositCircuitBreaker",
      "type": "error"
    },
    {
      "inputs": [],
      "name": "BaseContract__RebalanceCircuitBreaker",
      "type": "error"
    },
    {
      "inputs": [],
      "name": "BaseContract__SanctionedAddress",
      "type": "error"
    },
    {
      "inputs": [],
      "name": "BaseContract__TransferCircuitBreaker",
      "type": "error"
    },
    {
      "inputs": [],
      "name": "BaseContract__WithdrawCircuitBreaker",
      "type": "error"
    },
    {
      "inputs": [],
      "name": "SmartToken__DepositLimitHit",
      "type": "error"
    },
    {
      "inputs": [],
      "name": "SmartToken__DepositMoreThanMax",
      "type": "error"
    },
    {
      "inputs": [],
      "name": "SmartToken__InsufficientUnderlying",
      "type": "error"
    },
    {
      "inputs": [],
      "name": "SmartToken__MethodNotAllowed",
      "type": "error"
    },
    {
      "inputs": [],
      "name": "SmartToken__MintMoreThanMax",
      "type": "error"
    },
    {
      "inputs": [],
      "name": "SmartToken__NotTokenFactory",
      "type": "error"
    },
    {
      "inputs": [],
      "name": "SmartToken__OnlyAssetOwner",
      "type": "error"
    },
    {
      "inputs": [],
      "name": "SmartToken__RedeemMoreThanMax",
      "type": "error"
    },
    {
      "inputs": [],
      "name": "SmartToken__WithdrawLimitHit",
      "type": "error"
    },
    {
      "inputs": [],
      "name": "SmartToken__WithdrawMoreThanMax",
      "type": "error"
    },
    {
      "inputs": [],
      "name": "SmartToken__ZeroDeposit",
      "type": "error"
    },
    {
      "anonymous": false,
      "inputs": [
        {
          "indexed": false,
          "internalType": "address",
          "name": "previousAdmin",
          "type": "address"
        },
        {
          "indexed": false,
          "internalType": "address",
          "name": "newAdmin",
          "type": "address"
        }
      ],
      "name": "AdminChanged",
      "type": "event"
    },
    {
      "anonymous": false,
      "inputs": [
        {
          "indexed": true,
          "internalType": "address",
          "name": "owner",
          "type": "address"
        },
        {
          "indexed": true,
          "internalType": "address",
          "name": "spender",
          "type": "address"
        },
        {
          "indexed": false,
          "internalType": "uint256",
          "name": "value",
          "type": "uint256"
        }
      ],
      "name": "Approval",
      "type": "event"
    },
    {
      "anonymous": false,
      "inputs": [
        {
          "indexed": true,
          "internalType": "address",
          "name": "beacon",
          "type": "address"
        }
      ],
      "name": "BeaconUpgraded",
      "type": "event"
    },
    {
      "anonymous": false,
      "inputs": [
        {
          "indexed": true,
          "internalType": "address",
          "name": "sender",
          "type": "address"
        },
        {
          "indexed": true,
          "internalType": "address",
          "name": "owner",
          "type": "address"
        },
        {
          "indexed": false,
          "internalType": "uint256",
          "name": "assets",
          "type": "uint256"
        },
        {
          "indexed": false,
          "internalType": "uint256",
          "name": "shares",
          "type": "uint256"
        }
      ],
      "name": "Deposit",
      "type": "event"
    },
    {
      "anonymous": false,
      "inputs": [],
      "name": "EIP712DomainChanged",
      "type": "event"
    },
    {
      "anonymous": false,
      "inputs": [
        {
          "indexed": false,
          "internalType": "uint8",
          "name": "version",
          "type": "uint8"
        }
      ],
      "name": "Initialized",
      "type": "event"
    },
    {
      "anonymous": false,
      "inputs": [
        {
          "indexed": true,
          "internalType": "address",
          "name": "previousOwner",
          "type": "address"
        },
        {
          "indexed": true,
          "internalType": "address",
          "name": "newOwner",
          "type": "address"
        }
      ],
      "name": "OwnershipTransferred",
      "type": "event"
    },
    {
      "anonymous": false,
      "inputs": [
        {
          "indexed": true,
          "internalType": "address",
          "name": "from",
          "type": "address"
        },
        {
          "indexed": true,
          "internalType": "address",
          "name": "to",
          "type": "address"
        },
        {
          "indexed": false,
          "internalType": "uint256",
          "name": "value",
          "type": "uint256"
        }
      ],
      "name": "Transfer",
      "type": "event"
    },
    {
      "anonymous": false,
      "inputs": [
        {
          "indexed": true,
          "internalType": "address",
          "name": "implementation",
          "type": "address"
        }
      ],
      "name": "Upgraded",
      "type": "event"
    },
    {
      "anonymous": false,
      "inputs": [
        {
          "indexed": true,
          "internalType": "address",
          "name": "sender",
          "type": "address"
        },
        {
          "indexed": true,
          "internalType": "address",
          "name": "receiver",
          "type": "address"
        },
        {
          "indexed": true,
          "internalType": "address",
          "name": "owner",
          "type": "address"
        },
        {
          "indexed": false,
          "internalType": "uint256",
          "name": "assets",
          "type": "uint256"
        },
        {
          "indexed": false,
          "internalType": "uint256",
          "name": "shares",
          "type": "uint256"
        }
      ],
      "name": "Withdraw",
      "type": "event"
    },
    {
      "inputs": [],
      "name": "DOMAIN_SEPARATOR",
      "outputs": [
        {
          "internalType": "bytes32",
          "name": "",
          "type": "bytes32"
        }
      ],
      "stateMutability": "view",
      "type": "function"
    },
    {
      "inputs": [
        {
          "internalType": "address",
          "name": "owner",
          "type": "address"
        },
        {
          "internalType": "address",
          "name": "spender",
          "type": "address"
        }
      ],
      "name": "allowance",
      "outputs": [
        {
          "internalType": "uint256",
          "name": "",
          "type": "uint256"
        }
      ],
      "stateMutability": "view",
      "type": "function"
    },
    {
      "inputs": [
        {
          "internalType": "address",
          "name": "spender",
          "type": "address"
        },
        {
          "internalType": "uint256",
          "name": "amount",
          "type": "uint256"
        }
      ],
      "name": "approve",
      "outputs": [
        {
          "internalType": "bool",
          "name": "",
          "type": "bool"
        }
      ],
      "stateMutability": "nonpayable",
      "type": "function"
    },
    {
      "inputs": [],
      "name": "asset",
      "outputs": [
        {
          "internalType": "address",
          "name": "",
          "type": "address"
        }
      ],
      "stateMutability": "view",
      "type": "function"
    },
    {
      "inputs": [
        {
          "internalType": "address",
          "name": "account",
          "type": "address"
        }
      ],
      "name": "balanceOf",
      "outputs": [
        {
          "internalType": "uint256",
          "name": "",
          "type": "uint256"
        }
      ],
      "stateMutability": "view",
      "type": "function"
    },
    {
      "inputs": [
        {
          "internalType": "address",
          "name": "account",
          "type": "address"
        },
        {
          "internalType": "uint256",
          "name": "amount",
          "type": "uint256"
        }
      ],
      "name": "burn",
      "outputs": [],
      "stateMutability": "nonpayable",
      "type": "function"
    },
    {
      "inputs": [
        {
          "internalType": "uint256",
          "name": "shares",
          "type": "uint256"
        }
      ],
      "name": "convertToAssets",
      "outputs": [
        {
          "internalType": "uint256",
          "name": "assets",
          "type": "uint256"
        }
      ],
      "stateMutability": "view",
      "type": "function"
    },
    {
      "inputs": [
        {
          "internalType": "uint256",
          "name": "assets",
          "type": "uint256"
        }
      ],
      "name": "convertToShares",
      "outputs": [
        {
          "internalType": "uint256",
          "name": "shares",
          "type": "uint256"
        }
      ],
      "stateMutability": "view",
      "type": "function"
    },
    {
      "inputs": [],
      "name": "decimals",
      "outputs": [
        {
          "internalType": "uint8",
          "name": "",
          "type": "uint8"
        }
      ],
      "stateMutability": "view",
      "type": "function"
    },
    {
      "inputs": [
        {
          "internalType": "address",
          "name": "spender",
          "type": "address"
        },
        {
          "internalType": "uint256",
          "name": "subtractedValue",
          "type": "uint256"
        }
      ],
      "name": "decreaseAllowance",
      "outputs": [
        {
          "internalType": "bool",
          "name": "",
          "type": "bool"
        }
      ],
      "stateMutability": "nonpayable",
      "type": "function"
    },
    {
      "inputs": [
        {
          "internalType": "uint256",
          "name": "assets",
          "type": "uint256"
        },
        {
          "internalType": "address",
          "name": "receiver",
          "type": "address"
        }
      ],
      "name": "deposit",
      "outputs": [
        {
          "internalType": "uint256",
          "name": "",
          "type": "uint256"
        }
      ],
      "stateMutability": "nonpayable",
      "type": "function"
    },
    {
      "inputs": [
        {
          "internalType": "uint256",
          "name": "assets",
          "type": "uint256"
        },
        {
          "internalType": "address",
          "name": "receiver",
          "type": "address"
        },
        {
          "internalType": "uint256",
          "name": "deadline",
          "type": "uint256"
        },
        {
          "internalType": "uint8",
          "name": "v",
          "type": "uint8"
        },
        {
          "internalType": "bytes32",
          "name": "r",
          "type": "bytes32"
        },
        {
          "internalType": "bytes32",
          "name": "s",
          "type": "bytes32"
        }
      ],
      "name": "depositWithPermit",
      "outputs": [
        {
          "internalType": "uint256",
          "name": "",
          "type": "uint256"
        }
      ],
      "stateMutability": "nonpayable",
      "type": "function"
    },
    {
      "inputs": [],
      "name": "eip712Domain",
      "outputs": [
        {
          "internalType": "bytes1",
          "name": "fields",
          "type": "bytes1"
        },
        {
          "internalType": "string",
          "name": "name",
          "type": "string"
        },
        {
          "internalType": "string",
          "name": "version",
          "type": "string"
        },
        {
          "internalType": "uint256",
          "name": "chainId",
          "type": "uint256"
        },
        {
          "internalType": "address",
          "name": "verifyingContract",
          "type": "address"
        },
        {
          "internalType": "bytes32",
          "name": "salt",
          "type": "bytes32"
        },
        {
          "internalType": "uint256[]",
          "name": "extensions",
          "type": "uint256[]"
        }
      ],
      "stateMutability": "view",
      "type": "function"
    },
    {
      "inputs": [],
      "name": "getTokenFactory",
      "outputs": [
        {
          "internalType": "address",
          "name": "",
          "type": "address"
        }
      ],
      "stateMutability": "view",
      "type": "function"
    },
    {
      "inputs": [
        {
          "internalType": "address",
          "name": "sender",
          "type": "address"
        },
        {
          "internalType": "address",
          "name": "receiver",
          "type": "address"
        }
      ],
      "name": "handlePendingFF",
      "outputs": [],
      "stateMutability": "nonpayable",
      "type": "function"
    },
    {
      "inputs": [
        {
          "internalType": "address",
          "name": "sender",
          "type": "address"
        },
        {
          "internalType": "address",
          "name": "receiver",
          "type": "address"
        }
      ],
      "name": "handlePendingRebalance",
      "outputs": [],
      "stateMutability": "nonpayable",
      "type": "function"
    },
    {
      "inputs": [
        {
          "internalType": "address",
          "name": "account",
          "type": "address"
        }
      ],
      "name": "hasPendingFF",
      "outputs": [
        {
          "internalType": "bool",
          "name": "",
          "type": "bool"
        }
      ],
      "stateMutability": "view",
      "type": "function"
    },
    {
      "inputs": [
        {
          "internalType": "address",
          "name": "account",
          "type": "address"
        }
      ],
      "name": "hasPendingRebalance",
      "outputs": [
        {
          "internalType": "bool",
          "name": "",
          "type": "bool"
        }
      ],
      "stateMutability": "view",
      "type": "function"
    },
    {
      "inputs": [
        {
          "internalType": "address",
          "name": "spender",
          "type": "address"
        },
        {
          "internalType": "uint256",
          "name": "addedValue",
          "type": "uint256"
        }
      ],
      "name": "increaseAllowance",
      "outputs": [
        {
          "internalType": "bool",
          "name": "",
          "type": "bool"
        }
      ],
      "stateMutability": "nonpayable",
      "type": "function"
    },
    {
      "inputs": [
        {
          "internalType": "string",
          "name": "tokenName",
          "type": "string"
        },
        {
          "internalType": "string",
          "name": "tokenSymbol",
          "type": "string"
        },
        {
          "internalType": "address",
          "name": "factoryAddress",
          "type": "address"
        },
        {
          "internalType": "address",
          "name": "sanctionsContract_",
          "type": "address"
        },
        {
          "internalType": "bool",
          "name": "isX_",
          "type": "bool"
        }
      ],
      "name": "initialize",
      "outputs": [],
      "stateMutability": "nonpayable",
      "type": "function"
    },
    {
      "inputs": [],
      "name": "isDepositCircuitBreaker",
      "outputs": [
        {
          "internalType": "bool",
          "name": "",
          "type": "bool"
        }
      ],
      "stateMutability": "view",
      "type": "function"
    },
    {
      "inputs": [],
      "name": "isRebalanceCircuitBreaker",
      "outputs": [
        {
          "internalType": "bool",
          "name": "",
          "type": "bool"
        }
      ],
      "stateMutability": "view",
      "type": "function"
    },
    {
      "inputs": [],
      "name": "isTransferCircuitBreaker",
      "outputs": [
        {
          "internalType": "bool",
          "name": "",
          "type": "bool"
        }
      ],
      "stateMutability": "view",
      "type": "function"
    },
    {
      "inputs": [],
      "name": "isWithdrawCircuitBreaker",
      "outputs": [
        {
          "internalType": "bool",
          "name": "",
          "type": "bool"
        }
      ],
      "stateMutability": "view",
      "type": "function"
    },
    {
      "inputs": [
        {
          "internalType": "address",
          "name": "account",
          "type": "address"
        }
      ],
      "name": "maxDeposit",
      "outputs": [
        {
          "internalType": "uint256",
          "name": "",
          "type": "uint256"
        }
      ],
      "stateMutability": "view",
      "type": "function"
    },
    {
      "inputs": [
        {
          "internalType": "address",
          "name": "account",
          "type": "address"
        }
      ],
      "name": "maxMint",
      "outputs": [
        {
          "internalType": "uint256",
          "name": "",
          "type": "uint256"
        }
      ],
      "stateMutability": "view",
      "type": "function"
    },
    {
      "inputs": [
        {
          "internalType": "address",
          "name": "owner_",
          "type": "address"
        }
      ],
      "name": "maxRedeem",
      "outputs": [
        {
          "internalType": "uint256",
          "name": "",
          "type": "uint256"
        }
      ],
      "stateMutability": "view",
      "type": "function"
    },
    {
      "inputs": [
        {
          "internalType": "address",
          "name": "owner_",
          "type": "address"
        }
      ],
      "name": "maxWithdraw",
      "outputs": [
        {
          "internalType": "uint256",
          "name": "",
          "type": "uint256"
        }
      ],
      "stateMutability": "view",
      "type": "function"
    },
    {
      "inputs": [
        {
          "internalType": "uint256",
          "name": "shares",
          "type": "uint256"
        },
        {
          "internalType": "address",
          "name": "receiver",
          "type": "address"
        }
      ],
      "name": "mint",
      "outputs": [
        {
          "internalType": "uint256",
          "name": "",
          "type": "uint256"
        }
      ],
      "stateMutability": "nonpayable",
      "type": "function"
    },
    {
      "inputs": [
        {
          "internalType": "address",
          "name": "receiver",
          "type": "address"
        },
        {
          "internalType": "uint256",
          "name": "amount",
          "type": "uint256"
        }
      ],
      "name": "mintAsset",
      "outputs": [],
      "stateMutability": "nonpayable",
      "type": "function"
    },
    {
      "inputs": [],
      "name": "name",
      "outputs": [
        {
          "internalType": "string",
          "name": "",
          "type": "string"
        }
      ],
      "stateMutability": "view",
      "type": "function"
    },
    {
      "inputs": [
        {
          "internalType": "address",
          "name": "owner",
          "type": "address"
        }
      ],
      "name": "nonces",
      "outputs": [
        {
          "internalType": "uint256",
          "name": "",
          "type": "uint256"
        }
      ],
      "stateMutability": "view",
      "type": "function"
    },
    {
      "inputs": [],
      "name": "owner",
      "outputs": [
        {
          "internalType": "address",
          "name": "",
          "type": "address"
        }
      ],
      "stateMutability": "view",
      "type": "function"
    },
    {
      "inputs": [
        {
          "internalType": "address",
          "name": "owner",
          "type": "address"
        },
        {
          "internalType": "address",
          "name": "spender",
          "type": "address"
        },
        {
          "internalType": "uint256",
          "name": "value",
          "type": "uint256"
        },
        {
          "internalType": "uint256",
          "name": "deadline",
          "type": "uint256"
        },
        {
          "internalType": "uint8",
          "name": "v",
          "type": "uint8"
        },
        {
          "internalType": "bytes32",
          "name": "r",
          "type": "bytes32"
        },
        {
          "internalType": "bytes32",
          "name": "s",
          "type": "bytes32"
        }
      ],
      "name": "permit",
      "outputs": [],
      "stateMutability": "nonpayable",
      "type": "function"
    },
    {
      "inputs": [
        {
          "internalType": "uint256",
          "name": "assets",
          "type": "uint256"
        }
      ],
      "name": "previewDeposit",
      "outputs": [
        {
          "internalType": "uint256",
          "name": "",
          "type": "uint256"
        }
      ],
      "stateMutability": "view",
      "type": "function"
    },
    {
      "inputs": [
        {
          "internalType": "uint256",
          "name": "shares",
          "type": "uint256"
        }
      ],
      "name": "previewMint",
      "outputs": [
        {
          "internalType": "uint256",
          "name": "",
          "type": "uint256"
        }
      ],
      "stateMutability": "view",
      "type": "function"
    },
    {
      "inputs": [
        {
          "internalType": "uint256",
          "name": "shares",
          "type": "uint256"
        }
      ],
      "name": "previewRedeem",
      "outputs": [
        {
          "internalType": "uint256",
          "name": "",
          "type": "uint256"
        }
      ],
      "stateMutability": "view",
      "type": "function"
    },
    {
      "inputs": [
        {
          "internalType": "uint256",
          "name": "assets",
          "type": "uint256"
        }
      ],
      "name": "previewWithdraw",
      "outputs": [
        {
          "internalType": "uint256",
          "name": "",
          "type": "uint256"
        }
      ],
      "stateMutability": "view",
      "type": "function"
    },
    {
      "inputs": [],
      "name": "proxiableUUID",
      "outputs": [
        {
          "internalType": "bytes32",
          "name": "",
          "type": "bytes32"
        }
      ],
      "stateMutability": "view",
      "type": "function"
    },
    {
      "inputs": [
        {
          "internalType": "uint256",
          "name": "shares",
          "type": "uint256"
        },
        {
          "internalType": "address",
          "name": "receiver",
          "type": "address"
        },
        {
          "internalType": "address",
          "name": "owner_",
          "type": "address"
        }
      ],
      "name": "redeem",
      "outputs": [
        {
          "internalType": "uint256",
          "name": "",
          "type": "uint256"
        }
      ],
      "stateMutability": "nonpayable",
      "type": "function"
    },
    {
      "inputs": [],
      "name": "renounceOwnership",
      "outputs": [],
      "stateMutability": "nonpayable",
      "type": "function"
    },
    {
      "inputs": [],
      "name": "resumeAllCircuitBreakers",
      "outputs": [],
      "stateMutability": "nonpayable",
      "type": "function"
    },
    {
      "inputs": [
        {
          "internalType": "address",
          "name": "account",
          "type": "address"
        },
        {
          "internalType": "uint256",
          "name": "amount",
          "type": "uint256"
        }
      ],
      "name": "smartBalanceAdjust",
      "outputs": [],
      "stateMutability": "nonpayable",
      "type": "function"
    },
    {
      "inputs": [
        {
          "internalType": "address",
          "name": "treasuryAddress",
          "type": "address"
        },
        {
          "internalType": "uint256",
          "name": "amount",
          "type": "uint256"
        }
      ],
      "name": "smartTreasuryTransfer",
      "outputs": [],
      "stateMutability": "nonpayable",
      "type": "function"
    },
    {
      "inputs": [],
      "name": "stopAllCircuitBreakers",
      "outputs": [],
      "stateMutability": "nonpayable",
      "type": "function"
    },
    {
      "inputs": [],
      "name": "symbol",
      "outputs": [
        {
          "internalType": "string",
          "name": "",
          "type": "string"
        }
      ],
      "stateMutability": "view",
      "type": "function"
    },
    {
      "inputs": [],
      "name": "toggleDepositCircuitBreaker",
      "outputs": [],
      "stateMutability": "nonpayable",
      "type": "function"
    },
    {
      "inputs": [],
      "name": "toggleRebalanceCircuitBreaker",
      "outputs": [],
      "stateMutability": "nonpayable",
      "type": "function"
    },
    {
      "inputs": [],
      "name": "toggleTransferCircuitBreaker",
      "outputs": [],
      "stateMutability": "nonpayable",
      "type": "function"
    },
    {
      "inputs": [],
      "name": "toggleWithdrawCircuitBreaker",
      "outputs": [],
      "stateMutability": "nonpayable",
      "type": "function"
    },
    {
      "inputs": [],
      "name": "totalAssets",
      "outputs": [
        {
          "internalType": "uint256",
          "name": "",
          "type": "uint256"
        }
      ],
      "stateMutability": "view",
      "type": "function"
    },
    {
      "inputs": [],
      "name": "totalSupply",
      "outputs": [
        {
          "internalType": "uint256",
          "name": "",
          "type": "uint256"
        }
      ],
      "stateMutability": "view",
      "type": "function"
    },
    {
      "inputs": [
        {
          "internalType": "address",
          "name": "recipient",
          "type": "address"
        },
        {
          "internalType": "uint256",
          "name": "amount",
          "type": "uint256"
        }
      ],
      "name": "transfer",
      "outputs": [
        {
          "internalType": "bool",
          "name": "",
          "type": "bool"
        }
      ],
      "stateMutability": "nonpayable",
      "type": "function"
    },
    {
      "inputs": [
        {
          "internalType": "address",
          "name": "sender",
          "type": "address"
        },
        {
          "internalType": "address",
          "name": "recipient",
          "type": "address"
        },
        {
          "internalType": "uint256",
          "name": "amount",
          "type": "uint256"
        }
      ],
      "name": "transferFrom",
      "outputs": [
        {
          "internalType": "bool",
          "name": "",
          "type": "bool"
        }
      ],
      "stateMutability": "nonpayable",
      "type": "function"
    },
    {
      "inputs": [
        {
          "internalType": "address",
          "name": "newOwner",
          "type": "address"
        }
      ],
      "name": "transferOwnership",
      "outputs": [],
      "stateMutability": "nonpayable",
      "type": "function"
    },
    {
      "inputs": [
        {
          "internalType": "address",
          "name": "account",
          "type": "address"
        }
      ],
      "name": "unScaledbalanceOf",
      "outputs": [
        {
          "internalType": "uint256",
          "name": "",
          "type": "uint256"
        }
      ],
      "stateMutability": "view",
      "type": "function"
    },
    {
      "inputs": [
        {
          "internalType": "address",
          "name": "newImplementation",
          "type": "address"
        }
      ],
      "name": "upgradeTo",
      "outputs": [],
      "stateMutability": "nonpayable",
      "type": "function"
    },
    {
      "inputs": [
        {
          "internalType": "address",
          "name": "newImplementation",
          "type": "address"
        },
        {
          "internalType": "bytes",
          "name": "data",
          "type": "bytes"
        }
      ],
      "name": "upgradeToAndCall",
      "outputs": [],
      "stateMutability": "payable",
      "type": "function"
    },
    {
      "inputs": [
        {
          "internalType": "uint256",
          "name": "assets",
          "type": "uint256"
        },
        {
          "internalType": "address",
          "name": "receiver",
          "type": "address"
        },
        {
          "internalType": "address",
          "name": "owner_",
          "type": "address"
        }
      ],
      "name": "withdraw",
      "outputs": [
        {
          "internalType": "uint256",
          "name": "",
          "type": "uint256"
        }
      ],
      "stateMutability": "nonpayable",
      "type": "function"
    }
  ],
  "bytecode": "0x60a0604052306080523480156200001557600080fd5b506200002062000030565b6200002a62000030565b620000f1565b600054610100900460ff16156200009d5760405162461bcd60e51b815260206004820152602760248201527f496e697469616c697a61626c653a20636f6e747261637420697320696e697469604482015266616c697a696e6760c81b606482015260840160405180910390fd5b60005460ff90811614620000ef576000805460ff191660ff9081179091556040519081527f7f26b83ff96e1f2b6a682f133852f6798a09c465da95921460cefb38474024989060200160405180910390a15b565b608051614eb262000129600039600081816111ae01528181611238015281816113e90152818161146e01526119390152614eb26000f3fe60806040526004361061038c5760003560e01c80637dbaab62116101dc578063b460af9411610102578063d78f0921116100a0578063ef8b30f71161006f578063ef8b30f714610412578063f077fd3c1461097f578063f2fde38b1461099f578063fd6064b3146109bf57600080fd5b8063d78f09211461090f578063d905777e146108ba578063dd62ed3e14610924578063e58127311461096a57600080fd5b8063c6e6f592116100dc578063c6e6f59214610412578063ce96cb77146108ba578063d505accf146108da578063d69f62e0146108fa57600080fd5b8063b460af941461087a578063ba0876521461089a578063c63d75b6146105ae57600080fd5b8063925d6ba21161017a578063a457c2d711610149578063a457c2d71461081a578063a9059cbb1461083a578063b1dbfcee1461085a578063b3d7f6b91461041257600080fd5b8063925d6ba2146107a657806394bf804d146107c557806395d89b41146107e55780639dc29fac146107fa57600080fd5b806385f2eac0116101b657806385f2eac0146107285780638da5cb5b146107485780638f4cef0c146107665780638f50bd131461078657600080fd5b80637dbaab62146106c05780637ecebe00146106e057806384b0196e1461070057600080fd5b80633644e515116102c1578063501639741161025f5780636a3005291161022e5780636a300529146106565780636e553f651461066b57806370a082311461068b578063715018a6146106ab57600080fd5b806350163974146105e157806350921b231461060157806352d1902d146106215780635f758bef1461063657600080fd5b8063395093511161029b578063395093511461058e578063402d267d146105ae5780634cdad506146104125780634f1ef286146105ce57600080fd5b80633644e515146105265780633659cfe61461053b57806338d52e0f1461055b57600080fd5b806316b535f41161032e578063275f0ddd11610308578063275f0ddd146104b557806327a44ed0146104d557806330928009146104f5578063313ce5671461050a57600080fd5b806316b535f41461046057806318160ddd1461048057806323b872dd1461049557600080fd5b806306fdde031161036a57806306fdde03146103f057806307a2d13a14610412578063095ea7b3146104305780630a28a4771461041257600080fd5b806301e1d11414610391578063030d4ed7146103b957806305bfee33146103d0575b600080fd5b34801561039d57600080fd5b506103a66109df565b6040519081526020015b60405180910390f35b3480156103c557600080fd5b506103ce610a5b565b005b3480156103dc57600080fd5b506103ce6103eb3660046146c7565b610a76565b3480156103fc57600080fd5b50610405610b02565b6040516103b09190614743565b34801561041e57600080fd5b506103a661042d366004614756565b90565b34801561043c57600080fd5b5061045061044b3660046146c7565b610b94565b60405190151581526020016103b0565b34801561046c57600080fd5b506103ce61047b3660046146c7565b610bae565b34801561048c57600080fd5b5060cb546103a6565b3480156104a157600080fd5b506104506104b036600461476f565b610c3d565b3480156104c157600080fd5b506103ce6104d03660046147b0565b611012565b3480156104e157600080fd5b5061016254600160b81b900460ff16610450565b34801561050157600080fd5b506103ce611155565b34801561051657600080fd5b50604051601281526020016103b0565b34801561053257600080fd5b506103a661119a565b34801561054757600080fd5b506103ce6105563660046147e9565b6111a4565b34801561056757600080fd5b50610196546001600160a01b03165b6040516001600160a01b0390911681526020016103b0565b34801561059a57600080fd5b506104506105a93660046146c7565b611324565b3480156105ba57600080fd5b506103a66105c93660046147e9565b611363565b6103ce6105dc366004614892565b6113df565b3480156105ed57600080fd5b506104506105fc3660046147e9565b611547565b34801561060d57600080fd5b506103a661061c366004614907565b61162e565b34801561062d57600080fd5b506103a661192c565b34801561064257600080fd5b506103ce6106513660046146c7565b6119f1565b34801561066257600080fd5b506103ce611a03565b34801561067757600080fd5b506103a6610686366004614961565b611a48565b34801561069757600080fd5b506103a66106a63660046147e9565b611ca4565b3480156106b757600080fd5b506103ce611d69565b3480156106cc57600080fd5b506103ce6106db3660046149b4565b611d7d565b3480156106ec57600080fd5b506103a66106fb3660046147e9565b611f7e565b34801561070c57600080fd5b50610715611f9d565b6040516103b09796959493929190614a52565b34801561073457600080fd5b5061016254600160b01b900460ff16610450565b34801561075457600080fd5b506097546001600160a01b0316610576565b34801561077257600080fd5b506103a66107813660046147e9565b612043565b34801561079257600080fd5b506104506107a13660046147e9565b612061565b3480156107b257600080fd5b50610195546001600160a01b0316610576565b3480156107d157600080fd5b506103a66107e0366004614961565b612103565b3480156107f157600080fd5b5061040561237a565b34801561080657600080fd5b506103ce6108153660046146c7565b612389565b34801561082657600080fd5b506104506108353660046146c7565b61239b565b34801561084657600080fd5b506104506108553660046146c7565b612438565b34801561086657600080fd5b5061016254600160a81b900460ff16610450565b34801561088657600080fd5b506103a6610895366004614ae8565b6127f4565b3480156108a657600080fd5b506103a66108b5366004614ae8565b612bcd565b3480156108c657600080fd5b506103a66108d53660046147e9565b612f61565b3480156108e657600080fd5b506103ce6108f5366004614b2a565b612fd1565b34801561090657600080fd5b506103ce613135565b34801561091b57600080fd5b506103ce61316a565b34801561093057600080fd5b506103a661093f3660046147b0565b6001600160a01b03918216600090815260ca6020908152604080832093909416825291909152205490565b34801561097657600080fd5b506103ce6131a5565b34801561098b57600080fd5b506103ce61099a3660046147b0565b6131ea565b3480156109ab57600080fd5b506103ce6109ba3660046147e9565b6132fa565b3480156109cb57600080fd5b5061016254600160a01b900460ff16610450565b61019654610195546040516370a0823160e01b81526001600160a01b03918216600482015260009291909116906370a0823190602401602060405180830381865afa158015610a32573d6000803e3d6000fd5b505050506040513d601f19601f82011682018060405250810190610a569190614b98565b905090565b610a63613370565b610162805463ffffffff60a01b19169055565b610a7e6133ca565b61019554610196546040516368939ecf60e11b8152600160a01b90910460ff1615156004820152602481018390526001600160a01b039091169063d1273d9e90604401600060405180830381600087803b158015610adb57600080fd5b505af1158015610aef573d6000803e3d6000fd5b50505050610afd82826133ff565b505050565b606060cc8054610b1190614bb1565b80601f0160208091040260200160405190810160405280929190818152602001828054610b3d90614bb1565b8015610b8a5780601f10610b5f57610100808354040283529160200191610b8a565b820191906000526020600020905b815481529060010190602001808311610b6d57829003601f168201915b5050505050905090565b600033610ba2818585613414565b60019150505b92915050565b610bb66133ca565b610195546101965460405163566f4d9560e11b8152600160a01b90910460ff16151560048201526001600160a01b038481166024830152604482018490529091169063acde9b2a90606401600060405180830381600087803b158015610c1b57600080fd5b505af1158015610c2f573d6000803e3d6000fd5b50505050610afd8282613538565b61016254600090600160b01b900460ff1615610c6c57604051630c98e6a160e31b815260040160405180910390fd5b61019560009054906101000a90046001600160a01b03166001600160a01b0316629c185f6040518163ffffffff1660e01b8152600401602060405180830381865afa158015610cbf573d6000803e3d6000fd5b505050506040513d601f19601f82011682018060405250810190610ce39190614be5565b15610d01576040516321e3430160e21b815260040160405180910390fd5b61019560009054906101000a90046001600160a01b03166001600160a01b031663533ae1296040518163ffffffff1660e01b8152600401600060405180830381600087803b158015610d5257600080fd5b505af1158015610d66573d6000803e3d6000fd5b50506101625460405163df592f7d60e01b81526001600160a01b0380881660048301528794509091169150600090829063df592f7d90602401602060405180830381865afa158015610dbc573d6000803e3d6000fd5b505050506040513d601f19601f82011682018060405250810190610de09190614be5565b90508015610e015760405163108a7eb160e21b815260040160405180910390fd5b6101625460405163df592f7d60e01b81526001600160a01b03808a16600483015289921690600090829063df592f7d90602401602060405180830381865afa158015610e51573d6000803e3d6000fd5b505050506040513d601f19601f82011682018060405250810190610e759190614be5565b90508015610e965760405163108a7eb160e21b815260040160405180910390fd5b610ea08a8a611012565b610eaa8a8a6131ea565b61019554604051633524f9e360e21b81526001600160a01b038c811660048301528b81166024830152600092169063d493e78c90604401608060405180830381865afa158015610efe573d6000803e3d6000fd5b505050506040513d601f19601f82011682018060405250810190610f229190614c02565b90506000610f318c8c8c613544565b61019554610196549192506001600160a01b03169063eec0d656908e908e90600160a01b900460ff168e8760006020020151886001602002015189600260200201518a600360200201516040516001600160e01b031960e08b901b1681526001600160a01b03988916600482015297909616602488015293151560448701526064860192909252608485015260a484015260c483015260e482015261010401600060405180830381600087803b158015610fea57600080fd5b505af1158015610ffe573d6000803e3d6000fd5b50929e9d5050505050505050505050505050565b61101b82611547565b1561108157610195546040516310e7089f60e11b81526001600160a01b038481166004830152909116906321ce113e90602401600060405180830381600087803b15801561106857600080fd5b505af115801561107c573d6000803e3d6000fd5b505050505b61019554604051631605ed3160e31b81526001600160a01b0383811660048301529091169063b02f698890602401600060405180830381600087803b1580156110c957600080fd5b505af11580156110dd573d6000803e3d6000fd5b505050506110ea81611547565b1561115157610195546040516310e7089f60e11b81526001600160a01b038381166004830152909116906321ce113e906024015b600060405180830381600087803b15801561113857600080fd5b505af115801561114c573d6000803e3d6000fd5b505050505b5050565b61115d613370565b61016280547fffffffffffffffff00ffffffffffffffffffffffffffffffffffffffffffffff8116600160b81b9182900460ff1615909102179055565b6000610a5661355d565b6001600160a01b037f00000000000000000000000000000000000000000000000000000000000000001630036112365760405162461bcd60e51b815260206004820152602c60248201527f46756e6374696f6e206d7573742062652063616c6c6564207468726f7567682060448201526b19195b1959d85d1958d85b1b60a21b60648201526084015b60405180910390fd5b7f00000000000000000000000000000000000000000000000000000000000000006001600160a01b03166112917f360894a13ba1a3210667c828492db98dca3e2076cc3735a920a3ca505d382bbc546001600160a01b031690565b6001600160a01b0316146112fc5760405162461bcd60e51b815260206004820152602c60248201527f46756e6374696f6e206d7573742062652063616c6c6564207468726f7567682060448201526b6163746976652070726f787960a01b606482015260840161122d565b61130581613567565b604080516000808252602082019092526113219183919061356f565b50565b33600081815260ca602090815260408083206001600160a01b0387168452909152812054909190610ba2908290869061135e908790614c96565b613414565b6101955460405163728bf73360e01b81526001600160a01b038381166004830152600092169063728bf73390602401602060405180830381865afa1580156113af573d6000803e3d6000fd5b505050506040513d601f19601f820116820180604052508101906113d39190614b98565b610ba890600019614ca9565b6001600160a01b037f000000000000000000000000000000000000000000000000000000000000000016300361146c5760405162461bcd60e51b815260206004820152602c60248201527f46756e6374696f6e206d7573742062652063616c6c6564207468726f7567682060448201526b19195b1959d85d1958d85b1b60a21b606482015260840161122d565b7f00000000000000000000000000000000000000000000000000000000000000006001600160a01b03166114c77f360894a13ba1a3210667c828492db98dca3e2076cc3735a920a3ca505d382bbc546001600160a01b031690565b6001600160a01b0316146115325760405162461bcd60e51b815260206004820152602c60248201527f46756e6374696f6e206d7573742062652063616c6c6564207468726f7567682060448201526b6163746976652070726f787960a01b606482015260840161122d565b61153b82613567565b6111518282600161356f565b6101955460408051638df4541b60e01b815290516000926001600160a01b031691638df4541b9160048083019260209291908290030181865afa158015611592573d6000803e3d6000fd5b505050506040513d601f19601f820116820180604052508101906115b69190614b98565b6101955460405163a129c84760e01b81526001600160a01b0385811660048301529091169063a129c847906024015b602060405180830381865afa158015611602573d6000803e3d6000fd5b505050506040513d601f19601f820116820180604052508101906116269190614b98565b141592915050565b61016254600090600160a01b900460ff161561165d57604051636822eceb60e11b815260040160405180910390fd5b61019560009054906101000a90046001600160a01b03166001600160a01b0316629c185f6040518163ffffffff1660e01b8152600401602060405180830381865afa1580156116b0573d6000803e3d6000fd5b505050506040513d601f19601f820116820180604052508101906116d49190614be5565b156116f2576040516321e3430160e21b815260040160405180910390fd5b61019560009054906101000a90046001600160a01b03166001600160a01b031663533ae1296040518163ffffffff1660e01b8152600401600060405180830381600087803b15801561174357600080fd5b505af1158015611757573d6000803e3d6000fd5b505061019554604051634eacc0fd60e01b8152600481018b90528a93506001600160a01b039091169150634eacc0fd906024016020604051808303816000875af11580156117a9573d6000803e3d6000fd5b505050506040513d601f19601f820116820180604052508101906117cd9190614be5565b156117eb5760405163b04c001160e01b815260040160405180910390fd5b87876117f782826136fb565b60008a610196549091506001600160a01b031663d505accf336101955460405160e084901b6001600160e01b03191681526001600160a01b0392831660048201529116602482015260448101849052606481018c905260ff8b16608482015260a481018a905260c4810189905260e401600060405180830381600087803b15801561188157600080fd5b505af1158015611895573d6000803e3d6000fd5b5050610195546001600160a01b0316915063c14cfe099050336040516001600160e01b031960e084901b1681526001600160a01b039182166004820152908d166024820152604481018e905260648101849052608401600060405180830381600087803b15801561190557600080fd5b505af1158015611919573d6000803e3d6000fd5b50929d9c50505050505050505050505050565b6000306001600160a01b037f000000000000000000000000000000000000000000000000000000000000000016146119cc5760405162461bcd60e51b815260206004820152603860248201527f555550535570677261646561626c653a206d757374206e6f742062652063616c60448201527f6c6564207468726f7567682064656c656761746563616c6c0000000000000000606482015260840161122d565b507f360894a13ba1a3210667c828492db98dca3e2076cc3735a920a3ca505d382bbc90565b6119f96133ca565b6111518282613745565b611a0b613370565b61016280547fffffffffffffffffff00ffffffffffffffffffffffffffffffffffffffffffff8116600160b01b9182900460ff1615909102179055565b61016254600090600160a01b900460ff1615611a7757604051636822eceb60e11b815260040160405180910390fd5b61019560009054906101000a90046001600160a01b03166001600160a01b0316629c185f6040518163ffffffff1660e01b8152600401602060405180830381865afa158015611aca573d6000803e3d6000fd5b505050506040513d601f19601f82011682018060405250810190611aee9190614be5565b15611b0c576040516321e3430160e21b815260040160405180910390fd5b61019560009054906101000a90046001600160a01b03166001600160a01b031663533ae1296040518163ffffffff1660e01b8152600401600060405180830381600087803b158015611b5d57600080fd5b505af1158015611b71573d6000803e3d6000fd5b505061019554604051634eacc0fd60e01b8152600481018790528693506001600160a01b039091169150634eacc0fd906024016020604051808303816000875af1158015611bc3573d6000803e3d6000fd5b505050506040513d601f19601f82011682018060405250810190611be79190614be5565b15611c055760405163b04c001160e01b815260040160405180910390fd5b8383611c1182826136fb565b600086610195549091506001600160a01b031663c14cfe09336040516001600160e01b031960e084901b1681526001600160a01b0391821660048201529089166024820152604481018a905260648101849052608401600060405180830381600087803b158015611c8157600080fd5b505af1158015611c95573d6000803e3d6000fd5b50929998505050505050505050565b6000611caf82612061565b80611cbe5750611cbe82611547565b15611d5b576101955460405163a4d96e1760e01b81526001600160a01b038481166004830152600092839291169063a4d96e17906024016040805180830381865afa158015611d11573d6000803e3d6000fd5b505050506040513d601f19601f82011682018060405250810190611d359190614cbc565b610196549193509150600160a01b900460ff1615611d54575092915050565b9392505050565b610ba882612043565b919050565b611d71613370565b611d7b6000613806565b565b600054610100900460ff1615808015611d9d5750600054600160ff909116105b80611db75750303b158015611db7575060005460ff166001145b611e295760405162461bcd60e51b815260206004820152602e60248201527f496e697469616c697a61626c653a20636f6e747261637420697320616c72656160448201527f647920696e697469616c697a6564000000000000000000000000000000000000606482015260840161122d565b6000805460ff191660011790558015611e4c576000805461ff0019166101001790555b611e568686613858565b611e5f866138bb565b611e6883613937565b611e706139b3565b611e78613a14565b61019580546001600160a01b0319166001600160a01b03861690811790915560408051634c566bd360e11b815290516398acd7a6916004808201926020929091908290030181865afa158015611ed2573d6000803e3d6000fd5b505050506040513d601f19601f82011682018060405250810190611ef69190614ce0565b61019680546001600160a01b039290921674ffffffffffffffffffffffffffffffffffffffffff1990921691909117600160a01b84151502179055801561114c576000805461ff0019169055604051600181527f7f26b83ff96e1f2b6a682f133852f6798a09c465da95921460cefb38474024989060200160405180910390a1505050505050565b6001600160a01b038116600090815261012f6020526040812054610ba8565b60006060806000806000606060fb546000801b148015611fbd575060fc54155b6120095760405162461bcd60e51b815260206004820152601560248201527f4549503731323a20556e696e697469616c697a65640000000000000000000000604482015260640161122d565b612011613a6d565b612019613a7c565b60408051600080825260208201909252600f60f81b9b939a50919850469750309650945092509050565b6001600160a01b038116600090815260c96020526040812054610ba8565b6101955460408051636ee545fd60e11b815290516000926001600160a01b03169163ddca8bfa9160048083019260209291908290030181865afa1580156120ac573d6000803e3d6000fd5b505050506040513d601f19601f820116820180604052508101906120d09190614b98565b610195546040516325ad47ab60e21b81526001600160a01b038581166004830152909116906396b51eac906024016115e5565b61016254600090600160a01b900460ff161561213257604051636822eceb60e11b815260040160405180910390fd5b61019560009054906101000a90046001600160a01b03166001600160a01b0316629c185f6040518163ffffffff1660e01b8152600401602060405180830381865afa158015612185573d6000803e3d6000fd5b505050506040513d601f19601f820116820180604052508101906121a99190614be5565b156121c7576040516321e3430160e21b815260040160405180910390fd5b61019560009054906101000a90046001600160a01b03166001600160a01b031663533ae1296040518163ffffffff1660e01b8152600401600060405180830381600087803b15801561221857600080fd5b505af115801561222c573d6000803e3d6000fd5b505061019554604051634eacc0fd60e01b8152600481018790528693506001600160a01b039091169150634eacc0fd906024016020604051808303816000875af115801561227e573d6000803e3d6000fd5b505050506040513d601f19601f820116820180604052508101906122a29190614be5565b156122c05760405163b04c001160e01b815260040160405180910390fd5b6122c983611363565b8411156122e95760405163292b120160e01b815260040160405180910390fd5b600084610195549091506001600160a01b031663c14cfe09336040516001600160e01b031960e084901b1681526001600160a01b03918216600482015290871660248201526044810184905260648101889052608401600060405180830381600087803b15801561235957600080fd5b505af115801561236d573d6000803e3d6000fd5b5092979650505050505050565b606060cd8054610b1190614bb1565b6123916133ca565b6111518282613a8b565b33600081815260ca602090815260408083206001600160a01b0387168452909152812054909190838110156124205760405162461bcd60e51b815260206004820152602560248201527f45524332303a2064656372656173656420616c6c6f77616e63652062656c6f77604482015264207a65726f60d81b606482015260840161122d565b61242d8286868403613414565b506001949350505050565b61016254600090600160b01b900460ff161561246757604051630c98e6a160e31b815260040160405180910390fd5b61019560009054906101000a90046001600160a01b03166001600160a01b0316629c185f6040518163ffffffff1660e01b8152600401602060405180830381865afa1580156124ba573d6000803e3d6000fd5b505050506040513d601f19601f820116820180604052508101906124de9190614be5565b156124fc576040516321e3430160e21b815260040160405180910390fd5b6101625460405163df592f7d60e01b81526001600160a01b03808616600483015285921690600090829063df592f7d90602401602060405180830381865afa15801561254c573d6000803e3d6000fd5b505050506040513d601f19601f820116820180604052508101906125709190614be5565b905080156125915760405163108a7eb160e21b815260040160405180910390fd5b336101625460405163df592f7d60e01b81526001600160a01b03838116600483015290911690600090829063df592f7d90602401602060405180830381865afa1580156125e2573d6000803e3d6000fd5b505050506040513d601f19601f820116820180604052508101906126069190614be5565b905080156126275760405163108a7eb160e21b815260040160405180910390fd5b61019560009054906101000a90046001600160a01b03166001600160a01b031663533ae1296040518163ffffffff1660e01b8152600401600060405180830381600087803b15801561267857600080fd5b505af115801561268c573d6000803e3d6000fd5b505050506126a061269a3390565b8a611012565b6126aa338a6131ea565b610195546000906001600160a01b031663d493e78c336040516001600160e01b031960e084901b1681526001600160a01b039182166004820152908d166024820152604401608060405180830381865afa15801561270c573d6000803e3d6000fd5b505050506040513d601f19601f820116820180604052508101906127309190614c02565b9050600061273e8b8b613bbf565b610195549091506001600160a01b031663eec0d65633610196548e90600160a01b900460ff168e8760006020020151886001602002015189600260200201518a600360200201516040516001600160e01b031960e08b901b1681526001600160a01b03988916600482015297909616602488015293151560448701526064860192909252608485015260a484015260c483015260e482015261010401600060405180830381600087803b15801561190557600080fd5b61016254600090600160a81b900460ff161561282357604051636344d7b760e11b815260040160405180910390fd5b61019560009054906101000a90046001600160a01b03166001600160a01b0316629c185f6040518163ffffffff1660e01b8152600401602060405180830381865afa158015612876573d6000803e3d6000fd5b505050506040513d601f19601f8201168201806040525081019061289a9190614be5565b156128b8576040516321e3430160e21b815260040160405180910390fd5b61019560009054906101000a90046001600160a01b03166001600160a01b031663533ae1296040518163ffffffff1660e01b8152600401600060405180830381600087803b15801561290957600080fd5b505af115801561291d573d6000803e3d6000fd5b50506101955460405163cf0571d360e01b8152600481018890528793506001600160a01b03909116915063cf0571d3906024016020604051808303816000875af115801561296f573d6000803e3d6000fd5b505050506040513d601f19601f820116820180604052508101906129939190614be5565b156129b15760405163922c089560e01b815260040160405180910390fd5b826129bb81613bcd565b6129c3613bf6565b61019560009054906101000a90046001600160a01b03166001600160a01b031663ddca8bfa6040518163ffffffff1660e01b8152600401602060405180830381865afa158015612a17573d6000803e3d6000fd5b505050506040513d601f19601f82011682018060405250810190612a3b9190614b98565b610195546040516325ad47ab60e21b81526001600160a01b038881166004830152909116906396b51eac90602401602060405180830381865afa158015612a86573d6000803e3d6000fd5b505050506040513d601f19601f82011682018060405250810190612aaa9190614b98565b14612b10576101955460405163242ffe5560e11b81526001600160a01b0387811660048301529091169063485ffcaa90602401600060405180830381600087803b158015612af757600080fd5b505af1158015612b0b573d6000803e3d6000fd5b505050505b612b1984612f61565b861115612b395760405163039eea9760e31b815260040160405180910390fd5b61019554604051633d82850b60e01b81523360048201526001600160a01b0387811660248301528681166044830152606482018990526084820189905288921690633d82850b9060a4015b600060405180830381600087803b158015612b9e57600080fd5b505af1158015612bb2573d6000803e3d6000fd5b50929550505050612bc4600161016355565b50509392505050565b61016254600090600160a81b900460ff1615612bfc57604051636344d7b760e11b815260040160405180910390fd5b61019560009054906101000a90046001600160a01b03166001600160a01b0316629c185f6040518163ffffffff1660e01b8152600401602060405180830381865afa158015612c4f573d6000803e3d6000fd5b505050506040513d601f19601f82011682018060405250810190612c739190614be5565b15612c91576040516321e3430160e21b815260040160405180910390fd5b61019560009054906101000a90046001600160a01b03166001600160a01b031663533ae1296040518163ffffffff1660e01b8152600401600060405180830381600087803b158015612ce257600080fd5b505af1158015612cf6573d6000803e3d6000fd5b50506101955460405163cf0571d360e01b8152600481018890528793506001600160a01b03909116915063cf0571d3906024016020604051808303816000875af1158015612d48573d6000803e3d6000fd5b505050506040513d601f19601f82011682018060405250810190612d6c9190614be5565b15612d8a5760405163922c089560e01b815260040160405180910390fd5b82612d9481613bcd565b612d9c613bf6565b61019560009054906101000a90046001600160a01b03166001600160a01b031663ddca8bfa6040518163ffffffff1660e01b8152600401602060405180830381865afa158015612df0573d6000803e3d6000fd5b505050506040513d601f19601f82011682018060405250810190612e149190614b98565b610195546040516325ad47ab60e21b81526001600160a01b038881166004830152909116906396b51eac90602401602060405180830381865afa158015612e5f573d6000803e3d6000fd5b505050506040513d601f19601f82011682018060405250810190612e839190614b98565b14612ee9576101955460405163242ffe5560e11b81526001600160a01b0387811660048301529091169063485ffcaa90602401600060405180830381600087803b158015612ed057600080fd5b505af1158015612ee4573d6000803e3d6000fd5b505050505b612ef284612f61565b861115612f12576040516389e4c16360e01b815260040160405180910390fd5b61019554604051633d82850b60e01b81523360048201526001600160a01b0387811660248301528681166044830152606482018990526084820189905288921690633d82850b9060a401612b84565b610195546040516306443f4560e51b81526001600160a01b038381166004830152600092169063c887e8a090602401602060405180830381865afa158015612fad573d6000803e3d6000fd5b505050506040513d601f19601f82011682018060405250810190610ba89190614b98565b834211156130215760405162461bcd60e51b815260206004820152601d60248201527f45524332305065726d69743a206578706972656420646561646c696e65000000604482015260640161122d565b60007f6e71edae12b1b97f4d1f60370fef10105fa2faae0126114a169c64845d6126c98888886130508c613c51565b6040805160208101969096526001600160a01b0394851690860152929091166060840152608083015260a082015260c0810186905260e00160405160208183030381529060405280519060200120905060006130ab82613c7a565b905060006130bb82878787613ca7565b9050896001600160a01b0316816001600160a01b03161461311e5760405162461bcd60e51b815260206004820152601e60248201527f45524332305065726d69743a20696e76616c6964207369676e61747572650000604482015260640161122d565b6131298a8a8a613414565b50505050505050505050565b61313d613370565b610162805463ffffffff60a01b191677010101010000000000000000000000000000000000000000179055565b613172613370565b610162805474ff0000000000000000000000000000000000000000198116600160a01b9182900460ff1615909102179055565b6131ad613370565b61016280547fffffffffffffffffffff00ffffffffffffffffffffffffffffffffffffffffff8116600160a81b9182900460ff1615909102179055565b6131f382612061565b15613259576101955460405163242ffe5560e11b81526001600160a01b0384811660048301529091169063485ffcaa90602401600060405180830381600087803b15801561324057600080fd5b505af1158015613254573d6000803e3d6000fd5b505050505b61019554604051635737ed7d60e01b81526001600160a01b03838116600483015290911690635737ed7d90602401600060405180830381600087803b1580156132a157600080fd5b505af11580156132b5573d6000803e3d6000fd5b505050506132c281612061565b15611151576101955460405163242ffe5560e11b81526001600160a01b0383811660048301529091169063485ffcaa9060240161111e565b613302613370565b6001600160a01b0381166133675760405162461bcd60e51b815260206004820152602660248201527f4f776e61626c653a206e6577206f776e657220697320746865207a65726f206160448201526564647265737360d01b606482015260840161122d565b61132181613806565b6097546001600160a01b03163314611d7b5760405162461bcd60e51b815260206004820181905260248201527f4f776e61626c653a2063616c6c6572206973206e6f7420746865206f776e6572604482015260640161122d565b610195546001600160a01b0316336001600160a01b031614611d7b5760405163e565d9cb60e01b815260040160405180910390fd5b600061340b8383613cd1565b50600192915050565b6001600160a01b0383166134765760405162461bcd60e51b8152602060048201526024808201527f45524332303a20617070726f76652066726f6d20746865207a65726f206164646044820152637265737360e01b606482015260840161122d565b6001600160a01b0382166134d75760405162461bcd60e51b815260206004820152602260248201527f45524332303a20617070726f766520746f20746865207a65726f206164647265604482015261737360f01b606482015260840161122d565b6001600160a01b03838116600081815260ca602090815260408083209487168084529482529182902085905590518481527f8c5be1e5ebec7d5bd14f71427d1e84f3dd0314c0f7b2291e5b200ac8c7c3b925910160405180910390a3505050565b600061340b8383613d49565b600033613552858285613dbb565b61242d858585613e4d565b6000610a56613ff8565b611321613370565b7f4910fdfa16fed3260ed0e7147f7cc6da11a60208b5b9406d12a635614ffd91435460ff16156135a257610afd8361406c565b826001600160a01b03166352d1902d6040518163ffffffff1660e01b8152600401602060405180830381865afa9250505080156135fc575060408051601f3d908101601f191682019092526135f991810190614b98565b60015b61366e5760405162461bcd60e51b815260206004820152602e60248201527f45524331393637557067726164653a206e657720696d706c656d656e7461746960448201527f6f6e206973206e6f742055555053000000000000000000000000000000000000606482015260840161122d565b7f360894a13ba1a3210667c828492db98dca3e2076cc3735a920a3ca505d382bbc81146136ef5760405162461bcd60e51b815260206004820152602960248201527f45524331393637557067726164653a20756e737570706f727465642070726f786044820152681a58589b195555525160ba1b606482015260840161122d565b50610afd83838361412a565b8160000361371c576040516303e3e43960e51b815260040160405180910390fd5b61372581611363565b821115611151576040516314a4b53560e01b815260040160405180910390fd5b6001600160a01b03821661379b5760405162461bcd60e51b815260206004820152601f60248201527f45524332303a206d696e7420746f20746865207a65726f206164647265737300604482015260640161122d565b8060cb60008282546137ad9190614c96565b90915550506001600160a01b038216600081815260c960209081526040808320805486019055518481527fddf252ad1be2c89b69c2b068fc378daa952ba7f163c4a11628f55a4df523b3ef910160405180910390a35050565b609780546001600160a01b038381166001600160a01b0319831681179093556040519116919082907f8be0079c531659141344cd1fd0a4f28419497f9722a3daafe3b4186f6b6457e090600090a35050565b600054610100900460ff166138b15760405162461bcd60e51b815260206004820152602b6024820152600080516020614e3683398151915260448201526a6e697469616c697a696e6760a81b606482015260840161122d565b611151828261414f565b600054610100900460ff166139145760405162461bcd60e51b815260206004820152602b6024820152600080516020614e3683398151915260448201526a6e697469616c697a696e6760a81b606482015260840161122d565b61132181604051806040016040528060018152602001603160f81b8152506141c1565b600054610100900460ff166139905760405162461bcd60e51b815260206004820152602b6024820152600080516020614e3683398151915260448201526a6e697469616c697a696e6760a81b606482015260840161122d565b61016280546001600160a01b0319166001600160a01b0392909216919091179055565b600054610100900460ff16613a0c5760405162461bcd60e51b815260206004820152602b6024820152600080516020614e3683398151915260448201526a6e697469616c697a696e6760a81b606482015260840161122d565b611d7b614242565b600054610100900460ff16611d7b5760405162461bcd60e51b815260206004820152602b6024820152600080516020614e3683398151915260448201526a6e697469616c697a696e6760a81b606482015260840161122d565b606060fd8054610b1190614bb1565b606060fe8054610b1190614bb1565b6001600160a01b038216613aeb5760405162461bcd60e51b815260206004820152602160248201527f45524332303a206275726e2066726f6d20746865207a65726f206164647265736044820152607360f81b606482015260840161122d565b6001600160a01b038216600090815260c9602052604090205481811015613b5f5760405162461bcd60e51b815260206004820152602260248201527f45524332303a206275726e20616d6f756e7420657863656564732062616c616e604482015261636560f01b606482015260840161122d565b6001600160a01b038316600081815260c960209081526040808320868603905560cb80548790039055518581529192917fddf252ad1be2c89b69c2b068fc378daa952ba7f163c4a11628f55a4df523b3ef910160405180910390a3505050565b600033610ba2818585613e4d565b6001600160a01b038116331461132157604051637a45e68560e01b815260040160405180910390fd5b60026101635403613c495760405162461bcd60e51b815260206004820152601f60248201527f5265656e7472616e637947756172643a207265656e7472616e742063616c6c00604482015260640161122d565b600261016355565b6001600160a01b038116600090815261012f602052604090208054600181018255905b50919050565b6000610ba8613c8761355d565b8360405161190160f01b8152600281019290925260228201526042902090565b6000806000613cb8878787876142a4565b91509150613cc581614368565b5090505b949350505050565b6001600160a01b038216613d275760405162461bcd60e51b815260206004820152601c60248201527f54726561737572792063616e6e6f74206265207a65726f206164647200000000604482015260640161122d565b6001600160a01b03909116600090815260c96020526040902080549091019055565b6001600160a01b038216613d9f5760405162461bcd60e51b815260206004820152601b60248201527f416464726573732063616e6e6f74206265207a65726f20616464720000000000604482015260640161122d565b6001600160a01b03909116600090815260c96020526040902055565b6001600160a01b03838116600090815260ca60209081526040808320938616835292905220546000198114613e475781811015613e3a5760405162461bcd60e51b815260206004820152601d60248201527f45524332303a20696e73756666696369656e7420616c6c6f77616e6365000000604482015260640161122d565b613e478484848403613414565b50505050565b6001600160a01b038316613eb15760405162461bcd60e51b815260206004820152602560248201527f45524332303a207472616e736665722066726f6d20746865207a65726f206164604482015264647265737360d81b606482015260840161122d565b6001600160a01b038216613f135760405162461bcd60e51b815260206004820152602360248201527f45524332303a207472616e7366657220746f20746865207a65726f206164647260448201526265737360e81b606482015260840161122d565b6001600160a01b038316600090815260c9602052604090205481811015613f8b5760405162461bcd60e51b815260206004820152602660248201527f45524332303a207472616e7366657220616d6f756e7420657863656564732062604482015265616c616e636560d01b606482015260840161122d565b6001600160a01b03808516600081815260c9602052604080822086860390559286168082529083902080548601905591517fddf252ad1be2c89b69c2b068fc378daa952ba7f163c4a11628f55a4df523b3ef90613feb9086815260200190565b60405180910390a3613e47565b60007f8b73c3c69bb8fe3d512ecc4cf759cc79239f7b179b0ffacaa9a75d522b39400f6140236144b2565b61402b61450b565b60408051602081019490945283019190915260608201524660808201523060a082015260c00160405160208183030381529060405280519060200120905090565b6001600160a01b0381163b6140e95760405162461bcd60e51b815260206004820152602d60248201527f455243313936373a206e657720696d706c656d656e746174696f6e206973206e60448201527f6f74206120636f6e747261637400000000000000000000000000000000000000606482015260840161122d565b7f360894a13ba1a3210667c828492db98dca3e2076cc3735a920a3ca505d382bbc80546001600160a01b0319166001600160a01b0392909216919091179055565b6141338361453c565b6000825111806141405750805b15610afd57613e47838361457c565b600054610100900460ff166141a85760405162461bcd60e51b815260206004820152602b6024820152600080516020614e3683398151915260448201526a6e697469616c697a696e6760a81b606482015260840161122d565b60cc6141b48382614d43565b5060cd610afd8282614d43565b600054610100900460ff1661421a5760405162461bcd60e51b815260206004820152602b6024820152600080516020614e3683398151915260448201526a6e697469616c697a696e6760a81b606482015260840161122d565b60fd6142268382614d43565b5060fe6142338282614d43565b5050600060fb81905560fc5550565b600054610100900460ff1661429b5760405162461bcd60e51b815260206004820152602b6024820152600080516020614e3683398151915260448201526a6e697469616c697a696e6760a81b606482015260840161122d565b611d7b33613806565b6000807f7fffffffffffffffffffffffffffffff5d576e7357a4501ddfe92f46681b20a08311156142db575060009050600361435f565b6040805160008082526020820180845289905260ff881692820192909252606081018690526080810185905260019060a0016020604051602081039080840390855afa15801561432f573d6000803e3d6000fd5b5050604051601f1901519150506001600160a01b0381166143585760006001925092505061435f565b9150600090505b94509492505050565b600081600481111561437c5761437c614e03565b036143845750565b600181600481111561439857614398614e03565b036143e55760405162461bcd60e51b815260206004820152601860248201527f45434453413a20696e76616c6964207369676e61747572650000000000000000604482015260640161122d565b60028160048111156143f9576143f9614e03565b036144465760405162461bcd60e51b815260206004820152601f60248201527f45434453413a20696e76616c6964207369676e6174757265206c656e67746800604482015260640161122d565b600381600481111561445a5761445a614e03565b036113215760405162461bcd60e51b815260206004820152602260248201527f45434453413a20696e76616c6964207369676e6174757265202773272076616c604482015261756560f01b606482015260840161122d565b6000806144bd613a6d565b8051909150156144d4578051602090910120919050565b60fb5480156144e35792915050565b7fc5d2460186f7233c927e7db2dcc703c0e500b653ca82273b7bfad8045d85a4709250505090565b600080614516613a7c565b80519091501561452d578051602090910120919050565b60fc5480156144e35792915050565b6145458161406c565b6040516001600160a01b038216907fbc7cd75a20ee27fd9adebab32041f755214dbc6bffa90cc0225b39da2e5c2d3b90600090a250565b6060611d548383604051806060016040528060278152602001614e56602791396060600080856001600160a01b0316856040516145b99190614e19565b600060405180830381855af49150503d80600081146145f4576040519150601f19603f3d011682016040523d82523d6000602084013e6145f9565b606091505b509150915061460a86838387614614565b9695505050505050565b6060831561468357825160000361467c576001600160a01b0385163b61467c5760405162461bcd60e51b815260206004820152601d60248201527f416464726573733a2063616c6c20746f206e6f6e2d636f6e7472616374000000604482015260640161122d565b5081613cc9565b613cc983838151156146985781518083602001fd5b8060405162461bcd60e51b815260040161122d9190614743565b6001600160a01b038116811461132157600080fd5b600080604083850312156146da57600080fd5b82356146e5816146b2565b946020939093013593505050565b60005b8381101561470e5781810151838201526020016146f6565b50506000910152565b6000815180845261472f8160208601602086016146f3565b601f01601f19169290920160200192915050565b602081526000611d546020830184614717565b60006020828403121561476857600080fd5b5035919050565b60008060006060848603121561478457600080fd5b833561478f816146b2565b9250602084013561479f816146b2565b929592945050506040919091013590565b600080604083850312156147c357600080fd5b82356147ce816146b2565b915060208301356147de816146b2565b809150509250929050565b6000602082840312156147fb57600080fd5b8135611d54816146b2565b634e487b7160e01b600052604160045260246000fd5b600067ffffffffffffffff8084111561483757614837614806565b604051601f8501601f19908116603f0116810190828211818310171561485f5761485f614806565b8160405280935085815286868601111561487857600080fd5b858560208301376000602087830101525050509392505050565b600080604083850312156148a557600080fd5b82356148b0816146b2565b9150602083013567ffffffffffffffff8111156148cc57600080fd5b8301601f810185136148dd57600080fd5b6148ec8582356020840161481c565b9150509250929050565b803560ff81168114611d6457600080fd5b60008060008060008060c0878903121561492057600080fd5b863595506020870135614932816146b2565b945060408701359350614947606088016148f6565b92506080870135915060a087013590509295509295509295565b6000806040838503121561497457600080fd5b8235915060208301356147de816146b2565b600082601f83011261499757600080fd5b611d548383356020850161481c565b801515811461132157600080fd5b600080600080600060a086880312156149cc57600080fd5b853567ffffffffffffffff808211156149e457600080fd5b6149f089838a01614986565b96506020880135915080821115614a0657600080fd5b50614a1388828901614986565b9450506040860135614a24816146b2565b92506060860135614a34816146b2565b91506080860135614a44816149a6565b809150509295509295909350565b60ff60f81b881681526000602060e081840152614a7260e084018a614717565b8381036040850152614a84818a614717565b606085018990526001600160a01b038816608086015260a0850187905284810360c0860152855180825283870192509083019060005b81811015614ad657835183529284019291840191600101614aba565b50909c9b505050505050505050505050565b600080600060608486031215614afd57600080fd5b833592506020840135614b0f816146b2565b91506040840135614b1f816146b2565b809150509250925092565b600080600080600080600060e0888a031215614b4557600080fd5b8735614b50816146b2565b96506020880135614b60816146b2565b95506040880135945060608801359350614b7c608089016148f6565b925060a0880135915060c0880135905092959891949750929550565b600060208284031215614baa57600080fd5b5051919050565b600181811c90821680614bc557607f821691505b602082108103613c7457634e487b7160e01b600052602260045260246000fd5b600060208284031215614bf757600080fd5b8151611d54816149a6565b600060808284031215614c1457600080fd5b82601f830112614c2357600080fd5b6040516080810181811067ffffffffffffffff82111715614c4657614c46614806565b604052806080840185811115614c5b57600080fd5b845b81811015614c75578051835260209283019201614c5d565b509195945050505050565b634e487b7160e01b600052601160045260246000fd5b80820180821115610ba857610ba8614c80565b81810381811115610ba857610ba8614c80565b60008060408385031215614ccf57600080fd5b505080516020909101519092909150565b600060208284031215614cf257600080fd5b8151611d54816146b2565b601f821115610afd57600081815260208120601f850160051c81016020861015614d245750805b601f850160051c820191505b8181101561114c57828155600101614d30565b815167ffffffffffffffff811115614d5d57614d5d614806565b614d7181614d6b8454614bb1565b84614cfd565b602080601f831160018114614da65760008415614d8e5750858301515b600019600386901b1c1916600185901b17855561114c565b600085815260208120601f198616915b82811015614dd557888601518255948401946001909101908401614db6565b5085821015614df35787850151600019600388901b60f8161c191681555b5050505050600190811b01905550565b634e487b7160e01b600052602160045260246000fd5b60008251614e2b8184602087016146f3565b919091019291505056fe496e697469616c697a61626c653a20636f6e7472616374206973206e6f742069416464726573733a206c6f772d6c6576656c2064656c65676174652063616c6c206661696c6564a264697066735822122076f91412084d7945e3e9ca8a873926ed1990551424926b2ffdcfc50a8de6a3ea64736f6c63430008110033",
  "linkReferences": {},
  "deployedLinkReferences": {}
}