{
  "_format": "hh-sol-artifact-1",
  "contractName": "SmartToken",
  "sourceName": "contracts/vaults/SmartToken.sol",
  "abi": [
    {
      "inputs": [],
      "stateMutability": "nonpayable",
      "type": "constructor"
    },
    {
      "inputs": [],
      "name": "BaseContract__DepositCircuitBreaker",
      "type": "error"
    },
    {
      "inputs": [],
      "name": "BaseContract__FlashLoanCircuitBreaker",
      "type": "error"
    },
    {
      "inputs": [],
      "name": "BaseContract__RebalanceCircuitBreaker",
      "type": "error"
    },
    {
      "inputs": [],
      "name": "BaseContract__SanctionedAddress",
      "type": "error"
    },
    {
      "inputs": [],
      "name": "BaseContract__TransferCircuitBreaker",
      "type": "error"
    },
    {
      "inputs": [],
      "name": "BaseContract__WithdrawCircuitBreaker",
      "type": "error"
    },
    {
      "inputs": [],
      "name": "FlashLoan__FailedExecOps",
      "type": "error"
    },
    {
      "inputs": [],
      "name": "FlashLoan__FailedRepayments",
      "type": "error"
    },
    {
      "inputs": [],
      "name": "FlashLoan__InsufficientUnderlying",
      "type": "error"
    },
    {
      "inputs": [],
      "name": "FlashLoan__InvalidReceiver",
      "type": "error"
    },
    {
      "inputs": [],
      "name": "SmartToken__DepositLimitHit",
      "type": "error"
    },
    {
      "inputs": [],
      "name": "SmartToken__DepositMoreThanMax",
      "type": "error"
    },
    {
      "inputs": [],
      "name": "SmartToken__ExpiryDateReached",
      "type": "error"
    },
    {
      "inputs": [],
      "name": "SmartToken__InsufficientUnderlying",
      "type": "error"
    },
    {
      "inputs": [],
      "name": "SmartToken__MethodNotAllowed",
      "type": "error"
    },
    {
      "inputs": [],
      "name": "SmartToken__MintMoreThanMax",
      "type": "error"
    },
    {
      "inputs": [],
      "name": "SmartToken__NotTokenFactory",
      "type": "error"
    },
    {
      "inputs": [],
      "name": "SmartToken__OnlyAssetOwner",
      "type": "error"
    },
    {
      "inputs": [],
      "name": "SmartToken__RedeemMoreThanMax",
      "type": "error"
    },
    {
      "inputs": [],
      "name": "SmartToken__WithdrawLimitHit",
      "type": "error"
    },
    {
      "inputs": [],
      "name": "SmartToken__WithdrawMoreThanMax",
      "type": "error"
    },
    {
      "inputs": [],
      "name": "SmartToken__WithdrawNativeFailed",
      "type": "error"
    },
    {
      "inputs": [],
      "name": "SmartToken__ZeroDeposit",
      "type": "error"
    },
    {
      "anonymous": false,
      "inputs": [
        {
          "indexed": false,
          "internalType": "address",
          "name": "previousAdmin",
          "type": "address"
        },
        {
          "indexed": false,
          "internalType": "address",
          "name": "newAdmin",
          "type": "address"
        }
      ],
      "name": "AdminChanged",
      "type": "event"
    },
    {
      "anonymous": false,
      "inputs": [
        {
          "indexed": true,
          "internalType": "address",
          "name": "owner",
          "type": "address"
        },
        {
          "indexed": true,
          "internalType": "address",
          "name": "spender",
          "type": "address"
        },
        {
          "indexed": false,
          "internalType": "uint256",
          "name": "value",
          "type": "uint256"
        }
      ],
      "name": "Approval",
      "type": "event"
    },
    {
      "anonymous": false,
      "inputs": [
        {
          "indexed": true,
          "internalType": "address",
          "name": "beacon",
          "type": "address"
        }
      ],
      "name": "BeaconUpgraded",
      "type": "event"
    },
    {
      "anonymous": false,
      "inputs": [
        {
          "indexed": true,
          "internalType": "address",
          "name": "sender",
          "type": "address"
        },
        {
          "indexed": true,
          "internalType": "address",
          "name": "owner",
          "type": "address"
        },
        {
          "indexed": false,
          "internalType": "uint256",
          "name": "assets",
          "type": "uint256"
        },
        {
          "indexed": false,
          "internalType": "uint256",
          "name": "shares",
          "type": "uint256"
        }
      ],
      "name": "Deposit",
      "type": "event"
    },
    {
      "anonymous": false,
      "inputs": [],
      "name": "EIP712DomainChanged",
      "type": "event"
    },
    {
      "anonymous": false,
      "inputs": [
        {
          "indexed": false,
          "internalType": "address",
          "name": "receiver",
          "type": "address"
        },
        {
          "indexed": false,
          "internalType": "address",
          "name": "initiator",
          "type": "address"
        },
        {
          "indexed": false,
          "internalType": "uint256",
          "name": "amount",
          "type": "uint256"
        },
        {
          "indexed": false,
          "internalType": "uint256",
          "name": "premium",
          "type": "uint256"
        },
        {
          "indexed": false,
          "internalType": "bytes",
          "name": "params",
          "type": "bytes"
        }
      ],
      "name": "FlashLoanExecuted",
      "type": "event"
    },
    {
      "anonymous": false,
      "inputs": [
        {
          "indexed": false,
          "internalType": "uint8",
          "name": "version",
          "type": "uint8"
        }
      ],
      "name": "Initialized",
      "type": "event"
    },
    {
      "anonymous": false,
      "inputs": [
        {
          "indexed": true,
          "internalType": "address",
          "name": "previousOwner",
          "type": "address"
        },
        {
          "indexed": true,
          "internalType": "address",
          "name": "newOwner",
          "type": "address"
        }
      ],
      "name": "OwnershipTransferred",
      "type": "event"
    },
    {
      "anonymous": false,
      "inputs": [
        {
          "indexed": true,
          "internalType": "address",
          "name": "from",
          "type": "address"
        },
        {
          "indexed": true,
          "internalType": "address",
          "name": "to",
          "type": "address"
        },
        {
          "indexed": false,
          "internalType": "uint256",
          "name": "value",
          "type": "uint256"
        }
      ],
      "name": "Transfer",
      "type": "event"
    },
    {
      "anonymous": false,
      "inputs": [
        {
          "indexed": true,
          "internalType": "address",
          "name": "implementation",
          "type": "address"
        }
      ],
      "name": "Upgraded",
      "type": "event"
    },
    {
      "anonymous": false,
      "inputs": [
        {
          "indexed": true,
          "internalType": "address",
          "name": "sender",
          "type": "address"
        },
        {
          "indexed": true,
          "internalType": "address",
          "name": "receiver",
          "type": "address"
        },
        {
          "indexed": true,
          "internalType": "address",
          "name": "owner",
          "type": "address"
        },
        {
          "indexed": false,
          "internalType": "uint256",
          "name": "assets",
          "type": "uint256"
        },
        {
          "indexed": false,
          "internalType": "uint256",
          "name": "shares",
          "type": "uint256"
        }
      ],
      "name": "Withdraw",
      "type": "event"
    },
    {
      "inputs": [],
      "name": "DOMAIN_SEPARATOR",
      "outputs": [
        {
          "internalType": "bytes32",
          "name": "",
          "type": "bytes32"
        }
      ],
      "stateMutability": "view",
      "type": "function"
    },
    {
      "inputs": [
        {
          "internalType": "address",
          "name": "owner",
          "type": "address"
        },
        {
          "internalType": "address",
          "name": "spender",
          "type": "address"
        }
      ],
      "name": "allowance",
      "outputs": [
        {
          "internalType": "uint256",
          "name": "",
          "type": "uint256"
        }
      ],
      "stateMutability": "view",
      "type": "function"
    },
    {
      "inputs": [
        {
          "internalType": "address",
          "name": "spender",
          "type": "address"
        },
        {
          "internalType": "uint256",
          "name": "amount",
          "type": "uint256"
        }
      ],
      "name": "approve",
      "outputs": [
        {
          "internalType": "bool",
          "name": "",
          "type": "bool"
        }
      ],
      "stateMutability": "nonpayable",
      "type": "function"
    },
    {
      "inputs": [],
      "name": "asset",
      "outputs": [
        {
          "internalType": "address",
          "name": "",
          "type": "address"
        }
      ],
      "stateMutability": "view",
      "type": "function"
    },
    {
      "inputs": [
        {
          "internalType": "address",
          "name": "account",
          "type": "address"
        }
      ],
      "name": "balanceOf",
      "outputs": [
        {
          "internalType": "uint256",
          "name": "",
          "type": "uint256"
        }
      ],
      "stateMutability": "view",
      "type": "function"
    },
    {
      "inputs": [
        {
          "internalType": "address",
          "name": "account",
          "type": "address"
        },
        {
          "internalType": "uint256",
          "name": "amount",
          "type": "uint256"
        }
      ],
      "name": "burn",
      "outputs": [],
      "stateMutability": "nonpayable",
      "type": "function"
    },
    {
      "inputs": [
        {
          "internalType": "uint256",
          "name": "shares",
          "type": "uint256"
        }
      ],
      "name": "convertToAssets",
      "outputs": [
        {
          "internalType": "uint256",
          "name": "assets",
          "type": "uint256"
        }
      ],
      "stateMutability": "view",
      "type": "function"
    },
    {
      "inputs": [
        {
          "internalType": "uint256",
          "name": "assets",
          "type": "uint256"
        }
      ],
      "name": "convertToShares",
      "outputs": [
        {
          "internalType": "uint256",
          "name": "shares",
          "type": "uint256"
        }
      ],
      "stateMutability": "view",
      "type": "function"
    },
    {
      "inputs": [],
      "name": "decimals",
      "outputs": [
        {
          "internalType": "uint8",
          "name": "",
          "type": "uint8"
        }
      ],
      "stateMutability": "view",
      "type": "function"
    },
    {
      "inputs": [
        {
          "internalType": "address",
          "name": "spender",
          "type": "address"
        },
        {
          "internalType": "uint256",
          "name": "subtractedValue",
          "type": "uint256"
        }
      ],
      "name": "decreaseAllowance",
      "outputs": [
        {
          "internalType": "bool",
          "name": "",
          "type": "bool"
        }
      ],
      "stateMutability": "nonpayable",
      "type": "function"
    },
    {
      "inputs": [
        {
          "internalType": "uint256",
          "name": "assets",
          "type": "uint256"
        },
        {
          "internalType": "address",
          "name": "receiver",
          "type": "address"
        }
      ],
      "name": "deposit",
      "outputs": [
        {
          "internalType": "uint256",
          "name": "",
          "type": "uint256"
        }
      ],
      "stateMutability": "nonpayable",
      "type": "function"
    },
    {
      "inputs": [
        {
          "internalType": "uint256",
          "name": "assets",
          "type": "uint256"
        },
        {
          "internalType": "address",
          "name": "receiver",
          "type": "address"
        },
        {
          "internalType": "uint256",
          "name": "expiryDate",
          "type": "uint256"
        }
      ],
      "name": "depositWithExpiry",
      "outputs": [
        {
          "internalType": "uint256",
          "name": "",
          "type": "uint256"
        }
      ],
      "stateMutability": "nonpayable",
      "type": "function"
    },
    {
      "inputs": [
        {
          "internalType": "address",
          "name": "receiver",
          "type": "address"
        }
      ],
      "name": "depositWithNative",
      "outputs": [
        {
          "internalType": "uint256",
          "name": "",
          "type": "uint256"
        }
      ],
      "stateMutability": "payable",
      "type": "function"
    },
    {
      "inputs": [
        {
          "internalType": "uint256",
          "name": "assets",
          "type": "uint256"
        },
        {
          "internalType": "address",
          "name": "receiver",
          "type": "address"
        },
        {
          "internalType": "uint256",
          "name": "deadline",
          "type": "uint256"
        },
        {
          "internalType": "uint8",
          "name": "v",
          "type": "uint8"
        },
        {
          "internalType": "bytes32",
          "name": "r",
          "type": "bytes32"
        },
        {
          "internalType": "bytes32",
          "name": "s",
          "type": "bytes32"
        }
      ],
      "name": "depositWithPermit",
      "outputs": [
        {
          "internalType": "uint256",
          "name": "",
          "type": "uint256"
        }
      ],
      "stateMutability": "nonpayable",
      "type": "function"
    },
    {
      "inputs": [
        {
          "internalType": "address",
          "name": "receiver",
          "type": "address"
        }
      ],
      "name": "drain",
      "outputs": [],
      "stateMutability": "nonpayable",
      "type": "function"
    },
    {
      "inputs": [],
      "name": "eip712Domain",
      "outputs": [
        {
          "internalType": "bytes1",
          "name": "fields",
          "type": "bytes1"
        },
        {
          "internalType": "string",
          "name": "name",
          "type": "string"
        },
        {
          "internalType": "string",
          "name": "version",
          "type": "string"
        },
        {
          "internalType": "uint256",
          "name": "chainId",
          "type": "uint256"
        },
        {
          "internalType": "address",
          "name": "verifyingContract",
          "type": "address"
        },
        {
          "internalType": "bytes32",
          "name": "salt",
          "type": "bytes32"
        },
        {
          "internalType": "uint256[]",
          "name": "extensions",
          "type": "uint256[]"
        }
      ],
      "stateMutability": "view",
      "type": "function"
    },
    {
      "inputs": [
        {
          "internalType": "address",
          "name": "receiver",
          "type": "address"
        },
        {
          "internalType": "uint256",
          "name": "amount",
          "type": "uint256"
        },
        {
          "internalType": "bytes",
          "name": "params",
          "type": "bytes"
        }
      ],
      "name": "flashLoan",
      "outputs": [],
      "stateMutability": "nonpayable",
      "type": "function"
    },
    {
      "inputs": [],
      "name": "getFlashLoanPool",
      "outputs": [
        {
          "internalType": "address",
          "name": "",
          "type": "address"
        }
      ],
      "stateMutability": "view",
      "type": "function"
    },
    {
      "inputs": [],
      "name": "getTokenFactory",
      "outputs": [
        {
          "internalType": "address",
          "name": "",
          "type": "address"
        }
      ],
      "stateMutability": "view",
      "type": "function"
    },
    {
      "inputs": [
        {
          "internalType": "address",
          "name": "sender",
          "type": "address"
        },
        {
          "internalType": "address",
          "name": "receiver",
          "type": "address"
        }
      ],
      "name": "handlePendingFF",
      "outputs": [],
      "stateMutability": "nonpayable",
      "type": "function"
    },
    {
      "inputs": [
        {
          "internalType": "address",
          "name": "sender",
          "type": "address"
        },
        {
          "internalType": "address",
          "name": "receiver",
          "type": "address"
        }
      ],
      "name": "handlePendingRebalance",
      "outputs": [],
      "stateMutability": "nonpayable",
      "type": "function"
    },
    {
      "inputs": [
        {
          "internalType": "address",
          "name": "account",
          "type": "address"
        }
      ],
      "name": "hasPendingFF",
      "outputs": [
        {
          "internalType": "bool",
          "name": "",
          "type": "bool"
        }
      ],
      "stateMutability": "view",
      "type": "function"
    },
    {
      "inputs": [
        {
          "internalType": "address",
          "name": "account",
          "type": "address"
        }
      ],
      "name": "hasPendingRebalance",
      "outputs": [
        {
          "internalType": "bool",
          "name": "",
          "type": "bool"
        }
      ],
      "stateMutability": "view",
      "type": "function"
    },
    {
      "inputs": [
        {
          "internalType": "address",
          "name": "spender",
          "type": "address"
        },
        {
          "internalType": "uint256",
          "name": "addedValue",
          "type": "uint256"
        }
      ],
      "name": "increaseAllowance",
      "outputs": [
        {
          "internalType": "bool",
          "name": "",
          "type": "bool"
        }
      ],
      "stateMutability": "nonpayable",
      "type": "function"
    },
    {
      "inputs": [
        {
          "internalType": "string",
          "name": "tokenName",
          "type": "string"
        },
        {
          "internalType": "string",
          "name": "tokenSymbol",
          "type": "string"
        },
        {
          "internalType": "address",
          "name": "factoryAddress",
          "type": "address"
        },
        {
          "internalType": "address",
          "name": "sanctionsContract_",
          "type": "address"
        },
        {
          "internalType": "bool",
          "name": "isX_",
          "type": "bool"
        },
        {
          "internalType": "address",
          "name": "owner_",
          "type": "address"
        }
      ],
      "name": "initialize",
      "outputs": [],
      "stateMutability": "nonpayable",
      "type": "function"
    },
    {
      "inputs": [],
      "name": "isDepositCircuitBreaker",
      "outputs": [
        {
          "internalType": "bool",
          "name": "",
          "type": "bool"
        }
      ],
      "stateMutability": "view",
      "type": "function"
    },
    {
      "inputs": [],
      "name": "isFlashloanCircuitBreaker",
      "outputs": [
        {
          "internalType": "bool",
          "name": "",
          "type": "bool"
        }
      ],
      "stateMutability": "view",
      "type": "function"
    },
    {
      "inputs": [],
      "name": "isRebalanceCircuitBreaker",
      "outputs": [
        {
          "internalType": "bool",
          "name": "",
          "type": "bool"
        }
      ],
      "stateMutability": "view",
      "type": "function"
    },
    {
      "inputs": [],
      "name": "isTransferCircuitBreaker",
      "outputs": [
        {
          "internalType": "bool",
          "name": "",
          "type": "bool"
        }
      ],
      "stateMutability": "view",
      "type": "function"
    },
    {
      "inputs": [],
      "name": "isWithdrawCircuitBreaker",
      "outputs": [
        {
          "internalType": "bool",
          "name": "",
          "type": "bool"
        }
      ],
      "stateMutability": "view",
      "type": "function"
    },
    {
      "inputs": [
        {
          "internalType": "address",
          "name": "account",
          "type": "address"
        }
      ],
      "name": "maxDeposit",
      "outputs": [
        {
          "internalType": "uint256",
          "name": "",
          "type": "uint256"
        }
      ],
      "stateMutability": "view",
      "type": "function"
    },
    {
      "inputs": [
        {
          "internalType": "address",
          "name": "account",
          "type": "address"
        }
      ],
      "name": "maxMint",
      "outputs": [
        {
          "internalType": "uint256",
          "name": "",
          "type": "uint256"
        }
      ],
      "stateMutability": "view",
      "type": "function"
    },
    {
      "inputs": [
        {
          "internalType": "address",
          "name": "owner_",
          "type": "address"
        }
      ],
      "name": "maxRedeem",
      "outputs": [
        {
          "internalType": "uint256",
          "name": "",
          "type": "uint256"
        }
      ],
      "stateMutability": "view",
      "type": "function"
    },
    {
      "inputs": [
        {
          "internalType": "address",
          "name": "owner_",
          "type": "address"
        }
      ],
      "name": "maxWithdraw",
      "outputs": [
        {
          "internalType": "uint256",
          "name": "",
          "type": "uint256"
        }
      ],
      "stateMutability": "view",
      "type": "function"
    },
    {
      "inputs": [
        {
          "internalType": "uint256",
          "name": "shares",
          "type": "uint256"
        },
        {
          "internalType": "address",
          "name": "receiver",
          "type": "address"
        }
      ],
      "name": "mint",
      "outputs": [
        {
          "internalType": "uint256",
          "name": "",
          "type": "uint256"
        }
      ],
      "stateMutability": "nonpayable",
      "type": "function"
    },
    {
      "inputs": [
        {
          "internalType": "address",
          "name": "receiver",
          "type": "address"
        },
        {
          "internalType": "uint256",
          "name": "amount",
          "type": "uint256"
        }
      ],
      "name": "mintAsset",
      "outputs": [],
      "stateMutability": "nonpayable",
      "type": "function"
    },
    {
      "inputs": [],
      "name": "name",
      "outputs": [
        {
          "internalType": "string",
          "name": "",
          "type": "string"
        }
      ],
      "stateMutability": "view",
      "type": "function"
    },
    {
      "inputs": [
        {
          "internalType": "address",
          "name": "owner",
          "type": "address"
        }
      ],
      "name": "nonces",
      "outputs": [
        {
          "internalType": "uint256",
          "name": "",
          "type": "uint256"
        }
      ],
      "stateMutability": "view",
      "type": "function"
    },
    {
      "inputs": [],
      "name": "owner",
      "outputs": [
        {
          "internalType": "address",
          "name": "",
          "type": "address"
        }
      ],
      "stateMutability": "view",
      "type": "function"
    },
    {
      "inputs": [
        {
          "internalType": "address",
          "name": "owner",
          "type": "address"
        },
        {
          "internalType": "address",
          "name": "spender",
          "type": "address"
        },
        {
          "internalType": "uint256",
          "name": "value",
          "type": "uint256"
        },
        {
          "internalType": "uint256",
          "name": "deadline",
          "type": "uint256"
        },
        {
          "internalType": "uint8",
          "name": "v",
          "type": "uint8"
        },
        {
          "internalType": "bytes32",
          "name": "r",
          "type": "bytes32"
        },
        {
          "internalType": "bytes32",
          "name": "s",
          "type": "bytes32"
        }
      ],
      "name": "permit",
      "outputs": [],
      "stateMutability": "nonpayable",
      "type": "function"
    },
    {
      "inputs": [
        {
          "internalType": "uint256",
          "name": "assets",
          "type": "uint256"
        }
      ],
      "name": "previewDeposit",
      "outputs": [
        {
          "internalType": "uint256",
          "name": "",
          "type": "uint256"
        }
      ],
      "stateMutability": "view",
      "type": "function"
    },
    {
      "inputs": [
        {
          "internalType": "uint256",
          "name": "shares",
          "type": "uint256"
        }
      ],
      "name": "previewMint",
      "outputs": [
        {
          "internalType": "uint256",
          "name": "",
          "type": "uint256"
        }
      ],
      "stateMutability": "view",
      "type": "function"
    },
    {
      "inputs": [
        {
          "internalType": "uint256",
          "name": "shares",
          "type": "uint256"
        }
      ],
      "name": "previewRedeem",
      "outputs": [
        {
          "internalType": "uint256",
          "name": "",
          "type": "uint256"
        }
      ],
      "stateMutability": "view",
      "type": "function"
    },
    {
      "inputs": [
        {
          "internalType": "uint256",
          "name": "assets",
          "type": "uint256"
        }
      ],
      "name": "previewWithdraw",
      "outputs": [
        {
          "internalType": "uint256",
          "name": "",
          "type": "uint256"
        }
      ],
      "stateMutability": "view",
      "type": "function"
    },
    {
      "inputs": [],
      "name": "proxiableUUID",
      "outputs": [
        {
          "internalType": "bytes32",
          "name": "",
          "type": "bytes32"
        }
      ],
      "stateMutability": "view",
      "type": "function"
    },
    {
      "inputs": [
        {
          "internalType": "uint256",
          "name": "shares",
          "type": "uint256"
        },
        {
          "internalType": "address",
          "name": "receiver",
          "type": "address"
        },
        {
          "internalType": "address",
          "name": "owner_",
          "type": "address"
        }
      ],
      "name": "redeem",
      "outputs": [
        {
          "internalType": "uint256",
          "name": "",
          "type": "uint256"
        }
      ],
      "stateMutability": "nonpayable",
      "type": "function"
    },
    {
      "inputs": [],
      "name": "renounceOwnership",
      "outputs": [],
      "stateMutability": "nonpayable",
      "type": "function"
    },
    {
      "inputs": [],
      "name": "resumeAllCircuitBreakers",
      "outputs": [],
      "stateMutability": "nonpayable",
      "type": "function"
    },
    {
      "inputs": [
        {
          "internalType": "address",
          "name": "account",
          "type": "address"
        },
        {
          "internalType": "uint256",
          "name": "amount",
          "type": "uint256"
        }
      ],
      "name": "smartBalanceAdjust",
      "outputs": [],
      "stateMutability": "nonpayable",
      "type": "function"
    },
    {
      "inputs": [
        {
          "internalType": "address",
          "name": "treasuryAddress",
          "type": "address"
        },
        {
          "internalType": "uint256",
          "name": "amount",
          "type": "uint256"
        }
      ],
      "name": "smartTreasuryTransfer",
      "outputs": [],
      "stateMutability": "nonpayable",
      "type": "function"
    },
    {
      "inputs": [],
      "name": "stopAllCircuitBreakers",
      "outputs": [],
      "stateMutability": "nonpayable",
      "type": "function"
    },
    {
      "inputs": [],
      "name": "symbol",
      "outputs": [
        {
          "internalType": "string",
          "name": "",
          "type": "string"
        }
      ],
      "stateMutability": "view",
      "type": "function"
    },
    {
      "inputs": [],
      "name": "toggleDepositCircuitBreaker",
      "outputs": [],
      "stateMutability": "nonpayable",
      "type": "function"
    },
    {
      "inputs": [],
      "name": "toggleFlashLoanCircuitBreaker",
      "outputs": [],
      "stateMutability": "nonpayable",
      "type": "function"
    },
    {
      "inputs": [],
      "name": "toggleRebalanceCircuitBreaker",
      "outputs": [],
      "stateMutability": "nonpayable",
      "type": "function"
    },
    {
      "inputs": [],
      "name": "toggleTransferCircuitBreaker",
      "outputs": [],
      "stateMutability": "nonpayable",
      "type": "function"
    },
    {
      "inputs": [],
      "name": "toggleWithdrawCircuitBreaker",
      "outputs": [],
      "stateMutability": "nonpayable",
      "type": "function"
    },
    {
      "inputs": [],
      "name": "totalAssets",
      "outputs": [
        {
          "internalType": "uint256",
          "name": "",
          "type": "uint256"
        }
      ],
      "stateMutability": "view",
      "type": "function"
    },
    {
      "inputs": [],
      "name": "totalSupply",
      "outputs": [
        {
          "internalType": "uint256",
          "name": "",
          "type": "uint256"
        }
      ],
      "stateMutability": "view",
      "type": "function"
    },
    {
      "inputs": [
        {
          "internalType": "address",
          "name": "recipient",
          "type": "address"
        },
        {
          "internalType": "uint256",
          "name": "amount",
          "type": "uint256"
        }
      ],
      "name": "transfer",
      "outputs": [
        {
          "internalType": "bool",
          "name": "",
          "type": "bool"
        }
      ],
      "stateMutability": "nonpayable",
      "type": "function"
    },
    {
      "inputs": [
        {
          "internalType": "address",
          "name": "sender",
          "type": "address"
        },
        {
          "internalType": "address",
          "name": "recipient",
          "type": "address"
        },
        {
          "internalType": "uint256",
          "name": "amount",
          "type": "uint256"
        }
      ],
      "name": "transferFrom",
      "outputs": [
        {
          "internalType": "bool",
          "name": "",
          "type": "bool"
        }
      ],
      "stateMutability": "nonpayable",
      "type": "function"
    },
    {
      "inputs": [
        {
          "internalType": "address",
          "name": "newOwner",
          "type": "address"
        }
      ],
      "name": "transferOwnership",
      "outputs": [],
      "stateMutability": "nonpayable",
      "type": "function"
    },
    {
      "inputs": [
        {
          "internalType": "address",
          "name": "account",
          "type": "address"
        }
      ],
      "name": "unScaledbalanceOf",
      "outputs": [
        {
          "internalType": "uint256",
          "name": "",
          "type": "uint256"
        }
      ],
      "stateMutability": "view",
      "type": "function"
    },
    {
      "inputs": [
        {
          "internalType": "address",
          "name": "newImplementation",
          "type": "address"
        }
      ],
      "name": "upgradeTo",
      "outputs": [],
      "stateMutability": "nonpayable",
      "type": "function"
    },
    {
      "inputs": [
        {
          "internalType": "address",
          "name": "newImplementation",
          "type": "address"
        },
        {
          "internalType": "bytes",
          "name": "data",
          "type": "bytes"
        }
      ],
      "name": "upgradeToAndCall",
      "outputs": [],
      "stateMutability": "payable",
      "type": "function"
    },
    {
      "inputs": [
        {
          "internalType": "uint256",
          "name": "assets",
          "type": "uint256"
        },
        {
          "internalType": "address",
          "name": "receiver",
          "type": "address"
        },
        {
          "internalType": "address",
          "name": "owner_",
          "type": "address"
        }
      ],
      "name": "withdraw",
      "outputs": [
        {
          "internalType": "uint256",
          "name": "",
          "type": "uint256"
        }
      ],
      "stateMutability": "nonpayable",
      "type": "function"
    },
    {
      "inputs": [
        {
          "internalType": "uint256",
          "name": "assets",
          "type": "uint256"
        },
        {
          "internalType": "address",
          "name": "receiver",
          "type": "address"
        },
        {
          "internalType": "address",
          "name": "owner_",
          "type": "address"
        },
        {
          "internalType": "uint256",
          "name": "expiryDate",
          "type": "uint256"
        }
      ],
      "name": "withdrawWithExpiry",
      "outputs": [
        {
          "internalType": "uint256",
          "name": "",
          "type": "uint256"
        }
      ],
      "stateMutability": "nonpayable",
      "type": "function"
    },
    {
      "stateMutability": "payable",
      "type": "receive"
    }
  ],
  "bytecode": "0x60a060405234620000495730608052620000186200004e565b620000226200004e565b604051614f269081620000f882396080518181816119e601528181611cf301526120590152f35b600080fd5b60005460ff8160081c16620000a25760ff808216036200006b5750565b60ff90811916176000557f7f26b83ff96e1f2b6a682f133852f6798a09c465da95921460cefb3847402498602060405160ff8152a1565b60405162461bcd60e51b815260206004820152602760248201527f496e697469616c697a61626c653a20636f6e747261637420697320696e697469604482015266616c697a696e6760c81b6064820152608490fdfe60808060405260043610156100ba575b50361561001b57600080fd5b600460206001600160a01b036101955416604051928380926384b5843960e01b82525afa9081156100ae57600091610080575b501561005657005b60046040517f4f0e72aa000000000000000000000000000000000000000000000000000000008152fd5b6100a1915060203d81116100a7575b610099818361395b565b8101906142e0565b3861004e565b503d61008f565b6040513d6000823e3d90fd5b600090813560e01c90816301e1d114146137e757508063030d4ed7146137a257806305bfee331461369e57806306fdde03146135f857806307a2d13a14610473578063095ea7b3146135d15780630a28a4771461047357806312cfca3814612b2b57806316b535f414612a2257806318160ddd14612a0457806318c23d501461271b57806323b872dd14612412578063275f0ddd146123e757806327a44ed0146123c05780633092800914612354578063313ce567146123385780633644e5151461231d5780633659cfe61461203357806338d52e0f1461200b5780633950935114611fb9578063402d267d14610a9c5780634cdad506146104735780634f1ef28614611ca05780635016397414611c7c57806350921b2314611aa057806352d1902d146119cb5780635f758bef146119025780636a300529146118975780636e553f65146117c457806370a08231146117a0578063715018a6146117375780637ecebe00146116fe57806384b0196e146115bc57806385f2eac0146115955780638da5cb5b1461156e5780638f4cef0c146115355780638f50bd1314611507578063925d6ba2146114df57806394bf804d1461137f57806395d89b41146112995780639dc29fac14611135578063a457c2d71461106d578063a9059cbb14610d3e578063b1dbfcee14610d17578063b3d7f6b914610473578063b460af9414610c52578063ba08765214610c52578063c3e4eb0f14610aa6578063c63d75b614610a9c578063c6e6f59214610473578063ce96cb77146107f1578063d505accf146108c3578063d69f62e014610864578063d78f0921146107fb578063d905777e146107f1578063dd62ed3e146107a1578063e2a3cd0b146105a4578063e58127311461053a578063ece5313214610483578063ef8b30f714610473578063f077fd3c14610448578063f2fde38b146103a15763fd6064b30361000f573461039e578060031936011261039e57602060ff6101625460a01c166040519015158152f35b80fd5b503461039e57602036600319011261039e576103bb61388b565b6103c3613a6b565b6001600160a01b038116156103de576103db90613ac3565b80f35b608460405162461bcd60e51b815260206004820152602660248201527f4f776e61626c653a206e6577206f776e657220697320746865207a65726f206160448201527f64647265737300000000000000000000000000000000000000000000000000006064820152fd5b503461039e57604036600319011261039e576103db61046561388b565b61046d6138b7565b90614746565b505061047d61390d565b3861000f565b503461039e57602036600319011261039e5761049d61388b565b6104a5613a6b565b6001600160a01b039060046020836101955416604051928380926384b5843960e01b82525afa90811561052f578491610511575b501561005657828080938193479183918315610507575b1690f1156104fb5780f35b604051903d90823e3d90fd5b6108fc92506104f0565b610529915060203d81116100a757610099818361395b565b386104d9565b6040513d86823e3d90fd5b503461039e578060031936011261039e57610553613a6b565b61016280547fffffffffffffffffffff00ffffffffffffffffffffffffffffffffffffffffff75ff00000000000000000000000000000000000000000060ff8360a81c161560a81b16911617905580f35b503461039e57606036600319011261039e576004356105c16138b7565b42604435106107775760ff6101625460a01c1661074d576001600160a01b039261019593808554169460405195629c185f60e01b87526020968781600481855afa908115610742578591610725575b506106fb57803b156106f75783809160046040518094819363533ae12960e01b83525af1801561052f579184939188936106d7575b505416602460405180948193634eacc0fd60e01b83528960048401525af19182156104fb57916106ba575b5061069057816106838261068894614a5d565b614c91565b604051908152f35b60046040517fb04c0011000000000000000000000000000000000000000000000000000000008152fd5b6106d19150843d86116100a757610099818361395b565b38610670565b6106e591935093919361392b565b6106f3578291869138610645565b8280fd5b8380fd5b60046040517f878d0c04000000000000000000000000000000000000000000000000000000008152fd5b61073c9150883d8a116100a757610099818361395b565b38610610565b6040513d87823e3d90fd5b60046040517fd045d9d6000000000000000000000000000000000000000000000000000000008152fd5b60046040517fef4b8442000000000000000000000000000000000000000000000000000000008152fd5b503461039e57604036600319011261039e576107bb61388b565b60406107c56138b7565b926001600160a01b03809316815260ca6020522091166000526020526020604060002054604051908152f35b505061047d613a47565b503461039e578060031936011261039e57610814613a6b565b61016280547fffffffffffffffffffffff00ffffffffffffffffffffffffffffffffffffffff74ff000000000000000000000000000000000000000060ff8360a01c161560a01b16911617905580f35b503461039e578060031936011261039e5761087d613a6b565b610162770101010100000000000000000000000000000000000000007fffffffffffffffff00000000ffffffffffffffffffffffffffffffffffffffff82541617905580f35b503461039e5760e036600319011261039e576108dd61388b565b6108e56138b7565b6044359060843560643560ff82168203610a9757804211610a53576001600160a01b03908186169283885261012f60205260408820908154916001830190556040519260208401927f6e71edae12b1b97f4d1f60370fef10105fa2faae0126114a169c64845d6126c98452866040860152858816606086015288608086015260a085015260c084015260c0835260e083019183831067ffffffffffffffff841117610a3d576109ea936109e2936040525190206109a06141f9565b90604051917f190100000000000000000000000000000000000000000000000000000000000083526002830152602282015260c43591604260a435922061416a565b919091614038565b16036109f9576103db92613f04565b606460405162461bcd60e51b815260206004820152601e60248201527f45524332305065726d69743a20696e76616c6964207369676e617475726500006044820152fd5b634e487b7160e01b600052604160045260246000fd5b606460405162461bcd60e51b815260206004820152601d60248201527f45524332305065726d69743a206578706972656420646561646c696e650000006044820152fd5b600080fd5b505061047d6139ee565b503461039e57608036600319011261039e57600435610ac36138b7565b610acb6138a1565b9042606435106107775760ff6101625460a81c16610c28576001600160a01b039361019594808654169560405196629c185f60e01b88526020978881600481855afa908115610742578591610c0b575b506106fb57803b156106f75783809160046040518094819363533ae12960e01b83525af1801561052f57918493918993610bef575b50541660246040518094819363cf0571d360e01b83528a60048401525af19182156104fb5791610bd2575b50610ba857610b9a92610b8d83614a21565b610b95614906565b614cfd565b600161016355604051908152f35b60046040517f922c0895000000000000000000000000000000000000000000000000000000008152fd5b610be99150853d87116100a757610099818361395b565b38610b7b565b610bfd91935093919361392b565b6106f3578291879138610b50565b610c229150893d8b116100a757610099818361395b565b38610b1b565b60046040517fc689af6e000000000000000000000000000000000000000000000000000000008152fd5b503461039e57610c6136613a12565b9060ff6101625460a81c16610c28576001600160a01b039361019594808654169560405196629c185f60e01b88526020978881600481855afa908115610742578591610c0b57506106fb57803b156106f75783809160046040518094819363533ae12960e01b83525af1801561052f57918493918993610bef5750541660246040518094819363cf0571d360e01b83528a60048401525af19182156104fb5791610bd25750610ba857610b9a92610b8d83614a21565b503461039e578060031936011261039e57602060ff6101625460a81c166040519015158152f35b503461039e57604036600319011261039e57610d5861388b565b60243591610162549160ff8360b01c16611043576001600160a01b0393610195948086541660405195629c185f60e01b87526020968781600481865afa90811561103857879161101b575b506106fb57821660405163df592f7d60e01b9081815284871660048201528881602481865afa908115611010578891610ff3575b50610fa157879060246040518094819382523360048301525afa908115610fe8578691610fcb575b50610fa157803b15610f9d5784809160046040518094819363533ae12960e01b83525af1801561074257908591610f89575b5050610e3d8333614b6f565b610e478333614746565b8554604051633524f9e360e21b81523360048201526001600160a01b038516602482015296906080908890604490829086165afa968715610742578597610f59575b50610e958385336143c9565b541660ff6101965460a01c1686519386880151976060604082015191015198843b15610f55576040516377606b2b60e11b81523360048201526001600160a01b03909316602484015292151560448301526064820194909452608481019490945260a484015260c483019190915260e482019490945291929091908290829081838161010481015b03925af18015610f4a57610f36575b8260405160018152f35b610f40829161392b565b61039e5780610f2c565b6040513d84823e3d90fd5b8780fd5b610f7b91975060803d8111610f82575b610f73818361395b565b810190614369565b9538610e89565b503d610f69565b610f929061392b565b6106f7578338610e31565b8480fd5b60046040517f4229fac4000000000000000000000000000000000000000000000000000000008152fd5b610fe29150873d89116100a757610099818361395b565b38610dff565b6040513d88823e3d90fd5b61100a9150893d8b116100a757610099818361395b565b38610dd7565b6040513d8a823e3d90fd5b6110329150883d8a116100a757610099818361395b565b38610da3565b6040513d89823e3d90fd5b60046040517f64c73508000000000000000000000000000000000000000000000000000000008152fd5b503461039e57604036600319011261039e5761108761388b565b60406024359233815260ca602052206001600160a01b038216600052602052604060002054918083106110cb576110c092039033613f04565b602060405160018152f35b608460405162461bcd60e51b815260206004820152602560248201527f45524332303a2064656372656173656420616c6c6f77616e63652062656c6f7760448201527f207a65726f0000000000000000000000000000000000000000000000000000006064820152fd5b503461039e57604036600319011261039e5761114f61388b565b6001600160a01b03602435916111636149e2565b16801561122f5780835260c96020526040832054918083106111c5576020817fddf252ad1be2c89b69c2b068fc378daa952ba7f163c4a11628f55a4df523b3ef92869585875260c984520360408620558060cb540360cb55604051908152a380f35b608460405162461bcd60e51b815260206004820152602260248201527f45524332303a206275726e20616d6f756e7420657863656564732062616c616e60448201527f63650000000000000000000000000000000000000000000000000000000000006064820152fd5b608460405162461bcd60e51b815260206004820152602160248201527f45524332303a206275726e2066726f6d20746865207a65726f2061646472657360448201527f73000000000000000000000000000000000000000000000000000000000000006064820152fd5b503461039e578060031936011261039e57604051600060cd546112bb81613d50565b8084529060019081811690811561135857506001146112fd575b6112f9846112e58186038261395b565b6040519182916020835260208301906138cd565b0390f35b60cd600090815292507f83978b4c69c48dd978ab43fe30f077615294f938fb7f936d9eb340e51ea7db2e5b8284106113405750505081016020016112e5826112d5565b80546020858701810191909152909301928101611328565b60ff191660208087019190915292151560051b850190920192506112e591508390506112d5565b503461039e57604036600319011261039e5760043561139c6138b7565b60ff6101625460a01c1661074d576001600160a01b039261019593808554169460405195629c185f60e01b87526020968781600481855afa9081156107425785916114c2575b506106fb57803b156106f75783809160046040518094819363533ae12960e01b83525af1801561052f579184939188936114a6575b505416602460405180948193634eacc0fd60e01b83528960048401525af19182156104fb5791611489575b50610690576114508161487e565b821161145f5761068891614c91565b60046040517f292b1201000000000000000000000000000000000000000000000000000000008152fd5b6114a09150843d86116100a757610099818361395b565b38611442565b6114b491935093919361392b565b6106f3578291869138611417565b6114d99150883d8a116100a757610099818361395b565b386113e2565b503461039e578060031936011261039e5760206001600160a01b036101955416604051908152f35b503461039e57602036600319011261039e57602061152b61152661388b565b614675565b6040519015158152f35b503461039e57602036600319011261039e57602061068861155461388b565b6001600160a01b031660005260c960205260406000205490565b503461039e578060031936011261039e5760206001600160a01b0360975416604051908152f35b503461039e578060031936011261039e57602060ff6101625460b01c166040519015158152f35b503461039e578060031936011261039e5760fb5415806116f4575b156116b0576115e4613d8a565b906115ed613e48565b90604051906020908183019383851067ffffffffffffffff861117610a3d57928285936116668896611658986040528585526040519889987f0f000000000000000000000000000000000000000000000000000000000000008a5260e0858b015260e08a01906138cd565b9088820360408a01526138cd565b924660608801523060808801528460a088015286840360c088015251928381520193925b82811061169957505050500390f35b83518552869550938101939281019260010161168a565b606460405162461bcd60e51b815260206004820152601560248201527f4549503731323a20556e696e697469616c697a656400000000000000000000006044820152fd5b5060fc54156115d7565b503461039e57602036600319011261039e5760406020916001600160a01b0361172561388b565b16815261012f83522054604051908152f35b503461039e578060031936011261039e57611750613a6b565b60006001600160a01b0360975473ffffffffffffffffffffffffffffffffffffffff198116609755167f8be0079c531659141344cd1fd0a4f28419497f9722a3daafe3b4186f6b6457e08280a380f35b503461039e57602036600319011261039e5760206106886117bf61388b565b61457f565b503461039e57604036600319011261039e576004356117e16138b7565b60ff6101625460a01c1661074d576001600160a01b039261019593808554169460405195629c185f60e01b87526020968781600481855afa90811561074257859161072557506106fb57803b156106f75783809160046040518094819363533ae12960e01b83525af1801561052f579184939188936106d757505416602460405180948193634eacc0fd60e01b83528960048401525af19182156104fb57916106ba575061069057816106838261068894614a5d565b503461039e578060031936011261039e576118b0613a6b565b61016280547fffffffffffffffffff00ffffffffffffffffffffffffffffffffffffffffffff76ff0000000000000000000000000000000000000000000060ff8360b01c161560b01b16911617905580f35b503461039e57604036600319011261039e5761191c61388b565b6001600160a01b03602435916119306149e2565b16908115611987577fddf252ad1be2c89b69c2b068fc378daa952ba7f163c4a11628f55a4df523b3ef602082611969869460cb54613ee1565b60cb5584845260c9825260408420818154019055604051908152a380f35b606460405162461bcd60e51b815260206004820152601f60248201527f45524332303a206d696e7420746f20746865207a65726f2061646472657373006044820152fd5b503461039e578060031936011261039e576001600160a01b037f0000000000000000000000000000000000000000000000000000000000000000163003611a365760206040517f360894a13ba1a3210667c828492db98dca3e2076cc3735a920a3ca505d382bbc8152f35b608460405162461bcd60e51b815260206004820152603860248201527f555550535570677261646561626c653a206d757374206e6f742062652063616c60448201527f6c6564207468726f7567682064656c656761746563616c6c00000000000000006064820152fd5b503461039e5760c036600319011261039e57600435611abd6138b7565b6064359160ff8316809303610a975760ff6101625460a01c1661074d576001600160a01b0361019590808254169460405195629c185f60e01b87526020968781600481855afa908115611c71578991611c54575b506106fb578088913b15611c505781809160046040518094819363533ae12960e01b83525af18015610f4a57611c38575b508683855416602460405180948193634eacc0fd60e01b83528a60048401525af1908115611010578891611c1b575b50610690578691611b828686614a5d565b806101965416935416833b156106f35760e4908360405195869485937fd505accf00000000000000000000000000000000000000000000000000000000855233600486015260248501528860448501526044356064850152608484015260843560a484015260a43560c48401525af1801561074257611c07575b509061068891614c91565b611c11859161392b565b6106f75783611bfc565b611c329150873d89116100a757610099818361395b565b38611b71565b611c419061392b565b611c4c578638611b42565b8680fd5b5080fd5b611c6b9150883d8a116100a757610099818361395b565b38611b11565b6040513d8b823e3d90fd5b503461039e57602036600319011261039e57602061152b611c9b61388b565b614a9e565b50604036600319011261039e57611cb561388b565b60243567ffffffffffffffff81116106f357366023820112156106f357611ce6903690602481600401359101613999565b906001600160a01b0391827f00000000000000000000000000000000000000000000000000000000000000001692611d2084301415613b18565b611d4f7f360894a13ba1a3210667c828492db98dca3e2076cc3735a920a3ca505d382bbc948286541614613b89565b611d57613a6b565b7f4910fdfa16fed3260ed0e7147f7cc6da11a60208b5b9406d12a635614ffd91435460ff1615611d8d5750506103db9150613bfa565b8216604051936352d1902d60e01b85526020948581600481865afa60009181611f8a575b50611e20576084866040519062461bcd60e51b82526004820152602e60248201527f45524331393637557067726164653a206e657720696d706c656d656e7461746960448201527f6f6e206973206e6f7420555550530000000000000000000000000000000000006064820152fd5b9492939403611f2057611e3284613bfa565b7fbc7cd75a20ee27fd9adebab32041f755214dbc6bffa90cc0225b39da2e5c2d3b600080a2815115801590611f18575b611e6d575b50505080f35b611f069260008060405194611e818661393f565b602786527f416464726573733a206c6f772d6c6576656c2064656c65676174652063616c6c858701527f206661696c65640000000000000000000000000000000000000000000000000060408701528481519101845af4903d15611f0f573d611ee98161397d565b90611ef7604051928361395b565b8152600081943d92013e613cb4565b50388080611e67565b60609250613cb4565b506001611e62565b6084826040519062461bcd60e51b82526004820152602960248201527f45524331393637557067726164653a20756e737570706f727465642070726f7860448201527f6961626c655555494400000000000000000000000000000000000000000000006064820152fd5b90918782813d8311611fb2575b611fa1818361395b565b8101031261039e5750519038611db1565b503d611f97565b503461039e57604036600319011261039e576110c0906040611fd961388b565b9133815260ca602052206001600160a01b038216600052602052612004602435604060002054613ee1565b9033613f04565b503461039e578060031936011261039e5760206001600160a01b036101965416604051908152f35b503461039e57602080600319360112611c505761204e61388b565b6001600160a01b03807f00000000000000000000000000000000000000000000000000000000000000001661208581301415613b18565b6120b47f360894a13ba1a3210667c828492db98dca3e2076cc3735a920a3ca505d382bbc918383541614613b89565b6120bc613a6b565b604051908482019282841067ffffffffffffffff851117610a3d578360405286835260ff7f4910fdfa16fed3260ed0e7147f7cc6da11a60208b5b9406d12a635614ffd9143541660001461211857505050506103db9150613bfa565b8492939416906040516352d1902d60e01b81528681600481865afa600091816122ee575b506121ab576084876040519062461bcd60e51b82526004820152602e60248201527f45524331393637557067726164653a206e657720696d706c656d656e7461746960448201527f6f6e206973206e6f7420555550530000000000000000000000000000000000006064820152fd5b9593949503612284576121bd82613bfa565b7fbc7cd75a20ee27fd9adebab32041f755214dbc6bffa90cc0225b39da2e5c2d3b600080a282511580159061227c575b6121f9575b5050505080f35b600080612272956040519561220d8761393f565b602787527f416464726573733a206c6f772d6c6576656c2064656c65676174652063616c6c868801527f206661696c65640000000000000000000000000000000000000000000000000060408801525190845af4903d15611f0f573d611ee98161397d565b50388080806121f2565b5060006121ed565b6084836040519062461bcd60e51b82526004820152602960248201527f45524331393637557067726164653a20756e737570706f727465642070726f7860448201527f6961626c655555494400000000000000000000000000000000000000000000006064820152fd5b90918882813d8311612316575b612305818361395b565b8101031261039e575051903861213c565b503d6122fb565b503461039e578060031936011261039e5760206106886141f9565b503461039e578060031936011261039e57602060405160128152f35b503461039e578060031936011261039e5761236d613a6b565b61016280547fffffffffffffffff00ffffffffffffffffffffffffffffffffffffffffffffff77ff000000000000000000000000000000000000000000000060ff8360b81c161560b81b16911617905580f35b503461039e578060031936011261039e57602060ff6101625460b81c166040519015158152f35b503461039e57604036600319011261039e576103db61240461388b565b61240c6138b7565b90614b6f565b503461039e57606036600319011261039e5761242c61388b565b906124356138b7565b604435906101629360ff855460b01c16611043576001600160a01b039161019592808454169660405197629c185f60e01b89526020988981600481855afa908115611c715789916126fe575b506106fb57803b15610f555787809160046040518094819363533ae12960e01b83525af180156110105783929189916126e5575b505054169360405163df592f7d60e01b90818152838516600482015289816024818a5afa908115611c715789916126c8575b50610fa1576040519081528881602481868916998a60048301525afa9081156110105788916126ab575b50610fa1576125208385614b6f565b61252a8385614746565b8054604051633524f9e360e21b81526001600160a01b0386811660048301528516602482015295906080908790604490829087165afa95861561101057889661268b575b50875260ca885260408720336000528852604060002054600019810361262d575b5061259b8684866143c9565b54169160ff6101965460a01c1693805190888101516060604083015192015192863b15612629576040516377606b2b60e11b81526001600160a01b03958616600482015295909416602486015295151560448501526064840196909652608483019190915260a482019390935260c481019390935260e4830191909152829082908183816101048101610f1d565b8980fd5b868110612647578661264191033386613f04565b3861258f565b6064896040519062461bcd60e51b82526004820152601d60248201527f45524332303a20696e73756666696369656e7420616c6c6f77616e63650000006044820152fd5b6126a491965060803d8111610f8257610f73818361395b565b943861256e565b6126c29150893d8b116100a757610099818361395b565b38612511565b6126df91508a3d8c116100a757610099818361395b565b386124e7565b6126f19192935061392b565b611c4c57819087386124b5565b61271591508a3d8c116100a757610099818361395b565b38612481565b506020908160031936011261039e5761273261388b565b61273a614906565b60ff6101625460a01c1661074d576001600160a01b0361019581815416604051629c185f60e01b81528681600481855afa908115610fe85786916129e7575b506106fb57803b15610f9d5784809160046040518094819363533ae12960e01b83525af18015610742579085916129d3575b508583835416602460405180948193634eacc0fd60e01b83523460048401525af19081156107425785916129b6575b50610690576127e98334614a5d565b60048583835416604051928380926384b5843960e01b82525afa908115610742578591612999575b501561005657341561296f5761019782815416803b1561296b5785600491604051928380927fd0e30db000000000000000000000000000000000000000000000000000000000825234905af18015610fe85786928892869261294f575b50541660448585541660405194859384927f095ea7b300000000000000000000000000000000000000000000000000000000845260048401523460248401525af1801561074257612932575b50541690813b156106f35760405163c14cfe0960e01b81523060048201526001600160a01b03919091166024820152346044820181905260648201529082908290608490829084905af18015610f4a5761291e575b82600161016355604051348152f35b612928829161392b565b61039e578061290f565b61294890863d88116100a757610099818361395b565b50386128ba565b9093925061295d915061392b565b610f9d57858386923861286e565b8580fd5b60046040517f7c7c8720000000000000000000000000000000000000000000000000000000008152fd5b6129b09150863d88116100a757610099818361395b565b38612811565b6129cd9150863d88116100a757610099818361395b565b386127da565b6129dc9061392b565b6106f75783386127ab565b6129fe9150873d89116100a757610099818361395b565b38612779565b503461039e578060031936011261039e57602060cb54604051908152f35b503461039e57604036600319011261039e57612a3c61388b565b60243590612a486149e2565b826001600160a01b038061019554169260ff6101965460a01c1690843b156106f757606484928360405195869485937facde9b2a0000000000000000000000000000000000000000000000000000000085521515600485015216978860248401528960448401525af18015610f4a57612b17575b50508015612ad357825260c9602052604082205580f35b606460405162461bcd60e51b815260206004820152601b60248201527f416464726573732063616e6e6f74206265207a65726f206164647200000000006044820152fd5b612b209061392b565b6106f3578238612abc565b503461039e5760c036600319011261039e5760043567ffffffffffffffff8111611c5057612b5d9036906004016139d0565b60243567ffffffffffffffff81116106f357612b7d9036906004016139d0565b612b856138a1565b916064356001600160a01b0381168103610a975760843591821515830361296b576001600160a01b0360a4351660a43503610a975785549360ff8560081c1615948580966135c4575b80156135ad575b156135435760ff198116600117885585613532575b50612c0460ff885460081c16612bff816142f8565b6142f8565b815167ffffffffffffffff81116132b857612c2060cc54613d50565b601f8111613495575b50806020601f8211600114613412578991613407575b508160011b916000199060031b1c19161760cc555b80519067ffffffffffffffff82116132b8578190612c7360cd54613d50565b601f811161335f575b50602090601f83116001146132d75789926132cc575b50508160011b916000199060031b1c19161760cd555b60ff865460081c1690612cba826142f8565b6040519182604081011067ffffffffffffffff604085011117610a3d57612d119060408401604052600184527f310000000000000000000000000000000000000000000000000000000000000060208501526142f8565b80519067ffffffffffffffff82116132b8578190612d3060fd54613d50565b601f8111613210575b50602090601f831160011461318857899261317d575b50508160011b916000199060031b1c19161760fd555b80519067ffffffffffffffff8211613169578190612d8460fe54613d50565b601f81116130c1575b50602090601f831160011461303957889261302e575b50508160011b916000199060031b1c19161760fe555b8460fb558460fc55612e0960ff865460081c16612dd5816142f8565b73ffffffffffffffffffffffffffffffffffffffff19926001600160a01b03610162911684825416179055612bff816142f8565b612e1233613ac3565b612e1a613a6b565b6001600160a01b0360a43516156103de57612e3660a435613ac3565b6001600160a01b03855494612e5060ff8760081c166142f8565b1685610195805490838583161790551617916040517f98acd7a6000000000000000000000000000000000000000000000000000000008152602081600481875afa908115611038578791612fe6575b506001600160a01b03600491169161019690602074ff0000000000000000000000000000000000000000835492151560a01b169687867fffffffffffffffffffffff000000000000000000000000000000000000000000851617178455604051948580926384b5843960e01b82525afa8015611c715760ff938a91612fc8575b50151560a81b95847fffffffffffffffffffff0000000000000000000000000000000000000000000075ff0000000000000000000000000000000000000000008916931617171780915560a81c16612fb2575b505050612f7d575080f35b61ff00191681557f7f26b83ff96e1f2b6a682f133852f6798a09c465da95921460cefb3847402498602060405160018152a180f35b8561019793161790825416179055388080612f72565b612fe0915060203d81116100a757610099818361395b565b38612f1f565b90506020813d8211613026575b816130006020938361395b565b81010312611c4c57516001600160a01b0381168103611c4c576001600160a01b03612e9f565b3d9150612ff3565b015190503880612da3565b925060fe88527f54075df80ec1ae6ac9100e1fd0ebf3246c17f5c933137af392011f4c5f61513a9088935b601f19841685106130a6576001945083601f1981161061308d575b505050811b0160fe55612db9565b015160001960f88460031b161c1916905538808061307f565b81810151835560209485019460019093019290910190613064565b90915060fe8852601f830160051c7f54075df80ec1ae6ac9100e1fd0ebf3246c17f5c933137af392011f4c5f61513a0160208410613142575b908392915b601f820160051c7f54075df80ec1ae6ac9100e1fd0ebf3246c17f5c933137af392011f4c5f61513a0181106131345750612d8d565b8981558493506001016130ff565b507f54075df80ec1ae6ac9100e1fd0ebf3246c17f5c933137af392011f4c5f61513a6130fa565b602487634e487b7160e01b81526041600452fd5b015190503880612d4f565b925060fd89527f9346ac6dd7de6b96975fec380d4d994c4c12e6a8897544f22915316cc6cca2809089935b601f19841685106131f5576001945083601f198116106131dc575b505050811b0160fd55612d65565b015160001960f88460031b161c191690553880806131ce565b818101518355602094850194600190930192909101906131b3565b90915060fd8952601f830160051c7f9346ac6dd7de6b96975fec380d4d994c4c12e6a8897544f22915316cc6cca2800160208410613291575b908392915b601f820160051c7f9346ac6dd7de6b96975fec380d4d994c4c12e6a8897544f22915316cc6cca2800181106132835750612d39565b8a815584935060010161324e565b507f9346ac6dd7de6b96975fec380d4d994c4c12e6a8897544f22915316cc6cca280613249565b602488634e487b7160e01b81526041600452fd5b015190503880612c92565b925060cd89527f83978b4c69c48dd978ab43fe30f077615294f938fb7f936d9eb340e51ea7db2e9089935b601f1984168510613344576001945083601f1981161061332b575b505050811b0160cd55612ca8565b015160001960f88460031b161c1916905538808061331d565b81810151835560209485019460019093019290910190613302565b90915060cd8952601f830160051c7f83978b4c69c48dd978ab43fe30f077615294f938fb7f936d9eb340e51ea7db2e01602084106133e0575b908392915b601f820160051c7f83978b4c69c48dd978ab43fe30f077615294f938fb7f936d9eb340e51ea7db2e0181106133d25750612c7c565b8a815584935060010161339d565b507f83978b4c69c48dd978ab43fe30f077615294f938fb7f936d9eb340e51ea7db2e613398565b905083015138612c3f565b915060cc89527f47197230e1e4b29fc0bd84d7d78966c0925452aff72a2a121538b102457e9ebe89925b601f198316841061347d576001935082601f19811610613464575b5050811b0160cc55612c54565b85015160001960f88460031b161c191690553880613457565b8581015182556020938401936001909201910161343c565b60cc8952601f820160051c7f47197230e1e4b29fc0bd84d7d78966c0925452aff72a2a121538b102457e9ebe016020831061350b575b601f820160051c7f47197230e1e4b29fc0bd84d7d78966c0925452aff72a2a121538b102457e9ebe0181106135005750612c29565b8981556001016134cb565b507f47197230e1e4b29fc0bd84d7d78966c0925452aff72a2a121538b102457e9ebe6134cb565b61ffff191661010117875538612bea565b608460405162461bcd60e51b815260206004820152602e60248201527f496e697469616c697a61626c653a20636f6e747261637420697320616c72656160448201527f647920696e697469616c697a65640000000000000000000000000000000000006064820152fd5b50303b158015612bd55750600160ff821614612bd5565b50600160ff821610612bce565b503461039e57604036600319011261039e576110c06135ee61388b565b6024359033613f04565b503461039e578060031936011261039e57604051600060cc5461361a81613d50565b808452906001908181169081156113585750600114613643576112f9846112e58186038261395b565b60cc600090815292507f47197230e1e4b29fc0bd84d7d78966c0925452aff72a2a121538b102457e9ebe5b8284106136865750505081016020016112e5826112d5565b8054602085870181019190915290930192810161366e565b503461039e57604036600319011261039e576136b861388b565b602435906136c46149e2565b6001600160a01b03908382610195541660ff6101965460a01c1690803b156106f3576044839260405194859384927fd1273d9e000000000000000000000000000000000000000000000000000000008452151560048401528960248401525af180156107425761378f575b5016801561374b57825260c96020526040822090815401905580f35b606460405162461bcd60e51b815260206004820152601c60248201527f54726561737572792063616e6e6f74206265207a65726f2061646472000000006044820152fd5b61379b9094919461392b565b923861372f565b503461039e578060031936011261039e576137bb613a6b565b6101627fffffffffffffffff00000000ffffffffffffffffffffffffffffffffffffffff815416905580f35b905034611c505781600319360112611c50576020816024816001600160a01b038061019654169061019554167f70a0823100000000000000000000000000000000000000000000000000000000835260048301525afa908115610f4a578291613856575b602082604051908152f35b90506020813d8211613883575b816138706020938361395b565b81010312611c505760209150513861384b565b3d9150613863565b600435906001600160a01b0382168203610a9757565b604435906001600160a01b0382168203610a9757565b602435906001600160a01b0382168203610a9757565b919082519283825260005b8481106138f9575050826000602080949584010152601f8019910116010190565b6020818301810151848301820152016138d8565b5034610a97576020366003190112610a975760206040516004358152f35b67ffffffffffffffff8111610a3d57604052565b6060810190811067ffffffffffffffff821117610a3d57604052565b90601f8019910116810190811067ffffffffffffffff821117610a3d57604052565b67ffffffffffffffff8111610a3d57601f01601f191660200190565b9291926139a58261397d565b916139b3604051938461395b565b829481845281830111610a97578281602093846000960137010152565b9080601f83011215610a97578160206139eb93359101613999565b90565b5034610a97576020366003190112610a97576020610688613a0d61388b565b61487e565b6060906003190112610a9757600435906001600160a01b03906024358281168103610a9757916044359081168103610a975790565b5034610a97576020366003190112610a97576020610688613a6661388b565b61495c565b6001600160a01b03609754163303613a7f57565b606460405162461bcd60e51b815260206004820152602060248201527f4f776e61626c653a2063616c6c6572206973206e6f7420746865206f776e65726044820152fd5b609754906001600160a01b03809116918273ffffffffffffffffffffffffffffffffffffffff19821617609755167f8be0079c531659141344cd1fd0a4f28419497f9722a3daafe3b4186f6b6457e0600080a3565b15613b1f57565b608460405162461bcd60e51b815260206004820152602c60248201527f46756e6374696f6e206d7573742062652063616c6c6564207468726f7567682060448201527f64656c656761746563616c6c00000000000000000000000000000000000000006064820152fd5b15613b9057565b608460405162461bcd60e51b815260206004820152602c60248201527f46756e6374696f6e206d7573742062652063616c6c6564207468726f7567682060448201527f6163746976652070726f787900000000000000000000000000000000000000006064820152fd5b803b15613c4a576001600160a01b037f360894a13ba1a3210667c828492db98dca3e2076cc3735a920a3ca505d382bbc911673ffffffffffffffffffffffffffffffffffffffff19825416179055565b608460405162461bcd60e51b815260206004820152602d60248201527f455243313936373a206e657720696d706c656d656e746174696f6e206973206e60448201527f6f74206120636f6e7472616374000000000000000000000000000000000000006064820152fd5b91929015613d155750815115613cc8575090565b3b15613cd15790565b606460405162461bcd60e51b815260206004820152601d60248201527f416464726573733a2063616c6c20746f206e6f6e2d636f6e74726163740000006044820152fd5b825190915015613d285750805190602001fd5b613d4c9060405191829162461bcd60e51b83526020600484015260248301906138cd565b0390fd5b90600182811c92168015613d80575b6020831014613d6a57565b634e487b7160e01b600052602260045260246000fd5b91607f1691613d5f565b6040519060008260fd5491613d9e83613d50565b80835292600190818116908115613e265750600114613dc7575b50613dc59250038361395b565b565b60fd600090815291507f9346ac6dd7de6b96975fec380d4d994c4c12e6a8897544f22915316cc6cca2805b848310613e0b5750613dc5935050810160200138613db8565b81935090816020925483858a01015201910190918592613df2565b905060209250613dc594915060ff191682840152151560051b82010138613db8565b6040519060008260fe5491613e5c83613d50565b80835292600190818116908115613e265750600114613e825750613dc59250038361395b565b60fe600090815291507f54075df80ec1ae6ac9100e1fd0ebf3246c17f5c933137af392011f4c5f61513a5b848310613ec65750613dc5935050810160200138613db8565b81935090816020925483858a01015201910190918592613ead565b91908201809211613eee57565b634e487b7160e01b600052601160045260246000fd5b6001600160a01b03809116918215613fcf5716918215613f655760207f8c5be1e5ebec7d5bd14f71427d1e84f3dd0314c0f7b2291e5b200ac8c7c3b925918360005260ca8252604060002085600052825280604060002055604051908152a3565b608460405162461bcd60e51b815260206004820152602260248201527f45524332303a20617070726f766520746f20746865207a65726f20616464726560448201527f73730000000000000000000000000000000000000000000000000000000000006064820152fd5b608460405162461bcd60e51b8152602060048201526024808201527f45524332303a20617070726f76652066726f6d20746865207a65726f2061646460448201527f72657373000000000000000000000000000000000000000000000000000000006064820152fd5b600581101561415457806140495750565b6001810361409557606460405162461bcd60e51b815260206004820152601860248201527f45434453413a20696e76616c6964207369676e617475726500000000000000006044820152fd5b600281036140e157606460405162461bcd60e51b815260206004820152601f60248201527f45434453413a20696e76616c6964207369676e6174757265206c656e677468006044820152fd5b6003146140ea57565b608460405162461bcd60e51b815260206004820152602260248201527f45434453413a20696e76616c6964207369676e6174757265202773272076616c60448201527f75650000000000000000000000000000000000000000000000000000000000006064820152fd5b634e487b7160e01b600052602160045260246000fd5b9291907f7fffffffffffffffffffffffffffffff5d576e7357a4501ddfe92f46681b20a083116141ed5791608094939160ff602094604051948552168484015260408301526060820152600093849182805260015afa156141e05781516001600160a01b038116156141da579190565b50600190565b50604051903d90823e3d90fd5b50505050600090600390565b61420161426f565b6142096142ba565b6040519060208201927f8b73c3c69bb8fe3d512ecc4cf759cc79239f7b179b0ffacaa9a75d522b39400f8452604083015260608201524660808201523060a082015260a0815260c0810181811067ffffffffffffffff821117610a3d5760405251902090565b614277613d8a565b8051908115614287576020012090565b505060fb5480156142955790565b507fc5d2460186f7233c927e7db2dcc703c0e500b653ca82273b7bfad8045d85a47090565b6142c2613e48565b80519081156142d2576020012090565b505060fc5480156142955790565b90816020910312610a9757518015158103610a975790565b156142ff57565b608460405162461bcd60e51b815260206004820152602b60248201527f496e697469616c697a61626c653a20636f6e7472616374206973206e6f74206960448201527f6e697469616c697a696e670000000000000000000000000000000000000000006064820152fd5b90608082820312610a975780601f83011215610a9757604051916080830183811067ffffffffffffffff821117610a3d57604052829060808101928311610a9757905b8282106143b95750505090565b81518152602091820191016143ac565b6001600160a01b0380911691821561451557169182156144ab57600082815260c960205260408120549180831061444157604082827fddf252ad1be2c89b69c2b068fc378daa952ba7f163c4a11628f55a4df523b3ef95876020965260c98652038282205586815220818154019055604051908152a3565b608460405162461bcd60e51b815260206004820152602660248201527f45524332303a207472616e7366657220616d6f756e742065786365656473206260448201527f616c616e636500000000000000000000000000000000000000000000000000006064820152fd5b608460405162461bcd60e51b815260206004820152602360248201527f45524332303a207472616e7366657220746f20746865207a65726f206164647260448201527f65737300000000000000000000000000000000000000000000000000000000006064820152fd5b608460405162461bcd60e51b815260206004820152602560248201527f45524332303a207472616e736665722066726f6d20746865207a65726f20616460448201527f64726573730000000000000000000000000000000000000000000000000000006064820152fd5b61458881614675565b8015614666575b156146485760246001600160a01b0391826101955416926040928392835195869384927fa4d96e170000000000000000000000000000000000000000000000000000000084521660048301525afa91821561463d576000918293614607575b505060ff6101965460a01c16614602575090565b905090565b90809350813d8311614636575b61461e818361395b565b8101031261039e5750602081519101519038806145ee565b503d614614565b50513d6000823e3d90fd5b6139eb906001600160a01b031660005260c960205260406000205490565b5061467081614a9e565b61458f565b6001600160a01b0380610195541690604051926325ad47ab60e21b84521660048301526020918281602481855afa9182156100ae578391600093614713575b509060049160405192838092636ee545fd60e11b82525afa9283156100ae576000936146e2575b5050141590565b8181949293943d831161470c575b6146fa818361395b565b8101031261039e5750519038806146db565b503d6146f0565b9182819492943d831161473f575b61472b818361395b565b8101031261039e57505190829060046146b4565b503d614721565b61474f81614675565b61482d575b506101959081546000926001600160a01b0380921692833b15610f9d576040517f5737ed7d000000000000000000000000000000000000000000000000000000008152858160248183888716998a60048401525af18015610fe857614818575b506147be90614675565b6147c9575b50505050565b541690813b156106f357829160248392604051948593849263242ffe5560e11b845260048401525af18015610f4a57614804575b80806147c3565b61480e829161392b565b61039e57806147fd565b946148266147be929661392b565b94906147b4565b6001600160a01b039081610195541691823b15610a9757602460009283604051958694859363242ffe5560e11b85521660048401525af180156100ae5715614754576148789061392b565b38614754565b60206001600160a01b0360248161019554169360405194859384927f728bf7330000000000000000000000000000000000000000000000000000000084521660048301525afa9081156100ae576000916148d757501990565b906020823d82116148fe575b816148f06020938361395b565b8101031261039e5750511990565b3d91506148e3565b61016360028154146149185760029055565b606460405162461bcd60e51b815260206004820152601f60248201527f5265656e7472616e637947756172643a207265656e7472616e742063616c6c006044820152fd5b60206001600160a01b0360248161019554169360405194859384927fc887e8a00000000000000000000000000000000000000000000000000000000084521660048301525afa9081156100ae576000916149b4575090565b906020823d82116149da575b816149cd6020938361395b565b8101031261039e57505190565b3d91506149c0565b6001600160a01b03610195541633036149f757565b60046040517fe565d9cb000000000000000000000000000000000000000000000000000000008152fd5b6001600160a01b0333911603614a3357565b60046040517f7a45e685000000000000000000000000000000000000000000000000000000008152fd5b90811561296f57614a6d9061487e565b10614a7457565b60046040517f14a4b535000000000000000000000000000000000000000000000000000000008152fd5b6001600160a01b0380610195541690604051927fa129c8470000000000000000000000000000000000000000000000000000000084521660048301526020918281602481855afa9182156100ae578391600093614b3c575b5090600491604051928380927f8df4541b0000000000000000000000000000000000000000000000000000000082525afa9283156100ae576000936146e2575050141590565b9182819492943d8311614b68575b614b54818361395b565b8101031261039e5750519082906004614af6565b503d614b4a565b614b7881614a9e565b614c40575b506101959081546000926001600160a01b0380921692833b15610f9d576040517fb02f6988000000000000000000000000000000000000000000000000000000008152858160248183888716998a60048401525af18015610fe857614c2b575b50614be790614a9e565b614bf15750505050565b541690813b156106f35782916024839260405194859384926310e7089f60e11b845260048401525af18015610f4a576148045780806147c3565b94614c39614be7929661392b565b9490614bdd565b6001600160a01b039081610195541691823b15610a975760246000928360405195869485936310e7089f60e11b85521660048401525af180156100ae5715614b7d57614c8b9061392b565b38614b7d565b906001600160a01b036101955416803b15610a975760405163c14cfe0960e01b81523360048201526001600160a01b0392909216602483015260448201839052606482018390526000908290608490829084905af180156100ae57614cf4575090565b6139eb9061392b565b916101958054916000936001600160a01b0380941692604093858551936325ad47ab60e21b855216928360048201526020908181602481865afa908115614ee6578991614eb9575b508651636ee545fd60e11b81528281600481875afa928315614eaf578a93614e7b575b505003614e2f575b50614d7a8361495c565b8711614e0657548416803b1561296b578592918360a492865197889586947f3d82850b00000000000000000000000000000000000000000000000000000000865233600487015260248601521660448401528960648401528960848401525af1908115614dfd5750614deb57505090565b614df5829161392b565b61039e575090565b513d84823e3d90fd5b600484517f1cf754b8000000000000000000000000000000000000000000000000000000008152fd5b803b15611c4c57868091602487518094819363242ffe5560e11b83528860048401525af18015614e715715614d7057614e6a9096919661392b565b9438614d70565b85513d89823e3d90fd5b9080929350813d8311614ea8575b614e93818361395b565b81010312614ea45751903880614d68565b8880fd5b503d614e89565b88513d8c823e3d90fd5b90508181813d8311614edf575b614ed0818361395b565b81010312614ea4575138614d45565b503d614ec6565b87513d8b823e3d90fdfea2646970667358221220800408d679ed564fa4538241dee942b61c6a53ba60e3c663e1d3be274310135b64736f6c63430008110033",
  "linkReferences": {},
  "deployedLinkReferences": {}
}