{
  "_format": "hh-sol-artifact-1",
  "contractName": "SmartToken",
  "sourceName": "contracts/vaults/SmartToken.sol",
  "abi": [
    {
      "inputs": [],
      "stateMutability": "nonpayable",
      "type": "constructor"
    },
    {
      "inputs": [],
      "name": "BaseContract__DepositCircuitBreaker",
      "type": "error"
    },
    {
      "inputs": [],
      "name": "BaseContract__RebaseCircuitBreaker",
      "type": "error"
    },
    {
      "inputs": [],
      "name": "BaseContract__SanctionedAddress",
      "type": "error"
    },
    {
      "inputs": [],
      "name": "BaseContract__TransferCircuitBreaker",
      "type": "error"
    },
    {
      "inputs": [],
      "name": "BaseContract__WithdrawCircuitBreaker",
      "type": "error"
    },
    {
      "inputs": [],
      "name": "SmartToken__DepositMoreThanMax",
      "type": "error"
    },
    {
      "inputs": [],
      "name": "SmartToken__MethodNotAllowed",
      "type": "error"
    },
    {
      "inputs": [],
      "name": "SmartToken__MintMoreThanMax",
      "type": "error"
    },
    {
      "inputs": [],
      "name": "SmartToken__NotTokenFactory",
      "type": "error"
    },
    {
      "inputs": [],
      "name": "SmartToken__OnlyAssetOwner",
      "type": "error"
    },
    {
      "inputs": [],
      "name": "SmartToken__RedeemMoreThanMax",
      "type": "error"
    },
    {
      "inputs": [],
      "name": "SmartToken__WithdrawMoreThanMax",
      "type": "error"
    },
    {
      "inputs": [],
      "name": "SmartToken__ZeroDeposit",
      "type": "error"
    },
    {
      "anonymous": false,
      "inputs": [
        {
          "indexed": false,
          "internalType": "address",
          "name": "previousAdmin",
          "type": "address"
        },
        {
          "indexed": false,
          "internalType": "address",
          "name": "newAdmin",
          "type": "address"
        }
      ],
      "name": "AdminChanged",
      "type": "event"
    },
    {
      "anonymous": false,
      "inputs": [
        {
          "indexed": true,
          "internalType": "address",
          "name": "owner",
          "type": "address"
        },
        {
          "indexed": true,
          "internalType": "address",
          "name": "spender",
          "type": "address"
        },
        {
          "indexed": false,
          "internalType": "uint256",
          "name": "value",
          "type": "uint256"
        }
      ],
      "name": "Approval",
      "type": "event"
    },
    {
      "anonymous": false,
      "inputs": [
        {
          "indexed": true,
          "internalType": "address",
          "name": "beacon",
          "type": "address"
        }
      ],
      "name": "BeaconUpgraded",
      "type": "event"
    },
    {
      "anonymous": false,
      "inputs": [
        {
          "indexed": true,
          "internalType": "address",
          "name": "sender",
          "type": "address"
        },
        {
          "indexed": true,
          "internalType": "address",
          "name": "owner",
          "type": "address"
        },
        {
          "indexed": false,
          "internalType": "uint256",
          "name": "assets",
          "type": "uint256"
        },
        {
          "indexed": false,
          "internalType": "uint256",
          "name": "shares",
          "type": "uint256"
        }
      ],
      "name": "Deposit",
      "type": "event"
    },
    {
      "anonymous": false,
      "inputs": [],
      "name": "EIP712DomainChanged",
      "type": "event"
    },
    {
      "anonymous": false,
      "inputs": [
        {
          "indexed": false,
          "internalType": "uint8",
          "name": "version",
          "type": "uint8"
        }
      ],
      "name": "Initialized",
      "type": "event"
    },
    {
      "anonymous": false,
      "inputs": [
        {
          "indexed": true,
          "internalType": "address",
          "name": "previousOwner",
          "type": "address"
        },
        {
          "indexed": true,
          "internalType": "address",
          "name": "newOwner",
          "type": "address"
        }
      ],
      "name": "OwnershipTransferred",
      "type": "event"
    },
    {
      "anonymous": false,
      "inputs": [
        {
          "indexed": true,
          "internalType": "address",
          "name": "from",
          "type": "address"
        },
        {
          "indexed": true,
          "internalType": "address",
          "name": "to",
          "type": "address"
        },
        {
          "indexed": false,
          "internalType": "uint256",
          "name": "value",
          "type": "uint256"
        }
      ],
      "name": "Transfer",
      "type": "event"
    },
    {
      "anonymous": false,
      "inputs": [
        {
          "indexed": true,
          "internalType": "address",
          "name": "implementation",
          "type": "address"
        }
      ],
      "name": "Upgraded",
      "type": "event"
    },
    {
      "anonymous": false,
      "inputs": [
        {
          "indexed": true,
          "internalType": "address",
          "name": "sender",
          "type": "address"
        },
        {
          "indexed": true,
          "internalType": "address",
          "name": "receiver",
          "type": "address"
        },
        {
          "indexed": true,
          "internalType": "address",
          "name": "owner",
          "type": "address"
        },
        {
          "indexed": false,
          "internalType": "uint256",
          "name": "assets",
          "type": "uint256"
        },
        {
          "indexed": false,
          "internalType": "uint256",
          "name": "shares",
          "type": "uint256"
        }
      ],
      "name": "Withdraw",
      "type": "event"
    },
    {
      "inputs": [],
      "name": "DOMAIN_SEPARATOR",
      "outputs": [
        {
          "internalType": "bytes32",
          "name": "",
          "type": "bytes32"
        }
      ],
      "stateMutability": "view",
      "type": "function"
    },
    {
      "inputs": [
        {
          "internalType": "address",
          "name": "owner",
          "type": "address"
        },
        {
          "internalType": "address",
          "name": "spender",
          "type": "address"
        }
      ],
      "name": "allowance",
      "outputs": [
        {
          "internalType": "uint256",
          "name": "",
          "type": "uint256"
        }
      ],
      "stateMutability": "view",
      "type": "function"
    },
    {
      "inputs": [
        {
          "internalType": "address",
          "name": "spender",
          "type": "address"
        },
        {
          "internalType": "uint256",
          "name": "amount",
          "type": "uint256"
        }
      ],
      "name": "approve",
      "outputs": [
        {
          "internalType": "bool",
          "name": "",
          "type": "bool"
        }
      ],
      "stateMutability": "nonpayable",
      "type": "function"
    },
    {
      "inputs": [],
      "name": "asset",
      "outputs": [
        {
          "internalType": "address",
          "name": "",
          "type": "address"
        }
      ],
      "stateMutability": "view",
      "type": "function"
    },
    {
      "inputs": [
        {
          "internalType": "address",
          "name": "account",
          "type": "address"
        }
      ],
      "name": "balanceOf",
      "outputs": [
        {
          "internalType": "uint256",
          "name": "",
          "type": "uint256"
        }
      ],
      "stateMutability": "view",
      "type": "function"
    },
    {
      "inputs": [
        {
          "internalType": "address",
          "name": "account",
          "type": "address"
        },
        {
          "internalType": "uint256",
          "name": "amount",
          "type": "uint256"
        }
      ],
      "name": "burn",
      "outputs": [],
      "stateMutability": "nonpayable",
      "type": "function"
    },
    {
      "inputs": [
        {
          "internalType": "uint256",
          "name": "shares",
          "type": "uint256"
        }
      ],
      "name": "convertToAssets",
      "outputs": [
        {
          "internalType": "uint256",
          "name": "assets",
          "type": "uint256"
        }
      ],
      "stateMutability": "view",
      "type": "function"
    },
    {
      "inputs": [
        {
          "internalType": "uint256",
          "name": "assets",
          "type": "uint256"
        }
      ],
      "name": "convertToShares",
      "outputs": [
        {
          "internalType": "uint256",
          "name": "shares",
          "type": "uint256"
        }
      ],
      "stateMutability": "view",
      "type": "function"
    },
    {
      "inputs": [],
      "name": "decimals",
      "outputs": [
        {
          "internalType": "uint8",
          "name": "",
          "type": "uint8"
        }
      ],
      "stateMutability": "view",
      "type": "function"
    },
    {
      "inputs": [
        {
          "internalType": "address",
          "name": "spender",
          "type": "address"
        },
        {
          "internalType": "uint256",
          "name": "subtractedValue",
          "type": "uint256"
        }
      ],
      "name": "decreaseAllowance",
      "outputs": [
        {
          "internalType": "bool",
          "name": "",
          "type": "bool"
        }
      ],
      "stateMutability": "nonpayable",
      "type": "function"
    },
    {
      "inputs": [
        {
          "internalType": "uint256",
          "name": "assets",
          "type": "uint256"
        },
        {
          "internalType": "address",
          "name": "receiver",
          "type": "address"
        }
      ],
      "name": "deposit",
      "outputs": [
        {
          "internalType": "uint256",
          "name": "",
          "type": "uint256"
        }
      ],
      "stateMutability": "nonpayable",
      "type": "function"
    },
    {
      "inputs": [
        {
          "internalType": "uint256",
          "name": "assets",
          "type": "uint256"
        },
        {
          "internalType": "address",
          "name": "receiver",
          "type": "address"
        },
        {
          "internalType": "uint256",
          "name": "deadline",
          "type": "uint256"
        },
        {
          "internalType": "uint8",
          "name": "v",
          "type": "uint8"
        },
        {
          "internalType": "bytes32",
          "name": "r",
          "type": "bytes32"
        },
        {
          "internalType": "bytes32",
          "name": "s",
          "type": "bytes32"
        }
      ],
      "name": "depositWithPermit",
      "outputs": [
        {
          "internalType": "uint256",
          "name": "",
          "type": "uint256"
        }
      ],
      "stateMutability": "nonpayable",
      "type": "function"
    },
    {
      "inputs": [],
      "name": "eip712Domain",
      "outputs": [
        {
          "internalType": "bytes1",
          "name": "fields",
          "type": "bytes1"
        },
        {
          "internalType": "string",
          "name": "name",
          "type": "string"
        },
        {
          "internalType": "string",
          "name": "version",
          "type": "string"
        },
        {
          "internalType": "uint256",
          "name": "chainId",
          "type": "uint256"
        },
        {
          "internalType": "address",
          "name": "verifyingContract",
          "type": "address"
        },
        {
          "internalType": "bytes32",
          "name": "salt",
          "type": "bytes32"
        },
        {
          "internalType": "uint256[]",
          "name": "extensions",
          "type": "uint256[]"
        }
      ],
      "stateMutability": "view",
      "type": "function"
    },
    {
      "inputs": [],
      "name": "getTokenFactory",
      "outputs": [
        {
          "internalType": "address",
          "name": "",
          "type": "address"
        }
      ],
      "stateMutability": "view",
      "type": "function"
    },
    {
      "inputs": [
        {
          "internalType": "address",
          "name": "sender",
          "type": "address"
        },
        {
          "internalType": "address",
          "name": "receiver",
          "type": "address"
        }
      ],
      "name": "handlePendingRebase",
      "outputs": [],
      "stateMutability": "nonpayable",
      "type": "function"
    },
    {
      "inputs": [
        {
          "internalType": "address",
          "name": "account",
          "type": "address"
        }
      ],
      "name": "hasPendingRebase",
      "outputs": [
        {
          "internalType": "bool",
          "name": "",
          "type": "bool"
        }
      ],
      "stateMutability": "view",
      "type": "function"
    },
    {
      "inputs": [
        {
          "internalType": "address",
          "name": "spender",
          "type": "address"
        },
        {
          "internalType": "uint256",
          "name": "addedValue",
          "type": "uint256"
        }
      ],
      "name": "increaseAllowance",
      "outputs": [
        {
          "internalType": "bool",
          "name": "",
          "type": "bool"
        }
      ],
      "stateMutability": "nonpayable",
      "type": "function"
    },
    {
      "inputs": [
        {
          "internalType": "string",
          "name": "tokenName",
          "type": "string"
        },
        {
          "internalType": "string",
          "name": "tokenSymbol",
          "type": "string"
        },
        {
          "internalType": "address",
          "name": "factoryAddress",
          "type": "address"
        },
        {
          "internalType": "address",
          "name": "sanctionsContract_",
          "type": "address"
        },
        {
          "internalType": "bool",
          "name": "isX_",
          "type": "bool"
        }
      ],
      "name": "initialize",
      "outputs": [],
      "stateMutability": "nonpayable",
      "type": "function"
    },
    {
      "inputs": [],
      "name": "isDepositCircuitBreaker",
      "outputs": [
        {
          "internalType": "bool",
          "name": "",
          "type": "bool"
        }
      ],
      "stateMutability": "view",
      "type": "function"
    },
    {
      "inputs": [],
      "name": "isRebaseCircuitBreaker",
      "outputs": [
        {
          "internalType": "bool",
          "name": "",
          "type": "bool"
        }
      ],
      "stateMutability": "view",
      "type": "function"
    },
    {
      "inputs": [],
      "name": "isTransferCircuitBreaker",
      "outputs": [
        {
          "internalType": "bool",
          "name": "",
          "type": "bool"
        }
      ],
      "stateMutability": "view",
      "type": "function"
    },
    {
      "inputs": [],
      "name": "isWithdrawCircuitBreaker",
      "outputs": [
        {
          "internalType": "bool",
          "name": "",
          "type": "bool"
        }
      ],
      "stateMutability": "view",
      "type": "function"
    },
    {
      "inputs": [
        {
          "internalType": "address",
          "name": "account",
          "type": "address"
        }
      ],
      "name": "maxDeposit",
      "outputs": [
        {
          "internalType": "uint256",
          "name": "",
          "type": "uint256"
        }
      ],
      "stateMutability": "view",
      "type": "function"
    },
    {
      "inputs": [
        {
          "internalType": "address",
          "name": "account",
          "type": "address"
        }
      ],
      "name": "maxMint",
      "outputs": [
        {
          "internalType": "uint256",
          "name": "",
          "type": "uint256"
        }
      ],
      "stateMutability": "view",
      "type": "function"
    },
    {
      "inputs": [
        {
          "internalType": "address",
          "name": "owner_",
          "type": "address"
        }
      ],
      "name": "maxRedeem",
      "outputs": [
        {
          "internalType": "uint256",
          "name": "",
          "type": "uint256"
        }
      ],
      "stateMutability": "view",
      "type": "function"
    },
    {
      "inputs": [
        {
          "internalType": "address",
          "name": "owner_",
          "type": "address"
        }
      ],
      "name": "maxWithdraw",
      "outputs": [
        {
          "internalType": "uint256",
          "name": "",
          "type": "uint256"
        }
      ],
      "stateMutability": "view",
      "type": "function"
    },
    {
      "inputs": [
        {
          "internalType": "uint256",
          "name": "shares",
          "type": "uint256"
        },
        {
          "internalType": "address",
          "name": "receiver",
          "type": "address"
        }
      ],
      "name": "mint",
      "outputs": [
        {
          "internalType": "uint256",
          "name": "",
          "type": "uint256"
        }
      ],
      "stateMutability": "nonpayable",
      "type": "function"
    },
    {
      "inputs": [
        {
          "internalType": "address",
          "name": "receiver",
          "type": "address"
        },
        {
          "internalType": "uint256",
          "name": "amount",
          "type": "uint256"
        }
      ],
      "name": "mintAsset",
      "outputs": [],
      "stateMutability": "nonpayable",
      "type": "function"
    },
    {
      "inputs": [],
      "name": "name",
      "outputs": [
        {
          "internalType": "string",
          "name": "",
          "type": "string"
        }
      ],
      "stateMutability": "view",
      "type": "function"
    },
    {
      "inputs": [
        {
          "internalType": "address",
          "name": "owner",
          "type": "address"
        }
      ],
      "name": "nonces",
      "outputs": [
        {
          "internalType": "uint256",
          "name": "",
          "type": "uint256"
        }
      ],
      "stateMutability": "view",
      "type": "function"
    },
    {
      "inputs": [],
      "name": "owner",
      "outputs": [
        {
          "internalType": "address",
          "name": "",
          "type": "address"
        }
      ],
      "stateMutability": "view",
      "type": "function"
    },
    {
      "inputs": [
        {
          "internalType": "address",
          "name": "owner",
          "type": "address"
        },
        {
          "internalType": "address",
          "name": "spender",
          "type": "address"
        },
        {
          "internalType": "uint256",
          "name": "value",
          "type": "uint256"
        },
        {
          "internalType": "uint256",
          "name": "deadline",
          "type": "uint256"
        },
        {
          "internalType": "uint8",
          "name": "v",
          "type": "uint8"
        },
        {
          "internalType": "bytes32",
          "name": "r",
          "type": "bytes32"
        },
        {
          "internalType": "bytes32",
          "name": "s",
          "type": "bytes32"
        }
      ],
      "name": "permit",
      "outputs": [],
      "stateMutability": "nonpayable",
      "type": "function"
    },
    {
      "inputs": [
        {
          "internalType": "uint256",
          "name": "assets",
          "type": "uint256"
        }
      ],
      "name": "previewDeposit",
      "outputs": [
        {
          "internalType": "uint256",
          "name": "",
          "type": "uint256"
        }
      ],
      "stateMutability": "view",
      "type": "function"
    },
    {
      "inputs": [
        {
          "internalType": "uint256",
          "name": "shares",
          "type": "uint256"
        }
      ],
      "name": "previewMint",
      "outputs": [
        {
          "internalType": "uint256",
          "name": "",
          "type": "uint256"
        }
      ],
      "stateMutability": "view",
      "type": "function"
    },
    {
      "inputs": [
        {
          "internalType": "uint256",
          "name": "shares",
          "type": "uint256"
        }
      ],
      "name": "previewRedeem",
      "outputs": [
        {
          "internalType": "uint256",
          "name": "",
          "type": "uint256"
        }
      ],
      "stateMutability": "view",
      "type": "function"
    },
    {
      "inputs": [
        {
          "internalType": "uint256",
          "name": "assets",
          "type": "uint256"
        }
      ],
      "name": "previewWithdraw",
      "outputs": [
        {
          "internalType": "uint256",
          "name": "",
          "type": "uint256"
        }
      ],
      "stateMutability": "view",
      "type": "function"
    },
    {
      "inputs": [],
      "name": "proxiableUUID",
      "outputs": [
        {
          "internalType": "bytes32",
          "name": "",
          "type": "bytes32"
        }
      ],
      "stateMutability": "view",
      "type": "function"
    },
    {
      "inputs": [
        {
          "internalType": "uint256",
          "name": "shares",
          "type": "uint256"
        },
        {
          "internalType": "address",
          "name": "receiver",
          "type": "address"
        },
        {
          "internalType": "address",
          "name": "owner_",
          "type": "address"
        }
      ],
      "name": "redeem",
      "outputs": [
        {
          "internalType": "uint256",
          "name": "",
          "type": "uint256"
        }
      ],
      "stateMutability": "nonpayable",
      "type": "function"
    },
    {
      "inputs": [],
      "name": "renounceOwnership",
      "outputs": [],
      "stateMutability": "nonpayable",
      "type": "function"
    },
    {
      "inputs": [],
      "name": "resumeAllCircuitBreakers",
      "outputs": [],
      "stateMutability": "nonpayable",
      "type": "function"
    },
    {
      "inputs": [
        {
          "internalType": "address",
          "name": "account",
          "type": "address"
        },
        {
          "internalType": "uint256",
          "name": "amount",
          "type": "uint256"
        }
      ],
      "name": "smartBalanceAdjust",
      "outputs": [],
      "stateMutability": "nonpayable",
      "type": "function"
    },
    {
      "inputs": [
        {
          "internalType": "address",
          "name": "treasuryAddress",
          "type": "address"
        },
        {
          "internalType": "uint256",
          "name": "amount",
          "type": "uint256"
        }
      ],
      "name": "smartTreasuryTransfer",
      "outputs": [],
      "stateMutability": "nonpayable",
      "type": "function"
    },
    {
      "inputs": [],
      "name": "stopAllCircuitBreakers",
      "outputs": [],
      "stateMutability": "nonpayable",
      "type": "function"
    },
    {
      "inputs": [],
      "name": "symbol",
      "outputs": [
        {
          "internalType": "string",
          "name": "",
          "type": "string"
        }
      ],
      "stateMutability": "view",
      "type": "function"
    },
    {
      "inputs": [],
      "name": "toggleDepositCircuitBreaker",
      "outputs": [],
      "stateMutability": "nonpayable",
      "type": "function"
    },
    {
      "inputs": [],
      "name": "toggleRebaseCircuitBreaker",
      "outputs": [],
      "stateMutability": "nonpayable",
      "type": "function"
    },
    {
      "inputs": [],
      "name": "toggleTransferCircuitBreaker",
      "outputs": [],
      "stateMutability": "nonpayable",
      "type": "function"
    },
    {
      "inputs": [],
      "name": "toggleWithdrawCircuitBreaker",
      "outputs": [],
      "stateMutability": "nonpayable",
      "type": "function"
    },
    {
      "inputs": [],
      "name": "totalAssets",
      "outputs": [
        {
          "internalType": "uint256",
          "name": "",
          "type": "uint256"
        }
      ],
      "stateMutability": "view",
      "type": "function"
    },
    {
      "inputs": [],
      "name": "totalSupply",
      "outputs": [
        {
          "internalType": "uint256",
          "name": "",
          "type": "uint256"
        }
      ],
      "stateMutability": "view",
      "type": "function"
    },
    {
      "inputs": [
        {
          "internalType": "address",
          "name": "recipient",
          "type": "address"
        },
        {
          "internalType": "uint256",
          "name": "amount",
          "type": "uint256"
        }
      ],
      "name": "transfer",
      "outputs": [
        {
          "internalType": "bool",
          "name": "",
          "type": "bool"
        }
      ],
      "stateMutability": "nonpayable",
      "type": "function"
    },
    {
      "inputs": [
        {
          "internalType": "address",
          "name": "sender",
          "type": "address"
        },
        {
          "internalType": "address",
          "name": "recipient",
          "type": "address"
        },
        {
          "internalType": "uint256",
          "name": "amount",
          "type": "uint256"
        }
      ],
      "name": "transferFrom",
      "outputs": [
        {
          "internalType": "bool",
          "name": "",
          "type": "bool"
        }
      ],
      "stateMutability": "nonpayable",
      "type": "function"
    },
    {
      "inputs": [
        {
          "internalType": "address",
          "name": "newOwner",
          "type": "address"
        }
      ],
      "name": "transferOwnership",
      "outputs": [],
      "stateMutability": "nonpayable",
      "type": "function"
    },
    {
      "inputs": [
        {
          "internalType": "address",
          "name": "account",
          "type": "address"
        }
      ],
      "name": "unScaledbalanceOf",
      "outputs": [
        {
          "internalType": "uint256",
          "name": "",
          "type": "uint256"
        }
      ],
      "stateMutability": "view",
      "type": "function"
    },
    {
      "inputs": [
        {
          "internalType": "address",
          "name": "newImplementation",
          "type": "address"
        }
      ],
      "name": "upgradeTo",
      "outputs": [],
      "stateMutability": "nonpayable",
      "type": "function"
    },
    {
      "inputs": [
        {
          "internalType": "address",
          "name": "newImplementation",
          "type": "address"
        },
        {
          "internalType": "bytes",
          "name": "data",
          "type": "bytes"
        }
      ],
      "name": "upgradeToAndCall",
      "outputs": [],
      "stateMutability": "payable",
      "type": "function"
    },
    {
      "inputs": [
        {
          "internalType": "uint256",
          "name": "assets",
          "type": "uint256"
        },
        {
          "internalType": "address",
          "name": "receiver",
          "type": "address"
        },
        {
          "internalType": "address",
          "name": "owner_",
          "type": "address"
        }
      ],
      "name": "withdraw",
      "outputs": [
        {
          "internalType": "uint256",
          "name": "",
          "type": "uint256"
        }
      ],
      "stateMutability": "nonpayable",
      "type": "function"
    }
  ],
  "bytecode": "0x60a06040523073ffffffffffffffffffffffffffffffffffffffff1660809073ffffffffffffffffffffffffffffffffffffffff168152503480156200004457600080fd5b50620000616778ee86cf6235398860c01b6200011360201b60201c565b6200007d6728a68486c2a9c16060c01b6200011360201b60201c565b6200009967a2a03ea8c3e9d2d860c01b6200011360201b60201c565b620000a96200011660201b60201c565b620000c567f7da8034263b850c60c01b620001dc60201b60201c565b620000e167ae22d9b662726cc060c01b620001dc60201b60201c565b620000fd67c40ca194c42ce89960c01b620001dc60201b60201c565b6200010d6200011660201b60201c565b620002c3565b50565b600060019054906101000a900460ff161562000169576040517f08c379a0000000000000000000000000000000000000000000000000000000008152600401620001609062000266565b60405180910390fd5b60ff801660008054906101000a900460ff1660ff1614620001da5760ff6000806101000a81548160ff021916908360ff1602179055507f7f26b83ff96e1f2b6a682f133852f6798a09c465da95921460cefb384740249860ff604051620001d19190620002a6565b60405180910390a15b565b50565b600082825260208201905092915050565b7f496e697469616c697a61626c653a20636f6e747261637420697320696e69746960008201527f616c697a696e6700000000000000000000000000000000000000000000000000602082015250565b60006200024e602783620001df565b91506200025b82620001f0565b604082019050919050565b6000602082019050818103600083015262000281816200023f565b9050919050565b600060ff82169050919050565b620002a08162000288565b82525050565b6000602082019050620002bd600083018462000295565b92915050565b6080516198b3620002fb600039600081816120dc0152818161216a01528181612455015281816124e3015261293101526198b36000f3fe6080604052600436106103765760003560e01c80637dbaab62116101d1578063b460af9411610102578063d69f62e0116100a0578063e58127311161006f578063e581273114610d81578063ef8b30f714610d98578063f2fde38b14610dd5578063fd6064b314610dfe57610376565b8063d69f62e014610cd9578063d78f092114610cf0578063d905777e14610d07578063dd62ed3e14610d4457610376565b8063c6e6f592116100dc578063c6e6f59214610c1f578063c876a5c414610c5c578063ce96cb7714610c73578063d505accf14610cb057610376565b8063b460af9414610b68578063ba08765214610ba5578063c63d75b614610be257610376565b806394bf804d1161016f578063a457c2d711610149578063a457c2d714610a86578063a9059cbb14610ac3578063b1dbfcee14610b00578063b3d7f6b914610b2b57610376565b806394bf804d146109f557806395d89b4114610a325780639dc29fac14610a5d57610376565b806385f2eac0116101ab57806385f2eac0146109375780638da5cb5b146109625780638f4cef0c1461098d578063925d6ba2146109ca57610376565b80637dbaab62146108a05780637ecebe00146108c957806384b0196e1461090657610376565b80633644e515116102ab57806350921b23116102495780636a300529116102235780636a300529146107f85780636e553f651461080f57806370a082311461084c578063715018a61461088957610376565b806350921b231461076757806352d1902d146107a45780635f758bef146107cf57610376565b806339509351116102855780633950935114610694578063402d267d146106d15780634cdad5061461070e5780634f1ef2861461074b57610376565b80633644e515146106155780633659cfe61461064057806338d52e0f1461066957610376565b806316b535f41161031857806323b872dd116102f257806323b872dd146105475780632ec34d3814610584578063313ce567146105c157806334e49531146105ec57610376565b806316b535f4146104c857806318160ddd146104f15780631fc44f021461051c57610376565b806306fdde031161035457806306fdde03146103e657806307a2d13a14610411578063095ea7b31461044e5780630a28a4771461048b57610376565b806301e1d1141461037b578063030d4ed7146103a657806305bfee33146103bd575b600080fd5b34801561038757600080fd5b50610390610e29565b60405161039d9190617515565b60405180910390f35b3480156103b257600080fd5b506103bb610f2c565b005b3480156103c957600080fd5b506103e460048036038101906103df91906175ce565b611032565b005b3480156103f257600080fd5b506103fb6111c4565b604051610408919061769e565b60405180910390f35b34801561041d57600080fd5b50610438600480360381019061043391906176c0565b611256565b6040516104459190617515565b60405180910390f35b34801561045a57600080fd5b50610475600480360381019061047091906175ce565b61129c565b6040516104829190617708565b60405180910390f35b34801561049757600080fd5b506104b260048036038101906104ad91906176c0565b6112bf565b6040516104bf9190617515565b60405180910390f35b3480156104d457600080fd5b506104ef60048036038101906104ea91906175ce565b611305565b005b3480156104fd57600080fd5b5061050661149a565b6040516105139190617515565b60405180910390f35b34801561052857600080fd5b506105316114a4565b60405161053e9190617708565b60405180910390f35b34801561055357600080fd5b5061056e60048036038101906105699190617723565b6114f8565b60405161057b9190617708565b60405180910390f35b34801561059057600080fd5b506105ab60048036038101906105a69190617776565b611c4a565b6040516105b89190617708565b60405180910390f35b3480156105cd57600080fd5b506105d6611dc0565b6040516105e391906177bf565b60405180910390f35b3480156105f857600080fd5b50610613600480360381019061060e91906177da565b611dc9565b005b34801561062157600080fd5b5061062a6120cb565b6040516106379190617833565b60405180910390f35b34801561064c57600080fd5b5061066760048036038101906106629190617776565b6120da565b005b34801561067557600080fd5b5061067e612262565b60405161068b919061785d565b60405180910390f35b3480156106a057600080fd5b506106bb60048036038101906106b691906175ce565b6122c9565b6040516106c89190617708565b60405180910390f35b3480156106dd57600080fd5b506106f860048036038101906106f39190617776565b612300565b6040516107059190617515565b60405180910390f35b34801561071a57600080fd5b50610735600480360381019061073091906176c0565b61240d565b6040516107429190617515565b60405180910390f35b610765600480360381019061076091906179ad565b612453565b005b34801561077357600080fd5b5061078e60048036038101906107899190617a61565b61258f565b60405161079b9190617515565b60405180910390f35b3480156107b057600080fd5b506107b961292d565b6040516107c69190617833565b60405180910390f35b3480156107db57600080fd5b506107f660048036038101906107f191906175ce565b6129e6565b005b34801561080457600080fd5b5061080d612ab0565b005b34801561081b57600080fd5b5061083660048036038101906108319190617aee565b612b36565b6040516108439190617515565b60405180910390f35b34801561085857600080fd5b50610873600480360381019061086e9190617776565b612de4565b6040516108809190617515565b60405180910390f35b34801561089557600080fd5b5061089e613026565b005b3480156108ac57600080fd5b506108c760048036038101906108c29190617bfb565b61303a565b005b3480156108d557600080fd5b506108f060048036038101906108eb9190617776565b613411565b6040516108fd9190617515565b60405180910390f35b34801561091257600080fd5b5061091b613462565b60405161092e9796959493929190617da7565b60405180910390f35b34801561094357600080fd5b5061094c613563565b6040516109599190617708565b60405180910390f35b34801561096e57600080fd5b506109776135b7565b604051610984919061785d565b60405180910390f35b34801561099957600080fd5b506109b460048036038101906109af9190617776565b6135e1565b6040516109c19190617515565b60405180910390f35b3480156109d657600080fd5b506109df61362f565b6040516109ec919061785d565b60405180910390f35b348015610a0157600080fd5b50610a1c6004803603810190610a179190617aee565b613696565b604051610a299190617515565b60405180910390f35b348015610a3e57600080fd5b50610a47613950565b604051610a54919061769e565b60405180910390f35b348015610a6957600080fd5b50610a846004803603810190610a7f91906175ce565b6139e2565b005b348015610a9257600080fd5b50610aad6004803603810190610aa891906175ce565b613aac565b604051610aba9190617708565b60405180910390f35b348015610acf57600080fd5b50610aea6004803603810190610ae591906175ce565b613b23565b604051610af79190617708565b60405180910390f35b348015610b0c57600080fd5b50610b1561428f565b604051610b229190617708565b60405180910390f35b348015610b3757600080fd5b50610b526004803603810190610b4d91906176c0565b6142e3565b604051610b5f9190617515565b60405180910390f35b348015610b7457600080fd5b50610b8f6004803603810190610b8a9190617e2b565b614329565b604051610b9c9190617515565b60405180910390f35b348015610bb157600080fd5b50610bcc6004803603810190610bc79190617e2b565b614909565b604051610bd99190617515565b60405180910390f35b348015610bee57600080fd5b50610c096004803603810190610c049190617776565b614ed5565b604051610c169190617515565b60405180910390f35b348015610c2b57600080fd5b50610c466004803603810190610c4191906176c0565b614fe2565b604051610c539190617515565b60405180910390f35b348015610c6857600080fd5b50610c71615028565b005b348015610c7f57600080fd5b50610c9a6004803603810190610c959190617776565b6150ae565b604051610ca79190617515565b60405180910390f35b348015610cbc57600080fd5b50610cd76004803603810190610cd29190617e7e565b615190565b005b348015610ce557600080fd5b50610cee6152d2565b005b348015610cfc57600080fd5b50610d056153d8565b005b348015610d1357600080fd5b50610d2e6004803603810190610d299190617776565b61545e565b604051610d3b9190617515565b60405180910390f35b348015610d5057600080fd5b50610d6b6004803603810190610d6691906177da565b615540565b604051610d789190617515565b60405180910390f35b348015610d8d57600080fd5b50610d966155c7565b005b348015610da457600080fd5b50610dbf6004803603810190610dba91906176c0565b61564d565b604051610dcc9190617515565b60405180910390f35b348015610de157600080fd5b50610dfc6004803603810190610df79190617776565b615693565b005b348015610e0a57600080fd5b50610e13615716565b604051610e209190617708565b60405180910390f35b6000610e3f679aa6df513f3387a260c01b61576a565b610e53671cc41705d701d7ae60c01b61576a565b610e676751f863af3282052160c01b61576a565b61019660009054906101000a900473ffffffffffffffffffffffffffffffffffffffff1673ffffffffffffffffffffffffffffffffffffffff166370a0823161019560009054906101000a900473ffffffffffffffffffffffffffffffffffffffff166040518263ffffffff1660e01b8152600401610ee6919061785d565b602060405180830381865afa158015610f03573d6000803e3d6000fd5b505050506040513d601f19601f82011682018060405250810190610f279190617f35565b905090565b610f4067ac8740e239b1e88160c01b61576d565b610f48615770565b610f5c6710e848945f1a6a2860c01b61576d565b610f70670de501ba5cf7340160c01b61576d565b610f8467ec9dbed95138c53360c01b61576d565b600061016260146101000a81548160ff021916908315150217905550610fb4673cc076ac2278ea4760c01b61576d565b600061016260156101000a81548160ff021916908315150217905550610fe46712302286bc54c26360c01b61576d565b600061016260166101000a81548160ff02191690831515021790555061101467486ef95c9b9e995f60c01b61576d565b600061016260176101000a81548160ff021916908315150217905550565b6110466788883cd3736dae0760c01b61576a565b61105a67e29ff56cab74ceea60c01b61576a565b61106e673dedd11014b4614160c01b61576a565b61108267e6bc4ae1982f3a2e60c01b61576a565b61108a6157ee565b61109e67f8a95258aea9a90260c01b61576a565b6110b267f8c326b80e9051eb60c01b61576a565b6110c566c962e58ce2441360c01b61576a565b6110d967c87e8a15385b30f960c01b61576a565b6110ed677d0c1b6648ca1bfe60c01b61576a565b61019560009054906101000a900473ffffffffffffffffffffffffffffffffffffffff1673ffffffffffffffffffffffffffffffffffffffff1663d1273d9e61019660149054906101000a900460ff16836040518363ffffffff1660e01b815260040161115b929190617f62565b600060405180830381600087803b15801561117557600080fd5b505af1158015611189573d6000803e3d6000fd5b505050506111a167dff78d5c4f79375b60c01b61576a565b6111b5677af9a8cf09888a7760c01b61576a565b6111bf82826158f7565b505050565b606060cc80546111d390617fba565b80601f01602080910402602001604051908101604052809291908181526020018280546111ff90617fba565b801561124c5780601f106112215761010080835404028352916020019161124c565b820191906000526020600020905b81548152906001019060200180831161122f57829003601f168201915b5050505050905090565b600061126c6759e1b9e01b596bd960c01b61576a565b6112806703bbaedca6b78a4260c01b61576a565b61129467a430bc983f080b0d60c01b61576a565b819050919050565b6000806112a761590d565b90506112b4818585615915565b600191505092915050565b60006112d5671e4d8200e4e43b4b60c01b61576a565b6112e9678df5f542f68c3c3460c01b61576a565b6112fd67c870a0983a8833ff60c01b61576a565b819050919050565b611319679e1aa1791b10c6ae60c01b61576a565b61132d67e29ff56cab74ceea60c01b61576a565b611341673dedd11014b4614160c01b61576a565b61135567e6bc4ae1982f3a2e60c01b61576a565b61135d6157ee565b61137167f8a95258aea9a90260c01b61576a565b6113856732ca1063c8c8d45b60c01b61576a565b6113996786c5abf1d4d02d7a60c01b61576a565b6113ad679fe077b1d42ad4a460c01b61576a565b6113c167adfa289eca1c986b60c01b61576a565b61019560009054906101000a900473ffffffffffffffffffffffffffffffffffffffff1673ffffffffffffffffffffffffffffffffffffffff1663acde9b2a61019660149054906101000a900460ff1684846040518463ffffffff1660e01b815260040161143193929190617feb565b600060405180830381600087803b15801561144b57600080fd5b505af115801561145f573d6000803e3d6000fd5b5050505061147767e7ea502b084c5d7d60c01b61576a565b61148b67b36b0f4a7711ec5660c01b61576a565b6114958282615ade565b505050565b600060cb54905090565b60006114ba671043c3be551f483160c01b61576d565b6114ce678202584a0b28c8ef60c01b61576d565b6114e267414276e2a5752e4a60c01b61576d565b61016260179054906101000a900460ff16905090565b600061150e6754b16ad798e0aca860c01b61576a565b611522672f30ee5d81fb53a160c01b61576d565b6115366759c256d1410dcf1e60c01b61576d565b61154a67d9508b2760f8fdd360c01b61576d565b61016260169054906101000a900460ff16156115ba57611574676b296f95e6d3c61860c01b61576d565b611588671e0a134bb051544660c01b61576d565b6040517f64c7350800000000000000000000000000000000000000000000000000000000815260040160405180910390fd5b6115ce67356e84623463b02460c01b61576d565b6115e26756c255cdc170bfd460c01b61576d565b6115f667373f61715082c6b660c01b61576a565b61160a67e1b034c4dd13905b60c01b61576a565b8261161f671813cd92923795dc60c01b61576d565b61163367d3bc2d489133455460c01b61576d565b61164767b035356142614dc360c01b61576d565b600061016260009054906101000a900473ffffffffffffffffffffffffffffffffffffffff16905061168367bcb94418cc9e043e60c01b61576d565b6116976775c38a46505afca160c01b61576d565b60008173ffffffffffffffffffffffffffffffffffffffff1663df592f7d846040518263ffffffff1660e01b81526004016116d2919061785d565b602060405180830381865afa1580156116ef573d6000803e3d6000fd5b505050506040513d601f19601f820116820180604052508101906117139190618037565b905061172967372e4b235a4abeca60c01b61576d565b61173d6705d309525565a1c860c01b61576d565b801561178957611757672aa8ae04acb5ec7460c01b61576d565b6040517f4229fac400000000000000000000000000000000000000000000000000000000815260040160405180910390fd5b61179d6747b5327730861dfc60c01b61576d565b6117b167c68ca9541568a80560c01b61576d565b6117c5675e255276f8ada32f60c01b61576a565b6117d96707d987bf3a63068360c01b61576a565b866117ee671813cd92923795dc60c01b61576d565b61180267d3bc2d489133455460c01b61576d565b61181667b035356142614dc360c01b61576d565b600061016260009054906101000a900473ffffffffffffffffffffffffffffffffffffffff16905061185267bcb94418cc9e043e60c01b61576d565b6118666775c38a46505afca160c01b61576d565b60008173ffffffffffffffffffffffffffffffffffffffff1663df592f7d846040518263ffffffff1660e01b81526004016118a1919061785d565b602060405180830381865afa1580156118be573d6000803e3d6000fd5b505050506040513d601f19601f820116820180604052508101906118e29190618037565b90506118f867372e4b235a4abeca60c01b61576d565b61190c6705d309525565a1c860c01b61576d565b801561195857611926672aa8ae04acb5ec7460c01b61576d565b6040517f4229fac400000000000000000000000000000000000000000000000000000000815260040160405180910390fd5b61196c6747b5327730861dfc60c01b61576d565b61198067c68ca9541568a80560c01b61576d565b61199467cda906f514abb16260c01b61576a565b6119a867dba9eda82d9580af60c01b61576a565b6119bc67769cfc80f251c71860c01b61576a565b6119d067f04b1401734e07f060c01b61576a565b6119da8a8a611dc9565b6119ee67dbe7c2f333e0bab060c01b61576a565b611a0267bf7227baf7c95ab160c01b61576a565b600061019560009054906101000a900473ffffffffffffffffffffffffffffffffffffffff1673ffffffffffffffffffffffffffffffffffffffff1663d493e78c8c8c6040518363ffffffff1660e01b8152600401611a62929190618064565b608060405180830381865afa158015611a7f573d6000803e3d6000fd5b505050506040513d601f19601f82011682018060405250810190611aa39190618143565b9050611ab9673c8dadcdedef316960c01b61576a565b611acd675dde5641760480d760c01b61576a565b6000611ada8c8c8c615af4565b9050611af0674e960d3ec0c2905a60c01b61576a565b611b046792d94968557cd90c60c01b61576a565b61019560009054906101000a900473ffffffffffffffffffffffffffffffffffffffff1673ffffffffffffffffffffffffffffffffffffffff1663eec0d6568d8d61019660149054906101000a900460ff168e87600060048110611b6b57611b6a618170565b5b602002015188600160048110611b8457611b83618170565b5b602002015189600260048110611b9d57611b9c618170565b5b60200201518a600360048110611bb657611bb5618170565b5b60200201516040518963ffffffff1660e01b8152600401611bde98979695949392919061819f565b600060405180830381600087803b158015611bf857600080fd5b505af1158015611c0c573d6000803e3d6000fd5b50505050611c2467cd36408de58072e760c01b61576a565b611c3867cd76866b92958dae60c01b61576a565b80985050505050505050509392505050565b6000611c6067fb3bc9a91a0cefff60c01b61576a565b611c7467655a94ed7b7738c760c01b61576a565b611c88678ba420332d35f3fe60c01b61576a565b61019560009054906101000a900473ffffffffffffffffffffffffffffffffffffffff1673ffffffffffffffffffffffffffffffffffffffff16636a4140766040518163ffffffff1660e01b8152600401602060405180830381865afa158015611cf6573d6000803e3d6000fd5b505050506040513d601f19601f82011682018060405250810190611d1a9190617f35565b61019560009054906101000a900473ffffffffffffffffffffffffffffffffffffffff1673ffffffffffffffffffffffffffffffffffffffff16637b69ce2f846040518263ffffffff1660e01b8152600401611d76919061785d565b602060405180830381865afa158015611d93573d6000803e3d6000fd5b505050506040513d601f19601f82011682018060405250810190611db79190617f35565b14159050919050565b60006012905090565b611ddd671129b564efe8245360c01b61576a565b611df167680975894d8e583160c01b61576a565b611e0567de068cd18cc7244060c01b61576a565b611e0e82611c4a565b15611ee257611e2767118dd9d1b31d6b5b60c01b61576a565b611e3b675402cb43b115300860c01b61576a565b611e4f67b195b1ad7f69c5d160c01b61576a565b61019560009054906101000a900473ffffffffffffffffffffffffffffffffffffffff1673ffffffffffffffffffffffffffffffffffffffff166326720aa6836040518263ffffffff1660e01b8152600401611eab919061785d565b600060405180830381600087803b158015611ec557600080fd5b505af1158015611ed9573d6000803e3d6000fd5b50505050611ef7565b611ef6673a8275363585e52a60c01b61576a565b5b611f0b67f6d109435b4b30f860c01b61576a565b611f1f6725decc3ff0c5fb4d60c01b61576a565b61019560009054906101000a900473ffffffffffffffffffffffffffffffffffffffff1673ffffffffffffffffffffffffffffffffffffffff1663b722d6a4826040518263ffffffff1660e01b8152600401611f7b919061785d565b600060405180830381600087803b158015611f9557600080fd5b505af1158015611fa9573d6000803e3d6000fd5b50505050611fc167926194df056ecf4d60c01b61576a565b611fd56789e53843b7179cd860c01b61576a565b611fde81611c4a565b156120b257611ff767623b5c4e177391d160c01b61576a565b61200b67318a1f29b60bf9d160c01b61576a565b61201f67bfa15b6abf95eb6b60c01b61576a565b61019560009054906101000a900473ffffffffffffffffffffffffffffffffffffffff1673ffffffffffffffffffffffffffffffffffffffff166326720aa6826040518263ffffffff1660e01b815260040161207b919061785d565b600060405180830381600087803b15801561209557600080fd5b505af11580156120a9573d6000803e3d6000fd5b505050506120c7565b6120c66742d96b0b0db77fbb60c01b61576a565b5b5050565b60006120d5615b23565b905090565b7f000000000000000000000000000000000000000000000000000000000000000073ffffffffffffffffffffffffffffffffffffffff163073ffffffffffffffffffffffffffffffffffffffff1603612168576040517f08c379a000000000000000000000000000000000000000000000000000000000815260040161215f9061828f565b60405180910390fd5b7f000000000000000000000000000000000000000000000000000000000000000073ffffffffffffffffffffffffffffffffffffffff166121a7615b32565b73ffffffffffffffffffffffffffffffffffffffff16146121fd576040517f08c379a00000000000000000000000000000000000000000000000000000000081526004016121f490618321565b60405180910390fd5b61220681615b89565b61225f81600067ffffffffffffffff81111561222557612224617882565b5b6040519080825280601f01601f1916602001820160405280156122575781602001600182028036833780820191505090505b506000615bd0565b50565b6000612278678728cc7085d1b22160c01b61576a565b61228c6742242f3b7aa5158460c01b61576a565b6122a067643253407a5af17260c01b61576a565b61019660009054906101000a900473ffffffffffffffffffffffffffffffffffffffff16905090565b6000806122d461590d565b90506122f58185856122e68589615540565b6122f09190618370565b615915565b600191505092915050565b600061231667e80d7f206a92f6ec60c01b61576a565b61232a67a24d5193bcbc7aae60c01b61576a565b61233e67c9f162221787b38e60c01b61576a565b61019560009054906101000a900473ffffffffffffffffffffffffffffffffffffffff1673ffffffffffffffffffffffffffffffffffffffff1663728bf733836040518263ffffffff1660e01b815260040161239a919061785d565b602060405180830381865afa1580156123b7573d6000803e3d6000fd5b505050506040513d601f19601f820116820180604052508101906123db9190617f35565b7fffffffffffffffffffffffffffffffffffffffffffffffffffffffffffffffff61240691906183a4565b9050919050565b6000612423673472398ee701727d60c01b61576a565b61243767134fe91e62a676bc60c01b61576a565b61244b67928644659cf12feb60c01b61576a565b819050919050565b7f000000000000000000000000000000000000000000000000000000000000000073ffffffffffffffffffffffffffffffffffffffff163073ffffffffffffffffffffffffffffffffffffffff16036124e1576040517f08c379a00000000000000000000000000000000000000000000000000000000081526004016124d89061828f565b60405180910390fd5b7f000000000000000000000000000000000000000000000000000000000000000073ffffffffffffffffffffffffffffffffffffffff16612520615b32565b73ffffffffffffffffffffffffffffffffffffffff1614612576576040517f08c379a000000000000000000000000000000000000000000000000000000000815260040161256d90618321565b60405180910390fd5b61257f82615b89565b61258b82826001615bd0565b5050565b60006125a567ce70faffda04a88c60c01b61576a565b6125b96793e7298989128b7060c01b61576d565b6125cd67e94c02eb198feb6760c01b61576d565b6125e16752971081b328e2dc60c01b61576d565b61016260149054906101000a900460ff161561263d5761260b67b096d224e1c9de5160c01b61576d565b6040517fd045d9d600000000000000000000000000000000000000000000000000000000815260040160405180910390fd5b6126516722c02165a5e8ded660c01b61576d565b61266567efc1ffe8bcc9842a60c01b61576d565b612679672b9b7ee99af4c0b460c01b61576a565b61268d6705f30c9a400708d060c01b61576a565b86866126a367ec93ca49ae9f5dca60c01b61576a565b6126b7675f26af14aac79de660c01b61576a565b6126cb67e81cfc6f64e3155460c01b61576a565b6126d58282615d3e565b6126e96777f5db6a092fdbb560c01b61576a565b6126fd67b07213d9533f5ed060c01b61576a565b6127116785709ca05ed1e13160c01b61576a565b61272567d8263c550a2d593160c01b61576a565b6127396748ae07130983e6b160c01b61576a565b60006127448a61564d565b905061275a670d21a2c335135f8e60c01b61576a565b61276e6703345775c231315560c01b61576a565b61019660009054906101000a900473ffffffffffffffffffffffffffffffffffffffff1673ffffffffffffffffffffffffffffffffffffffff1663d505accf6127b561590d565b61019560009054906101000a900473ffffffffffffffffffffffffffffffffffffffff16848c8c8c8c6040518863ffffffff1660e01b815260040161280097969594939291906183d8565b600060405180830381600087803b15801561281a57600080fd5b505af115801561282e573d6000803e3d6000fd5b5050505061284667b1edfce1e939612960c01b61576a565b61285a67d5c70efc7e4a1d2760c01b61576a565b61019560009054906101000a900473ffffffffffffffffffffffffffffffffffffffff1673ffffffffffffffffffffffffffffffffffffffff1663c14cfe096128a161590d565b8b8d856040518563ffffffff1660e01b81526004016128c39493929190618447565b600060405180830381600087803b1580156128dd57600080fd5b505af11580156128f1573d6000803e3d6000fd5b5050505061290967610437e62c9a6e6a60c01b61576a565b61291d67d02986771bea074260c01b61576a565b8093505050509695505050505050565b60007f000000000000000000000000000000000000000000000000000000000000000073ffffffffffffffffffffffffffffffffffffffff163073ffffffffffffffffffffffffffffffffffffffff16146129bd576040517f08c379a00000000000000000000000000000000000000000000000000000000081526004016129b4906184fe565b60405180910390fd5b7f360894a13ba1a3210667c828492db98dca3e2076cc3735a920a3ca505d382bbc60001b905090565b6129fa674876a26ecdfe07db60c01b61576a565b612a0e67e29ff56cab74ceea60c01b61576a565b612a22673dedd11014b4614160c01b61576a565b612a3667e6bc4ae1982f3a2e60c01b61576a565b612a3e6157ee565b612a5267f8a95258aea9a90260c01b61576a565b612a666726d8724ae761ae6460c01b61576a565b612a7a6750ad4cc2126ef17260c01b61576a565b612a8e6713fd3e8cd5cfcec860c01b61576a565b612aa267b4113f2639d04fcf60c01b61576a565b612aac8282615e86565b5050565b612ac467078c4f11b2bb4e6860c01b61576d565b612acc615770565b612ae0671c3de1000cb287e660c01b61576d565b612af467a3f312c69f2bc18e60c01b61576d565b612b08672de8c3fd0045c0c960c01b61576d565b61016260169054906101000a900460ff161561016260166101000a81548160ff021916908315150217905550565b6000612b4c6782eccb6552df5c6c60c01b61576a565b612b606793e7298989128b7060c01b61576d565b612b7467e94c02eb198feb6760c01b61576d565b612b886752971081b328e2dc60c01b61576d565b61016260149054906101000a900460ff1615612be457612bb267b096d224e1c9de5160c01b61576d565b6040517fd045d9d600000000000000000000000000000000000000000000000000000000815260040160405180910390fd5b612bf86722c02165a5e8ded660c01b61576d565b612c0c67efc1ffe8bcc9842a60c01b61576d565b612c2067c366162ea966a21860c01b61576a565b612c3467382a61520e9cc9de60c01b61576a565b8282612c4a67ec93ca49ae9f5dca60c01b61576a565b612c5e675f26af14aac79de660c01b61576a565b612c7267e81cfc6f64e3155460c01b61576a565b612c7c8282615d3e565b612c906777f5db6a092fdbb560c01b61576a565b612ca46796fb5ab070efc84e60c01b61576a565b612cb86738c847bfd842fa5e60c01b61576a565b612ccc6715fad0e32aa7fec460c01b61576a565b612ce0673dd0c0c134d1469c60c01b61576a565b6000612ceb8661564d565b9050612d016732e87774d17075b560c01b61576a565b612d1567a9f973be7086c69060c01b61576a565b61019560009054906101000a900473ffffffffffffffffffffffffffffffffffffffff1673ffffffffffffffffffffffffffffffffffffffff1663c14cfe09612d5c61590d565b8789856040518563ffffffff1660e01b8152600401612d7e9493929190618447565b600060405180830381600087803b158015612d9857600080fd5b505af1158015612dac573d6000803e3d6000fd5b50505050612dc4672556cc8fb8c1b12d60c01b61576a565b612dd8674fa41b6fafdb630a60c01b61576a565b80935050505092915050565b6000612dfa676624aa2cc2eea1f660c01b61576a565b612e0e67c7dea7e5b7d2915b60c01b61576a565b612e226791bd6083d111a89e60c01b61576a565b612e2b82611c4a565b15612fd957612e446749a0406bbfb859a760c01b61576a565b612e5867d07f6bcb9d9cb43460c01b61576a565b612e6c674752c80c62cd954c60c01b61576a565b60008061019560009054906101000a900473ffffffffffffffffffffffffffffffffffffffff1673ffffffffffffffffffffffffffffffffffffffff1663a4d96e17856040518263ffffffff1660e01b8152600401612ecb919061785d565b6040805180830381865afa158015612ee7573d6000803e3d6000fd5b505050506040513d601f19601f82011682018060405250810190612f0b919061851e565b91509150612f2367391b3ca7af180b4d60c01b61576a565b612f376765350ad0e0be8e7d60c01b61576a565b61019660149054906101000a900460ff1615612f9357612f61671129ffa0abf0f04a60c01b61576a565b612f756738e29fd681bb5e6e60c01b61576a565b612f8967697375b3b49bf77e60c01b61576a565b8192505050613021565b612fa76720fe68d06fb92b3160c01b61576a565b612fbb674c7fcc1c33675ae360c01b61576a565b612fcf67d03fae6fa2aae1f160c01b61576a565b8092505050613021565b612fed6729e3cb9486c6c72060c01b61576a565b61300167baf5ee241474952960c01b61576a565b613015672c7b1e6c7bcfe88a60c01b61576a565b61301e826135e1565b90505b919050565b61302e615770565b6130386000615fdd565b565b61304e67c050d6518804bf1860c01b61576a565b60008060019054906101000a900460ff1615905080801561307f5750600160008054906101000a900460ff1660ff16105b806130ac575061308e306160a3565b1580156130ab5750600160008054906101000a900460ff1660ff16145b5b6130eb576040517f08c379a00000000000000000000000000000000000000000000000000000000081526004016130e2906185d0565b60405180910390fd5b60016000806101000a81548160ff021916908360ff1602179055508015613128576001600060016101000a81548160ff0219169083151502179055505b61313c67dc83bc63c345c2a160c01b61576a565b613150678bd215575de9bb2960c01b61576a565b6131646743e18483554931c560c01b61576a565b61317867ffd1b3d3ead0bb7160c01b61576a565b61318286866160c6565b61319667ae33b8129600203a60c01b61576a565b6131aa6701068f99a191dbff60c01b61576a565b6131b386616123565b6131c76754a27514c8a8f5c060c01b61576a565b6131db67fcc786c2feed7fda60c01b61576a565b6131e4836161b4565b6131f8675fe79e59b3fc076c60c01b61576a565b61320c6745f476475c8aef1560c01b61576a565b613214616298565b61322867b6d84f9badf2993660c01b61576a565b61323c67e7123da7c3fa296660c01b61576a565b6132446162f1565b613258674e76010d9ecca2db60c01b61576a565b8361019560006101000a81548173ffffffffffffffffffffffffffffffffffffffff021916908373ffffffffffffffffffffffffffffffffffffffff1602179055506132ae67e7b7a98ed28887c060c01b61576a565b61019560009054906101000a900473ffffffffffffffffffffffffffffffffffffffff1673ffffffffffffffffffffffffffffffffffffffff166398acd7a66040518163ffffffff1660e01b8152600401602060405180830381865afa15801561331c573d6000803e3d6000fd5b505050506040513d601f19601f82011682018060405250810190613340919061862e565b61019660006101000a81548173ffffffffffffffffffffffffffffffffffffffff021916908373ffffffffffffffffffffffffffffffffffffffff160217905550613395677cd3b06b0ae88ed160c01b61576a565b8161019660146101000a81548160ff02191690831515021790555080156134095760008060016101000a81548160ff0219169083151502179055507f7f26b83ff96e1f2b6a682f133852f6798a09c465da95921460cefb3847402498600160405161340091906186a0565b60405180910390a15b505050505050565b600061345b61012f60008473ffffffffffffffffffffffffffffffffffffffff1673ffffffffffffffffffffffffffffffffffffffff168152602001908152602001600020616342565b9050919050565b6000606080600080600060606000801b60fb5414801561348657506000801b60fc54145b6134c5576040517f08c379a00000000000000000000000000000000000000000000000000000000081526004016134bc90618707565b60405180910390fd5b6134cd616350565b6134d56163e2565b46306000801b600067ffffffffffffffff8111156134f6576134f5617882565b5b6040519080825280602002602001820160405280156135245781602001602082028036833780820191505090505b507f0f00000000000000000000000000000000000000000000000000000000000000959493929190965096509650965096509650965090919293949596565b6000613579676523534aacf7b17260c01b61576d565b61358d67c17f4294f8de543560c01b61576d565b6135a167692f21b06322df3360c01b61576d565b61016260169054906101000a900460ff16905090565b6000609760009054906101000a900473ffffffffffffffffffffffffffffffffffffffff16905090565b60006135f767dd1264a6ad3f4d1060c01b61576a565b61360b67ec683d56fa93520460c01b61576a565b61361f673737a31483f8c50760c01b61576a565b61362882616474565b9050919050565b60006136456771b3b20f5e733a3a60c01b61576a565b61365967151af1ee7d5de46f60c01b61576a565b61366d677ebf2af3bcbb25a460c01b61576a565b61019560009054906101000a900473ffffffffffffffffffffffffffffffffffffffff16905090565b60006136ac676703e36537751c9360c01b61576a565b6136c06793e7298989128b7060c01b61576d565b6136d467e94c02eb198feb6760c01b61576d565b6136e86752971081b328e2dc60c01b61576d565b61016260149054906101000a900460ff16156137445761371267b096d224e1c9de5160c01b61576d565b6040517fd045d9d600000000000000000000000000000000000000000000000000000000815260040160405180910390fd5b6137586722c02165a5e8ded660c01b61576d565b61376c67efc1ffe8bcc9842a60c01b61576d565b613780670b4ee07d5677435a60c01b61576a565b613794675319fa4814a52a7360c01b61576a565b6137a8679ce67740714b3aac60c01b61576a565b6137bc67790499d8b600ccad60c01b61576a565b6137c582614ed5565b831115613812576137e06713461cbde872f5e160c01b61576a565b6040517f292b120100000000000000000000000000000000000000000000000000000000815260040160405180910390fd5b613826674c06b586f79e5de660c01b61576a565b61383a679f0c2d4b59acb7d060c01b61576a565b61384e67c6a9edfcd711b25160c01b61576a565b6000613859846142e3565b905061386f67406020e45ec5151060c01b61576a565b61388367acd96fd6aa2713d160c01b61576a565b61019560009054906101000a900473ffffffffffffffffffffffffffffffffffffffff1673ffffffffffffffffffffffffffffffffffffffff1663c14cfe096138ca61590d565b8584886040518563ffffffff1660e01b81526004016138ec9493929190618447565b600060405180830381600087803b15801561390657600080fd5b505af115801561391a573d6000803e3d6000fd5b5050505061393267d73b2d4e165b0a1260c01b61576a565b61394667ea32a0f7a2f3c4a060c01b61576a565b8091505092915050565b606060cd805461395f90617fba565b80601f016020809104026020016040519081016040528092919081815260200182805461398b90617fba565b80156139d85780601f106139ad576101008083540402835291602001916139d8565b820191906000526020600020905b8154815290600101906020018083116139bb57829003601f168201915b5050505050905090565b6139f667f60d315f002e9ec860c01b61576a565b613a0a67e29ff56cab74ceea60c01b61576a565b613a1e673dedd11014b4614160c01b61576a565b613a3267e6bc4ae1982f3a2e60c01b61576a565b613a3a6157ee565b613a4e67f8a95258aea9a90260c01b61576a565b613a6267f401edf14b1fd90260c01b61576a565b613a76679dd6792f55e6357f60c01b61576a565b613a8a67de56c2628998a6ab60c01b61576a565b613a9e67921c641337d2f6c660c01b61576a565b613aa882826164bd565b5050565b600080613ab761590d565b90506000613ac58286615540565b905083811015613b0a576040517f08c379a0000000000000000000000000000000000000000000000000000000008152600401613b0190618799565b60405180910390fd5b613b178286868403615915565b60019250505092915050565b6000613b3967e4f4a28c57dccff760c01b61576a565b613b4d672f30ee5d81fb53a160c01b61576d565b613b616759c256d1410dcf1e60c01b61576d565b613b7567d9508b2760f8fdd360c01b61576d565b61016260169054906101000a900460ff1615613be557613b9f676b296f95e6d3c61860c01b61576d565b613bb3671e0a134bb051544660c01b61576d565b6040517f64c7350800000000000000000000000000000000000000000000000000000000815260040160405180910390fd5b613bf967356e84623463b02460c01b61576d565b613c0d6756c255cdc170bfd460c01b61576d565b613c21679b716d8df400c2a560c01b61576a565b613c35671f5ad112fd337be860c01b61576a565b82613c4a671813cd92923795dc60c01b61576d565b613c5e67d3bc2d489133455460c01b61576d565b613c7267b035356142614dc360c01b61576d565b600061016260009054906101000a900473ffffffffffffffffffffffffffffffffffffffff169050613cae67bcb94418cc9e043e60c01b61576d565b613cc26775c38a46505afca160c01b61576d565b60008173ffffffffffffffffffffffffffffffffffffffff1663df592f7d846040518263ffffffff1660e01b8152600401613cfd919061785d565b602060405180830381865afa158015613d1a573d6000803e3d6000fd5b505050506040513d601f19601f82011682018060405250810190613d3e9190618037565b9050613d5467372e4b235a4abeca60c01b61576d565b613d686705d309525565a1c860c01b61576d565b8015613db457613d82672aa8ae04acb5ec7460c01b61576d565b6040517f4229fac400000000000000000000000000000000000000000000000000000000815260040160405180910390fd5b613dc86747b5327730861dfc60c01b61576d565b613ddc67c68ca9541568a80560c01b61576d565b613df067a49d50a99a1c997860c01b61576a565b613e0467b3af49fee95113a260c01b61576a565b613e0c61590d565b613e20671813cd92923795dc60c01b61576d565b613e3467d3bc2d489133455460c01b61576d565b613e4867b035356142614dc360c01b61576d565b600061016260009054906101000a900473ffffffffffffffffffffffffffffffffffffffff169050613e8467bcb94418cc9e043e60c01b61576d565b613e986775c38a46505afca160c01b61576d565b60008173ffffffffffffffffffffffffffffffffffffffff1663df592f7d846040518263ffffffff1660e01b8152600401613ed3919061785d565b602060405180830381865afa158015613ef0573d6000803e3d6000fd5b505050506040513d601f19601f82011682018060405250810190613f149190618037565b9050613f2a67372e4b235a4abeca60c01b61576d565b613f3e6705d309525565a1c860c01b61576d565b8015613f8a57613f58672aa8ae04acb5ec7460c01b61576d565b6040517f4229fac400000000000000000000000000000000000000000000000000000000815260040160405180910390fd5b613f9e6747b5327730861dfc60c01b61576d565b613fb267c68ca9541568a80560c01b61576d565b613fc6671d1de5b284ddb45260c01b61576a565b613fda679e586b95bc1fd8b760c01b61576a565b613fee67a12c3fc25ad819a960c01b61576a565b614002671aad0ed69674605160c01b61576a565b61401361400d61590d565b8a611dc9565b61402767c2dc3c000d73ad1b60c01b61576a565b61403b6775027eb4fae6966a60c01b61576a565b600061019560009054906101000a900473ffffffffffffffffffffffffffffffffffffffff1673ffffffffffffffffffffffffffffffffffffffff1663d493e78c61408461590d565b8c6040518363ffffffff1660e01b81526004016140a2929190618064565b608060405180830381865afa1580156140bf573d6000803e3d6000fd5b505050506040513d601f19601f820116820180604052508101906140e39190618143565b90506140f9676c33726194c0119660c01b61576a565b61410d677d8a557cdb0c40ce60c01b61576a565b60006141198b8b61668c565b905061412f671acc28e3048521ae60c01b61576a565b61414367aac783a5abc0e85f60c01b61576a565b61019560009054906101000a900473ffffffffffffffffffffffffffffffffffffffff1673ffffffffffffffffffffffffffffffffffffffff1663eec0d65661418a61590d565b8d61019660149054906101000a900460ff168e876000600481106141b1576141b0618170565b5b6020020151886001600481106141ca576141c9618170565b5b6020020151896002600481106141e3576141e2618170565b5b60200201518a6003600481106141fc576141fb618170565b5b60200201516040518963ffffffff1660e01b815260040161422498979695949392919061819f565b600060405180830381600087803b15801561423e57600080fd5b505af1158015614252573d6000803e3d6000fd5b5050505061426a670e4e2778c083674860c01b61576a565b61427e67056b31c5314bdb5060c01b61576a565b809850505050505050505092915050565b60006142a567eb21a0f687feb8a960c01b61576d565b6142b967d8c3c97a17b2367e60c01b61576d565b6142cd672de9e957a55cfcf460c01b61576d565b61016260159054906101000a900460ff16905090565b60006142f967f1b309e596322e0860c01b61576a565b61430d67e5cb5bc37885c50c60c01b61576a565b614321676bd3b30371e037c960c01b61576a565b819050919050565b600061433f67a7069f5549b4c77960c01b61576a565b614353675429d7d50d5a68fc60c01b61576d565b614367676f8693d01162c2b960c01b61576d565b61437b6720379d2c5803565260c01b61576d565b61016260159054906101000a900460ff16156143eb576143a567edd33f43574dd9ed60c01b61576d565b6143b967fe2ac4febdb0be5560c01b61576d565b6040517fc689af6e00000000000000000000000000000000000000000000000000000000815260040160405180910390fd5b6143ff67096814327f4fb82260c01b61576d565b6144136713551d6d088e374460c01b61576d565b614427673de02dc483ff135760c01b61576a565b61443b677e8f1f560952d0d660c01b61576a565b8161445067ce4677e645e4b1ff60c01b61576a565b61446467b72bcb1bd0f0c15d60c01b61576a565b61447867eea223762a6bbb4d60c01b61576a565b614481816166af565b614495676c935817719a085460c01b61576a565b6144a9677ab6db6cc8b59ab460c01b61576a565b6144bd675eb1949d9bd3ad1a60c01b61576a565b6144c5616782565b6144d9673b0cdd09f6fc48a660c01b61576a565b6144ed673b8abdd229beafdb60c01b61576a565b61450167bc997f275da2434660c01b61576a565b61451567a1e668f3e1fd620860c01b61576a565b61019560009054906101000a900473ffffffffffffffffffffffffffffffffffffffff1673ffffffffffffffffffffffffffffffffffffffff16636a4140766040518163ffffffff1660e01b8152600401602060405180830381865afa158015614583573d6000803e3d6000fd5b505050506040513d601f19601f820116820180604052508101906145a79190617f35565b61019560009054906101000a900473ffffffffffffffffffffffffffffffffffffffff1673ffffffffffffffffffffffffffffffffffffffff16637b69ce2f866040518263ffffffff1660e01b8152600401614603919061785d565b602060405180830381865afa158015614620573d6000803e3d6000fd5b505050506040513d601f19601f820116820180604052508101906146449190617f35565b146147185761465d6713bd6425c940ef9b60c01b61576a565b6146716756914d5e899068f960c01b61576a565b6146856713a7e07d52199ecb60c01b61576a565b61019560009054906101000a900473ffffffffffffffffffffffffffffffffffffffff1673ffffffffffffffffffffffffffffffffffffffff166326720aa6856040518263ffffffff1660e01b81526004016146e1919061785d565b600060405180830381600087803b1580156146fb57600080fd5b505af115801561470f573d6000803e3d6000fd5b5050505061472d565b61472c67b26eb2fe08a289c660c01b61576a565b5b614741678a8192ca0f6cf06b60c01b61576a565b614755676c4eadf8c09469f160c01b61576a565b61475e836150ae565b8511156147bf57614779672ff450f02e39db6360c01b61576a565b61478d67c48bdbf8b2eac22b60c01b61576a565b6040517f1cf754b800000000000000000000000000000000000000000000000000000000815260040160405180910390fd5b6147d3674d28d5cb1efa1eb960c01b61576a565b6147e767ed71e1dd7b48ca2260c01b61576a565b6147fb679ce0e28dc4ec2be160c01b61576a565b6000614806866112bf565b905061481c6730df3ecbc9a2893d60c01b61576a565b61483067123a335ab7921dcf60c01b61576a565b61019560009054906101000a900473ffffffffffffffffffffffffffffffffffffffff1673ffffffffffffffffffffffffffffffffffffffff16633d82850b61487761590d565b87878a866040518663ffffffff1660e01b815260040161489b9594939291906187b9565b600060405180830381600087803b1580156148b557600080fd5b505af11580156148c9573d6000803e3d6000fd5b505050506148e1678424ef7884059dbd60c01b61576a565b6148f567662785d2d60ef72260c01b61576a565b809250506149016167d3565b509392505050565b600061491f679dcfadf22d9e614e60c01b61576a565b614933675429d7d50d5a68fc60c01b61576d565b614947676f8693d01162c2b960c01b61576d565b61495b6720379d2c5803565260c01b61576d565b61016260159054906101000a900460ff16156149cb5761498567edd33f43574dd9ed60c01b61576d565b61499967fe2ac4febdb0be5560c01b61576d565b6040517fc689af6e00000000000000000000000000000000000000000000000000000000815260040160405180910390fd5b6149df67096814327f4fb82260c01b61576d565b6149f36713551d6d088e374460c01b61576d565b614a07679f44e29abdcae97260c01b61576a565b614a1b67a06a809fe94e818460c01b61576a565b81614a3067ce4677e645e4b1ff60c01b61576a565b614a4467b72bcb1bd0f0c15d60c01b61576a565b614a5867eea223762a6bbb4d60c01b61576a565b614a61816166af565b614a75676c935817719a085460c01b61576a565b614a89674f4f79babda6e24c60c01b61576a565b614a9d6797e2e180cc156f6660c01b61576a565b614aa5616782565b614ab9679445296164d486f560c01b61576a565b614acd67de02a7bbf188b4ad60c01b61576a565b614ae16748b51053977cde1c60c01b61576a565b614af567cd81a9b9edf2c7b860c01b61576a565b61019560009054906101000a900473ffffffffffffffffffffffffffffffffffffffff1673ffffffffffffffffffffffffffffffffffffffff16636a4140766040518163ffffffff1660e01b8152600401602060405180830381865afa158015614b63573d6000803e3d6000fd5b505050506040513d601f19601f82011682018060405250810190614b879190617f35565b61019560009054906101000a900473ffffffffffffffffffffffffffffffffffffffff1673ffffffffffffffffffffffffffffffffffffffff16637b69ce2f866040518263ffffffff1660e01b8152600401614be3919061785d565b602060405180830381865afa158015614c00573d6000803e3d6000fd5b505050506040513d601f19601f82011682018060405250810190614c249190617f35565b14614cf857614c3d67f256ff86bead1dfa60c01b61576a565b614c51671dd28bfe87d1526e60c01b61576a565b614c65672ff78050b39f189f60c01b61576a565b61019560009054906101000a900473ffffffffffffffffffffffffffffffffffffffff1673ffffffffffffffffffffffffffffffffffffffff166326720aa6856040518263ffffffff1660e01b8152600401614cc1919061785d565b600060405180830381600087803b158015614cdb57600080fd5b505af1158015614cef573d6000803e3d6000fd5b50505050614d0d565b614d0c675ef11ffa8dc788c560c01b61576a565b5b614d21674a0eb9ec9ec80d9360c01b61576a565b614d35674e352057115dd32a60c01b61576a565b614d3e8361545e565b851115614d8b57614d59676e70cf03429949d560c01b61576a565b6040517f89e4c16300000000000000000000000000000000000000000000000000000000815260040160405180910390fd5b614d9f67d0077e86e955a97d60c01b61576a565b614db367f8cbaafa9ee1e64260c01b61576a565b614dc76774c2a8f65c7684ca60c01b61576a565b6000614dd28661240d565b9050614de867453df32b3b387c9560c01b61576a565b614dfc67f9fc4d1a8394dcd060c01b61576a565b61019560009054906101000a900473ffffffffffffffffffffffffffffffffffffffff1673ffffffffffffffffffffffffffffffffffffffff16633d82850b614e4361590d565b8787858b6040518663ffffffff1660e01b8152600401614e679594939291906187b9565b600060405180830381600087803b158015614e8157600080fd5b505af1158015614e95573d6000803e3d6000fd5b50505050614ead6759c4a1d0252d3fe260c01b61576a565b614ec167d087f89dd72f43db60c01b61576a565b80925050614ecd6167d3565b509392505050565b6000614eeb673065f71a20b5664760c01b61576a565b614eff6707f4d0153a99ee1160c01b61576a565b614f1367c29fa8e1a866378f60c01b61576a565b61019560009054906101000a900473ffffffffffffffffffffffffffffffffffffffff1673ffffffffffffffffffffffffffffffffffffffff1663728bf733836040518263ffffffff1660e01b8152600401614f6f919061785d565b602060405180830381865afa158015614f8c573d6000803e3d6000fd5b505050506040513d601f19601f82011682018060405250810190614fb09190617f35565b7fffffffffffffffffffffffffffffffffffffffffffffffffffffffffffffffff614fdb91906183a4565b9050919050565b6000614ff8671a5f994d5a8ddbf660c01b61576a565b61500c6757d2fb62ac52591f60c01b61576a565b615020675ee151307bcefc3660c01b61576a565b819050919050565b61503c67a02dbba3b23a810860c01b61576d565b615044615770565b6150586786a737c65601249360c01b61576d565b61506c67f4a9110095ea410360c01b61576d565b615080677ecbc8d0eb3fba2960c01b61576d565b61016260179054906101000a900460ff161561016260176101000a81548160ff021916908315150217905550565b60006150c46769aed35686b3eeda60c01b61576a565b6150d8673fa48ca532b14b8a60c01b61576a565b6150ec67297ba582acb94f2160c01b61576a565b61019560009054906101000a900473ffffffffffffffffffffffffffffffffffffffff1673ffffffffffffffffffffffffffffffffffffffff1663c887e8a0836040518263ffffffff1660e01b8152600401615148919061785d565b602060405180830381865afa158015615165573d6000803e3d6000fd5b505050506040513d601f19601f820116820180604052508101906151899190617f35565b9050919050565b834211156151d3576040517f08c379a00000000000000000000000000000000000000000000000000000000081526004016151ca90618858565b60405180910390fd5b60007f6e71edae12b1b97f4d1f60370fef10105fa2faae0126114a169c64845d6126c98888886152028c6167de565b8960405160200161521896959493929190618878565b604051602081830303815290604052805190602001209050600061523b8261683d565b9050600061524b82878787616857565b90508973ffffffffffffffffffffffffffffffffffffffff168173ffffffffffffffffffffffffffffffffffffffff16146152bb576040517f08c379a00000000000000000000000000000000000000000000000000000000081526004016152b290618925565b60405180910390fd5b6152c68a8a8a615915565b50505050505050505050565b6152e6677f5fb363a42a9fa360c01b61576d565b6152ee615770565b61530267782f2651a6d04a9b60c01b61576d565b6153166748f13a816ddcfaa460c01b61576d565b61532a674e5bcd9f28d2932a60c01b61576d565b600161016260146101000a81548160ff02191690831515021790555061535a6749c86fa4f422371460c01b61576d565b600161016260156101000a81548160ff02191690831515021790555061538a67dd1ece5502db15e460c01b61576d565b600161016260166101000a81548160ff0219169083151502179055506153ba6706fbe0142ebc73bc60c01b61576d565b600161016260176101000a81548160ff021916908315150217905550565b6153ec6756c6837b645bd76660c01b61576d565b6153f4615770565b61540867f7b2d3683976550d60c01b61576d565b61541c67ffc9e85adc68c69760c01b61576d565b6154306773c8e3e80e8255c460c01b61576d565b61016260149054906101000a900460ff161561016260146101000a81548160ff021916908315150217905550565b600061547467102f580f157d0cc160c01b61576a565b615488673d7a140441fa7c6560c01b61576a565b61549c67ed3fad37b68128e260c01b61576a565b61019560009054906101000a900473ffffffffffffffffffffffffffffffffffffffff1673ffffffffffffffffffffffffffffffffffffffff1663c887e8a0836040518263ffffffff1660e01b81526004016154f8919061785d565b602060405180830381865afa158015615515573d6000803e3d6000fd5b505050506040513d601f19601f820116820180604052508101906155399190617f35565b9050919050565b600060ca60008473ffffffffffffffffffffffffffffffffffffffff1673ffffffffffffffffffffffffffffffffffffffff16815260200190815260200160002060008373ffffffffffffffffffffffffffffffffffffffff1673ffffffffffffffffffffffffffffffffffffffff16815260200190815260200160002054905092915050565b6155db67f94f0cbc91a8a15660c01b61576d565b6155e3615770565b6155f767d9e4bacb959833f560c01b61576d565b61560b67f2c5f8ee8eb6035d60c01b61576d565b61561f67e7a84ed5e729cb8a60c01b61576d565b61016260159054906101000a900460ff161561016260156101000a81548160ff021916908315150217905550565b6000615663671ec10cd9ca92cb9a60c01b61576a565b615677672c034714384e5a1860c01b61576a565b61568b67dcf15e1e46e5f0fc60c01b61576a565b819050919050565b61569b615770565b600073ffffffffffffffffffffffffffffffffffffffff168173ffffffffffffffffffffffffffffffffffffffff160361570a576040517f08c379a0000000000000000000000000000000000000000000000000000000008152600401615701906189b7565b60405180910390fd5b61571381615fdd565b50565b600061572c674720e7f2004405e960c01b61576d565b615740671d6c6d5c6452620460c01b61576d565b61575467071db85758badae160c01b61576d565b61016260149054906101000a900460ff16905090565b50565b50565b61577861590d565b73ffffffffffffffffffffffffffffffffffffffff166157966135b7565b73ffffffffffffffffffffffffffffffffffffffff16146157ec576040517f08c379a00000000000000000000000000000000000000000000000000000000081526004016157e390618a23565b60405180910390fd5b565b615802678860c370cfafb90e60c01b61576a565b61581667d87e2edcfdb24b5e60c01b61576a565b61582a67d8735c475fc98cc460c01b61576a565b61019560009054906101000a900473ffffffffffffffffffffffffffffffffffffffff1673ffffffffffffffffffffffffffffffffffffffff1661586c61590d565b73ffffffffffffffffffffffffffffffffffffffff16146158e15761589b67817220fc80a3190660c01b61576a565b6158af678ea2cca80461d2c060c01b61576a565b6040517fe565d9cb00000000000000000000000000000000000000000000000000000000815260040160405180910390fd5b6158f5670dddaf6394727a4160c01b61576a565b565b60006159038383616882565b6001905092915050565b600033905090565b600073ffffffffffffffffffffffffffffffffffffffff168373ffffffffffffffffffffffffffffffffffffffff1603615984576040517f08c379a000000000000000000000000000000000000000000000000000000000815260040161597b90618ab5565b60405180910390fd5b600073ffffffffffffffffffffffffffffffffffffffff168273ffffffffffffffffffffffffffffffffffffffff16036159f3576040517f08c379a00000000000000000000000000000000000000000000000000000000081526004016159ea90618b47565b60405180910390fd5b8060ca60008573ffffffffffffffffffffffffffffffffffffffff1673ffffffffffffffffffffffffffffffffffffffff16815260200190815260200160002060008473ffffffffffffffffffffffffffffffffffffffff1673ffffffffffffffffffffffffffffffffffffffff168152602001908152602001600020819055508173ffffffffffffffffffffffffffffffffffffffff168373ffffffffffffffffffffffffffffffffffffffff167f8c5be1e5ebec7d5bd14f71427d1e84f3dd0314c0f7b2291e5b200ac8c7c3b92583604051615ad19190617515565b60405180910390a3505050565b6000615aea8383616942565b6001905092915050565b600080615aff61590d565b9050615b0c8582856169f9565b615b17858585616a85565b60019150509392505050565b6000615b2d616cfe565b905090565b6000615b607f360894a13ba1a3210667c828492db98dca3e2076cc3735a920a3ca505d382bbc60001b616d62565b60000160009054906101000a900473ffffffffffffffffffffffffffffffffffffffff16905090565b615b9d67b92fed7a3ec285d260c01b61576a565b615ba5615770565b615bb9679be038f63edc66e560c01b61576a565b615bcd6768fecbbd48f2f9ac60c01b61576a565b50565b615bfc7f4910fdfa16fed3260ed0e7147f7cc6da11a60208b5b9406d12a635614ffd914360001b616d6c565b60000160009054906101000a900460ff1615615c2057615c1b83616d76565b615d39565b8273ffffffffffffffffffffffffffffffffffffffff166352d1902d6040518163ffffffff1660e01b8152600401602060405180830381865afa925050508015615c8857506040513d601f19601f82011682018060405250810190615c859190618b7c565b60015b615cc7576040517f08c379a0000000000000000000000000000000000000000000000000000000008152600401615cbe90618c1b565b60405180910390fd5b7f360894a13ba1a3210667c828492db98dca3e2076cc3735a920a3ca505d382bbc60001b8114615d2c576040517f08c379a0000000000000000000000000000000000000000000000000000000008152600401615d2390618cad565b60405180910390fd5b50615d38838383616e2f565b5b505050565b615d5267c80a3c54477fc2cc60c01b61576a565b615d6667936b0c2c974854fb60c01b61576a565b615d7a67f5c40de94e99637960c01b61576a565b60008203615dc857615d96675aced63466008ee360c01b61576a565b6040517f7c7c872000000000000000000000000000000000000000000000000000000000815260040160405180910390fd5b615ddc67eff2900c2cd37efd60c01b61576a565b615df067465928c379c787c060c01b61576a565b615e0467d05de2e0bccda18b60c01b61576a565b615e0d81612300565b821115615e6e57615e2867a9b0906297f1dbe360c01b61576a565b615e3c67f6442f5e5322924560c01b61576a565b6040517f14a4b53500000000000000000000000000000000000000000000000000000000815260040160405180910390fd5b615e8267ca15be2fabcae6e260c01b61576a565b5050565b600073ffffffffffffffffffffffffffffffffffffffff168273ffffffffffffffffffffffffffffffffffffffff1603615ef5576040517f08c379a0000000000000000000000000000000000000000000000000000000008152600401615eec90618d19565b60405180910390fd5b615f0160008383616e5b565b8060cb6000828254615f139190618370565b925050819055508060c960008473ffffffffffffffffffffffffffffffffffffffff1673ffffffffffffffffffffffffffffffffffffffff168152602001908152602001600020600082825401925050819055508173ffffffffffffffffffffffffffffffffffffffff16600073ffffffffffffffffffffffffffffffffffffffff167fddf252ad1be2c89b69c2b068fc378daa952ba7f163c4a11628f55a4df523b3ef83604051615fc59190617515565b60405180910390a3615fd960008383616e60565b5050565b6000609760009054906101000a900473ffffffffffffffffffffffffffffffffffffffff16905081609760006101000a81548173ffffffffffffffffffffffffffffffffffffffff021916908373ffffffffffffffffffffffffffffffffffffffff1602179055508173ffffffffffffffffffffffffffffffffffffffff168173ffffffffffffffffffffffffffffffffffffffff167f8be0079c531659141344cd1fd0a4f28419497f9722a3daafe3b4186f6b6457e060405160405180910390a35050565b6000808273ffffffffffffffffffffffffffffffffffffffff163b119050919050565b600060019054906101000a900460ff16616115576040517f08c379a000000000000000000000000000000000000000000000000000000000815260040161610c90618dab565b60405180910390fd5b61611f8282616e65565b5050565b600060019054906101000a900460ff16616172576040517f08c379a000000000000000000000000000000000000000000000000000000000815260040161616990618dab565b60405180910390fd5b6161b1816040518060400160405280600181526020017f3100000000000000000000000000000000000000000000000000000000000000815250616ed8565b50565b6161c86771301f1ccc55eef660c01b61576d565b600060019054906101000a900460ff16616217576040517f08c379a000000000000000000000000000000000000000000000000000000000815260040161620e90618dab565b60405180910390fd5b61622b67550297359095dfa460c01b61576d565b61623f678832f257a562016a60c01b61576d565b6162536752b522de71585a1960c01b61576d565b8061016260006101000a81548173ffffffffffffffffffffffffffffffffffffffff021916908373ffffffffffffffffffffffffffffffffffffffff16021790555050565b600060019054906101000a900460ff166162e7576040517f08c379a00000000000000000000000000000000000000000000000000000000081526004016162de90618dab565b60405180910390fd5b6162ef616f5f565b565b600060019054906101000a900460ff16616340576040517f08c379a000000000000000000000000000000000000000000000000000000000815260040161633790618dab565b60405180910390fd5b565b600081600001549050919050565b606060fd805461635f90617fba565b80601f016020809104026020016040519081016040528092919081815260200182805461638b90617fba565b80156163d85780601f106163ad576101008083540402835291602001916163d8565b820191906000526020600020905b8154815290600101906020018083116163bb57829003601f168201915b5050505050905090565b606060fe80546163f190617fba565b80601f016020809104026020016040519081016040528092919081815260200182805461641d90617fba565b801561646a5780601f1061643f5761010080835404028352916020019161646a565b820191906000526020600020905b81548152906001019060200180831161644d57829003601f168201915b5050505050905090565b600060c960008373ffffffffffffffffffffffffffffffffffffffff1673ffffffffffffffffffffffffffffffffffffffff168152602001908152602001600020549050919050565b600073ffffffffffffffffffffffffffffffffffffffff168273ffffffffffffffffffffffffffffffffffffffff160361652c576040517f08c379a000000000000000000000000000000000000000000000000000000000815260040161652390618e3d565b60405180910390fd5b61653882600083616e5b565b600060c960008473ffffffffffffffffffffffffffffffffffffffff1673ffffffffffffffffffffffffffffffffffffffff168152602001908152602001600020549050818110156165bf576040517f08c379a00000000000000000000000000000000000000000000000000000000081526004016165b690618ecf565b60405180910390fd5b81810360c960008573ffffffffffffffffffffffffffffffffffffffff1673ffffffffffffffffffffffffffffffffffffffff168152602001908152602001600020819055508160cb60008282540392505081905550600073ffffffffffffffffffffffffffffffffffffffff168373ffffffffffffffffffffffffffffffffffffffff167fddf252ad1be2c89b69c2b068fc378daa952ba7f163c4a11628f55a4df523b3ef846040516166739190617515565b60405180910390a361668783600084616e60565b505050565b60008061669761590d565b90506166a4818585616a85565b600191505092915050565b6166c36738ee87168fc5c51d60c01b61576a565b6166d767d4f78c76df1fa51060c01b61576a565b6166eb6729e822d2de2d4d4560c01b61576a565b6166f361590d565b73ffffffffffffffffffffffffffffffffffffffff168173ffffffffffffffffffffffffffffffffffffffff161461676b5761673967a053aee867ad407460c01b61576a565b6040517f7a45e68500000000000000000000000000000000000000000000000000000000815260040160405180910390fd5b61677f6738f2de779153e89460c01b61576a565b50565b600261016354036167c8576040517f08c379a00000000000000000000000000000000000000000000000000000000081526004016167bf90618f3b565b60405180910390fd5b600261016381905550565b600161016381905550565b60008061012f60008473ffffffffffffffffffffffffffffffffffffffff1673ffffffffffffffffffffffffffffffffffffffff168152602001908152602001600020905061682c81616342565b915061683781616fc0565b50919050565b600061685061684a615b23565b83616fd6565b9050919050565b600080600061686887878787617017565b91509150616875816170f9565b8192505050949350505050565b600073ffffffffffffffffffffffffffffffffffffffff168273ffffffffffffffffffffffffffffffffffffffff16036168f1576040517f08c379a00000000000000000000000000000000000000000000000000000000081526004016168e890618fa7565b60405180910390fd5b8060c960008473ffffffffffffffffffffffffffffffffffffffff1673ffffffffffffffffffffffffffffffffffffffff168152602001908152602001600020600082825401925050819055505050565b600073ffffffffffffffffffffffffffffffffffffffff168273ffffffffffffffffffffffffffffffffffffffff16036169b1576040517f08c379a00000000000000000000000000000000000000000000000000000000081526004016169a890619013565b60405180910390fd5b8060c960008473ffffffffffffffffffffffffffffffffffffffff1673ffffffffffffffffffffffffffffffffffffffff168152602001908152602001600020819055505050565b6000616a058484615540565b90507fffffffffffffffffffffffffffffffffffffffffffffffffffffffffffffffff8114616a7f5781811015616a71576040517f08c379a0000000000000000000000000000000000000000000000000000000008152600401616a689061907f565b60405180910390fd5b616a7e8484848403615915565b5b50505050565b600073ffffffffffffffffffffffffffffffffffffffff168373ffffffffffffffffffffffffffffffffffffffff1603616af4576040517f08c379a0000000000000000000000000000000000000000000000000000000008152600401616aeb90619111565b60405180910390fd5b600073ffffffffffffffffffffffffffffffffffffffff168273ffffffffffffffffffffffffffffffffffffffff1603616b63576040517f08c379a0000000000000000000000000000000000000000000000000000000008152600401616b5a906191a3565b60405180910390fd5b616b6e838383616e5b565b600060c960008573ffffffffffffffffffffffffffffffffffffffff1673ffffffffffffffffffffffffffffffffffffffff16815260200190815260200160002054905081811015616bf5576040517f08c379a0000000000000000000000000000000000000000000000000000000008152600401616bec90619235565b60405180910390fd5b81810360c960008673ffffffffffffffffffffffffffffffffffffffff1673ffffffffffffffffffffffffffffffffffffffff168152602001908152602001600020819055508160c960008573ffffffffffffffffffffffffffffffffffffffff1673ffffffffffffffffffffffffffffffffffffffff168152602001908152602001600020600082825401925050819055508273ffffffffffffffffffffffffffffffffffffffff168473ffffffffffffffffffffffffffffffffffffffff167fddf252ad1be2c89b69c2b068fc378daa952ba7f163c4a11628f55a4df523b3ef84604051616ce59190617515565b60405180910390a3616cf8848484616e60565b50505050565b60007f8b73c3c69bb8fe3d512ecc4cf759cc79239f7b179b0ffacaa9a75d522b39400f616d2961725f565b616d316172ca565b4630604051602001616d47959493929190619255565b60405160208183030381529060405280519060200120905090565b6000819050919050565b6000819050919050565b616d7f816160a3565b616dbe576040517f08c379a0000000000000000000000000000000000000000000000000000000008152600401616db59061931a565b60405180910390fd5b80616deb7f360894a13ba1a3210667c828492db98dca3e2076cc3735a920a3ca505d382bbc60001b616d62565b60000160006101000a81548173ffffffffffffffffffffffffffffffffffffffff021916908373ffffffffffffffffffffffffffffffffffffffff16021790555050565b616e3883617335565b600082511180616e455750805b15616e5657616e548383617384565b505b505050565b505050565b505050565b600060019054906101000a900460ff16616eb4576040517f08c379a0000000000000000000000000000000000000000000000000000000008152600401616eab90618dab565b60405180910390fd5b8160cc9081616ec391906194dc565b508060cd9081616ed391906194dc565b505050565b600060019054906101000a900460ff16616f27576040517f08c379a0000000000000000000000000000000000000000000000000000000008152600401616f1e90618dab565b60405180910390fd5b8160fd9081616f3691906194dc565b508060fe9081616f4691906194dc565b506000801b60fb819055506000801b60fc819055505050565b600060019054906101000a900460ff16616fae576040517f08c379a0000000000000000000000000000000000000000000000000000000008152600401616fa590618dab565b60405180910390fd5b616fbe616fb961590d565b615fdd565b565b6001816000016000828254019250508190555050565b60006040517f190100000000000000000000000000000000000000000000000000000000000081528360028201528260228201526042812091505092915050565b6000807f7fffffffffffffffffffffffffffffff5d576e7357a4501ddfe92f46681b20a08360001c11156170525760006003915091506170f0565b60006001878787876040516000815260200160405260405161707794939291906195ae565b6020604051602081039080840390855afa158015617099573d6000803e3d6000fd5b505050602060405103519050600073ffffffffffffffffffffffffffffffffffffffff168173ffffffffffffffffffffffffffffffffffffffff16036170e7576000600192509250506170f0565b80600092509250505b94509492505050565b6000600481111561710d5761710c6195f3565b5b8160048111156171205761711f6195f3565b5b031561725c576001600481111561713a576171396195f3565b5b81600481111561714d5761714c6195f3565b5b0361718d576040517f08c379a00000000000000000000000000000000000000000000000000000000081526004016171849061966e565b60405180910390fd5b600260048111156171a1576171a06195f3565b5b8160048111156171b4576171b36195f3565b5b036171f4576040517f08c379a00000000000000000000000000000000000000000000000000000000081526004016171eb906196da565b60405180910390fd5b60036004811115617208576172076195f3565b5b81600481111561721b5761721a6195f3565b5b0361725b576040517f08c379a00000000000000000000000000000000000000000000000000000000081526004016172529061976c565b60405180910390fd5b5b50565b60008061726a616350565b90506000815111156172865780805190602001209150506172c7565b600060fb5490506000801b81146172a15780925050506172c7565b7fc5d2460186f7233c927e7db2dcc703c0e500b653ca82273b7bfad8045d85a470925050505b90565b6000806172d56163e2565b90506000815111156172f1578080519060200120915050617332565b600060fc5490506000801b811461730c578092505050617332565b7fc5d2460186f7233c927e7db2dcc703c0e500b653ca82273b7bfad8045d85a470925050505b90565b61733e81616d76565b8073ffffffffffffffffffffffffffffffffffffffff167fbc7cd75a20ee27fd9adebab32041f755214dbc6bffa90cc0225b39da2e5c2d3b60405160405180910390a250565b60606173a98383604051806060016040528060278152602001619857602791396173b1565b905092915050565b60606000808573ffffffffffffffffffffffffffffffffffffffff16856040516173db91906197d3565b600060405180830381855af49150503d8060008114617416576040519150601f19603f3d011682016040523d82523d6000602084013e61741b565b606091505b509150915061742c86838387617437565b925050509392505050565b6060831561749957600083510361749157617451856160a3565b617490576040517f08c379a000000000000000000000000000000000000000000000000000000000815260040161748790619836565b60405180910390fd5b5b8290506174a4565b6174a383836174ac565b5b949350505050565b6000825111156174bf5781518083602001fd5b806040517f08c379a00000000000000000000000000000000000000000000000000000000081526004016174f3919061769e565b60405180910390fd5b6000819050919050565b61750f816174fc565b82525050565b600060208201905061752a6000830184617506565b92915050565b6000604051905090565b600080fd5b600080fd5b600073ffffffffffffffffffffffffffffffffffffffff82169050919050565b600061756f82617544565b9050919050565b61757f81617564565b811461758a57600080fd5b50565b60008135905061759c81617576565b92915050565b6175ab816174fc565b81146175b657600080fd5b50565b6000813590506175c8816175a2565b92915050565b600080604083850312156175e5576175e461753a565b5b60006175f38582860161758d565b9250506020617604858286016175b9565b9150509250929050565b600081519050919050565b600082825260208201905092915050565b60005b8381101561764857808201518184015260208101905061762d565b60008484015250505050565b6000601f19601f8301169050919050565b60006176708261760e565b61767a8185617619565b935061768a81856020860161762a565b61769381617654565b840191505092915050565b600060208201905081810360008301526176b88184617665565b905092915050565b6000602082840312156176d6576176d561753a565b5b60006176e4848285016175b9565b91505092915050565b60008115159050919050565b617702816176ed565b82525050565b600060208201905061771d60008301846176f9565b92915050565b60008060006060848603121561773c5761773b61753a565b5b600061774a8682870161758d565b935050602061775b8682870161758d565b925050604061776c868287016175b9565b9150509250925092565b60006020828403121561778c5761778b61753a565b5b600061779a8482850161758d565b91505092915050565b600060ff82169050919050565b6177b9816177a3565b82525050565b60006020820190506177d460008301846177b0565b92915050565b600080604083850312156177f1576177f061753a565b5b60006177ff8582860161758d565b92505060206178108582860161758d565b9150509250929050565b6000819050919050565b61782d8161781a565b82525050565b60006020820190506178486000830184617824565b92915050565b61785781617564565b82525050565b6000602082019050617872600083018461784e565b92915050565b600080fd5b600080fd5b7f4e487b7100000000000000000000000000000000000000000000000000000000600052604160045260246000fd5b6178ba82617654565b810181811067ffffffffffffffff821117156178d9576178d8617882565b5b80604052505050565b60006178ec617530565b90506178f882826178b1565b919050565b600067ffffffffffffffff82111561791857617917617882565b5b61792182617654565b9050602081019050919050565b82818337600083830152505050565b600061795061794b846178fd565b6178e2565b90508281526020810184848401111561796c5761796b61787d565b5b61797784828561792e565b509392505050565b600082601f83011261799457617993617878565b5b81356179a484826020860161793d565b91505092915050565b600080604083850312156179c4576179c361753a565b5b60006179d28582860161758d565b925050602083013567ffffffffffffffff8111156179f3576179f261753f565b5b6179ff8582860161797f565b9150509250929050565b617a12816177a3565b8114617a1d57600080fd5b50565b600081359050617a2f81617a09565b92915050565b617a3e8161781a565b8114617a4957600080fd5b50565b600081359050617a5b81617a35565b92915050565b60008060008060008060c08789031215617a7e57617a7d61753a565b5b6000617a8c89828a016175b9565b9650506020617a9d89828a0161758d565b9550506040617aae89828a016175b9565b9450506060617abf89828a01617a20565b9350506080617ad089828a01617a4c565b92505060a0617ae189828a01617a4c565b9150509295509295509295565b60008060408385031215617b0557617b0461753a565b5b6000617b13858286016175b9565b9250506020617b248582860161758d565b9150509250929050565b600067ffffffffffffffff821115617b4957617b48617882565b5b617b5282617654565b9050602081019050919050565b6000617b72617b6d84617b2e565b6178e2565b905082815260208101848484011115617b8e57617b8d61787d565b5b617b9984828561792e565b509392505050565b600082601f830112617bb657617bb5617878565b5b8135617bc6848260208601617b5f565b91505092915050565b617bd8816176ed565b8114617be357600080fd5b50565b600081359050617bf581617bcf565b92915050565b600080600080600060a08688031215617c1757617c1661753a565b5b600086013567ffffffffffffffff811115617c3557617c3461753f565b5b617c4188828901617ba1565b955050602086013567ffffffffffffffff811115617c6257617c6161753f565b5b617c6e88828901617ba1565b9450506040617c7f8882890161758d565b9350506060617c908882890161758d565b9250506080617ca188828901617be6565b9150509295509295909350565b60007fff0000000000000000000000000000000000000000000000000000000000000082169050919050565b617ce381617cae565b82525050565b600081519050919050565b600082825260208201905092915050565b6000819050602082019050919050565b617d1e816174fc565b82525050565b6000617d308383617d15565b60208301905092915050565b6000602082019050919050565b6000617d5482617ce9565b617d5e8185617cf4565b9350617d6983617d05565b8060005b83811015617d9a578151617d818882617d24565b9750617d8c83617d3c565b925050600181019050617d6d565b5085935050505092915050565b600060e082019050617dbc600083018a617cda565b8181036020830152617dce8189617665565b90508181036040830152617de28188617665565b9050617df16060830187617506565b617dfe608083018661784e565b617e0b60a0830185617824565b81810360c0830152617e1d8184617d49565b905098975050505050505050565b600080600060608486031215617e4457617e4361753a565b5b6000617e52868287016175b9565b9350506020617e638682870161758d565b9250506040617e748682870161758d565b9150509250925092565b600080600080600080600060e0888a031215617e9d57617e9c61753a565b5b6000617eab8a828b0161758d565b9750506020617ebc8a828b0161758d565b9650506040617ecd8a828b016175b9565b9550506060617ede8a828b016175b9565b9450506080617eef8a828b01617a20565b93505060a0617f008a828b01617a4c565b92505060c0617f118a828b01617a4c565b91505092959891949750929550565b600081519050617f2f816175a2565b92915050565b600060208284031215617f4b57617f4a61753a565b5b6000617f5984828501617f20565b91505092915050565b6000604082019050617f7760008301856176f9565b617f846020830184617506565b9392505050565b7f4e487b7100000000000000000000000000000000000000000000000000000000600052602260045260246000fd5b60006002820490506001821680617fd257607f821691505b602082108103617fe557617fe4617f8b565b5b50919050565b600060608201905061800060008301866176f9565b61800d602083018561784e565b61801a6040830184617506565b949350505050565b60008151905061803181617bcf565b92915050565b60006020828403121561804d5761804c61753a565b5b600061805b84828501618022565b91505092915050565b6000604082019050618079600083018561784e565b618086602083018461784e565b9392505050565b600067ffffffffffffffff8211156180a8576180a7617882565b5b602082029050919050565b600080fd5b60006180cb6180c68461808d565b6178e2565b905080602084028301858111156180e5576180e46180b3565b5b835b8181101561810e57806180fa8882617f20565b8452602084019350506020810190506180e7565b5050509392505050565b600082601f83011261812d5761812c617878565b5b600461813a8482856180b8565b91505092915050565b6000608082840312156181595761815861753a565b5b600061816784828501618118565b91505092915050565b7f4e487b7100000000000000000000000000000000000000000000000000000000600052603260045260246000fd5b6000610100820190506181b5600083018b61784e565b6181c2602083018a61784e565b6181cf60408301896176f9565b6181dc6060830188617506565b6181e96080830187617506565b6181f660a0830186617506565b61820360c0830185617506565b61821060e0830184617506565b9998505050505050505050565b7f46756e6374696f6e206d7573742062652063616c6c6564207468726f7567682060008201527f64656c656761746563616c6c0000000000000000000000000000000000000000602082015250565b6000618279602c83617619565b91506182848261821d565b604082019050919050565b600060208201905081810360008301526182a88161826c565b9050919050565b7f46756e6374696f6e206d7573742062652063616c6c6564207468726f7567682060008201527f6163746976652070726f78790000000000000000000000000000000000000000602082015250565b600061830b602c83617619565b9150618316826182af565b604082019050919050565b6000602082019050818103600083015261833a816182fe565b9050919050565b7f4e487b7100000000000000000000000000000000000000000000000000000000600052601160045260246000fd5b600061837b826174fc565b9150618386836174fc565b925082820190508082111561839e5761839d618341565b5b92915050565b60006183af826174fc565b91506183ba836174fc565b92508282039050818111156183d2576183d1618341565b5b92915050565b600060e0820190506183ed600083018a61784e565b6183fa602083018961784e565b6184076040830188617506565b6184146060830187617506565b61842160808301866177b0565b61842e60a0830185617824565b61843b60c0830184617824565b98975050505050505050565b600060808201905061845c600083018761784e565b618469602083018661784e565b6184766040830185617506565b6184836060830184617506565b95945050505050565b7f555550535570677261646561626c653a206d757374206e6f742062652063616c60008201527f6c6564207468726f7567682064656c656761746563616c6c0000000000000000602082015250565b60006184e8603883617619565b91506184f38261848c565b604082019050919050565b60006020820190508181036000830152618517816184db565b9050919050565b600080604083850312156185355761853461753a565b5b600061854385828601617f20565b925050602061855485828601617f20565b9150509250929050565b7f496e697469616c697a61626c653a20636f6e747261637420697320616c72656160008201527f647920696e697469616c697a6564000000000000000000000000000000000000602082015250565b60006185ba602e83617619565b91506185c58261855e565b604082019050919050565b600060208201905081810360008301526185e9816185ad565b9050919050565b60006185fb82617564565b9050919050565b61860b816185f0565b811461861657600080fd5b50565b60008151905061862881618602565b92915050565b6000602082840312156186445761864361753a565b5b600061865284828501618619565b91505092915050565b6000819050919050565b6000819050919050565b600061868a6186856186808461865b565b618665565b6177a3565b9050919050565b61869a8161866f565b82525050565b60006020820190506186b56000830184618691565b92915050565b7f4549503731323a20556e696e697469616c697a65640000000000000000000000600082015250565b60006186f1601583617619565b91506186fc826186bb565b602082019050919050565b60006020820190508181036000830152618720816186e4565b9050919050565b7f45524332303a2064656372656173656420616c6c6f77616e63652062656c6f7760008201527f207a65726f000000000000000000000000000000000000000000000000000000602082015250565b6000618783602583617619565b915061878e82618727565b604082019050919050565b600060208201905081810360008301526187b281618776565b9050919050565b600060a0820190506187ce600083018861784e565b6187db602083018761784e565b6187e8604083018661784e565b6187f56060830185617506565b6188026080830184617506565b9695505050505050565b7f45524332305065726d69743a206578706972656420646561646c696e65000000600082015250565b6000618842601d83617619565b915061884d8261880c565b602082019050919050565b6000602082019050818103600083015261887181618835565b9050919050565b600060c08201905061888d6000830189617824565b61889a602083018861784e565b6188a7604083018761784e565b6188b46060830186617506565b6188c16080830185617506565b6188ce60a0830184617506565b979650505050505050565b7f45524332305065726d69743a20696e76616c6964207369676e61747572650000600082015250565b600061890f601e83617619565b915061891a826188d9565b602082019050919050565b6000602082019050818103600083015261893e81618902565b9050919050565b7f4f776e61626c653a206e6577206f776e657220697320746865207a65726f206160008201527f6464726573730000000000000000000000000000000000000000000000000000602082015250565b60006189a1602683617619565b91506189ac82618945565b604082019050919050565b600060208201905081810360008301526189d081618994565b9050919050565b7f4f776e61626c653a2063616c6c6572206973206e6f7420746865206f776e6572600082015250565b6000618a0d602083617619565b9150618a18826189d7565b602082019050919050565b60006020820190508181036000830152618a3c81618a00565b9050919050565b7f45524332303a20617070726f76652066726f6d20746865207a65726f2061646460008201527f7265737300000000000000000000000000000000000000000000000000000000602082015250565b6000618a9f602483617619565b9150618aaa82618a43565b604082019050919050565b60006020820190508181036000830152618ace81618a92565b9050919050565b7f45524332303a20617070726f766520746f20746865207a65726f20616464726560008201527f7373000000000000000000000000000000000000000000000000000000000000602082015250565b6000618b31602283617619565b9150618b3c82618ad5565b604082019050919050565b60006020820190508181036000830152618b6081618b24565b9050919050565b600081519050618b7681617a35565b92915050565b600060208284031215618b9257618b9161753a565b5b6000618ba084828501618b67565b91505092915050565b7f45524331393637557067726164653a206e657720696d706c656d656e7461746960008201527f6f6e206973206e6f742055555053000000000000000000000000000000000000602082015250565b6000618c05602e83617619565b9150618c1082618ba9565b604082019050919050565b60006020820190508181036000830152618c3481618bf8565b9050919050565b7f45524331393637557067726164653a20756e737570706f727465642070726f7860008201527f6961626c65555549440000000000000000000000000000000000000000000000602082015250565b6000618c97602983617619565b9150618ca282618c3b565b604082019050919050565b60006020820190508181036000830152618cc681618c8a565b9050919050565b7f45524332303a206d696e7420746f20746865207a65726f206164647265737300600082015250565b6000618d03601f83617619565b9150618d0e82618ccd565b602082019050919050565b60006020820190508181036000830152618d3281618cf6565b9050919050565b7f496e697469616c697a61626c653a20636f6e7472616374206973206e6f74206960008201527f6e697469616c697a696e67000000000000000000000000000000000000000000602082015250565b6000618d95602b83617619565b9150618da082618d39565b604082019050919050565b60006020820190508181036000830152618dc481618d88565b9050919050565b7f45524332303a206275726e2066726f6d20746865207a65726f2061646472657360008201527f7300000000000000000000000000000000000000000000000000000000000000602082015250565b6000618e27602183617619565b9150618e3282618dcb565b604082019050919050565b60006020820190508181036000830152618e5681618e1a565b9050919050565b7f45524332303a206275726e20616d6f756e7420657863656564732062616c616e60008201527f6365000000000000000000000000000000000000000000000000000000000000602082015250565b6000618eb9602283617619565b9150618ec482618e5d565b604082019050919050565b60006020820190508181036000830152618ee881618eac565b9050919050565b7f5265656e7472616e637947756172643a207265656e7472616e742063616c6c00600082015250565b6000618f25601f83617619565b9150618f3082618eef565b602082019050919050565b60006020820190508181036000830152618f5481618f18565b9050919050565b7f54726561737572792063616e6e6f74206265207a65726f206164647200000000600082015250565b6000618f91601c83617619565b9150618f9c82618f5b565b602082019050919050565b60006020820190508181036000830152618fc081618f84565b9050919050565b7f416464726573732063616e6e6f74206265207a65726f20616464720000000000600082015250565b6000618ffd601b83617619565b915061900882618fc7565b602082019050919050565b6000602082019050818103600083015261902c81618ff0565b9050919050565b7f45524332303a20696e73756666696369656e7420616c6c6f77616e6365000000600082015250565b6000619069601d83617619565b915061907482619033565b602082019050919050565b600060208201905081810360008301526190988161905c565b9050919050565b7f45524332303a207472616e736665722066726f6d20746865207a65726f20616460008201527f6472657373000000000000000000000000000000000000000000000000000000602082015250565b60006190fb602583617619565b91506191068261909f565b604082019050919050565b6000602082019050818103600083015261912a816190ee565b9050919050565b7f45524332303a207472616e7366657220746f20746865207a65726f206164647260008201527f6573730000000000000000000000000000000000000000000000000000000000602082015250565b600061918d602383617619565b915061919882619131565b604082019050919050565b600060208201905081810360008301526191bc81619180565b9050919050565b7f45524332303a207472616e7366657220616d6f756e742065786365656473206260008201527f616c616e63650000000000000000000000000000000000000000000000000000602082015250565b600061921f602683617619565b915061922a826191c3565b604082019050919050565b6000602082019050818103600083015261924e81619212565b9050919050565b600060a08201905061926a6000830188617824565b6192776020830187617824565b6192846040830186617824565b6192916060830185617506565b61929e608083018461784e565b9695505050505050565b7f455243313936373a206e657720696d706c656d656e746174696f6e206973206e60008201527f6f74206120636f6e747261637400000000000000000000000000000000000000602082015250565b6000619304602d83617619565b915061930f826192a8565b604082019050919050565b60006020820190508181036000830152619333816192f7565b9050919050565b60008190508160005260206000209050919050565b60006020601f8301049050919050565b600082821b905092915050565b60006008830261939c7fffffffffffffffffffffffffffffffffffffffffffffffffffffffffffffffff8261935f565b6193a6868361935f565b95508019841693508086168417925050509392505050565b60006193d96193d46193cf846174fc565b618665565b6174fc565b9050919050565b6000819050919050565b6193f3836193be565b6194076193ff826193e0565b84845461936c565b825550505050565b600090565b61941c61940f565b6194278184846193ea565b505050565b5b8181101561944b57619440600082619414565b60018101905061942d565b5050565b601f821115619490576194618161933a565b61946a8461934f565b81016020851015619479578190505b61948d6194858561934f565b83018261942c565b50505b505050565b600082821c905092915050565b60006194b360001984600802619495565b1980831691505092915050565b60006194cc83836194a2565b9150826002028217905092915050565b6194e58261760e565b67ffffffffffffffff8111156194fe576194fd617882565b5b6195088254617fba565b61951382828561944f565b600060209050601f8311600181146195465760008415619534578287015190505b61953e85826194c0565b8655506195a6565b601f1984166195548661933a565b60005b8281101561957c57848901518255600182019150602085019450602081019050619557565b868310156195995784890151619595601f8916826194a2565b8355505b6001600288020188555050505b505050505050565b60006080820190506195c36000830187617824565b6195d060208301866177b0565b6195dd6040830185617824565b6195ea6060830184617824565b95945050505050565b7f4e487b7100000000000000000000000000000000000000000000000000000000600052602160045260246000fd5b7f45434453413a20696e76616c6964207369676e61747572650000000000000000600082015250565b6000619658601883617619565b915061966382619622565b602082019050919050565b600060208201905081810360008301526196878161964b565b9050919050565b7f45434453413a20696e76616c6964207369676e6174757265206c656e67746800600082015250565b60006196c4601f83617619565b91506196cf8261968e565b602082019050919050565b600060208201905081810360008301526196f3816196b7565b9050919050565b7f45434453413a20696e76616c6964207369676e6174757265202773272076616c60008201527f7565000000000000000000000000000000000000000000000000000000000000602082015250565b6000619756602283617619565b9150619761826196fa565b604082019050919050565b6000602082019050818103600083015261978581619749565b9050919050565b600081519050919050565b600081905092915050565b60006197ad8261978c565b6197b78185619797565b93506197c781856020860161762a565b80840191505092915050565b60006197df82846197a2565b915081905092915050565b7f416464726573733a2063616c6c20746f206e6f6e2d636f6e7472616374000000600082015250565b6000619820601d83617619565b915061982b826197ea565b602082019050919050565b6000602082019050818103600083015261984f81619813565b905091905056fe416464726573733a206c6f772d6c6576656c2064656c65676174652063616c6c206661696c6564a2646970667358221220e2c3c29bf99994656ffa9b80e643214a10a90cb711eebef3f01509adf61b5c1e64736f6c63430008110033",
  "linkReferences": {},
  "deployedLinkReferences": {}
}