{
  "abi": [
    {
      "inputs": [
        {
          "internalType": "contract IERC20",
          "name": "baseTokenAddress",
          "type": "address"
        },
        {
          "internalType": "address",
          "name": "priceFeedAddress",
          "type": "address"
        },
        {
          "internalType": "uint256",
          "name": "rebaseInterval",
          "type": "uint256"
        }
      ],
      "stateMutability": "nonpayable",
      "type": "constructor"
    },
    {
      "inputs": [],
      "name": "TokenFactory__DepositMoreThanMax",
      "type": "error"
    },
    {
      "inputs": [],
      "name": "TokenFactory__MethodNotAllowed",
      "type": "error"
    },
    {
      "inputs": [],
      "name": "TokenFactory__MintMoreThanMax",
      "type": "error"
    },
    {
      "inputs": [],
      "name": "TokenFactory__OnlyAssetOwner",
      "type": "error"
    },
    {
      "inputs": [],
      "name": "TokenFactory__RedeemMoreThanMax",
      "type": "error"
    },
    {
      "inputs": [],
      "name": "TokenFactory__WithdrawMoreThanMax",
      "type": "error"
    },
    {
      "inputs": [],
      "name": "TokenFactory__ZeroDeposit",
      "type": "error"
    },
    {
      "anonymous": false,
      "inputs": [
        {
          "indexed": true,
          "internalType": "address",
          "name": "owner",
          "type": "address"
        },
        {
          "indexed": true,
          "internalType": "address",
          "name": "spender",
          "type": "address"
        },
        {
          "indexed": false,
          "internalType": "uint256",
          "name": "value",
          "type": "uint256"
        }
      ],
      "name": "Approval",
      "type": "event"
    },
    {
      "anonymous": false,
      "inputs": [
        {
          "indexed": true,
          "internalType": "address",
          "name": "sender",
          "type": "address"
        },
        {
          "indexed": true,
          "internalType": "address",
          "name": "owner",
          "type": "address"
        },
        {
          "indexed": false,
          "internalType": "uint256",
          "name": "assets",
          "type": "uint256"
        },
        {
          "indexed": false,
          "internalType": "uint256",
          "name": "shares",
          "type": "uint256"
        }
      ],
      "name": "Deposit",
      "type": "event"
    },
    {
      "anonymous": false,
      "inputs": [
        {
          "indexed": true,
          "internalType": "address",
          "name": "previousOwner",
          "type": "address"
        },
        {
          "indexed": true,
          "internalType": "address",
          "name": "newOwner",
          "type": "address"
        }
      ],
      "name": "OwnershipTransferred",
      "type": "event"
    },
    {
      "anonymous": false,
      "inputs": [
        {
          "indexed": false,
          "internalType": "uint256",
          "name": "rebaseCount",
          "type": "uint256"
        }
      ],
      "name": "Rebase",
      "type": "event"
    },
    {
      "anonymous": false,
      "inputs": [
        {
          "indexed": false,
          "internalType": "address",
          "name": "userAddress",
          "type": "address"
        },
        {
          "indexed": false,
          "internalType": "uint256",
          "name": "rebaseCount",
          "type": "uint256"
        }
      ],
      "name": "RebaseApplied",
      "type": "event"
    },
    {
      "anonymous": false,
      "inputs": [
        {
          "indexed": true,
          "internalType": "address",
          "name": "from",
          "type": "address"
        },
        {
          "indexed": true,
          "internalType": "address",
          "name": "to",
          "type": "address"
        },
        {
          "indexed": false,
          "internalType": "uint256",
          "name": "value",
          "type": "uint256"
        }
      ],
      "name": "Transfer",
      "type": "event"
    },
    {
      "anonymous": false,
      "inputs": [
        {
          "indexed": true,
          "internalType": "address",
          "name": "sender",
          "type": "address"
        },
        {
          "indexed": true,
          "internalType": "address",
          "name": "receiver",
          "type": "address"
        },
        {
          "indexed": true,
          "internalType": "address",
          "name": "owner",
          "type": "address"
        },
        {
          "indexed": false,
          "internalType": "uint256",
          "name": "assets",
          "type": "uint256"
        },
        {
          "indexed": false,
          "internalType": "uint256",
          "name": "shares",
          "type": "uint256"
        }
      ],
      "name": "Withdraw",
      "type": "event"
    },
    {
      "inputs": [
        {
          "internalType": "address",
          "name": "owner",
          "type": "address"
        },
        {
          "internalType": "address",
          "name": "spender",
          "type": "address"
        }
      ],
      "name": "allowance",
      "outputs": [
        {
          "internalType": "uint256",
          "name": "",
          "type": "uint256"
        }
      ],
      "stateMutability": "view",
      "type": "function"
    },
    {
      "inputs": [
        {
          "internalType": "address",
          "name": "owner_",
          "type": "address"
        }
      ],
      "name": "applyRebase",
      "outputs": [],
      "stateMutability": "nonpayable",
      "type": "function"
    },
    {
      "inputs": [
        {
          "internalType": "address",
          "name": "",
          "type": "address"
        },
        {
          "internalType": "uint256",
          "name": "",
          "type": "uint256"
        }
      ],
      "name": "approve",
      "outputs": [
        {
          "internalType": "bool",
          "name": "",
          "type": "bool"
        }
      ],
      "stateMutability": "nonpayable",
      "type": "function"
    },
    {
      "inputs": [],
      "name": "asset",
      "outputs": [
        {
          "internalType": "address",
          "name": "",
          "type": "address"
        }
      ],
      "stateMutability": "view",
      "type": "function"
    },
    {
      "inputs": [
        {
          "internalType": "address",
          "name": "",
          "type": "address"
        }
      ],
      "name": "balanceOf",
      "outputs": [
        {
          "internalType": "uint256",
          "name": "",
          "type": "uint256"
        }
      ],
      "stateMutability": "view",
      "type": "function"
    },
    {
      "inputs": [
        {
          "internalType": "address",
          "name": "owner_",
          "type": "address"
        }
      ],
      "name": "calculateRollOverValue",
      "outputs": [
        {
          "internalType": "uint256",
          "name": "",
          "type": "uint256"
        }
      ],
      "stateMutability": "view",
      "type": "function"
    },
    {
      "inputs": [
        {
          "internalType": "uint256",
          "name": "shares",
          "type": "uint256"
        }
      ],
      "name": "convertToAssets",
      "outputs": [
        {
          "internalType": "uint256",
          "name": "assets",
          "type": "uint256"
        }
      ],
      "stateMutability": "view",
      "type": "function"
    },
    {
      "inputs": [
        {
          "internalType": "uint256",
          "name": "assets",
          "type": "uint256"
        }
      ],
      "name": "convertToShares",
      "outputs": [
        {
          "internalType": "uint256",
          "name": "shares",
          "type": "uint256"
        }
      ],
      "stateMutability": "view",
      "type": "function"
    },
    {
      "inputs": [],
      "name": "decimals",
      "outputs": [
        {
          "internalType": "uint8",
          "name": "",
          "type": "uint8"
        }
      ],
      "stateMutability": "view",
      "type": "function"
    },
    {
      "inputs": [
        {
          "internalType": "address",
          "name": "spender",
          "type": "address"
        },
        {
          "internalType": "uint256",
          "name": "subtractedValue",
          "type": "uint256"
        }
      ],
      "name": "decreaseAllowance",
      "outputs": [
        {
          "internalType": "bool",
          "name": "",
          "type": "bool"
        }
      ],
      "stateMutability": "nonpayable",
      "type": "function"
    },
    {
      "inputs": [
        {
          "internalType": "uint256",
          "name": "assets",
          "type": "uint256"
        },
        {
          "internalType": "address",
          "name": "receiver",
          "type": "address"
        }
      ],
      "name": "deposit",
      "outputs": [
        {
          "internalType": "uint256",
          "name": "",
          "type": "uint256"
        }
      ],
      "stateMutability": "nonpayable",
      "type": "function"
    },
    {
      "inputs": [
        {
          "internalType": "uint256",
          "name": "index",
          "type": "uint256"
        }
      ],
      "name": "getDevTokenAddress",
      "outputs": [
        {
          "internalType": "contract DevToken",
          "name": "",
          "type": "address"
        }
      ],
      "stateMutability": "view",
      "type": "function"
    },
    {
      "inputs": [],
      "name": "getInterval",
      "outputs": [
        {
          "internalType": "uint256",
          "name": "",
          "type": "uint256"
        }
      ],
      "stateMutability": "view",
      "type": "function"
    },
    {
      "inputs": [],
      "name": "getPriceFeedAddress",
      "outputs": [
        {
          "internalType": "contract AggregatorV3Interface",
          "name": "",
          "type": "address"
        }
      ],
      "stateMutability": "view",
      "type": "function"
    },
    {
      "inputs": [],
      "name": "getScallingFactorLength",
      "outputs": [
        {
          "internalType": "uint256",
          "name": "",
          "type": "uint256"
        }
      ],
      "stateMutability": "view",
      "type": "function"
    },
    {
      "inputs": [
        {
          "internalType": "address",
          "name": "userAddress",
          "type": "address"
        }
      ],
      "name": "getUserLastRebaseCount",
      "outputs": [
        {
          "internalType": "uint256",
          "name": "",
          "type": "uint256"
        }
      ],
      "stateMutability": "view",
      "type": "function"
    },
    {
      "inputs": [
        {
          "internalType": "address",
          "name": "spender",
          "type": "address"
        },
        {
          "internalType": "uint256",
          "name": "addedValue",
          "type": "uint256"
        }
      ],
      "name": "increaseAllowance",
      "outputs": [
        {
          "internalType": "bool",
          "name": "",
          "type": "bool"
        }
      ],
      "stateMutability": "nonpayable",
      "type": "function"
    },
    {
      "inputs": [
        {
          "internalType": "contract DevToken",
          "name": "token1",
          "type": "address"
        },
        {
          "internalType": "contract DevToken",
          "name": "token2",
          "type": "address"
        }
      ],
      "name": "initialize",
      "outputs": [],
      "stateMutability": "nonpayable",
      "type": "function"
    },
    {
      "inputs": [
        {
          "internalType": "address",
          "name": "owner_",
          "type": "address"
        }
      ],
      "name": "maxAmountToWithdraw",
      "outputs": [
        {
          "internalType": "uint256",
          "name": "",
          "type": "uint256"
        }
      ],
      "stateMutability": "view",
      "type": "function"
    },
    {
      "inputs": [
        {
          "internalType": "address",
          "name": "",
          "type": "address"
        }
      ],
      "name": "maxDeposit",
      "outputs": [
        {
          "internalType": "uint256",
          "name": "",
          "type": "uint256"
        }
      ],
      "stateMutability": "view",
      "type": "function"
    },
    {
      "inputs": [
        {
          "internalType": "address",
          "name": "",
          "type": "address"
        }
      ],
      "name": "maxMint",
      "outputs": [
        {
          "internalType": "uint256",
          "name": "",
          "type": "uint256"
        }
      ],
      "stateMutability": "view",
      "type": "function"
    },
    {
      "inputs": [
        {
          "internalType": "address",
          "name": "owner_",
          "type": "address"
        }
      ],
      "name": "maxRedeem",
      "outputs": [
        {
          "internalType": "uint256",
          "name": "",
          "type": "uint256"
        }
      ],
      "stateMutability": "view",
      "type": "function"
    },
    {
      "inputs": [
        {
          "internalType": "address",
          "name": "owner_",
          "type": "address"
        }
      ],
      "name": "maxWithdraw",
      "outputs": [
        {
          "internalType": "uint256",
          "name": "",
          "type": "uint256"
        }
      ],
      "stateMutability": "view",
      "type": "function"
    },
    {
      "inputs": [
        {
          "internalType": "uint256",
          "name": "shares",
          "type": "uint256"
        },
        {
          "internalType": "address",
          "name": "receiver",
          "type": "address"
        }
      ],
      "name": "mint",
      "outputs": [
        {
          "internalType": "uint256",
          "name": "",
          "type": "uint256"
        }
      ],
      "stateMutability": "nonpayable",
      "type": "function"
    },
    {
      "inputs": [],
      "name": "name",
      "outputs": [
        {
          "internalType": "string",
          "name": "",
          "type": "string"
        }
      ],
      "stateMutability": "view",
      "type": "function"
    },
    {
      "inputs": [],
      "name": "owner",
      "outputs": [
        {
          "internalType": "address",
          "name": "",
          "type": "address"
        }
      ],
      "stateMutability": "view",
      "type": "function"
    },
    {
      "inputs": [
        {
          "internalType": "uint256",
          "name": "assets",
          "type": "uint256"
        }
      ],
      "name": "previewDeposit",
      "outputs": [
        {
          "internalType": "uint256",
          "name": "",
          "type": "uint256"
        }
      ],
      "stateMutability": "view",
      "type": "function"
    },
    {
      "inputs": [
        {
          "internalType": "uint256",
          "name": "shares",
          "type": "uint256"
        }
      ],
      "name": "previewMint",
      "outputs": [
        {
          "internalType": "uint256",
          "name": "",
          "type": "uint256"
        }
      ],
      "stateMutability": "view",
      "type": "function"
    },
    {
      "inputs": [
        {
          "internalType": "uint256",
          "name": "shares",
          "type": "uint256"
        }
      ],
      "name": "previewRedeem",
      "outputs": [
        {
          "internalType": "uint256",
          "name": "",
          "type": "uint256"
        }
      ],
      "stateMutability": "view",
      "type": "function"
    },
    {
      "inputs": [
        {
          "internalType": "uint256",
          "name": "assets",
          "type": "uint256"
        }
      ],
      "name": "previewWithdraw",
      "outputs": [
        {
          "internalType": "uint256",
          "name": "",
          "type": "uint256"
        }
      ],
      "stateMutability": "view",
      "type": "function"
    },
    {
      "inputs": [],
      "name": "rebase",
      "outputs": [],
      "stateMutability": "nonpayable",
      "type": "function"
    },
    {
      "inputs": [
        {
          "internalType": "uint256",
          "name": "shares",
          "type": "uint256"
        },
        {
          "internalType": "address",
          "name": "receiver",
          "type": "address"
        },
        {
          "internalType": "address",
          "name": "owner_",
          "type": "address"
        }
      ],
      "name": "redeem",
      "outputs": [
        {
          "internalType": "uint256",
          "name": "",
          "type": "uint256"
        }
      ],
      "stateMutability": "nonpayable",
      "type": "function"
    },
    {
      "inputs": [],
      "name": "renounceOwnership",
      "outputs": [],
      "stateMutability": "nonpayable",
      "type": "function"
    },
    {
      "inputs": [
        {
          "internalType": "uint256",
          "name": "scallingFactorX_",
          "type": "uint256"
        }
      ],
      "name": "subUnchecked",
      "outputs": [
        {
          "internalType": "uint256",
          "name": "",
          "type": "uint256"
        }
      ],
      "stateMutability": "view",
      "type": "function"
    },
    {
      "inputs": [],
      "name": "symbol",
      "outputs": [
        {
          "internalType": "string",
          "name": "",
          "type": "string"
        }
      ],
      "stateMutability": "view",
      "type": "function"
    },
    {
      "inputs": [],
      "name": "totalAssets",
      "outputs": [
        {
          "internalType": "uint256",
          "name": "",
          "type": "uint256"
        }
      ],
      "stateMutability": "view",
      "type": "function"
    },
    {
      "inputs": [],
      "name": "totalSupply",
      "outputs": [
        {
          "internalType": "uint256",
          "name": "",
          "type": "uint256"
        }
      ],
      "stateMutability": "pure",
      "type": "function"
    },
    {
      "inputs": [
        {
          "internalType": "address",
          "name": "",
          "type": "address"
        },
        {
          "internalType": "uint256",
          "name": "",
          "type": "uint256"
        }
      ],
      "name": "transfer",
      "outputs": [
        {
          "internalType": "bool",
          "name": "",
          "type": "bool"
        }
      ],
      "stateMutability": "nonpayable",
      "type": "function"
    },
    {
      "inputs": [
        {
          "internalType": "address",
          "name": "",
          "type": "address"
        },
        {
          "internalType": "address",
          "name": "",
          "type": "address"
        },
        {
          "internalType": "uint256",
          "name": "",
          "type": "uint256"
        }
      ],
      "name": "transferFrom",
      "outputs": [
        {
          "internalType": "bool",
          "name": "",
          "type": "bool"
        }
      ],
      "stateMutability": "nonpayable",
      "type": "function"
    },
    {
      "inputs": [
        {
          "internalType": "address",
          "name": "newOwner",
          "type": "address"
        }
      ],
      "name": "transferOwnership",
      "outputs": [],
      "stateMutability": "nonpayable",
      "type": "function"
    },
    {
      "inputs": [
        {
          "internalType": "address",
          "name": "owner_",
          "type": "address"
        }
      ],
      "name": "updateUserLastRebaseCount",
      "outputs": [],
      "stateMutability": "nonpayable",
      "type": "function"
    },
    {
      "inputs": [
        {
          "internalType": "uint256",
          "name": "assets",
          "type": "uint256"
        },
        {
          "internalType": "address",
          "name": "receiver",
          "type": "address"
        },
        {
          "internalType": "address",
          "name": "owner_",
          "type": "address"
        }
      ],
      "name": "withdraw",
      "outputs": [
        {
          "internalType": "uint256",
          "name": "",
          "type": "uint256"
        }
      ],
      "stateMutability": "nonpayable",
      "type": "function"
    }
  ],
  "bytecode": {
    "object": "0x6101006040523480156200001257600080fd5b506040516200245438038062002454833981016040819052620000359162000268565b60405180604001604052806011815260200170149a5cdad41c9bdd1bd8dbdb15985d5b1d607a1b8152506040518060400160405280600381526020016252504b60e81b81525081600390816200008c919062000355565b5060046200009b828262000355565b5050600160055550620000ae33620000ff565b6001600160a01b0380841660a08190529083166080526000908190620000d49062000151565b9150915081620000e6576012620000e8565b805b60ff1660c052505060e052505042600a556200046c565b600680546001600160a01b038381166001600160a01b0319831681179093556040519116919082907f8be0079c531659141344cd1fd0a4f28419497f9722a3daafe3b4186f6b6457e090600090a35050565b60408051600481526024810182526020810180516001600160e01b031663313ce56760e01b17905290516000918291829182916001600160a01b038716916200019a9162000421565b600060405180830381855afa9150503d8060008114620001d7576040519150601f19603f3d011682016040523d82523d6000602084013e620001dc565b606091505b5091509150818015620001f157506020815110155b801562000216575060ff80168180602001905181019062000213919062000452565b11155b15620002425760008180602001905181019062000234919062000452565b600197909650945050505050565b5060009485945092505050565b6001600160a01b03811681146200026557600080fd5b50565b6000806000606084860312156200027e57600080fd5b83516200028b816200024f565b60208501519093506200029e816200024f565b80925050604084015190509250925092565b634e487b7160e01b600052604160045260246000fd5b600181811c90821680620002db57607f821691505b602082108103620002fc57634e487b7160e01b600052602260045260246000fd5b50919050565b601f8211156200035057600081815260208120601f850160051c810160208610156200032b5750805b601f850160051c820191505b818110156200034c5782815560010162000337565b5050505b505050565b81516001600160401b03811115620003715762000371620002b0565b6200038981620003828454620002c6565b8462000302565b602080601f831160018114620003c15760008415620003a85750858301515b600019600386901b1c1916600185901b1785556200034c565b600085815260208120601f198616915b82811015620003f257888601518255948401946001909101908401620003d1565b5085821015620004115787850151600019600388901b60f8161c191681555b5050505050600190811b01905550565b6000825160005b8181101562000444576020818601810151858301520162000428565b506000920191825250919050565b6000602082840312156200046557600080fd5b5051919050565b60805160a05160c05160e051611f6f620004e560003960006104620152600081816102900152818161036c01528181610ad201528181610b0201528181610c8e0152610d1a0152600081816103980152818161057f01528181611568015261177c0152600081816103020152610cb90152611f6f6000f3fe608060405234801561001057600080fd5b506004361061025e5760003560e01c80638da5cb5b11610146578063b722d6a4116100c3578063ce96cb7711610087578063ce96cb771461051b578063d905777e1461051b578063dd62ed3e1461052e578063e0504a2a14610541578063ef8b30f7146102cc578063f2fde38b1461055457600080fd5b8063b722d6a4146104e2578063ba087652146104f5578063c63d75b6146103cf578063c6e6f592146102cc578063c887e8a01461050857600080fd5b8063a4d96e171161010a578063a4d96e17146104b4578063a9059cbb146102dd578063af14052c146104c7578063b3d7f6b9146102cc578063b460af94146104cf57600080fd5b80638da5cb5b1461044f57806391ad27b41461046057806394bf804d1461048657806395d89b4114610499578063a457c2d7146104a157600080fd5b8063313ce567116101df5780634cdad506116101a35780634cdad506146102cc5780636e553f65146103f557806370a0823114610408578063715018a61461041657806378c1a6c41461041e5780637b69ce2f1461042657600080fd5b8063313ce5671461036557806338d52e0f1461039657806339509351146103bc578063402d267d146103cf578063485cc955146103e257600080fd5b80630a28a477116102265780630a28a477146102cc5780630f0f30b21461030057806318160ddd1461033a57806323b872dd1461034257806326720aa61461035057600080fd5b806301e1d114146102635780630318b3a01461027e57806306fdde03146102b757806307a2d13a146102cc578063095ea7b3146102dd575b600080fd5b61026b610567565b6040519081526020015b60405180910390f35b61026b61028c366004611b11565b60ff7f000000000000000000000000000000000000000000000000000000000000000016600a0a0390565b6102bf6105f7565b6040516102759190611b4e565b61026b6102da366004611b11565b90565b6102f06102eb366004611b96565b610689565b6040519015158152602001610275565b7f00000000000000000000000000000000000000000000000000000000000000005b6040516001600160a01b039091168152602001610275565b61026b610689565b6102f06102eb366004611bc2565b61036361035e366004611c03565b6106a4565b005b60405160ff7f0000000000000000000000000000000000000000000000000000000000000000168152602001610275565b7f0000000000000000000000000000000000000000000000000000000000000000610322565b6102f06103ca366004611b96565b6108a8565b61026b6103dd366004611c03565b6108d6565b6103636103f0366004611c20565b6108e5565b61026b610403366004611c59565b610954565b61026b6102eb366004611c03565b6103636109b4565b60075461026b565b61026b610434366004611c03565b6001600160a01b031660009081526009602052604090205490565b6006546001600160a01b0316610322565b7f000000000000000000000000000000000000000000000000000000000000000061026b565b61026b610494366004611c59565b6109c8565b6102bf6109f3565b6102f06104af366004611b96565b610a02565b61026b6104c2366004611c03565b610a8d565b610363610c7f565b61026b6104dd366004611c7e565b610db4565b6103636104f0366004611c03565b610e5d565b61026b610503366004611c7e565b610fa2565b61026b610516366004611c03565b611029565b61026b610529366004611c03565b6111eb565b61026b61053c366004611c20565b6111f6565b61032261054f366004611b11565b61122b565b610363610562366004611c03565b61125b565b6040516370a0823160e01b81523060048201526000907f00000000000000000000000000000000000000000000000000000000000000006001600160a01b0316906370a0823190602401602060405180830381865afa1580156105ce573d6000803e3d6000fd5b505050506040513d601f19601f820116820180604052508101906105f29190611cc0565b905090565b60606003805461060690611cd9565b80601f016020809104026020016040519081016040528092919081815260200182805461063290611cd9565b801561067f5780601f106106545761010080835404028352916020019161067f565b820191906000526020600020905b81548152906001019060200180831161066257829003601f168201915b5050505050905090565b6000604051637808bb7b60e11b815260040160405180910390fd5b600060086000815481106106ba576106ba611d13565b6000918252602090912001546040516323d33bc360e21b81526001600160a01b03848116600483015290911690638f4cef0c90602401602060405180830381865afa15801561070d573d6000803e3d6000fd5b505050506040513d601f19601f820116820180604052508101906107319190611cc0565b90506000600860018154811061074957610749611d13565b6000918252602090912001546040516323d33bc360e21b81526001600160a01b03858116600483015290911690638f4cef0c90602401602060405180830381865afa15801561079c573d6000803e3d6000fd5b505050506040513d601f19601f820116820180604052508101906107c09190611cc0565b905060006107cd84610a8d565b90506107d860075490565b6001600160a01b038516600090815260096020526040902055828111156108135761080e6000856108098685611d3f565b6112d1565b610828565b6108286000856108238487611d3f565b61135e565b81811115610845576108406001856108098585611d3f565b610855565b6108556001856108238486611d3f565b7fe4cdf9910b64ce21ac80bc33f09dc8c436c35db3daaa632ef78df23421b6fb258461088060075490565b604080516001600160a01b03909316835260208301919091520160405180910390a150505050565b6000336108ca8185856108bb83836111f6565b6108c59190611d52565b6113e5565b60019150505b92915050565b60006108d06001600019611d3f565b6108ed611509565b600880546001818101835560008390527ff3f7a9fe364faab93b216da50a3214154f22a0a2b415b23a84c8169e8b636ee391820180546001600160a01b039687166001600160a01b0319918216179091558354918201909355018054929093169116179055565b6000826000036109775760405163485dbddf60e01b815260040160405180910390fd5b610980826108d6565b8311156109a057604051632c40209360e11b815260040160405180910390fd5b826109ad33848380611563565b9392505050565b6109bc611509565b6109c6600061160c565b565b60006109d3826108d6565b8311156109a05760405163b6727dd960e01b815260040160405180910390fd5b60606004805461060690611cd9565b60003381610a1082866111f6565b905083811015610a755760405162461bcd60e51b815260206004820152602560248201527f45524332303a2064656372656173656420616c6c6f77616e63652062656c6f77604482015264207a65726f60d81b60648201526084015b60405180910390fd5b610a8282868684036113e5565b506001949350505050565b6001600160a01b038116600090815260096020526040812054600780548392908110610abb57610abb611d13565b906000526020600020015490506000610af98260ff7f000000000000000000000000000000000000000000000000000000000000000016600a0a0390565b90506000610b287f0000000000000000000000000000000000000000000000000000000000000000600a611e49565b905060006008600081548110610b4057610b40611d13565b6000918252602090912001546040516323d33bc360e21b81526001600160a01b03888116600483015290911690638f4cef0c90602401602060405180830381865afa158015610b93573d6000803e3d6000fd5b505050506040513d601f19601f82011682018060405250810190610bb79190611cc0565b905060006008600181548110610bcf57610bcf611d13565b6000918252602090912001546040516323d33bc360e21b81526001600160a01b03898116600483015290911690638f4cef0c90602401602060405180830381865afa158015610c22573d6000803e3d6000fd5b505050506040513d601f19601f82011682018060405250810190610c469190611cc0565b9050600083610c558684611e58565b610c5f8886611e58565b610c699190611d52565b610c739190611e6f565b98975050505050505050565b610c87611509565b6000610cb47f0000000000000000000000000000000000000000000000000000000000000000600a611e49565b610ce67f00000000000000000000000000000000000000000000000000000000000000006001600160a01b031661165e565b610cf09190611e6f565b90506000610cff8260036116cf565b90506000610d0e8360026116cf565b90506007816002610d407f0000000000000000000000000000000000000000000000000000000000000000600a611e49565b610d4a9086611e58565b610d549190611e6f565b610d5e9190611e6f565b815460018101835560009283526020909220909101557fafae32ce2847c13a56ab802c034c27d3c19f1d61be48c424c5df134145cd44d0610d9e60075490565b60405190815260200160405180910390a1505050565b6000816001600160a01b0381163314610de057604051633178cde960e01b815260040160405180910390fd5b610de8611706565b6007546001600160a01b03851660009081526009602052604090205414610e1257610e12846106a4565b610e1b836111eb565b851115610e3b57604051636e95b8bb60e01b815260040160405180910390fd5b84610e49338686848061175f565b9150610e556001600555565b509392505050565b6008600081548110610e7157610e71611d13565b6000918252602090912001546040516323d33bc360e21b81526001600160a01b03838116600483015290911690638f4cef0c90602401602060405180830381865afa158015610ec4573d6000803e3d6000fd5b505050506040513d601f19601f82011682018060405250810190610ee89190611cc0565b158015610f7d57506008600181548110610f0457610f04611d13565b6000918252602090912001546040516323d33bc360e21b81526001600160a01b03838116600483015290911690638f4cef0c90602401602060405180830381865afa158015610f57573d6000803e3d6000fd5b505050506040513d601f19601f82011682018060405250810190610f7b9190611cc0565b155b15610f9f576007546001600160a01b0382166000908152600960205260409020555b50565b6000816001600160a01b0381163314610fce57604051633178cde960e01b815260040160405180910390fd5b610fd6611706565b6007546001600160a01b0385166000908152600960205260409020541461100057611000846106a4565b611009836111eb565b851115610e3b57604051630de67d8b60e11b815260040160405180910390fd5b6000600860018154811061103f5761103f611d13565b6000918252602090912001546040516370a0823160e01b81526001600160a01b038481166004830152909116906370a0823190602401602060405180830381865afa158015611092573d6000803e3d6000fd5b505050506040513d601f19601f820116820180604052508101906110b69190611cc0565b60086000815481106110ca576110ca611d13565b6000918252602090912001546040516370a0823160e01b81526001600160a01b038581166004830152909116906370a0823190602401602060405180830381865afa15801561111d573d6000803e3d6000fd5b505050506040513d601f19601f820116820180604052508101906111419190611cc0565b11156111d257600860018154811061115b5761115b611d13565b6000918252602090912001546040516370a0823160e01b81526001600160a01b038481166004830152909116906370a0823190602401602060405180830381865afa1580156111ae573d6000803e3d6000fd5b505050506040513d601f19601f820116820180604052508101906108d09190611cc0565b600860008154811061115b5761115b611d13565b919050565b60006108d082611029565b6000611200611509565b6001600160a01b038084166000908152600160209081526040808320938616835292905220546109ad565b60006008828154811061124057611240611d13565b6000918252602090912001546001600160a01b031692915050565b611263611509565b6001600160a01b0381166112c85760405162461bcd60e51b815260206004820152602660248201527f4f776e61626c653a206e6577206f776e657220697320746865207a65726f206160448201526564647265737360d01b6064820152608401610a6c565b610f9f8161160c565b6000819050600884815481106112e9576112e9611d13565b6000918252602090912001546040516340c10f1960e01b81526001600160a01b03858116600483015260248201849052909116906340c10f1990604401600060405180830381600087803b15801561134057600080fd5b505af1158015611354573d6000803e3d6000fd5b5050505050505050565b6008838154811061137157611371611d13565b600091825260209091200154604051635575d17160e11b81526001600160a01b038481166004830152602482018490529091169063aaeba2e290604401600060405180830381600087803b1580156113c857600080fd5b505af11580156113dc573d6000803e3d6000fd5b50505050505050565b6001600160a01b0383166114475760405162461bcd60e51b8152602060048201526024808201527f45524332303a20617070726f76652066726f6d20746865207a65726f206164646044820152637265737360e01b6064820152608401610a6c565b6001600160a01b0382166114a85760405162461bcd60e51b815260206004820152602260248201527f45524332303a20617070726f766520746f20746865207a65726f206164647265604482015261737360f01b6064820152608401610a6c565b6001600160a01b0383811660008181526001602090815260408083209487168084529482529182902085905590518481527f8c5be1e5ebec7d5bd14f71427d1e84f3dd0314c0f7b2291e5b200ac8c7c3b925910160405180910390a3505050565b6006546001600160a01b031633146109c65760405162461bcd60e51b815260206004820181905260248201527f4f776e61626c653a2063616c6c6572206973206e6f7420746865206f776e65726044820152606401610a6c565b61158f7f0000000000000000000000000000000000000000000000000000000000000000853085611809565b61159883610e5d565b6115a4600084836112d1565b6115b0600184836112d1565b826001600160a01b0316846001600160a01b03167fdcbc1c05240f31ff3ad067ef1ee35ce4997762752e3a095284754544f4c709d784846040516115fe929190918252602082015260400190565b60405180910390a350505050565b600680546001600160a01b038381166001600160a01b0319831681179093556040519116919082907f8be0079c531659141344cd1fd0a4f28419497f9722a3daafe3b4186f6b6457e090600090a35050565b600080826001600160a01b031663feaf968c6040518163ffffffff1660e01b815260040160a060405180830381865afa15801561169f573d6000803e3d6000fd5b505050506040513d601f19601f820116820180604052508101906116c39190611eab565b50919695505050505050565b600082156116fd57816116e3600185611d3f565b6116ed9190611e6f565b6116f8906001611d52565b6109ad565b50600092915050565b6002600554036117585760405162461bcd60e51b815260206004820152601f60248201527f5265656e7472616e637947756172643a207265656e7472616e742063616c6c006044820152606401610a6c565b6002600555565b61176b6000868461135e565b6117776001868461135e565b6117a27f0000000000000000000000000000000000000000000000000000000000000000858461187a565b826001600160a01b0316846001600160a01b0316866001600160a01b03167ffbde797d201c681b91056529119e0b02407c7bb96a4a2c75c01fc9667232c8db85856040516117fa929190918252602082015260400190565b60405180910390a45050505050565b6040516001600160a01b03808516602483015283166044820152606481018290526118749085906323b872dd60e01b906084015b60408051601f198184030181529190526020810180516001600160e01b03166001600160e01b0319909316929092179091526118af565b50505050565b6040516001600160a01b0383166024820152604481018290526118aa90849063a9059cbb60e01b9060640161183d565b505050565b6000611904826040518060400160405280602081526020017f5361666545524332303a206c6f772d6c6576656c2063616c6c206661696c6564815250856001600160a01b03166119819092919063ffffffff16565b8051909150156118aa57808060200190518101906119229190611efb565b6118aa5760405162461bcd60e51b815260206004820152602a60248201527f5361666545524332303a204552433230206f7065726174696f6e20646964206e6044820152691bdd081cdd58d8d9595960b21b6064820152608401610a6c565b60606119908484600085611998565b949350505050565b6060824710156119f95760405162461bcd60e51b815260206004820152602660248201527f416464726573733a20696e73756666696369656e742062616c616e636520666f6044820152651c8818d85b1b60d21b6064820152608401610a6c565b600080866001600160a01b03168587604051611a159190611f1d565b60006040518083038185875af1925050503d8060008114611a52576040519150601f19603f3d011682016040523d82523d6000602084013e611a57565b606091505b5091509150611a6887838387611a73565b979650505050505050565b60608315611ae2578251600003611adb576001600160a01b0385163b611adb5760405162461bcd60e51b815260206004820152601d60248201527f416464726573733a2063616c6c20746f206e6f6e2d636f6e74726163740000006044820152606401610a6c565b5081611990565b6119908383815115611af75781518083602001fd5b8060405162461bcd60e51b8152600401610a6c9190611b4e565b600060208284031215611b2357600080fd5b5035919050565b60005b83811015611b45578181015183820152602001611b2d565b50506000910152565b6020815260008251806020840152611b6d816040850160208701611b2a565b601f01601f19169190910160400192915050565b6001600160a01b0381168114610f9f57600080fd5b60008060408385031215611ba957600080fd5b8235611bb481611b81565b946020939093013593505050565b600080600060608486031215611bd757600080fd5b8335611be281611b81565b92506020840135611bf281611b81565b929592945050506040919091013590565b600060208284031215611c1557600080fd5b81356109ad81611b81565b60008060408385031215611c3357600080fd5b8235611c3e81611b81565b91506020830135611c4e81611b81565b809150509250929050565b60008060408385031215611c6c57600080fd5b823591506020830135611c4e81611b81565b600080600060608486031215611c9357600080fd5b833592506020840135611ca581611b81565b91506040840135611cb581611b81565b809150509250925092565b600060208284031215611cd257600080fd5b5051919050565b600181811c90821680611ced57607f821691505b602082108103611d0d57634e487b7160e01b600052602260045260246000fd5b50919050565b634e487b7160e01b600052603260045260246000fd5b634e487b7160e01b600052601160045260246000fd5b818103818111156108d0576108d0611d29565b808201808211156108d0576108d0611d29565b600181815b80851115611da0578160001904821115611d8657611d86611d29565b80851615611d9357918102915b93841c9390800290611d6a565b509250929050565b600082611db7575060016108d0565b81611dc4575060006108d0565b8160018114611dda5760028114611de457611e00565b60019150506108d0565b60ff841115611df557611df5611d29565b50506001821b6108d0565b5060208310610133831016604e8410600b8410161715611e23575081810a6108d0565b611e2d8383611d65565b8060001904821115611e4157611e41611d29565b029392505050565b60006109ad60ff841683611da8565b80820281158282048414176108d0576108d0611d29565b600082611e8c57634e487b7160e01b600052601260045260246000fd5b500490565b805169ffffffffffffffffffff811681146111e657600080fd5b600080600080600060a08688031215611ec357600080fd5b611ecc86611e91565b9450602086015193506040860151925060608601519150611eef60808701611e91565b90509295509295909350565b600060208284031215611f0d57600080fd5b815180151581146109ad57600080fd5b60008251611f2f818460208701611b2a565b919091019291505056fea26469706673582212206f2b7337efb53905349b88638705781b253013cf01450e778ca776fdc0bf0c3764736f6c63430008130033",
    "linkReferences": {}
  },
  "methodIdentifiers": {
    "allowance(address,address)": "dd62ed3e",
    "applyRebase(address)": "26720aa6",
    "approve(address,uint256)": "095ea7b3",
    "asset()": "38d52e0f",
    "balanceOf(address)": "70a08231",
    "calculateRollOverValue(address)": "a4d96e17",
    "convertToAssets(uint256)": "07a2d13a",
    "convertToShares(uint256)": "c6e6f592",
    "decimals()": "313ce567",
    "decreaseAllowance(address,uint256)": "a457c2d7",
    "deposit(uint256,address)": "6e553f65",
    "getDevTokenAddress(uint256)": "e0504a2a",
    "getInterval()": "91ad27b4",
    "getPriceFeedAddress()": "0f0f30b2",
    "getScallingFactorLength()": "78c1a6c4",
    "getUserLastRebaseCount(address)": "7b69ce2f",
    "increaseAllowance(address,uint256)": "39509351",
    "initialize(address,address)": "485cc955",
    "maxAmountToWithdraw(address)": "c887e8a0",
    "maxDeposit(address)": "402d267d",
    "maxMint(address)": "c63d75b6",
    "maxRedeem(address)": "d905777e",
    "maxWithdraw(address)": "ce96cb77",
    "mint(uint256,address)": "94bf804d",
    "name()": "06fdde03",
    "owner()": "8da5cb5b",
    "previewDeposit(uint256)": "ef8b30f7",
    "previewMint(uint256)": "b3d7f6b9",
    "previewRedeem(uint256)": "4cdad506",
    "previewWithdraw(uint256)": "0a28a477",
    "rebase()": "af14052c",
    "redeem(uint256,address,address)": "ba087652",
    "renounceOwnership()": "715018a6",
    "subUnchecked(uint256)": "0318b3a0",
    "symbol()": "95d89b41",
    "totalAssets()": "01e1d114",
    "totalSupply()": "18160ddd",
    "transfer(address,uint256)": "a9059cbb",
    "transferFrom(address,address,uint256)": "23b872dd",
    "transferOwnership(address)": "f2fde38b",
    "updateUserLastRebaseCount(address)": "b722d6a4",
    "withdraw(uint256,address,address)": "b460af94"
  },
  "id": 5
}